{
  "_format": "hh-sol-artifact-1",
  "contractName": "Presale",
  "sourceName": "contracts/Presale.sol",
  "abi": [
    {
      "inputs": [
        {
          "internalType": "address",
          "name": "_token",
          "type": "address"
        },
        {
          "internalType": "address",
          "name": "_router",
          "type": "address"
        },
        {
          "internalType": "uint256",
          "name": "_softCap",
          "type": "uint256"
        },
        {
          "internalType": "uint256",
          "name": "_hardCap",
          "type": "uint256"
        },
        {
          "internalType": "uint256",
          "name": "_presaleRate",
          "type": "uint256"
        },
        {
          "internalType": "uint256",
          "name": "_listingRate",
          "type": "uint256"
        },
        {
          "internalType": "uint256",
          "name": "_liquidityPercent",
          "type": "uint256"
        },
        {
          "internalType": "uint256",
          "name": "_startTime",
          "type": "uint256"
        },
        {
          "internalType": "uint256",
          "name": "_endTime",
          "type": "uint256"
        },
        {
          "internalType": "uint256",
          "name": "",
          "type": "uint256"
        },
        {
          "internalType": "uint256",
          "name": "",
          "type": "uint256"
        },
        {
          "internalType": "uint256",
          "name": "_amount",
          "type": "uint256"
        },
        {
          "internalType": "bytes32",
          "name": "_snapshotRoot",
          "type": "bytes32"
        },
        {
          "internalType": "address",
          "name": "_owner",
          "type": "address"
        }
      ],
      "stateMutability": "nonpayable",
      "type": "constructor"
    },
    {
      "inputs": [
        {
          "internalType": "address",
          "name": "owner",
          "type": "address"
        }
      ],
      "name": "OwnableInvalidOwner",
      "type": "error"
    },
    {
      "inputs": [
        {
          "internalType": "address",
          "name": "account",
          "type": "address"
        }
      ],
      "name": "OwnableUnauthorizedAccount",
      "type": "error"
    },
    {
      "inputs": [],
      "name": "ReentrancyGuardReentrantCall",
      "type": "error"
    },
    {
      "inputs": [
        {
          "internalType": "address",
          "name": "token",
          "type": "address"
        }
      ],
      "name": "SafeERC20FailedOperation",
      "type": "error"
    },
    {
      "anonymous": false,
      "inputs": [
        {
          "indexed": true,
          "internalType": "address",
          "name": "buyer",
          "type": "address"
        },
        {
          "indexed": false,
          "internalType": "uint8",
          "name": "tier",
          "type": "uint8"
        },
        {
          "indexed": false,
          "internalType": "uint256",
          "name": "amount",
          "type": "uint256"
        }
      ],
      "name": "Contribution",
      "type": "event"
    },
    {
      "anonymous": false,
      "inputs": [
        {
          "indexed": true,
          "internalType": "address",
          "name": "previousOwner",
          "type": "address"
        },
        {
          "indexed": true,
          "internalType": "address",
          "name": "newOwner",
          "type": "address"
        }
      ],
      "name": "OwnershipTransferred",
      "type": "event"
    },
    {
      "anonymous": false,
      "inputs": [
        {
          "indexed": false,
          "internalType": "uint256",
          "name": "totalRaised",
          "type": "uint256"
        },
        {
          "indexed": false,
          "internalType": "uint256",
          "name": "liquidityAdded",
          "type": "uint256"
        },
        {
          "indexed": false,
          "internalType": "uint256",
          "name": "tokensLocked",
          "type": "uint256"
        }
      ],
      "name": "PresaleFinalized",
      "type": "event"
    },
    {
      "anonymous": false,
      "inputs": [
        {
          "indexed": true,
          "internalType": "address",
          "name": "token",
          "type": "address"
        },
        {
          "indexed": true,
          "internalType": "address",
          "name": "owner",
          "type": "address"
        },
        {
          "indexed": false,
          "internalType": "uint256",
          "name": "amount",
          "type": "uint256"
        }
      ],
      "name": "PresaleInitialized",
      "type": "event"
    },
    {
      "anonymous": false,
      "inputs": [
        {
          "indexed": true,
          "internalType": "address",
          "name": "buyer",
          "type": "address"
        },
        {
          "indexed": false,
          "internalType": "uint256",
          "name": "amount",
          "type": "uint256"
        }
      ],
      "name": "RefundClaimed",
      "type": "event"
    },
    {
      "anonymous": false,
      "inputs": [
        {
          "indexed": false,
          "internalType": "uint8",
          "name": "tier",
          "type": "uint8"
        },
        {
          "indexed": false,
          "internalType": "uint256",
          "name": "amount",
          "type": "uint256"
        }
      ],
      "name": "TierAllocationSet",
      "type": "event"
    },
    {
      "anonymous": false,
      "inputs": [
        {
          "indexed": true,
          "internalType": "address",
          "name": "buyer",
          "type": "address"
        },
        {
          "indexed": false,
          "internalType": "uint256",
          "name": "amount",
          "type": "uint256"
        }
      ],
      "name": "TokensClaimed",
      "type": "event"
    },
    {
      "inputs": [],
      "name": "SPLIT_BRONZE",
      "outputs": [
        {
          "internalType": "uint256",
          "name": "",
          "type": "uint256"
        }
      ],
      "stateMutability": "view",
      "type": "function"
    },
    {
      "inputs": [],
      "name": "SPLIT_GOLD",
      "outputs": [
        {
          "internalType": "uint256",
          "name": "",
          "type": "uint256"
        }
      ],
      "stateMutability": "view",
      "type": "function"
    },
    {
      "inputs": [],
      "name": "SPLIT_SILVER",
      "outputs": [
        {
          "internalType": "uint256",
          "name": "",
          "type": "uint256"
        }
      ],
      "stateMutability": "view",
      "type": "function"
    },
    {
      "inputs": [],
      "name": "TIER_BRONZE",
      "outputs": [
        {
          "internalType": "uint8",
          "name": "",
          "type": "uint8"
        }
      ],
      "stateMutability": "view",
      "type": "function"
    },
    {
      "inputs": [],
      "name": "TIER_GOLD",
      "outputs": [
        {
          "internalType": "uint8",
          "name": "",
          "type": "uint8"
        }
      ],
      "stateMutability": "view",
      "type": "function"
    },
    {
      "inputs": [],
      "name": "TIER_SILVER",
      "outputs": [
        {
          "internalType": "uint8",
          "name": "",
          "type": "uint8"
        }
      ],
      "stateMutability": "view",
      "type": "function"
    },
    {
      "inputs": [],
      "name": "claimRefund",
      "outputs": [],
      "stateMutability": "nonpayable",
      "type": "function"
    },
    {
      "inputs": [],
      "name": "claimTokens",
      "outputs": [],
      "stateMutability": "nonpayable",
      "type": "function"
    },
    {
      "inputs": [
        {
          "internalType": "address",
          "name": "",
          "type": "address"
        }
      ],
      "name": "claimedHash",
      "outputs": [
        {
          "internalType": "uint256",
          "name": "",
          "type": "uint256"
        }
      ],
      "stateMutability": "view",
      "type": "function"
    },
    {
      "inputs": [
        {
          "internalType": "bytes32[]",
          "name": "proof",
          "type": "bytes32[]"
        },
        {
          "internalType": "uint8",
          "name": "tier",
          "type": "uint8"
        },
        {
          "internalType": "uint256",
          "name": "maxAlloc",
          "type": "uint256"
        }
      ],
      "name": "contribute",
      "outputs": [],
      "stateMutability": "payable",
      "type": "function"
    },
    {
      "inputs": [
        {
          "internalType": "address",
          "name": "",
          "type": "address"
        }
      ],
      "name": "contributions",
      "outputs": [
        {
          "internalType": "uint256",
          "name": "",
          "type": "uint256"
        }
      ],
      "stateMutability": "view",
      "type": "function"
    },
    {
      "inputs": [],
      "name": "endTime",
      "outputs": [
        {
          "internalType": "uint256",
          "name": "",
          "type": "uint256"
        }
      ],
      "stateMutability": "view",
      "type": "function"
    },
    {
      "inputs": [],
      "name": "finalize",
      "outputs": [],
      "stateMutability": "nonpayable",
      "type": "function"
    },
    {
      "inputs": [],
      "name": "finalizeTime",
      "outputs": [
        {
          "internalType": "uint256",
          "name": "",
          "type": "uint256"
        }
      ],
      "stateMutability": "view",
      "type": "function"
    },
    {
      "inputs": [],
      "name": "finalized",
      "outputs": [
        {
          "internalType": "bool",
          "name": "",
          "type": "bool"
        }
      ],
      "stateMutability": "view",
      "type": "function"
    },
    {
      "inputs": [],
      "name": "getState",
      "outputs": [
        {
          "internalType": "enum Presale.State",
          "name": "",
          "type": "uint8"
        }
      ],
      "stateMutability": "view",
      "type": "function"
    },
    {
      "inputs": [],
      "name": "hardCap",
      "outputs": [
        {
          "internalType": "uint256",
          "name": "",
          "type": "uint256"
        }
      ],
      "stateMutability": "view",
      "type": "function"
    },
    {
      "inputs": [],
      "name": "liquidityPercent",
      "outputs": [
        {
          "internalType": "uint256",
          "name": "",
          "type": "uint256"
        }
      ],
      "stateMutability": "view",
      "type": "function"
    },
    {
      "inputs": [],
      "name": "listingRate",
      "outputs": [
        {
          "internalType": "uint256",
          "name": "",
          "type": "uint256"
        }
      ],
      "stateMutability": "view",
      "type": "function"
    },
    {
      "inputs": [],
      "name": "owner",
      "outputs": [
        {
          "internalType": "address",
          "name": "",
          "type": "address"
        }
      ],
      "stateMutability": "view",
      "type": "function"
    },
    {
      "inputs": [],
      "name": "presaleRate",
      "outputs": [
        {
          "internalType": "uint256",
          "name": "",
          "type": "uint256"
        }
      ],
      "stateMutability": "view",
      "type": "function"
    },
    {
      "inputs": [],
      "name": "renounceOwnership",
      "outputs": [],
      "stateMutability": "nonpayable",
      "type": "function"
    },
    {
      "inputs": [],
      "name": "router",
      "outputs": [
        {
          "internalType": "contract IUniswapV2Router02",
          "name": "",
          "type": "address"
        }
      ],
      "stateMutability": "view",
      "type": "function"
    },
    {
      "inputs": [],
      "name": "snapshotRoot",
      "outputs": [
        {
          "internalType": "bytes32",
          "name": "",
          "type": "bytes32"
        }
      ],
      "stateMutability": "view",
      "type": "function"
    },
    {
      "inputs": [],
      "name": "softCap",
      "outputs": [
        {
          "internalType": "uint256",
          "name": "",
          "type": "uint256"
        }
      ],
      "stateMutability": "view",
      "type": "function"
    },
    {
      "inputs": [],
      "name": "startTime",
      "outputs": [
        {
          "internalType": "uint256",
          "name": "",
          "type": "uint256"
        }
      ],
      "stateMutability": "view",
      "type": "function"
    },
    {
      "inputs": [
        {
          "internalType": "uint8",
          "name": "",
          "type": "uint8"
        }
      ],
      "name": "tierAllocations",
      "outputs": [
        {
          "internalType": "uint256",
          "name": "",
          "type": "uint256"
        }
      ],
      "stateMutability": "view",
      "type": "function"
    },
    {
      "inputs": [
        {
          "internalType": "uint8",
          "name": "",
          "type": "uint8"
        }
      ],
      "name": "tierTotalRaised",
      "outputs": [
        {
          "internalType": "uint256",
          "name": "",
          "type": "uint256"
        }
      ],
      "stateMutability": "view",
      "type": "function"
    },
    {
      "inputs": [
        {
          "internalType": "uint8",
          "name": "",
          "type": "uint8"
        }
      ],
      "name": "tierVesting",
      "outputs": [
        {
          "internalType": "uint256",
          "name": "tgePercent",
          "type": "uint256"
        },
        {
          "internalType": "uint256",
          "name": "cliffDuration",
          "type": "uint256"
        },
        {
          "internalType": "uint256",
          "name": "linearDuration",
          "type": "uint256"
        }
      ],
      "stateMutability": "view",
      "type": "function"
    },
    {
      "inputs": [],
      "name": "token",
      "outputs": [
        {
          "internalType": "contract IERC20",
          "name": "",
          "type": "address"
        }
      ],
      "stateMutability": "view",
      "type": "function"
    },
    {
      "inputs": [],
      "name": "totalRaised",
      "outputs": [
        {
          "internalType": "uint256",
          "name": "",
          "type": "uint256"
        }
      ],
      "stateMutability": "view",
      "type": "function"
    },
    {
      "inputs": [
        {
          "internalType": "address",
          "name": "newOwner",
          "type": "address"
        }
      ],
      "name": "transferOwnership",
      "outputs": [],
      "stateMutability": "nonpayable",
      "type": "function"
    },
    {
      "inputs": [
        {
          "internalType": "address",
          "name": "",
          "type": "address"
        }
      ],
      "name": "userTier",
      "outputs": [
        {
          "internalType": "uint8",
          "name": "",
          "type": "uint8"
        }
      ],
      "stateMutability": "view",
      "type": "function"
    },
    {
      "inputs": [],
      "name": "withdrawUnsoldTokens",
      "outputs": [],
      "stateMutability": "nonpayable",
      "type": "function"
    }
  ],
  "bytecode": "0x34620005065762001ffb388190036101c0601f8201601f19168101906001600160401b038211908210176200050b576101c09282916040526101c0391262000506576200004e6101c062000541565b6200005b6101e062000541565b61020051610220516102405161026051610280516102a0516102c051610320516103405194999398969790969095909492906001600160a01b03620000a261036062000541565b16988915620004ed57600080546001600160a01b031981168c178255604051918c916001600160a01b0316907f8be0079c531659141344cd1fd0a4f28419497f9722a3daafe3b4186f6b6457e09080a3600180556001600160a01b03871615620004bb57506001600160a01b038716156200048557871515806200047a575b156200044657428311156200040c5782841115620003c757603c8b101580620003bb575b1562000381577f99ca98ea2b9c0703b40f7a8692b4c6e79b33cb279174a9046ccf9cf7c4045c129760209760018060a01b03881660805260018060a01b031660a05260c05260e05261010052610120998a5261014098895261016052610180526101a052620001b362000521565b600a81528281016276a700918282526040810191630163f50083526001600052600292839182885260406000209351845551600184015551910155620001f862000521565b6014815281858201624f1a008152604083019062ed4e00825282600052828852604060002093518455516001840155519101556200023562000521565b916028835284830162278d0081526040840191825260036000528286526040600020935184555160018401555191015560405193845260018060a01b031692a360405190611aa492836200055784396080518381816101ab0152818161083001528181610f5f01528181610fc3015281816111b4015281816111da015281816112240152611521015260a05183818161023001528181610f1b015281816110160152611155015260c051838181610ba1015281816113370152611904015260e0518381816101f70152610d4d015261010051838181610d79015281816113ef01526116e1015251828181610b4a0152610ed9015251818181610b0f01528181610eae01526110660152610160518181816103eb01528181610c2101526118b201526101805181818161130a015281816117aa01526118d901526101a0518181816105fd0152610cd30152f35b60405162461bcd60e51b8152602060048201526012602482015271496e76616c6964206c69717569646974792560701b6044820152606490fd5b5060648b111562000145565b60405162461bcd60e51b815260206004820152601560248201527f456e642074696d65206265666f726520737461727400000000000000000000006044820152606490fd5b60405162461bcd60e51b815260206004820152601260248201527114dd185c9d081d1a5b59481a5b881c185cdd60721b6044820152606490fd5b60405162461bcd60e51b815260206004820152600c60248201526b496e76616c6964206361707360a01b6044820152606490fd5b508088111562000121565b60405162461bcd60e51b815260206004820152600e60248201526d24b73b30b634b2103937baba32b960911b6044820152606490fd5b62461bcd60e51b815260206004820152600d60248201526c24b73b30b634b2103a37b5b2b760991b6044820152606490fd5b604051631e4fbdf760e01b815260006004820152602490fd5b600080fd5b634e487b7160e01b600052604160045260246000fd5b60405190606082016001600160401b038111838210176200050b57604052565b51906001600160a01b0382168203620005065756fe608080604052600436101561001357600080fd5b60003560e01c90816308ed299c1461183a575080631865c57d1461180e57806321c7557c146117cd5780633197cbb6146117925780633a6089cf1461175e5780633c0847f51461174257806342e94c901461170457806342f39381146116c957806348c54b9d1461135d5780634bb278f314610cf65780635fb2266b14610cbb5780636a03eaf914610c9d578063715018a614610c4457806378e9792514610c095780637c396efa14610bed5780638da5cb5b14610bc4578063906a26e014610b895780639a46e41214610b6d578063a20ecbbb14610b32578063b068375514610af7578063b1d0af7014610ab9578063b3f05b9714610a96578063b5545a3c1461097f578063bcc23e6c14610963578063c5c4744c14610945578063c7d0123114610929578063c8bdbfb6146107e9578063cdfe4be814610364578063e3d3f84314610348578063e6c45d4a146102ef578063f2fde38b1461025f578063f887ea401461021a578063fb86a404146101df5763fc0c546a1461019557600080fd5b346101da5760003660031901126101da576040517f00000000000000000000000000000000000000000000000000000000000000006001600160a01b03168152602090f35b600080fd5b346101da5760003660031901126101da5760206040517f00000000000000000000000000000000000000000000000000000000000000008152f35b346101da5760003660031901126101da576040517f00000000000000000000000000000000000000000000000000000000000000006001600160a01b03168152602090f35b346101da5760203660031901126101da576004356001600160a01b03818116918290036101da5761028e61187a565b81156102d657600054826bffffffffffffffffffffffff60a01b821617600055167f8be0079c531659141344cd1fd0a4f28419497f9722a3daafe3b4186f6b6457e0600080a3005b604051631e4fbdf760e01b815260006004820152602490fd5b346101da5760203660031901126101da5760ff61030a61186a565b1660005260026020526040600020805461034460026001840154930154604051938493846040919493926060820195825260208201520152565b0390f35b346101da5760003660031901126101da57602060405160038152f35b60603660031901126101da5760043567ffffffffffffffff8082116101da57366023830112156101da578160040135918183116101da57600583811b926024928385820101953687116101da5784359360ff8516968786036101da576103c861196c565b6103d06118a6565b9860048a10156107d4576001809a0361079d573415610764577f0000000000000000000000000000000000000000000000000000000000000000610258810180911161074f5742106106f8575b6000546001600160a01b0316330361057d575b5050505050505033600052602090600982526044356104543460406000205461193d565b11610541573360005260038252826040600020805460ff8116151560001461053257505460ff16036104fa57505b3360005260098152604060002061049a34825461193d565b90556104a83460065461193d565b600655816000526004815260406000206104c334825461193d565b905560405191825234908201527f6202e363b9b07bd49964490f5cd955af47c94fffc29054855e24d451a753851a60403392a28055005b9060126064926040519262461bcd60e51b845260048401528201527121b0b73737ba1031b430b733b2903a34b2b960711b6044820152fd5b90925060ff1916179055610482565b9060166064926040519262461bcd60e51b845260048401528201527522bc31b2b2b2399036b0bc1030b63637b1b0ba34b7b760511b6044820152fd5b60405193602097888601903360601b825260ff60f81b9060f81b1660348701526044356035870152603586526060860197868910908911176106e357906105d5898d9897969594938a6040528751902094018961194a565b87526080948901888587015b8383106106d05750505050946000945b610665575b50505050507f00000000000000000000000000000000000000000000000000000000000000000361062c57808080808080610430565b60146064926040519262461bcd60e51b845260048401528201527324b73b30b634b21026b2b935b63290283937b7b360611b6044820152fd5b909192939481518610156106ca5785831b840185015190818110156106ba57600052865260406000205b9460001981146106a557890193929190896105f1565b87634e487b7160e01b60005260116004526000fd5b906000528652604060002061068f565b946105f6565b823581528d9850918101918a91016105e1565b89634e487b7160e01b60005260416004526000fd5b600289101561041d5760405162461bcd60e51b8152602060048201526021818a01527f5072696f726974792057696e646f773a2053696c7665722f476f6c64204f6e6c6044820152607960f81b6064820152608490fd5b88634e487b7160e01b60005260116004526000fd5b60405162461bcd60e51b8152602060048201526012818a0152710416d6f756e74206d757374206265203e20360741b6044820152606490fd5b60405162461bcd60e51b8152602060048201526010818a01526f50726573616c65206e6f74206c69766560801b6044820152606490fd5b87634e487b7160e01b60005260216004526000fd5b346101da5760003660031901126101da5761080261187a565b60ff60075416806108ec575b156108bb576040516370a0823160e01b81523060048201526001600160a01b037f00000000000000000000000000000000000000000000000000000000000000006020836024818585165afa9182156108af5760009261087a575b61087893506000541690611a2b565b005b91506020833d82116108a7575b816108946020938361194a565b810103126101da57610878925191610869565b3d9150610887565b6040513d6000823e3d90fd5b60405162461bcd60e51b8152602060048201526009602482015268546f6f206561726c7960b81b6044820152606490fd5b506008546301e1338081019081811161091357630208c0800180911161091357421161080e565b634e487b7160e01b600052601160045260246000fd5b346101da5760003660031901126101da57602060405160148152f35b346101da5760003660031901126101da576020600654604051908152f35b346101da5760003660031901126101da576020604051601e8152f35b346101da5760003660031901126101da5761099861196c565b6109a06118a6565b6004811015610a8057600303610a4e573360005260096020526040600020548015610a1557336000526009602052600060408120556000808080843382f1156108af576040519081527f358fe4192934d3bf28ae181feda1f4bd08ca67f5e2fad55582cce5eb67304ae960203392a260018055005b60405162461bcd60e51b8152602060048201526011602482015270139bdd1a1a5b99c81d1bc81c99599d5b99607a1b6044820152606490fd5b60405162461bcd60e51b815260206004820152600a602482015269139bdd0819985a5b195960b21b6044820152606490fd5b634e487b7160e01b600052602160045260246000fd5b346101da5760003660031901126101da57602060ff600754166040519015158152f35b346101da5760203660031901126101da576004356001600160a01b038116908190036101da57600052600a6020526020604060002054604051908152f35b346101da5760003660031901126101da5760206040517f00000000000000000000000000000000000000000000000000000000000000008152f35b346101da5760003660031901126101da5760206040517f00000000000000000000000000000000000000000000000000000000000000008152f35b346101da5760003660031901126101da57602060405160028152f35b346101da5760003660031901126101da5760206040517f00000000000000000000000000000000000000000000000000000000000000008152f35b346101da5760003660031901126101da576000546040516001600160a01b039091168152602090f35b346101da5760003660031901126101da57602060405160328152f35b346101da5760003660031901126101da5760206040517f00000000000000000000000000000000000000000000000000000000000000008152f35b346101da5760003660031901126101da57610c5d61187a565b600080546001600160a01b0319811682556001600160a01b03167f8be0079c531659141344cd1fd0a4f28419497f9722a3daafe3b4186f6b6457e08280a3005b346101da5760003660031901126101da576020600854604051908152f35b346101da5760003660031901126101da5760206040517f00000000000000000000000000000000000000000000000000000000000000008152f35b346101da5760003660031901126101da57610d0f61196c565b610d176118a6565b6004811015610a80576002148015611307575b156112d05760075460ff81166112975760ff1916600117600755426008556006547f0000000000000000000000000000000000000000000000000000000000000000908181111561129057505b7f0000000000000000000000000000000000000000000000000000000000000000610da2818361198f565b9060148202908215918381046014148317156109135760649004601e840292848404601e1417156109135780610de9604095610de460648897049384926119c2565b6119c2565b9260036000526004602052610e1a610e0582876000205461198f565b9160026000526004602052866000205461198f565b9083811061127a575b509084916003600052600560205283836000205581811061125f575b506002600052600560205280826000205560016000528382600020558151926003845260208401527fe9c096f207492e79c93ffb021d220c180b64c8a54eb958748efacc2b7a38d84f80968194a1815190600282526020820152a1815190600182526020820152a16064610ed37f00000000000000000000000000000000000000000000000000000000000000008361198f565b04610efe7f00000000000000000000000000000000000000000000000000000000000000008261198f565b60405163095ea7b360e01b60208083019182526001600160a01b037f00000000000000000000000000000000000000000000000000000000000000001660248401526044808401859052835290600090610f5960648561194a565b835190827f00000000000000000000000000000000000000000000000000000000000000005af16000513d8261121a575b505015611143575b506000546001600160a01b0316426102588101908110610913576040519163f305d71960e01b835260018060a01b037f00000000000000000000000000000000000000000000000000000000000000001660048401528360248401526000604484015260006064840152608483015260a482015260608160c4818660018060a01b037f0000000000000000000000000000000000000000000000000000000000000000165af19081611118575b506110d7575060008080809360018060a01b038254168282156110ce575bf1156108af575b7f000000000000000000000000000000000000000000000000000000000000000060640390606482116109135760008060646110a28295839561198f565b8254919004906001600160a01b03168282156110c5575bf1156108af5760018055005b506108fc6110b9565b506108fc61105d565b600654604080519182526020820193909352918201527fd4294f2e03dfa3f368c60ae6950d6e90c37101953b6aa279269459a9517f106e90606090a1611064565b606090813d811161113c575b61112e818361194a565b810103126101da578461103f565b503d611124565b60405163095ea7b360e01b60208201527f00000000000000000000000000000000000000000000000000000000000000006001600160a01b0316602482015260006044808301919091528152906080820167ffffffffffffffff811183821017611204576111fe926111d8916040527f00000000000000000000000000000000000000000000000000000000000000006119cf565b7f00000000000000000000000000000000000000000000000000000000000000006119cf565b83610f92565b634e487b7160e01b600052604160045260246000fd5b90915061125757507f00000000000000000000000000000000000000000000000000000000000000006001600160a01b03163b15155b8580610f8a565b600114611250565b61126c81611273936119c2565b909461193d565b9287610e3f565b8061126c61128a928895966119c2565b91610e23565b9050610d77565b60405162461bcd60e51b8152602060048201526011602482015270105b1c9958591e48199a5b985b1a5e9959607a1b6044820152606490fd5b60405162461bcd60e51b815260206004820152600f60248201526e43616e6e6f742066696e616c697a6560881b6044820152606490fd5b507f000000000000000000000000000000000000000000000000000000000000000042118015610d2a57506006547f00000000000000000000000000000000000000000000000000000000000000001115610d2a565b346101da5760003660031901126101da5761137661196c565b60ff600754161561169457336000526020600981526040600020541561165e57336000526003815260ff60406000205416600982526040600020549080600052600483526040600020546005845260406000205490801515600014611653576113e26113e7928561198f565b6119a2565b80925b6114157f0000000000000000000000000000000000000000000000000000000000000000809261198f565b33600052600a8652604060002054158061164a575b6115d9575b50505060005260028252604060002090604051906060820182811067ffffffffffffffff8211176112045760405261148f60646114878554808652604060026001890154988a8901998a52015496019586528461198f565b0480926119c2565b916114a0829460085490519061193d565b6114ab82518261193d565b4210611590575050506114bd9161193d565b33600052600a82526040600020549081811115611554577f896e034966eaaf1adc54acc0f257056febbd300c9e47182cf761982cf1f5e430916114ff916119c2565b9133600052600a8152604060002061151884825461193d565b905561154583337f0000000000000000000000000000000000000000000000000000000000000000611a2b565b6040519283523392a260018055005b60405162461bcd60e51b81526004810184905260146024820152734e6f7468696e67206e657720746f20636c61696d60601b6044820152606490fd5b809391929342116115a5575b505050506114bd565b6115d094506115ca92916115bc6115c292426119c2565b9061198f565b9051906119a2565b9061193d565b8280808061159c565b6115e6926113e2916119c2565b801580156115f6575b839161142f565b8190600090611641575b600080809381933390f1156108af576040519081527f358fe4192934d3bf28ae181feda1f4bd08ca67f5e2fad55582cce5eb67304ae9843392a283806115ef565b506108fc611600565b5080831061142a565b5050600080926113ea565b6064906040519062461bcd60e51b82526004820152600f60248201526e27379031b7b73a3934b13aba34b7b760891b6044820152fd5b60405162461bcd60e51b815260206004820152600d60248201526c139bdd08199a5b985b1a5e9959609a1b6044820152606490fd5b346101da5760003660031901126101da5760206040517f00000000000000000000000000000000000000000000000000000000000000008152f35b346101da5760203660031901126101da576004356001600160a01b038116908190036101da5760005260096020526020604060002054604051908152f35b346101da5760003660031901126101da57602060405160018152f35b346101da5760203660031901126101da5760ff61177961186a565b1660005260056020526020604060002054604051908152f35b346101da5760003660031901126101da5760206040517f00000000000000000000000000000000000000000000000000000000000000008152f35b346101da5760203660031901126101da576004356001600160a01b038116908190036101da576000526003602052602060ff60406000205416604051908152f35b346101da5760003660031901126101da576118276118a6565b6040516004821015610a80576020918152f35b346101da5760203660031901126101da5760209060ff61185861186a565b16600052600482526040600020548152f35b6004359060ff821682036101da57565b6000546001600160a01b0316330361188e57565b60405163118cdaa760e01b8152336004820152602490fd5b60ff6007541661192e577f00000000000000000000000000000000000000000000000000000000000000004210611938577f0000000000000000000000000000000000000000000000000000000000000000421115611933576006547f0000000000000000000000000000000000000000000000000000000000000000111561192e57600390565b600290565b600190565b600090565b9190820180921161091357565b90601f8019910116810190811067ffffffffffffffff82111761120457604052565b60026001541461197d576002600155565b604051633ee5aeb560e01b8152600490fd5b8181029291811591840414171561091357565b81156119ac570490565b634e487b7160e01b600052601260045260246000fd5b9190820391821161091357565b906000602091828151910182855af1156108af576000513d611a2257506001600160a01b0381163b155b611a005750565b604051635274afe760e01b81526001600160a01b039091166004820152602490fd5b600114156119f9565b60405163a9059cbb60e01b60208201526001600160a01b03929092166024830152604480830193909352918152611a6c91611a6760648361194a565b6119cf565b56fea26469706673582212203df819d1caf3138fe59d4e6b4a7633107ed1210f7fde9f0d6ba830e7ec6fb83064736f6c63430008140033",
  "linkReferences": {},
  "deployedLinkReferences": {}
}