{
  "_format": "hh-sol-artifact-1",
  "contractName": "EscrowManager",
  "sourceName": "contracts/EscrowManager.sol",
  "abi": [
    {
      "inputs": [],
      "stateMutability": "nonpayable",
      "type": "constructor"
    },
    {
      "inputs": [
        {
          "internalType": "address",
          "name": "owner",
          "type": "address"
        }
      ],
      "name": "OwnableInvalidOwner",
      "type": "error"
    },
    {
      "inputs": [
        {
          "internalType": "address",
          "name": "account",
          "type": "address"
        }
      ],
      "name": "OwnableUnauthorizedAccount",
      "type": "error"
    },
    {
      "inputs": [],
      "name": "ReentrancyGuardReentrantCall",
      "type": "error"
    },
    {
      "anonymous": false,
      "inputs": [
        {
          "indexed": true,
          "internalType": "address",
          "name": "presale",
          "type": "address"
        }
      ],
      "name": "DisputeTriggered",
      "type": "event"
    },
    {
      "anonymous": false,
      "inputs": [
        {
          "indexed": true,
          "internalType": "address",
          "name": "presale",
          "type": "address"
        },
        {
          "indexed": false,
          "internalType": "uint256",
          "name": "amount",
          "type": "uint256"
        }
      ],
      "name": "FundsReleased",
      "type": "event"
    },
    {
      "anonymous": false,
      "inputs": [
        {
          "indexed": true,
          "internalType": "address",
          "name": "presale",
          "type": "address"
        },
        {
          "indexed": false,
          "internalType": "uint8",
          "name": "index",
          "type": "uint8"
        },
        {
          "indexed": false,
          "internalType": "string",
          "name": "description",
          "type": "string"
        }
      ],
      "name": "MilestoneCreated",
      "type": "event"
    },
    {
      "anonymous": false,
      "inputs": [
        {
          "indexed": true,
          "internalType": "address",
          "name": "previousOwner",
          "type": "address"
        },
        {
          "indexed": true,
          "internalType": "address",
          "name": "newOwner",
          "type": "address"
        }
      ],
      "name": "OwnershipTransferred",
      "type": "event"
    },
    {
      "inputs": [
        {
          "internalType": "address",
          "name": "_presale",
          "type": "address"
        }
      ],
      "name": "finalizeRelease",
      "outputs": [],
      "stateMutability": "nonpayable",
      "type": "function"
    },
    {
      "inputs": [
        {
          "internalType": "address",
          "name": "",
          "type": "address"
        },
        {
          "internalType": "address",
          "name": "",
          "type": "address"
        }
      ],
      "name": "hasVoted",
      "outputs": [
        {
          "internalType": "bool",
          "name": "",
          "type": "bool"
        }
      ],
      "stateMutability": "view",
      "type": "function"
    },
    {
      "inputs": [],
      "name": "owner",
      "outputs": [
        {
          "internalType": "address",
          "name": "",
          "type": "address"
        }
      ],
      "stateMutability": "view",
      "type": "function"
    },
    {
      "inputs": [
        {
          "internalType": "address",
          "name": "",
          "type": "address"
        }
      ],
      "name": "projects",
      "outputs": [
        {
          "internalType": "address",
          "name": "creator",
          "type": "address"
        },
        {
          "internalType": "uint256",
          "name": "totalFunds",
          "type": "uint256"
        },
        {
          "internalType": "uint256",
          "name": "fundsReleased",
          "type": "uint256"
        },
        {
          "internalType": "uint8",
          "name": "currentMilestone",
          "type": "uint8"
        },
        {
          "internalType": "bool",
          "name": "disputed",
          "type": "bool"
        }
      ],
      "stateMutability": "view",
      "type": "function"
    },
    {
      "inputs": [
        {
          "internalType": "address",
          "name": "_presale",
          "type": "address"
        },
        {
          "internalType": "address",
          "name": "_creator",
          "type": "address"
        },
        {
          "internalType": "uint256",
          "name": "_totalFunds",
          "type": "uint256"
        }
      ],
      "name": "registerProject",
      "outputs": [],
      "stateMutability": "nonpayable",
      "type": "function"
    },
    {
      "inputs": [],
      "name": "renounceOwnership",
      "outputs": [],
      "stateMutability": "nonpayable",
      "type": "function"
    },
    {
      "inputs": [
        {
          "internalType": "address",
          "name": "_presale",
          "type": "address"
        }
      ],
      "name": "requestRelease",
      "outputs": [],
      "stateMutability": "nonpayable",
      "type": "function"
    },
    {
      "inputs": [
        {
          "internalType": "address",
          "name": "newOwner",
          "type": "address"
        }
      ],
      "name": "transferOwnership",
      "outputs": [],
      "stateMutability": "nonpayable",
      "type": "function"
    },
    {
      "inputs": [
        {
          "internalType": "address",
          "name": "_presale",
          "type": "address"
        },
        {
          "internalType": "bool",
          "name": "_approve",
          "type": "bool"
        }
      ],
      "name": "vote",
      "outputs": [],
      "stateMutability": "nonpayable",
      "type": "function"
    },
    {
      "stateMutability": "payable",
      "type": "receive"
    }
  ],
  "bytecode": "0x6080806040523461007e5733156100685760008054336001600160a01b03198216811783556040519290916001600160a01b0316907f8be0079c531659141344cd1fd0a4f28419497f9722a3daafe3b4186f6b6457e09080a360018055610cf390816100848239f35b631e4fbdf760e01b815260006004820152602490fd5b600080fdfe60806040818152600480361015610021575b505050361561001f57600080fd5b005b600092833560e01c9081632c97703e146108aa575080634d4d2b1c1461085c578063715018a6146107ff578063840e78fd146107915780638da5cb5b14610769578063bd041c4d1461060b578063c8b94eb014610402578063d44c075f146101165763f2fde38b036100115734610112576020366003190112610112576100a66109a7565b906100af6109d8565b6001600160a01b039182169283156100fc57505082546001600160a01b0319811683178455167f8be0079c531659141344cd1fd0a4f28419497f9722a3daafe3b4186f6b6457e08380a380f35b51631e4fbdf760e01b8152908101849052602490fd5b8280fd5b509190346103fe5760603660031901126103fe576101326109a7565b61013a6109c2565b9160018060a01b0392838316918286526020946002865281872092166bffffffffffffffffffffffff60a01b8354161782556001918260443591015561017e610a3a565b92600b84526a5447452052656c6561736560a81b868501528652600285528681872001916101aa610a04565b93845285840191610fa0835284018781526060850191888352608086019389855260a08701958a8752805490600160401b8210156103d957906101f1918482018155610a5a565b9790976103ec575180519067ffffffffffffffff82116103d95788548481811c911680156103cf575b8c8210146103bb57601f8111610373575b508a90601f83116001146103045792826005999896938e9f9896936102f69f9661028697926102f9575b5050600019600383901b1c191690831b178a555b5190890155511515600288019060ff801983541691151516179055565b5160038601555190840155519101556102cf6102a0610a3a565b601781527f446576656c6f706d656e74204d696c6573746f6e6520310000000000000000008482015282610a8c565b6d46696e616c2044656c697665727960901b6102e9610a3a565b92600e8452830152610a8c565b80f35b015190503880610255565b898d528b8d209190601f1984168e5b81811061035e5750936102f69e9f989693610286969385938360059e9d9b9810610345575b505050811b018a55610269565b015160001960f88460031b161c19169055388080610338565b82840151855593870193928e01928e01610313565b898d528b8d20601f840160051c8101918d85106103b1575b601f0160051c019085908e5b8382106103a65750505061022b565b81550185908e610397565b909150819061038b565b50634e487b7160e01b8c5260228d5260248cfd5b90607f169061021a565b634e487b7160e01b8c5260418d5260248cfd5b634e487b7160e01b8b528a8c5260248bfd5b5080fd5b50346101125760203660031901126101125761041c6109a7565b9060019260028454146105fe576002845560018060a01b03809316928386526002602052818620600381019384549460ff861682840196600361045f838a610a5a565b50015442106105cb5783610473838a610a5a565b5001546005610482848b610a5a565b500154101561058e5750888401548961049b838a610a5a565b5001549081810291818304149015171561057b576002916127106104c0920498610a5a565b500160ff1990898282541617905581549060ff821660ff8114610568578a60ff910116911617905560028201805491868301809311610555575085899485948594859455541682821561054c575bf115610543577f221c08a06b07a64803b3787861a3f276212fcccb51c2e6234077a9b8cb13047a9160209151908152a2805580f35b513d85823e3d90fd5b506108fc61050e565b634e487b7160e01b8a5260119052602489fd5b634e487b7160e01b8c526011855260248cfd5b634e487b7160e01b8b526011845260248bfd5b94505094505050610100915061ff0019161790557ff6d97c5e133e50668a6b3607d8748ef6599c3303babb2b08a515a5a67369f45f8380a2805580f35b865162461bcd60e51b8152602081860152600d60248201526c566f74696e672061637469766560981b6044820152606490fd5b51633ee5aeb560e01b8152fd5b50346101125781600319360112610112576106246109a7565b906024359182151583036107655760018060a01b031690818552602092600284528486208260ff60038301541691019160036106608385610a5a565b5001544210156107315784885260038652868820338952865260ff87892054166106fe57839190156106da576106969192610a5a565b5001805491600183018093116106c75750555b83526003815281832033845290528120805460ff1916600117905580f35b634e487b7160e01b875260119052602486fd5b6106e79150600592610a5a565b5001805491600183018093116106c75750556106a9565b865162461bcd60e51b8152808501879052600d60248201526c105b1c9958591e481d9bdd1959609a1b6044820152606490fd5b865162461bcd60e51b8152808501879052600e60248201526d4e6f2061637469766520766f746560901b6044820152606490fd5b8480fd5b5050346103fe57816003193601126103fe57905490516001600160a01b039091168152602090f35b5050346103fe5760203660031901126103fe5760a0916001600160a01b039160ff918190846107be6109a7565b1681526002602052209283541692600181015491600360028301549201549281519586526020860152840152818116606084015260081c1615156080820152f35b83346108595780600319360112610859576108186109d8565b80546001600160a01b03198116825581906001600160a01b03167f8be0079c531659141344cd1fd0a4f28419497f9722a3daafe3b4186f6b6457e08280a380f35b80fd5b5050346103fe57806003193601126103fe5760ff8160209361087c6109a7565b6108846109c2565b6001600160a01b0391821683526003875283832091168252855220549151911615158152f35b91929050346109a35760203660031901126109a3576001600160a01b0391826108d16109a7565b168552600260205281852092835416330361097357508260ff600384015416920190815483101561093157506203f48042019283421161091e575060039161091891610a5a565b50015580f35b634e487b7160e01b855260119052602484fd5b5162461bcd60e51b8152602081850152601760248201527f416c6c206d696c6573746f6e65732072656c65617365640000000000000000006044820152606490fd5b62461bcd60e51b8152602084820152600c60248201526b27b7363c9031b932b0ba37b960a11b6044820152606490fd5b8380fd5b600435906001600160a01b03821682036109bd57565b600080fd5b602435906001600160a01b03821682036109bd57565b6000546001600160a01b031633036109ec57565b60405163118cdaa760e01b8152336004820152602490fd5b6040519060c0820182811067ffffffffffffffff821117610a2457604052565b634e487b7160e01b600052604160045260246000fd5b604051906040820182811067ffffffffffffffff821117610a2457604052565b8054821015610a76576000526006602060002091020190600090565b634e487b7160e01b600052603260045260246000fd5b6001600160a01b0316600090815260026020908152604082209093929190600401610ab5610a04565b92835284830190610bb88252604084018381526060850191848352608086019385855260a08701958087528254600160401b811015610ca957610aff906001948582018155610a5a565b989098610c95575180519167ffffffffffffffff8311610c815789548581811c91168015610c77575b8d821014610c635780601f8e9211610c1b575b50508b601f8411600114610bad5750916005999a9b8192610b909796959492610ba2575b5050600019600383901b1c191690831b1789555b5190880155511515600287019060ff801983541691151516179055565b51600385015551600484015551910155565b015190503880610b5f565b8a82528082209c9291601f198516915b828210610c045750509b8594939192610b909796938360059d9e9f10610beb575b505050811b018955610b73565b015160001960f88460031b161c19169055388080610bde565b838501518f559d87019d9384019390810190610bbd565b8b835281832090601f860160051c8201928610610c59575b601f0160051c019086905b828110610c4e57508d9150610b3b565b838155018690610c3e565b9091508190610c33565b634e487b7160e01b82526022600452602482fd5b90607f1690610b28565b634e487b7160e01b81526041600452602490fd5b634e487b7160e01b82526004829052602482fd5b634e487b7160e01b82526041600452602482fdfea26469706673582212206d7cdfe550cf383b2b592e545c0ec8e0ba2434fbbfb78fd02e266a49e924470e64736f6c63430008140033",
  "linkReferences": {},
  "deployedLinkReferences": {}
}