{
  "_format": "hh-sol-artifact-1",
  "contractName": "TokenFactory",
  "sourceName": "contracts/TokenFactory.sol",
  "abi": [
    {
      "inputs": [
        {
          "internalType": "address",
          "name": "initialOwner",
          "type": "address"
        }
      ],
      "stateMutability": "nonpayable",
      "type": "constructor"
    },
    {
      "inputs": [
        {
          "internalType": "address",
          "name": "owner",
          "type": "address"
        }
      ],
      "name": "OwnableInvalidOwner",
      "type": "error"
    },
    {
      "inputs": [
        {
          "internalType": "address",
          "name": "account",
          "type": "address"
        }
      ],
      "name": "OwnableUnauthorizedAccount",
      "type": "error"
    },
    {
      "anonymous": false,
      "inputs": [
        {
          "indexed": true,
          "internalType": "address",
          "name": "previousOwner",
          "type": "address"
        },
        {
          "indexed": true,
          "internalType": "address",
          "name": "newOwner",
          "type": "address"
        }
      ],
      "name": "OwnershipTransferred",
      "type": "event"
    },
    {
      "anonymous": false,
      "inputs": [
        {
          "indexed": true,
          "internalType": "address",
          "name": "token",
          "type": "address"
        },
        {
          "indexed": true,
          "internalType": "address",
          "name": "owner",
          "type": "address"
        },
        {
          "indexed": false,
          "internalType": "string",
          "name": "name",
          "type": "string"
        },
        {
          "indexed": false,
          "internalType": "string",
          "name": "symbol",
          "type": "string"
        }
      ],
      "name": "TokenCreated",
      "type": "event"
    },
    {
      "inputs": [
        {
          "internalType": "string",
          "name": "name",
          "type": "string"
        },
        {
          "internalType": "string",
          "name": "symbol",
          "type": "string"
        },
        {
          "internalType": "uint8",
          "name": "decimals",
          "type": "uint8"
        },
        {
          "internalType": "uint256",
          "name": "totalSupply",
          "type": "uint256"
        }
      ],
      "name": "createStandardToken",
      "outputs": [
        {
          "internalType": "address",
          "name": "",
          "type": "address"
        }
      ],
      "stateMutability": "payable",
      "type": "function"
    },
    {
      "inputs": [],
      "name": "deploymentFee",
      "outputs": [
        {
          "internalType": "uint256",
          "name": "",
          "type": "uint256"
        }
      ],
      "stateMutability": "view",
      "type": "function"
    },
    {
      "inputs": [],
      "name": "owner",
      "outputs": [
        {
          "internalType": "address",
          "name": "",
          "type": "address"
        }
      ],
      "stateMutability": "view",
      "type": "function"
    },
    {
      "inputs": [],
      "name": "renounceOwnership",
      "outputs": [],
      "stateMutability": "nonpayable",
      "type": "function"
    },
    {
      "inputs": [
        {
          "internalType": "uint256",
          "name": "newFee",
          "type": "uint256"
        }
      ],
      "name": "setDeploymentFee",
      "outputs": [],
      "stateMutability": "nonpayable",
      "type": "function"
    },
    {
      "inputs": [
        {
          "internalType": "address",
          "name": "newOwner",
          "type": "address"
        }
      ],
      "name": "transferOwnership",
      "outputs": [],
      "stateMutability": "nonpayable",
      "type": "function"
    },
    {
      "inputs": [],
      "name": "withdrawFees",
      "outputs": [],
      "stateMutability": "nonpayable",
      "type": "function"
    }
  ],
  "bytecode": "0x6080346100c657601f61130738819003918201601f19168301916001600160401b038311848410176100cb578084926020946040528339810103126100c657516001600160a01b0390818116908190036100c65780156100ad57600080546001600160a01b03198116831782556040519316907f8be0079c531659141344cd1fd0a4f28419497f9722a3daafe3b4186f6b6457e09080a3662386f26fc1000060015561122590816100e28239f35b604051631e4fbdf760e01b815260006004820152602490fd5b600080fd5b634e487b7160e01b600052604160045260246000fdfe6040608081526004803610156200001557600080fd5b600091823560e01c8063476343ee14620003cc578063715018a6146200036b5780638da5cb5b1462000341578063d002462b146200031b578063efa2acd71462000130578063f2cff57f146200010b5763f2fde38b146200007557600080fd5b346200010757602036600319011262000107576001600160a01b038235818116939192908490036200010357620000ab620004a4565b8315620000ed57505082546001600160a01b0319811683178455167f8be0079c531659141344cd1fd0a4f28419497f9722a3daafe3b4186f6b6457e08380a380f35b51631e4fbdf760e01b8152908101849052602490fd5b8480fd5b8280fd5b8382346200012c57816003193601126200012c576020906001549051908152f35b5080fd5b506080366003190112620001075767ffffffffffffffff918035838111620001035762000161903690830162000422565b9260243581811162000317576200017c903690840162000422565b9060443560ff811680910362000313576001543410620002dd57845191610cdc80840191821184831017620002ca579083929162000514843960a08152620001db620001cc60a083018a620004d1565b828103602084015286620004d1565b91878201526064356060820152608033910152039086f0938415620002c0577fd5d05a8421149c74fd223cfc823befb883babf9bf0b0e4d6bf9c8fdb70e59bb4620002419560018060a01b031695869262000251875192839289845289840190620004d1565b82810360208401523396620004d1565b0390a36001548034116200026a575b6020848451908152f35b80340391348311620002ad575084808093819382903414620002a3575b3390f1156200029857828062000260565b51913d9150823e3d90fd5b506108fc62000287565b634e487b7160e01b865260119052602485fd5b83513d87823e3d90fd5b634e487b7160e01b895260418652602489fd5b845162461bcd60e51b8152602081860152601060248201526f496e73756666696369656e742066656560801b6044820152606490fd5b8680fd5b8580fd5b5050346200012c5760203660031901126200012c576200033a620004a4565b3560015580f35b8382346200012c57816003193601126200012c57905490516001600160a01b039091168152602090f35b8334620003c95780600319360112620003c95762000388620004a4565b80546001600160a01b03198116825581906001600160a01b03167f8be0079c531659141344cd1fd0a4f28419497f9722a3daafe3b4186f6b6457e08280a380f35b80fd5b8382346200012c57816003193601126200012c57620003ea620004a4565b8180808060018060a01b03815416479082821562000418575bf1156200040e575080f35b51903d90823e3d90fd5b506108fc62000403565b81601f82011215620004895780359067ffffffffffffffff928383116200048e5760405193601f8401601f19908116603f01168501908111858210176200048e57604052828452602083830101116200048957816000926020809301838601378301015290565b600080fd5b634e487b7160e01b600052604160045260246000fd5b6000546001600160a01b03163303620004b957565b60405163118cdaa760e01b8152336004820152602490fd5b919082519283825260005b848110620004fe575050826000602080949584010152601f8019910116010190565b602081830181015184830182015201620004dc56fe60406080815234620004185762000cdc803803806200001e816200041d565b928339810160a082820312620004185781516001600160401b0392908381116200041857826200005091830162000443565b92602092838301519082821162000418576200006e91840162000443565b908583015160ff811681036200041857608060608501519401519560018060a01b03928388168098036200041857815181811162000315576003908154906001948583811c931680156200040d575b8b841014620003f75781908b601f948581116200039e575b50508b9084831160011462000337576000926200032b575b505060001982851b1c191690851b1782555b8651928311620003155760049687548581811c911680156200030a575b8b821014620002f557828111620002aa575b50899184116001146200023f5793839491849260009562000233575b50501b92600019911b1c19161783555b85156200021c578590816005549384167f8be0079c531659141344cd1fd0a4f28419497f9722a3daafe3b4186f6b6457e0600080a36001600160a81b03199092161760a09190911b60ff60a01b16176005556002548281019190821062000207575060025560008381528083528481208054830190558451918252917fddf252ad1be2c89b69c2b068fc378daa952ba7f163c4a11628f55a4df523b3ef91a3516108269081620004b68239f35b601190634e487b7160e01b6000525260246000fd5b8651631e4fbdf760e01b8152600081850152602490fd5b0151935038806200014a565b9190601f1984169288600052848b6000209460005b8d8983831062000292575050501062000277575b50505050811b0183556200015a565b01519060f884600019921b161c191690553880808062000268565b86860151895590970196948501948893500162000254565b886000528a6000208380870160051c8201928d8810620002eb575b0160051c019086905b828110620002de5750506200012e565b60008155018690620002ce565b92508192620002c5565b602289634e487b7160e01b6000525260246000fd5b90607f16906200011c565b634e487b7160e01b600052604160045260246000fd5b015190503880620000ed565b60008681528d8120899550929190601f198516908f5b8282106200038657505084116200036d575b505050811b018255620000ff565b015160001983871b60f8161c191690553880806200035f565b8385015186558b979095019493840193018f6200034d565b909192508560005284826000209181860160051c8301938610620003ed575b918991869594930160051c01915b828110620003dd57508d9150620000d5565b60008155859450899101620003cb565b92508192620003bd565b634e487b7160e01b600052602260045260246000fd5b92607f1692620000bd565b600080fd5b6040519190601f01601f191682016001600160401b038111838210176200031557604052565b919080601f84011215620004185782516001600160401b038111620003155760209062000479601f8201601f191683016200041d565b92818452828287010111620004185760005b818110620004a157508260009394955001015290565b85810183015184820184015282016200048b56fe6080604081815260048036101561001557600080fd5b600092833560e01c90816306fdde031461057757508063095ea7b3146104ce57806318160ddd146104af57806323b872dd146103bc578063313ce5671461039757806370a0823114610360578063715018a6146103005780638da5cb5b146102d757806395d89b41146101b7578063a9059cbb14610186578063dd62ed3e146101395763f2fde38b146100a757600080fd5b34610135576020366003190112610135576100c06106b5565b906100c96106e6565b6001600160a01b0391821692831561011f575050600554826bffffffffffffffffffffffff60a01b821617600555167f8be0079c531659141344cd1fd0a4f28419497f9722a3daafe3b4186f6b6457e08380a380f35b51631e4fbdf760e01b8152908101849052602490fd5b8280fd5b505034610182578060031936011261018257806020926101576106b5565b61015f6106d0565b6001600160a01b0391821683526001865283832091168252845220549051908152f35b5080fd5b5050346101825780600319360112610182576020906101b06101a66106b5565b6024359033610712565b5160018152f35b50919034610182578160031936011261018257805190828454600181811c908083169283156102cd575b60209384841081146102ba5783885290811561029e5750600114610249575b505050829003601f01601f191682019267ffffffffffffffff841183851017610236575082918261023292528261066c565b0390f35b634e487b7160e01b815260418552602490fd5b8787529192508591837f8a35acfbc15ff81a39ae7d344fd709f28e8600b4aa8c65c6b64bfe7fe36bd19b5b83851061028a5750505050830101388080610200565b805488860183015293019284908201610274565b60ff1916878501525050151560051b8401019050388080610200565b634e487b7160e01b895260228a52602489fd5b91607f16916101e1565b50503461018257816003193601126101825760055490516001600160a01b039091168152602090f35b833461035d578060031936011261035d576103196106e6565b600580546001600160a01b0319811690915581906001600160a01b03167f8be0079c531659141344cd1fd0a4f28419497f9722a3daafe3b4186f6b6457e08280a380f35b80fd5b5050346101825760203660031901126101825760209181906001600160a01b036103886106b5565b16815280845220549051908152f35b50503461018257816003193601126101825760209060ff60055460a01c169051908152f35b50823461035d57606036600319011261035d576103d76106b5565b6103df6106d0565b916044359360018060a01b03831680835260016020528683203384526020528683205491600019831061041b575b6020886101b0898989610712565b86831061048357811561046c573315610455575082526001602090815286832033845281529186902090859003905582906101b08761040d565b8751634a1406b160e11b8152908101849052602490fd5b875163e602df0560e01b8152908101849052602490fd5b8751637dc7a0d960e11b8152339181019182526020820193909352604081018790528291506060010390fd5b5050346101825781600319360112610182576020906002549051908152f35b50346101355781600319360112610135576104e76106b5565b602435903315610560576001600160a01b031691821561054957508083602095338152600187528181208582528752205582519081527f8c5be1e5ebec7d5bd14f71427d1e84f3dd0314c0f7b2291e5b200ac8c7c3b925843392a35160018152f35b8351634a1406b160e11b8152908101859052602490fd5b835163e602df0560e01b8152808401869052602490fd5b849150833461013557826003193601126101355782600354600181811c90808316928315610662575b60209384841081146102ba5783885290811561064657506001146105f057505050829003601f01601f191682019267ffffffffffffffff841183851017610236575082918261023292528261066c565b600387529192508591837fc2575a0e9e593c00f959f8c92f12db2869c3395a3b0502d05e2516446f71f85b5b8385106106325750505050830101858080610200565b80548886018301529301928490820161061c565b60ff1916878501525050151560051b8401019050858080610200565b91607f16916105a0565b6020808252825181830181905290939260005b8281106106a157505060409293506000838284010152601f8019910116010190565b81810186015184820160400152850161067f565b600435906001600160a01b03821682036106cb57565b600080fd5b602435906001600160a01b03821682036106cb57565b6005546001600160a01b031633036106fa57565b60405163118cdaa760e01b8152336004820152602490fd5b916001600160a01b038084169283156107d757169283156107be576000908382528160205260408220549083821061078c575091604082827fddf252ad1be2c89b69c2b068fc378daa952ba7f163c4a11628f55a4df523b3ef958760209652828652038282205586815220818154019055604051908152a3565b60405163391434e360e21b81526001600160a01b03919091166004820152602481019190915260448101839052606490fd5b60405163ec442f0560e01b815260006004820152602490fd5b604051634b637e8f60e11b815260006004820152602490fdfea26469706673582212209eabfb97faaf9baf49f5258bd3e479b6f407f2eb8a3b6faee1534e4c8d3d18dd64736f6c63430008140033a2646970667358221220faf44ee7dee99546dbee680952a01ebdd3fc0a717b1dde49bb545a0e965a8bfb64736f6c63430008140033",
  "linkReferences": {},
  "deployedLinkReferences": {}
}