{
  "_format": "hh-sol-artifact-1",
  "contractName": "InsuranceVault",
  "sourceName": "contracts/InsuranceVault.sol",
  "abi": [
    {
      "inputs": [],
      "stateMutability": "nonpayable",
      "type": "constructor"
    },
    {
      "inputs": [
        {
          "internalType": "address",
          "name": "owner",
          "type": "address"
        }
      ],
      "name": "OwnableInvalidOwner",
      "type": "error"
    },
    {
      "inputs": [
        {
          "internalType": "address",
          "name": "account",
          "type": "address"
        }
      ],
      "name": "OwnableUnauthorizedAccount",
      "type": "error"
    },
    {
      "anonymous": false,
      "inputs": [
        {
          "indexed": true,
          "internalType": "address",
          "name": "user",
          "type": "address"
        },
        {
          "indexed": false,
          "internalType": "uint256",
          "name": "amount",
          "type": "uint256"
        }
      ],
      "name": "CompensationPaid",
      "type": "event"
    },
    {
      "anonymous": false,
      "inputs": [
        {
          "indexed": true,
          "internalType": "address",
          "name": "project",
          "type": "address"
        },
        {
          "indexed": false,
          "internalType": "uint256",
          "name": "amount",
          "type": "uint256"
        }
      ],
      "name": "FundsAdded",
      "type": "event"
    },
    {
      "anonymous": false,
      "inputs": [
        {
          "indexed": true,
          "internalType": "address",
          "name": "previousOwner",
          "type": "address"
        },
        {
          "indexed": true,
          "internalType": "address",
          "name": "newOwner",
          "type": "address"
        }
      ],
      "name": "OwnershipTransferred",
      "type": "event"
    },
    {
      "inputs": [
        {
          "internalType": "address",
          "name": "",
          "type": "address"
        }
      ],
      "name": "authorizedClaims",
      "outputs": [
        {
          "internalType": "bool",
          "name": "",
          "type": "bool"
        }
      ],
      "stateMutability": "view",
      "type": "function"
    },
    {
      "inputs": [
        {
          "internalType": "address",
          "name": "_project",
          "type": "address"
        }
      ],
      "name": "depositTax",
      "outputs": [],
      "stateMutability": "payable",
      "type": "function"
    },
    {
      "inputs": [],
      "name": "owner",
      "outputs": [
        {
          "internalType": "address",
          "name": "",
          "type": "address"
        }
      ],
      "stateMutability": "view",
      "type": "function"
    },
    {
      "inputs": [
        {
          "internalType": "address payable",
          "name": "_user",
          "type": "address"
        },
        {
          "internalType": "uint256",
          "name": "_amount",
          "type": "uint256"
        }
      ],
      "name": "payCompensation",
      "outputs": [],
      "stateMutability": "nonpayable",
      "type": "function"
    },
    {
      "inputs": [],
      "name": "renounceOwnership",
      "outputs": [],
      "stateMutability": "nonpayable",
      "type": "function"
    },
    {
      "inputs": [],
      "name": "totalInsuranceClaims",
      "outputs": [
        {
          "internalType": "uint256",
          "name": "",
          "type": "uint256"
        }
      ],
      "stateMutability": "view",
      "type": "function"
    },
    {
      "inputs": [
        {
          "internalType": "address",
          "name": "newOwner",
          "type": "address"
        }
      ],
      "name": "transferOwnership",
      "outputs": [],
      "stateMutability": "nonpayable",
      "type": "function"
    },
    {
      "stateMutability": "payable",
      "type": "receive"
    }
  ],
  "bytecode": "0x6080806040523461007a5733156100645760008054336001600160a01b03198216811783556040519290916001600160a01b0316907f8be0079c531659141344cd1fd0a4f28419497f9722a3daafe3b4186f6b6457e09080a36103d790816100808239f35b631e4fbdf760e01b815260006004820152602490fd5b600080fdfe6080604081815260049081361015610022575b505050361561002057600080fd5b005b600092833560e01c9081634d748329146102eb57508063666c52d2146101ef578063715018a61461019257806387b7e4b0146101735780638da5cb5b14610147578063eebc6b0a146101085763f2fde38b036100125734610104576020366003190112610104576001600160a01b03823581811693919290849003610100576100a9610375565b83156100ea57505082546001600160a01b0319811683178455167f8be0079c531659141344cd1fd0a4f28419497f9722a3daafe3b4186f6b6457e08380a380f35b51631e4fbdf760e01b8152908101849052602490fd5b8480fd5b8280fd5b50903461010457602036600319011261010457356001600160a01b0381169081900361010457818360ff92602095526002855220541690519015158152f35b83823461016f578160031936011261016f57905490516001600160a01b039091168152602090f35b5080fd5b83823461016f578160031936011261016f576020906001549051908152f35b83346101ec57806003193601126101ec576101ab610375565b80546001600160a01b03198116825581906001600160a01b03167f8be0079c531659141344cd1fd0a4f28419497f9722a3daafe3b4186f6b6457e08280a380f35b80fd5b50903461010457816003193601126101045780356001600160a01b03811692908390036102e75760243591610222610375565b8247106102a55784838582821561029c575b839283928392f115610292576001549083820180921161027f5750600155519081527fa58f89b7070a03513695c04cd45d3507a7b98061c757923740a612f9243c3afd90602090a280f35b634e487b7160e01b865260119052602485fd5b81513d86823e3d90fd5b506108fc610234565b6020606492519162461bcd60e51b8352820152601760248201527f496e73756666696369656e7420706f6f6c2066756e64730000000000000000006044820152fd5b8380fd5b905060203660031901126102e75782356001600160a01b038116939084900361010057341561034257505060207f8fe10ae416f22f5e5220b0018a6c1d4ff534d6aa3a471f2a20cb7747fe63e5b99151348152a280f35b62461bcd60e51b8252602090820152600f60248201526e139bc81d185e081c1c9bdd9a591959608a1b6044820152606490fd5b6000546001600160a01b0316330361038957565b60405163118cdaa760e01b8152336004820152602490fdfea26469706673582212202fedc13d2df3d832b8bd13315a4c199b3404fd6a333190956272eb8f47d9908f64736f6c63430008140033",
  "linkReferences": {},
  "deployedLinkReferences": {}
}