{
  "_format": "hh-sol-artifact-1",
  "contractName": "TokenLock",
  "sourceName": "contracts/TokenLock.sol",
  "abi": [
    {
      "inputs": [],
      "name": "ReentrancyGuardReentrantCall",
      "type": "error"
    },
    {
      "inputs": [
        {
          "internalType": "address",
          "name": "token",
          "type": "address"
        }
      ],
      "name": "SafeERC20FailedOperation",
      "type": "error"
    },
    {
      "anonymous": false,
      "inputs": [
        {
          "indexed": true,
          "internalType": "uint256",
          "name": "lockId",
          "type": "uint256"
        },
        {
          "indexed": true,
          "internalType": "address",
          "name": "owner",
          "type": "address"
        },
        {
          "indexed": false,
          "internalType": "uint256",
          "name": "amount",
          "type": "uint256"
        }
      ],
      "name": "TokensClaimed",
      "type": "event"
    },
    {
      "anonymous": false,
      "inputs": [
        {
          "indexed": true,
          "internalType": "uint256",
          "name": "lockId",
          "type": "uint256"
        },
        {
          "indexed": true,
          "internalType": "address",
          "name": "owner",
          "type": "address"
        },
        {
          "indexed": true,
          "internalType": "address",
          "name": "token",
          "type": "address"
        },
        {
          "indexed": false,
          "internalType": "uint256",
          "name": "amount",
          "type": "uint256"
        },
        {
          "indexed": false,
          "internalType": "uint256",
          "name": "unlockTime",
          "type": "uint256"
        }
      ],
      "name": "TokensLocked",
      "type": "event"
    },
    {
      "inputs": [
        {
          "internalType": "uint256",
          "name": "lockId",
          "type": "uint256"
        }
      ],
      "name": "claimTokens",
      "outputs": [],
      "stateMutability": "nonpayable",
      "type": "function"
    },
    {
      "inputs": [
        {
          "internalType": "uint256",
          "name": "lockId",
          "type": "uint256"
        }
      ],
      "name": "getLock",
      "outputs": [
        {
          "components": [
            {
              "internalType": "address",
              "name": "token",
              "type": "address"
            },
            {
              "internalType": "address",
              "name": "owner",
              "type": "address"
            },
            {
              "internalType": "uint256",
              "name": "amount",
              "type": "uint256"
            },
            {
              "internalType": "uint256",
              "name": "unlockTime",
              "type": "uint256"
            },
            {
              "internalType": "bool",
              "name": "claimed",
              "type": "bool"
            },
            {
              "internalType": "string",
              "name": "description",
              "type": "string"
            }
          ],
          "internalType": "struct TokenLock.Lock",
          "name": "",
          "type": "tuple"
        }
      ],
      "stateMutability": "view",
      "type": "function"
    },
    {
      "inputs": [
        {
          "internalType": "address",
          "name": "token",
          "type": "address"
        },
        {
          "internalType": "uint256",
          "name": "amount",
          "type": "uint256"
        },
        {
          "internalType": "uint256",
          "name": "unlockTime",
          "type": "uint256"
        },
        {
          "internalType": "string",
          "name": "description",
          "type": "string"
        }
      ],
      "name": "lockTokens",
      "outputs": [
        {
          "internalType": "uint256",
          "name": "",
          "type": "uint256"
        }
      ],
      "stateMutability": "nonpayable",
      "type": "function"
    },
    {
      "inputs": [
        {
          "internalType": "uint256",
          "name": "",
          "type": "uint256"
        }
      ],
      "name": "locks",
      "outputs": [
        {
          "internalType": "address",
          "name": "token",
          "type": "address"
        },
        {
          "internalType": "address",
          "name": "owner",
          "type": "address"
        },
        {
          "internalType": "uint256",
          "name": "amount",
          "type": "uint256"
        },
        {
          "internalType": "uint256",
          "name": "unlockTime",
          "type": "uint256"
        },
        {
          "internalType": "bool",
          "name": "claimed",
          "type": "bool"
        },
        {
          "internalType": "string",
          "name": "description",
          "type": "string"
        }
      ],
      "stateMutability": "view",
      "type": "function"
    },
    {
      "inputs": [],
      "name": "nextLockId",
      "outputs": [
        {
          "internalType": "uint256",
          "name": "",
          "type": "uint256"
        }
      ],
      "stateMutability": "view",
      "type": "function"
    }
  ],
  "bytecode": "0x6080806040523461001b57600160005561098f90816100218239f35b600080fdfe6080604052600436101561001257600080fd5b60003560e01c806346e04a2f146105ed5780636518a0b3146105cf578063c6ee4f59146101d9578063d68f4dd1146100e25763f4dadc611461005357600080fd5b346100dd5760203660031901126100dd576004356000526001602052604060002060018060a01b036100d981835416916001840154169260028101549060038101546100a9600560ff6004850154169301610828565b9260405196879687526020870152604086015260608501521515608084015260c060a084015260c0830190610770565b0390f35b600080fd5b346100dd576020806003193601126100dd57606060a0604051610104816107ea565b6000815260008482015260006040820152600083820152600060808201520152600435600052600181526040600020906100d960405191610144836107ea565b60018060a01b0393848154168452846001820154168285019081526002820154604086019081528660038401549260608801938452610196600560ff6004880154169660808b01971515885201610828565b9560a08901968752604051998a99828b525116908901525116604087015251606086015251608085015251151560a08401525160c08084015260e0830190610770565b346100dd5760803660031901126100dd576004356001600160a01b03811681036100dd5767ffffffffffffffff606435116100dd573660236064350112156100dd5767ffffffffffffffff60643560040135116100dd57366024606435600401356064350101116100dd5761024c610936565b602435156105955742604435111561055057600254600019811461053a576001810160025560405161027d816107ea565b60018060a01b038316815233602082015260243560408201526044356060820152600060808201526040516102c26020601f19601f6064356004013501160182610806565b606435600481013580835290602401602083013760006020606435600401358301015260a0820190815282600052600160205260406000209160018060a01b038151166bffffffffffffffffffffffff60a01b9081855416178455600184019060018060a01b03602084015116908254161790556040810151600284015560608101516003840155608060048401910151151560ff801983541691161790555180519067ffffffffffffffff82116104625761038160058401546107b0565b601f81116104f3575b50602090601f8311600114610483576005929160009183610478575b50508160011b916000199060031b1c1916179101555b604051916323b872dd60e01b602084015233602484015230604484015260243560648401526064835260a0830183811067ffffffffffffffff82111761046257604052602092610415906001600160a01b0383166108ce565b6040519060243582526044358483015260018060a01b031690827fdd17148ffeb69e95dbd8fee5b9a79df1fad7408e496cd1cdec4adf522527e90d60403393a46001600055604051908152f35b634e487b7160e01b600052604160045260246000fd5b0151905086806103a6565b906005840160005260206000209160005b601f19851681106104db5750918391600193600595601f198116106104c2575b505050811b019101556103bc565b015160001960f88460031b161c191690558680806104b4565b91926020600181928685015181550194019201610494565b600584016000526020600020601f840160051c810160208510610533575b601f830160051c8201811061052757505061038a565b60008155600101610511565b5080610511565b634e487b7160e01b600052601160045260246000fd5b60405162461bcd60e51b815260206004820152601d60248201527f556e6c6f636b2074696d65206d75737420626520696e206675747572650000006044820152606490fd5b60405162461bcd60e51b81526020600482015260126024820152710416d6f756e74206d757374206265203e20360741b6044820152606490fd5b346100dd5760003660031901126100dd576020600254604051908152f35b346100dd576020806003193601126100dd5760043561060a610936565b8060005260018252604060002060018060a01b0380600183015416330361073f5760048201805460ff811661070857600384015442106106d0579060016002939260ff1916179055825416910180546040519063a9059cbb60e01b86830152336024830152604482015260448152608081019080821067ffffffffffffffff831117610462577f880f2ef2613b092f1a0a819f294155c98667eb294b7e6bf7a3810278142c1a1c936106be926040526108ce565b54926040519384523393a36001600055005b60405162461bcd60e51b815260048101879052601060248201526f139bdd081d5b9b1bd8dad959081e595d60821b6044820152606490fd5b60405162461bcd60e51b815260048101879052600f60248201526e105b1c9958591e4818db185a5b5959608a1b6044820152606490fd5b60405162461bcd60e51b81526004810185905260096024820152682737ba1037bbb732b960b91b6044820152606490fd5b919082519283825260005b84811061079c575050826000602080949584010152601f8019910116010190565b60208183018101518483018201520161077b565b90600182811c921680156107e0575b60208310146107ca57565b634e487b7160e01b600052602260045260246000fd5b91607f16916107bf565b60c0810190811067ffffffffffffffff82111761046257604052565b90601f8019910116810190811067ffffffffffffffff82111761046257604052565b906040519182600082549261083c846107b0565b9081845260019485811690816000146108ab5750600114610868575b505061086692500383610806565b565b9093915060005260209081600020936000915b81831061089357505061086693508201013880610858565b8554888401850152948501948794509183019161087b565b91505061086694506020925060ff191682840152151560051b8201013880610858565b906000602091828151910182855af11561092a576000513d61092157506001600160a01b0381163b155b6108ff5750565b604051635274afe760e01b81526001600160a01b039091166004820152602490fd5b600114156108f8565b6040513d6000823e3d90fd5b600260005414610947576002600055565b604051633ee5aeb560e01b8152600490fdfea26469706673582212209b11e748e983180aee925408676495050c4cdfaa82f92a2a080c777469c8f02864736f6c63430008140033",
  "linkReferences": {},
  "deployedLinkReferences": {}
}