{
  "_format": "hh-sol-artifact-1",
  "contractName": "NPADStaking",
  "sourceName": "contracts/NPADStaking.sol",
  "abi": [
    {
      "inputs": [
        {
          "internalType": "address",
          "name": "_stakingToken",
          "type": "address"
        },
        {
          "internalType": "address",
          "name": "initialOwner",
          "type": "address"
        }
      ],
      "stateMutability": "nonpayable",
      "type": "constructor"
    },
    {
      "inputs": [
        {
          "internalType": "address",
          "name": "owner",
          "type": "address"
        }
      ],
      "name": "OwnableInvalidOwner",
      "type": "error"
    },
    {
      "inputs": [
        {
          "internalType": "address",
          "name": "account",
          "type": "address"
        }
      ],
      "name": "OwnableUnauthorizedAccount",
      "type": "error"
    },
    {
      "inputs": [],
      "name": "ReentrancyGuardReentrantCall",
      "type": "error"
    },
    {
      "inputs": [
        {
          "internalType": "address",
          "name": "token",
          "type": "address"
        }
      ],
      "name": "SafeERC20FailedOperation",
      "type": "error"
    },
    {
      "anonymous": false,
      "inputs": [
        {
          "indexed": true,
          "internalType": "address",
          "name": "previousOwner",
          "type": "address"
        },
        {
          "indexed": true,
          "internalType": "address",
          "name": "newOwner",
          "type": "address"
        }
      ],
      "name": "OwnershipTransferred",
      "type": "event"
    },
    {
      "anonymous": false,
      "inputs": [
        {
          "indexed": true,
          "internalType": "address",
          "name": "user",
          "type": "address"
        },
        {
          "indexed": false,
          "internalType": "uint256",
          "name": "amount",
          "type": "uint256"
        }
      ],
      "name": "Staked",
      "type": "event"
    },
    {
      "anonymous": false,
      "inputs": [
        {
          "indexed": true,
          "internalType": "address",
          "name": "user",
          "type": "address"
        },
        {
          "indexed": false,
          "internalType": "uint256",
          "name": "amount",
          "type": "uint256"
        }
      ],
      "name": "Withdrawn",
      "type": "event"
    },
    {
      "inputs": [],
      "name": "owner",
      "outputs": [
        {
          "internalType": "address",
          "name": "",
          "type": "address"
        }
      ],
      "stateMutability": "view",
      "type": "function"
    },
    {
      "inputs": [],
      "name": "renounceOwnership",
      "outputs": [],
      "stateMutability": "nonpayable",
      "type": "function"
    },
    {
      "inputs": [
        {
          "internalType": "uint256",
          "name": "amount",
          "type": "uint256"
        }
      ],
      "name": "stake",
      "outputs": [],
      "stateMutability": "nonpayable",
      "type": "function"
    },
    {
      "inputs": [
        {
          "internalType": "address",
          "name": "account",
          "type": "address"
        }
      ],
      "name": "stakedBalance",
      "outputs": [
        {
          "internalType": "uint256",
          "name": "",
          "type": "uint256"
        }
      ],
      "stateMutability": "view",
      "type": "function"
    },
    {
      "inputs": [],
      "name": "stakingToken",
      "outputs": [
        {
          "internalType": "contract IERC20",
          "name": "",
          "type": "address"
        }
      ],
      "stateMutability": "view",
      "type": "function"
    },
    {
      "inputs": [],
      "name": "totalSupply",
      "outputs": [
        {
          "internalType": "uint256",
          "name": "",
          "type": "uint256"
        }
      ],
      "stateMutability": "view",
      "type": "function"
    },
    {
      "inputs": [
        {
          "internalType": "address",
          "name": "newOwner",
          "type": "address"
        }
      ],
      "name": "transferOwnership",
      "outputs": [],
      "stateMutability": "nonpayable",
      "type": "function"
    },
    {
      "inputs": [
        {
          "internalType": "uint256",
          "name": "amount",
          "type": "uint256"
        }
      ],
      "name": "withdraw",
      "outputs": [],
      "stateMutability": "nonpayable",
      "type": "function"
    }
  ],
  "bytecode": "0x60a03461013757601f61075b38819003918201601f19168301916001600160401b0383118484101761013c57808492604094855283398101031261013757602061004882610152565b916001600160a01b0391829161005e9101610152565b1691821561011e57600080546001600160a01b03198116851782556040519491908416907f8be0079c531659141344cd1fd0a4f28419497f9722a3daafe3b4186f6b6457e09080a360018055169081156100dc57506080526040516105f49081610167823960805181818161019c0152818161027801526103fc0152f35b62461bcd60e51b815260206004820152601560248201527f496e76616c696420746f6b656e206164647265737300000000000000000000006044820152606490fd5b604051631e4fbdf760e01b815260006004820152602490fd5b600080fd5b634e487b7160e01b600052604160045260246000fd5b51906001600160a01b03821682036101375756fe608060408181526004908136101561001657600080fd5b600092833560e01c90816318160ddd146104bb575080632e1a7d4d1461033e5780636021726714610304578063715018a6146102a757806372f702f3146102635780638da5cb5b1461023b578063a694fc3a1461010c5763f2fde38b1461007c57600080fd5b34610108576020366003190112610108576001600160a01b03823581811693919290849003610104576100ad6104d7565b83156100ee57505082546001600160a01b0319811683178455167f8be0079c531659141344cd1fd0a4f28419497f9722a3daafe3b4186f6b6457e08380a380f35b51631e4fbdf760e01b8152908101849052602490fd5b8480fd5b8280fd5b508290346102375760203660031901126102375782359061012b61058e565b81156102045761013d82600254610503565b6002553383526003602052808320610156838254610503565b905580516323b872dd60e01b60208201523360248201523060448201526064808201849052815260a0810167ffffffffffffffff8111828210176101f15782526101c0907f0000000000000000000000000000000000000000000000000000000000000000610526565b519081527f9e71bc8eea02a63969f509818f2dafb9254532904319f9dbda79b67bd34a5f3d60203392a26001805580f35b634e487b7160e01b855260418652602485fd5b5162461bcd60e51b8152602081850152600e60248201526d043616e6e6f74207374616b6520360941b6044820152606490fd5b5080fd5b838234610237578160031936011261023757905490516001600160a01b039091168152602090f35b838234610237578160031936011261023757517f00000000000000000000000000000000000000000000000000000000000000006001600160a01b03168152602090f35b83346103015780600319360112610301576102c06104d7565b80546001600160a01b03198116825581906001600160a01b03167f8be0079c531659141344cd1fd0a4f28419497f9722a3daafe3b4186f6b6457e08280a380f35b80fd5b50903461010857602036600319011261010857356001600160a01b0381169081900361010857828291602094526003845220549051908152f35b50829034610237576020806003193601126101085783359161035e61058e565b8215610484573384526003825282818520541061044157610381836002546105b1565b600255338452600382528084206103998482546105b1565b9055805163a9059cbb60e01b83820152336024820152604480820185905281526080810167ffffffffffffffff81118282101761042e578291610420917f7084f5476618d8e60b11ef0d7d3f06914655adb8793e28ff7f018d4c76d505d59594527f0000000000000000000000000000000000000000000000000000000000000000610526565b519283523392a26001805580f35b634e487b7160e01b865260418752602486fd5b5162461bcd60e51b815280850191909152601b60248201527f496e73756666696369656e74207374616b65642062616c616e636500000000006044820152606490fd5b5162461bcd60e51b8152808501919091526011602482015270043616e6e6f74207769746864726177203607c1b6044820152606490fd5b8490346102375781600319360112610237576020906002548152f35b6000546001600160a01b031633036104eb57565b60405163118cdaa760e01b8152336004820152602490fd5b9190820180921161051057565b634e487b7160e01b600052601160045260246000fd5b906000602091828151910182855af115610582576000513d61057957506001600160a01b0381163b155b6105575750565b604051635274afe760e01b81526001600160a01b039091166004820152602490fd5b60011415610550565b6040513d6000823e3d90fd5b60026001541461059f576002600155565b604051633ee5aeb560e01b8152600490fd5b919082039182116105105756fea2646970667358221220421fb87579001ea3a60f9f4a239409af0896555529eaf67d57d95eb3faa7829064736f6c63430008140033",
  "linkReferences": {},
  "deployedLinkReferences": {}
}