{
  "_format": "hh3-artifact-1",
  "contractName": "NPADStaking",
  "sourceName": "contracts/NPADStaking.sol",
  "abi": [
    {
      "inputs": [
        {
          "internalType": "address",
          "name": "_stakingToken",
          "type": "address"
        },
        {
          "internalType": "address",
          "name": "initialOwner",
          "type": "address"
        }
      ],
      "stateMutability": "nonpayable",
      "type": "constructor"
    },
    {
      "inputs": [
        {
          "internalType": "address",
          "name": "owner",
          "type": "address"
        }
      ],
      "name": "OwnableInvalidOwner",
      "type": "error"
    },
    {
      "inputs": [
        {
          "internalType": "address",
          "name": "account",
          "type": "address"
        }
      ],
      "name": "OwnableUnauthorizedAccount",
      "type": "error"
    },
    {
      "inputs": [],
      "name": "ReentrancyGuardReentrantCall",
      "type": "error"
    },
    {
      "inputs": [
        {
          "internalType": "address",
          "name": "token",
          "type": "address"
        }
      ],
      "name": "SafeERC20FailedOperation",
      "type": "error"
    },
    {
      "anonymous": false,
      "inputs": [
        {
          "indexed": true,
          "internalType": "address",
          "name": "previousOwner",
          "type": "address"
        },
        {
          "indexed": true,
          "internalType": "address",
          "name": "newOwner",
          "type": "address"
        }
      ],
      "name": "OwnershipTransferred",
      "type": "event"
    },
    {
      "anonymous": false,
      "inputs": [
        {
          "indexed": true,
          "internalType": "address",
          "name": "user",
          "type": "address"
        },
        {
          "indexed": false,
          "internalType": "uint256",
          "name": "amount",
          "type": "uint256"
        }
      ],
      "name": "Staked",
      "type": "event"
    },
    {
      "anonymous": false,
      "inputs": [
        {
          "indexed": true,
          "internalType": "address",
          "name": "user",
          "type": "address"
        },
        {
          "indexed": false,
          "internalType": "uint256",
          "name": "amount",
          "type": "uint256"
        }
      ],
      "name": "Withdrawn",
      "type": "event"
    },
    {
      "inputs": [],
      "name": "owner",
      "outputs": [
        {
          "internalType": "address",
          "name": "",
          "type": "address"
        }
      ],
      "stateMutability": "view",
      "type": "function"
    },
    {
      "inputs": [],
      "name": "renounceOwnership",
      "outputs": [],
      "stateMutability": "nonpayable",
      "type": "function"
    },
    {
      "inputs": [
        {
          "internalType": "uint256",
          "name": "amount",
          "type": "uint256"
        }
      ],
      "name": "stake",
      "outputs": [],
      "stateMutability": "nonpayable",
      "type": "function"
    },
    {
      "inputs": [
        {
          "internalType": "address",
          "name": "account",
          "type": "address"
        }
      ],
      "name": "stakedBalance",
      "outputs": [
        {
          "internalType": "uint256",
          "name": "",
          "type": "uint256"
        }
      ],
      "stateMutability": "view",
      "type": "function"
    },
    {
      "inputs": [],
      "name": "stakingToken",
      "outputs": [
        {
          "internalType": "contract IERC20",
          "name": "",
          "type": "address"
        }
      ],
      "stateMutability": "view",
      "type": "function"
    },
    {
      "inputs": [],
      "name": "totalSupply",
      "outputs": [
        {
          "internalType": "uint256",
          "name": "",
          "type": "uint256"
        }
      ],
      "stateMutability": "view",
      "type": "function"
    },
    {
      "inputs": [
        {
          "internalType": "address",
          "name": "newOwner",
          "type": "address"
        }
      ],
      "name": "transferOwnership",
      "outputs": [],
      "stateMutability": "nonpayable",
      "type": "function"
    },
    {
      "inputs": [
        {
          "internalType": "uint256",
          "name": "amount",
          "type": "uint256"
        }
      ],
      "name": "withdraw",
      "outputs": [],
      "stateMutability": "nonpayable",
      "type": "function"
    }
  ],
  "bytecode": "0x60a03461013557601f61074d38819003918201601f19168301916001600160401b038311848410176101395780849260409485528339810103126101355760206100488261014d565b916001600160a01b0391829161005e910161014d565b1691821561011d575f80546001600160a01b03198116851782556040519491908416907f8be0079c531659141344cd1fd0a4f28419497f9722a3daafe3b4186f6b6457e09080a360018055169081156100db57506080526040516105eb908161016282396080518181816101990152818161027501526103f90152f35b62461bcd60e51b815260206004820152601560248201527f496e76616c696420746f6b656e206164647265737300000000000000000000006044820152606490fd5b604051631e4fbdf760e01b81525f6004820152602490fd5b5f80fd5b634e487b7160e01b5f52604160045260245ffd5b51906001600160a01b03821682036101355756fe6080604081815260049081361015610015575f80fd5b5f92833560e01c90816318160ddd146104b8575080632e1a7d4d1461033b5780636021726714610301578063715018a6146102a457806372f702f3146102605780638da5cb5b14610238578063a694fc3a146101095763f2fde38b14610079575f80fd5b34610105576020366003190112610105576001600160a01b03823581811693919290849003610101576100aa6104d4565b83156100eb57505082546001600160a01b0319811683178455167f8be0079c531659141344cd1fd0a4f28419497f9722a3daafe3b4186f6b6457e08380a380f35b51631e4fbdf760e01b8152908101849052602490fd5b8480fd5b8280fd5b5082903461023457602036600319011261023457823590610128610585565b81156102015761013a826002546104ff565b60025533835260036020528083206101538382546104ff565b905580516323b872dd60e01b60208201523360248201523060448201526064808201849052815260a0810167ffffffffffffffff8111828210176101ee5782526101bd907f0000000000000000000000000000000000000000000000000000000000000000610520565b519081527f9e71bc8eea02a63969f509818f2dafb9254532904319f9dbda79b67bd34a5f3d60203392a26001805580f35b634e487b7160e01b855260418652602485fd5b5162461bcd60e51b8152602081850152600e60248201526d043616e6e6f74207374616b6520360941b6044820152606490fd5b5080fd5b838234610234578160031936011261023457905490516001600160a01b039091168152602090f35b838234610234578160031936011261023457517f00000000000000000000000000000000000000000000000000000000000000006001600160a01b03168152602090f35b83346102fe57806003193601126102fe576102bd6104d4565b80546001600160a01b03198116825581906001600160a01b03167f8be0079c531659141344cd1fd0a4f28419497f9722a3daafe3b4186f6b6457e08280a380f35b80fd5b50903461010557602036600319011261010557356001600160a01b0381169081900361010557828291602094526003845220549051908152f35b50829034610234576020806003193601126101055783359161035b610585565b8215610481573384526003825282818520541061043e5761037e836002546105a8565b600255338452600382528084206103968482546105a8565b9055805163a9059cbb60e01b83820152336024820152604480820185905281526080810167ffffffffffffffff81118282101761042b57829161041d917f7084f5476618d8e60b11ef0d7d3f06914655adb8793e28ff7f018d4c76d505d59594527f0000000000000000000000000000000000000000000000000000000000000000610520565b519283523392a26001805580f35b634e487b7160e01b865260418752602486fd5b5162461bcd60e51b815280850191909152601b60248201527f496e73756666696369656e74207374616b65642062616c616e636500000000006044820152606490fd5b5162461bcd60e51b8152808501919091526011602482015270043616e6e6f74207769746864726177203607c1b6044820152606490fd5b8490346102345781600319360112610234576020906002548152f35b5f546001600160a01b031633036104e757565b60405163118cdaa760e01b8152336004820152602490fd5b9190820180921161050c57565b634e487b7160e01b5f52601160045260245ffd5b905f602091828151910182855af11561057a575f513d61057157506001600160a01b0381163b155b61054f5750565b604051635274afe760e01b81526001600160a01b039091166004820152602490fd5b60011415610548565b6040513d5f823e3d90fd5b600260015414610596576002600155565b604051633ee5aeb560e01b8152600490fd5b9190820391821161050c5756fea2646970667358221220072194d98306567955331e7eb06b6d4074444bdaf6bd99568c7a4b392051cfc164736f6c63430008140033",
  "linkReferences": {},
  "deployedLinkReferences": {},
  "immutableReferences": {
    "7855": [
      {
        "length": 32,
        "start": 409
      },
      {
        "length": 32,
        "start": 629
      },
      {
        "length": 32,
        "start": 1017
      }
    ]
  },
  "inputSourceName": "project/contracts/NPADStaking.sol",
  "buildInfoId": "solc-0_8_20-1a0d5026db2cb11c4939a0d0099ef53dfc14ba71"
}