{
  "_format": "hh3-artifact-1",
  "contractName": "PresaleFactory",
  "sourceName": "contracts/PresaleFactory.sol",
  "abi": [
    {
      "inputs": [
        {
          "internalType": "address",
          "name": "_tokenLock",
          "type": "address"
        }
      ],
      "stateMutability": "nonpayable",
      "type": "constructor"
    },
    {
      "anonymous": false,
      "inputs": [
        {
          "indexed": true,
          "internalType": "address",
          "name": "presale",
          "type": "address"
        },
        {
          "indexed": true,
          "internalType": "address",
          "name": "owner",
          "type": "address"
        },
        {
          "indexed": true,
          "internalType": "address",
          "name": "token",
          "type": "address"
        }
      ],
      "name": "PresaleCreated",
      "type": "event"
    },
    {
      "inputs": [
        {
          "internalType": "address",
          "name": "_token",
          "type": "address"
        },
        {
          "internalType": "address",
          "name": "_router",
          "type": "address"
        },
        {
          "internalType": "uint256",
          "name": "_softCap",
          "type": "uint256"
        },
        {
          "internalType": "uint256",
          "name": "_hardCap",
          "type": "uint256"
        },
        {
          "internalType": "uint256",
          "name": "_presaleRate",
          "type": "uint256"
        },
        {
          "internalType": "uint256",
          "name": "_listingRate",
          "type": "uint256"
        },
        {
          "internalType": "uint256",
          "name": "_liquidityPercent",
          "type": "uint256"
        },
        {
          "internalType": "uint256",
          "name": "_startTime",
          "type": "uint256"
        },
        {
          "internalType": "uint256",
          "name": "_endTime",
          "type": "uint256"
        },
        {
          "internalType": "uint256",
          "name": "_lockPeriod",
          "type": "uint256"
        },
        {
          "internalType": "uint256",
          "name": "_maxSpendPerBuyer",
          "type": "uint256"
        },
        {
          "internalType": "uint256",
          "name": "_amount",
          "type": "uint256"
        }
      ],
      "name": "createPresale",
      "outputs": [
        {
          "internalType": "address",
          "name": "",
          "type": "address"
        }
      ],
      "stateMutability": "payable",
      "type": "function"
    },
    {
      "inputs": [],
      "name": "creationFee",
      "outputs": [
        {
          "internalType": "uint256",
          "name": "",
          "type": "uint256"
        }
      ],
      "stateMutability": "view",
      "type": "function"
    },
    {
      "inputs": [],
      "name": "owner",
      "outputs": [
        {
          "internalType": "address",
          "name": "",
          "type": "address"
        }
      ],
      "stateMutability": "view",
      "type": "function"
    },
    {
      "inputs": [],
      "name": "tokenLock",
      "outputs": [
        {
          "internalType": "address",
          "name": "",
          "type": "address"
        }
      ],
      "stateMutability": "view",
      "type": "function"
    }
  ],
  "bytecode": "0x60803461008357601f610e1a38819003918201601f19168301916001600160401b038311848410176100875780849260209460405283398101031261008357516001600160a01b0381169081900361008357662386f26fc1000060025560018060a01b031933815f5416175f556001541617600155604051610d7e908161009c8239f35b5f80fd5b634e487b7160e01b5f52604160045260245ffdfe608060408181526004361015610013575f80fd5b5f91823560e01c9081635d21d5fe146100bb575080638da5cb5b14610094578063dce0b4e4146100765763e718234d1461004b575f80fd5b3461007257816003193601126100725760015490516001600160a01b039091168152602090f35b5080fd5b50346100725781600319360112610072576020906002549051908152f35b5034610072578160031936011261007257905490516001600160a01b039091168152602090f35b838361018080600319360112610230576001600160a01b039360043585811692919083900361022c57602435908682168092036102285760025434106101f357508560015416845192610b14928385019385851067ffffffffffffffff8611176101df57918593916101c0959361023586398784526020840152604435888401526064356060840152608435608084015260a43560a084015260c43560c084015260e43560e084015261010435610100840152610124356101208401526101443561014084015261016435610160840152820152336101a082015203019084f09384156101d35760209416915192827f9f9471d3b3071c040c7e86373d5cc377e941685fd070d61b95eacb58a11e6576339280a48152f35b505051903d90823e3d90fd5b634e487b7160e01b89526041600452602489fd5b62461bcd60e51b815260206004820152601060248201526f496e73756666696369656e742066656560801b6044820152606490fd5b8580fd5b8480fd5b8280fdfe60803461019a57601f610b1438819003918201601f19168301916001600160401b0383118484101761019e578084926101c09460405283398101031261019a57610048816101b2565b610054602083016101b2565b6040830151926060810151608082015160a083015160c084015160e0850151906101008601519261012087015194610140880151966101608901519861009d61018082016101b2565b506001600160a01b03906100b4906101a0016101b2565b169b8c15610182575f80546001600160a01b031981168f1782556040519e9d918e916001600160a01b0316907f8be0079c531659141344cd1fd0a4f28419497f9722a3daafe3b4186f6b6457e09080a3600180546001600160a01b039283166001600160a01b03199182168117909255600280549e9093169d169c909c179055600355600455600555600655600755600855600955600a55600b55600c557f25ceeb9cdcab53f5238862d30b361ed636103c3f9c2f8b36cd1ee60608073c2a5f80a361094d90816101c78239f35b604051631e4fbdf760e01b81525f6004820152602490fd5b5f80fd5b634e487b7160e01b5f52604160045260245ffd5b51906001600160a01b038216820361019a5756fe6080604081815260049182361015610029575b505050361561001f575f80fd5b61002761076f565b005b5f92833560e01c9182633197cbb614610707575081633fd8b02f146106e857816342e94c90146106ae57816342f393811461068f5781634ef39b75146104e4578163715018a61461048a57816378e979251461046b5781638da5cb5b14610443578163906a26e014610424578163a20ecbbb14610405578163a3d35dad146103e6578163aa8c217c146103c7578163b0683755146103a8578163b3f05b9714610384578163b5545a3c14610284578163c342381e14610268578163c5c4744c14610249578163d7bb99ba1461022f578163f2fde38b146101a0578163f887ea4014610177578163fb86a40414610155575063fc0c546a1461012a5780610012565b3461015157816003193601126101515760015490516001600160a01b039091168152602090f35b5080fd5b90503461017357826003193601126101735760209250549051908152f35b8280fd5b50503461015157816003193601126101515760025490516001600160a01b039091168152602090f35b91905034610173576020366003190112610173576001600160a01b0382358181169391929084900361022b576101d4610723565b831561021557505082546001600160a01b0319811683178455167f8be0079c531659141344cd1fd0a4f28419497f9722a3daafe3b4186f6b6457e08380a380f35b51631e4fbdf760e01b8152908101849052602490fd5b8480fd5b83806003193601126102465761024361076f565b80f35b80fd5b505034610151578160031936011261015157602090600d549051908152f35b50503461015157816003193601126101515760209051603c8152f35b919050346101735782600319360112610173576102a460095442116108c4565b600d54600354111561034a57338352600f602052808320549182156103165750338352600f602052828181205582808080853382f11561030b57519081527f358fe4192934d3bf28ae181feda1f4bd08ca67f5e2fad55582cce5eb67304ae960203392a280f35b51913d9150823e3d90fd5b6020606492519162461bcd60e51b8352820152600f60248201526e27379031b7b73a3934b13aba34b7b760891b6044820152fd5b906020606492519162461bcd60e51b8352820152601460248201527314dbd99d0818d85c081dd85cc81c995858da195960621b6044820152fd5b50503461015157816003193601126101515760209060ff600e541690519015158152f35b5050346101515781600319360112610151576020906007549051908152f35b505034610151578160031936011261015157602090600c549051908152f35b505034610151578160031936011261015157602090600b549051908152f35b5050346101515781600319360112610151576020906006549051908152f35b5050346101515781600319360112610151576020906003549051908152f35b505034610151578160031936011261015157905490516001600160a01b039091168152602090f35b5050346101515781600319360112610151576020906008549051908152f35b83346102465780600319360112610246576104a3610723565b80546001600160a01b03198116825581906001600160a01b03167f8be0079c531659141344cd1fd0a4f28419497f9722a3daafe3b4186f6b6457e08280a380f35b91905034610173576020908160031936011261068b5782356001600160a01b0381160361068b57610513610723565b600e5460ff81166106555760095442118015610648575b610533906108c4565b600d5493600354851061060e5760075490603c82106105cb575082917f38f8a0c92f4c5b0b6877f878cb4c0c8d348a47b76d716c8e78f425043df9515b7f3a5a8e947c93d92889f994770b68c33efb9f6108d3606bc9c119515ce7b506c8959460646105a16001958a610904565b046105ae60065482610904565b90825191825287820152a160ff191617600e55519283523092a280f35b835162461bcd60e51b8152908101859052601f60248201527f4c69717569646974792070657263656e742062656c6f77206d696e696d756d006044820152606490fd5b825162461bcd60e51b8152908101849052601460248201527314dbd99d0818d85c081b9bdd081c995858da195960621b6044820152606490fd5b50600d548454111561052a565b505162461bcd60e51b8152918201526011602482015270185b1c9958591e48199a5b985b1a5e9959607a1b604482015260649150fd5b8380fd5b5050346101515781600319360112610151576020906005549051908152f35b90503461017357602036600319011261017357356001600160a01b038116908190036101735782829160209452600f845220549051908152f35b505034610151578160031936011261015157602090600a549051908152f35b8490346101515781600319360112610151576020906009548152f35b5f546001600160a01b0316330361073657565b60405163118cdaa760e01b8152336004820152602490fd5b9190820180921161075b57565b634e487b7160e01b5f52601160045260245ffd5b600854421015806108b8575b1561087e5761078d600d54349061074e565b6004541061084657335f52600f6020526107ab3460405f205461074e565b600b541061080957335f52600f60205260405f206107ca34825461074e565b90556107d834600d5461074e565b600d556040513481527f4d154d4aae216bed6d0926db77c00df2b57c6b5ba4eee05775de20facede3a7b60203392a2565b60405162461bcd60e51b8152602060048201526015602482015274045786365656473207065722d62757965722063617605c1b6044820152606490fd5b60405162461bcd60e51b815260206004820152601060248201526f12185c990818d85c081c995858da195960821b6044820152606490fd5b60405162461bcd60e51b815260206004820152601260248201527150726573616c65206e6f742061637469766560701b6044820152606490fd5b5060095442111561077b565b156108cb57565b60405162461bcd60e51b8152602060048201526011602482015270141c995cd85b19481b9bdd08195b991959607a1b6044820152606490fd5b8181029291811591840414171561075b5756fea264697066735822122071edf8038a7f3efbf2c8277c44e6b1604690c5aef22511e34f17dba6420d2b8f64736f6c63430008140033a264697066735822122077750b63f9739f0e8d123c3d7dad6bb49c074abb8bb18ce846338fa94548cf1964736f6c63430008140033",
  "linkReferences": {},
  "deployedLinkReferences": {},
  "immutableReferences": {},
  "inputSourceName": "project/contracts/PresaleFactory.sol",
  "buildInfoId": "solc-0_8_20-d6a917d52d9c138b45722d4307b66fb998b1618e"
}