{
  "_format": "hh-sol-artifact-1",
  "contractName": "PresaleFactory",
  "sourceName": "contracts/PresaleFactory.sol",
  "abi": [
    {
      "inputs": [
        {
          "internalType": "address",
          "name": "_tokenLock",
          "type": "address"
        }
      ],
      "stateMutability": "nonpayable",
      "type": "constructor"
    },
    {
      "anonymous": false,
      "inputs": [
        {
          "indexed": true,
          "internalType": "address",
          "name": "presale",
          "type": "address"
        },
        {
          "indexed": true,
          "internalType": "address",
          "name": "owner",
          "type": "address"
        },
        {
          "indexed": true,
          "internalType": "address",
          "name": "token",
          "type": "address"
        }
      ],
      "name": "PresaleCreated",
      "type": "event"
    },
    {
      "inputs": [
        {
          "internalType": "address",
          "name": "_token",
          "type": "address"
        },
        {
          "internalType": "address",
          "name": "_router",
          "type": "address"
        },
        {
          "internalType": "uint256",
          "name": "_softCap",
          "type": "uint256"
        },
        {
          "internalType": "uint256",
          "name": "_hardCap",
          "type": "uint256"
        },
        {
          "internalType": "uint256",
          "name": "_presaleRate",
          "type": "uint256"
        },
        {
          "internalType": "uint256",
          "name": "_listingRate",
          "type": "uint256"
        },
        {
          "internalType": "uint256",
          "name": "_liquidityPercent",
          "type": "uint256"
        },
        {
          "internalType": "uint256",
          "name": "_startTime",
          "type": "uint256"
        },
        {
          "internalType": "uint256",
          "name": "_endTime",
          "type": "uint256"
        },
        {
          "internalType": "uint256",
          "name": "_lockPeriod",
          "type": "uint256"
        },
        {
          "internalType": "uint256",
          "name": "_maxSpendPerBuyer",
          "type": "uint256"
        },
        {
          "internalType": "uint256",
          "name": "_amount",
          "type": "uint256"
        }
      ],
      "name": "createPresale",
      "outputs": [
        {
          "internalType": "address",
          "name": "",
          "type": "address"
        }
      ],
      "stateMutability": "payable",
      "type": "function"
    },
    {
      "inputs": [],
      "name": "creationFee",
      "outputs": [
        {
          "internalType": "uint256",
          "name": "",
          "type": "uint256"
        }
      ],
      "stateMutability": "view",
      "type": "function"
    },
    {
      "inputs": [],
      "name": "owner",
      "outputs": [
        {
          "internalType": "address",
          "name": "",
          "type": "address"
        }
      ],
      "stateMutability": "view",
      "type": "function"
    },
    {
      "inputs": [],
      "name": "tokenLock",
      "outputs": [
        {
          "internalType": "address",
          "name": "",
          "type": "address"
        }
      ],
      "stateMutability": "view",
      "type": "function"
    }
  ],
  "bytecode": "0x60803461008557601f6120db38819003918201601f19168301916001600160401b0383118484101761008a5780849260209460405283398101031261008557516001600160a01b0381169081900361008557662386f26fc1000060025560018060a01b031933816000541617600055600154161760015560405161203a90816100a18239f35b600080fd5b634e487b7160e01b600052604160045260246000fdfe60806040818152600436101561001457600080fd5b600091823560e01c9081635d21d5fe146100be575080638da5cb5b14610097578063dce0b4e4146100795763e718234d1461004e57600080fd5b3461007557816003193601126100755760015490516001600160a01b039091168152602090f35b5080fd5b50346100755781600319360112610075576020906002549051908152f35b5034610075578160031936011261007557905490516001600160a01b039091168152602090f35b838361018080600319360112610233576001600160a01b039360043585811692919083900361022f576024359086821680920361022b5760025434106101f657508560015416845192611dcd928385019385851067ffffffffffffffff8611176101e257918593916101c0959361023886398784526020840152604435888401526064356060840152608435608084015260a43560a084015260c43560c084015260e43560e084015261010435610100840152610124356101208401526101443561014084015261016435610160840152820152336101a082015203019084f09384156101d65760209416915192827f9f9471d3b3071c040c7e86373d5cc377e941685fd070d61b95eacb58a11e6576339280a48152f35b505051903d90823e3d90fd5b634e487b7160e01b89526041600452602489fd5b62461bcd60e51b815260206004820152601060248201526f496e73756666696369656e742066656560801b6044820152606490fd5b8580fd5b8480fd5b8280fdfe34620004c65762001dcd388190036101c0601f8201601f19168101906001600160401b03821190821017620004cb576101c09282916040526101c03912620004c6576200004e6101c0620004e1565b6200005b6101e0620004e1565b61020051610220516102405161026051610280516102a0516102c05161030051610320519499969894979694959093919291906200009b610340620004e1565b506001600160a01b03620000b1610360620004e1565b16998a15620004ad57600080546001600160a01b031981168d178255604051918d916001600160a01b0316907f8be0079c531659141344cd1fd0a4f28419497f9722a3daafe3b4186f6b6457e09080a3600180556001600160a01b038816156200047b57506001600160a01b038816156200044557881515806200043a575b15620004065742841115620003cc57838511156200038757603c831015806200037b575b156200034157620001668282620004f6565b620001808d6064620001798786620004f6565b04620004f6565b81018091116200032b578a10620002e6577f99ca98ea2b9c0703b40f7a8692b4c6e79b33cb279174a9046ccf9cf7c4045c129860209860018060a01b03891660805260018060a01b031660a05260c05260e05261010052610120998a526101405261016052610180526101a05260405193845260018060a01b031692a36040516118c291826200050b83396080518281816104bc0152818161094101528181610f96015261142d015260a05182818161053f0152610f58015260c051828181610d4d015261168c015260e0518281816051015281816105070152818161068801526116c60152610100518281816114000152611525015251818181610cd80152610f17015261014051818181610c620152610edd01526101605181818160a4015281816106d901528181610db001526116340152610180518181816109d70152818161159a015261165b01526101a0518181816101db0152818161080f0152610c9d0152f35b60405162461bcd60e51b815260206004820152601e60248201527f496e73756666696369656e7420746f6b656e73207072652d6c6f6164656400006044820152606490fd5b634e487b7160e01b600052601160045260246000fd5b60405162461bcd60e51b8152602060048201526012602482015271496e76616c6964206c69717569646974792560701b6044820152606490fd5b50606483111562000154565b60405162461bcd60e51b815260206004820152601560248201527f456e642074696d65206265666f726520737461727400000000000000000000006044820152606490fd5b60405162461bcd60e51b815260206004820152601260248201527114dd185c9d081d1a5b59481a5b881c185cdd60721b6044820152606490fd5b60405162461bcd60e51b815260206004820152600c60248201526b496e76616c6964206361707360a01b6044820152606490fd5b508089111562000130565b60405162461bcd60e51b815260206004820152600e60248201526d24b73b30b634b2103937baba32b960911b6044820152606490fd5b62461bcd60e51b815260206004820152600d60248201526c24b73b30b634b2103a37b5b2b760991b6044820152606490fd5b604051631e4fbdf760e01b815260006004820152602490fd5b600080fd5b634e487b7160e01b600052604160045260246000fd5b51906001600160a01b0382168203620004c657565b818102929181159184041417156200032b5756fe6080604081815260049182361015610360575b50361561001e57600080fd5b610026611713565b61002e611628565b8281101561034b576001036103155734156102dd5761004f346002546116f0565b7f0000000000000000000000000000000000000000000000000000000000000000106102a25760003381526020926006845282822054601e81018091116101b257421061026d573382526006845242838320557f0000000000000000000000000000000000000000000000000000000000000000610258810180821161025a574210156101c55742034281116101b25761012c111561019b5767ffffffffffffffff6706f05b59d3b200005b3384528286521661010f34858520546116f0565b116101585791809160008051602061186d833981519152935b3382528552206101393482546116f0565b9055610147346002546116f0565b60025551913483523392a260018055005b825162461bcd60e51b8152908101849052601f60248201527f44796e616d696320416e74692d5768616c6520636170206578636565646564006044820152606490fd5b67ffffffffffffffff670de0b6b3a76400006100fb565b634e487b7160e01b835260118252602483fd5b503382528084526101d934848420546116f0565b7f0000000000000000000000000000000000000000000000000000000000000000106102175791809160008051602061186d83398151915293610128565b825162461bcd60e51b8152908101849052601b60248201527f45786365656473206d6178207370656e642070657220627579657200000000006044820152606490fd5b634e487b7160e01b845260118352602484fd5b825162461bcd60e51b8152908101849052600f60248201526e436f6f6c646f776e2061637469766560881b6044820152606490fd5b906020606492519162461bcd60e51b835282015260156024820152740576f756c642065786365656420686172642063617605c1b6044820152fd5b906020606492519162461bcd60e51b835282015260126024820152710416d6f756e74206d757374206265203e20360741b6044820152fd5b906020606492519162461bcd60e51b8352820152601060248201526f50726573616c65206e6f74206c69766560801b6044820152fd5b602183634e487b7160e01b6000525260246000fd5b600090813560e01c9081631865c57d146115bd575080633197cbb61461158257806342e94c901461154857806342f393811461150d57806348c54b9d146113745780634bb278f314610e8b5780636e99d52f14610e6f578063715018a614610e1257806373b2e80e14610dd357806378e9792514610d985780638da5cb5b14610d70578063906a26e014610d35578063a03039c214610cfb578063a20ecbbb14610cc0578063a3d35dad14610c85578063b068375514610c4a578063b3f05b9714610c26578063b5545a3c14610b1c578063c12255c414610af3578063c342381e14610ad7578063c5c4744c14610ab8578063c8bdbfb6146108e3578063d7bb99ba14610647578063e6d4c0ff1461062a578063e6fa0ef714610601578063f2fde38b1461056e578063f887ea401461052a578063fb86a404146104ef5763fc0c546a036100125790346104eb57816003193601126104eb57517f00000000000000000000000000000000000000000000000000000000000000006001600160a01b03168152602090f35b5080fd5b5090346104eb57816003193601126104eb57602090517f00000000000000000000000000000000000000000000000000000000000000008152f35b5090346104eb57816003193601126104eb57517f00000000000000000000000000000000000000000000000000000000000000006001600160a01b03168152602090f35b509190346105fd5760203660031901126105fd576001600160a01b038235818116939192908490036105f9576105a26115fc565b83156105e357505082546001600160a01b0319811683178455167f8be0079c531659141344cd1fd0a4f28419497f9722a3daafe3b4186f6b6457e08380a380f35b51631e4fbdf760e01b8152908101849052602490fd5b8480fd5b8280fd5b5090346104eb57816003193601126104eb5760085490516001600160a01b039091168152602090f35b5090346104eb57816003193601126104eb57602090516102588152f35b509190826003193601126105fd5761065d611713565b610665611628565b828110156108d0576001036103155734156102dd57610686346002546116f0565b7f0000000000000000000000000000000000000000000000000000000000000000106102a2573383526020916006835281842054601e81018091116107e657421061089d573384526006835242828520557f0000000000000000000000000000000000000000000000000000000000000000610258810180821161088a574210156107f95742034281116107e65761012c11156107cf5767ffffffffffffffff6706f05b59d3b200005b3386528285521661074434848720546116f0565b1161078e579060008051602061186d833981519152915b338552835280842061076e3482546116f0565b905561077c346002546116f0565b60025551913483523392a26001805580f35b82606492519162461bcd60e51b8352820152601f60248201527f44796e616d696320416e74692d5768616c6520636170206578636565646564006044820152fd5b67ffffffffffffffff670de0b6b3a7640000610730565b634e487b7160e01b855260118252602485fd5b5033845280835261080d34838620546116f0565b7f000000000000000000000000000000000000000000000000000000000000000010610849579060008051602061186d8339815191529161075b565b82606492519162461bcd60e51b8352820152601b60248201527f45786365656473206d6178207370656e642070657220627579657200000000006044820152fd5b634e487b7160e01b865260118352602486fd5b82606492519162461bcd60e51b8352820152600f60248201526e436f6f6c646f776e2061637469766560881b6044820152fd5b634e487b7160e01b845260218352602484fd5b509190346105fd57826003193601126105fd576108fe6115fc565b610906611628565b8281101580610aa5576002821480928115610a97575b5015610a5d576108d0576109d5575b80516370a0823160e01b815230928101929092527f00000000000000000000000000000000000000000000000000000000000000006001600160a01b036020846024818486165afa9283156109cc57508492610993575b610990935084541690611829565b80f35b91506020833d82116109c4575b816109ad60209383611749565b810103126109c057610990925191610982565b8380fd5b3d91506109a0565b513d86823e3d90fd5b7f000000000000000000000000000000000000000000000000000000000000000062278d00810180911161025a57421161092b57906020608492519162461bcd60e51b8352820152602860248201527f57616974203330206461797320706f73742d656e6420746f20636c656172206c6044820152676566746f7665727360c01b6064820152fd5b825162461bcd60e51b8152602081860152601460248201527350726573616c65207374696c6c2061637469766560601b6044820152606490fd5b91505060038591143861091c565b634e487b7160e01b855260218452602485fd5b5090346104eb57816003193601126104eb576020906002549051908152f35b5090346104eb57816003193601126104eb5760209051603c8152f35b5090346104eb57816003193601126104eb5760075490516001600160a01b039091168152602090f35b509190346105fd57826003193601126105fd57610b37611713565b610b3f611628565b828110156108d057600303610bee573383528160205280832054918215610bb457338452602052828181205582808080853382f115610ba957519081527f358fe4192934d3bf28ae181feda1f4bd08ca67f5e2fad55582cce5eb67304ae960203392a26001805580f35b51913d9150823e3d90fd5b6020606492519162461bcd60e51b83528201526015602482015274139bc818dbdb9d1c9a589d5d1a5bdb88199bdd5b99605a1b6044820152fd5b906020606492519162461bcd60e51b83528201526012602482015271141c995cd85b19481b9bdd0819985a5b195960721b6044820152fd5b5090346104eb57816003193601126104eb5760209060ff6003541690519015158152f35b5090346104eb57816003193601126104eb57602090517f00000000000000000000000000000000000000000000000000000000000000008152f35b5090346104eb57816003193601126104eb57602090517f00000000000000000000000000000000000000000000000000000000000000008152f35b5090346104eb57816003193601126104eb57602090517f00000000000000000000000000000000000000000000000000000000000000008152f35b5091346105fd5760203660031901126105fd57356001600160a01b038116908190036105fd57828291602094526006845220549051908152f35b5090346104eb57816003193601126104eb57602090517f00000000000000000000000000000000000000000000000000000000000000008152f35b5090346104eb57816003193601126104eb57905490516001600160a01b039091168152602090f35b5090346104eb57816003193601126104eb57602090517f00000000000000000000000000000000000000000000000000000000000000008152f35b5091346105fd5760203660031901126105fd57356001600160a01b038116908190036105fd57818360ff92602095526005855220541690519015158152f35b5034610e6c5780600319360112610e6c57610e2b6115fc565b80546001600160a01b03198116825581906001600160a01b03167f8be0079c531659141344cd1fd0a4f28419497f9722a3daafe3b4186f6b6457e08280a380f35b80fd5b5090346104eb57816003193601126104eb5760209051601e8152f35b5091346105fd57826003193601126105fd57610ea5611713565b610ead611628565b81811015611361576002036113155760035460ff81166112de5760ff191660011760035560025491606480610f027f000000000000000000000000000000000000000000000000000000000000000086611736565b0490848004600114851517156112cb57610f3c7f000000000000000000000000000000000000000000000000000000000000000083611736565b835163095ea7b360e01b60208083018281526001600160a01b037f00000000000000000000000000000000000000000000000000000000000000008116602480870182905260448088018990528752939b969a96939591947f0000000000000000000000000000000000000000000000000000000000000000939192918e908e908290610fca606487611749565b85519082895af1903d815191836112ab575b5050501561124e575b505060628a028a81046062148b15171561123c57606289028981046062148a15171561122a57858e541690610258420192834211611217578c5163f305d71960e01b8152958816868b01528589018e90528a90046044860152899004848a0152608484015260a48301528b92919088908290815a9360c492606095f1801561120d576111e2575b508583600854169182611181575b50505090479080600754161515600014611121578280928192600754165af16110a1611781565b50156110e957505050917fd4294f2e03dfa3f368c60ae6950d6e90c37101953b6aa279269459a9517f106e93916060935b600254938251948552840152820152a16001805580f35b845162461bcd60e51b815291820187905260169082015275115cd8dc9bddc81a185b991bdd995c8819985a5b195960521b6044820152fd5b82809650809550809450999897995416828215611178575bf11561116b57907fd4294f2e03dfa3f368c60ae6950d6e90c37101953b6aa279269459a9517f106e93606093926110d2565b50505051903d90823e3d90fd5b506108fc611139565b83928392839204905af1611193611781565b50156111a2578838858161107a565b50845162461bcd60e51b8152918201879052601d908201527f496e737572616e636520746178207472616e73666572206661696c65640000006044820152fd5b606090813d8111611206575b6111f88183611749565b810103126104eb573861106c565b503d6111ee565b89513d85823e3d90fd5b50634e487b7160e01b8f5260118952878ffd5b634e487b7160e01b8e5260118852868efd5b634e487b7160e01b8d5260118752858dfd5b8a51908d82015282878201528d6044820152604481526080810181811067ffffffffffffffff82111761129957611292929161128c918d52856117c1565b836117c1565b3880610fe5565b634e487b7160e01b8f5260418952878ffd5b509091506112c357508584163b15155b388f80610fdc565b6001146112bb565b634e487b7160e01b865260118452602486fd5b506020606492519162461bcd60e51b83528201526011602482015270105b1c9958591e48199a5b985b1a5e9959607a1b6044820152fd5b6020608492519162461bcd60e51b8352820152602160248201527f536f667420636170206e6f742072656163686564206f72206e6f7420656e64656044820152601960fa1b6064820152fd5b634e487b7160e01b845260218252602484fd5b5091346105fd57826003193601126105fd5761138e611713565b60ff60035416156114d3573383526020908082528284205415611492573384526005825260ff838520541661145f57907f896e034966eaaf1adc54acc0f257056febbd300c9e47182cf761982cf1f5e4309133855260058252838520600160ff198254161790558152611425838520547f000000000000000000000000000000000000000000000000000000000000000090611736565b9261145184337f0000000000000000000000000000000000000000000000000000000000000000611829565b519283523392a26001805580f35b915162461bcd60e51b815291820152600f60248201526e105b1c9958591e4818db185a5b5959608a1b6044820152606490fd5b915162461bcd60e51b815291820152601860248201527f4e6f20636f6e747269627574696f6e20746f20636c61696d00000000000000006044820152606490fd5b6020606492519162461bcd60e51b83528201526015602482015274141c995cd85b19481b9bdd08199a5b985b1a5e9959605a1b6044820152fd5b5090346104eb57816003193601126104eb57602090517f00000000000000000000000000000000000000000000000000000000000000008152f35b5091346105fd5760203660031901126105fd5780356001600160a01b038116908190036109c0579282916020948252845220549051908152f35b5090346104eb57816003193601126104eb57602090517f00000000000000000000000000000000000000000000000000000000000000008152f35b92505034610e6c5780600319360112610e6c576115d8611628565b90838210156115e957602083838152f35b634e487b7160e01b815260218452602490fd5b6000546001600160a01b0316330361161057565b60405163118cdaa760e01b8152336004820152602490fd5b60ff600354166116b6577f000000000000000000000000000000000000000000000000000000000000000042106116eb577f0000000000000000000000000000000000000000000000000000000000000000421115806116c0575b6116bb576002547f000000000000000000000000000000000000000000000000000000000000000011156116b657600390565b600290565b600190565b506002547f000000000000000000000000000000000000000000000000000000000000000011611683565b600090565b919082018092116116fd57565b634e487b7160e01b600052601160045260246000fd5b600260015414611724576002600155565b604051633ee5aeb560e01b8152600490fd5b818102929181159184041417156116fd57565b90601f8019910116810190811067ffffffffffffffff82111761176b57604052565b634e487b7160e01b600052604160045260246000fd5b3d156117bc573d9067ffffffffffffffff821161176b57604051916117b0601f8201601f191660200184611749565b82523d6000602084013e565b606090565b906000602091828151910182855af11561181d576000513d61181457506001600160a01b0381163b155b6117f25750565b604051635274afe760e01b81526001600160a01b039091166004820152602490fd5b600114156117eb565b6040513d6000823e3d90fd5b60405163a9059cbb60e01b60208201526001600160a01b0392909216602483015260448083019390935291815261186a91611865606483611749565b6117c1565b56fe4d154d4aae216bed6d0926db77c00df2b57c6b5ba4eee05775de20facede3a7ba2646970667358221220953434d29bb06fe6e8f719fa2491d13d11708a37bd27db45445f0cd62960375664736f6c63430008140033a264697066735822122014906582de1bc7e92a3c78086c85d4c851e39adc16f6478301fb82337b16b68c64736f6c63430008140033",
  "linkReferences": {},
  "deployedLinkReferences": {}
}