{"contracts/Presale.sol":{"Presale":{"abi":[{"inputs":[{"internalType":"address","name":"_token","type":"address"},{"internalType":"address","name":"_router","type":"address"},{"internalType":"uint256","name":"_softCap","type":"uint256"},{"internalType":"uint256","name":"_hardCap","type":"uint256"},{"internalType":"uint256","name":"_presaleRate","type":"uint256"},{"internalType":"uint256","name":"_listingRate","type":"uint256"},{"internalType":"uint256","name":"_liquidityPercent","type":"uint256"},{"internalType":"uint256","name":"_startTime","type":"uint256"},{"internalType":"uint256","name":"_endTime","type":"uint256"},{"internalType":"uint256","name":"","type":"uint256"},{"internalType":"uint256","name":"","type":"uint256"},{"internalType":"uint256","name":"_amount","type":"uint256"},{"internalType":"bytes32","name":"_snapshotRoot","type":"bytes32"},{"internalType":"address","name":"_owner","type":"address"}],"stateMutability":"nonpayable","type":"constructor"},{"inputs":[{"internalType":"address","name":"owner","type":"address"}],"name":"OwnableInvalidOwner","type":"error"},{"inputs":[{"internalType":"address","name":"account","type":"address"}],"name":"OwnableUnauthorizedAccount","type":"error"},{"inputs":[],"name":"ReentrancyGuardReentrantCall","type":"error"},{"inputs":[{"internalType":"address","name":"token","type":"address"}],"name":"SafeERC20FailedOperation","type":"error"},{"anonymous":false,"inputs":[{"indexed":true,"internalType":"address","name":"buyer","type":"address"},{"indexed":false,"internalType":"uint8","name":"tier","type":"uint8"},{"indexed":false,"internalType":"uint256","name":"amount","type":"uint256"}],"name":"Contribution","type":"event"},{"anonymous":false,"inputs":[{"indexed":true,"internalType":"address","name":"previousOwner","type":"address"},{"indexed":true,"internalType":"address","name":"newOwner","type":"address"}],"name":"OwnershipTransferred","type":"event"},{"anonymous":false,"inputs":[{"indexed":false,"internalType":"uint256","name":"totalRaised","type":"uint256"},{"indexed":false,"internalType":"uint256","name":"liquidityAdded","type":"uint256"},{"indexed":false,"internalType":"uint256","name":"tokensLocked","type":"uint256"}],"name":"PresaleFinalized","type":"event"},{"anonymous":false,"inputs":[{"indexed":true,"internalType":"address","name":"token","type":"address"},{"indexed":true,"internalType":"address","name":"owner","type":"address"},{"indexed":false,"internalType":"uint256","name":"amount","type":"uint256"}],"name":"PresaleInitialized","type":"event"},{"anonymous":false,"inputs":[{"indexed":true,"internalType":"address","name":"buyer","type":"address"},{"indexed":false,"internalType":"uint256","name":"amount","type":"uint256"}],"name":"RefundClaimed","type":"event"},{"anonymous":false,"inputs":[{"indexed":false,"internalType":"uint8","name":"tier","type":"uint8"},{"indexed":false,"internalType":"uint256","name":"amount","type":"uint256"}],"name":"TierAllocationSet","type":"event"},{"anonymous":false,"inputs":[{"indexed":true,"internalType":"address","name":"buyer","type":"address"},{"indexed":false,"internalType":"uint256","name":"amount","type":"uint256"}],"name":"TokensClaimed","type":"event"},{"inputs":[],"name":"SPLIT_BRONZE","outputs":[{"internalType":"uint256","name":"","type":"uint256"}],"stateMutability":"view","type":"function"},{"inputs":[],"name":"SPLIT_GOLD","outputs":[{"internalType":"uint256","name":"","type":"uint256"}],"stateMutability":"view","type":"function"},{"inputs":[],"name":"SPLIT_SILVER","outputs":[{"internalType":"uint256","name":"","type":"uint256"}],"stateMutability":"view","type":"function"},{"inputs":[],"name":"TIER_BRONZE","outputs":[{"internalType":"uint8","name":"","type":"uint8"}],"stateMutability":"view","type":"function"},{"inputs":[],"name":"TIER_GOLD","outputs":[{"internalType":"uint8","name":"","type":"uint8"}],"stateMutability":"view","type":"function"},{"inputs":[],"name":"TIER_SILVER","outputs":[{"internalType":"uint8","name":"","type":"uint8"}],"stateMutability":"view","type":"function"},{"inputs":[],"name":"claimRefund","outputs":[],"stateMutability":"nonpayable","type":"function"},{"inputs":[],"name":"claimTokens","outputs":[],"stateMutability":"nonpayable","type":"function"},{"inputs":[{"internalType":"address","name":"","type":"address"}],"name":"claimedHash","outputs":[{"internalType":"uint256","name":"","type":"uint256"}],"stateMutability":"view","type":"function"},{"inputs":[{"internalType":"bytes32[]","name":"proof","type":"bytes32[]"},{"internalType":"uint8","name":"tier","type":"uint8"},{"internalType":"uint256","name":"maxAlloc","type":"uint256"}],"name":"contribute","outputs":[],"stateMutability":"payable","type":"function"},{"inputs":[{"internalType":"address","name":"","type":"address"}],"name":"contributions","outputs":[{"internalType":"uint256","name":"","type":"uint256"}],"stateMutability":"view","type":"function"},{"inputs":[],"name":"endTime","outputs":[{"internalType":"uint256","name":"","type":"uint256"}],"stateMutability":"view","type":"function"},{"inputs":[],"name":"finalize","outputs":[],"stateMutability":"nonpayable","type":"function"},{"inputs":[],"name":"finalizeTime","outputs":[{"internalType":"uint256","name":"","type":"uint256"}],"stateMutability":"view","type":"function"},{"inputs":[],"name":"finalized","outputs":[{"internalType":"bool","name":"","type":"bool"}],"stateMutability":"view","type":"function"},{"inputs":[],"name":"getState","outputs":[{"internalType":"enum Presale.State","name":"","type":"uint8"}],"stateMutability":"view","type":"function"},{"inputs":[],"name":"hardCap","outputs":[{"internalType":"uint256","name":"","type":"uint256"}],"stateMutability":"view","type":"function"},{"inputs":[],"name":"liquidityPercent","outputs":[{"internalType":"uint256","name":"","type":"uint256"}],"stateMutability":"view","type":"function"},{"inputs":[],"name":"listingRate","outputs":[{"internalType":"uint256","name":"","type":"uint256"}],"stateMutability":"view","type":"function"},{"inputs":[],"name":"owner","outputs":[{"internalType":"address","name":"","type":"address"}],"stateMutability":"view","type":"function"},{"inputs":[],"name":"presaleRate","outputs":[{"internalType":"uint256","name":"","type":"uint256"}],"stateMutability":"view","type":"function"},{"inputs":[],"name":"renounceOwnership","outputs":[],"stateMutability":"nonpayable","type":"function"},{"inputs":[],"name":"router","outputs":[{"internalType":"contract IUniswapV2Router02","name":"","type":"address"}],"stateMutability":"view","type":"function"},{"inputs":[],"name":"snapshotRoot","outputs":[{"internalType":"bytes32","name":"","type":"bytes32"}],"stateMutability":"view","type":"function"},{"inputs":[],"name":"softCap","outputs":[{"internalType":"uint256","name":"","type":"uint256"}],"stateMutability":"view","type":"function"},{"inputs":[],"name":"startTime","outputs":[{"internalType":"uint256","name":"","type":"uint256"}],"stateMutability":"view","type":"function"},{"inputs":[{"internalType":"uint8","name":"","type":"uint8"}],"name":"tierAllocations","outputs":[{"internalType":"uint256","name":"","type":"uint256"}],"stateMutability":"view","type":"function"},{"inputs":[{"internalType":"uint8","name":"","type":"uint8"}],"name":"tierTotalRaised","outputs":[{"internalType":"uint256","name":"","type":"uint256"}],"stateMutability":"view","type":"function"},{"inputs":[{"internalType":"uint8","name":"","type":"uint8"}],"name":"tierVesting","outputs":[{"internalType":"uint256","name":"tgePercent","type":"uint256"},{"internalType":"uint256","name":"cliffDuration","type":"uint256"},{"internalType":"uint256","name":"linearDuration","type":"uint256"}],"stateMutability":"view","type":"function"},{"inputs":[],"name":"token","outputs":[{"internalType":"contract IERC20","name":"","type":"address"}],"stateMutability":"view","type":"function"},{"inputs":[],"name":"totalRaised","outputs":[{"internalType":"uint256","name":"","type":"uint256"}],"stateMutability":"view","type":"function"},{"inputs":[{"internalType":"address","name":"newOwner","type":"address"}],"name":"transferOwnership","outputs":[],"stateMutability":"nonpayable","type":"function"},{"inputs":[{"internalType":"address","name":"","type":"address"}],"name":"userTier","outputs":[{"internalType":"uint8","name":"","type":"uint8"}],"stateMutability":"view","type":"function"},{"inputs":[],"name":"withdrawUnsoldTokens","outputs":[],"stateMutability":"nonpayable","type":"function"}],"evm":{"bytecode":{"linkReferences":{},"object":"34620005065762001ffb388190036101c0601f8201601f19168101906001600160401b038211908210176200050b576101c09282916040526101c0391262000506576200004e6101c062000541565b6200005b6101e062000541565b61020051610220516102405161026051610280516102a0516102c051610320516103405194999398969790969095909492906001600160a01b03620000a261036062000541565b16988915620004ed57600080546001600160a01b031981168c178255604051918c916001600160a01b0316907f8be0079c531659141344cd1fd0a4f28419497f9722a3daafe3b4186f6b6457e09080a3600180556001600160a01b03871615620004bb57506001600160a01b038716156200048557871515806200047a575b156200044657428311156200040c5782841115620003c757603c8b101580620003bb575b1562000381577f99ca98ea2b9c0703b40f7a8692b4c6e79b33cb279174a9046ccf9cf7c4045c129760209760018060a01b03881660805260018060a01b031660a05260c05260e05261010052610120998a5261014098895261016052610180526101a052620001b362000521565b600a81528281016276a700918282526040810191630163f50083526001600052600292839182885260406000209351845551600184015551910155620001f862000521565b6014815281858201624f1a008152604083019062ed4e00825282600052828852604060002093518455516001840155519101556200023562000521565b916028835284830162278d0081526040840191825260036000528286526040600020935184555160018401555191015560405193845260018060a01b031692a360405190611aa492836200055784396080518381816101ab0152818161083001528181610f5f01528181610fc3015281816111b4015281816111da015281816112240152611521015260a05183818161023001528181610f1b015281816110160152611155015260c051838181610ba1015281816113370152611904015260e0518381816101f70152610d4d015261010051838181610d79015281816113ef01526116e1015251828181610b4a0152610ed9015251818181610b0f01528181610eae01526110660152610160518181816103eb01528181610c2101526118b201526101805181818161130a015281816117aa01526118d901526101a0518181816105fd0152610cd30152f35b60405162461bcd60e51b8152602060048201526012602482015271496e76616c6964206c69717569646974792560701b6044820152606490fd5b5060648b111562000145565b60405162461bcd60e51b815260206004820152601560248201527f456e642074696d65206265666f726520737461727400000000000000000000006044820152606490fd5b60405162461bcd60e51b815260206004820152601260248201527114dd185c9d081d1a5b59481a5b881c185cdd60721b6044820152606490fd5b60405162461bcd60e51b815260206004820152600c60248201526b496e76616c6964206361707360a01b6044820152606490fd5b508088111562000121565b60405162461bcd60e51b815260206004820152600e60248201526d24b73b30b634b2103937baba32b960911b6044820152606490fd5b62461bcd60e51b815260206004820152600d60248201526c24b73b30b634b2103a37b5b2b760991b6044820152606490fd5b604051631e4fbdf760e01b815260006004820152602490fd5b600080fd5b634e487b7160e01b600052604160045260246000fd5b60405190606082016001600160401b038111838210176200050b57604052565b51906001600160a01b0382168203620005065756fe608080604052600436101561001357600080fd5b60003560e01c90816308ed299c1461183a575080631865c57d1461180e57806321c7557c146117cd5780633197cbb6146117925780633a6089cf1461175e5780633c0847f51461174257806342e94c901461170457806342f39381146116c957806348c54b9d1461135d5780634bb278f314610cf65780635fb2266b14610cbb5780636a03eaf914610c9d578063715018a614610c4457806378e9792514610c095780637c396efa14610bed5780638da5cb5b14610bc4578063906a26e014610b895780639a46e41214610b6d578063a20ecbbb14610b32578063b068375514610af7578063b1d0af7014610ab9578063b3f05b9714610a96578063b5545a3c1461097f578063bcc23e6c14610963578063c5c4744c14610945578063c7d0123114610929578063c8bdbfb6146107e9578063cdfe4be814610364578063e3d3f84314610348578063e6c45d4a146102ef578063f2fde38b1461025f578063f887ea401461021a578063fb86a404146101df5763fc0c546a1461019557600080fd5b346101da5760003660031901126101da576040517f00000000000000000000000000000000000000000000000000000000000000006001600160a01b03168152602090f35b600080fd5b346101da5760003660031901126101da5760206040517f00000000000000000000000000000000000000000000000000000000000000008152f35b346101da5760003660031901126101da576040517f00000000000000000000000000000000000000000000000000000000000000006001600160a01b03168152602090f35b346101da5760203660031901126101da576004356001600160a01b03818116918290036101da5761028e61187a565b81156102d657600054826bffffffffffffffffffffffff60a01b821617600055167f8be0079c531659141344cd1fd0a4f28419497f9722a3daafe3b4186f6b6457e0600080a3005b604051631e4fbdf760e01b815260006004820152602490fd5b346101da5760203660031901126101da5760ff61030a61186a565b1660005260026020526040600020805461034460026001840154930154604051938493846040919493926060820195825260208201520152565b0390f35b346101da5760003660031901126101da57602060405160038152f35b60603660031901126101da5760043567ffffffffffffffff8082116101da57366023830112156101da578160040135918183116101da57600583811b926024928385820101953687116101da5784359360ff8516968786036101da576103c861196c565b6103d06118a6565b9860048a10156107d4576001809a0361079d573415610764577f0000000000000000000000000000000000000000000000000000000000000000610258810180911161074f5742106106f8575b6000546001600160a01b0316330361057d575b5050505050505033600052602090600982526044356104543460406000205461193d565b11610541573360005260038252826040600020805460ff8116151560001461053257505460ff16036104fa57505b3360005260098152604060002061049a34825461193d565b90556104a83460065461193d565b600655816000526004815260406000206104c334825461193d565b905560405191825234908201527f6202e363b9b07bd49964490f5cd955af47c94fffc29054855e24d451a753851a60403392a28055005b9060126064926040519262461bcd60e51b845260048401528201527121b0b73737ba1031b430b733b2903a34b2b960711b6044820152fd5b90925060ff1916179055610482565b9060166064926040519262461bcd60e51b845260048401528201527522bc31b2b2b2399036b0bc1030b63637b1b0ba34b7b760511b6044820152fd5b60405193602097888601903360601b825260ff60f81b9060f81b1660348701526044356035870152603586526060860197868910908911176106e357906105d5898d9897969594938a6040528751902094018961194a565b87526080948901888587015b8383106106d05750505050946000945b610665575b50505050507f00000000000000000000000000000000000000000000000000000000000000000361062c57808080808080610430565b60146064926040519262461bcd60e51b845260048401528201527324b73b30b634b21026b2b935b63290283937b7b360611b6044820152fd5b909192939481518610156106ca5785831b840185015190818110156106ba57600052865260406000205b9460001981146106a557890193929190896105f1565b87634e487b7160e01b60005260116004526000fd5b906000528652604060002061068f565b946105f6565b823581528d9850918101918a91016105e1565b89634e487b7160e01b60005260416004526000fd5b600289101561041d5760405162461bcd60e51b8152602060048201526021818a01527f5072696f726974792057696e646f773a2053696c7665722f476f6c64204f6e6c6044820152607960f81b6064820152608490fd5b88634e487b7160e01b60005260116004526000fd5b60405162461bcd60e51b8152602060048201526012818a0152710416d6f756e74206d757374206265203e20360741b6044820152606490fd5b60405162461bcd60e51b8152602060048201526010818a01526f50726573616c65206e6f74206c69766560801b6044820152606490fd5b87634e487b7160e01b60005260216004526000fd5b346101da5760003660031901126101da5761080261187a565b60ff60075416806108ec575b156108bb576040516370a0823160e01b81523060048201526001600160a01b037f00000000000000000000000000000000000000000000000000000000000000006020836024818585165afa9182156108af5760009261087a575b61087893506000541690611a2b565b005b91506020833d82116108a7575b816108946020938361194a565b810103126101da57610878925191610869565b3d9150610887565b6040513d6000823e3d90fd5b60405162461bcd60e51b8152602060048201526009602482015268546f6f206561726c7960b81b6044820152606490fd5b506008546301e1338081019081811161091357630208c0800180911161091357421161080e565b634e487b7160e01b600052601160045260246000fd5b346101da5760003660031901126101da57602060405160148152f35b346101da5760003660031901126101da576020600654604051908152f35b346101da5760003660031901126101da576020604051601e8152f35b346101da5760003660031901126101da5761099861196c565b6109a06118a6565b6004811015610a8057600303610a4e573360005260096020526040600020548015610a1557336000526009602052600060408120556000808080843382f1156108af576040519081527f358fe4192934d3bf28ae181feda1f4bd08ca67f5e2fad55582cce5eb67304ae960203392a260018055005b60405162461bcd60e51b8152602060048201526011602482015270139bdd1a1a5b99c81d1bc81c99599d5b99607a1b6044820152606490fd5b60405162461bcd60e51b815260206004820152600a602482015269139bdd0819985a5b195960b21b6044820152606490fd5b634e487b7160e01b600052602160045260246000fd5b346101da5760003660031901126101da57602060ff600754166040519015158152f35b346101da5760203660031901126101da576004356001600160a01b038116908190036101da57600052600a6020526020604060002054604051908152f35b346101da5760003660031901126101da5760206040517f00000000000000000000000000000000000000000000000000000000000000008152f35b346101da5760003660031901126101da5760206040517f00000000000000000000000000000000000000000000000000000000000000008152f35b346101da5760003660031901126101da57602060405160028152f35b346101da5760003660031901126101da5760206040517f00000000000000000000000000000000000000000000000000000000000000008152f35b346101da5760003660031901126101da576000546040516001600160a01b039091168152602090f35b346101da5760003660031901126101da57602060405160328152f35b346101da5760003660031901126101da5760206040517f00000000000000000000000000000000000000000000000000000000000000008152f35b346101da5760003660031901126101da57610c5d61187a565b600080546001600160a01b0319811682556001600160a01b03167f8be0079c531659141344cd1fd0a4f28419497f9722a3daafe3b4186f6b6457e08280a3005b346101da5760003660031901126101da576020600854604051908152f35b346101da5760003660031901126101da5760206040517f00000000000000000000000000000000000000000000000000000000000000008152f35b346101da5760003660031901126101da57610d0f61196c565b610d176118a6565b6004811015610a80576002148015611307575b156112d05760075460ff81166112975760ff1916600117600755426008556006547f0000000000000000000000000000000000000000000000000000000000000000908181111561129057505b7f0000000000000000000000000000000000000000000000000000000000000000610da2818361198f565b9060148202908215918381046014148317156109135760649004601e840292848404601e1417156109135780610de9604095610de460648897049384926119c2565b6119c2565b9260036000526004602052610e1a610e0582876000205461198f565b9160026000526004602052866000205461198f565b9083811061127a575b509084916003600052600560205283836000205581811061125f575b506002600052600560205280826000205560016000528382600020558151926003845260208401527fe9c096f207492e79c93ffb021d220c180b64c8a54eb958748efacc2b7a38d84f80968194a1815190600282526020820152a1815190600182526020820152a16064610ed37f00000000000000000000000000000000000000000000000000000000000000008361198f565b04610efe7f00000000000000000000000000000000000000000000000000000000000000008261198f565b60405163095ea7b360e01b60208083019182526001600160a01b037f00000000000000000000000000000000000000000000000000000000000000001660248401526044808401859052835290600090610f5960648561194a565b835190827f00000000000000000000000000000000000000000000000000000000000000005af16000513d8261121a575b505015611143575b506000546001600160a01b0316426102588101908110610913576040519163f305d71960e01b835260018060a01b037f00000000000000000000000000000000000000000000000000000000000000001660048401528360248401526000604484015260006064840152608483015260a482015260608160c4818660018060a01b037f0000000000000000000000000000000000000000000000000000000000000000165af19081611118575b506110d7575060008080809360018060a01b038254168282156110ce575bf1156108af575b7f000000000000000000000000000000000000000000000000000000000000000060640390606482116109135760008060646110a28295839561198f565b8254919004906001600160a01b03168282156110c5575bf1156108af5760018055005b506108fc6110b9565b506108fc61105d565b600654604080519182526020820193909352918201527fd4294f2e03dfa3f368c60ae6950d6e90c37101953b6aa279269459a9517f106e90606090a1611064565b606090813d811161113c575b61112e818361194a565b810103126101da578461103f565b503d611124565b60405163095ea7b360e01b60208201527f00000000000000000000000000000000000000000000000000000000000000006001600160a01b0316602482015260006044808301919091528152906080820167ffffffffffffffff811183821017611204576111fe926111d8916040527f00000000000000000000000000000000000000000000000000000000000000006119cf565b7f00000000000000000000000000000000000000000000000000000000000000006119cf565b83610f92565b634e487b7160e01b600052604160045260246000fd5b90915061125757507f00000000000000000000000000000000000000000000000000000000000000006001600160a01b03163b15155b8580610f8a565b600114611250565b61126c81611273936119c2565b909461193d565b9287610e3f565b8061126c61128a928895966119c2565b91610e23565b9050610d77565b60405162461bcd60e51b8152602060048201526011602482015270105b1c9958591e48199a5b985b1a5e9959607a1b6044820152606490fd5b60405162461bcd60e51b815260206004820152600f60248201526e43616e6e6f742066696e616c697a6560881b6044820152606490fd5b507f000000000000000000000000000000000000000000000000000000000000000042118015610d2a57506006547f00000000000000000000000000000000000000000000000000000000000000001115610d2a565b346101da5760003660031901126101da5761137661196c565b60ff600754161561169457336000526020600981526040600020541561165e57336000526003815260ff60406000205416600982526040600020549080600052600483526040600020546005845260406000205490801515600014611653576113e26113e7928561198f565b6119a2565b80925b6114157f0000000000000000000000000000000000000000000000000000000000000000809261198f565b33600052600a8652604060002054158061164a575b6115d9575b50505060005260028252604060002090604051906060820182811067ffffffffffffffff8211176112045760405261148f60646114878554808652604060026001890154988a8901998a52015496019586528461198f565b0480926119c2565b916114a0829460085490519061193d565b6114ab82518261193d565b4210611590575050506114bd9161193d565b33600052600a82526040600020549081811115611554577f896e034966eaaf1adc54acc0f257056febbd300c9e47182cf761982cf1f5e430916114ff916119c2565b9133600052600a8152604060002061151884825461193d565b905561154583337f0000000000000000000000000000000000000000000000000000000000000000611a2b565b6040519283523392a260018055005b60405162461bcd60e51b81526004810184905260146024820152734e6f7468696e67206e657720746f20636c61696d60601b6044820152606490fd5b809391929342116115a5575b505050506114bd565b6115d094506115ca92916115bc6115c292426119c2565b9061198f565b9051906119a2565b9061193d565b8280808061159c565b6115e6926113e2916119c2565b801580156115f6575b839161142f565b8190600090611641575b600080809381933390f1156108af576040519081527f358fe4192934d3bf28ae181feda1f4bd08ca67f5e2fad55582cce5eb67304ae9843392a283806115ef565b506108fc611600565b5080831061142a565b5050600080926113ea565b6064906040519062461bcd60e51b82526004820152600f60248201526e27379031b7b73a3934b13aba34b7b760891b6044820152fd5b60405162461bcd60e51b815260206004820152600d60248201526c139bdd08199a5b985b1a5e9959609a1b6044820152606490fd5b346101da5760003660031901126101da5760206040517f00000000000000000000000000000000000000000000000000000000000000008152f35b346101da5760203660031901126101da576004356001600160a01b038116908190036101da5760005260096020526020604060002054604051908152f35b346101da5760003660031901126101da57602060405160018152f35b346101da5760203660031901126101da5760ff61177961186a565b1660005260056020526020604060002054604051908152f35b346101da5760003660031901126101da5760206040517f00000000000000000000000000000000000000000000000000000000000000008152f35b346101da5760203660031901126101da576004356001600160a01b038116908190036101da576000526003602052602060ff60406000205416604051908152f35b346101da5760003660031901126101da576118276118a6565b6040516004821015610a80576020918152f35b346101da5760203660031901126101da5760209060ff61185861186a565b16600052600482526040600020548152f35b6004359060ff821682036101da57565b6000546001600160a01b0316330361188e57565b60405163118cdaa760e01b8152336004820152602490fd5b60ff6007541661192e577f00000000000000000000000000000000000000000000000000000000000000004210611938577f0000000000000000000000000000000000000000000000000000000000000000421115611933576006547f0000000000000000000000000000000000000000000000000000000000000000111561192e57600390565b600290565b600190565b600090565b9190820180921161091357565b90601f8019910116810190811067ffffffffffffffff82111761120457604052565b60026001541461197d576002600155565b604051633ee5aeb560e01b8152600490fd5b8181029291811591840414171561091357565b81156119ac570490565b634e487b7160e01b600052601260045260246000fd5b9190820391821161091357565b906000602091828151910182855af1156108af576000513d611a2257506001600160a01b0381163b155b611a005750565b604051635274afe760e01b81526001600160a01b039091166004820152602490fd5b600114156119f9565b60405163a9059cbb60e01b60208201526001600160a01b03929092166024830152604480830193909352918152611a6c91611a6760648361194a565b6119cf565b56fea26469706673582212203df819d1caf3138fe59d4e6b4a7633107ed1210f7fde9f0d6ba830e7ec6fb83064736f6c63430008140033","opcodes":"CALLVALUE PUSH3 0x506 JUMPI PUSH3 0x1FFB CODESIZE DUP2 SWAP1 SUB PUSH2 0x1C0 PUSH1 0x1F DUP3 ADD PUSH1 0x1F NOT AND DUP2 ADD SWAP1 PUSH1 0x1 PUSH1 0x1 PUSH1 0x40 SHL SUB DUP3 GT SWAP1 DUP3 LT OR PUSH3 0x50B JUMPI PUSH2 0x1C0 SWAP3 DUP3 SWAP2 PUSH1 0x40 MSTORE PUSH2 0x1C0 CODECOPY SLT PUSH3 0x506 JUMPI PUSH3 0x4E PUSH2 0x1C0 PUSH3 0x541 JUMP JUMPDEST PUSH3 0x5B PUSH2 0x1E0 PUSH3 0x541 JUMP JUMPDEST PUSH2 0x200 MLOAD PUSH2 0x220 MLOAD PUSH2 0x240 MLOAD PUSH2 0x260 MLOAD PUSH2 0x280 MLOAD PUSH2 0x2A0 MLOAD PUSH2 0x2C0 MLOAD PUSH2 0x320 MLOAD PUSH2 0x340 MLOAD SWAP5 SWAP10 SWAP4 SWAP9 SWAP7 SWAP8 SWAP1 SWAP7 SWAP1 SWAP6 SWAP1 SWAP5 SWAP3 SWAP1 PUSH1 0x1 PUSH1 0x1 PUSH1 0xA0 SHL SUB PUSH3 0xA2 PUSH2 0x360 PUSH3 0x541 JUMP JUMPDEST AND SWAP9 DUP10 ISZERO PUSH3 0x4ED JUMPI PUSH1 0x0 DUP1 SLOAD PUSH1 0x1 PUSH1 0x1 PUSH1 0xA0 SHL SUB NOT DUP2 AND DUP13 OR DUP3 SSTORE PUSH1 0x40 MLOAD SWAP2 DUP13 SWAP2 PUSH1 0x1 PUSH1 0x1 PUSH1 0xA0 SHL SUB AND SWAP1 PUSH32 0x8BE0079C531659141344CD1FD0A4F28419497F9722A3DAAFE3B4186F6B6457E0 SWAP1 DUP1 LOG3 PUSH1 0x1 DUP1 SSTORE PUSH1 0x1 PUSH1 0x1 PUSH1 0xA0 SHL SUB DUP8 AND ISZERO PUSH3 0x4BB JUMPI POP PUSH1 0x1 PUSH1 0x1 PUSH1 0xA0 SHL SUB DUP8 AND ISZERO PUSH3 0x485 JUMPI DUP8 ISZERO ISZERO DUP1 PUSH3 0x47A JUMPI JUMPDEST ISZERO PUSH3 0x446 JUMPI TIMESTAMP DUP4 GT ISZERO PUSH3 0x40C JUMPI DUP3 DUP5 GT ISZERO PUSH3 0x3C7 JUMPI PUSH1 0x3C DUP12 LT ISZERO DUP1 PUSH3 0x3BB JUMPI JUMPDEST ISZERO PUSH3 0x381 JUMPI PUSH32 0x99CA98EA2B9C0703B40F7A8692B4C6E79B33CB279174A9046CCF9CF7C4045C12 SWAP8 PUSH1 0x20 SWAP8 PUSH1 0x1 DUP1 PUSH1 0xA0 SHL SUB DUP9 AND PUSH1 0x80 MSTORE PUSH1 0x1 DUP1 PUSH1 0xA0 SHL SUB AND PUSH1 0xA0 MSTORE PUSH1 0xC0 MSTORE PUSH1 0xE0 MSTORE PUSH2 0x100 MSTORE PUSH2 0x120 SWAP10 DUP11 MSTORE PUSH2 0x140 SWAP9 DUP10 MSTORE PUSH2 0x160 MSTORE PUSH2 0x180 MSTORE PUSH2 0x1A0 MSTORE PUSH3 0x1B3 PUSH3 0x521 JUMP JUMPDEST PUSH1 0xA DUP2 MSTORE DUP3 DUP2 ADD PUSH3 0x76A700 SWAP2 DUP3 DUP3 MSTORE PUSH1 0x40 DUP2 ADD SWAP2 PUSH4 0x163F500 DUP4 MSTORE PUSH1 0x1 PUSH1 0x0 MSTORE PUSH1 0x2 SWAP3 DUP4 SWAP2 DUP3 DUP9 MSTORE PUSH1 0x40 PUSH1 0x0 KECCAK256 SWAP4 MLOAD DUP5 SSTORE MLOAD PUSH1 0x1 DUP5 ADD SSTORE MLOAD SWAP2 ADD SSTORE PUSH3 0x1F8 PUSH3 0x521 JUMP JUMPDEST PUSH1 0x14 DUP2 MSTORE DUP2 DUP6 DUP3 ADD PUSH3 0x4F1A00 DUP2 MSTORE PUSH1 0x40 DUP4 ADD SWAP1 PUSH3 0xED4E00 DUP3 MSTORE DUP3 PUSH1 0x0 MSTORE DUP3 DUP9 MSTORE PUSH1 0x40 PUSH1 0x0 KECCAK256 SWAP4 MLOAD DUP5 SSTORE MLOAD PUSH1 0x1 DUP5 ADD SSTORE MLOAD SWAP2 ADD SSTORE PUSH3 0x235 PUSH3 0x521 JUMP JUMPDEST SWAP2 PUSH1 0x28 DUP4 MSTORE DUP5 DUP4 ADD PUSH3 0x278D00 DUP2 MSTORE PUSH1 0x40 DUP5 ADD SWAP2 DUP3 MSTORE PUSH1 0x3 PUSH1 0x0 MSTORE DUP3 DUP7 MSTORE PUSH1 0x40 PUSH1 0x0 KECCAK256 SWAP4 MLOAD DUP5 SSTORE MLOAD PUSH1 0x1 DUP5 ADD SSTORE MLOAD SWAP2 ADD SSTORE PUSH1 0x40 MLOAD SWAP4 DUP5 MSTORE PUSH1 0x1 DUP1 PUSH1 0xA0 SHL SUB AND SWAP3 LOG3 PUSH1 0x40 MLOAD SWAP1 PUSH2 0x1AA4 SWAP3 DUP4 PUSH3 0x557 DUP5 CODECOPY PUSH1 0x80 MLOAD DUP4 DUP2 DUP2 PUSH2 0x1AB ADD MSTORE DUP2 DUP2 PUSH2 0x830 ADD MSTORE DUP2 DUP2 PUSH2 0xF5F ADD MSTORE DUP2 DUP2 PUSH2 0xFC3 ADD MSTORE DUP2 DUP2 PUSH2 0x11B4 ADD MSTORE DUP2 DUP2 PUSH2 0x11DA ADD MSTORE DUP2 DUP2 PUSH2 0x1224 ADD MSTORE PUSH2 0x1521 ADD MSTORE PUSH1 0xA0 MLOAD DUP4 DUP2 DUP2 PUSH2 0x230 ADD MSTORE DUP2 DUP2 PUSH2 0xF1B ADD MSTORE DUP2 DUP2 PUSH2 0x1016 ADD MSTORE PUSH2 0x1155 ADD MSTORE PUSH1 0xC0 MLOAD DUP4 DUP2 DUP2 PUSH2 0xBA1 ADD MSTORE DUP2 DUP2 PUSH2 0x1337 ADD MSTORE PUSH2 0x1904 ADD MSTORE PUSH1 0xE0 MLOAD DUP4 DUP2 DUP2 PUSH2 0x1F7 ADD MSTORE PUSH2 0xD4D ADD MSTORE PUSH2 0x100 MLOAD DUP4 DUP2 DUP2 PUSH2 0xD79 ADD MSTORE DUP2 DUP2 PUSH2 0x13EF ADD MSTORE PUSH2 0x16E1 ADD MSTORE MLOAD DUP3 DUP2 DUP2 PUSH2 0xB4A ADD MSTORE PUSH2 0xED9 ADD MSTORE MLOAD DUP2 DUP2 DUP2 PUSH2 0xB0F ADD MSTORE DUP2 DUP2 PUSH2 0xEAE ADD MSTORE PUSH2 0x1066 ADD MSTORE PUSH2 0x160 MLOAD DUP2 DUP2 DUP2 PUSH2 0x3EB ADD MSTORE DUP2 DUP2 PUSH2 0xC21 ADD MSTORE PUSH2 0x18B2 ADD MSTORE PUSH2 0x180 MLOAD DUP2 DUP2 DUP2 PUSH2 0x130A ADD MSTORE DUP2 DUP2 PUSH2 0x17AA ADD MSTORE PUSH2 0x18D9 ADD MSTORE PUSH2 0x1A0 MLOAD DUP2 DUP2 DUP2 PUSH2 0x5FD ADD MSTORE PUSH2 0xCD3 ADD MSTORE RETURN JUMPDEST PUSH1 0x40 MLOAD PUSH3 0x461BCD PUSH1 0xE5 SHL DUP2 MSTORE PUSH1 0x20 PUSH1 0x4 DUP3 ADD MSTORE PUSH1 0x12 PUSH1 0x24 DUP3 ADD MSTORE PUSH18 0x496E76616C6964206C697175696469747925 PUSH1 0x70 SHL PUSH1 0x44 DUP3 ADD MSTORE PUSH1 0x64 SWAP1 REVERT JUMPDEST POP PUSH1 0x64 DUP12 GT ISZERO PUSH3 0x145 JUMP JUMPDEST PUSH1 0x40 MLOAD PUSH3 0x461BCD PUSH1 0xE5 SHL DUP2 MSTORE PUSH1 0x20 PUSH1 0x4 DUP3 ADD MSTORE PUSH1 0x15 PUSH1 0x24 DUP3 ADD MSTORE PUSH32 0x456E642074696D65206265666F72652073746172740000000000000000000000 PUSH1 0x44 DUP3 ADD MSTORE PUSH1 0x64 SWAP1 REVERT JUMPDEST PUSH1 0x40 MLOAD PUSH3 0x461BCD PUSH1 0xE5 SHL DUP2 MSTORE PUSH1 0x20 PUSH1 0x4 DUP3 ADD MSTORE PUSH1 0x12 PUSH1 0x24 DUP3 ADD MSTORE PUSH18 0x14DD185C9D081D1A5B59481A5B881C185CDD PUSH1 0x72 SHL PUSH1 0x44 DUP3 ADD MSTORE PUSH1 0x64 SWAP1 REVERT JUMPDEST PUSH1 0x40 MLOAD PUSH3 0x461BCD PUSH1 0xE5 SHL DUP2 MSTORE PUSH1 0x20 PUSH1 0x4 DUP3 ADD MSTORE PUSH1 0xC PUSH1 0x24 DUP3 ADD MSTORE PUSH12 0x496E76616C69642063617073 PUSH1 0xA0 SHL PUSH1 0x44 DUP3 ADD MSTORE PUSH1 0x64 SWAP1 REVERT JUMPDEST POP DUP1 DUP9 GT ISZERO PUSH3 0x121 JUMP JUMPDEST PUSH1 0x40 MLOAD PUSH3 0x461BCD PUSH1 0xE5 SHL DUP2 MSTORE PUSH1 0x20 PUSH1 0x4 DUP3 ADD MSTORE PUSH1 0xE PUSH1 0x24 DUP3 ADD MSTORE PUSH14 0x24B73B30B634B2103937BABA32B9 PUSH1 0x91 SHL PUSH1 0x44 DUP3 ADD MSTORE PUSH1 0x64 SWAP1 REVERT JUMPDEST PUSH3 0x461BCD PUSH1 0xE5 SHL DUP2 MSTORE PUSH1 0x20 PUSH1 0x4 DUP3 ADD MSTORE PUSH1 0xD PUSH1 0x24 DUP3 ADD MSTORE PUSH13 0x24B73B30B634B2103A37B5B2B7 PUSH1 0x99 SHL PUSH1 0x44 DUP3 ADD MSTORE PUSH1 0x64 SWAP1 REVERT JUMPDEST PUSH1 0x40 MLOAD PUSH4 0x1E4FBDF7 PUSH1 0xE0 SHL DUP2 MSTORE PUSH1 0x0 PUSH1 0x4 DUP3 ADD MSTORE PUSH1 0x24 SWAP1 REVERT JUMPDEST PUSH1 0x0 DUP1 REVERT JUMPDEST PUSH4 0x4E487B71 PUSH1 0xE0 SHL PUSH1 0x0 MSTORE PUSH1 0x41 PUSH1 0x4 MSTORE PUSH1 0x24 PUSH1 0x0 REVERT JUMPDEST PUSH1 0x40 MLOAD SWAP1 PUSH1 0x60 DUP3 ADD PUSH1 0x1 PUSH1 0x1 PUSH1 0x40 SHL SUB DUP2 GT DUP4 DUP3 LT OR PUSH3 0x50B JUMPI PUSH1 0x40 MSTORE JUMP JUMPDEST MLOAD SWAP1 PUSH1 0x1 PUSH1 0x1 PUSH1 0xA0 SHL SUB DUP3 AND DUP3 SUB PUSH3 0x506 JUMPI JUMP INVALID PUSH1 0x80 DUP1 PUSH1 0x40 MSTORE PUSH1 0x4 CALLDATASIZE LT ISZERO PUSH2 0x13 JUMPI PUSH1 0x0 DUP1 REVERT JUMPDEST PUSH1 0x0 CALLDATALOAD PUSH1 0xE0 SHR SWAP1 DUP2 PUSH4 0x8ED299C EQ PUSH2 0x183A JUMPI POP DUP1 PUSH4 0x1865C57D EQ PUSH2 0x180E JUMPI DUP1 PUSH4 0x21C7557C EQ PUSH2 0x17CD JUMPI DUP1 PUSH4 0x3197CBB6 EQ PUSH2 0x1792 JUMPI DUP1 PUSH4 0x3A6089CF EQ PUSH2 0x175E JUMPI DUP1 PUSH4 0x3C0847F5 EQ PUSH2 0x1742 JUMPI DUP1 PUSH4 0x42E94C90 EQ PUSH2 0x1704 JUMPI DUP1 PUSH4 0x42F39381 EQ PUSH2 0x16C9 JUMPI DUP1 PUSH4 0x48C54B9D EQ PUSH2 0x135D JUMPI DUP1 PUSH4 0x4BB278F3 EQ PUSH2 0xCF6 JUMPI DUP1 PUSH4 0x5FB2266B EQ PUSH2 0xCBB JUMPI DUP1 PUSH4 0x6A03EAF9 EQ PUSH2 0xC9D JUMPI DUP1 PUSH4 0x715018A6 EQ PUSH2 0xC44 JUMPI DUP1 PUSH4 0x78E97925 EQ PUSH2 0xC09 JUMPI DUP1 PUSH4 0x7C396EFA EQ PUSH2 0xBED JUMPI DUP1 PUSH4 0x8DA5CB5B EQ PUSH2 0xBC4 JUMPI DUP1 PUSH4 0x906A26E0 EQ PUSH2 0xB89 JUMPI DUP1 PUSH4 0x9A46E412 EQ PUSH2 0xB6D JUMPI DUP1 PUSH4 0xA20ECBBB EQ PUSH2 0xB32 JUMPI DUP1 PUSH4 0xB0683755 EQ PUSH2 0xAF7 JUMPI DUP1 PUSH4 0xB1D0AF70 EQ PUSH2 0xAB9 JUMPI DUP1 PUSH4 0xB3F05B97 EQ PUSH2 0xA96 JUMPI DUP1 PUSH4 0xB5545A3C EQ PUSH2 0x97F JUMPI DUP1 PUSH4 0xBCC23E6C EQ PUSH2 0x963 JUMPI DUP1 PUSH4 0xC5C4744C EQ PUSH2 0x945 JUMPI DUP1 PUSH4 0xC7D01231 EQ PUSH2 0x929 JUMPI DUP1 PUSH4 0xC8BDBFB6 EQ PUSH2 0x7E9 JUMPI DUP1 PUSH4 0xCDFE4BE8 EQ PUSH2 0x364 JUMPI DUP1 PUSH4 0xE3D3F843 EQ PUSH2 0x348 JUMPI DUP1 PUSH4 0xE6C45D4A EQ PUSH2 0x2EF JUMPI DUP1 PUSH4 0xF2FDE38B EQ PUSH2 0x25F JUMPI DUP1 PUSH4 0xF887EA40 EQ PUSH2 0x21A JUMPI DUP1 PUSH4 0xFB86A404 EQ PUSH2 0x1DF JUMPI PUSH4 0xFC0C546A EQ PUSH2 0x195 JUMPI PUSH1 0x0 DUP1 REVERT JUMPDEST CALLVALUE PUSH2 0x1DA JUMPI PUSH1 0x0 CALLDATASIZE PUSH1 0x3 NOT ADD SLT PUSH2 0x1DA JUMPI PUSH1 0x40 MLOAD PUSH32 0x0 PUSH1 0x1 PUSH1 0x1 PUSH1 0xA0 SHL SUB AND DUP2 MSTORE PUSH1 0x20 SWAP1 RETURN JUMPDEST PUSH1 0x0 DUP1 REVERT JUMPDEST CALLVALUE PUSH2 0x1DA JUMPI PUSH1 0x0 CALLDATASIZE PUSH1 0x3 NOT ADD SLT PUSH2 0x1DA JUMPI PUSH1 0x20 PUSH1 0x40 MLOAD PUSH32 0x0 DUP2 MSTORE RETURN JUMPDEST CALLVALUE PUSH2 0x1DA JUMPI PUSH1 0x0 CALLDATASIZE PUSH1 0x3 NOT ADD SLT PUSH2 0x1DA JUMPI PUSH1 0x40 MLOAD PUSH32 0x0 PUSH1 0x1 PUSH1 0x1 PUSH1 0xA0 SHL SUB AND DUP2 MSTORE PUSH1 0x20 SWAP1 RETURN JUMPDEST CALLVALUE PUSH2 0x1DA JUMPI PUSH1 0x20 CALLDATASIZE PUSH1 0x3 NOT ADD SLT PUSH2 0x1DA JUMPI PUSH1 0x4 CALLDATALOAD PUSH1 0x1 PUSH1 0x1 PUSH1 0xA0 SHL SUB DUP2 DUP2 AND SWAP2 DUP3 SWAP1 SUB PUSH2 0x1DA JUMPI PUSH2 0x28E PUSH2 0x187A JUMP JUMPDEST DUP2 ISZERO PUSH2 0x2D6 JUMPI PUSH1 0x0 SLOAD DUP3 PUSH12 0xFFFFFFFFFFFFFFFFFFFFFFFF PUSH1 0xA0 SHL DUP3 AND OR PUSH1 0x0 SSTORE AND PUSH32 0x8BE0079C531659141344CD1FD0A4F28419497F9722A3DAAFE3B4186F6B6457E0 PUSH1 0x0 DUP1 LOG3 STOP JUMPDEST PUSH1 0x40 MLOAD PUSH4 0x1E4FBDF7 PUSH1 0xE0 SHL DUP2 MSTORE PUSH1 0x0 PUSH1 0x4 DUP3 ADD MSTORE PUSH1 0x24 SWAP1 REVERT JUMPDEST CALLVALUE PUSH2 0x1DA JUMPI PUSH1 0x20 CALLDATASIZE PUSH1 0x3 NOT ADD SLT PUSH2 0x1DA JUMPI PUSH1 0xFF PUSH2 0x30A PUSH2 0x186A JUMP JUMPDEST AND PUSH1 0x0 MSTORE PUSH1 0x2 PUSH1 0x20 MSTORE PUSH1 0x40 PUSH1 0x0 KECCAK256 DUP1 SLOAD PUSH2 0x344 PUSH1 0x2 PUSH1 0x1 DUP5 ADD SLOAD SWAP4 ADD SLOAD PUSH1 0x40 MLOAD SWAP4 DUP5 SWAP4 DUP5 PUSH1 0x40 SWAP2 SWAP5 SWAP4 SWAP3 PUSH1 0x60 DUP3 ADD SWAP6 DUP3 MSTORE PUSH1 0x20 DUP3 ADD MSTORE ADD MSTORE JUMP JUMPDEST SUB SWAP1 RETURN JUMPDEST CALLVALUE PUSH2 0x1DA JUMPI PUSH1 0x0 CALLDATASIZE PUSH1 0x3 NOT ADD SLT PUSH2 0x1DA JUMPI PUSH1 0x20 PUSH1 0x40 MLOAD PUSH1 0x3 DUP2 MSTORE RETURN JUMPDEST PUSH1 0x60 CALLDATASIZE PUSH1 0x3 NOT ADD SLT PUSH2 0x1DA JUMPI PUSH1 0x4 CALLDATALOAD PUSH8 0xFFFFFFFFFFFFFFFF DUP1 DUP3 GT PUSH2 0x1DA JUMPI CALLDATASIZE PUSH1 0x23 DUP4 ADD SLT ISZERO PUSH2 0x1DA JUMPI DUP2 PUSH1 0x4 ADD CALLDATALOAD SWAP2 DUP2 DUP4 GT PUSH2 0x1DA JUMPI PUSH1 0x5 DUP4 DUP2 SHL SWAP3 PUSH1 0x24 SWAP3 DUP4 DUP6 DUP3 ADD ADD SWAP6 CALLDATASIZE DUP8 GT PUSH2 0x1DA JUMPI DUP5 CALLDATALOAD SWAP4 PUSH1 0xFF DUP6 AND SWAP7 DUP8 DUP7 SUB PUSH2 0x1DA JUMPI PUSH2 0x3C8 PUSH2 0x196C JUMP JUMPDEST PUSH2 0x3D0 PUSH2 0x18A6 JUMP JUMPDEST SWAP9 PUSH1 0x4 DUP11 LT ISZERO PUSH2 0x7D4 JUMPI PUSH1 0x1 DUP1 SWAP11 SUB PUSH2 0x79D JUMPI CALLVALUE ISZERO PUSH2 0x764 JUMPI PUSH32 0x0 PUSH2 0x258 DUP2 ADD DUP1 SWAP2 GT PUSH2 0x74F JUMPI TIMESTAMP LT PUSH2 0x6F8 JUMPI JUMPDEST PUSH1 0x0 SLOAD PUSH1 0x1 PUSH1 0x1 PUSH1 0xA0 SHL SUB AND CALLER SUB PUSH2 0x57D JUMPI JUMPDEST POP POP POP POP POP POP POP CALLER PUSH1 0x0 MSTORE PUSH1 0x20 SWAP1 PUSH1 0x9 DUP3 MSTORE PUSH1 0x44 CALLDATALOAD PUSH2 0x454 CALLVALUE PUSH1 0x40 PUSH1 0x0 KECCAK256 SLOAD PUSH2 0x193D JUMP JUMPDEST GT PUSH2 0x541 JUMPI CALLER PUSH1 0x0 MSTORE PUSH1 0x3 DUP3 MSTORE DUP3 PUSH1 0x40 PUSH1 0x0 KECCAK256 DUP1 SLOAD PUSH1 0xFF DUP2 AND ISZERO ISZERO PUSH1 0x0 EQ PUSH2 0x532 JUMPI POP SLOAD PUSH1 0xFF AND SUB PUSH2 0x4FA JUMPI POP JUMPDEST CALLER PUSH1 0x0 MSTORE PUSH1 0x9 DUP2 MSTORE PUSH1 0x40 PUSH1 0x0 KECCAK256 PUSH2 0x49A CALLVALUE DUP3 SLOAD PUSH2 0x193D JUMP JUMPDEST SWAP1 SSTORE PUSH2 0x4A8 CALLVALUE PUSH1 0x6 SLOAD PUSH2 0x193D JUMP JUMPDEST PUSH1 0x6 SSTORE DUP2 PUSH1 0x0 MSTORE PUSH1 0x4 DUP2 MSTORE PUSH1 0x40 PUSH1 0x0 KECCAK256 PUSH2 0x4C3 CALLVALUE DUP3 SLOAD PUSH2 0x193D JUMP JUMPDEST SWAP1 SSTORE PUSH1 0x40 MLOAD SWAP2 DUP3 MSTORE CALLVALUE SWAP1 DUP3 ADD MSTORE PUSH32 0x6202E363B9B07BD49964490F5CD955AF47C94FFFC29054855E24D451A753851A PUSH1 0x40 CALLER SWAP3 LOG2 DUP1 SSTORE STOP JUMPDEST SWAP1 PUSH1 0x12 PUSH1 0x64 SWAP3 PUSH1 0x40 MLOAD SWAP3 PUSH3 0x461BCD PUSH1 0xE5 SHL DUP5 MSTORE PUSH1 0x4 DUP5 ADD MSTORE DUP3 ADD MSTORE PUSH18 0x21B0B73737BA1031B430B733B2903A34B2B9 PUSH1 0x71 SHL PUSH1 0x44 DUP3 ADD MSTORE REVERT JUMPDEST SWAP1 SWAP3 POP PUSH1 0xFF NOT AND OR SWAP1 SSTORE PUSH2 0x482 JUMP JUMPDEST SWAP1 PUSH1 0x16 PUSH1 0x64 SWAP3 PUSH1 0x40 MLOAD SWAP3 PUSH3 0x461BCD PUSH1 0xE5 SHL DUP5 MSTORE PUSH1 0x4 DUP5 ADD MSTORE DUP3 ADD MSTORE PUSH22 0x22BC31B2B2B2399036B0BC1030B63637B1B0BA34B7B7 PUSH1 0x51 SHL PUSH1 0x44 DUP3 ADD MSTORE REVERT JUMPDEST PUSH1 0x40 MLOAD SWAP4 PUSH1 0x20 SWAP8 DUP9 DUP7 ADD SWAP1 CALLER PUSH1 0x60 SHL DUP3 MSTORE PUSH1 0xFF PUSH1 0xF8 SHL SWAP1 PUSH1 0xF8 SHL AND PUSH1 0x34 DUP8 ADD MSTORE PUSH1 0x44 CALLDATALOAD PUSH1 0x35 DUP8 ADD MSTORE PUSH1 0x35 DUP7 MSTORE PUSH1 0x60 DUP7 ADD SWAP8 DUP7 DUP10 LT SWAP1 DUP10 GT OR PUSH2 0x6E3 JUMPI SWAP1 PUSH2 0x5D5 DUP10 DUP14 SWAP9 SWAP8 SWAP7 SWAP6 SWAP5 SWAP4 DUP11 PUSH1 0x40 MSTORE DUP8 MLOAD SWAP1 KECCAK256 SWAP5 ADD DUP10 PUSH2 0x194A JUMP JUMPDEST DUP8 MSTORE PUSH1 0x80 SWAP5 DUP10 ADD DUP9 DUP6 DUP8 ADD JUMPDEST DUP4 DUP4 LT PUSH2 0x6D0 JUMPI POP POP POP POP SWAP5 PUSH1 0x0 SWAP5 JUMPDEST PUSH2 0x665 JUMPI JUMPDEST POP POP POP POP POP PUSH32 0x0 SUB PUSH2 0x62C JUMPI DUP1 DUP1 DUP1 DUP1 DUP1 DUP1 PUSH2 0x430 JUMP JUMPDEST PUSH1 0x14 PUSH1 0x64 SWAP3 PUSH1 0x40 MLOAD SWAP3 PUSH3 0x461BCD PUSH1 0xE5 SHL DUP5 MSTORE PUSH1 0x4 DUP5 ADD MSTORE DUP3 ADD MSTORE PUSH20 0x24B73B30B634B21026B2B935B63290283937B7B3 PUSH1 0x61 SHL PUSH1 0x44 DUP3 ADD MSTORE REVERT JUMPDEST SWAP1 SWAP2 SWAP3 SWAP4 SWAP5 DUP2 MLOAD DUP7 LT ISZERO PUSH2 0x6CA JUMPI DUP6 DUP4 SHL DUP5 ADD DUP6 ADD MLOAD SWAP1 DUP2 DUP2 LT ISZERO PUSH2 0x6BA JUMPI PUSH1 0x0 MSTORE DUP7 MSTORE PUSH1 0x40 PUSH1 0x0 KECCAK256 JUMPDEST SWAP5 PUSH1 0x0 NOT DUP2 EQ PUSH2 0x6A5 JUMPI DUP10 ADD SWAP4 SWAP3 SWAP2 SWAP1 DUP10 PUSH2 0x5F1 JUMP JUMPDEST DUP8 PUSH4 0x4E487B71 PUSH1 0xE0 SHL PUSH1 0x0 MSTORE PUSH1 0x11 PUSH1 0x4 MSTORE PUSH1 0x0 REVERT JUMPDEST SWAP1 PUSH1 0x0 MSTORE DUP7 MSTORE PUSH1 0x40 PUSH1 0x0 KECCAK256 PUSH2 0x68F JUMP JUMPDEST SWAP5 PUSH2 0x5F6 JUMP JUMPDEST DUP3 CALLDATALOAD DUP2 MSTORE DUP14 SWAP9 POP SWAP2 DUP2 ADD SWAP2 DUP11 SWAP2 ADD PUSH2 0x5E1 JUMP JUMPDEST DUP10 PUSH4 0x4E487B71 PUSH1 0xE0 SHL PUSH1 0x0 MSTORE PUSH1 0x41 PUSH1 0x4 MSTORE PUSH1 0x0 REVERT JUMPDEST PUSH1 0x2 DUP10 LT ISZERO PUSH2 0x41D JUMPI PUSH1 0x40 MLOAD PUSH3 0x461BCD PUSH1 0xE5 SHL DUP2 MSTORE PUSH1 0x20 PUSH1 0x4 DUP3 ADD MSTORE PUSH1 0x21 DUP2 DUP11 ADD MSTORE PUSH32 0x5072696F726974792057696E646F773A2053696C7665722F476F6C64204F6E6C PUSH1 0x44 DUP3 ADD MSTORE PUSH1 0x79 PUSH1 0xF8 SHL PUSH1 0x64 DUP3 ADD MSTORE PUSH1 0x84 SWAP1 REVERT JUMPDEST DUP9 PUSH4 0x4E487B71 PUSH1 0xE0 SHL PUSH1 0x0 MSTORE PUSH1 0x11 PUSH1 0x4 MSTORE PUSH1 0x0 REVERT JUMPDEST PUSH1 0x40 MLOAD PUSH3 0x461BCD PUSH1 0xE5 SHL DUP2 MSTORE PUSH1 0x20 PUSH1 0x4 DUP3 ADD MSTORE PUSH1 0x12 DUP2 DUP11 ADD MSTORE PUSH18 0x416D6F756E74206D757374206265203E203 PUSH1 0x74 SHL PUSH1 0x44 DUP3 ADD MSTORE PUSH1 0x64 SWAP1 REVERT JUMPDEST PUSH1 0x40 MLOAD PUSH3 0x461BCD PUSH1 0xE5 SHL DUP2 MSTORE PUSH1 0x20 PUSH1 0x4 DUP3 ADD MSTORE PUSH1 0x10 DUP2 DUP11 ADD MSTORE PUSH16 0x50726573616C65206E6F74206C697665 PUSH1 0x80 SHL PUSH1 0x44 DUP3 ADD MSTORE PUSH1 0x64 SWAP1 REVERT JUMPDEST DUP8 PUSH4 0x4E487B71 PUSH1 0xE0 SHL PUSH1 0x0 MSTORE PUSH1 0x21 PUSH1 0x4 MSTORE PUSH1 0x0 REVERT JUMPDEST CALLVALUE PUSH2 0x1DA JUMPI PUSH1 0x0 CALLDATASIZE PUSH1 0x3 NOT ADD SLT PUSH2 0x1DA JUMPI PUSH2 0x802 PUSH2 0x187A JUMP JUMPDEST PUSH1 0xFF PUSH1 0x7 SLOAD AND DUP1 PUSH2 0x8EC JUMPI JUMPDEST ISZERO PUSH2 0x8BB JUMPI PUSH1 0x40 MLOAD PUSH4 0x70A08231 PUSH1 0xE0 SHL DUP2 MSTORE ADDRESS PUSH1 0x4 DUP3 ADD MSTORE PUSH1 0x1 PUSH1 0x1 PUSH1 0xA0 SHL SUB PUSH32 0x0 PUSH1 0x20 DUP4 PUSH1 0x24 DUP2 DUP6 DUP6 AND GAS STATICCALL SWAP2 DUP3 ISZERO PUSH2 0x8AF JUMPI PUSH1 0x0 SWAP3 PUSH2 0x87A JUMPI JUMPDEST PUSH2 0x878 SWAP4 POP PUSH1 0x0 SLOAD AND SWAP1 PUSH2 0x1A2B JUMP JUMPDEST STOP JUMPDEST SWAP2 POP PUSH1 0x20 DUP4 RETURNDATASIZE DUP3 GT PUSH2 0x8A7 JUMPI JUMPDEST DUP2 PUSH2 0x894 PUSH1 0x20 SWAP4 DUP4 PUSH2 0x194A JUMP JUMPDEST DUP2 ADD SUB SLT PUSH2 0x1DA JUMPI PUSH2 0x878 SWAP3 MLOAD SWAP2 PUSH2 0x869 JUMP JUMPDEST RETURNDATASIZE SWAP2 POP PUSH2 0x887 JUMP JUMPDEST PUSH1 0x40 MLOAD RETURNDATASIZE PUSH1 0x0 DUP3 RETURNDATACOPY RETURNDATASIZE SWAP1 REVERT JUMPDEST PUSH1 0x40 MLOAD PUSH3 0x461BCD PUSH1 0xE5 SHL DUP2 MSTORE PUSH1 0x20 PUSH1 0x4 DUP3 ADD MSTORE PUSH1 0x9 PUSH1 0x24 DUP3 ADD MSTORE PUSH9 0x546F6F206561726C79 PUSH1 0xB8 SHL PUSH1 0x44 DUP3 ADD MSTORE PUSH1 0x64 SWAP1 REVERT JUMPDEST POP PUSH1 0x8 SLOAD PUSH4 0x1E13380 DUP2 ADD SWAP1 DUP2 DUP2 GT PUSH2 0x913 JUMPI PUSH4 0x208C080 ADD DUP1 SWAP2 GT PUSH2 0x913 JUMPI TIMESTAMP GT PUSH2 0x80E JUMP JUMPDEST PUSH4 0x4E487B71 PUSH1 0xE0 SHL PUSH1 0x0 MSTORE PUSH1 0x11 PUSH1 0x4 MSTORE PUSH1 0x24 PUSH1 0x0 REVERT JUMPDEST CALLVALUE PUSH2 0x1DA JUMPI PUSH1 0x0 CALLDATASIZE PUSH1 0x3 NOT ADD SLT PUSH2 0x1DA JUMPI PUSH1 0x20 PUSH1 0x40 MLOAD PUSH1 0x14 DUP2 MSTORE RETURN JUMPDEST CALLVALUE PUSH2 0x1DA JUMPI PUSH1 0x0 CALLDATASIZE PUSH1 0x3 NOT ADD SLT PUSH2 0x1DA JUMPI PUSH1 0x20 PUSH1 0x6 SLOAD PUSH1 0x40 MLOAD SWAP1 DUP2 MSTORE RETURN JUMPDEST CALLVALUE PUSH2 0x1DA JUMPI PUSH1 0x0 CALLDATASIZE PUSH1 0x3 NOT ADD SLT PUSH2 0x1DA JUMPI PUSH1 0x20 PUSH1 0x40 MLOAD PUSH1 0x1E DUP2 MSTORE RETURN JUMPDEST CALLVALUE PUSH2 0x1DA JUMPI PUSH1 0x0 CALLDATASIZE PUSH1 0x3 NOT ADD SLT PUSH2 0x1DA JUMPI PUSH2 0x998 PUSH2 0x196C JUMP JUMPDEST PUSH2 0x9A0 PUSH2 0x18A6 JUMP JUMPDEST PUSH1 0x4 DUP2 LT ISZERO PUSH2 0xA80 JUMPI PUSH1 0x3 SUB PUSH2 0xA4E JUMPI CALLER PUSH1 0x0 MSTORE PUSH1 0x9 PUSH1 0x20 MSTORE PUSH1 0x40 PUSH1 0x0 KECCAK256 SLOAD DUP1 ISZERO PUSH2 0xA15 JUMPI CALLER PUSH1 0x0 MSTORE PUSH1 0x9 PUSH1 0x20 MSTORE PUSH1 0x0 PUSH1 0x40 DUP2 KECCAK256 SSTORE PUSH1 0x0 DUP1 DUP1 DUP1 DUP5 CALLER DUP3 CALL ISZERO PUSH2 0x8AF JUMPI PUSH1 0x40 MLOAD SWAP1 DUP2 MSTORE PUSH32 0x358FE4192934D3BF28AE181FEDA1F4BD08CA67F5E2FAD55582CCE5EB67304AE9 PUSH1 0x20 CALLER SWAP3 LOG2 PUSH1 0x1 DUP1 SSTORE STOP JUMPDEST PUSH1 0x40 MLOAD PUSH3 0x461BCD PUSH1 0xE5 SHL DUP2 MSTORE PUSH1 0x20 PUSH1 0x4 DUP3 ADD MSTORE PUSH1 0x11 PUSH1 0x24 DUP3 ADD MSTORE PUSH17 0x139BDD1A1A5B99C81D1BC81C99599D5B99 PUSH1 0x7A SHL PUSH1 0x44 DUP3 ADD MSTORE PUSH1 0x64 SWAP1 REVERT JUMPDEST PUSH1 0x40 MLOAD PUSH3 0x461BCD PUSH1 0xE5 SHL DUP2 MSTORE PUSH1 0x20 PUSH1 0x4 DUP3 ADD MSTORE PUSH1 0xA PUSH1 0x24 DUP3 ADD MSTORE PUSH10 0x139BDD0819985A5B1959 PUSH1 0xB2 SHL PUSH1 0x44 DUP3 ADD MSTORE PUSH1 0x64 SWAP1 REVERT JUMPDEST PUSH4 0x4E487B71 PUSH1 0xE0 SHL PUSH1 0x0 MSTORE PUSH1 0x21 PUSH1 0x4 MSTORE PUSH1 0x24 PUSH1 0x0 REVERT JUMPDEST CALLVALUE PUSH2 0x1DA JUMPI PUSH1 0x0 CALLDATASIZE PUSH1 0x3 NOT ADD SLT PUSH2 0x1DA JUMPI PUSH1 0x20 PUSH1 0xFF PUSH1 0x7 SLOAD AND PUSH1 0x40 MLOAD SWAP1 ISZERO ISZERO DUP2 MSTORE RETURN JUMPDEST CALLVALUE PUSH2 0x1DA JUMPI PUSH1 0x20 CALLDATASIZE PUSH1 0x3 NOT ADD SLT PUSH2 0x1DA JUMPI PUSH1 0x4 CALLDATALOAD PUSH1 0x1 PUSH1 0x1 PUSH1 0xA0 SHL SUB DUP2 AND SWAP1 DUP2 SWAP1 SUB PUSH2 0x1DA JUMPI PUSH1 0x0 MSTORE PUSH1 0xA PUSH1 0x20 MSTORE PUSH1 0x20 PUSH1 0x40 PUSH1 0x0 KECCAK256 SLOAD PUSH1 0x40 MLOAD SWAP1 DUP2 MSTORE RETURN JUMPDEST CALLVALUE PUSH2 0x1DA JUMPI PUSH1 0x0 CALLDATASIZE PUSH1 0x3 NOT ADD SLT PUSH2 0x1DA JUMPI PUSH1 0x20 PUSH1 0x40 MLOAD PUSH32 0x0 DUP2 MSTORE RETURN JUMPDEST CALLVALUE PUSH2 0x1DA JUMPI PUSH1 0x0 CALLDATASIZE PUSH1 0x3 NOT ADD SLT PUSH2 0x1DA JUMPI PUSH1 0x20 PUSH1 0x40 MLOAD PUSH32 0x0 DUP2 MSTORE RETURN JUMPDEST CALLVALUE PUSH2 0x1DA JUMPI PUSH1 0x0 CALLDATASIZE PUSH1 0x3 NOT ADD SLT PUSH2 0x1DA JUMPI PUSH1 0x20 PUSH1 0x40 MLOAD PUSH1 0x2 DUP2 MSTORE RETURN JUMPDEST CALLVALUE PUSH2 0x1DA JUMPI PUSH1 0x0 CALLDATASIZE PUSH1 0x3 NOT ADD SLT PUSH2 0x1DA JUMPI PUSH1 0x20 PUSH1 0x40 MLOAD PUSH32 0x0 DUP2 MSTORE RETURN JUMPDEST CALLVALUE PUSH2 0x1DA JUMPI PUSH1 0x0 CALLDATASIZE PUSH1 0x3 NOT ADD SLT PUSH2 0x1DA JUMPI PUSH1 0x0 SLOAD PUSH1 0x40 MLOAD PUSH1 0x1 PUSH1 0x1 PUSH1 0xA0 SHL SUB SWAP1 SWAP2 AND DUP2 MSTORE PUSH1 0x20 SWAP1 RETURN JUMPDEST CALLVALUE PUSH2 0x1DA JUMPI PUSH1 0x0 CALLDATASIZE PUSH1 0x3 NOT ADD SLT PUSH2 0x1DA JUMPI PUSH1 0x20 PUSH1 0x40 MLOAD PUSH1 0x32 DUP2 MSTORE RETURN JUMPDEST CALLVALUE PUSH2 0x1DA JUMPI PUSH1 0x0 CALLDATASIZE PUSH1 0x3 NOT ADD SLT PUSH2 0x1DA JUMPI PUSH1 0x20 PUSH1 0x40 MLOAD PUSH32 0x0 DUP2 MSTORE RETURN JUMPDEST CALLVALUE PUSH2 0x1DA JUMPI PUSH1 0x0 CALLDATASIZE PUSH1 0x3 NOT ADD SLT PUSH2 0x1DA JUMPI PUSH2 0xC5D PUSH2 0x187A JUMP JUMPDEST PUSH1 0x0 DUP1 SLOAD PUSH1 0x1 PUSH1 0x1 PUSH1 0xA0 SHL SUB NOT DUP2 AND DUP3 SSTORE PUSH1 0x1 PUSH1 0x1 PUSH1 0xA0 SHL SUB AND PUSH32 0x8BE0079C531659141344CD1FD0A4F28419497F9722A3DAAFE3B4186F6B6457E0 DUP3 DUP1 LOG3 STOP JUMPDEST CALLVALUE PUSH2 0x1DA JUMPI PUSH1 0x0 CALLDATASIZE PUSH1 0x3 NOT ADD SLT PUSH2 0x1DA JUMPI PUSH1 0x20 PUSH1 0x8 SLOAD PUSH1 0x40 MLOAD SWAP1 DUP2 MSTORE RETURN JUMPDEST CALLVALUE PUSH2 0x1DA JUMPI PUSH1 0x0 CALLDATASIZE PUSH1 0x3 NOT ADD SLT PUSH2 0x1DA JUMPI PUSH1 0x20 PUSH1 0x40 MLOAD PUSH32 0x0 DUP2 MSTORE RETURN JUMPDEST CALLVALUE PUSH2 0x1DA JUMPI PUSH1 0x0 CALLDATASIZE PUSH1 0x3 NOT ADD SLT PUSH2 0x1DA JUMPI PUSH2 0xD0F PUSH2 0x196C JUMP JUMPDEST PUSH2 0xD17 PUSH2 0x18A6 JUMP JUMPDEST PUSH1 0x4 DUP2 LT ISZERO PUSH2 0xA80 JUMPI PUSH1 0x2 EQ DUP1 ISZERO PUSH2 0x1307 JUMPI JUMPDEST ISZERO PUSH2 0x12D0 JUMPI PUSH1 0x7 SLOAD PUSH1 0xFF DUP2 AND PUSH2 0x1297 JUMPI PUSH1 0xFF NOT AND PUSH1 0x1 OR PUSH1 0x7 SSTORE TIMESTAMP PUSH1 0x8 SSTORE PUSH1 0x6 SLOAD PUSH32 0x0 SWAP1 DUP2 DUP2 GT ISZERO PUSH2 0x1290 JUMPI POP JUMPDEST PUSH32 0x0 PUSH2 0xDA2 DUP2 DUP4 PUSH2 0x198F JUMP JUMPDEST SWAP1 PUSH1 0x14 DUP3 MUL SWAP1 DUP3 ISZERO SWAP2 DUP4 DUP2 DIV PUSH1 0x14 EQ DUP4 OR ISZERO PUSH2 0x913 JUMPI PUSH1 0x64 SWAP1 DIV PUSH1 0x1E DUP5 MUL SWAP3 DUP5 DUP5 DIV PUSH1 0x1E EQ OR ISZERO PUSH2 0x913 JUMPI DUP1 PUSH2 0xDE9 PUSH1 0x40 SWAP6 PUSH2 0xDE4 PUSH1 0x64 DUP9 SWAP8 DIV SWAP4 DUP5 SWAP3 PUSH2 0x19C2 JUMP JUMPDEST PUSH2 0x19C2 JUMP JUMPDEST SWAP3 PUSH1 0x3 PUSH1 0x0 MSTORE PUSH1 0x4 PUSH1 0x20 MSTORE PUSH2 0xE1A PUSH2 0xE05 DUP3 DUP8 PUSH1 0x0 KECCAK256 SLOAD PUSH2 0x198F JUMP JUMPDEST SWAP2 PUSH1 0x2 PUSH1 0x0 MSTORE PUSH1 0x4 PUSH1 0x20 MSTORE DUP7 PUSH1 0x0 KECCAK256 SLOAD PUSH2 0x198F JUMP JUMPDEST SWAP1 DUP4 DUP2 LT PUSH2 0x127A JUMPI JUMPDEST POP SWAP1 DUP5 SWAP2 PUSH1 0x3 PUSH1 0x0 MSTORE PUSH1 0x5 PUSH1 0x20 MSTORE DUP4 DUP4 PUSH1 0x0 KECCAK256 SSTORE DUP2 DUP2 LT PUSH2 0x125F JUMPI JUMPDEST POP PUSH1 0x2 PUSH1 0x0 MSTORE PUSH1 0x5 PUSH1 0x20 MSTORE DUP1 DUP3 PUSH1 0x0 KECCAK256 SSTORE PUSH1 0x1 PUSH1 0x0 MSTORE DUP4 DUP3 PUSH1 0x0 KECCAK256 SSTORE DUP2 MLOAD SWAP3 PUSH1 0x3 DUP5 MSTORE PUSH1 0x20 DUP5 ADD MSTORE PUSH32 0xE9C096F207492E79C93FFB021D220C180B64C8A54EB958748EFACC2B7A38D84F DUP1 SWAP7 DUP2 SWAP5 LOG1 DUP2 MLOAD SWAP1 PUSH1 0x2 DUP3 MSTORE PUSH1 0x20 DUP3 ADD MSTORE LOG1 DUP2 MLOAD SWAP1 PUSH1 0x1 DUP3 MSTORE PUSH1 0x20 DUP3 ADD MSTORE LOG1 PUSH1 0x64 PUSH2 0xED3 PUSH32 0x0 DUP4 PUSH2 0x198F JUMP JUMPDEST DIV PUSH2 0xEFE PUSH32 0x0 DUP3 PUSH2 0x198F JUMP JUMPDEST PUSH1 0x40 MLOAD PUSH4 0x95EA7B3 PUSH1 0xE0 SHL PUSH1 0x20 DUP1 DUP4 ADD SWAP2 DUP3 MSTORE PUSH1 0x1 PUSH1 0x1 PUSH1 0xA0 SHL SUB PUSH32 0x0 AND PUSH1 0x24 DUP5 ADD MSTORE PUSH1 0x44 DUP1 DUP5 ADD DUP6 SWAP1 MSTORE DUP4 MSTORE SWAP1 PUSH1 0x0 SWAP1 PUSH2 0xF59 PUSH1 0x64 DUP6 PUSH2 0x194A JUMP JUMPDEST DUP4 MLOAD SWAP1 DUP3 PUSH32 0x0 GAS CALL PUSH1 0x0 MLOAD RETURNDATASIZE DUP3 PUSH2 0x121A JUMPI JUMPDEST POP POP ISZERO PUSH2 0x1143 JUMPI JUMPDEST POP PUSH1 0x0 SLOAD PUSH1 0x1 PUSH1 0x1 PUSH1 0xA0 SHL SUB AND TIMESTAMP PUSH2 0x258 DUP2 ADD SWAP1 DUP2 LT PUSH2 0x913 JUMPI PUSH1 0x40 MLOAD SWAP2 PUSH4 0xF305D719 PUSH1 0xE0 SHL DUP4 MSTORE PUSH1 0x1 DUP1 PUSH1 0xA0 SHL SUB PUSH32 0x0 AND PUSH1 0x4 DUP5 ADD MSTORE DUP4 PUSH1 0x24 DUP5 ADD MSTORE PUSH1 0x0 PUSH1 0x44 DUP5 ADD MSTORE PUSH1 0x0 PUSH1 0x64 DUP5 ADD MSTORE PUSH1 0x84 DUP4 ADD MSTORE PUSH1 0xA4 DUP3 ADD MSTORE PUSH1 0x60 DUP2 PUSH1 0xC4 DUP2 DUP7 PUSH1 0x1 DUP1 PUSH1 0xA0 SHL SUB PUSH32 0x0 AND GAS CALL SWAP1 DUP2 PUSH2 0x1118 JUMPI JUMPDEST POP PUSH2 0x10D7 JUMPI POP PUSH1 0x0 DUP1 DUP1 DUP1 SWAP4 PUSH1 0x1 DUP1 PUSH1 0xA0 SHL SUB DUP3 SLOAD AND DUP3 DUP3 ISZERO PUSH2 0x10CE JUMPI JUMPDEST CALL ISZERO PUSH2 0x8AF JUMPI JUMPDEST PUSH32 0x0 PUSH1 0x64 SUB SWAP1 PUSH1 0x64 DUP3 GT PUSH2 0x913 JUMPI PUSH1 0x0 DUP1 PUSH1 0x64 PUSH2 0x10A2 DUP3 SWAP6 DUP4 SWAP6 PUSH2 0x198F JUMP JUMPDEST DUP3 SLOAD SWAP2 SWAP1 DIV SWAP1 PUSH1 0x1 PUSH1 0x1 PUSH1 0xA0 SHL SUB AND DUP3 DUP3 ISZERO PUSH2 0x10C5 JUMPI JUMPDEST CALL ISZERO PUSH2 0x8AF JUMPI PUSH1 0x1 DUP1 SSTORE STOP JUMPDEST POP PUSH2 0x8FC PUSH2 0x10B9 JUMP JUMPDEST POP PUSH2 0x8FC PUSH2 0x105D JUMP JUMPDEST PUSH1 0x6 SLOAD PUSH1 0x40 DUP1 MLOAD SWAP2 DUP3 MSTORE PUSH1 0x20 DUP3 ADD SWAP4 SWAP1 SWAP4 MSTORE SWAP2 DUP3 ADD MSTORE PUSH32 0xD4294F2E03DFA3F368C60AE6950D6E90C37101953B6AA279269459A9517F106E SWAP1 PUSH1 0x60 SWAP1 LOG1 PUSH2 0x1064 JUMP JUMPDEST PUSH1 0x60 SWAP1 DUP2 RETURNDATASIZE DUP2 GT PUSH2 0x113C JUMPI JUMPDEST PUSH2 0x112E DUP2 DUP4 PUSH2 0x194A JUMP JUMPDEST DUP2 ADD SUB SLT PUSH2 0x1DA JUMPI DUP5 PUSH2 0x103F JUMP JUMPDEST POP RETURNDATASIZE PUSH2 0x1124 JUMP JUMPDEST PUSH1 0x40 MLOAD PUSH4 0x95EA7B3 PUSH1 0xE0 SHL PUSH1 0x20 DUP3 ADD MSTORE PUSH32 0x0 PUSH1 0x1 PUSH1 0x1 PUSH1 0xA0 SHL SUB AND PUSH1 0x24 DUP3 ADD MSTORE PUSH1 0x0 PUSH1 0x44 DUP1 DUP4 ADD SWAP2 SWAP1 SWAP2 MSTORE DUP2 MSTORE SWAP1 PUSH1 0x80 DUP3 ADD PUSH8 0xFFFFFFFFFFFFFFFF DUP2 GT DUP4 DUP3 LT OR PUSH2 0x1204 JUMPI PUSH2 0x11FE SWAP3 PUSH2 0x11D8 SWAP2 PUSH1 0x40 MSTORE PUSH32 0x0 PUSH2 0x19CF JUMP JUMPDEST PUSH32 0x0 PUSH2 0x19CF JUMP JUMPDEST DUP4 PUSH2 0xF92 JUMP JUMPDEST PUSH4 0x4E487B71 PUSH1 0xE0 SHL PUSH1 0x0 MSTORE PUSH1 0x41 PUSH1 0x4 MSTORE PUSH1 0x24 PUSH1 0x0 REVERT JUMPDEST SWAP1 SWAP2 POP PUSH2 0x1257 JUMPI POP PUSH32 0x0 PUSH1 0x1 PUSH1 0x1 PUSH1 0xA0 SHL SUB AND EXTCODESIZE ISZERO ISZERO JUMPDEST DUP6 DUP1 PUSH2 0xF8A JUMP JUMPDEST PUSH1 0x1 EQ PUSH2 0x1250 JUMP JUMPDEST PUSH2 0x126C DUP2 PUSH2 0x1273 SWAP4 PUSH2 0x19C2 JUMP JUMPDEST SWAP1 SWAP5 PUSH2 0x193D JUMP JUMPDEST SWAP3 DUP8 PUSH2 0xE3F JUMP JUMPDEST DUP1 PUSH2 0x126C PUSH2 0x128A SWAP3 DUP9 SWAP6 SWAP7 PUSH2 0x19C2 JUMP JUMPDEST SWAP2 PUSH2 0xE23 JUMP JUMPDEST SWAP1 POP PUSH2 0xD77 JUMP JUMPDEST PUSH1 0x40 MLOAD PUSH3 0x461BCD PUSH1 0xE5 SHL DUP2 MSTORE PUSH1 0x20 PUSH1 0x4 DUP3 ADD MSTORE PUSH1 0x11 PUSH1 0x24 DUP3 ADD MSTORE PUSH17 0x105B1C9958591E48199A5B985B1A5E9959 PUSH1 0x7A SHL PUSH1 0x44 DUP3 ADD MSTORE PUSH1 0x64 SWAP1 REVERT JUMPDEST PUSH1 0x40 MLOAD PUSH3 0x461BCD PUSH1 0xE5 SHL DUP2 MSTORE PUSH1 0x20 PUSH1 0x4 DUP3 ADD MSTORE PUSH1 0xF PUSH1 0x24 DUP3 ADD MSTORE PUSH15 0x43616E6E6F742066696E616C697A65 PUSH1 0x88 SHL PUSH1 0x44 DUP3 ADD MSTORE PUSH1 0x64 SWAP1 REVERT JUMPDEST POP PUSH32 0x0 TIMESTAMP GT DUP1 ISZERO PUSH2 0xD2A JUMPI POP PUSH1 0x6 SLOAD PUSH32 0x0 GT ISZERO PUSH2 0xD2A JUMP JUMPDEST CALLVALUE PUSH2 0x1DA JUMPI PUSH1 0x0 CALLDATASIZE PUSH1 0x3 NOT ADD SLT PUSH2 0x1DA JUMPI PUSH2 0x1376 PUSH2 0x196C JUMP JUMPDEST PUSH1 0xFF PUSH1 0x7 SLOAD AND ISZERO PUSH2 0x1694 JUMPI CALLER PUSH1 0x0 MSTORE PUSH1 0x20 PUSH1 0x9 DUP2 MSTORE PUSH1 0x40 PUSH1 0x0 KECCAK256 SLOAD ISZERO PUSH2 0x165E JUMPI CALLER PUSH1 0x0 MSTORE PUSH1 0x3 DUP2 MSTORE PUSH1 0xFF PUSH1 0x40 PUSH1 0x0 KECCAK256 SLOAD AND PUSH1 0x9 DUP3 MSTORE PUSH1 0x40 PUSH1 0x0 KECCAK256 SLOAD SWAP1 DUP1 PUSH1 0x0 MSTORE PUSH1 0x4 DUP4 MSTORE PUSH1 0x40 PUSH1 0x0 KECCAK256 SLOAD PUSH1 0x5 DUP5 MSTORE PUSH1 0x40 PUSH1 0x0 KECCAK256 SLOAD SWAP1 DUP1 ISZERO ISZERO PUSH1 0x0 EQ PUSH2 0x1653 JUMPI PUSH2 0x13E2 PUSH2 0x13E7 SWAP3 DUP6 PUSH2 0x198F JUMP JUMPDEST PUSH2 0x19A2 JUMP JUMPDEST DUP1 SWAP3 JUMPDEST PUSH2 0x1415 PUSH32 0x0 DUP1 SWAP3 PUSH2 0x198F JUMP JUMPDEST CALLER PUSH1 0x0 MSTORE PUSH1 0xA DUP7 MSTORE PUSH1 0x40 PUSH1 0x0 KECCAK256 SLOAD ISZERO DUP1 PUSH2 0x164A JUMPI JUMPDEST PUSH2 0x15D9 JUMPI JUMPDEST POP POP POP PUSH1 0x0 MSTORE PUSH1 0x2 DUP3 MSTORE PUSH1 0x40 PUSH1 0x0 KECCAK256 SWAP1 PUSH1 0x40 MLOAD SWAP1 PUSH1 0x60 DUP3 ADD DUP3 DUP2 LT PUSH8 0xFFFFFFFFFFFFFFFF DUP3 GT OR PUSH2 0x1204 JUMPI PUSH1 0x40 MSTORE PUSH2 0x148F PUSH1 0x64 PUSH2 0x1487 DUP6 SLOAD DUP1 DUP7 MSTORE PUSH1 0x40 PUSH1 0x2 PUSH1 0x1 DUP10 ADD SLOAD SWAP9 DUP11 DUP10 ADD SWAP10 DUP11 MSTORE ADD SLOAD SWAP7 ADD SWAP6 DUP7 MSTORE DUP5 PUSH2 0x198F JUMP JUMPDEST DIV DUP1 SWAP3 PUSH2 0x19C2 JUMP JUMPDEST SWAP2 PUSH2 0x14A0 DUP3 SWAP5 PUSH1 0x8 SLOAD SWAP1 MLOAD SWAP1 PUSH2 0x193D JUMP JUMPDEST PUSH2 0x14AB DUP3 MLOAD DUP3 PUSH2 0x193D JUMP JUMPDEST TIMESTAMP LT PUSH2 0x1590 JUMPI POP POP POP PUSH2 0x14BD SWAP2 PUSH2 0x193D JUMP JUMPDEST CALLER PUSH1 0x0 MSTORE PUSH1 0xA DUP3 MSTORE PUSH1 0x40 PUSH1 0x0 KECCAK256 SLOAD SWAP1 DUP2 DUP2 GT ISZERO PUSH2 0x1554 JUMPI PUSH32 0x896E034966EAAF1ADC54ACC0F257056FEBBD300C9E47182CF761982CF1F5E430 SWAP2 PUSH2 0x14FF SWAP2 PUSH2 0x19C2 JUMP JUMPDEST SWAP2 CALLER PUSH1 0x0 MSTORE PUSH1 0xA DUP2 MSTORE PUSH1 0x40 PUSH1 0x0 KECCAK256 PUSH2 0x1518 DUP5 DUP3 SLOAD PUSH2 0x193D JUMP JUMPDEST SWAP1 SSTORE PUSH2 0x1545 DUP4 CALLER PUSH32 0x0 PUSH2 0x1A2B JUMP JUMPDEST PUSH1 0x40 MLOAD SWAP3 DUP4 MSTORE CALLER SWAP3 LOG2 PUSH1 0x1 DUP1 SSTORE STOP JUMPDEST PUSH1 0x40 MLOAD PUSH3 0x461BCD PUSH1 0xE5 SHL DUP2 MSTORE PUSH1 0x4 DUP2 ADD DUP5 SWAP1 MSTORE PUSH1 0x14 PUSH1 0x24 DUP3 ADD MSTORE PUSH20 0x4E6F7468696E67206E657720746F20636C61696D PUSH1 0x60 SHL PUSH1 0x44 DUP3 ADD MSTORE PUSH1 0x64 SWAP1 REVERT JUMPDEST DUP1 SWAP4 SWAP2 SWAP3 SWAP4 TIMESTAMP GT PUSH2 0x15A5 JUMPI JUMPDEST POP POP POP POP PUSH2 0x14BD JUMP JUMPDEST PUSH2 0x15D0 SWAP5 POP PUSH2 0x15CA SWAP3 SWAP2 PUSH2 0x15BC PUSH2 0x15C2 SWAP3 TIMESTAMP PUSH2 0x19C2 JUMP JUMPDEST SWAP1 PUSH2 0x198F JUMP JUMPDEST SWAP1 MLOAD SWAP1 PUSH2 0x19A2 JUMP JUMPDEST SWAP1 PUSH2 0x193D JUMP JUMPDEST DUP3 DUP1 DUP1 DUP1 PUSH2 0x159C JUMP JUMPDEST PUSH2 0x15E6 SWAP3 PUSH2 0x13E2 SWAP2 PUSH2 0x19C2 JUMP JUMPDEST DUP1 ISZERO DUP1 ISZERO PUSH2 0x15F6 JUMPI JUMPDEST DUP4 SWAP2 PUSH2 0x142F JUMP JUMPDEST DUP2 SWAP1 PUSH1 0x0 SWAP1 PUSH2 0x1641 JUMPI JUMPDEST PUSH1 0x0 DUP1 DUP1 SWAP4 DUP2 SWAP4 CALLER SWAP1 CALL ISZERO PUSH2 0x8AF JUMPI PUSH1 0x40 MLOAD SWAP1 DUP2 MSTORE PUSH32 0x358FE4192934D3BF28AE181FEDA1F4BD08CA67F5E2FAD55582CCE5EB67304AE9 DUP5 CALLER SWAP3 LOG2 DUP4 DUP1 PUSH2 0x15EF JUMP JUMPDEST POP PUSH2 0x8FC PUSH2 0x1600 JUMP JUMPDEST POP DUP1 DUP4 LT PUSH2 0x142A JUMP JUMPDEST POP POP PUSH1 0x0 DUP1 SWAP3 PUSH2 0x13EA JUMP JUMPDEST PUSH1 0x64 SWAP1 PUSH1 0x40 MLOAD SWAP1 PUSH3 0x461BCD PUSH1 0xE5 SHL DUP3 MSTORE PUSH1 0x4 DUP3 ADD MSTORE PUSH1 0xF PUSH1 0x24 DUP3 ADD MSTORE PUSH15 0x27379031B7B73A3934B13ABA34B7B7 PUSH1 0x89 SHL PUSH1 0x44 DUP3 ADD MSTORE REVERT JUMPDEST PUSH1 0x40 MLOAD PUSH3 0x461BCD PUSH1 0xE5 SHL DUP2 MSTORE PUSH1 0x20 PUSH1 0x4 DUP3 ADD MSTORE PUSH1 0xD PUSH1 0x24 DUP3 ADD MSTORE PUSH13 0x139BDD08199A5B985B1A5E9959 PUSH1 0x9A SHL PUSH1 0x44 DUP3 ADD MSTORE PUSH1 0x64 SWAP1 REVERT JUMPDEST CALLVALUE PUSH2 0x1DA JUMPI PUSH1 0x0 CALLDATASIZE PUSH1 0x3 NOT ADD SLT PUSH2 0x1DA JUMPI PUSH1 0x20 PUSH1 0x40 MLOAD PUSH32 0x0 DUP2 MSTORE RETURN JUMPDEST CALLVALUE PUSH2 0x1DA JUMPI PUSH1 0x20 CALLDATASIZE PUSH1 0x3 NOT ADD SLT PUSH2 0x1DA JUMPI PUSH1 0x4 CALLDATALOAD PUSH1 0x1 PUSH1 0x1 PUSH1 0xA0 SHL SUB DUP2 AND SWAP1 DUP2 SWAP1 SUB PUSH2 0x1DA JUMPI PUSH1 0x0 MSTORE PUSH1 0x9 PUSH1 0x20 MSTORE PUSH1 0x20 PUSH1 0x40 PUSH1 0x0 KECCAK256 SLOAD PUSH1 0x40 MLOAD SWAP1 DUP2 MSTORE RETURN JUMPDEST CALLVALUE PUSH2 0x1DA JUMPI PUSH1 0x0 CALLDATASIZE PUSH1 0x3 NOT ADD SLT PUSH2 0x1DA JUMPI PUSH1 0x20 PUSH1 0x40 MLOAD PUSH1 0x1 DUP2 MSTORE RETURN JUMPDEST CALLVALUE PUSH2 0x1DA JUMPI PUSH1 0x20 CALLDATASIZE PUSH1 0x3 NOT ADD SLT PUSH2 0x1DA JUMPI PUSH1 0xFF PUSH2 0x1779 PUSH2 0x186A JUMP JUMPDEST AND PUSH1 0x0 MSTORE PUSH1 0x5 PUSH1 0x20 MSTORE PUSH1 0x20 PUSH1 0x40 PUSH1 0x0 KECCAK256 SLOAD PUSH1 0x40 MLOAD SWAP1 DUP2 MSTORE RETURN JUMPDEST CALLVALUE PUSH2 0x1DA JUMPI PUSH1 0x0 CALLDATASIZE PUSH1 0x3 NOT ADD SLT PUSH2 0x1DA JUMPI PUSH1 0x20 PUSH1 0x40 MLOAD PUSH32 0x0 DUP2 MSTORE RETURN JUMPDEST CALLVALUE PUSH2 0x1DA JUMPI PUSH1 0x20 CALLDATASIZE PUSH1 0x3 NOT ADD SLT PUSH2 0x1DA JUMPI PUSH1 0x4 CALLDATALOAD PUSH1 0x1 PUSH1 0x1 PUSH1 0xA0 SHL SUB DUP2 AND SWAP1 DUP2 SWAP1 SUB PUSH2 0x1DA JUMPI PUSH1 0x0 MSTORE PUSH1 0x3 PUSH1 0x20 MSTORE PUSH1 0x20 PUSH1 0xFF PUSH1 0x40 PUSH1 0x0 KECCAK256 SLOAD AND PUSH1 0x40 MLOAD SWAP1 DUP2 MSTORE RETURN JUMPDEST CALLVALUE PUSH2 0x1DA JUMPI PUSH1 0x0 CALLDATASIZE PUSH1 0x3 NOT ADD SLT PUSH2 0x1DA JUMPI PUSH2 0x1827 PUSH2 0x18A6 JUMP JUMPDEST PUSH1 0x40 MLOAD PUSH1 0x4 DUP3 LT ISZERO PUSH2 0xA80 JUMPI PUSH1 0x20 SWAP2 DUP2 MSTORE RETURN JUMPDEST CALLVALUE PUSH2 0x1DA JUMPI PUSH1 0x20 CALLDATASIZE PUSH1 0x3 NOT ADD SLT PUSH2 0x1DA JUMPI PUSH1 0x20 SWAP1 PUSH1 0xFF PUSH2 0x1858 PUSH2 0x186A JUMP JUMPDEST AND PUSH1 0x0 MSTORE PUSH1 0x4 DUP3 MSTORE PUSH1 0x40 PUSH1 0x0 KECCAK256 SLOAD DUP2 MSTORE RETURN JUMPDEST PUSH1 0x4 CALLDATALOAD SWAP1 PUSH1 0xFF DUP3 AND DUP3 SUB PUSH2 0x1DA JUMPI JUMP JUMPDEST PUSH1 0x0 SLOAD PUSH1 0x1 PUSH1 0x1 PUSH1 0xA0 SHL SUB AND CALLER SUB PUSH2 0x188E JUMPI JUMP JUMPDEST PUSH1 0x40 MLOAD PUSH4 0x118CDAA7 PUSH1 0xE0 SHL DUP2 MSTORE CALLER PUSH1 0x4 DUP3 ADD MSTORE PUSH1 0x24 SWAP1 REVERT JUMPDEST PUSH1 0xFF PUSH1 0x7 SLOAD AND PUSH2 0x192E JUMPI PUSH32 0x0 TIMESTAMP LT PUSH2 0x1938 JUMPI PUSH32 0x0 TIMESTAMP GT ISZERO PUSH2 0x1933 JUMPI PUSH1 0x6 SLOAD PUSH32 0x0 GT ISZERO PUSH2 0x192E JUMPI PUSH1 0x3 SWAP1 JUMP JUMPDEST PUSH1 0x2 SWAP1 JUMP JUMPDEST PUSH1 0x1 SWAP1 JUMP JUMPDEST PUSH1 0x0 SWAP1 JUMP JUMPDEST SWAP2 SWAP1 DUP3 ADD DUP1 SWAP3 GT PUSH2 0x913 JUMPI JUMP JUMPDEST SWAP1 PUSH1 0x1F DUP1 NOT SWAP2 ADD AND DUP2 ADD SWAP1 DUP2 LT PUSH8 0xFFFFFFFFFFFFFFFF DUP3 GT OR PUSH2 0x1204 JUMPI PUSH1 0x40 MSTORE JUMP JUMPDEST PUSH1 0x2 PUSH1 0x1 SLOAD EQ PUSH2 0x197D JUMPI PUSH1 0x2 PUSH1 0x1 SSTORE JUMP JUMPDEST PUSH1 0x40 MLOAD PUSH4 0x3EE5AEB5 PUSH1 0xE0 SHL DUP2 MSTORE PUSH1 0x4 SWAP1 REVERT JUMPDEST DUP2 DUP2 MUL SWAP3 SWAP2 DUP2 ISZERO SWAP2 DUP5 DIV EQ OR ISZERO PUSH2 0x913 JUMPI JUMP JUMPDEST DUP2 ISZERO PUSH2 0x19AC JUMPI DIV SWAP1 JUMP JUMPDEST PUSH4 0x4E487B71 PUSH1 0xE0 SHL PUSH1 0x0 MSTORE PUSH1 0x12 PUSH1 0x4 MSTORE PUSH1 0x24 PUSH1 0x0 REVERT JUMPDEST SWAP2 SWAP1 DUP3 SUB SWAP2 DUP3 GT PUSH2 0x913 JUMPI JUMP JUMPDEST SWAP1 PUSH1 0x0 PUSH1 0x20 SWAP2 DUP3 DUP2 MLOAD SWAP2 ADD DUP3 DUP6 GAS CALL ISZERO PUSH2 0x8AF JUMPI PUSH1 0x0 MLOAD RETURNDATASIZE PUSH2 0x1A22 JUMPI POP PUSH1 0x1 PUSH1 0x1 PUSH1 0xA0 SHL SUB DUP2 AND EXTCODESIZE ISZERO JUMPDEST PUSH2 0x1A00 JUMPI POP JUMP JUMPDEST PUSH1 0x40 MLOAD PUSH4 0x5274AFE7 PUSH1 0xE0 SHL DUP2 MSTORE PUSH1 0x1 PUSH1 0x1 PUSH1 0xA0 SHL SUB SWAP1 SWAP2 AND PUSH1 0x4 DUP3 ADD MSTORE PUSH1 0x24 SWAP1 REVERT JUMPDEST PUSH1 0x1 EQ ISZERO PUSH2 0x19F9 JUMP JUMPDEST PUSH1 0x40 MLOAD PUSH4 0xA9059CBB PUSH1 0xE0 SHL PUSH1 0x20 DUP3 ADD MSTORE PUSH1 0x1 PUSH1 0x1 PUSH1 0xA0 SHL SUB SWAP3 SWAP1 SWAP3 AND PUSH1 0x24 DUP4 ADD MSTORE PUSH1 0x44 DUP1 DUP4 ADD SWAP4 SWAP1 SWAP4 MSTORE SWAP2 DUP2 MSTORE PUSH2 0x1A6C SWAP2 PUSH2 0x1A67 PUSH1 0x64 DUP4 PUSH2 0x194A JUMP JUMPDEST PUSH2 0x19CF JUMP JUMPDEST JUMP INVALID LOG2 PUSH5 0x6970667358 0x22 SLT KECCAK256 RETURNDATASIZE 0xF8 NOT 0xD1 0xCA RETURN SGT DUP16 0xE5 SWAP14 0x4E PUSH12 0x4A7633107ED1210F7FDE9F0D PUSH12 0xA830E7EC6FB83064736F6C63 NUMBER STOP ADDMOD EQ STOP CALLER "},"deployedBytecode":{"immutableReferences":{"2049":[{"length":32,"start":427},{"length":32,"start":2096},{"length":32,"start":3935},{"length":32,"start":4035},{"length":32,"start":4532},{"length":32,"start":4570},{"length":32,"start":4644},{"length":32,"start":5409}],"2052":[{"length":32,"start":560},{"length":32,"start":3867},{"length":32,"start":4118},{"length":32,"start":4437}],"2054":[{"length":32,"start":2977},{"length":32,"start":4919},{"length":32,"start":6404}],"2056":[{"length":32,"start":503},{"length":32,"start":3405}],"2058":[{"length":32,"start":3449},{"length":32,"start":5103},{"length":32,"start":5857}],"2060":[{"length":32,"start":2890},{"length":32,"start":3801}],"2062":[{"length":32,"start":2831},{"length":32,"start":3758},{"length":32,"start":4198}],"2064":[{"length":32,"start":1003},{"length":32,"start":3105},{"length":32,"start":6322}],"2066":[{"length":32,"start":4874},{"length":32,"start":6058},{"length":32,"start":6361}],"2068":[{"length":32,"start":1533},{"length":32,"start":3283}]},"linkReferences":{},"object":"608080604052600436101561001357600080fd5b60003560e01c90816308ed299c1461183a575080631865c57d1461180e57806321c7557c146117cd5780633197cbb6146117925780633a6089cf1461175e5780633c0847f51461174257806342e94c901461170457806342f39381146116c957806348c54b9d1461135d5780634bb278f314610cf65780635fb2266b14610cbb5780636a03eaf914610c9d578063715018a614610c4457806378e9792514610c095780637c396efa14610bed5780638da5cb5b14610bc4578063906a26e014610b895780639a46e41214610b6d578063a20ecbbb14610b32578063b068375514610af7578063b1d0af7014610ab9578063b3f05b9714610a96578063b5545a3c1461097f578063bcc23e6c14610963578063c5c4744c14610945578063c7d0123114610929578063c8bdbfb6146107e9578063cdfe4be814610364578063e3d3f84314610348578063e6c45d4a146102ef578063f2fde38b1461025f578063f887ea401461021a578063fb86a404146101df5763fc0c546a1461019557600080fd5b346101da5760003660031901126101da576040517f00000000000000000000000000000000000000000000000000000000000000006001600160a01b03168152602090f35b600080fd5b346101da5760003660031901126101da5760206040517f00000000000000000000000000000000000000000000000000000000000000008152f35b346101da5760003660031901126101da576040517f00000000000000000000000000000000000000000000000000000000000000006001600160a01b03168152602090f35b346101da5760203660031901126101da576004356001600160a01b03818116918290036101da5761028e61187a565b81156102d657600054826bffffffffffffffffffffffff60a01b821617600055167f8be0079c531659141344cd1fd0a4f28419497f9722a3daafe3b4186f6b6457e0600080a3005b604051631e4fbdf760e01b815260006004820152602490fd5b346101da5760203660031901126101da5760ff61030a61186a565b1660005260026020526040600020805461034460026001840154930154604051938493846040919493926060820195825260208201520152565b0390f35b346101da5760003660031901126101da57602060405160038152f35b60603660031901126101da5760043567ffffffffffffffff8082116101da57366023830112156101da578160040135918183116101da57600583811b926024928385820101953687116101da5784359360ff8516968786036101da576103c861196c565b6103d06118a6565b9860048a10156107d4576001809a0361079d573415610764577f0000000000000000000000000000000000000000000000000000000000000000610258810180911161074f5742106106f8575b6000546001600160a01b0316330361057d575b5050505050505033600052602090600982526044356104543460406000205461193d565b11610541573360005260038252826040600020805460ff8116151560001461053257505460ff16036104fa57505b3360005260098152604060002061049a34825461193d565b90556104a83460065461193d565b600655816000526004815260406000206104c334825461193d565b905560405191825234908201527f6202e363b9b07bd49964490f5cd955af47c94fffc29054855e24d451a753851a60403392a28055005b9060126064926040519262461bcd60e51b845260048401528201527121b0b73737ba1031b430b733b2903a34b2b960711b6044820152fd5b90925060ff1916179055610482565b9060166064926040519262461bcd60e51b845260048401528201527522bc31b2b2b2399036b0bc1030b63637b1b0ba34b7b760511b6044820152fd5b60405193602097888601903360601b825260ff60f81b9060f81b1660348701526044356035870152603586526060860197868910908911176106e357906105d5898d9897969594938a6040528751902094018961194a565b87526080948901888587015b8383106106d05750505050946000945b610665575b50505050507f00000000000000000000000000000000000000000000000000000000000000000361062c57808080808080610430565b60146064926040519262461bcd60e51b845260048401528201527324b73b30b634b21026b2b935b63290283937b7b360611b6044820152fd5b909192939481518610156106ca5785831b840185015190818110156106ba57600052865260406000205b9460001981146106a557890193929190896105f1565b87634e487b7160e01b60005260116004526000fd5b906000528652604060002061068f565b946105f6565b823581528d9850918101918a91016105e1565b89634e487b7160e01b60005260416004526000fd5b600289101561041d5760405162461bcd60e51b8152602060048201526021818a01527f5072696f726974792057696e646f773a2053696c7665722f476f6c64204f6e6c6044820152607960f81b6064820152608490fd5b88634e487b7160e01b60005260116004526000fd5b60405162461bcd60e51b8152602060048201526012818a0152710416d6f756e74206d757374206265203e20360741b6044820152606490fd5b60405162461bcd60e51b8152602060048201526010818a01526f50726573616c65206e6f74206c69766560801b6044820152606490fd5b87634e487b7160e01b60005260216004526000fd5b346101da5760003660031901126101da5761080261187a565b60ff60075416806108ec575b156108bb576040516370a0823160e01b81523060048201526001600160a01b037f00000000000000000000000000000000000000000000000000000000000000006020836024818585165afa9182156108af5760009261087a575b61087893506000541690611a2b565b005b91506020833d82116108a7575b816108946020938361194a565b810103126101da57610878925191610869565b3d9150610887565b6040513d6000823e3d90fd5b60405162461bcd60e51b8152602060048201526009602482015268546f6f206561726c7960b81b6044820152606490fd5b506008546301e1338081019081811161091357630208c0800180911161091357421161080e565b634e487b7160e01b600052601160045260246000fd5b346101da5760003660031901126101da57602060405160148152f35b346101da5760003660031901126101da576020600654604051908152f35b346101da5760003660031901126101da576020604051601e8152f35b346101da5760003660031901126101da5761099861196c565b6109a06118a6565b6004811015610a8057600303610a4e573360005260096020526040600020548015610a1557336000526009602052600060408120556000808080843382f1156108af576040519081527f358fe4192934d3bf28ae181feda1f4bd08ca67f5e2fad55582cce5eb67304ae960203392a260018055005b60405162461bcd60e51b8152602060048201526011602482015270139bdd1a1a5b99c81d1bc81c99599d5b99607a1b6044820152606490fd5b60405162461bcd60e51b815260206004820152600a602482015269139bdd0819985a5b195960b21b6044820152606490fd5b634e487b7160e01b600052602160045260246000fd5b346101da5760003660031901126101da57602060ff600754166040519015158152f35b346101da5760203660031901126101da576004356001600160a01b038116908190036101da57600052600a6020526020604060002054604051908152f35b346101da5760003660031901126101da5760206040517f00000000000000000000000000000000000000000000000000000000000000008152f35b346101da5760003660031901126101da5760206040517f00000000000000000000000000000000000000000000000000000000000000008152f35b346101da5760003660031901126101da57602060405160028152f35b346101da5760003660031901126101da5760206040517f00000000000000000000000000000000000000000000000000000000000000008152f35b346101da5760003660031901126101da576000546040516001600160a01b039091168152602090f35b346101da5760003660031901126101da57602060405160328152f35b346101da5760003660031901126101da5760206040517f00000000000000000000000000000000000000000000000000000000000000008152f35b346101da5760003660031901126101da57610c5d61187a565b600080546001600160a01b0319811682556001600160a01b03167f8be0079c531659141344cd1fd0a4f28419497f9722a3daafe3b4186f6b6457e08280a3005b346101da5760003660031901126101da576020600854604051908152f35b346101da5760003660031901126101da5760206040517f00000000000000000000000000000000000000000000000000000000000000008152f35b346101da5760003660031901126101da57610d0f61196c565b610d176118a6565b6004811015610a80576002148015611307575b156112d05760075460ff81166112975760ff1916600117600755426008556006547f0000000000000000000000000000000000000000000000000000000000000000908181111561129057505b7f0000000000000000000000000000000000000000000000000000000000000000610da2818361198f565b9060148202908215918381046014148317156109135760649004601e840292848404601e1417156109135780610de9604095610de460648897049384926119c2565b6119c2565b9260036000526004602052610e1a610e0582876000205461198f565b9160026000526004602052866000205461198f565b9083811061127a575b509084916003600052600560205283836000205581811061125f575b506002600052600560205280826000205560016000528382600020558151926003845260208401527fe9c096f207492e79c93ffb021d220c180b64c8a54eb958748efacc2b7a38d84f80968194a1815190600282526020820152a1815190600182526020820152a16064610ed37f00000000000000000000000000000000000000000000000000000000000000008361198f565b04610efe7f00000000000000000000000000000000000000000000000000000000000000008261198f565b60405163095ea7b360e01b60208083019182526001600160a01b037f00000000000000000000000000000000000000000000000000000000000000001660248401526044808401859052835290600090610f5960648561194a565b835190827f00000000000000000000000000000000000000000000000000000000000000005af16000513d8261121a575b505015611143575b506000546001600160a01b0316426102588101908110610913576040519163f305d71960e01b835260018060a01b037f00000000000000000000000000000000000000000000000000000000000000001660048401528360248401526000604484015260006064840152608483015260a482015260608160c4818660018060a01b037f0000000000000000000000000000000000000000000000000000000000000000165af19081611118575b506110d7575060008080809360018060a01b038254168282156110ce575bf1156108af575b7f000000000000000000000000000000000000000000000000000000000000000060640390606482116109135760008060646110a28295839561198f565b8254919004906001600160a01b03168282156110c5575bf1156108af5760018055005b506108fc6110b9565b506108fc61105d565b600654604080519182526020820193909352918201527fd4294f2e03dfa3f368c60ae6950d6e90c37101953b6aa279269459a9517f106e90606090a1611064565b606090813d811161113c575b61112e818361194a565b810103126101da578461103f565b503d611124565b60405163095ea7b360e01b60208201527f00000000000000000000000000000000000000000000000000000000000000006001600160a01b0316602482015260006044808301919091528152906080820167ffffffffffffffff811183821017611204576111fe926111d8916040527f00000000000000000000000000000000000000000000000000000000000000006119cf565b7f00000000000000000000000000000000000000000000000000000000000000006119cf565b83610f92565b634e487b7160e01b600052604160045260246000fd5b90915061125757507f00000000000000000000000000000000000000000000000000000000000000006001600160a01b03163b15155b8580610f8a565b600114611250565b61126c81611273936119c2565b909461193d565b9287610e3f565b8061126c61128a928895966119c2565b91610e23565b9050610d77565b60405162461bcd60e51b8152602060048201526011602482015270105b1c9958591e48199a5b985b1a5e9959607a1b6044820152606490fd5b60405162461bcd60e51b815260206004820152600f60248201526e43616e6e6f742066696e616c697a6560881b6044820152606490fd5b507f000000000000000000000000000000000000000000000000000000000000000042118015610d2a57506006547f00000000000000000000000000000000000000000000000000000000000000001115610d2a565b346101da5760003660031901126101da5761137661196c565b60ff600754161561169457336000526020600981526040600020541561165e57336000526003815260ff60406000205416600982526040600020549080600052600483526040600020546005845260406000205490801515600014611653576113e26113e7928561198f565b6119a2565b80925b6114157f0000000000000000000000000000000000000000000000000000000000000000809261198f565b33600052600a8652604060002054158061164a575b6115d9575b50505060005260028252604060002090604051906060820182811067ffffffffffffffff8211176112045760405261148f60646114878554808652604060026001890154988a8901998a52015496019586528461198f565b0480926119c2565b916114a0829460085490519061193d565b6114ab82518261193d565b4210611590575050506114bd9161193d565b33600052600a82526040600020549081811115611554577f896e034966eaaf1adc54acc0f257056febbd300c9e47182cf761982cf1f5e430916114ff916119c2565b9133600052600a8152604060002061151884825461193d565b905561154583337f0000000000000000000000000000000000000000000000000000000000000000611a2b565b6040519283523392a260018055005b60405162461bcd60e51b81526004810184905260146024820152734e6f7468696e67206e657720746f20636c61696d60601b6044820152606490fd5b809391929342116115a5575b505050506114bd565b6115d094506115ca92916115bc6115c292426119c2565b9061198f565b9051906119a2565b9061193d565b8280808061159c565b6115e6926113e2916119c2565b801580156115f6575b839161142f565b8190600090611641575b600080809381933390f1156108af576040519081527f358fe4192934d3bf28ae181feda1f4bd08ca67f5e2fad55582cce5eb67304ae9843392a283806115ef565b506108fc611600565b5080831061142a565b5050600080926113ea565b6064906040519062461bcd60e51b82526004820152600f60248201526e27379031b7b73a3934b13aba34b7b760891b6044820152fd5b60405162461bcd60e51b815260206004820152600d60248201526c139bdd08199a5b985b1a5e9959609a1b6044820152606490fd5b346101da5760003660031901126101da5760206040517f00000000000000000000000000000000000000000000000000000000000000008152f35b346101da5760203660031901126101da576004356001600160a01b038116908190036101da5760005260096020526020604060002054604051908152f35b346101da5760003660031901126101da57602060405160018152f35b346101da5760203660031901126101da5760ff61177961186a565b1660005260056020526020604060002054604051908152f35b346101da5760003660031901126101da5760206040517f00000000000000000000000000000000000000000000000000000000000000008152f35b346101da5760203660031901126101da576004356001600160a01b038116908190036101da576000526003602052602060ff60406000205416604051908152f35b346101da5760003660031901126101da576118276118a6565b6040516004821015610a80576020918152f35b346101da5760203660031901126101da5760209060ff61185861186a565b16600052600482526040600020548152f35b6004359060ff821682036101da57565b6000546001600160a01b0316330361188e57565b60405163118cdaa760e01b8152336004820152602490fd5b60ff6007541661192e577f00000000000000000000000000000000000000000000000000000000000000004210611938577f0000000000000000000000000000000000000000000000000000000000000000421115611933576006547f0000000000000000000000000000000000000000000000000000000000000000111561192e57600390565b600290565b600190565b600090565b9190820180921161091357565b90601f8019910116810190811067ffffffffffffffff82111761120457604052565b60026001541461197d576002600155565b604051633ee5aeb560e01b8152600490fd5b8181029291811591840414171561091357565b81156119ac570490565b634e487b7160e01b600052601260045260246000fd5b9190820391821161091357565b906000602091828151910182855af1156108af576000513d611a2257506001600160a01b0381163b155b611a005750565b604051635274afe760e01b81526001600160a01b039091166004820152602490fd5b600114156119f9565b60405163a9059cbb60e01b60208201526001600160a01b03929092166024830152604480830193909352918152611a6c91611a6760648361194a565b6119cf565b56fea26469706673582212203df819d1caf3138fe59d4e6b4a7633107ed1210f7fde9f0d6ba830e7ec6fb83064736f6c63430008140033","opcodes":"PUSH1 0x80 DUP1 PUSH1 0x40 MSTORE PUSH1 0x4 CALLDATASIZE LT ISZERO PUSH2 0x13 JUMPI PUSH1 0x0 DUP1 REVERT JUMPDEST PUSH1 0x0 CALLDATALOAD PUSH1 0xE0 SHR SWAP1 DUP2 PUSH4 0x8ED299C EQ PUSH2 0x183A JUMPI POP DUP1 PUSH4 0x1865C57D EQ PUSH2 0x180E JUMPI DUP1 PUSH4 0x21C7557C EQ PUSH2 0x17CD JUMPI DUP1 PUSH4 0x3197CBB6 EQ PUSH2 0x1792 JUMPI DUP1 PUSH4 0x3A6089CF EQ PUSH2 0x175E JUMPI DUP1 PUSH4 0x3C0847F5 EQ PUSH2 0x1742 JUMPI DUP1 PUSH4 0x42E94C90 EQ PUSH2 0x1704 JUMPI DUP1 PUSH4 0x42F39381 EQ PUSH2 0x16C9 JUMPI DUP1 PUSH4 0x48C54B9D EQ PUSH2 0x135D JUMPI DUP1 PUSH4 0x4BB278F3 EQ PUSH2 0xCF6 JUMPI DUP1 PUSH4 0x5FB2266B EQ PUSH2 0xCBB JUMPI DUP1 PUSH4 0x6A03EAF9 EQ PUSH2 0xC9D JUMPI DUP1 PUSH4 0x715018A6 EQ PUSH2 0xC44 JUMPI DUP1 PUSH4 0x78E97925 EQ PUSH2 0xC09 JUMPI DUP1 PUSH4 0x7C396EFA EQ PUSH2 0xBED JUMPI DUP1 PUSH4 0x8DA5CB5B EQ PUSH2 0xBC4 JUMPI DUP1 PUSH4 0x906A26E0 EQ PUSH2 0xB89 JUMPI DUP1 PUSH4 0x9A46E412 EQ PUSH2 0xB6D JUMPI DUP1 PUSH4 0xA20ECBBB EQ PUSH2 0xB32 JUMPI DUP1 PUSH4 0xB0683755 EQ PUSH2 0xAF7 JUMPI DUP1 PUSH4 0xB1D0AF70 EQ PUSH2 0xAB9 JUMPI DUP1 PUSH4 0xB3F05B97 EQ PUSH2 0xA96 JUMPI DUP1 PUSH4 0xB5545A3C EQ PUSH2 0x97F JUMPI DUP1 PUSH4 0xBCC23E6C EQ PUSH2 0x963 JUMPI DUP1 PUSH4 0xC5C4744C EQ PUSH2 0x945 JUMPI DUP1 PUSH4 0xC7D01231 EQ PUSH2 0x929 JUMPI DUP1 PUSH4 0xC8BDBFB6 EQ PUSH2 0x7E9 JUMPI DUP1 PUSH4 0xCDFE4BE8 EQ PUSH2 0x364 JUMPI DUP1 PUSH4 0xE3D3F843 EQ PUSH2 0x348 JUMPI DUP1 PUSH4 0xE6C45D4A EQ PUSH2 0x2EF JUMPI DUP1 PUSH4 0xF2FDE38B EQ PUSH2 0x25F JUMPI DUP1 PUSH4 0xF887EA40 EQ PUSH2 0x21A JUMPI DUP1 PUSH4 0xFB86A404 EQ PUSH2 0x1DF JUMPI PUSH4 0xFC0C546A EQ PUSH2 0x195 JUMPI PUSH1 0x0 DUP1 REVERT JUMPDEST CALLVALUE PUSH2 0x1DA JUMPI PUSH1 0x0 CALLDATASIZE PUSH1 0x3 NOT ADD SLT PUSH2 0x1DA JUMPI PUSH1 0x40 MLOAD PUSH32 0x0 PUSH1 0x1 PUSH1 0x1 PUSH1 0xA0 SHL SUB AND DUP2 MSTORE PUSH1 0x20 SWAP1 RETURN JUMPDEST PUSH1 0x0 DUP1 REVERT JUMPDEST CALLVALUE PUSH2 0x1DA JUMPI PUSH1 0x0 CALLDATASIZE PUSH1 0x3 NOT ADD SLT PUSH2 0x1DA JUMPI PUSH1 0x20 PUSH1 0x40 MLOAD PUSH32 0x0 DUP2 MSTORE RETURN JUMPDEST CALLVALUE PUSH2 0x1DA JUMPI PUSH1 0x0 CALLDATASIZE PUSH1 0x3 NOT ADD SLT PUSH2 0x1DA JUMPI PUSH1 0x40 MLOAD PUSH32 0x0 PUSH1 0x1 PUSH1 0x1 PUSH1 0xA0 SHL SUB AND DUP2 MSTORE PUSH1 0x20 SWAP1 RETURN JUMPDEST CALLVALUE PUSH2 0x1DA JUMPI PUSH1 0x20 CALLDATASIZE PUSH1 0x3 NOT ADD SLT PUSH2 0x1DA JUMPI PUSH1 0x4 CALLDATALOAD PUSH1 0x1 PUSH1 0x1 PUSH1 0xA0 SHL SUB DUP2 DUP2 AND SWAP2 DUP3 SWAP1 SUB PUSH2 0x1DA JUMPI PUSH2 0x28E PUSH2 0x187A JUMP JUMPDEST DUP2 ISZERO PUSH2 0x2D6 JUMPI PUSH1 0x0 SLOAD DUP3 PUSH12 0xFFFFFFFFFFFFFFFFFFFFFFFF PUSH1 0xA0 SHL DUP3 AND OR PUSH1 0x0 SSTORE AND PUSH32 0x8BE0079C531659141344CD1FD0A4F28419497F9722A3DAAFE3B4186F6B6457E0 PUSH1 0x0 DUP1 LOG3 STOP JUMPDEST PUSH1 0x40 MLOAD PUSH4 0x1E4FBDF7 PUSH1 0xE0 SHL DUP2 MSTORE PUSH1 0x0 PUSH1 0x4 DUP3 ADD MSTORE PUSH1 0x24 SWAP1 REVERT JUMPDEST CALLVALUE PUSH2 0x1DA JUMPI PUSH1 0x20 CALLDATASIZE PUSH1 0x3 NOT ADD SLT PUSH2 0x1DA JUMPI PUSH1 0xFF PUSH2 0x30A PUSH2 0x186A JUMP JUMPDEST AND PUSH1 0x0 MSTORE PUSH1 0x2 PUSH1 0x20 MSTORE PUSH1 0x40 PUSH1 0x0 KECCAK256 DUP1 SLOAD PUSH2 0x344 PUSH1 0x2 PUSH1 0x1 DUP5 ADD SLOAD SWAP4 ADD SLOAD PUSH1 0x40 MLOAD SWAP4 DUP5 SWAP4 DUP5 PUSH1 0x40 SWAP2 SWAP5 SWAP4 SWAP3 PUSH1 0x60 DUP3 ADD SWAP6 DUP3 MSTORE PUSH1 0x20 DUP3 ADD MSTORE ADD MSTORE JUMP JUMPDEST SUB SWAP1 RETURN JUMPDEST CALLVALUE PUSH2 0x1DA JUMPI PUSH1 0x0 CALLDATASIZE PUSH1 0x3 NOT ADD SLT PUSH2 0x1DA JUMPI PUSH1 0x20 PUSH1 0x40 MLOAD PUSH1 0x3 DUP2 MSTORE RETURN JUMPDEST PUSH1 0x60 CALLDATASIZE PUSH1 0x3 NOT ADD SLT PUSH2 0x1DA JUMPI PUSH1 0x4 CALLDATALOAD PUSH8 0xFFFFFFFFFFFFFFFF DUP1 DUP3 GT PUSH2 0x1DA JUMPI CALLDATASIZE PUSH1 0x23 DUP4 ADD SLT ISZERO PUSH2 0x1DA JUMPI DUP2 PUSH1 0x4 ADD CALLDATALOAD SWAP2 DUP2 DUP4 GT PUSH2 0x1DA JUMPI PUSH1 0x5 DUP4 DUP2 SHL SWAP3 PUSH1 0x24 SWAP3 DUP4 DUP6 DUP3 ADD ADD SWAP6 CALLDATASIZE DUP8 GT PUSH2 0x1DA JUMPI DUP5 CALLDATALOAD SWAP4 PUSH1 0xFF DUP6 AND SWAP7 DUP8 DUP7 SUB PUSH2 0x1DA JUMPI PUSH2 0x3C8 PUSH2 0x196C JUMP JUMPDEST PUSH2 0x3D0 PUSH2 0x18A6 JUMP JUMPDEST SWAP9 PUSH1 0x4 DUP11 LT ISZERO PUSH2 0x7D4 JUMPI PUSH1 0x1 DUP1 SWAP11 SUB PUSH2 0x79D JUMPI CALLVALUE ISZERO PUSH2 0x764 JUMPI PUSH32 0x0 PUSH2 0x258 DUP2 ADD DUP1 SWAP2 GT PUSH2 0x74F JUMPI TIMESTAMP LT PUSH2 0x6F8 JUMPI JUMPDEST PUSH1 0x0 SLOAD PUSH1 0x1 PUSH1 0x1 PUSH1 0xA0 SHL SUB AND CALLER SUB PUSH2 0x57D JUMPI JUMPDEST POP POP POP POP POP POP POP CALLER PUSH1 0x0 MSTORE PUSH1 0x20 SWAP1 PUSH1 0x9 DUP3 MSTORE PUSH1 0x44 CALLDATALOAD PUSH2 0x454 CALLVALUE PUSH1 0x40 PUSH1 0x0 KECCAK256 SLOAD PUSH2 0x193D JUMP JUMPDEST GT PUSH2 0x541 JUMPI CALLER PUSH1 0x0 MSTORE PUSH1 0x3 DUP3 MSTORE DUP3 PUSH1 0x40 PUSH1 0x0 KECCAK256 DUP1 SLOAD PUSH1 0xFF DUP2 AND ISZERO ISZERO PUSH1 0x0 EQ PUSH2 0x532 JUMPI POP SLOAD PUSH1 0xFF AND SUB PUSH2 0x4FA JUMPI POP JUMPDEST CALLER PUSH1 0x0 MSTORE PUSH1 0x9 DUP2 MSTORE PUSH1 0x40 PUSH1 0x0 KECCAK256 PUSH2 0x49A CALLVALUE DUP3 SLOAD PUSH2 0x193D JUMP JUMPDEST SWAP1 SSTORE PUSH2 0x4A8 CALLVALUE PUSH1 0x6 SLOAD PUSH2 0x193D JUMP JUMPDEST PUSH1 0x6 SSTORE DUP2 PUSH1 0x0 MSTORE PUSH1 0x4 DUP2 MSTORE PUSH1 0x40 PUSH1 0x0 KECCAK256 PUSH2 0x4C3 CALLVALUE DUP3 SLOAD PUSH2 0x193D JUMP JUMPDEST SWAP1 SSTORE PUSH1 0x40 MLOAD SWAP2 DUP3 MSTORE CALLVALUE SWAP1 DUP3 ADD MSTORE PUSH32 0x6202E363B9B07BD49964490F5CD955AF47C94FFFC29054855E24D451A753851A PUSH1 0x40 CALLER SWAP3 LOG2 DUP1 SSTORE STOP JUMPDEST SWAP1 PUSH1 0x12 PUSH1 0x64 SWAP3 PUSH1 0x40 MLOAD SWAP3 PUSH3 0x461BCD PUSH1 0xE5 SHL DUP5 MSTORE PUSH1 0x4 DUP5 ADD MSTORE DUP3 ADD MSTORE PUSH18 0x21B0B73737BA1031B430B733B2903A34B2B9 PUSH1 0x71 SHL PUSH1 0x44 DUP3 ADD MSTORE REVERT JUMPDEST SWAP1 SWAP3 POP PUSH1 0xFF NOT AND OR SWAP1 SSTORE PUSH2 0x482 JUMP JUMPDEST SWAP1 PUSH1 0x16 PUSH1 0x64 SWAP3 PUSH1 0x40 MLOAD SWAP3 PUSH3 0x461BCD PUSH1 0xE5 SHL DUP5 MSTORE PUSH1 0x4 DUP5 ADD MSTORE DUP3 ADD MSTORE PUSH22 0x22BC31B2B2B2399036B0BC1030B63637B1B0BA34B7B7 PUSH1 0x51 SHL PUSH1 0x44 DUP3 ADD MSTORE REVERT JUMPDEST PUSH1 0x40 MLOAD SWAP4 PUSH1 0x20 SWAP8 DUP9 DUP7 ADD SWAP1 CALLER PUSH1 0x60 SHL DUP3 MSTORE PUSH1 0xFF PUSH1 0xF8 SHL SWAP1 PUSH1 0xF8 SHL AND PUSH1 0x34 DUP8 ADD MSTORE PUSH1 0x44 CALLDATALOAD PUSH1 0x35 DUP8 ADD MSTORE PUSH1 0x35 DUP7 MSTORE PUSH1 0x60 DUP7 ADD SWAP8 DUP7 DUP10 LT SWAP1 DUP10 GT OR PUSH2 0x6E3 JUMPI SWAP1 PUSH2 0x5D5 DUP10 DUP14 SWAP9 SWAP8 SWAP7 SWAP6 SWAP5 SWAP4 DUP11 PUSH1 0x40 MSTORE DUP8 MLOAD SWAP1 KECCAK256 SWAP5 ADD DUP10 PUSH2 0x194A JUMP JUMPDEST DUP8 MSTORE PUSH1 0x80 SWAP5 DUP10 ADD DUP9 DUP6 DUP8 ADD JUMPDEST DUP4 DUP4 LT PUSH2 0x6D0 JUMPI POP POP POP POP SWAP5 PUSH1 0x0 SWAP5 JUMPDEST PUSH2 0x665 JUMPI JUMPDEST POP POP POP POP POP PUSH32 0x0 SUB PUSH2 0x62C JUMPI DUP1 DUP1 DUP1 DUP1 DUP1 DUP1 PUSH2 0x430 JUMP JUMPDEST PUSH1 0x14 PUSH1 0x64 SWAP3 PUSH1 0x40 MLOAD SWAP3 PUSH3 0x461BCD PUSH1 0xE5 SHL DUP5 MSTORE PUSH1 0x4 DUP5 ADD MSTORE DUP3 ADD MSTORE PUSH20 0x24B73B30B634B21026B2B935B63290283937B7B3 PUSH1 0x61 SHL PUSH1 0x44 DUP3 ADD MSTORE REVERT JUMPDEST SWAP1 SWAP2 SWAP3 SWAP4 SWAP5 DUP2 MLOAD DUP7 LT ISZERO PUSH2 0x6CA JUMPI DUP6 DUP4 SHL DUP5 ADD DUP6 ADD MLOAD SWAP1 DUP2 DUP2 LT ISZERO PUSH2 0x6BA JUMPI PUSH1 0x0 MSTORE DUP7 MSTORE PUSH1 0x40 PUSH1 0x0 KECCAK256 JUMPDEST SWAP5 PUSH1 0x0 NOT DUP2 EQ PUSH2 0x6A5 JUMPI DUP10 ADD SWAP4 SWAP3 SWAP2 SWAP1 DUP10 PUSH2 0x5F1 JUMP JUMPDEST DUP8 PUSH4 0x4E487B71 PUSH1 0xE0 SHL PUSH1 0x0 MSTORE PUSH1 0x11 PUSH1 0x4 MSTORE PUSH1 0x0 REVERT JUMPDEST SWAP1 PUSH1 0x0 MSTORE DUP7 MSTORE PUSH1 0x40 PUSH1 0x0 KECCAK256 PUSH2 0x68F JUMP JUMPDEST SWAP5 PUSH2 0x5F6 JUMP JUMPDEST DUP3 CALLDATALOAD DUP2 MSTORE DUP14 SWAP9 POP SWAP2 DUP2 ADD SWAP2 DUP11 SWAP2 ADD PUSH2 0x5E1 JUMP JUMPDEST DUP10 PUSH4 0x4E487B71 PUSH1 0xE0 SHL PUSH1 0x0 MSTORE PUSH1 0x41 PUSH1 0x4 MSTORE PUSH1 0x0 REVERT JUMPDEST PUSH1 0x2 DUP10 LT ISZERO PUSH2 0x41D JUMPI PUSH1 0x40 MLOAD PUSH3 0x461BCD PUSH1 0xE5 SHL DUP2 MSTORE PUSH1 0x20 PUSH1 0x4 DUP3 ADD MSTORE PUSH1 0x21 DUP2 DUP11 ADD MSTORE PUSH32 0x5072696F726974792057696E646F773A2053696C7665722F476F6C64204F6E6C PUSH1 0x44 DUP3 ADD MSTORE PUSH1 0x79 PUSH1 0xF8 SHL PUSH1 0x64 DUP3 ADD MSTORE PUSH1 0x84 SWAP1 REVERT JUMPDEST DUP9 PUSH4 0x4E487B71 PUSH1 0xE0 SHL PUSH1 0x0 MSTORE PUSH1 0x11 PUSH1 0x4 MSTORE PUSH1 0x0 REVERT JUMPDEST PUSH1 0x40 MLOAD PUSH3 0x461BCD PUSH1 0xE5 SHL DUP2 MSTORE PUSH1 0x20 PUSH1 0x4 DUP3 ADD MSTORE PUSH1 0x12 DUP2 DUP11 ADD MSTORE PUSH18 0x416D6F756E74206D757374206265203E203 PUSH1 0x74 SHL PUSH1 0x44 DUP3 ADD MSTORE PUSH1 0x64 SWAP1 REVERT JUMPDEST PUSH1 0x40 MLOAD PUSH3 0x461BCD PUSH1 0xE5 SHL DUP2 MSTORE PUSH1 0x20 PUSH1 0x4 DUP3 ADD MSTORE PUSH1 0x10 DUP2 DUP11 ADD MSTORE PUSH16 0x50726573616C65206E6F74206C697665 PUSH1 0x80 SHL PUSH1 0x44 DUP3 ADD MSTORE PUSH1 0x64 SWAP1 REVERT JUMPDEST DUP8 PUSH4 0x4E487B71 PUSH1 0xE0 SHL PUSH1 0x0 MSTORE PUSH1 0x21 PUSH1 0x4 MSTORE PUSH1 0x0 REVERT JUMPDEST CALLVALUE PUSH2 0x1DA JUMPI PUSH1 0x0 CALLDATASIZE PUSH1 0x3 NOT ADD SLT PUSH2 0x1DA JUMPI PUSH2 0x802 PUSH2 0x187A JUMP JUMPDEST PUSH1 0xFF PUSH1 0x7 SLOAD AND DUP1 PUSH2 0x8EC JUMPI JUMPDEST ISZERO PUSH2 0x8BB JUMPI PUSH1 0x40 MLOAD PUSH4 0x70A08231 PUSH1 0xE0 SHL DUP2 MSTORE ADDRESS PUSH1 0x4 DUP3 ADD MSTORE PUSH1 0x1 PUSH1 0x1 PUSH1 0xA0 SHL SUB PUSH32 0x0 PUSH1 0x20 DUP4 PUSH1 0x24 DUP2 DUP6 DUP6 AND GAS STATICCALL SWAP2 DUP3 ISZERO PUSH2 0x8AF JUMPI PUSH1 0x0 SWAP3 PUSH2 0x87A JUMPI JUMPDEST PUSH2 0x878 SWAP4 POP PUSH1 0x0 SLOAD AND SWAP1 PUSH2 0x1A2B JUMP JUMPDEST STOP JUMPDEST SWAP2 POP PUSH1 0x20 DUP4 RETURNDATASIZE DUP3 GT PUSH2 0x8A7 JUMPI JUMPDEST DUP2 PUSH2 0x894 PUSH1 0x20 SWAP4 DUP4 PUSH2 0x194A JUMP JUMPDEST DUP2 ADD SUB SLT PUSH2 0x1DA JUMPI PUSH2 0x878 SWAP3 MLOAD SWAP2 PUSH2 0x869 JUMP JUMPDEST RETURNDATASIZE SWAP2 POP PUSH2 0x887 JUMP JUMPDEST PUSH1 0x40 MLOAD RETURNDATASIZE PUSH1 0x0 DUP3 RETURNDATACOPY RETURNDATASIZE SWAP1 REVERT JUMPDEST PUSH1 0x40 MLOAD PUSH3 0x461BCD PUSH1 0xE5 SHL DUP2 MSTORE PUSH1 0x20 PUSH1 0x4 DUP3 ADD MSTORE PUSH1 0x9 PUSH1 0x24 DUP3 ADD MSTORE PUSH9 0x546F6F206561726C79 PUSH1 0xB8 SHL PUSH1 0x44 DUP3 ADD MSTORE PUSH1 0x64 SWAP1 REVERT JUMPDEST POP PUSH1 0x8 SLOAD PUSH4 0x1E13380 DUP2 ADD SWAP1 DUP2 DUP2 GT PUSH2 0x913 JUMPI PUSH4 0x208C080 ADD DUP1 SWAP2 GT PUSH2 0x913 JUMPI TIMESTAMP GT PUSH2 0x80E JUMP JUMPDEST PUSH4 0x4E487B71 PUSH1 0xE0 SHL PUSH1 0x0 MSTORE PUSH1 0x11 PUSH1 0x4 MSTORE PUSH1 0x24 PUSH1 0x0 REVERT JUMPDEST CALLVALUE PUSH2 0x1DA JUMPI PUSH1 0x0 CALLDATASIZE PUSH1 0x3 NOT ADD SLT PUSH2 0x1DA JUMPI PUSH1 0x20 PUSH1 0x40 MLOAD PUSH1 0x14 DUP2 MSTORE RETURN JUMPDEST CALLVALUE PUSH2 0x1DA JUMPI PUSH1 0x0 CALLDATASIZE PUSH1 0x3 NOT ADD SLT PUSH2 0x1DA JUMPI PUSH1 0x20 PUSH1 0x6 SLOAD PUSH1 0x40 MLOAD SWAP1 DUP2 MSTORE RETURN JUMPDEST CALLVALUE PUSH2 0x1DA JUMPI PUSH1 0x0 CALLDATASIZE PUSH1 0x3 NOT ADD SLT PUSH2 0x1DA JUMPI PUSH1 0x20 PUSH1 0x40 MLOAD PUSH1 0x1E DUP2 MSTORE RETURN JUMPDEST CALLVALUE PUSH2 0x1DA JUMPI PUSH1 0x0 CALLDATASIZE PUSH1 0x3 NOT ADD SLT PUSH2 0x1DA JUMPI PUSH2 0x998 PUSH2 0x196C JUMP JUMPDEST PUSH2 0x9A0 PUSH2 0x18A6 JUMP JUMPDEST PUSH1 0x4 DUP2 LT ISZERO PUSH2 0xA80 JUMPI PUSH1 0x3 SUB PUSH2 0xA4E JUMPI CALLER PUSH1 0x0 MSTORE PUSH1 0x9 PUSH1 0x20 MSTORE PUSH1 0x40 PUSH1 0x0 KECCAK256 SLOAD DUP1 ISZERO PUSH2 0xA15 JUMPI CALLER PUSH1 0x0 MSTORE PUSH1 0x9 PUSH1 0x20 MSTORE PUSH1 0x0 PUSH1 0x40 DUP2 KECCAK256 SSTORE PUSH1 0x0 DUP1 DUP1 DUP1 DUP5 CALLER DUP3 CALL ISZERO PUSH2 0x8AF JUMPI PUSH1 0x40 MLOAD SWAP1 DUP2 MSTORE PUSH32 0x358FE4192934D3BF28AE181FEDA1F4BD08CA67F5E2FAD55582CCE5EB67304AE9 PUSH1 0x20 CALLER SWAP3 LOG2 PUSH1 0x1 DUP1 SSTORE STOP JUMPDEST PUSH1 0x40 MLOAD PUSH3 0x461BCD PUSH1 0xE5 SHL DUP2 MSTORE PUSH1 0x20 PUSH1 0x4 DUP3 ADD MSTORE PUSH1 0x11 PUSH1 0x24 DUP3 ADD MSTORE PUSH17 0x139BDD1A1A5B99C81D1BC81C99599D5B99 PUSH1 0x7A SHL PUSH1 0x44 DUP3 ADD MSTORE PUSH1 0x64 SWAP1 REVERT JUMPDEST PUSH1 0x40 MLOAD PUSH3 0x461BCD PUSH1 0xE5 SHL DUP2 MSTORE PUSH1 0x20 PUSH1 0x4 DUP3 ADD MSTORE PUSH1 0xA PUSH1 0x24 DUP3 ADD MSTORE PUSH10 0x139BDD0819985A5B1959 PUSH1 0xB2 SHL PUSH1 0x44 DUP3 ADD MSTORE PUSH1 0x64 SWAP1 REVERT JUMPDEST PUSH4 0x4E487B71 PUSH1 0xE0 SHL PUSH1 0x0 MSTORE PUSH1 0x21 PUSH1 0x4 MSTORE PUSH1 0x24 PUSH1 0x0 REVERT JUMPDEST CALLVALUE PUSH2 0x1DA JUMPI PUSH1 0x0 CALLDATASIZE PUSH1 0x3 NOT ADD SLT PUSH2 0x1DA JUMPI PUSH1 0x20 PUSH1 0xFF PUSH1 0x7 SLOAD AND PUSH1 0x40 MLOAD SWAP1 ISZERO ISZERO DUP2 MSTORE RETURN JUMPDEST CALLVALUE PUSH2 0x1DA JUMPI PUSH1 0x20 CALLDATASIZE PUSH1 0x3 NOT ADD SLT PUSH2 0x1DA JUMPI PUSH1 0x4 CALLDATALOAD PUSH1 0x1 PUSH1 0x1 PUSH1 0xA0 SHL SUB DUP2 AND SWAP1 DUP2 SWAP1 SUB PUSH2 0x1DA JUMPI PUSH1 0x0 MSTORE PUSH1 0xA PUSH1 0x20 MSTORE PUSH1 0x20 PUSH1 0x40 PUSH1 0x0 KECCAK256 SLOAD PUSH1 0x40 MLOAD SWAP1 DUP2 MSTORE RETURN JUMPDEST CALLVALUE PUSH2 0x1DA JUMPI PUSH1 0x0 CALLDATASIZE PUSH1 0x3 NOT ADD SLT PUSH2 0x1DA JUMPI PUSH1 0x20 PUSH1 0x40 MLOAD PUSH32 0x0 DUP2 MSTORE RETURN JUMPDEST CALLVALUE PUSH2 0x1DA JUMPI PUSH1 0x0 CALLDATASIZE PUSH1 0x3 NOT ADD SLT PUSH2 0x1DA JUMPI PUSH1 0x20 PUSH1 0x40 MLOAD PUSH32 0x0 DUP2 MSTORE RETURN JUMPDEST CALLVALUE PUSH2 0x1DA JUMPI PUSH1 0x0 CALLDATASIZE PUSH1 0x3 NOT ADD SLT PUSH2 0x1DA JUMPI PUSH1 0x20 PUSH1 0x40 MLOAD PUSH1 0x2 DUP2 MSTORE RETURN JUMPDEST CALLVALUE PUSH2 0x1DA JUMPI PUSH1 0x0 CALLDATASIZE PUSH1 0x3 NOT ADD SLT PUSH2 0x1DA JUMPI PUSH1 0x20 PUSH1 0x40 MLOAD PUSH32 0x0 DUP2 MSTORE RETURN JUMPDEST CALLVALUE PUSH2 0x1DA JUMPI PUSH1 0x0 CALLDATASIZE PUSH1 0x3 NOT ADD SLT PUSH2 0x1DA JUMPI PUSH1 0x0 SLOAD PUSH1 0x40 MLOAD PUSH1 0x1 PUSH1 0x1 PUSH1 0xA0 SHL SUB SWAP1 SWAP2 AND DUP2 MSTORE PUSH1 0x20 SWAP1 RETURN JUMPDEST CALLVALUE PUSH2 0x1DA JUMPI PUSH1 0x0 CALLDATASIZE PUSH1 0x3 NOT ADD SLT PUSH2 0x1DA JUMPI PUSH1 0x20 PUSH1 0x40 MLOAD PUSH1 0x32 DUP2 MSTORE RETURN JUMPDEST CALLVALUE PUSH2 0x1DA JUMPI PUSH1 0x0 CALLDATASIZE PUSH1 0x3 NOT ADD SLT PUSH2 0x1DA JUMPI PUSH1 0x20 PUSH1 0x40 MLOAD PUSH32 0x0 DUP2 MSTORE RETURN JUMPDEST CALLVALUE PUSH2 0x1DA JUMPI PUSH1 0x0 CALLDATASIZE PUSH1 0x3 NOT ADD SLT PUSH2 0x1DA JUMPI PUSH2 0xC5D PUSH2 0x187A JUMP JUMPDEST PUSH1 0x0 DUP1 SLOAD PUSH1 0x1 PUSH1 0x1 PUSH1 0xA0 SHL SUB NOT DUP2 AND DUP3 SSTORE PUSH1 0x1 PUSH1 0x1 PUSH1 0xA0 SHL SUB AND PUSH32 0x8BE0079C531659141344CD1FD0A4F28419497F9722A3DAAFE3B4186F6B6457E0 DUP3 DUP1 LOG3 STOP JUMPDEST CALLVALUE PUSH2 0x1DA JUMPI PUSH1 0x0 CALLDATASIZE PUSH1 0x3 NOT ADD SLT PUSH2 0x1DA JUMPI PUSH1 0x20 PUSH1 0x8 SLOAD PUSH1 0x40 MLOAD SWAP1 DUP2 MSTORE RETURN JUMPDEST CALLVALUE PUSH2 0x1DA JUMPI PUSH1 0x0 CALLDATASIZE PUSH1 0x3 NOT ADD SLT PUSH2 0x1DA JUMPI PUSH1 0x20 PUSH1 0x40 MLOAD PUSH32 0x0 DUP2 MSTORE RETURN JUMPDEST CALLVALUE PUSH2 0x1DA JUMPI PUSH1 0x0 CALLDATASIZE PUSH1 0x3 NOT ADD SLT PUSH2 0x1DA JUMPI PUSH2 0xD0F PUSH2 0x196C JUMP JUMPDEST PUSH2 0xD17 PUSH2 0x18A6 JUMP JUMPDEST PUSH1 0x4 DUP2 LT ISZERO PUSH2 0xA80 JUMPI PUSH1 0x2 EQ DUP1 ISZERO PUSH2 0x1307 JUMPI JUMPDEST ISZERO PUSH2 0x12D0 JUMPI PUSH1 0x7 SLOAD PUSH1 0xFF DUP2 AND PUSH2 0x1297 JUMPI PUSH1 0xFF NOT AND PUSH1 0x1 OR PUSH1 0x7 SSTORE TIMESTAMP PUSH1 0x8 SSTORE PUSH1 0x6 SLOAD PUSH32 0x0 SWAP1 DUP2 DUP2 GT ISZERO PUSH2 0x1290 JUMPI POP JUMPDEST PUSH32 0x0 PUSH2 0xDA2 DUP2 DUP4 PUSH2 0x198F JUMP JUMPDEST SWAP1 PUSH1 0x14 DUP3 MUL SWAP1 DUP3 ISZERO SWAP2 DUP4 DUP2 DIV PUSH1 0x14 EQ DUP4 OR ISZERO PUSH2 0x913 JUMPI PUSH1 0x64 SWAP1 DIV PUSH1 0x1E DUP5 MUL SWAP3 DUP5 DUP5 DIV PUSH1 0x1E EQ OR ISZERO PUSH2 0x913 JUMPI DUP1 PUSH2 0xDE9 PUSH1 0x40 SWAP6 PUSH2 0xDE4 PUSH1 0x64 DUP9 SWAP8 DIV SWAP4 DUP5 SWAP3 PUSH2 0x19C2 JUMP JUMPDEST PUSH2 0x19C2 JUMP JUMPDEST SWAP3 PUSH1 0x3 PUSH1 0x0 MSTORE PUSH1 0x4 PUSH1 0x20 MSTORE PUSH2 0xE1A PUSH2 0xE05 DUP3 DUP8 PUSH1 0x0 KECCAK256 SLOAD PUSH2 0x198F JUMP JUMPDEST SWAP2 PUSH1 0x2 PUSH1 0x0 MSTORE PUSH1 0x4 PUSH1 0x20 MSTORE DUP7 PUSH1 0x0 KECCAK256 SLOAD PUSH2 0x198F JUMP JUMPDEST SWAP1 DUP4 DUP2 LT PUSH2 0x127A JUMPI JUMPDEST POP SWAP1 DUP5 SWAP2 PUSH1 0x3 PUSH1 0x0 MSTORE PUSH1 0x5 PUSH1 0x20 MSTORE DUP4 DUP4 PUSH1 0x0 KECCAK256 SSTORE DUP2 DUP2 LT PUSH2 0x125F JUMPI JUMPDEST POP PUSH1 0x2 PUSH1 0x0 MSTORE PUSH1 0x5 PUSH1 0x20 MSTORE DUP1 DUP3 PUSH1 0x0 KECCAK256 SSTORE PUSH1 0x1 PUSH1 0x0 MSTORE DUP4 DUP3 PUSH1 0x0 KECCAK256 SSTORE DUP2 MLOAD SWAP3 PUSH1 0x3 DUP5 MSTORE PUSH1 0x20 DUP5 ADD MSTORE PUSH32 0xE9C096F207492E79C93FFB021D220C180B64C8A54EB958748EFACC2B7A38D84F DUP1 SWAP7 DUP2 SWAP5 LOG1 DUP2 MLOAD SWAP1 PUSH1 0x2 DUP3 MSTORE PUSH1 0x20 DUP3 ADD MSTORE LOG1 DUP2 MLOAD SWAP1 PUSH1 0x1 DUP3 MSTORE PUSH1 0x20 DUP3 ADD MSTORE LOG1 PUSH1 0x64 PUSH2 0xED3 PUSH32 0x0 DUP4 PUSH2 0x198F JUMP JUMPDEST DIV PUSH2 0xEFE PUSH32 0x0 DUP3 PUSH2 0x198F JUMP JUMPDEST PUSH1 0x40 MLOAD PUSH4 0x95EA7B3 PUSH1 0xE0 SHL PUSH1 0x20 DUP1 DUP4 ADD SWAP2 DUP3 MSTORE PUSH1 0x1 PUSH1 0x1 PUSH1 0xA0 SHL SUB PUSH32 0x0 AND PUSH1 0x24 DUP5 ADD MSTORE PUSH1 0x44 DUP1 DUP5 ADD DUP6 SWAP1 MSTORE DUP4 MSTORE SWAP1 PUSH1 0x0 SWAP1 PUSH2 0xF59 PUSH1 0x64 DUP6 PUSH2 0x194A JUMP JUMPDEST DUP4 MLOAD SWAP1 DUP3 PUSH32 0x0 GAS CALL PUSH1 0x0 MLOAD RETURNDATASIZE DUP3 PUSH2 0x121A JUMPI JUMPDEST POP POP ISZERO PUSH2 0x1143 JUMPI JUMPDEST POP PUSH1 0x0 SLOAD PUSH1 0x1 PUSH1 0x1 PUSH1 0xA0 SHL SUB AND TIMESTAMP PUSH2 0x258 DUP2 ADD SWAP1 DUP2 LT PUSH2 0x913 JUMPI PUSH1 0x40 MLOAD SWAP2 PUSH4 0xF305D719 PUSH1 0xE0 SHL DUP4 MSTORE PUSH1 0x1 DUP1 PUSH1 0xA0 SHL SUB PUSH32 0x0 AND PUSH1 0x4 DUP5 ADD MSTORE DUP4 PUSH1 0x24 DUP5 ADD MSTORE PUSH1 0x0 PUSH1 0x44 DUP5 ADD MSTORE PUSH1 0x0 PUSH1 0x64 DUP5 ADD MSTORE PUSH1 0x84 DUP4 ADD MSTORE PUSH1 0xA4 DUP3 ADD MSTORE PUSH1 0x60 DUP2 PUSH1 0xC4 DUP2 DUP7 PUSH1 0x1 DUP1 PUSH1 0xA0 SHL SUB PUSH32 0x0 AND GAS CALL SWAP1 DUP2 PUSH2 0x1118 JUMPI JUMPDEST POP PUSH2 0x10D7 JUMPI POP PUSH1 0x0 DUP1 DUP1 DUP1 SWAP4 PUSH1 0x1 DUP1 PUSH1 0xA0 SHL SUB DUP3 SLOAD AND DUP3 DUP3 ISZERO PUSH2 0x10CE JUMPI JUMPDEST CALL ISZERO PUSH2 0x8AF JUMPI JUMPDEST PUSH32 0x0 PUSH1 0x64 SUB SWAP1 PUSH1 0x64 DUP3 GT PUSH2 0x913 JUMPI PUSH1 0x0 DUP1 PUSH1 0x64 PUSH2 0x10A2 DUP3 SWAP6 DUP4 SWAP6 PUSH2 0x198F JUMP JUMPDEST DUP3 SLOAD SWAP2 SWAP1 DIV SWAP1 PUSH1 0x1 PUSH1 0x1 PUSH1 0xA0 SHL SUB AND DUP3 DUP3 ISZERO PUSH2 0x10C5 JUMPI JUMPDEST CALL ISZERO PUSH2 0x8AF JUMPI PUSH1 0x1 DUP1 SSTORE STOP JUMPDEST POP PUSH2 0x8FC PUSH2 0x10B9 JUMP JUMPDEST POP PUSH2 0x8FC PUSH2 0x105D JUMP JUMPDEST PUSH1 0x6 SLOAD PUSH1 0x40 DUP1 MLOAD SWAP2 DUP3 MSTORE PUSH1 0x20 DUP3 ADD SWAP4 SWAP1 SWAP4 MSTORE SWAP2 DUP3 ADD MSTORE PUSH32 0xD4294F2E03DFA3F368C60AE6950D6E90C37101953B6AA279269459A9517F106E SWAP1 PUSH1 0x60 SWAP1 LOG1 PUSH2 0x1064 JUMP JUMPDEST PUSH1 0x60 SWAP1 DUP2 RETURNDATASIZE DUP2 GT PUSH2 0x113C JUMPI JUMPDEST PUSH2 0x112E DUP2 DUP4 PUSH2 0x194A JUMP JUMPDEST DUP2 ADD SUB SLT PUSH2 0x1DA JUMPI DUP5 PUSH2 0x103F JUMP JUMPDEST POP RETURNDATASIZE PUSH2 0x1124 JUMP JUMPDEST PUSH1 0x40 MLOAD PUSH4 0x95EA7B3 PUSH1 0xE0 SHL PUSH1 0x20 DUP3 ADD MSTORE PUSH32 0x0 PUSH1 0x1 PUSH1 0x1 PUSH1 0xA0 SHL SUB AND PUSH1 0x24 DUP3 ADD MSTORE PUSH1 0x0 PUSH1 0x44 DUP1 DUP4 ADD SWAP2 SWAP1 SWAP2 MSTORE DUP2 MSTORE SWAP1 PUSH1 0x80 DUP3 ADD PUSH8 0xFFFFFFFFFFFFFFFF DUP2 GT DUP4 DUP3 LT OR PUSH2 0x1204 JUMPI PUSH2 0x11FE SWAP3 PUSH2 0x11D8 SWAP2 PUSH1 0x40 MSTORE PUSH32 0x0 PUSH2 0x19CF JUMP JUMPDEST PUSH32 0x0 PUSH2 0x19CF JUMP JUMPDEST DUP4 PUSH2 0xF92 JUMP JUMPDEST PUSH4 0x4E487B71 PUSH1 0xE0 SHL PUSH1 0x0 MSTORE PUSH1 0x41 PUSH1 0x4 MSTORE PUSH1 0x24 PUSH1 0x0 REVERT JUMPDEST SWAP1 SWAP2 POP PUSH2 0x1257 JUMPI POP PUSH32 0x0 PUSH1 0x1 PUSH1 0x1 PUSH1 0xA0 SHL SUB AND EXTCODESIZE ISZERO ISZERO JUMPDEST DUP6 DUP1 PUSH2 0xF8A JUMP JUMPDEST PUSH1 0x1 EQ PUSH2 0x1250 JUMP JUMPDEST PUSH2 0x126C DUP2 PUSH2 0x1273 SWAP4 PUSH2 0x19C2 JUMP JUMPDEST SWAP1 SWAP5 PUSH2 0x193D JUMP JUMPDEST SWAP3 DUP8 PUSH2 0xE3F JUMP JUMPDEST DUP1 PUSH2 0x126C PUSH2 0x128A SWAP3 DUP9 SWAP6 SWAP7 PUSH2 0x19C2 JUMP JUMPDEST SWAP2 PUSH2 0xE23 JUMP JUMPDEST SWAP1 POP PUSH2 0xD77 JUMP JUMPDEST PUSH1 0x40 MLOAD PUSH3 0x461BCD PUSH1 0xE5 SHL DUP2 MSTORE PUSH1 0x20 PUSH1 0x4 DUP3 ADD MSTORE PUSH1 0x11 PUSH1 0x24 DUP3 ADD MSTORE PUSH17 0x105B1C9958591E48199A5B985B1A5E9959 PUSH1 0x7A SHL PUSH1 0x44 DUP3 ADD MSTORE PUSH1 0x64 SWAP1 REVERT JUMPDEST PUSH1 0x40 MLOAD PUSH3 0x461BCD PUSH1 0xE5 SHL DUP2 MSTORE PUSH1 0x20 PUSH1 0x4 DUP3 ADD MSTORE PUSH1 0xF PUSH1 0x24 DUP3 ADD MSTORE PUSH15 0x43616E6E6F742066696E616C697A65 PUSH1 0x88 SHL PUSH1 0x44 DUP3 ADD MSTORE PUSH1 0x64 SWAP1 REVERT JUMPDEST POP PUSH32 0x0 TIMESTAMP GT DUP1 ISZERO PUSH2 0xD2A JUMPI POP PUSH1 0x6 SLOAD PUSH32 0x0 GT ISZERO PUSH2 0xD2A JUMP JUMPDEST CALLVALUE PUSH2 0x1DA JUMPI PUSH1 0x0 CALLDATASIZE PUSH1 0x3 NOT ADD SLT PUSH2 0x1DA JUMPI PUSH2 0x1376 PUSH2 0x196C JUMP JUMPDEST PUSH1 0xFF PUSH1 0x7 SLOAD AND ISZERO PUSH2 0x1694 JUMPI CALLER PUSH1 0x0 MSTORE PUSH1 0x20 PUSH1 0x9 DUP2 MSTORE PUSH1 0x40 PUSH1 0x0 KECCAK256 SLOAD ISZERO PUSH2 0x165E JUMPI CALLER PUSH1 0x0 MSTORE PUSH1 0x3 DUP2 MSTORE PUSH1 0xFF PUSH1 0x40 PUSH1 0x0 KECCAK256 SLOAD AND PUSH1 0x9 DUP3 MSTORE PUSH1 0x40 PUSH1 0x0 KECCAK256 SLOAD SWAP1 DUP1 PUSH1 0x0 MSTORE PUSH1 0x4 DUP4 MSTORE PUSH1 0x40 PUSH1 0x0 KECCAK256 SLOAD PUSH1 0x5 DUP5 MSTORE PUSH1 0x40 PUSH1 0x0 KECCAK256 SLOAD SWAP1 DUP1 ISZERO ISZERO PUSH1 0x0 EQ PUSH2 0x1653 JUMPI PUSH2 0x13E2 PUSH2 0x13E7 SWAP3 DUP6 PUSH2 0x198F JUMP JUMPDEST PUSH2 0x19A2 JUMP JUMPDEST DUP1 SWAP3 JUMPDEST PUSH2 0x1415 PUSH32 0x0 DUP1 SWAP3 PUSH2 0x198F JUMP JUMPDEST CALLER PUSH1 0x0 MSTORE PUSH1 0xA DUP7 MSTORE PUSH1 0x40 PUSH1 0x0 KECCAK256 SLOAD ISZERO DUP1 PUSH2 0x164A JUMPI JUMPDEST PUSH2 0x15D9 JUMPI JUMPDEST POP POP POP PUSH1 0x0 MSTORE PUSH1 0x2 DUP3 MSTORE PUSH1 0x40 PUSH1 0x0 KECCAK256 SWAP1 PUSH1 0x40 MLOAD SWAP1 PUSH1 0x60 DUP3 ADD DUP3 DUP2 LT PUSH8 0xFFFFFFFFFFFFFFFF DUP3 GT OR PUSH2 0x1204 JUMPI PUSH1 0x40 MSTORE PUSH2 0x148F PUSH1 0x64 PUSH2 0x1487 DUP6 SLOAD DUP1 DUP7 MSTORE PUSH1 0x40 PUSH1 0x2 PUSH1 0x1 DUP10 ADD SLOAD SWAP9 DUP11 DUP10 ADD SWAP10 DUP11 MSTORE ADD SLOAD SWAP7 ADD SWAP6 DUP7 MSTORE DUP5 PUSH2 0x198F JUMP JUMPDEST DIV DUP1 SWAP3 PUSH2 0x19C2 JUMP JUMPDEST SWAP2 PUSH2 0x14A0 DUP3 SWAP5 PUSH1 0x8 SLOAD SWAP1 MLOAD SWAP1 PUSH2 0x193D JUMP JUMPDEST PUSH2 0x14AB DUP3 MLOAD DUP3 PUSH2 0x193D JUMP JUMPDEST TIMESTAMP LT PUSH2 0x1590 JUMPI POP POP POP PUSH2 0x14BD SWAP2 PUSH2 0x193D JUMP JUMPDEST CALLER PUSH1 0x0 MSTORE PUSH1 0xA DUP3 MSTORE PUSH1 0x40 PUSH1 0x0 KECCAK256 SLOAD SWAP1 DUP2 DUP2 GT ISZERO PUSH2 0x1554 JUMPI PUSH32 0x896E034966EAAF1ADC54ACC0F257056FEBBD300C9E47182CF761982CF1F5E430 SWAP2 PUSH2 0x14FF SWAP2 PUSH2 0x19C2 JUMP JUMPDEST SWAP2 CALLER PUSH1 0x0 MSTORE PUSH1 0xA DUP2 MSTORE PUSH1 0x40 PUSH1 0x0 KECCAK256 PUSH2 0x1518 DUP5 DUP3 SLOAD PUSH2 0x193D JUMP JUMPDEST SWAP1 SSTORE PUSH2 0x1545 DUP4 CALLER PUSH32 0x0 PUSH2 0x1A2B JUMP JUMPDEST PUSH1 0x40 MLOAD SWAP3 DUP4 MSTORE CALLER SWAP3 LOG2 PUSH1 0x1 DUP1 SSTORE STOP JUMPDEST PUSH1 0x40 MLOAD PUSH3 0x461BCD PUSH1 0xE5 SHL DUP2 MSTORE PUSH1 0x4 DUP2 ADD DUP5 SWAP1 MSTORE PUSH1 0x14 PUSH1 0x24 DUP3 ADD MSTORE PUSH20 0x4E6F7468696E67206E657720746F20636C61696D PUSH1 0x60 SHL PUSH1 0x44 DUP3 ADD MSTORE PUSH1 0x64 SWAP1 REVERT JUMPDEST DUP1 SWAP4 SWAP2 SWAP3 SWAP4 TIMESTAMP GT PUSH2 0x15A5 JUMPI JUMPDEST POP POP POP POP PUSH2 0x14BD JUMP JUMPDEST PUSH2 0x15D0 SWAP5 POP PUSH2 0x15CA SWAP3 SWAP2 PUSH2 0x15BC PUSH2 0x15C2 SWAP3 TIMESTAMP PUSH2 0x19C2 JUMP JUMPDEST SWAP1 PUSH2 0x198F JUMP JUMPDEST SWAP1 MLOAD SWAP1 PUSH2 0x19A2 JUMP JUMPDEST SWAP1 PUSH2 0x193D JUMP JUMPDEST DUP3 DUP1 DUP1 DUP1 PUSH2 0x159C JUMP JUMPDEST PUSH2 0x15E6 SWAP3 PUSH2 0x13E2 SWAP2 PUSH2 0x19C2 JUMP JUMPDEST DUP1 ISZERO DUP1 ISZERO PUSH2 0x15F6 JUMPI JUMPDEST DUP4 SWAP2 PUSH2 0x142F JUMP JUMPDEST DUP2 SWAP1 PUSH1 0x0 SWAP1 PUSH2 0x1641 JUMPI JUMPDEST PUSH1 0x0 DUP1 DUP1 SWAP4 DUP2 SWAP4 CALLER SWAP1 CALL ISZERO PUSH2 0x8AF JUMPI PUSH1 0x40 MLOAD SWAP1 DUP2 MSTORE PUSH32 0x358FE4192934D3BF28AE181FEDA1F4BD08CA67F5E2FAD55582CCE5EB67304AE9 DUP5 CALLER SWAP3 LOG2 DUP4 DUP1 PUSH2 0x15EF JUMP JUMPDEST POP PUSH2 0x8FC PUSH2 0x1600 JUMP JUMPDEST POP DUP1 DUP4 LT PUSH2 0x142A JUMP JUMPDEST POP POP PUSH1 0x0 DUP1 SWAP3 PUSH2 0x13EA JUMP JUMPDEST PUSH1 0x64 SWAP1 PUSH1 0x40 MLOAD SWAP1 PUSH3 0x461BCD PUSH1 0xE5 SHL DUP3 MSTORE PUSH1 0x4 DUP3 ADD MSTORE PUSH1 0xF PUSH1 0x24 DUP3 ADD MSTORE PUSH15 0x27379031B7B73A3934B13ABA34B7B7 PUSH1 0x89 SHL PUSH1 0x44 DUP3 ADD MSTORE REVERT JUMPDEST PUSH1 0x40 MLOAD PUSH3 0x461BCD PUSH1 0xE5 SHL DUP2 MSTORE PUSH1 0x20 PUSH1 0x4 DUP3 ADD MSTORE PUSH1 0xD PUSH1 0x24 DUP3 ADD MSTORE PUSH13 0x139BDD08199A5B985B1A5E9959 PUSH1 0x9A SHL PUSH1 0x44 DUP3 ADD MSTORE PUSH1 0x64 SWAP1 REVERT JUMPDEST CALLVALUE PUSH2 0x1DA JUMPI PUSH1 0x0 CALLDATASIZE PUSH1 0x3 NOT ADD SLT PUSH2 0x1DA JUMPI PUSH1 0x20 PUSH1 0x40 MLOAD PUSH32 0x0 DUP2 MSTORE RETURN JUMPDEST CALLVALUE PUSH2 0x1DA JUMPI PUSH1 0x20 CALLDATASIZE PUSH1 0x3 NOT ADD SLT PUSH2 0x1DA JUMPI PUSH1 0x4 CALLDATALOAD PUSH1 0x1 PUSH1 0x1 PUSH1 0xA0 SHL SUB DUP2 AND SWAP1 DUP2 SWAP1 SUB PUSH2 0x1DA JUMPI PUSH1 0x0 MSTORE PUSH1 0x9 PUSH1 0x20 MSTORE PUSH1 0x20 PUSH1 0x40 PUSH1 0x0 KECCAK256 SLOAD PUSH1 0x40 MLOAD SWAP1 DUP2 MSTORE RETURN JUMPDEST CALLVALUE PUSH2 0x1DA JUMPI PUSH1 0x0 CALLDATASIZE PUSH1 0x3 NOT ADD SLT PUSH2 0x1DA JUMPI PUSH1 0x20 PUSH1 0x40 MLOAD PUSH1 0x1 DUP2 MSTORE RETURN JUMPDEST CALLVALUE PUSH2 0x1DA JUMPI PUSH1 0x20 CALLDATASIZE PUSH1 0x3 NOT ADD SLT PUSH2 0x1DA JUMPI PUSH1 0xFF PUSH2 0x1779 PUSH2 0x186A JUMP JUMPDEST AND PUSH1 0x0 MSTORE PUSH1 0x5 PUSH1 0x20 MSTORE PUSH1 0x20 PUSH1 0x40 PUSH1 0x0 KECCAK256 SLOAD PUSH1 0x40 MLOAD SWAP1 DUP2 MSTORE RETURN JUMPDEST CALLVALUE PUSH2 0x1DA JUMPI PUSH1 0x0 CALLDATASIZE PUSH1 0x3 NOT ADD SLT PUSH2 0x1DA JUMPI PUSH1 0x20 PUSH1 0x40 MLOAD PUSH32 0x0 DUP2 MSTORE RETURN JUMPDEST CALLVALUE PUSH2 0x1DA JUMPI PUSH1 0x20 CALLDATASIZE PUSH1 0x3 NOT ADD SLT PUSH2 0x1DA JUMPI PUSH1 0x4 CALLDATALOAD PUSH1 0x1 PUSH1 0x1 PUSH1 0xA0 SHL SUB DUP2 AND SWAP1 DUP2 SWAP1 SUB PUSH2 0x1DA JUMPI PUSH1 0x0 MSTORE PUSH1 0x3 PUSH1 0x20 MSTORE PUSH1 0x20 PUSH1 0xFF PUSH1 0x40 PUSH1 0x0 KECCAK256 SLOAD AND PUSH1 0x40 MLOAD SWAP1 DUP2 MSTORE RETURN JUMPDEST CALLVALUE PUSH2 0x1DA JUMPI PUSH1 0x0 CALLDATASIZE PUSH1 0x3 NOT ADD SLT PUSH2 0x1DA JUMPI PUSH2 0x1827 PUSH2 0x18A6 JUMP JUMPDEST PUSH1 0x40 MLOAD PUSH1 0x4 DUP3 LT ISZERO PUSH2 0xA80 JUMPI PUSH1 0x20 SWAP2 DUP2 MSTORE RETURN JUMPDEST CALLVALUE PUSH2 0x1DA JUMPI PUSH1 0x20 CALLDATASIZE PUSH1 0x3 NOT ADD SLT PUSH2 0x1DA JUMPI PUSH1 0x20 SWAP1 PUSH1 0xFF PUSH2 0x1858 PUSH2 0x186A JUMP JUMPDEST AND PUSH1 0x0 MSTORE PUSH1 0x4 DUP3 MSTORE PUSH1 0x40 PUSH1 0x0 KECCAK256 SLOAD DUP2 MSTORE RETURN JUMPDEST PUSH1 0x4 CALLDATALOAD SWAP1 PUSH1 0xFF DUP3 AND DUP3 SUB PUSH2 0x1DA JUMPI JUMP JUMPDEST PUSH1 0x0 SLOAD PUSH1 0x1 PUSH1 0x1 PUSH1 0xA0 SHL SUB AND CALLER SUB PUSH2 0x188E JUMPI JUMP JUMPDEST PUSH1 0x40 MLOAD PUSH4 0x118CDAA7 PUSH1 0xE0 SHL DUP2 MSTORE CALLER PUSH1 0x4 DUP3 ADD MSTORE PUSH1 0x24 SWAP1 REVERT JUMPDEST PUSH1 0xFF PUSH1 0x7 SLOAD AND PUSH2 0x192E JUMPI PUSH32 0x0 TIMESTAMP LT PUSH2 0x1938 JUMPI PUSH32 0x0 TIMESTAMP GT ISZERO PUSH2 0x1933 JUMPI PUSH1 0x6 SLOAD PUSH32 0x0 GT ISZERO PUSH2 0x192E JUMPI PUSH1 0x3 SWAP1 JUMP JUMPDEST PUSH1 0x2 SWAP1 JUMP JUMPDEST PUSH1 0x1 SWAP1 JUMP JUMPDEST PUSH1 0x0 SWAP1 JUMP JUMPDEST SWAP2 SWAP1 DUP3 ADD DUP1 SWAP3 GT PUSH2 0x913 JUMPI JUMP JUMPDEST SWAP1 PUSH1 0x1F DUP1 NOT SWAP2 ADD AND DUP2 ADD SWAP1 DUP2 LT PUSH8 0xFFFFFFFFFFFFFFFF DUP3 GT OR PUSH2 0x1204 JUMPI PUSH1 0x40 MSTORE JUMP JUMPDEST PUSH1 0x2 PUSH1 0x1 SLOAD EQ PUSH2 0x197D JUMPI PUSH1 0x2 PUSH1 0x1 SSTORE JUMP JUMPDEST PUSH1 0x40 MLOAD PUSH4 0x3EE5AEB5 PUSH1 0xE0 SHL DUP2 MSTORE PUSH1 0x4 SWAP1 REVERT JUMPDEST DUP2 DUP2 MUL SWAP3 SWAP2 DUP2 ISZERO SWAP2 DUP5 DIV EQ OR ISZERO PUSH2 0x913 JUMPI JUMP JUMPDEST DUP2 ISZERO PUSH2 0x19AC JUMPI DIV SWAP1 JUMP JUMPDEST PUSH4 0x4E487B71 PUSH1 0xE0 SHL PUSH1 0x0 MSTORE PUSH1 0x12 PUSH1 0x4 MSTORE PUSH1 0x24 PUSH1 0x0 REVERT JUMPDEST SWAP2 SWAP1 DUP3 SUB SWAP2 DUP3 GT PUSH2 0x913 JUMPI JUMP JUMPDEST SWAP1 PUSH1 0x0 PUSH1 0x20 SWAP2 DUP3 DUP2 MLOAD SWAP2 ADD DUP3 DUP6 GAS CALL ISZERO PUSH2 0x8AF JUMPI PUSH1 0x0 MLOAD RETURNDATASIZE PUSH2 0x1A22 JUMPI POP PUSH1 0x1 PUSH1 0x1 PUSH1 0xA0 SHL SUB DUP2 AND EXTCODESIZE ISZERO JUMPDEST PUSH2 0x1A00 JUMPI POP JUMP JUMPDEST PUSH1 0x40 MLOAD PUSH4 0x5274AFE7 PUSH1 0xE0 SHL DUP2 MSTORE PUSH1 0x1 PUSH1 0x1 PUSH1 0xA0 SHL SUB SWAP1 SWAP2 AND PUSH1 0x4 DUP3 ADD MSTORE PUSH1 0x24 SWAP1 REVERT JUMPDEST PUSH1 0x1 EQ ISZERO PUSH2 0x19F9 JUMP JUMPDEST PUSH1 0x40 MLOAD PUSH4 0xA9059CBB PUSH1 0xE0 SHL PUSH1 0x20 DUP3 ADD MSTORE PUSH1 0x1 PUSH1 0x1 PUSH1 0xA0 SHL SUB SWAP3 SWAP1 SWAP3 AND PUSH1 0x24 DUP4 ADD MSTORE PUSH1 0x44 DUP1 DUP4 ADD SWAP4 SWAP1 SWAP4 MSTORE SWAP2 DUP2 MSTORE PUSH2 0x1A6C SWAP2 PUSH2 0x1A67 PUSH1 0x64 DUP4 PUSH2 0x194A JUMP JUMPDEST PUSH2 0x19CF JUMP JUMPDEST JUMP INVALID LOG2 PUSH5 0x6970667358 0x22 SLT KECCAK256 RETURNDATASIZE 0xF8 NOT 0xD1 0xCA RETURN SGT DUP16 0xE5 SWAP14 0x4E PUSH12 0x4A7633107ED1210F7FDE9F0D PUSH12 0xA830E7EC6FB83064736F6C63 NUMBER STOP ADDMOD EQ STOP CALLER "},"methodIdentifiers":{"SPLIT_BRONZE()":"7c396efa","SPLIT_GOLD()":"c7d01231","SPLIT_SILVER()":"bcc23e6c","TIER_BRONZE()":"3c0847f5","TIER_GOLD()":"e3d3f843","TIER_SILVER()":"9a46e412","claimRefund()":"b5545a3c","claimTokens()":"48c54b9d","claimedHash(address)":"b1d0af70","contribute(bytes32[],uint8,uint256)":"cdfe4be8","contributions(address)":"42e94c90","endTime()":"3197cbb6","finalize()":"4bb278f3","finalizeTime()":"6a03eaf9","finalized()":"b3f05b97","getState()":"1865c57d","hardCap()":"fb86a404","liquidityPercent()":"b0683755","listingRate()":"a20ecbbb","owner()":"8da5cb5b","presaleRate()":"42f39381","renounceOwnership()":"715018a6","router()":"f887ea40","snapshotRoot()":"5fb2266b","softCap()":"906a26e0","startTime()":"78e97925","tierAllocations(uint8)":"3a6089cf","tierTotalRaised(uint8)":"08ed299c","tierVesting(uint8)":"e6c45d4a","token()":"fc0c546a","totalRaised()":"c5c4744c","transferOwnership(address)":"f2fde38b","userTier(address)":"21c7557c","withdrawUnsoldTokens()":"c8bdbfb6"}}}}}