{"contracts/PresaleFactory.sol":{"PresaleFactory":{"abi":[{"inputs":[{"internalType":"address","name":"_tokenLock","type":"address"}],"stateMutability":"nonpayable","type":"constructor"},{"anonymous":false,"inputs":[{"indexed":true,"internalType":"address","name":"presale","type":"address"},{"indexed":true,"internalType":"address","name":"owner","type":"address"},{"indexed":true,"internalType":"address","name":"token","type":"address"}],"name":"PresaleCreated","type":"event"},{"inputs":[{"internalType":"address","name":"_token","type":"address"},{"internalType":"address","name":"_router","type":"address"},{"internalType":"uint256","name":"_softCap","type":"uint256"},{"internalType":"uint256","name":"_hardCap","type":"uint256"},{"internalType":"uint256","name":"_presaleRate","type":"uint256"},{"internalType":"uint256","name":"_listingRate","type":"uint256"},{"internalType":"uint256","name":"_liquidityPercent","type":"uint256"},{"internalType":"uint256","name":"_startTime","type":"uint256"},{"internalType":"uint256","name":"_endTime","type":"uint256"},{"internalType":"uint256","name":"_lockPeriod","type":"uint256"},{"internalType":"uint256","name":"_maxSpendPerBuyer","type":"uint256"},{"internalType":"uint256","name":"_amount","type":"uint256"},{"internalType":"bytes32","name":"_snapshotRoot","type":"bytes32"}],"name":"createPresale","outputs":[{"internalType":"address","name":"","type":"address"}],"stateMutability":"payable","type":"function"},{"inputs":[],"name":"creationFee","outputs":[{"internalType":"uint256","name":"","type":"uint256"}],"stateMutability":"view","type":"function"},{"inputs":[],"name":"owner","outputs":[{"internalType":"address","name":"","type":"address"}],"stateMutability":"view","type":"function"},{"inputs":[],"name":"tokenLock","outputs":[{"internalType":"address","name":"","type":"address"}],"stateMutability":"view","type":"function"}],"evm":{"bytecode":{"linkReferences":{},"object":"60803461008557601f6120c538819003918201601f19168301916001600160401b0383118484101761008a5780849260209460405283398101031261008557516001600160a01b0381169081900361008557662386f26fc1000060025560018060a01b031933816000541617600055600154161760015560405161202490816100a18239f35b600080fd5b634e487b7160e01b600052604160045260246000fdfe60806040818152600436101561001457600080fd5b600091823560e01c9081638da5cb5b1461020b57508063dce0b4e4146101ed578063e21dd3fc146100795763e718234d1461004e57600080fd5b3461007557816003193601126100755760015490516001600160a01b039091168152602090f35b5080fd5b50906101a09182600319360112610075576001600160a01b039260043584811691908290036101e9576024358581168091036101e55760025434106101ae57835191611dbf918284019284841067ffffffffffffffff85111761019a57916101c09391859361023085398683526020830152604435878301526064356060830152608435608083015260a43560a083015260c43560c083015260e43560e08301526101043561010083015261012435610120830152610144356101408301526101643561016083015261018435610180830152339082015203019084f093841561018e5760209416915192827f9f9471d3b3071c040c7e86373d5cc377e941685fd070d61b95eacb58a11e6576339280a48152f35b505051903d90823e3d90fd5b634e487b7160e01b88526041600452602488fd5b835162461bcd60e51b815260206004820152601060248201526f496e73756666696369656e742066656560801b6044820152606490fd5b8480fd5b8380fd5b50346100755781600319360112610075576020906002549051908152f35b83903461007557816003193601126100755790546001600160a01b03168152602090f3fe6101e0346200046f57601f62001dbf38819003918201601f19168301916001600160401b0383118484101762000474578084926101c0946040528339810103126200046f576200004f816200048a565b6200005d602083016200048a565b90604083015160608401519260808501519260a08601519560c08101519660e082015161010083015190610120840151926101608501519861018086015195620000b26101a060018060a01b0392016200048a565b169a8b156200045657600080546001600160a01b031981168e178255604051918e916001600160a01b0316907f8be0079c531659141344cd1fd0a4f28419497f9722a3daafe3b4186f6b6457e09080a3600180556001600160a01b038916156200042457506001600160a01b03891615620003ee5789151580620003e3575b15620003af57428411156200037557838511156200033057603c8d10158062000324575b15620002ea577f99ca98ea2b9c0703b40f7a8692b4c6e79b33cb279174a9046ccf9cf7c4045c129960209960018060a01b038a1660805260018060a01b031660a05260c05260e0526101005261012052610140998a5261016052610180526101a0526101c05260405193845260018060a01b031692a360405161191f9182620004a083396080518281816101b6015281816106e101528181610e4c01528181610eb0015281816110ba015281816110e00152818161112a01526113ed015260a05182818161023b01528181610e0801528181610f030152611057015260c051828181610a4b0152818161123e015261177f015260e0518281816102020152610c3c015261010051828181610c690152818161134301526115210152610120518281816109f40152610dc60152518181816109b901528181610d9b0152610f6a015261016051818181610acb015261172d01526101805181818161121101528181611625015261175401526101a0518181816107a601528181611290015261159a01526101c05181818161051d0152610bc00152f35b60405162461bcd60e51b8152602060048201526012602482015271496e76616c6964206c69717569646974792560701b6044820152606490fd5b5060648d111562000155565b60405162461bcd60e51b815260206004820152601560248201527f456e642074696d65206265666f726520737461727400000000000000000000006044820152606490fd5b60405162461bcd60e51b815260206004820152601260248201527114dd185c9d081d1a5b59481a5b881c185cdd60721b6044820152606490fd5b60405162461bcd60e51b815260206004820152600c60248201526b496e76616c6964206361707360a01b6044820152606490fd5b50808a111562000131565b60405162461bcd60e51b815260206004820152600e60248201526d24b73b30b634b2103937baba32b960911b6044820152606490fd5b62461bcd60e51b815260206004820152600d60248201526c24b73b30b634b2103a37b5b2b760991b6044820152606490fd5b604051631e4fbdf760e01b815260006004820152602490fd5b600080fd5b634e487b7160e01b600052604160045260246000fd5b51906001600160a01b03821682036200046f5756fe608080604052600436101561001357600080fd5b60003560e01c90816308ed299c146116b5575080631865c57d1461168957806321c7557c146116485780633197cbb61461160d5780633a6089cf146115d95780633c0847f5146115bd5780633fd8b02f1461158257806342e94c901461154457806342f393811461150957806348c54b9d146112645780634bb278f314610be35780635fb2266b14610ba85780636a03eaf914610b8a578063715018a614610b3157806373b2e80e14610aee57806378e9792514610ab35780637c396efa14610a975780638da5cb5b14610a6e578063906a26e014610a335780639a46e41214610a17578063a20ecbbb146109dc578063b0683755146109a1578063b3f05b971461097e578063b5545a3c14610867578063bcc23e6c1461084b578063c342381e1461082f578063c5c4744c14610811578063c7d01231146107f5578063c8bdbfb61461069a578063cdfe4be814610316578063e3d3f843146102fa578063f2fde38b1461026a578063f887ea4014610225578063fb86a404146101ea5763fc0c546a146101a057600080fd5b346101e55760003660031901126101e5576040517f00000000000000000000000000000000000000000000000000000000000000006001600160a01b03168152602090f35b600080fd5b346101e55760003660031901126101e55760206040517f00000000000000000000000000000000000000000000000000000000000000008152f35b346101e55760003660031901126101e5576040517f00000000000000000000000000000000000000000000000000000000000000006001600160a01b03168152602090f35b346101e55760203660031901126101e5576004356001600160a01b03818116918290036101e5576102996116f5565b81156102e157600054826bffffffffffffffffffffffff60a01b821617600055167f8be0079c531659141344cd1fd0a4f28419497f9722a3daafe3b4186f6b6457e0600080a3005b604051631e4fbdf760e01b815260006004820152602490fd5b346101e55760003660031901126101e557602060405160038152f35b60603660031901126101e55767ffffffffffffffff6004358181116101e557366023820112156101e5578060040135908282116101e557600582811b916024908184820101953687116101e55782359160ff8316968784036101e5576044359661037e6117e7565b610386611721565b9960048b1015610685576001809b0361064e573415610615576000546001600160a01b031633036104a1575b50505050505033600052602092600884526103d2346040600020546117da565b116104655750336000526008825260406000206103f03482546117da565b90556103fd3482546117da565b9055816000526002815260406000206104173482546117da565b9055336000526004815260406000208260ff1982541617905560405191825234908201527f6202e363b9b07bd49964490f5cd955af47c94fffc29054855e24d451a753851a60403392a28055005b8260166064926040519262461bcd60e51b845260048401528201527522bc31b2b2b2399036b0bc1030b63637b1b0ba34b7b760511b6044820152fd5b60405192602096878501903360601b825260ff60f81b9060f81b1660348601528a60358601526035855260608501968588109088111761060057906104f6888e979695949389604052865190209401886117b8565b86526080938801878486015b8383106105ed5750505050936000935b610584575b505050507f00000000000000000000000000000000000000000000000000000000000000000361054b5780808080806103b2565b60146064926040519262461bcd60e51b845260048401528201527324b73b30b634b21026b2b935b63290283937b7b360611b6044820152fd5b9091929381518510156105e75784881b830184015190818110156105d757600052855260406000205b9360001981146105c2578a019291908a610512565b86634e487b7160e01b60005260116004526000fd5b90600052855260406000206105ad565b93610517565b823581528e975091810191899101610502565b88634e487b7160e01b60005260416004526000fd5b60405162461bcd60e51b815260206004820152601281890152710416d6f756e74206d757374206265203e20360741b6044820152606490fd5b60405162461bcd60e51b8152602060048201526010818901526f50726573616c65206e6f74206c69766560801b6044820152606490fd5b86634e487b7160e01b60005260216004526000fd5b346101e55760003660031901126101e5576106b36116f5565b60ff600654168061079d575b1561076c576040516370a0823160e01b81523060048201526001600160a01b037f00000000000000000000000000000000000000000000000000000000000000006020836024818585165afa9182156107605760009261072b575b610729935060005416906118a6565b005b91506020833d8211610758575b81610745602093836117b8565b810103126101e55761072992519161071a565b3d9150610738565b6040513d6000823e3d90fd5b60405162461bcd60e51b8152602060048201526009602482015268546f6f206561726c7960b81b6044820152606490fd5b506107cb6007547f0000000000000000000000000000000000000000000000000000000000000000906117da565b62278d0081018091116107df5742116106bf565b634e487b7160e01b600052601160045260246000fd5b346101e55760003660031901126101e557602060405160148152f35b346101e55760003660031901126101e5576020600554604051908152f35b346101e55760003660031901126101e5576020604051603c8152f35b346101e55760003660031901126101e5576020604051601e8152f35b346101e55760003660031901126101e5576108806117e7565b610888611721565b6004811015610968576003036109365733600052600860205260406000205480156108fd57336000526008602052600060408120556000808080843382f115610760576040519081527f358fe4192934d3bf28ae181feda1f4bd08ca67f5e2fad55582cce5eb67304ae960203392a260018055005b60405162461bcd60e51b8152602060048201526011602482015270139bdd1a1a5b99c81d1bc81c99599d5b99607a1b6044820152606490fd5b60405162461bcd60e51b815260206004820152600a602482015269139bdd0819985a5b195960b21b6044820152606490fd5b634e487b7160e01b600052602160045260246000fd5b346101e55760003660031901126101e557602060ff600654166040519015158152f35b346101e55760003660031901126101e55760206040517f00000000000000000000000000000000000000000000000000000000000000008152f35b346101e55760003660031901126101e55760206040517f00000000000000000000000000000000000000000000000000000000000000008152f35b346101e55760003660031901126101e557602060405160028152f35b346101e55760003660031901126101e55760206040517f00000000000000000000000000000000000000000000000000000000000000008152f35b346101e55760003660031901126101e5576000546040516001600160a01b039091168152602090f35b346101e55760003660031901126101e557602060405160328152f35b346101e55760003660031901126101e55760206040517f00000000000000000000000000000000000000000000000000000000000000008152f35b346101e55760203660031901126101e5576004356001600160a01b038116908190036101e5576000526009602052602060ff604060002054166040519015158152f35b346101e55760003660031901126101e557610b4a6116f5565b600080546001600160a01b0319811682556001600160a01b03167f8be0079c531659141344cd1fd0a4f28419497f9722a3daafe3b4186f6b6457e08280a3005b346101e55760003660031901126101e5576020600754604051908152f35b346101e55760003660031901126101e55760206040517f00000000000000000000000000000000000000000000000000000000000000008152f35b346101e55760003660031901126101e557610bfc6117e7565b610c04611721565b6004811015610968576002809114801561120e575b156111d75760065460ff811661119e5760ff1916600117600655426007556005547f000000000000000000000000000000000000000000000000000000000000000090818111156111965750905b7f0000000000000000000000000000000000000000000000000000000000000000610c92818461180a565b9060148202918015928181046014148417156107df576064900490601e810293818504601e1417156107df57604094610cdb8392610cd6606489980495869261183d565b61183d565b93600360005281602052610d09610cf682886000205461180a565b918360005283602052876000205461180a565b90838110611180575b509285929360036000526003602052848460002055818110611165575b5081600052600360205280836000205560016000528483600020558251936003855260208501527fe9c096f207492e79c93ffb021d220c180b64c8a54eb958748efacc2b7a38d84f80978195a182519182526020820152a1815190600182526020820152a16064610dc07f00000000000000000000000000000000000000000000000000000000000000008361180a565b04610deb7f00000000000000000000000000000000000000000000000000000000000000008261180a565b60405163095ea7b360e01b60208083019182526001600160a01b037f00000000000000000000000000000000000000000000000000000000000000001660248401526044808401859052835290600090610e466064856117b8565b835190827f00000000000000000000000000000000000000000000000000000000000000005af16000513d82611120575b505015611045575b506000546001600160a01b03164261025881019081106107df576040519163f305d71960e01b835260018060a01b037f00000000000000000000000000000000000000000000000000000000000000001660048401528360248401526000604484015260006064840152608483015260a482015260608160c4818660018060a01b037f0000000000000000000000000000000000000000000000000000000000000000165af1908161101a575b50610fdb575060008080809360018060a01b03825416828215610fd2575bf115610760575b610f6747610f618360055461183d565b9061183d565b507f000000000000000000000000000000000000000000000000000000000000000060640390606482116107df576000806064610fa68295839561180a565b8254919004906001600160a01b0316828215610fc9575bf1156107605760018055005b506108fc610fbd565b506108fc610f4a565b7fd4294f2e03dfa3f368c60ae6950d6e90c37101953b6aa279269459a9517f106e916060916005549160405192835260208301526040820152a1610f51565b606090813d811161103e575b61103081836117b8565b810103126101e55784610f2c565b503d611026565b60405163095ea7b360e01b60208201527f00000000000000000000000000000000000000000000000000000000000000006001600160a01b03166024820152600060448083019190915281529067ffffffffffffffff608083019081119083111761110a576110de82608061110494016040527f000000000000000000000000000000000000000000000000000000000000000061184a565b7f000000000000000000000000000000000000000000000000000000000000000061184a565b83610e7f565b634e487b7160e01b600052604160045260246000fd5b90915061115d57507f00000000000000000000000000000000000000000000000000000000000000006001600160a01b03163b15155b8580610e77565b600114611156565b611172816111799361183d565b90956117da565b9388610d2f565b8061117261118f92899661183d565b9392610d12565b905090610c67565b60405162461bcd60e51b8152602060048201526011602482015270105b1c9958591e48199a5b985b1a5e9959607a1b6044820152606490fd5b60405162461bcd60e51b815260206004820152600f60248201526e43616e6e6f742066696e616c697a6560881b6044820152606490fd5b507f000000000000000000000000000000000000000000000000000000000000000042118015610c1957506005547f00000000000000000000000000000000000000000000000000000000000000001115610c19565b346101e55760003660031901126101e55761127d6117e7565b60ff60065416156114d4576112b56007547f0000000000000000000000000000000000000000000000000000000000000000906117da565b421061149b57336000526020600881526040600020541561146557336000526009815260ff6040600020541661142f5733600052600981526040600020600160ff198254161790556004815260ff6040600020541660088252604060002054906000526002825261133d604060002054600384526113386040600020548461180a565b61181d565b916113697f0000000000000000000000000000000000000000000000000000000000000000809361180a565b9183600093808210611416575b5090506113e6575b81801580156113bf575b50506040519283528201527f9923b4306c6c030f2bdfbf156517d5983b87e15b96176da122cd4f2effa4ba7b60403392a260018055005b6000906113dd575b600080809381933390f115610760578184611388565b506108fc6113c7565b61141183337f00000000000000000000000000000000000000000000000000000000000000006118a6565b61137e565b611426939450906113389161183d565b90838381611376565b6064906040519062461bcd60e51b82526004820152600f60248201526e105b1c9958591e4818db185a5b5959608a1b6044820152fd5b6064906040519062461bcd60e51b82526004820152600f60248201526e27379031b7b73a3934b13aba34b7b760891b6044820152fd5b60405162461bcd60e51b8152602060048201526011602482015270151bdad95b9cc8185c99481b1bd8dad959607a1b6044820152606490fd5b60405162461bcd60e51b815260206004820152600d60248201526c139bdd08199a5b985b1a5e9959609a1b6044820152606490fd5b346101e55760003660031901126101e55760206040517f00000000000000000000000000000000000000000000000000000000000000008152f35b346101e55760203660031901126101e5576004356001600160a01b038116908190036101e55760005260086020526020604060002054604051908152f35b346101e55760003660031901126101e55760206040517f00000000000000000000000000000000000000000000000000000000000000008152f35b346101e55760003660031901126101e557602060405160018152f35b346101e55760203660031901126101e55760ff6115f46116e5565b1660005260036020526020604060002054604051908152f35b346101e55760003660031901126101e55760206040517f00000000000000000000000000000000000000000000000000000000000000008152f35b346101e55760203660031901126101e5576004356001600160a01b038116908190036101e5576000526004602052602060ff60406000205416604051908152f35b346101e55760003660031901126101e5576116a2611721565b6040516004821015610968576020918152f35b346101e55760203660031901126101e55760209060ff6116d36116e5565b16600052600282526040600020548152f35b6004359060ff821682036101e557565b6000546001600160a01b0316330361170957565b60405163118cdaa760e01b8152336004820152602490fd5b60ff600654166117a9577f000000000000000000000000000000000000000000000000000000000000000042106117b3577f00000000000000000000000000000000000000000000000000000000000000004211156117ae576005547f000000000000000000000000000000000000000000000000000000000000000011156117a957600390565b600290565b600190565b600090565b90601f8019910116810190811067ffffffffffffffff82111761110a57604052565b919082018092116107df57565b6002600154146117f8576002600155565b604051633ee5aeb560e01b8152600490fd5b818102929181159184041417156107df57565b8115611827570490565b634e487b7160e01b600052601260045260246000fd5b919082039182116107df57565b906000602091828151910182855af115610760576000513d61189d57506001600160a01b0381163b155b61187b5750565b604051635274afe760e01b81526001600160a01b039091166004820152602490fd5b60011415611874565b60405163a9059cbb60e01b60208201526001600160a01b039290921660248301526044808301939093529181526118e7916118e26064836117b8565b61184a565b56fea2646970667358221220ccdc1f30b9c2f00d5004179d03009acfa021f920e8d70d946460d3da9f3f32fd64736f6c63430008140033a26469706673582212204992ccbd4cdfca7f86c2b8afa1ee2bb619ae8681e19a1d47aad4e9ed911bb95f64736f6c63430008140033","opcodes":"PUSH1 0x80 CALLVALUE PUSH2 0x85 JUMPI PUSH1 0x1F PUSH2 0x20C5 CODESIZE DUP2 SWAP1 SUB SWAP2 DUP3 ADD PUSH1 0x1F NOT AND DUP4 ADD SWAP2 PUSH1 0x1 PUSH1 0x1 PUSH1 0x40 SHL SUB DUP4 GT DUP5 DUP5 LT OR PUSH2 0x8A JUMPI DUP1 DUP5 SWAP3 PUSH1 0x20 SWAP5 PUSH1 0x40 MSTORE DUP4 CODECOPY DUP2 ADD SUB SLT PUSH2 0x85 JUMPI MLOAD PUSH1 0x1 PUSH1 0x1 PUSH1 0xA0 SHL SUB DUP2 AND SWAP1 DUP2 SWAP1 SUB PUSH2 0x85 JUMPI PUSH7 0x2386F26FC10000 PUSH1 0x2 SSTORE PUSH1 0x1 DUP1 PUSH1 0xA0 SHL SUB NOT CALLER DUP2 PUSH1 0x0 SLOAD AND OR PUSH1 0x0 SSTORE PUSH1 0x1 SLOAD AND OR PUSH1 0x1 SSTORE PUSH1 0x40 MLOAD PUSH2 0x2024 SWAP1 DUP2 PUSH2 0xA1 DUP3 CODECOPY RETURN JUMPDEST PUSH1 0x0 DUP1 REVERT JUMPDEST PUSH4 0x4E487B71 PUSH1 0xE0 SHL PUSH1 0x0 MSTORE PUSH1 0x41 PUSH1 0x4 MSTORE PUSH1 0x24 PUSH1 0x0 REVERT INVALID PUSH1 0x80 PUSH1 0x40 DUP2 DUP2 MSTORE PUSH1 0x4 CALLDATASIZE LT ISZERO PUSH2 0x14 JUMPI PUSH1 0x0 DUP1 REVERT JUMPDEST PUSH1 0x0 SWAP2 DUP3 CALLDATALOAD PUSH1 0xE0 SHR SWAP1 DUP2 PUSH4 0x8DA5CB5B EQ PUSH2 0x20B JUMPI POP DUP1 PUSH4 0xDCE0B4E4 EQ PUSH2 0x1ED JUMPI DUP1 PUSH4 0xE21DD3FC EQ PUSH2 0x79 JUMPI PUSH4 0xE718234D EQ PUSH2 0x4E JUMPI PUSH1 0x0 DUP1 REVERT JUMPDEST CALLVALUE PUSH2 0x75 JUMPI DUP2 PUSH1 0x3 NOT CALLDATASIZE ADD SLT PUSH2 0x75 JUMPI PUSH1 0x1 SLOAD SWAP1 MLOAD PUSH1 0x1 PUSH1 0x1 PUSH1 0xA0 SHL SUB SWAP1 SWAP2 AND DUP2 MSTORE PUSH1 0x20 SWAP1 RETURN JUMPDEST POP DUP1 REVERT JUMPDEST POP SWAP1 PUSH2 0x1A0 SWAP2 DUP3 PUSH1 0x3 NOT CALLDATASIZE ADD SLT PUSH2 0x75 JUMPI PUSH1 0x1 PUSH1 0x1 PUSH1 0xA0 SHL SUB SWAP3 PUSH1 0x4 CALLDATALOAD DUP5 DUP2 AND SWAP2 SWAP1 DUP3 SWAP1 SUB PUSH2 0x1E9 JUMPI PUSH1 0x24 CALLDATALOAD DUP6 DUP2 AND DUP1 SWAP2 SUB PUSH2 0x1E5 JUMPI PUSH1 0x2 SLOAD CALLVALUE LT PUSH2 0x1AE JUMPI DUP4 MLOAD SWAP2 PUSH2 0x1DBF SWAP2 DUP3 DUP5 ADD SWAP3 DUP5 DUP5 LT PUSH8 0xFFFFFFFFFFFFFFFF DUP6 GT OR PUSH2 0x19A JUMPI SWAP2 PUSH2 0x1C0 SWAP4 SWAP2 DUP6 SWAP4 PUSH2 0x230 DUP6 CODECOPY DUP7 DUP4 MSTORE PUSH1 0x20 DUP4 ADD MSTORE PUSH1 0x44 CALLDATALOAD DUP8 DUP4 ADD MSTORE PUSH1 0x64 CALLDATALOAD PUSH1 0x60 DUP4 ADD MSTORE PUSH1 0x84 CALLDATALOAD PUSH1 0x80 DUP4 ADD MSTORE PUSH1 0xA4 CALLDATALOAD PUSH1 0xA0 DUP4 ADD MSTORE PUSH1 0xC4 CALLDATALOAD PUSH1 0xC0 DUP4 ADD MSTORE PUSH1 0xE4 CALLDATALOAD PUSH1 0xE0 DUP4 ADD MSTORE PUSH2 0x104 CALLDATALOAD PUSH2 0x100 DUP4 ADD MSTORE PUSH2 0x124 CALLDATALOAD PUSH2 0x120 DUP4 ADD MSTORE PUSH2 0x144 CALLDATALOAD PUSH2 0x140 DUP4 ADD MSTORE PUSH2 0x164 CALLDATALOAD PUSH2 0x160 DUP4 ADD MSTORE PUSH2 0x184 CALLDATALOAD PUSH2 0x180 DUP4 ADD MSTORE CALLER SWAP1 DUP3 ADD MSTORE SUB ADD SWAP1 DUP5 CREATE SWAP4 DUP5 ISZERO PUSH2 0x18E JUMPI PUSH1 0x20 SWAP5 AND SWAP2 MLOAD SWAP3 DUP3 PUSH32 0x9F9471D3B3071C040C7E86373D5CC377E941685FD070D61B95EACB58A11E6576 CALLER SWAP3 DUP1 LOG4 DUP2 MSTORE RETURN JUMPDEST POP POP MLOAD SWAP1 RETURNDATASIZE SWAP1 DUP3 RETURNDATACOPY RETURNDATASIZE SWAP1 REVERT JUMPDEST PUSH4 0x4E487B71 PUSH1 0xE0 SHL DUP9 MSTORE PUSH1 0x41 PUSH1 0x4 MSTORE PUSH1 0x24 DUP9 REVERT JUMPDEST DUP4 MLOAD PUSH3 0x461BCD PUSH1 0xE5 SHL DUP2 MSTORE PUSH1 0x20 PUSH1 0x4 DUP3 ADD MSTORE PUSH1 0x10 PUSH1 0x24 DUP3 ADD MSTORE PUSH16 0x496E73756666696369656E7420666565 PUSH1 0x80 SHL PUSH1 0x44 DUP3 ADD MSTORE PUSH1 0x64 SWAP1 REVERT JUMPDEST DUP5 DUP1 REVERT JUMPDEST DUP4 DUP1 REVERT JUMPDEST POP CALLVALUE PUSH2 0x75 JUMPI DUP2 PUSH1 0x3 NOT CALLDATASIZE ADD SLT PUSH2 0x75 JUMPI PUSH1 0x20 SWAP1 PUSH1 0x2 SLOAD SWAP1 MLOAD SWAP1 DUP2 MSTORE RETURN JUMPDEST DUP4 SWAP1 CALLVALUE PUSH2 0x75 JUMPI DUP2 PUSH1 0x3 NOT CALLDATASIZE ADD SLT PUSH2 0x75 JUMPI SWAP1 SLOAD PUSH1 0x1 PUSH1 0x1 PUSH1 0xA0 SHL SUB AND DUP2 MSTORE PUSH1 0x20 SWAP1 RETURN INVALID PUSH2 0x1E0 CALLVALUE PUSH3 0x46F JUMPI PUSH1 0x1F PUSH3 0x1DBF CODESIZE DUP2 SWAP1 SUB SWAP2 DUP3 ADD PUSH1 0x1F NOT AND DUP4 ADD SWAP2 PUSH1 0x1 PUSH1 0x1 PUSH1 0x40 SHL SUB DUP4 GT DUP5 DUP5 LT OR PUSH3 0x474 JUMPI DUP1 DUP5 SWAP3 PUSH2 0x1C0 SWAP5 PUSH1 0x40 MSTORE DUP4 CODECOPY DUP2 ADD SUB SLT PUSH3 0x46F JUMPI PUSH3 0x4F DUP2 PUSH3 0x48A JUMP JUMPDEST PUSH3 0x5D PUSH1 0x20 DUP4 ADD PUSH3 0x48A JUMP JUMPDEST SWAP1 PUSH1 0x40 DUP4 ADD MLOAD PUSH1 0x60 DUP5 ADD MLOAD SWAP3 PUSH1 0x80 DUP6 ADD MLOAD SWAP3 PUSH1 0xA0 DUP7 ADD MLOAD SWAP6 PUSH1 0xC0 DUP2 ADD MLOAD SWAP7 PUSH1 0xE0 DUP3 ADD MLOAD PUSH2 0x100 DUP4 ADD MLOAD SWAP1 PUSH2 0x120 DUP5 ADD MLOAD SWAP3 PUSH2 0x160 DUP6 ADD MLOAD SWAP9 PUSH2 0x180 DUP7 ADD MLOAD SWAP6 PUSH3 0xB2 PUSH2 0x1A0 PUSH1 0x1 DUP1 PUSH1 0xA0 SHL SUB SWAP3 ADD PUSH3 0x48A JUMP JUMPDEST AND SWAP11 DUP12 ISZERO PUSH3 0x456 JUMPI PUSH1 0x0 DUP1 SLOAD PUSH1 0x1 PUSH1 0x1 PUSH1 0xA0 SHL SUB NOT DUP2 AND DUP15 OR DUP3 SSTORE PUSH1 0x40 MLOAD SWAP2 DUP15 SWAP2 PUSH1 0x1 PUSH1 0x1 PUSH1 0xA0 SHL SUB AND SWAP1 PUSH32 0x8BE0079C531659141344CD1FD0A4F28419497F9722A3DAAFE3B4186F6B6457E0 SWAP1 DUP1 LOG3 PUSH1 0x1 DUP1 SSTORE PUSH1 0x1 PUSH1 0x1 PUSH1 0xA0 SHL SUB DUP10 AND ISZERO PUSH3 0x424 JUMPI POP PUSH1 0x1 PUSH1 0x1 PUSH1 0xA0 SHL SUB DUP10 AND ISZERO PUSH3 0x3EE JUMPI DUP10 ISZERO ISZERO DUP1 PUSH3 0x3E3 JUMPI JUMPDEST ISZERO PUSH3 0x3AF JUMPI TIMESTAMP DUP5 GT ISZERO PUSH3 0x375 JUMPI DUP4 DUP6 GT ISZERO PUSH3 0x330 JUMPI PUSH1 0x3C DUP14 LT ISZERO DUP1 PUSH3 0x324 JUMPI JUMPDEST ISZERO PUSH3 0x2EA JUMPI PUSH32 0x99CA98EA2B9C0703B40F7A8692B4C6E79B33CB279174A9046CCF9CF7C4045C12 SWAP10 PUSH1 0x20 SWAP10 PUSH1 0x1 DUP1 PUSH1 0xA0 SHL SUB DUP11 AND PUSH1 0x80 MSTORE PUSH1 0x1 DUP1 PUSH1 0xA0 SHL SUB AND PUSH1 0xA0 MSTORE PUSH1 0xC0 MSTORE PUSH1 0xE0 MSTORE PUSH2 0x100 MSTORE PUSH2 0x120 MSTORE PUSH2 0x140 SWAP10 DUP11 MSTORE PUSH2 0x160 MSTORE PUSH2 0x180 MSTORE PUSH2 0x1A0 MSTORE PUSH2 0x1C0 MSTORE PUSH1 0x40 MLOAD SWAP4 DUP5 MSTORE PUSH1 0x1 DUP1 PUSH1 0xA0 SHL SUB AND SWAP3 LOG3 PUSH1 0x40 MLOAD PUSH2 0x191F SWAP2 DUP3 PUSH3 0x4A0 DUP4 CODECOPY PUSH1 0x80 MLOAD DUP3 DUP2 DUP2 PUSH2 0x1B6 ADD MSTORE DUP2 DUP2 PUSH2 0x6E1 ADD MSTORE DUP2 DUP2 PUSH2 0xE4C ADD MSTORE DUP2 DUP2 PUSH2 0xEB0 ADD MSTORE DUP2 DUP2 PUSH2 0x10BA ADD MSTORE DUP2 DUP2 PUSH2 0x10E0 ADD MSTORE DUP2 DUP2 PUSH2 0x112A ADD MSTORE PUSH2 0x13ED ADD MSTORE PUSH1 0xA0 MLOAD DUP3 DUP2 DUP2 PUSH2 0x23B ADD MSTORE DUP2 DUP2 PUSH2 0xE08 ADD MSTORE DUP2 DUP2 PUSH2 0xF03 ADD MSTORE PUSH2 0x1057 ADD MSTORE PUSH1 0xC0 MLOAD DUP3 DUP2 DUP2 PUSH2 0xA4B ADD MSTORE DUP2 DUP2 PUSH2 0x123E ADD MSTORE PUSH2 0x177F ADD MSTORE PUSH1 0xE0 MLOAD DUP3 DUP2 DUP2 PUSH2 0x202 ADD MSTORE PUSH2 0xC3C ADD MSTORE PUSH2 0x100 MLOAD DUP3 DUP2 DUP2 PUSH2 0xC69 ADD MSTORE DUP2 DUP2 PUSH2 0x1343 ADD MSTORE PUSH2 0x1521 ADD MSTORE PUSH2 0x120 MLOAD DUP3 DUP2 DUP2 PUSH2 0x9F4 ADD MSTORE PUSH2 0xDC6 ADD MSTORE MLOAD DUP2 DUP2 DUP2 PUSH2 0x9B9 ADD MSTORE DUP2 DUP2 PUSH2 0xD9B ADD MSTORE PUSH2 0xF6A ADD MSTORE PUSH2 0x160 MLOAD DUP2 DUP2 DUP2 PUSH2 0xACB ADD MSTORE PUSH2 0x172D ADD MSTORE PUSH2 0x180 MLOAD DUP2 DUP2 DUP2 PUSH2 0x1211 ADD MSTORE DUP2 DUP2 PUSH2 0x1625 ADD MSTORE PUSH2 0x1754 ADD MSTORE PUSH2 0x1A0 MLOAD DUP2 DUP2 DUP2 PUSH2 0x7A6 ADD MSTORE DUP2 DUP2 PUSH2 0x1290 ADD MSTORE PUSH2 0x159A ADD MSTORE PUSH2 0x1C0 MLOAD DUP2 DUP2 DUP2 PUSH2 0x51D ADD MSTORE PUSH2 0xBC0 ADD MSTORE RETURN JUMPDEST PUSH1 0x40 MLOAD PUSH3 0x461BCD PUSH1 0xE5 SHL DUP2 MSTORE PUSH1 0x20 PUSH1 0x4 DUP3 ADD MSTORE PUSH1 0x12 PUSH1 0x24 DUP3 ADD MSTORE PUSH18 0x496E76616C6964206C697175696469747925 PUSH1 0x70 SHL PUSH1 0x44 DUP3 ADD MSTORE PUSH1 0x64 SWAP1 REVERT JUMPDEST POP PUSH1 0x64 DUP14 GT ISZERO PUSH3 0x155 JUMP JUMPDEST PUSH1 0x40 MLOAD PUSH3 0x461BCD PUSH1 0xE5 SHL DUP2 MSTORE PUSH1 0x20 PUSH1 0x4 DUP3 ADD MSTORE PUSH1 0x15 PUSH1 0x24 DUP3 ADD MSTORE PUSH32 0x456E642074696D65206265666F72652073746172740000000000000000000000 PUSH1 0x44 DUP3 ADD MSTORE PUSH1 0x64 SWAP1 REVERT JUMPDEST PUSH1 0x40 MLOAD PUSH3 0x461BCD PUSH1 0xE5 SHL DUP2 MSTORE PUSH1 0x20 PUSH1 0x4 DUP3 ADD MSTORE PUSH1 0x12 PUSH1 0x24 DUP3 ADD MSTORE PUSH18 0x14DD185C9D081D1A5B59481A5B881C185CDD PUSH1 0x72 SHL PUSH1 0x44 DUP3 ADD MSTORE PUSH1 0x64 SWAP1 REVERT JUMPDEST PUSH1 0x40 MLOAD PUSH3 0x461BCD PUSH1 0xE5 SHL DUP2 MSTORE PUSH1 0x20 PUSH1 0x4 DUP3 ADD MSTORE PUSH1 0xC PUSH1 0x24 DUP3 ADD MSTORE PUSH12 0x496E76616C69642063617073 PUSH1 0xA0 SHL PUSH1 0x44 DUP3 ADD MSTORE PUSH1 0x64 SWAP1 REVERT JUMPDEST POP DUP1 DUP11 GT ISZERO PUSH3 0x131 JUMP JUMPDEST PUSH1 0x40 MLOAD PUSH3 0x461BCD PUSH1 0xE5 SHL DUP2 MSTORE PUSH1 0x20 PUSH1 0x4 DUP3 ADD MSTORE PUSH1 0xE PUSH1 0x24 DUP3 ADD MSTORE PUSH14 0x24B73B30B634B2103937BABA32B9 PUSH1 0x91 SHL PUSH1 0x44 DUP3 ADD MSTORE PUSH1 0x64 SWAP1 REVERT JUMPDEST PUSH3 0x461BCD PUSH1 0xE5 SHL DUP2 MSTORE PUSH1 0x20 PUSH1 0x4 DUP3 ADD MSTORE PUSH1 0xD PUSH1 0x24 DUP3 ADD MSTORE PUSH13 0x24B73B30B634B2103A37B5B2B7 PUSH1 0x99 SHL PUSH1 0x44 DUP3 ADD MSTORE PUSH1 0x64 SWAP1 REVERT JUMPDEST PUSH1 0x40 MLOAD PUSH4 0x1E4FBDF7 PUSH1 0xE0 SHL DUP2 MSTORE PUSH1 0x0 PUSH1 0x4 DUP3 ADD MSTORE PUSH1 0x24 SWAP1 REVERT JUMPDEST PUSH1 0x0 DUP1 REVERT JUMPDEST PUSH4 0x4E487B71 PUSH1 0xE0 SHL PUSH1 0x0 MSTORE PUSH1 0x41 PUSH1 0x4 MSTORE PUSH1 0x24 PUSH1 0x0 REVERT JUMPDEST MLOAD SWAP1 PUSH1 0x1 PUSH1 0x1 PUSH1 0xA0 SHL SUB DUP3 AND DUP3 SUB PUSH3 0x46F JUMPI JUMP INVALID PUSH1 0x80 DUP1 PUSH1 0x40 MSTORE PUSH1 0x4 CALLDATASIZE LT ISZERO PUSH2 0x13 JUMPI PUSH1 0x0 DUP1 REVERT JUMPDEST PUSH1 0x0 CALLDATALOAD PUSH1 0xE0 SHR SWAP1 DUP2 PUSH4 0x8ED299C EQ PUSH2 0x16B5 JUMPI POP DUP1 PUSH4 0x1865C57D EQ PUSH2 0x1689 JUMPI DUP1 PUSH4 0x21C7557C EQ PUSH2 0x1648 JUMPI DUP1 PUSH4 0x3197CBB6 EQ PUSH2 0x160D JUMPI DUP1 PUSH4 0x3A6089CF EQ PUSH2 0x15D9 JUMPI DUP1 PUSH4 0x3C0847F5 EQ PUSH2 0x15BD JUMPI DUP1 PUSH4 0x3FD8B02F EQ PUSH2 0x1582 JUMPI DUP1 PUSH4 0x42E94C90 EQ PUSH2 0x1544 JUMPI DUP1 PUSH4 0x42F39381 EQ PUSH2 0x1509 JUMPI DUP1 PUSH4 0x48C54B9D EQ PUSH2 0x1264 JUMPI DUP1 PUSH4 0x4BB278F3 EQ PUSH2 0xBE3 JUMPI DUP1 PUSH4 0x5FB2266B EQ PUSH2 0xBA8 JUMPI DUP1 PUSH4 0x6A03EAF9 EQ PUSH2 0xB8A JUMPI DUP1 PUSH4 0x715018A6 EQ PUSH2 0xB31 JUMPI DUP1 PUSH4 0x73B2E80E EQ PUSH2 0xAEE JUMPI DUP1 PUSH4 0x78E97925 EQ PUSH2 0xAB3 JUMPI DUP1 PUSH4 0x7C396EFA EQ PUSH2 0xA97 JUMPI DUP1 PUSH4 0x8DA5CB5B EQ PUSH2 0xA6E JUMPI DUP1 PUSH4 0x906A26E0 EQ PUSH2 0xA33 JUMPI DUP1 PUSH4 0x9A46E412 EQ PUSH2 0xA17 JUMPI DUP1 PUSH4 0xA20ECBBB EQ PUSH2 0x9DC JUMPI DUP1 PUSH4 0xB0683755 EQ PUSH2 0x9A1 JUMPI DUP1 PUSH4 0xB3F05B97 EQ PUSH2 0x97E JUMPI DUP1 PUSH4 0xB5545A3C EQ PUSH2 0x867 JUMPI DUP1 PUSH4 0xBCC23E6C EQ PUSH2 0x84B JUMPI DUP1 PUSH4 0xC342381E EQ PUSH2 0x82F JUMPI DUP1 PUSH4 0xC5C4744C EQ PUSH2 0x811 JUMPI DUP1 PUSH4 0xC7D01231 EQ PUSH2 0x7F5 JUMPI DUP1 PUSH4 0xC8BDBFB6 EQ PUSH2 0x69A JUMPI DUP1 PUSH4 0xCDFE4BE8 EQ PUSH2 0x316 JUMPI DUP1 PUSH4 0xE3D3F843 EQ PUSH2 0x2FA JUMPI DUP1 PUSH4 0xF2FDE38B EQ PUSH2 0x26A JUMPI DUP1 PUSH4 0xF887EA40 EQ PUSH2 0x225 JUMPI DUP1 PUSH4 0xFB86A404 EQ PUSH2 0x1EA JUMPI PUSH4 0xFC0C546A EQ PUSH2 0x1A0 JUMPI PUSH1 0x0 DUP1 REVERT JUMPDEST CALLVALUE PUSH2 0x1E5 JUMPI PUSH1 0x0 CALLDATASIZE PUSH1 0x3 NOT ADD SLT PUSH2 0x1E5 JUMPI PUSH1 0x40 MLOAD PUSH32 0x0 PUSH1 0x1 PUSH1 0x1 PUSH1 0xA0 SHL SUB AND DUP2 MSTORE PUSH1 0x20 SWAP1 RETURN JUMPDEST PUSH1 0x0 DUP1 REVERT JUMPDEST CALLVALUE PUSH2 0x1E5 JUMPI PUSH1 0x0 CALLDATASIZE PUSH1 0x3 NOT ADD SLT PUSH2 0x1E5 JUMPI PUSH1 0x20 PUSH1 0x40 MLOAD PUSH32 0x0 DUP2 MSTORE RETURN JUMPDEST CALLVALUE PUSH2 0x1E5 JUMPI PUSH1 0x0 CALLDATASIZE PUSH1 0x3 NOT ADD SLT PUSH2 0x1E5 JUMPI PUSH1 0x40 MLOAD PUSH32 0x0 PUSH1 0x1 PUSH1 0x1 PUSH1 0xA0 SHL SUB AND DUP2 MSTORE PUSH1 0x20 SWAP1 RETURN JUMPDEST CALLVALUE PUSH2 0x1E5 JUMPI PUSH1 0x20 CALLDATASIZE PUSH1 0x3 NOT ADD SLT PUSH2 0x1E5 JUMPI PUSH1 0x4 CALLDATALOAD PUSH1 0x1 PUSH1 0x1 PUSH1 0xA0 SHL SUB DUP2 DUP2 AND SWAP2 DUP3 SWAP1 SUB PUSH2 0x1E5 JUMPI PUSH2 0x299 PUSH2 0x16F5 JUMP JUMPDEST DUP2 ISZERO PUSH2 0x2E1 JUMPI PUSH1 0x0 SLOAD DUP3 PUSH12 0xFFFFFFFFFFFFFFFFFFFFFFFF PUSH1 0xA0 SHL DUP3 AND OR PUSH1 0x0 SSTORE AND PUSH32 0x8BE0079C531659141344CD1FD0A4F28419497F9722A3DAAFE3B4186F6B6457E0 PUSH1 0x0 DUP1 LOG3 STOP JUMPDEST PUSH1 0x40 MLOAD PUSH4 0x1E4FBDF7 PUSH1 0xE0 SHL DUP2 MSTORE PUSH1 0x0 PUSH1 0x4 DUP3 ADD MSTORE PUSH1 0x24 SWAP1 REVERT JUMPDEST CALLVALUE PUSH2 0x1E5 JUMPI PUSH1 0x0 CALLDATASIZE PUSH1 0x3 NOT ADD SLT PUSH2 0x1E5 JUMPI PUSH1 0x20 PUSH1 0x40 MLOAD PUSH1 0x3 DUP2 MSTORE RETURN JUMPDEST PUSH1 0x60 CALLDATASIZE PUSH1 0x3 NOT ADD SLT PUSH2 0x1E5 JUMPI PUSH8 0xFFFFFFFFFFFFFFFF PUSH1 0x4 CALLDATALOAD DUP2 DUP2 GT PUSH2 0x1E5 JUMPI CALLDATASIZE PUSH1 0x23 DUP3 ADD SLT ISZERO PUSH2 0x1E5 JUMPI DUP1 PUSH1 0x4 ADD CALLDATALOAD SWAP1 DUP3 DUP3 GT PUSH2 0x1E5 JUMPI PUSH1 0x5 DUP3 DUP2 SHL SWAP2 PUSH1 0x24 SWAP1 DUP2 DUP5 DUP3 ADD ADD SWAP6 CALLDATASIZE DUP8 GT PUSH2 0x1E5 JUMPI DUP3 CALLDATALOAD SWAP2 PUSH1 0xFF DUP4 AND SWAP7 DUP8 DUP5 SUB PUSH2 0x1E5 JUMPI PUSH1 0x44 CALLDATALOAD SWAP7 PUSH2 0x37E PUSH2 0x17E7 JUMP JUMPDEST PUSH2 0x386 PUSH2 0x1721 JUMP JUMPDEST SWAP10 PUSH1 0x4 DUP12 LT ISZERO PUSH2 0x685 JUMPI PUSH1 0x1 DUP1 SWAP12 SUB PUSH2 0x64E JUMPI CALLVALUE ISZERO PUSH2 0x615 JUMPI PUSH1 0x0 SLOAD PUSH1 0x1 PUSH1 0x1 PUSH1 0xA0 SHL SUB AND CALLER SUB PUSH2 0x4A1 JUMPI JUMPDEST POP POP POP POP POP POP CALLER PUSH1 0x0 MSTORE PUSH1 0x20 SWAP3 PUSH1 0x8 DUP5 MSTORE PUSH2 0x3D2 CALLVALUE PUSH1 0x40 PUSH1 0x0 KECCAK256 SLOAD PUSH2 0x17DA JUMP JUMPDEST GT PUSH2 0x465 JUMPI POP CALLER PUSH1 0x0 MSTORE PUSH1 0x8 DUP3 MSTORE PUSH1 0x40 PUSH1 0x0 KECCAK256 PUSH2 0x3F0 CALLVALUE DUP3 SLOAD PUSH2 0x17DA JUMP JUMPDEST SWAP1 SSTORE PUSH2 0x3FD CALLVALUE DUP3 SLOAD PUSH2 0x17DA JUMP JUMPDEST SWAP1 SSTORE DUP2 PUSH1 0x0 MSTORE PUSH1 0x2 DUP2 MSTORE PUSH1 0x40 PUSH1 0x0 KECCAK256 PUSH2 0x417 CALLVALUE DUP3 SLOAD PUSH2 0x17DA JUMP JUMPDEST SWAP1 SSTORE CALLER PUSH1 0x0 MSTORE PUSH1 0x4 DUP2 MSTORE PUSH1 0x40 PUSH1 0x0 KECCAK256 DUP3 PUSH1 0xFF NOT DUP3 SLOAD AND OR SWAP1 SSTORE PUSH1 0x40 MLOAD SWAP2 DUP3 MSTORE CALLVALUE SWAP1 DUP3 ADD MSTORE PUSH32 0x6202E363B9B07BD49964490F5CD955AF47C94FFFC29054855E24D451A753851A PUSH1 0x40 CALLER SWAP3 LOG2 DUP1 SSTORE STOP JUMPDEST DUP3 PUSH1 0x16 PUSH1 0x64 SWAP3 PUSH1 0x40 MLOAD SWAP3 PUSH3 0x461BCD PUSH1 0xE5 SHL DUP5 MSTORE PUSH1 0x4 DUP5 ADD MSTORE DUP3 ADD MSTORE PUSH22 0x22BC31B2B2B2399036B0BC1030B63637B1B0BA34B7B7 PUSH1 0x51 SHL PUSH1 0x44 DUP3 ADD MSTORE REVERT JUMPDEST PUSH1 0x40 MLOAD SWAP3 PUSH1 0x20 SWAP7 DUP8 DUP6 ADD SWAP1 CALLER PUSH1 0x60 SHL DUP3 MSTORE PUSH1 0xFF PUSH1 0xF8 SHL SWAP1 PUSH1 0xF8 SHL AND PUSH1 0x34 DUP7 ADD MSTORE DUP11 PUSH1 0x35 DUP7 ADD MSTORE PUSH1 0x35 DUP6 MSTORE PUSH1 0x60 DUP6 ADD SWAP7 DUP6 DUP9 LT SWAP1 DUP9 GT OR PUSH2 0x600 JUMPI SWAP1 PUSH2 0x4F6 DUP9 DUP15 SWAP8 SWAP7 SWAP6 SWAP5 SWAP4 DUP10 PUSH1 0x40 MSTORE DUP7 MLOAD SWAP1 KECCAK256 SWAP5 ADD DUP9 PUSH2 0x17B8 JUMP JUMPDEST DUP7 MSTORE PUSH1 0x80 SWAP4 DUP9 ADD DUP8 DUP5 DUP7 ADD JUMPDEST DUP4 DUP4 LT PUSH2 0x5ED JUMPI POP POP POP POP SWAP4 PUSH1 0x0 SWAP4 JUMPDEST PUSH2 0x584 JUMPI JUMPDEST POP POP POP POP PUSH32 0x0 SUB PUSH2 0x54B JUMPI DUP1 DUP1 DUP1 DUP1 DUP1 PUSH2 0x3B2 JUMP JUMPDEST PUSH1 0x14 PUSH1 0x64 SWAP3 PUSH1 0x40 MLOAD SWAP3 PUSH3 0x461BCD PUSH1 0xE5 SHL DUP5 MSTORE PUSH1 0x4 DUP5 ADD MSTORE DUP3 ADD MSTORE PUSH20 0x24B73B30B634B21026B2B935B63290283937B7B3 PUSH1 0x61 SHL PUSH1 0x44 DUP3 ADD MSTORE REVERT JUMPDEST SWAP1 SWAP2 SWAP3 SWAP4 DUP2 MLOAD DUP6 LT ISZERO PUSH2 0x5E7 JUMPI DUP5 DUP9 SHL DUP4 ADD DUP5 ADD MLOAD SWAP1 DUP2 DUP2 LT ISZERO PUSH2 0x5D7 JUMPI PUSH1 0x0 MSTORE DUP6 MSTORE PUSH1 0x40 PUSH1 0x0 KECCAK256 JUMPDEST SWAP4 PUSH1 0x0 NOT DUP2 EQ PUSH2 0x5C2 JUMPI DUP11 ADD SWAP3 SWAP2 SWAP1 DUP11 PUSH2 0x512 JUMP JUMPDEST DUP7 PUSH4 0x4E487B71 PUSH1 0xE0 SHL PUSH1 0x0 MSTORE PUSH1 0x11 PUSH1 0x4 MSTORE PUSH1 0x0 REVERT JUMPDEST SWAP1 PUSH1 0x0 MSTORE DUP6 MSTORE PUSH1 0x40 PUSH1 0x0 KECCAK256 PUSH2 0x5AD JUMP JUMPDEST SWAP4 PUSH2 0x517 JUMP JUMPDEST DUP3 CALLDATALOAD DUP2 MSTORE DUP15 SWAP8 POP SWAP2 DUP2 ADD SWAP2 DUP10 SWAP2 ADD PUSH2 0x502 JUMP JUMPDEST DUP9 PUSH4 0x4E487B71 PUSH1 0xE0 SHL PUSH1 0x0 MSTORE PUSH1 0x41 PUSH1 0x4 MSTORE PUSH1 0x0 REVERT JUMPDEST PUSH1 0x40 MLOAD PUSH3 0x461BCD PUSH1 0xE5 SHL DUP2 MSTORE PUSH1 0x20 PUSH1 0x4 DUP3 ADD MSTORE PUSH1 0x12 DUP2 DUP10 ADD MSTORE PUSH18 0x416D6F756E74206D757374206265203E203 PUSH1 0x74 SHL PUSH1 0x44 DUP3 ADD MSTORE PUSH1 0x64 SWAP1 REVERT JUMPDEST PUSH1 0x40 MLOAD PUSH3 0x461BCD PUSH1 0xE5 SHL DUP2 MSTORE PUSH1 0x20 PUSH1 0x4 DUP3 ADD MSTORE PUSH1 0x10 DUP2 DUP10 ADD MSTORE PUSH16 0x50726573616C65206E6F74206C697665 PUSH1 0x80 SHL PUSH1 0x44 DUP3 ADD MSTORE PUSH1 0x64 SWAP1 REVERT JUMPDEST DUP7 PUSH4 0x4E487B71 PUSH1 0xE0 SHL PUSH1 0x0 MSTORE PUSH1 0x21 PUSH1 0x4 MSTORE PUSH1 0x0 REVERT JUMPDEST CALLVALUE PUSH2 0x1E5 JUMPI PUSH1 0x0 CALLDATASIZE PUSH1 0x3 NOT ADD SLT PUSH2 0x1E5 JUMPI PUSH2 0x6B3 PUSH2 0x16F5 JUMP JUMPDEST PUSH1 0xFF PUSH1 0x6 SLOAD AND DUP1 PUSH2 0x79D JUMPI JUMPDEST ISZERO PUSH2 0x76C JUMPI PUSH1 0x40 MLOAD PUSH4 0x70A08231 PUSH1 0xE0 SHL DUP2 MSTORE ADDRESS PUSH1 0x4 DUP3 ADD MSTORE PUSH1 0x1 PUSH1 0x1 PUSH1 0xA0 SHL SUB PUSH32 0x0 PUSH1 0x20 DUP4 PUSH1 0x24 DUP2 DUP6 DUP6 AND GAS STATICCALL SWAP2 DUP3 ISZERO PUSH2 0x760 JUMPI PUSH1 0x0 SWAP3 PUSH2 0x72B JUMPI JUMPDEST PUSH2 0x729 SWAP4 POP PUSH1 0x0 SLOAD AND SWAP1 PUSH2 0x18A6 JUMP JUMPDEST STOP JUMPDEST SWAP2 POP PUSH1 0x20 DUP4 RETURNDATASIZE DUP3 GT PUSH2 0x758 JUMPI JUMPDEST DUP2 PUSH2 0x745 PUSH1 0x20 SWAP4 DUP4 PUSH2 0x17B8 JUMP JUMPDEST DUP2 ADD SUB SLT PUSH2 0x1E5 JUMPI PUSH2 0x729 SWAP3 MLOAD SWAP2 PUSH2 0x71A JUMP JUMPDEST RETURNDATASIZE SWAP2 POP PUSH2 0x738 JUMP JUMPDEST PUSH1 0x40 MLOAD RETURNDATASIZE PUSH1 0x0 DUP3 RETURNDATACOPY RETURNDATASIZE SWAP1 REVERT JUMPDEST PUSH1 0x40 MLOAD PUSH3 0x461BCD PUSH1 0xE5 SHL DUP2 MSTORE PUSH1 0x20 PUSH1 0x4 DUP3 ADD MSTORE PUSH1 0x9 PUSH1 0x24 DUP3 ADD MSTORE PUSH9 0x546F6F206561726C79 PUSH1 0xB8 SHL PUSH1 0x44 DUP3 ADD MSTORE PUSH1 0x64 SWAP1 REVERT JUMPDEST POP PUSH2 0x7CB PUSH1 0x7 SLOAD PUSH32 0x0 SWAP1 PUSH2 0x17DA JUMP JUMPDEST PUSH3 0x278D00 DUP2 ADD DUP1 SWAP2 GT PUSH2 0x7DF JUMPI TIMESTAMP GT PUSH2 0x6BF JUMP JUMPDEST PUSH4 0x4E487B71 PUSH1 0xE0 SHL PUSH1 0x0 MSTORE PUSH1 0x11 PUSH1 0x4 MSTORE PUSH1 0x24 PUSH1 0x0 REVERT JUMPDEST CALLVALUE PUSH2 0x1E5 JUMPI PUSH1 0x0 CALLDATASIZE PUSH1 0x3 NOT ADD SLT PUSH2 0x1E5 JUMPI PUSH1 0x20 PUSH1 0x40 MLOAD PUSH1 0x14 DUP2 MSTORE RETURN JUMPDEST CALLVALUE PUSH2 0x1E5 JUMPI PUSH1 0x0 CALLDATASIZE PUSH1 0x3 NOT ADD SLT PUSH2 0x1E5 JUMPI PUSH1 0x20 PUSH1 0x5 SLOAD PUSH1 0x40 MLOAD SWAP1 DUP2 MSTORE RETURN JUMPDEST CALLVALUE PUSH2 0x1E5 JUMPI PUSH1 0x0 CALLDATASIZE PUSH1 0x3 NOT ADD SLT PUSH2 0x1E5 JUMPI PUSH1 0x20 PUSH1 0x40 MLOAD PUSH1 0x3C DUP2 MSTORE RETURN JUMPDEST CALLVALUE PUSH2 0x1E5 JUMPI PUSH1 0x0 CALLDATASIZE PUSH1 0x3 NOT ADD SLT PUSH2 0x1E5 JUMPI PUSH1 0x20 PUSH1 0x40 MLOAD PUSH1 0x1E DUP2 MSTORE RETURN JUMPDEST CALLVALUE PUSH2 0x1E5 JUMPI PUSH1 0x0 CALLDATASIZE PUSH1 0x3 NOT ADD SLT PUSH2 0x1E5 JUMPI PUSH2 0x880 PUSH2 0x17E7 JUMP JUMPDEST PUSH2 0x888 PUSH2 0x1721 JUMP JUMPDEST PUSH1 0x4 DUP2 LT ISZERO PUSH2 0x968 JUMPI PUSH1 0x3 SUB PUSH2 0x936 JUMPI CALLER PUSH1 0x0 MSTORE PUSH1 0x8 PUSH1 0x20 MSTORE PUSH1 0x40 PUSH1 0x0 KECCAK256 SLOAD DUP1 ISZERO PUSH2 0x8FD JUMPI CALLER PUSH1 0x0 MSTORE PUSH1 0x8 PUSH1 0x20 MSTORE PUSH1 0x0 PUSH1 0x40 DUP2 KECCAK256 SSTORE PUSH1 0x0 DUP1 DUP1 DUP1 DUP5 CALLER DUP3 CALL ISZERO PUSH2 0x760 JUMPI PUSH1 0x40 MLOAD SWAP1 DUP2 MSTORE PUSH32 0x358FE4192934D3BF28AE181FEDA1F4BD08CA67F5E2FAD55582CCE5EB67304AE9 PUSH1 0x20 CALLER SWAP3 LOG2 PUSH1 0x1 DUP1 SSTORE STOP JUMPDEST PUSH1 0x40 MLOAD PUSH3 0x461BCD PUSH1 0xE5 SHL DUP2 MSTORE PUSH1 0x20 PUSH1 0x4 DUP3 ADD MSTORE PUSH1 0x11 PUSH1 0x24 DUP3 ADD MSTORE PUSH17 0x139BDD1A1A5B99C81D1BC81C99599D5B99 PUSH1 0x7A SHL PUSH1 0x44 DUP3 ADD MSTORE PUSH1 0x64 SWAP1 REVERT JUMPDEST PUSH1 0x40 MLOAD PUSH3 0x461BCD PUSH1 0xE5 SHL DUP2 MSTORE PUSH1 0x20 PUSH1 0x4 DUP3 ADD MSTORE PUSH1 0xA PUSH1 0x24 DUP3 ADD MSTORE PUSH10 0x139BDD0819985A5B1959 PUSH1 0xB2 SHL PUSH1 0x44 DUP3 ADD MSTORE PUSH1 0x64 SWAP1 REVERT JUMPDEST PUSH4 0x4E487B71 PUSH1 0xE0 SHL PUSH1 0x0 MSTORE PUSH1 0x21 PUSH1 0x4 MSTORE PUSH1 0x24 PUSH1 0x0 REVERT JUMPDEST CALLVALUE PUSH2 0x1E5 JUMPI PUSH1 0x0 CALLDATASIZE PUSH1 0x3 NOT ADD SLT PUSH2 0x1E5 JUMPI PUSH1 0x20 PUSH1 0xFF PUSH1 0x6 SLOAD AND PUSH1 0x40 MLOAD SWAP1 ISZERO ISZERO DUP2 MSTORE RETURN JUMPDEST CALLVALUE PUSH2 0x1E5 JUMPI PUSH1 0x0 CALLDATASIZE PUSH1 0x3 NOT ADD SLT PUSH2 0x1E5 JUMPI PUSH1 0x20 PUSH1 0x40 MLOAD PUSH32 0x0 DUP2 MSTORE RETURN JUMPDEST CALLVALUE PUSH2 0x1E5 JUMPI PUSH1 0x0 CALLDATASIZE PUSH1 0x3 NOT ADD SLT PUSH2 0x1E5 JUMPI PUSH1 0x20 PUSH1 0x40 MLOAD PUSH32 0x0 DUP2 MSTORE RETURN JUMPDEST CALLVALUE PUSH2 0x1E5 JUMPI PUSH1 0x0 CALLDATASIZE PUSH1 0x3 NOT ADD SLT PUSH2 0x1E5 JUMPI PUSH1 0x20 PUSH1 0x40 MLOAD PUSH1 0x2 DUP2 MSTORE RETURN JUMPDEST CALLVALUE PUSH2 0x1E5 JUMPI PUSH1 0x0 CALLDATASIZE PUSH1 0x3 NOT ADD SLT PUSH2 0x1E5 JUMPI PUSH1 0x20 PUSH1 0x40 MLOAD PUSH32 0x0 DUP2 MSTORE RETURN JUMPDEST CALLVALUE PUSH2 0x1E5 JUMPI PUSH1 0x0 CALLDATASIZE PUSH1 0x3 NOT ADD SLT PUSH2 0x1E5 JUMPI PUSH1 0x0 SLOAD PUSH1 0x40 MLOAD PUSH1 0x1 PUSH1 0x1 PUSH1 0xA0 SHL SUB SWAP1 SWAP2 AND DUP2 MSTORE PUSH1 0x20 SWAP1 RETURN JUMPDEST CALLVALUE PUSH2 0x1E5 JUMPI PUSH1 0x0 CALLDATASIZE PUSH1 0x3 NOT ADD SLT PUSH2 0x1E5 JUMPI PUSH1 0x20 PUSH1 0x40 MLOAD PUSH1 0x32 DUP2 MSTORE RETURN JUMPDEST CALLVALUE PUSH2 0x1E5 JUMPI PUSH1 0x0 CALLDATASIZE PUSH1 0x3 NOT ADD SLT PUSH2 0x1E5 JUMPI PUSH1 0x20 PUSH1 0x40 MLOAD PUSH32 0x0 DUP2 MSTORE RETURN JUMPDEST CALLVALUE PUSH2 0x1E5 JUMPI PUSH1 0x20 CALLDATASIZE PUSH1 0x3 NOT ADD SLT PUSH2 0x1E5 JUMPI PUSH1 0x4 CALLDATALOAD PUSH1 0x1 PUSH1 0x1 PUSH1 0xA0 SHL SUB DUP2 AND SWAP1 DUP2 SWAP1 SUB PUSH2 0x1E5 JUMPI PUSH1 0x0 MSTORE PUSH1 0x9 PUSH1 0x20 MSTORE PUSH1 0x20 PUSH1 0xFF PUSH1 0x40 PUSH1 0x0 KECCAK256 SLOAD AND PUSH1 0x40 MLOAD SWAP1 ISZERO ISZERO DUP2 MSTORE RETURN JUMPDEST CALLVALUE PUSH2 0x1E5 JUMPI PUSH1 0x0 CALLDATASIZE PUSH1 0x3 NOT ADD SLT PUSH2 0x1E5 JUMPI PUSH2 0xB4A PUSH2 0x16F5 JUMP JUMPDEST PUSH1 0x0 DUP1 SLOAD PUSH1 0x1 PUSH1 0x1 PUSH1 0xA0 SHL SUB NOT DUP2 AND DUP3 SSTORE PUSH1 0x1 PUSH1 0x1 PUSH1 0xA0 SHL SUB AND PUSH32 0x8BE0079C531659141344CD1FD0A4F28419497F9722A3DAAFE3B4186F6B6457E0 DUP3 DUP1 LOG3 STOP JUMPDEST CALLVALUE PUSH2 0x1E5 JUMPI PUSH1 0x0 CALLDATASIZE PUSH1 0x3 NOT ADD SLT PUSH2 0x1E5 JUMPI PUSH1 0x20 PUSH1 0x7 SLOAD PUSH1 0x40 MLOAD SWAP1 DUP2 MSTORE RETURN JUMPDEST CALLVALUE PUSH2 0x1E5 JUMPI PUSH1 0x0 CALLDATASIZE PUSH1 0x3 NOT ADD SLT PUSH2 0x1E5 JUMPI PUSH1 0x20 PUSH1 0x40 MLOAD PUSH32 0x0 DUP2 MSTORE RETURN JUMPDEST CALLVALUE PUSH2 0x1E5 JUMPI PUSH1 0x0 CALLDATASIZE PUSH1 0x3 NOT ADD SLT PUSH2 0x1E5 JUMPI PUSH2 0xBFC PUSH2 0x17E7 JUMP JUMPDEST PUSH2 0xC04 PUSH2 0x1721 JUMP JUMPDEST PUSH1 0x4 DUP2 LT ISZERO PUSH2 0x968 JUMPI PUSH1 0x2 DUP1 SWAP2 EQ DUP1 ISZERO PUSH2 0x120E JUMPI JUMPDEST ISZERO PUSH2 0x11D7 JUMPI PUSH1 0x6 SLOAD PUSH1 0xFF DUP2 AND PUSH2 0x119E JUMPI PUSH1 0xFF NOT AND PUSH1 0x1 OR PUSH1 0x6 SSTORE TIMESTAMP PUSH1 0x7 SSTORE PUSH1 0x5 SLOAD PUSH32 0x0 SWAP1 DUP2 DUP2 GT ISZERO PUSH2 0x1196 JUMPI POP SWAP1 JUMPDEST PUSH32 0x0 PUSH2 0xC92 DUP2 DUP5 PUSH2 0x180A JUMP JUMPDEST SWAP1 PUSH1 0x14 DUP3 MUL SWAP2 DUP1 ISZERO SWAP3 DUP2 DUP2 DIV PUSH1 0x14 EQ DUP5 OR ISZERO PUSH2 0x7DF JUMPI PUSH1 0x64 SWAP1 DIV SWAP1 PUSH1 0x1E DUP2 MUL SWAP4 DUP2 DUP6 DIV PUSH1 0x1E EQ OR ISZERO PUSH2 0x7DF JUMPI PUSH1 0x40 SWAP5 PUSH2 0xCDB DUP4 SWAP3 PUSH2 0xCD6 PUSH1 0x64 DUP10 SWAP9 DIV SWAP6 DUP7 SWAP3 PUSH2 0x183D JUMP JUMPDEST PUSH2 0x183D JUMP JUMPDEST SWAP4 PUSH1 0x3 PUSH1 0x0 MSTORE DUP2 PUSH1 0x20 MSTORE PUSH2 0xD09 PUSH2 0xCF6 DUP3 DUP9 PUSH1 0x0 KECCAK256 SLOAD PUSH2 0x180A JUMP JUMPDEST SWAP2 DUP4 PUSH1 0x0 MSTORE DUP4 PUSH1 0x20 MSTORE DUP8 PUSH1 0x0 KECCAK256 SLOAD PUSH2 0x180A JUMP JUMPDEST SWAP1 DUP4 DUP2 LT PUSH2 0x1180 JUMPI JUMPDEST POP SWAP3 DUP6 SWAP3 SWAP4 PUSH1 0x3 PUSH1 0x0 MSTORE PUSH1 0x3 PUSH1 0x20 MSTORE DUP5 DUP5 PUSH1 0x0 KECCAK256 SSTORE DUP2 DUP2 LT PUSH2 0x1165 JUMPI JUMPDEST POP DUP2 PUSH1 0x0 MSTORE PUSH1 0x3 PUSH1 0x20 MSTORE DUP1 DUP4 PUSH1 0x0 KECCAK256 SSTORE PUSH1 0x1 PUSH1 0x0 MSTORE DUP5 DUP4 PUSH1 0x0 KECCAK256 SSTORE DUP3 MLOAD SWAP4 PUSH1 0x3 DUP6 MSTORE PUSH1 0x20 DUP6 ADD MSTORE PUSH32 0xE9C096F207492E79C93FFB021D220C180B64C8A54EB958748EFACC2B7A38D84F DUP1 SWAP8 DUP2 SWAP6 LOG1 DUP3 MLOAD SWAP2 DUP3 MSTORE PUSH1 0x20 DUP3 ADD MSTORE LOG1 DUP2 MLOAD SWAP1 PUSH1 0x1 DUP3 MSTORE PUSH1 0x20 DUP3 ADD MSTORE LOG1 PUSH1 0x64 PUSH2 0xDC0 PUSH32 0x0 DUP4 PUSH2 0x180A JUMP JUMPDEST DIV PUSH2 0xDEB PUSH32 0x0 DUP3 PUSH2 0x180A JUMP JUMPDEST PUSH1 0x40 MLOAD PUSH4 0x95EA7B3 PUSH1 0xE0 SHL PUSH1 0x20 DUP1 DUP4 ADD SWAP2 DUP3 MSTORE PUSH1 0x1 PUSH1 0x1 PUSH1 0xA0 SHL SUB PUSH32 0x0 AND PUSH1 0x24 DUP5 ADD MSTORE PUSH1 0x44 DUP1 DUP5 ADD DUP6 SWAP1 MSTORE DUP4 MSTORE SWAP1 PUSH1 0x0 SWAP1 PUSH2 0xE46 PUSH1 0x64 DUP6 PUSH2 0x17B8 JUMP JUMPDEST DUP4 MLOAD SWAP1 DUP3 PUSH32 0x0 GAS CALL PUSH1 0x0 MLOAD RETURNDATASIZE DUP3 PUSH2 0x1120 JUMPI JUMPDEST POP POP ISZERO PUSH2 0x1045 JUMPI JUMPDEST POP PUSH1 0x0 SLOAD PUSH1 0x1 PUSH1 0x1 PUSH1 0xA0 SHL SUB AND TIMESTAMP PUSH2 0x258 DUP2 ADD SWAP1 DUP2 LT PUSH2 0x7DF JUMPI PUSH1 0x40 MLOAD SWAP2 PUSH4 0xF305D719 PUSH1 0xE0 SHL DUP4 MSTORE PUSH1 0x1 DUP1 PUSH1 0xA0 SHL SUB PUSH32 0x0 AND PUSH1 0x4 DUP5 ADD MSTORE DUP4 PUSH1 0x24 DUP5 ADD MSTORE PUSH1 0x0 PUSH1 0x44 DUP5 ADD MSTORE PUSH1 0x0 PUSH1 0x64 DUP5 ADD MSTORE PUSH1 0x84 DUP4 ADD MSTORE PUSH1 0xA4 DUP3 ADD MSTORE PUSH1 0x60 DUP2 PUSH1 0xC4 DUP2 DUP7 PUSH1 0x1 DUP1 PUSH1 0xA0 SHL SUB PUSH32 0x0 AND GAS CALL SWAP1 DUP2 PUSH2 0x101A JUMPI JUMPDEST POP PUSH2 0xFDB JUMPI POP PUSH1 0x0 DUP1 DUP1 DUP1 SWAP4 PUSH1 0x1 DUP1 PUSH1 0xA0 SHL SUB DUP3 SLOAD AND DUP3 DUP3 ISZERO PUSH2 0xFD2 JUMPI JUMPDEST CALL ISZERO PUSH2 0x760 JUMPI JUMPDEST PUSH2 0xF67 SELFBALANCE PUSH2 0xF61 DUP4 PUSH1 0x5 SLOAD PUSH2 0x183D JUMP JUMPDEST SWAP1 PUSH2 0x183D JUMP JUMPDEST POP PUSH32 0x0 PUSH1 0x64 SUB SWAP1 PUSH1 0x64 DUP3 GT PUSH2 0x7DF JUMPI PUSH1 0x0 DUP1 PUSH1 0x64 PUSH2 0xFA6 DUP3 SWAP6 DUP4 SWAP6 PUSH2 0x180A JUMP JUMPDEST DUP3 SLOAD SWAP2 SWAP1 DIV SWAP1 PUSH1 0x1 PUSH1 0x1 PUSH1 0xA0 SHL SUB AND DUP3 DUP3 ISZERO PUSH2 0xFC9 JUMPI JUMPDEST CALL ISZERO PUSH2 0x760 JUMPI PUSH1 0x1 DUP1 SSTORE STOP JUMPDEST POP PUSH2 0x8FC PUSH2 0xFBD JUMP JUMPDEST POP PUSH2 0x8FC PUSH2 0xF4A JUMP JUMPDEST PUSH32 0xD4294F2E03DFA3F368C60AE6950D6E90C37101953B6AA279269459A9517F106E SWAP2 PUSH1 0x60 SWAP2 PUSH1 0x5 SLOAD SWAP2 PUSH1 0x40 MLOAD SWAP3 DUP4 MSTORE PUSH1 0x20 DUP4 ADD MSTORE PUSH1 0x40 DUP3 ADD MSTORE LOG1 PUSH2 0xF51 JUMP JUMPDEST PUSH1 0x60 SWAP1 DUP2 RETURNDATASIZE DUP2 GT PUSH2 0x103E JUMPI JUMPDEST PUSH2 0x1030 DUP2 DUP4 PUSH2 0x17B8 JUMP JUMPDEST DUP2 ADD SUB SLT PUSH2 0x1E5 JUMPI DUP5 PUSH2 0xF2C JUMP JUMPDEST POP RETURNDATASIZE PUSH2 0x1026 JUMP JUMPDEST PUSH1 0x40 MLOAD PUSH4 0x95EA7B3 PUSH1 0xE0 SHL PUSH1 0x20 DUP3 ADD MSTORE PUSH32 0x0 PUSH1 0x1 PUSH1 0x1 PUSH1 0xA0 SHL SUB AND PUSH1 0x24 DUP3 ADD MSTORE PUSH1 0x0 PUSH1 0x44 DUP1 DUP4 ADD SWAP2 SWAP1 SWAP2 MSTORE DUP2 MSTORE SWAP1 PUSH8 0xFFFFFFFFFFFFFFFF PUSH1 0x80 DUP4 ADD SWAP1 DUP2 GT SWAP1 DUP4 GT OR PUSH2 0x110A JUMPI PUSH2 0x10DE DUP3 PUSH1 0x80 PUSH2 0x1104 SWAP5 ADD PUSH1 0x40 MSTORE PUSH32 0x0 PUSH2 0x184A JUMP JUMPDEST PUSH32 0x0 PUSH2 0x184A JUMP JUMPDEST DUP4 PUSH2 0xE7F JUMP JUMPDEST PUSH4 0x4E487B71 PUSH1 0xE0 SHL PUSH1 0x0 MSTORE PUSH1 0x41 PUSH1 0x4 MSTORE PUSH1 0x24 PUSH1 0x0 REVERT JUMPDEST SWAP1 SWAP2 POP PUSH2 0x115D JUMPI POP PUSH32 0x0 PUSH1 0x1 PUSH1 0x1 PUSH1 0xA0 SHL SUB AND EXTCODESIZE ISZERO ISZERO JUMPDEST DUP6 DUP1 PUSH2 0xE77 JUMP JUMPDEST PUSH1 0x1 EQ PUSH2 0x1156 JUMP JUMPDEST PUSH2 0x1172 DUP2 PUSH2 0x1179 SWAP4 PUSH2 0x183D JUMP JUMPDEST SWAP1 SWAP6 PUSH2 0x17DA JUMP JUMPDEST SWAP4 DUP9 PUSH2 0xD2F JUMP JUMPDEST DUP1 PUSH2 0x1172 PUSH2 0x118F SWAP3 DUP10 SWAP7 PUSH2 0x183D JUMP JUMPDEST SWAP4 SWAP3 PUSH2 0xD12 JUMP JUMPDEST SWAP1 POP SWAP1 PUSH2 0xC67 JUMP JUMPDEST PUSH1 0x40 MLOAD PUSH3 0x461BCD PUSH1 0xE5 SHL DUP2 MSTORE PUSH1 0x20 PUSH1 0x4 DUP3 ADD MSTORE PUSH1 0x11 PUSH1 0x24 DUP3 ADD MSTORE PUSH17 0x105B1C9958591E48199A5B985B1A5E9959 PUSH1 0x7A SHL PUSH1 0x44 DUP3 ADD MSTORE PUSH1 0x64 SWAP1 REVERT JUMPDEST PUSH1 0x40 MLOAD PUSH3 0x461BCD PUSH1 0xE5 SHL DUP2 MSTORE PUSH1 0x20 PUSH1 0x4 DUP3 ADD MSTORE PUSH1 0xF PUSH1 0x24 DUP3 ADD MSTORE PUSH15 0x43616E6E6F742066696E616C697A65 PUSH1 0x88 SHL PUSH1 0x44 DUP3 ADD MSTORE PUSH1 0x64 SWAP1 REVERT JUMPDEST POP PUSH32 0x0 TIMESTAMP GT DUP1 ISZERO PUSH2 0xC19 JUMPI POP PUSH1 0x5 SLOAD PUSH32 0x0 GT ISZERO PUSH2 0xC19 JUMP JUMPDEST CALLVALUE PUSH2 0x1E5 JUMPI PUSH1 0x0 CALLDATASIZE PUSH1 0x3 NOT ADD SLT PUSH2 0x1E5 JUMPI PUSH2 0x127D PUSH2 0x17E7 JUMP JUMPDEST PUSH1 0xFF PUSH1 0x6 SLOAD AND ISZERO PUSH2 0x14D4 JUMPI PUSH2 0x12B5 PUSH1 0x7 SLOAD PUSH32 0x0 SWAP1 PUSH2 0x17DA JUMP JUMPDEST TIMESTAMP LT PUSH2 0x149B JUMPI CALLER PUSH1 0x0 MSTORE PUSH1 0x20 PUSH1 0x8 DUP2 MSTORE PUSH1 0x40 PUSH1 0x0 KECCAK256 SLOAD ISZERO PUSH2 0x1465 JUMPI CALLER PUSH1 0x0 MSTORE PUSH1 0x9 DUP2 MSTORE PUSH1 0xFF PUSH1 0x40 PUSH1 0x0 KECCAK256 SLOAD AND PUSH2 0x142F JUMPI CALLER PUSH1 0x0 MSTORE PUSH1 0x9 DUP2 MSTORE PUSH1 0x40 PUSH1 0x0 KECCAK256 PUSH1 0x1 PUSH1 0xFF NOT DUP3 SLOAD AND OR SWAP1 SSTORE PUSH1 0x4 DUP2 MSTORE PUSH1 0xFF PUSH1 0x40 PUSH1 0x0 KECCAK256 SLOAD AND PUSH1 0x8 DUP3 MSTORE PUSH1 0x40 PUSH1 0x0 KECCAK256 SLOAD SWAP1 PUSH1 0x0 MSTORE PUSH1 0x2 DUP3 MSTORE PUSH2 0x133D PUSH1 0x40 PUSH1 0x0 KECCAK256 SLOAD PUSH1 0x3 DUP5 MSTORE PUSH2 0x1338 PUSH1 0x40 PUSH1 0x0 KECCAK256 SLOAD DUP5 PUSH2 0x180A JUMP JUMPDEST PUSH2 0x181D JUMP JUMPDEST SWAP2 PUSH2 0x1369 PUSH32 0x0 DUP1 SWAP4 PUSH2 0x180A JUMP JUMPDEST SWAP2 DUP4 PUSH1 0x0 SWAP4 DUP1 DUP3 LT PUSH2 0x1416 JUMPI JUMPDEST POP SWAP1 POP PUSH2 0x13E6 JUMPI JUMPDEST DUP2 DUP1 ISZERO DUP1 ISZERO PUSH2 0x13BF JUMPI JUMPDEST POP POP PUSH1 0x40 MLOAD SWAP3 DUP4 MSTORE DUP3 ADD MSTORE PUSH32 0x9923B4306C6C030F2BDFBF156517D5983B87E15B96176DA122CD4F2EFFA4BA7B PUSH1 0x40 CALLER SWAP3 LOG2 PUSH1 0x1 DUP1 SSTORE STOP JUMPDEST PUSH1 0x0 SWAP1 PUSH2 0x13DD JUMPI JUMPDEST PUSH1 0x0 DUP1 DUP1 SWAP4 DUP2 SWAP4 CALLER SWAP1 CALL ISZERO PUSH2 0x760 JUMPI DUP2 DUP5 PUSH2 0x1388 JUMP JUMPDEST POP PUSH2 0x8FC PUSH2 0x13C7 JUMP JUMPDEST PUSH2 0x1411 DUP4 CALLER PUSH32 0x0 PUSH2 0x18A6 JUMP JUMPDEST PUSH2 0x137E JUMP JUMPDEST PUSH2 0x1426 SWAP4 SWAP5 POP SWAP1 PUSH2 0x1338 SWAP2 PUSH2 0x183D JUMP JUMPDEST SWAP1 DUP4 DUP4 DUP2 PUSH2 0x1376 JUMP JUMPDEST PUSH1 0x64 SWAP1 PUSH1 0x40 MLOAD SWAP1 PUSH3 0x461BCD PUSH1 0xE5 SHL DUP3 MSTORE PUSH1 0x4 DUP3 ADD MSTORE PUSH1 0xF PUSH1 0x24 DUP3 ADD MSTORE PUSH15 0x105B1C9958591E4818DB185A5B5959 PUSH1 0x8A SHL PUSH1 0x44 DUP3 ADD MSTORE REVERT JUMPDEST PUSH1 0x64 SWAP1 PUSH1 0x40 MLOAD SWAP1 PUSH3 0x461BCD PUSH1 0xE5 SHL DUP3 MSTORE PUSH1 0x4 DUP3 ADD MSTORE PUSH1 0xF PUSH1 0x24 DUP3 ADD MSTORE PUSH15 0x27379031B7B73A3934B13ABA34B7B7 PUSH1 0x89 SHL PUSH1 0x44 DUP3 ADD MSTORE REVERT JUMPDEST PUSH1 0x40 MLOAD PUSH3 0x461BCD PUSH1 0xE5 SHL DUP2 MSTORE PUSH1 0x20 PUSH1 0x4 DUP3 ADD MSTORE PUSH1 0x11 PUSH1 0x24 DUP3 ADD MSTORE PUSH17 0x151BDAD95B9CC8185C99481B1BD8DAD959 PUSH1 0x7A SHL PUSH1 0x44 DUP3 ADD MSTORE PUSH1 0x64 SWAP1 REVERT JUMPDEST PUSH1 0x40 MLOAD PUSH3 0x461BCD PUSH1 0xE5 SHL DUP2 MSTORE PUSH1 0x20 PUSH1 0x4 DUP3 ADD MSTORE PUSH1 0xD PUSH1 0x24 DUP3 ADD MSTORE PUSH13 0x139BDD08199A5B985B1A5E9959 PUSH1 0x9A SHL PUSH1 0x44 DUP3 ADD MSTORE PUSH1 0x64 SWAP1 REVERT JUMPDEST CALLVALUE PUSH2 0x1E5 JUMPI PUSH1 0x0 CALLDATASIZE PUSH1 0x3 NOT ADD SLT PUSH2 0x1E5 JUMPI PUSH1 0x20 PUSH1 0x40 MLOAD PUSH32 0x0 DUP2 MSTORE RETURN JUMPDEST CALLVALUE PUSH2 0x1E5 JUMPI PUSH1 0x20 CALLDATASIZE PUSH1 0x3 NOT ADD SLT PUSH2 0x1E5 JUMPI PUSH1 0x4 CALLDATALOAD PUSH1 0x1 PUSH1 0x1 PUSH1 0xA0 SHL SUB DUP2 AND SWAP1 DUP2 SWAP1 SUB PUSH2 0x1E5 JUMPI PUSH1 0x0 MSTORE PUSH1 0x8 PUSH1 0x20 MSTORE PUSH1 0x20 PUSH1 0x40 PUSH1 0x0 KECCAK256 SLOAD PUSH1 0x40 MLOAD SWAP1 DUP2 MSTORE RETURN JUMPDEST CALLVALUE PUSH2 0x1E5 JUMPI PUSH1 0x0 CALLDATASIZE PUSH1 0x3 NOT ADD SLT PUSH2 0x1E5 JUMPI PUSH1 0x20 PUSH1 0x40 MLOAD PUSH32 0x0 DUP2 MSTORE RETURN JUMPDEST CALLVALUE PUSH2 0x1E5 JUMPI PUSH1 0x0 CALLDATASIZE PUSH1 0x3 NOT ADD SLT PUSH2 0x1E5 JUMPI PUSH1 0x20 PUSH1 0x40 MLOAD PUSH1 0x1 DUP2 MSTORE RETURN JUMPDEST CALLVALUE PUSH2 0x1E5 JUMPI PUSH1 0x20 CALLDATASIZE PUSH1 0x3 NOT ADD SLT PUSH2 0x1E5 JUMPI PUSH1 0xFF PUSH2 0x15F4 PUSH2 0x16E5 JUMP JUMPDEST AND PUSH1 0x0 MSTORE PUSH1 0x3 PUSH1 0x20 MSTORE PUSH1 0x20 PUSH1 0x40 PUSH1 0x0 KECCAK256 SLOAD PUSH1 0x40 MLOAD SWAP1 DUP2 MSTORE RETURN JUMPDEST CALLVALUE PUSH2 0x1E5 JUMPI PUSH1 0x0 CALLDATASIZE PUSH1 0x3 NOT ADD SLT PUSH2 0x1E5 JUMPI PUSH1 0x20 PUSH1 0x40 MLOAD PUSH32 0x0 DUP2 MSTORE RETURN JUMPDEST CALLVALUE PUSH2 0x1E5 JUMPI PUSH1 0x20 CALLDATASIZE PUSH1 0x3 NOT ADD SLT PUSH2 0x1E5 JUMPI PUSH1 0x4 CALLDATALOAD PUSH1 0x1 PUSH1 0x1 PUSH1 0xA0 SHL SUB DUP2 AND SWAP1 DUP2 SWAP1 SUB PUSH2 0x1E5 JUMPI PUSH1 0x0 MSTORE PUSH1 0x4 PUSH1 0x20 MSTORE PUSH1 0x20 PUSH1 0xFF PUSH1 0x40 PUSH1 0x0 KECCAK256 SLOAD AND PUSH1 0x40 MLOAD SWAP1 DUP2 MSTORE RETURN JUMPDEST CALLVALUE PUSH2 0x1E5 JUMPI PUSH1 0x0 CALLDATASIZE PUSH1 0x3 NOT ADD SLT PUSH2 0x1E5 JUMPI PUSH2 0x16A2 PUSH2 0x1721 JUMP JUMPDEST PUSH1 0x40 MLOAD PUSH1 0x4 DUP3 LT ISZERO PUSH2 0x968 JUMPI PUSH1 0x20 SWAP2 DUP2 MSTORE RETURN JUMPDEST CALLVALUE PUSH2 0x1E5 JUMPI PUSH1 0x20 CALLDATASIZE PUSH1 0x3 NOT ADD SLT PUSH2 0x1E5 JUMPI PUSH1 0x20 SWAP1 PUSH1 0xFF PUSH2 0x16D3 PUSH2 0x16E5 JUMP JUMPDEST AND PUSH1 0x0 MSTORE PUSH1 0x2 DUP3 MSTORE PUSH1 0x40 PUSH1 0x0 KECCAK256 SLOAD DUP2 MSTORE RETURN JUMPDEST PUSH1 0x4 CALLDATALOAD SWAP1 PUSH1 0xFF DUP3 AND DUP3 SUB PUSH2 0x1E5 JUMPI JUMP JUMPDEST PUSH1 0x0 SLOAD PUSH1 0x1 PUSH1 0x1 PUSH1 0xA0 SHL SUB AND CALLER SUB PUSH2 0x1709 JUMPI JUMP JUMPDEST PUSH1 0x40 MLOAD PUSH4 0x118CDAA7 PUSH1 0xE0 SHL DUP2 MSTORE CALLER PUSH1 0x4 DUP3 ADD MSTORE PUSH1 0x24 SWAP1 REVERT JUMPDEST PUSH1 0xFF PUSH1 0x6 SLOAD AND PUSH2 0x17A9 JUMPI PUSH32 0x0 TIMESTAMP LT PUSH2 0x17B3 JUMPI PUSH32 0x0 TIMESTAMP GT ISZERO PUSH2 0x17AE JUMPI PUSH1 0x5 SLOAD PUSH32 0x0 GT ISZERO PUSH2 0x17A9 JUMPI PUSH1 0x3 SWAP1 JUMP JUMPDEST PUSH1 0x2 SWAP1 JUMP JUMPDEST PUSH1 0x1 SWAP1 JUMP JUMPDEST PUSH1 0x0 SWAP1 JUMP JUMPDEST SWAP1 PUSH1 0x1F DUP1 NOT SWAP2 ADD AND DUP2 ADD SWAP1 DUP2 LT PUSH8 0xFFFFFFFFFFFFFFFF DUP3 GT OR PUSH2 0x110A JUMPI PUSH1 0x40 MSTORE JUMP JUMPDEST SWAP2 SWAP1 DUP3 ADD DUP1 SWAP3 GT PUSH2 0x7DF JUMPI JUMP JUMPDEST PUSH1 0x2 PUSH1 0x1 SLOAD EQ PUSH2 0x17F8 JUMPI PUSH1 0x2 PUSH1 0x1 SSTORE JUMP JUMPDEST PUSH1 0x40 MLOAD PUSH4 0x3EE5AEB5 PUSH1 0xE0 SHL DUP2 MSTORE PUSH1 0x4 SWAP1 REVERT JUMPDEST DUP2 DUP2 MUL SWAP3 SWAP2 DUP2 ISZERO SWAP2 DUP5 DIV EQ OR ISZERO PUSH2 0x7DF JUMPI JUMP JUMPDEST DUP2 ISZERO PUSH2 0x1827 JUMPI DIV SWAP1 JUMP JUMPDEST PUSH4 0x4E487B71 PUSH1 0xE0 SHL PUSH1 0x0 MSTORE PUSH1 0x12 PUSH1 0x4 MSTORE PUSH1 0x24 PUSH1 0x0 REVERT JUMPDEST SWAP2 SWAP1 DUP3 SUB SWAP2 DUP3 GT PUSH2 0x7DF JUMPI JUMP JUMPDEST SWAP1 PUSH1 0x0 PUSH1 0x20 SWAP2 DUP3 DUP2 MLOAD SWAP2 ADD DUP3 DUP6 GAS CALL ISZERO PUSH2 0x760 JUMPI PUSH1 0x0 MLOAD RETURNDATASIZE PUSH2 0x189D JUMPI POP PUSH1 0x1 PUSH1 0x1 PUSH1 0xA0 SHL SUB DUP2 AND EXTCODESIZE ISZERO JUMPDEST PUSH2 0x187B JUMPI POP JUMP JUMPDEST PUSH1 0x40 MLOAD PUSH4 0x5274AFE7 PUSH1 0xE0 SHL DUP2 MSTORE PUSH1 0x1 PUSH1 0x1 PUSH1 0xA0 SHL SUB SWAP1 SWAP2 AND PUSH1 0x4 DUP3 ADD MSTORE PUSH1 0x24 SWAP1 REVERT JUMPDEST PUSH1 0x1 EQ ISZERO PUSH2 0x1874 JUMP JUMPDEST PUSH1 0x40 MLOAD PUSH4 0xA9059CBB PUSH1 0xE0 SHL PUSH1 0x20 DUP3 ADD MSTORE PUSH1 0x1 PUSH1 0x1 PUSH1 0xA0 SHL SUB SWAP3 SWAP1 SWAP3 AND PUSH1 0x24 DUP4 ADD MSTORE PUSH1 0x44 DUP1 DUP4 ADD SWAP4 SWAP1 SWAP4 MSTORE SWAP2 DUP2 MSTORE PUSH2 0x18E7 SWAP2 PUSH2 0x18E2 PUSH1 0x64 DUP4 PUSH2 0x17B8 JUMP JUMPDEST PUSH2 0x184A JUMP JUMPDEST JUMP INVALID LOG2 PUSH5 0x6970667358 0x22 SLT KECCAK256 0xCC 0xDC 0x1F ADDRESS 0xB9 0xC2 CREATE 0xD POP DIV OR SWAP14 SUB STOP SWAP11 0xCF LOG0 0x21 0xF9 KECCAK256 0xE8 0xD7 0xD SWAP5 PUSH5 0x60D3DA9F3F ORIGIN REVERT PUSH5 0x736F6C6343 STOP ADDMOD EQ STOP CALLER LOG2 PUSH5 0x6970667358 0x22 SLT KECCAK256 0x49 SWAP3 0xCC 0xBD 0x4C 0xDF 0xCA PUSH32 0x86C2B8AFA1EE2BB619AE8681E19A1D47AAD4E9ED911BB95F64736F6C63430008 EQ STOP CALLER "},"methodIdentifiers":{"createPresale(address,address,uint256,uint256,uint256,uint256,uint256,uint256,uint256,uint256,uint256,uint256,bytes32)":"e21dd3fc","creationFee()":"dce0b4e4","owner()":"8da5cb5b","tokenLock()":"e718234d"}}}}}