{"contracts/EscrowManager.sol":{"EscrowManager":{"abi":[{"inputs":[],"stateMutability":"nonpayable","type":"constructor"},{"inputs":[{"internalType":"address","name":"owner","type":"address"}],"name":"OwnableInvalidOwner","type":"error"},{"inputs":[{"internalType":"address","name":"account","type":"address"}],"name":"OwnableUnauthorizedAccount","type":"error"},{"inputs":[],"name":"ReentrancyGuardReentrantCall","type":"error"},{"anonymous":false,"inputs":[{"indexed":true,"internalType":"address","name":"presale","type":"address"}],"name":"DisputeTriggered","type":"event"},{"anonymous":false,"inputs":[{"indexed":true,"internalType":"address","name":"presale","type":"address"},{"indexed":false,"internalType":"uint256","name":"amount","type":"uint256"}],"name":"FundsReleased","type":"event"},{"anonymous":false,"inputs":[{"indexed":true,"internalType":"address","name":"presale","type":"address"},{"indexed":false,"internalType":"uint8","name":"index","type":"uint8"},{"indexed":false,"internalType":"string","name":"description","type":"string"}],"name":"MilestoneCreated","type":"event"},{"anonymous":false,"inputs":[{"indexed":true,"internalType":"address","name":"previousOwner","type":"address"},{"indexed":true,"internalType":"address","name":"newOwner","type":"address"}],"name":"OwnershipTransferred","type":"event"},{"inputs":[{"internalType":"address","name":"_presale","type":"address"}],"name":"finalizeRelease","outputs":[],"stateMutability":"nonpayable","type":"function"},{"inputs":[{"internalType":"address","name":"","type":"address"},{"internalType":"address","name":"","type":"address"}],"name":"hasVoted","outputs":[{"internalType":"bool","name":"","type":"bool"}],"stateMutability":"view","type":"function"},{"inputs":[],"name":"owner","outputs":[{"internalType":"address","name":"","type":"address"}],"stateMutability":"view","type":"function"},{"inputs":[{"internalType":"address","name":"","type":"address"}],"name":"projects","outputs":[{"internalType":"address","name":"creator","type":"address"},{"internalType":"uint256","name":"totalFunds","type":"uint256"},{"internalType":"uint256","name":"fundsReleased","type":"uint256"},{"internalType":"uint8","name":"currentMilestone","type":"uint8"},{"internalType":"bool","name":"disputed","type":"bool"}],"stateMutability":"view","type":"function"},{"inputs":[{"internalType":"address","name":"_presale","type":"address"},{"internalType":"address","name":"_creator","type":"address"},{"internalType":"uint256","name":"_totalFunds","type":"uint256"}],"name":"registerProject","outputs":[],"stateMutability":"nonpayable","type":"function"},{"inputs":[],"name":"renounceOwnership","outputs":[],"stateMutability":"nonpayable","type":"function"},{"inputs":[{"internalType":"address","name":"_presale","type":"address"}],"name":"requestRelease","outputs":[],"stateMutability":"nonpayable","type":"function"},{"inputs":[{"internalType":"address","name":"newOwner","type":"address"}],"name":"transferOwnership","outputs":[],"stateMutability":"nonpayable","type":"function"},{"inputs":[{"internalType":"address","name":"_presale","type":"address"},{"internalType":"bool","name":"_approve","type":"bool"}],"name":"vote","outputs":[],"stateMutability":"nonpayable","type":"function"},{"stateMutability":"payable","type":"receive"}],"evm":{"bytecode":{"linkReferences":{},"object":"6080806040523461007e5733156100685760008054336001600160a01b03198216811783556040519290916001600160a01b0316907f8be0079c531659141344cd1fd0a4f28419497f9722a3daafe3b4186f6b6457e09080a360018055610cf390816100848239f35b631e4fbdf760e01b815260006004820152602490fd5b600080fdfe60806040818152600480361015610021575b505050361561001f57600080fd5b005b600092833560e01c9081632c97703e146108aa575080634d4d2b1c1461085c578063715018a6146107ff578063840e78fd146107915780638da5cb5b14610769578063bd041c4d1461060b578063c8b94eb014610402578063d44c075f146101165763f2fde38b036100115734610112576020366003190112610112576100a66109a7565b906100af6109d8565b6001600160a01b039182169283156100fc57505082546001600160a01b0319811683178455167f8be0079c531659141344cd1fd0a4f28419497f9722a3daafe3b4186f6b6457e08380a380f35b51631e4fbdf760e01b8152908101849052602490fd5b8280fd5b509190346103fe5760603660031901126103fe576101326109a7565b61013a6109c2565b9160018060a01b0392838316918286526020946002865281872092166bffffffffffffffffffffffff60a01b8354161782556001918260443591015561017e610a3a565b92600b84526a5447452052656c6561736560a81b868501528652600285528681872001916101aa610a04565b93845285840191610fa0835284018781526060850191888352608086019389855260a08701958a8752805490600160401b8210156103d957906101f1918482018155610a5a565b9790976103ec575180519067ffffffffffffffff82116103d95788548481811c911680156103cf575b8c8210146103bb57601f8111610373575b508a90601f83116001146103045792826005999896938e9f9896936102f69f9661028697926102f9575b5050600019600383901b1c191690831b178a555b5190890155511515600288019060ff801983541691151516179055565b5160038601555190840155519101556102cf6102a0610a3a565b601781527f446576656c6f706d656e74204d696c6573746f6e6520310000000000000000008482015282610a8c565b6d46696e616c2044656c697665727960901b6102e9610a3a565b92600e8452830152610a8c565b80f35b015190503880610255565b898d528b8d209190601f1984168e5b81811061035e5750936102f69e9f989693610286969385938360059e9d9b9810610345575b505050811b018a55610269565b015160001960f88460031b161c19169055388080610338565b82840151855593870193928e01928e01610313565b898d528b8d20601f840160051c8101918d85106103b1575b601f0160051c019085908e5b8382106103a65750505061022b565b81550185908e610397565b909150819061038b565b50634e487b7160e01b8c5260228d5260248cfd5b90607f169061021a565b634e487b7160e01b8c5260418d5260248cfd5b634e487b7160e01b8b528a8c5260248bfd5b5080fd5b50346101125760203660031901126101125761041c6109a7565b9060019260028454146105fe576002845560018060a01b03809316928386526002602052818620600381019384549460ff861682840196600361045f838a610a5a565b50015442106105cb5783610473838a610a5a565b5001546005610482848b610a5a565b500154101561058e5750888401548961049b838a610a5a565b5001549081810291818304149015171561057b576002916127106104c0920498610a5a565b500160ff1990898282541617905581549060ff821660ff8114610568578a60ff910116911617905560028201805491868301809311610555575085899485948594859455541682821561054c575bf115610543577f221c08a06b07a64803b3787861a3f276212fcccb51c2e6234077a9b8cb13047a9160209151908152a2805580f35b513d85823e3d90fd5b506108fc61050e565b634e487b7160e01b8a5260119052602489fd5b634e487b7160e01b8c526011855260248cfd5b634e487b7160e01b8b526011845260248bfd5b94505094505050610100915061ff0019161790557ff6d97c5e133e50668a6b3607d8748ef6599c3303babb2b08a515a5a67369f45f8380a2805580f35b865162461bcd60e51b8152602081860152600d60248201526c566f74696e672061637469766560981b6044820152606490fd5b51633ee5aeb560e01b8152fd5b50346101125781600319360112610112576106246109a7565b906024359182151583036107655760018060a01b031690818552602092600284528486208260ff60038301541691019160036106608385610a5a565b5001544210156107315784885260038652868820338952865260ff87892054166106fe57839190156106da576106969192610a5a565b5001805491600183018093116106c75750555b83526003815281832033845290528120805460ff1916600117905580f35b634e487b7160e01b875260119052602486fd5b6106e79150600592610a5a565b5001805491600183018093116106c75750556106a9565b865162461bcd60e51b8152808501879052600d60248201526c105b1c9958591e481d9bdd1959609a1b6044820152606490fd5b865162461bcd60e51b8152808501879052600e60248201526d4e6f2061637469766520766f746560901b6044820152606490fd5b8480fd5b5050346103fe57816003193601126103fe57905490516001600160a01b039091168152602090f35b5050346103fe5760203660031901126103fe5760a0916001600160a01b039160ff918190846107be6109a7565b1681526002602052209283541692600181015491600360028301549201549281519586526020860152840152818116606084015260081c1615156080820152f35b83346108595780600319360112610859576108186109d8565b80546001600160a01b03198116825581906001600160a01b03167f8be0079c531659141344cd1fd0a4f28419497f9722a3daafe3b4186f6b6457e08280a380f35b80fd5b5050346103fe57806003193601126103fe5760ff8160209361087c6109a7565b6108846109c2565b6001600160a01b0391821683526003875283832091168252855220549151911615158152f35b91929050346109a35760203660031901126109a3576001600160a01b0391826108d16109a7565b168552600260205281852092835416330361097357508260ff600384015416920190815483101561093157506203f48042019283421161091e575060039161091891610a5a565b50015580f35b634e487b7160e01b855260119052602484fd5b5162461bcd60e51b8152602081850152601760248201527f416c6c206d696c6573746f6e65732072656c65617365640000000000000000006044820152606490fd5b62461bcd60e51b8152602084820152600c60248201526b27b7363c9031b932b0ba37b960a11b6044820152606490fd5b8380fd5b600435906001600160a01b03821682036109bd57565b600080fd5b602435906001600160a01b03821682036109bd57565b6000546001600160a01b031633036109ec57565b60405163118cdaa760e01b8152336004820152602490fd5b6040519060c0820182811067ffffffffffffffff821117610a2457604052565b634e487b7160e01b600052604160045260246000fd5b604051906040820182811067ffffffffffffffff821117610a2457604052565b8054821015610a76576000526006602060002091020190600090565b634e487b7160e01b600052603260045260246000fd5b6001600160a01b0316600090815260026020908152604082209093929190600401610ab5610a04565b92835284830190610bb88252604084018381526060850191848352608086019385855260a08701958087528254600160401b811015610ca957610aff906001948582018155610a5a565b989098610c95575180519167ffffffffffffffff8311610c815789548581811c91168015610c77575b8d821014610c635780601f8e9211610c1b575b50508b601f8411600114610bad5750916005999a9b8192610b909796959492610ba2575b5050600019600383901b1c191690831b1789555b5190880155511515600287019060ff801983541691151516179055565b51600385015551600484015551910155565b015190503880610b5f565b8a82528082209c9291601f198516915b828210610c045750509b8594939192610b909796938360059d9e9f10610beb575b505050811b018955610b73565b015160001960f88460031b161c19169055388080610bde565b838501518f559d87019d9384019390810190610bbd565b8b835281832090601f860160051c8201928610610c59575b601f0160051c019086905b828110610c4e57508d9150610b3b565b838155018690610c3e565b9091508190610c33565b634e487b7160e01b82526022600452602482fd5b90607f1690610b28565b634e487b7160e01b81526041600452602490fd5b634e487b7160e01b82526004829052602482fd5b634e487b7160e01b82526041600452602482fdfea26469706673582212206d7cdfe550cf383b2b592e545c0ec8e0ba2434fbbfb78fd02e266a49e924470e64736f6c63430008140033","opcodes":"PUSH1 0x80 DUP1 PUSH1 0x40 MSTORE CALLVALUE PUSH2 0x7E JUMPI CALLER ISZERO PUSH2 0x68 JUMPI PUSH1 0x0 DUP1 SLOAD CALLER PUSH1 0x1 PUSH1 0x1 PUSH1 0xA0 SHL SUB NOT DUP3 AND DUP2 OR DUP4 SSTORE PUSH1 0x40 MLOAD SWAP3 SWAP1 SWAP2 PUSH1 0x1 PUSH1 0x1 PUSH1 0xA0 SHL SUB AND SWAP1 PUSH32 0x8BE0079C531659141344CD1FD0A4F28419497F9722A3DAAFE3B4186F6B6457E0 SWAP1 DUP1 LOG3 PUSH1 0x1 DUP1 SSTORE PUSH2 0xCF3 SWAP1 DUP2 PUSH2 0x84 DUP3 CODECOPY RETURN JUMPDEST PUSH4 0x1E4FBDF7 PUSH1 0xE0 SHL DUP2 MSTORE PUSH1 0x0 PUSH1 0x4 DUP3 ADD MSTORE PUSH1 0x24 SWAP1 REVERT JUMPDEST PUSH1 0x0 DUP1 REVERT INVALID PUSH1 0x80 PUSH1 0x40 DUP2 DUP2 MSTORE PUSH1 0x4 DUP1 CALLDATASIZE LT ISZERO PUSH2 0x21 JUMPI JUMPDEST POP POP POP CALLDATASIZE ISZERO PUSH2 0x1F JUMPI PUSH1 0x0 DUP1 REVERT JUMPDEST STOP JUMPDEST PUSH1 0x0 SWAP3 DUP4 CALLDATALOAD PUSH1 0xE0 SHR SWAP1 DUP2 PUSH4 0x2C97703E EQ PUSH2 0x8AA JUMPI POP DUP1 PUSH4 0x4D4D2B1C EQ PUSH2 0x85C JUMPI DUP1 PUSH4 0x715018A6 EQ PUSH2 0x7FF JUMPI DUP1 PUSH4 0x840E78FD EQ PUSH2 0x791 JUMPI DUP1 PUSH4 0x8DA5CB5B EQ PUSH2 0x769 JUMPI DUP1 PUSH4 0xBD041C4D EQ PUSH2 0x60B JUMPI DUP1 PUSH4 0xC8B94EB0 EQ PUSH2 0x402 JUMPI DUP1 PUSH4 0xD44C075F EQ PUSH2 0x116 JUMPI PUSH4 0xF2FDE38B SUB PUSH2 0x11 JUMPI CALLVALUE PUSH2 0x112 JUMPI PUSH1 0x20 CALLDATASIZE PUSH1 0x3 NOT ADD SLT PUSH2 0x112 JUMPI PUSH2 0xA6 PUSH2 0x9A7 JUMP JUMPDEST SWAP1 PUSH2 0xAF PUSH2 0x9D8 JUMP JUMPDEST PUSH1 0x1 PUSH1 0x1 PUSH1 0xA0 SHL SUB SWAP2 DUP3 AND SWAP3 DUP4 ISZERO PUSH2 0xFC JUMPI POP POP DUP3 SLOAD PUSH1 0x1 PUSH1 0x1 PUSH1 0xA0 SHL SUB NOT DUP2 AND DUP4 OR DUP5 SSTORE AND PUSH32 0x8BE0079C531659141344CD1FD0A4F28419497F9722A3DAAFE3B4186F6B6457E0 DUP4 DUP1 LOG3 DUP1 RETURN JUMPDEST MLOAD PUSH4 0x1E4FBDF7 PUSH1 0xE0 SHL DUP2 MSTORE SWAP1 DUP2 ADD DUP5 SWAP1 MSTORE PUSH1 0x24 SWAP1 REVERT JUMPDEST DUP3 DUP1 REVERT JUMPDEST POP SWAP2 SWAP1 CALLVALUE PUSH2 0x3FE JUMPI PUSH1 0x60 CALLDATASIZE PUSH1 0x3 NOT ADD SLT PUSH2 0x3FE JUMPI PUSH2 0x132 PUSH2 0x9A7 JUMP JUMPDEST PUSH2 0x13A PUSH2 0x9C2 JUMP JUMPDEST SWAP2 PUSH1 0x1 DUP1 PUSH1 0xA0 SHL SUB SWAP3 DUP4 DUP4 AND SWAP2 DUP3 DUP7 MSTORE PUSH1 0x20 SWAP5 PUSH1 0x2 DUP7 MSTORE DUP2 DUP8 KECCAK256 SWAP3 AND PUSH12 0xFFFFFFFFFFFFFFFFFFFFFFFF PUSH1 0xA0 SHL DUP4 SLOAD AND OR DUP3 SSTORE PUSH1 0x1 SWAP2 DUP3 PUSH1 0x44 CALLDATALOAD SWAP2 ADD SSTORE PUSH2 0x17E PUSH2 0xA3A JUMP JUMPDEST SWAP3 PUSH1 0xB DUP5 MSTORE PUSH11 0x5447452052656C65617365 PUSH1 0xA8 SHL DUP7 DUP6 ADD MSTORE DUP7 MSTORE PUSH1 0x2 DUP6 MSTORE DUP7 DUP2 DUP8 KECCAK256 ADD SWAP2 PUSH2 0x1AA PUSH2 0xA04 JUMP JUMPDEST SWAP4 DUP5 MSTORE DUP6 DUP5 ADD SWAP2 PUSH2 0xFA0 DUP4 MSTORE DUP5 ADD DUP8 DUP2 MSTORE PUSH1 0x60 DUP6 ADD SWAP2 DUP9 DUP4 MSTORE PUSH1 0x80 DUP7 ADD SWAP4 DUP10 DUP6 MSTORE PUSH1 0xA0 DUP8 ADD SWAP6 DUP11 DUP8 MSTORE DUP1 SLOAD SWAP1 PUSH1 0x1 PUSH1 0x40 SHL DUP3 LT ISZERO PUSH2 0x3D9 JUMPI SWAP1 PUSH2 0x1F1 SWAP2 DUP5 DUP3 ADD DUP2 SSTORE PUSH2 0xA5A JUMP JUMPDEST SWAP8 SWAP1 SWAP8 PUSH2 0x3EC JUMPI MLOAD DUP1 MLOAD SWAP1 PUSH8 0xFFFFFFFFFFFFFFFF DUP3 GT PUSH2 0x3D9 JUMPI DUP9 SLOAD DUP5 DUP2 DUP2 SHR SWAP2 AND DUP1 ISZERO PUSH2 0x3CF JUMPI JUMPDEST DUP13 DUP3 LT EQ PUSH2 0x3BB JUMPI PUSH1 0x1F DUP2 GT PUSH2 0x373 JUMPI JUMPDEST POP DUP11 SWAP1 PUSH1 0x1F DUP4 GT PUSH1 0x1 EQ PUSH2 0x304 JUMPI SWAP3 DUP3 PUSH1 0x5 SWAP10 SWAP9 SWAP7 SWAP4 DUP15 SWAP16 SWAP9 SWAP7 SWAP4 PUSH2 0x2F6 SWAP16 SWAP7 PUSH2 0x286 SWAP8 SWAP3 PUSH2 0x2F9 JUMPI JUMPDEST POP POP PUSH1 0x0 NOT PUSH1 0x3 DUP4 SWAP1 SHL SHR NOT AND SWAP1 DUP4 SHL OR DUP11 SSTORE JUMPDEST MLOAD SWAP1 DUP10 ADD SSTORE MLOAD ISZERO ISZERO PUSH1 0x2 DUP9 ADD SWAP1 PUSH1 0xFF DUP1 NOT DUP4 SLOAD AND SWAP2 ISZERO ISZERO AND OR SWAP1 SSTORE JUMP JUMPDEST MLOAD PUSH1 0x3 DUP7 ADD SSTORE MLOAD SWAP1 DUP5 ADD SSTORE MLOAD SWAP2 ADD SSTORE PUSH2 0x2CF PUSH2 0x2A0 PUSH2 0xA3A JUMP JUMPDEST PUSH1 0x17 DUP2 MSTORE PUSH32 0x446576656C6F706D656E74204D696C6573746F6E652031000000000000000000 DUP5 DUP3 ADD MSTORE DUP3 PUSH2 0xA8C JUMP JUMPDEST PUSH14 0x46696E616C2044656C6976657279 PUSH1 0x90 SHL PUSH2 0x2E9 PUSH2 0xA3A JUMP JUMPDEST SWAP3 PUSH1 0xE DUP5 MSTORE DUP4 ADD MSTORE PUSH2 0xA8C JUMP JUMPDEST DUP1 RETURN JUMPDEST ADD MLOAD SWAP1 POP CODESIZE DUP1 PUSH2 0x255 JUMP JUMPDEST DUP10 DUP14 MSTORE DUP12 DUP14 KECCAK256 SWAP2 SWAP1 PUSH1 0x1F NOT DUP5 AND DUP15 JUMPDEST DUP2 DUP2 LT PUSH2 0x35E JUMPI POP SWAP4 PUSH2 0x2F6 SWAP15 SWAP16 SWAP9 SWAP7 SWAP4 PUSH2 0x286 SWAP7 SWAP4 DUP6 SWAP4 DUP4 PUSH1 0x5 SWAP15 SWAP14 SWAP12 SWAP9 LT PUSH2 0x345 JUMPI JUMPDEST POP POP POP DUP2 SHL ADD DUP11 SSTORE PUSH2 0x269 JUMP JUMPDEST ADD MLOAD PUSH1 0x0 NOT PUSH1 0xF8 DUP5 PUSH1 0x3 SHL AND SHR NOT AND SWAP1 SSTORE CODESIZE DUP1 DUP1 PUSH2 0x338 JUMP JUMPDEST DUP3 DUP5 ADD MLOAD DUP6 SSTORE SWAP4 DUP8 ADD SWAP4 SWAP3 DUP15 ADD SWAP3 DUP15 ADD PUSH2 0x313 JUMP JUMPDEST DUP10 DUP14 MSTORE DUP12 DUP14 KECCAK256 PUSH1 0x1F DUP5 ADD PUSH1 0x5 SHR DUP2 ADD SWAP2 DUP14 DUP6 LT PUSH2 0x3B1 JUMPI JUMPDEST PUSH1 0x1F ADD PUSH1 0x5 SHR ADD SWAP1 DUP6 SWAP1 DUP15 JUMPDEST DUP4 DUP3 LT PUSH2 0x3A6 JUMPI POP POP POP PUSH2 0x22B JUMP JUMPDEST DUP2 SSTORE ADD DUP6 SWAP1 DUP15 PUSH2 0x397 JUMP JUMPDEST SWAP1 SWAP2 POP DUP2 SWAP1 PUSH2 0x38B JUMP JUMPDEST POP PUSH4 0x4E487B71 PUSH1 0xE0 SHL DUP13 MSTORE PUSH1 0x22 DUP14 MSTORE PUSH1 0x24 DUP13 REVERT JUMPDEST SWAP1 PUSH1 0x7F AND SWAP1 PUSH2 0x21A JUMP JUMPDEST PUSH4 0x4E487B71 PUSH1 0xE0 SHL DUP13 MSTORE PUSH1 0x41 DUP14 MSTORE PUSH1 0x24 DUP13 REVERT JUMPDEST PUSH4 0x4E487B71 PUSH1 0xE0 SHL DUP12 MSTORE DUP11 DUP13 MSTORE PUSH1 0x24 DUP12 REVERT JUMPDEST POP DUP1 REVERT JUMPDEST POP CALLVALUE PUSH2 0x112 JUMPI PUSH1 0x20 CALLDATASIZE PUSH1 0x3 NOT ADD SLT PUSH2 0x112 JUMPI PUSH2 0x41C PUSH2 0x9A7 JUMP JUMPDEST SWAP1 PUSH1 0x1 SWAP3 PUSH1 0x2 DUP5 SLOAD EQ PUSH2 0x5FE JUMPI PUSH1 0x2 DUP5 SSTORE PUSH1 0x1 DUP1 PUSH1 0xA0 SHL SUB DUP1 SWAP4 AND SWAP3 DUP4 DUP7 MSTORE PUSH1 0x2 PUSH1 0x20 MSTORE DUP2 DUP7 KECCAK256 PUSH1 0x3 DUP2 ADD SWAP4 DUP5 SLOAD SWAP5 PUSH1 0xFF DUP7 AND DUP3 DUP5 ADD SWAP7 PUSH1 0x3 PUSH2 0x45F DUP4 DUP11 PUSH2 0xA5A JUMP JUMPDEST POP ADD SLOAD TIMESTAMP LT PUSH2 0x5CB JUMPI DUP4 PUSH2 0x473 DUP4 DUP11 PUSH2 0xA5A JUMP JUMPDEST POP ADD SLOAD PUSH1 0x5 PUSH2 0x482 DUP5 DUP12 PUSH2 0xA5A JUMP JUMPDEST POP ADD SLOAD LT ISZERO PUSH2 0x58E JUMPI POP DUP9 DUP5 ADD SLOAD DUP10 PUSH2 0x49B DUP4 DUP11 PUSH2 0xA5A JUMP JUMPDEST POP ADD SLOAD SWAP1 DUP2 DUP2 MUL SWAP2 DUP2 DUP4 DIV EQ SWAP1 ISZERO OR ISZERO PUSH2 0x57B JUMPI PUSH1 0x2 SWAP2 PUSH2 0x2710 PUSH2 0x4C0 SWAP3 DIV SWAP9 PUSH2 0xA5A JUMP JUMPDEST POP ADD PUSH1 0xFF NOT SWAP1 DUP10 DUP3 DUP3 SLOAD AND OR SWAP1 SSTORE DUP2 SLOAD SWAP1 PUSH1 0xFF DUP3 AND PUSH1 0xFF DUP2 EQ PUSH2 0x568 JUMPI DUP11 PUSH1 0xFF SWAP2 ADD AND SWAP2 AND OR SWAP1 SSTORE PUSH1 0x2 DUP3 ADD DUP1 SLOAD SWAP2 DUP7 DUP4 ADD DUP1 SWAP4 GT PUSH2 0x555 JUMPI POP DUP6 DUP10 SWAP5 DUP6 SWAP5 DUP6 SWAP5 DUP6 SWAP5 SSTORE SLOAD AND DUP3 DUP3 ISZERO PUSH2 0x54C JUMPI JUMPDEST CALL ISZERO PUSH2 0x543 JUMPI PUSH32 0x221C08A06B07A64803B3787861A3F276212FCCCB51C2E6234077A9B8CB13047A SWAP2 PUSH1 0x20 SWAP2 MLOAD SWAP1 DUP2 MSTORE LOG2 DUP1 SSTORE DUP1 RETURN JUMPDEST MLOAD RETURNDATASIZE DUP6 DUP3 RETURNDATACOPY RETURNDATASIZE SWAP1 REVERT JUMPDEST POP PUSH2 0x8FC PUSH2 0x50E JUMP JUMPDEST PUSH4 0x4E487B71 PUSH1 0xE0 SHL DUP11 MSTORE PUSH1 0x11 SWAP1 MSTORE PUSH1 0x24 DUP10 REVERT JUMPDEST PUSH4 0x4E487B71 PUSH1 0xE0 SHL DUP13 MSTORE PUSH1 0x11 DUP6 MSTORE PUSH1 0x24 DUP13 REVERT JUMPDEST PUSH4 0x4E487B71 PUSH1 0xE0 SHL DUP12 MSTORE PUSH1 0x11 DUP5 MSTORE PUSH1 0x24 DUP12 REVERT JUMPDEST SWAP5 POP POP SWAP5 POP POP POP PUSH2 0x100 SWAP2 POP PUSH2 0xFF00 NOT AND OR SWAP1 SSTORE PUSH32 0xF6D97C5E133E50668A6B3607D8748EF6599C3303BABB2B08A515A5A67369F45F DUP4 DUP1 LOG2 DUP1 SSTORE DUP1 RETURN JUMPDEST DUP7 MLOAD PUSH3 0x461BCD PUSH1 0xE5 SHL DUP2 MSTORE PUSH1 0x20 DUP2 DUP7 ADD MSTORE PUSH1 0xD PUSH1 0x24 DUP3 ADD MSTORE PUSH13 0x566F74696E6720616374697665 PUSH1 0x98 SHL PUSH1 0x44 DUP3 ADD MSTORE PUSH1 0x64 SWAP1 REVERT JUMPDEST MLOAD PUSH4 0x3EE5AEB5 PUSH1 0xE0 SHL DUP2 MSTORE REVERT JUMPDEST POP CALLVALUE PUSH2 0x112 JUMPI DUP2 PUSH1 0x3 NOT CALLDATASIZE ADD SLT PUSH2 0x112 JUMPI PUSH2 0x624 PUSH2 0x9A7 JUMP JUMPDEST SWAP1 PUSH1 0x24 CALLDATALOAD SWAP2 DUP3 ISZERO ISZERO DUP4 SUB PUSH2 0x765 JUMPI PUSH1 0x1 DUP1 PUSH1 0xA0 SHL SUB AND SWAP1 DUP2 DUP6 MSTORE PUSH1 0x20 SWAP3 PUSH1 0x2 DUP5 MSTORE DUP5 DUP7 KECCAK256 DUP3 PUSH1 0xFF PUSH1 0x3 DUP4 ADD SLOAD AND SWAP2 ADD SWAP2 PUSH1 0x3 PUSH2 0x660 DUP4 DUP6 PUSH2 0xA5A JUMP JUMPDEST POP ADD SLOAD TIMESTAMP LT ISZERO PUSH2 0x731 JUMPI DUP5 DUP9 MSTORE PUSH1 0x3 DUP7 MSTORE DUP7 DUP9 KECCAK256 CALLER DUP10 MSTORE DUP7 MSTORE PUSH1 0xFF DUP8 DUP10 KECCAK256 SLOAD AND PUSH2 0x6FE JUMPI DUP4 SWAP2 SWAP1 ISZERO PUSH2 0x6DA JUMPI PUSH2 0x696 SWAP2 SWAP3 PUSH2 0xA5A JUMP JUMPDEST POP ADD DUP1 SLOAD SWAP2 PUSH1 0x1 DUP4 ADD DUP1 SWAP4 GT PUSH2 0x6C7 JUMPI POP SSTORE JUMPDEST DUP4 MSTORE PUSH1 0x3 DUP2 MSTORE DUP2 DUP4 KECCAK256 CALLER DUP5 MSTORE SWAP1 MSTORE DUP2 KECCAK256 DUP1 SLOAD PUSH1 0xFF NOT AND PUSH1 0x1 OR SWAP1 SSTORE DUP1 RETURN JUMPDEST PUSH4 0x4E487B71 PUSH1 0xE0 SHL DUP8 MSTORE PUSH1 0x11 SWAP1 MSTORE PUSH1 0x24 DUP7 REVERT JUMPDEST PUSH2 0x6E7 SWAP2 POP PUSH1 0x5 SWAP3 PUSH2 0xA5A JUMP JUMPDEST POP ADD DUP1 SLOAD SWAP2 PUSH1 0x1 DUP4 ADD DUP1 SWAP4 GT PUSH2 0x6C7 JUMPI POP SSTORE PUSH2 0x6A9 JUMP JUMPDEST DUP7 MLOAD PUSH3 0x461BCD PUSH1 0xE5 SHL DUP2 MSTORE DUP1 DUP6 ADD DUP8 SWAP1 MSTORE PUSH1 0xD PUSH1 0x24 DUP3 ADD MSTORE PUSH13 0x105B1C9958591E481D9BDD1959 PUSH1 0x9A SHL PUSH1 0x44 DUP3 ADD MSTORE PUSH1 0x64 SWAP1 REVERT JUMPDEST DUP7 MLOAD PUSH3 0x461BCD PUSH1 0xE5 SHL DUP2 MSTORE DUP1 DUP6 ADD DUP8 SWAP1 MSTORE PUSH1 0xE PUSH1 0x24 DUP3 ADD MSTORE PUSH14 0x4E6F2061637469766520766F7465 PUSH1 0x90 SHL PUSH1 0x44 DUP3 ADD MSTORE PUSH1 0x64 SWAP1 REVERT JUMPDEST DUP5 DUP1 REVERT JUMPDEST POP POP CALLVALUE PUSH2 0x3FE JUMPI DUP2 PUSH1 0x3 NOT CALLDATASIZE ADD SLT PUSH2 0x3FE JUMPI SWAP1 SLOAD SWAP1 MLOAD PUSH1 0x1 PUSH1 0x1 PUSH1 0xA0 SHL SUB SWAP1 SWAP2 AND DUP2 MSTORE PUSH1 0x20 SWAP1 RETURN JUMPDEST POP POP CALLVALUE PUSH2 0x3FE JUMPI PUSH1 0x20 CALLDATASIZE PUSH1 0x3 NOT ADD SLT PUSH2 0x3FE JUMPI PUSH1 0xA0 SWAP2 PUSH1 0x1 PUSH1 0x1 PUSH1 0xA0 SHL SUB SWAP2 PUSH1 0xFF SWAP2 DUP2 SWAP1 DUP5 PUSH2 0x7BE PUSH2 0x9A7 JUMP JUMPDEST AND DUP2 MSTORE PUSH1 0x2 PUSH1 0x20 MSTORE KECCAK256 SWAP3 DUP4 SLOAD AND SWAP3 PUSH1 0x1 DUP2 ADD SLOAD SWAP2 PUSH1 0x3 PUSH1 0x2 DUP4 ADD SLOAD SWAP3 ADD SLOAD SWAP3 DUP2 MLOAD SWAP6 DUP7 MSTORE PUSH1 0x20 DUP7 ADD MSTORE DUP5 ADD MSTORE DUP2 DUP2 AND PUSH1 0x60 DUP5 ADD MSTORE PUSH1 0x8 SHR AND ISZERO ISZERO PUSH1 0x80 DUP3 ADD MSTORE RETURN JUMPDEST DUP4 CALLVALUE PUSH2 0x859 JUMPI DUP1 PUSH1 0x3 NOT CALLDATASIZE ADD SLT PUSH2 0x859 JUMPI PUSH2 0x818 PUSH2 0x9D8 JUMP JUMPDEST DUP1 SLOAD PUSH1 0x1 PUSH1 0x1 PUSH1 0xA0 SHL SUB NOT DUP2 AND DUP3 SSTORE DUP2 SWAP1 PUSH1 0x1 PUSH1 0x1 PUSH1 0xA0 SHL SUB AND PUSH32 0x8BE0079C531659141344CD1FD0A4F28419497F9722A3DAAFE3B4186F6B6457E0 DUP3 DUP1 LOG3 DUP1 RETURN JUMPDEST DUP1 REVERT JUMPDEST POP POP CALLVALUE PUSH2 0x3FE JUMPI DUP1 PUSH1 0x3 NOT CALLDATASIZE ADD SLT PUSH2 0x3FE JUMPI PUSH1 0xFF DUP2 PUSH1 0x20 SWAP4 PUSH2 0x87C PUSH2 0x9A7 JUMP JUMPDEST PUSH2 0x884 PUSH2 0x9C2 JUMP JUMPDEST PUSH1 0x1 PUSH1 0x1 PUSH1 0xA0 SHL SUB SWAP2 DUP3 AND DUP4 MSTORE PUSH1 0x3 DUP8 MSTORE DUP4 DUP4 KECCAK256 SWAP2 AND DUP3 MSTORE DUP6 MSTORE KECCAK256 SLOAD SWAP2 MLOAD SWAP2 AND ISZERO ISZERO DUP2 MSTORE RETURN JUMPDEST SWAP2 SWAP3 SWAP1 POP CALLVALUE PUSH2 0x9A3 JUMPI PUSH1 0x20 CALLDATASIZE PUSH1 0x3 NOT ADD SLT PUSH2 0x9A3 JUMPI PUSH1 0x1 PUSH1 0x1 PUSH1 0xA0 SHL SUB SWAP2 DUP3 PUSH2 0x8D1 PUSH2 0x9A7 JUMP JUMPDEST AND DUP6 MSTORE PUSH1 0x2 PUSH1 0x20 MSTORE DUP2 DUP6 KECCAK256 SWAP3 DUP4 SLOAD AND CALLER SUB PUSH2 0x973 JUMPI POP DUP3 PUSH1 0xFF PUSH1 0x3 DUP5 ADD SLOAD AND SWAP3 ADD SWAP1 DUP2 SLOAD DUP4 LT ISZERO PUSH2 0x931 JUMPI POP PUSH3 0x3F480 TIMESTAMP ADD SWAP3 DUP4 TIMESTAMP GT PUSH2 0x91E JUMPI POP PUSH1 0x3 SWAP2 PUSH2 0x918 SWAP2 PUSH2 0xA5A JUMP JUMPDEST POP ADD SSTORE DUP1 RETURN JUMPDEST PUSH4 0x4E487B71 PUSH1 0xE0 SHL DUP6 MSTORE PUSH1 0x11 SWAP1 MSTORE PUSH1 0x24 DUP5 REVERT JUMPDEST MLOAD PUSH3 0x461BCD PUSH1 0xE5 SHL DUP2 MSTORE PUSH1 0x20 DUP2 DUP6 ADD MSTORE PUSH1 0x17 PUSH1 0x24 DUP3 ADD MSTORE PUSH32 0x416C6C206D696C6573746F6E65732072656C6561736564000000000000000000 PUSH1 0x44 DUP3 ADD MSTORE PUSH1 0x64 SWAP1 REVERT JUMPDEST PUSH3 0x461BCD PUSH1 0xE5 SHL DUP2 MSTORE PUSH1 0x20 DUP5 DUP3 ADD MSTORE PUSH1 0xC PUSH1 0x24 DUP3 ADD MSTORE PUSH12 0x27B7363C9031B932B0BA37B9 PUSH1 0xA1 SHL PUSH1 0x44 DUP3 ADD MSTORE PUSH1 0x64 SWAP1 REVERT JUMPDEST DUP4 DUP1 REVERT JUMPDEST PUSH1 0x4 CALLDATALOAD SWAP1 PUSH1 0x1 PUSH1 0x1 PUSH1 0xA0 SHL SUB DUP3 AND DUP3 SUB PUSH2 0x9BD JUMPI JUMP JUMPDEST PUSH1 0x0 DUP1 REVERT JUMPDEST PUSH1 0x24 CALLDATALOAD SWAP1 PUSH1 0x1 PUSH1 0x1 PUSH1 0xA0 SHL SUB DUP3 AND DUP3 SUB PUSH2 0x9BD JUMPI JUMP JUMPDEST PUSH1 0x0 SLOAD PUSH1 0x1 PUSH1 0x1 PUSH1 0xA0 SHL SUB AND CALLER SUB PUSH2 0x9EC JUMPI JUMP JUMPDEST PUSH1 0x40 MLOAD PUSH4 0x118CDAA7 PUSH1 0xE0 SHL DUP2 MSTORE CALLER PUSH1 0x4 DUP3 ADD MSTORE PUSH1 0x24 SWAP1 REVERT JUMPDEST PUSH1 0x40 MLOAD SWAP1 PUSH1 0xC0 DUP3 ADD DUP3 DUP2 LT PUSH8 0xFFFFFFFFFFFFFFFF DUP3 GT OR PUSH2 0xA24 JUMPI PUSH1 0x40 MSTORE JUMP JUMPDEST PUSH4 0x4E487B71 PUSH1 0xE0 SHL PUSH1 0x0 MSTORE PUSH1 0x41 PUSH1 0x4 MSTORE PUSH1 0x24 PUSH1 0x0 REVERT JUMPDEST PUSH1 0x40 MLOAD SWAP1 PUSH1 0x40 DUP3 ADD DUP3 DUP2 LT PUSH8 0xFFFFFFFFFFFFFFFF DUP3 GT OR PUSH2 0xA24 JUMPI PUSH1 0x40 MSTORE JUMP JUMPDEST DUP1 SLOAD DUP3 LT ISZERO PUSH2 0xA76 JUMPI PUSH1 0x0 MSTORE PUSH1 0x6 PUSH1 0x20 PUSH1 0x0 KECCAK256 SWAP2 MUL ADD SWAP1 PUSH1 0x0 SWAP1 JUMP JUMPDEST PUSH4 0x4E487B71 PUSH1 0xE0 SHL PUSH1 0x0 MSTORE PUSH1 0x32 PUSH1 0x4 MSTORE PUSH1 0x24 PUSH1 0x0 REVERT JUMPDEST PUSH1 0x1 PUSH1 0x1 PUSH1 0xA0 SHL SUB AND PUSH1 0x0 SWAP1 DUP2 MSTORE PUSH1 0x2 PUSH1 0x20 SWAP1 DUP2 MSTORE PUSH1 0x40 DUP3 KECCAK256 SWAP1 SWAP4 SWAP3 SWAP2 SWAP1 PUSH1 0x4 ADD PUSH2 0xAB5 PUSH2 0xA04 JUMP JUMPDEST SWAP3 DUP4 MSTORE DUP5 DUP4 ADD SWAP1 PUSH2 0xBB8 DUP3 MSTORE PUSH1 0x40 DUP5 ADD DUP4 DUP2 MSTORE PUSH1 0x60 DUP6 ADD SWAP2 DUP5 DUP4 MSTORE PUSH1 0x80 DUP7 ADD SWAP4 DUP6 DUP6 MSTORE PUSH1 0xA0 DUP8 ADD SWAP6 DUP1 DUP8 MSTORE DUP3 SLOAD PUSH1 0x1 PUSH1 0x40 SHL DUP2 LT ISZERO PUSH2 0xCA9 JUMPI PUSH2 0xAFF SWAP1 PUSH1 0x1 SWAP5 DUP6 DUP3 ADD DUP2 SSTORE PUSH2 0xA5A JUMP JUMPDEST SWAP9 SWAP1 SWAP9 PUSH2 0xC95 JUMPI MLOAD DUP1 MLOAD SWAP2 PUSH8 0xFFFFFFFFFFFFFFFF DUP4 GT PUSH2 0xC81 JUMPI DUP10 SLOAD DUP6 DUP2 DUP2 SHR SWAP2 AND DUP1 ISZERO PUSH2 0xC77 JUMPI JUMPDEST DUP14 DUP3 LT EQ PUSH2 0xC63 JUMPI DUP1 PUSH1 0x1F DUP15 SWAP3 GT PUSH2 0xC1B JUMPI JUMPDEST POP POP DUP12 PUSH1 0x1F DUP5 GT PUSH1 0x1 EQ PUSH2 0xBAD JUMPI POP SWAP2 PUSH1 0x5 SWAP10 SWAP11 SWAP12 DUP2 SWAP3 PUSH2 0xB90 SWAP8 SWAP7 SWAP6 SWAP5 SWAP3 PUSH2 0xBA2 JUMPI JUMPDEST POP POP PUSH1 0x0 NOT PUSH1 0x3 DUP4 SWAP1 SHL SHR NOT AND SWAP1 DUP4 SHL OR DUP10 SSTORE JUMPDEST MLOAD SWAP1 DUP9 ADD SSTORE MLOAD ISZERO ISZERO PUSH1 0x2 DUP8 ADD SWAP1 PUSH1 0xFF DUP1 NOT DUP4 SLOAD AND SWAP2 ISZERO ISZERO AND OR SWAP1 SSTORE JUMP JUMPDEST MLOAD PUSH1 0x3 DUP6 ADD SSTORE MLOAD PUSH1 0x4 DUP5 ADD SSTORE MLOAD SWAP2 ADD SSTORE JUMP JUMPDEST ADD MLOAD SWAP1 POP CODESIZE DUP1 PUSH2 0xB5F JUMP JUMPDEST DUP11 DUP3 MSTORE DUP1 DUP3 KECCAK256 SWAP13 SWAP3 SWAP2 PUSH1 0x1F NOT DUP6 AND SWAP2 JUMPDEST DUP3 DUP3 LT PUSH2 0xC04 JUMPI POP POP SWAP12 DUP6 SWAP5 SWAP4 SWAP2 SWAP3 PUSH2 0xB90 SWAP8 SWAP7 SWAP4 DUP4 PUSH1 0x5 SWAP14 SWAP15 SWAP16 LT PUSH2 0xBEB JUMPI JUMPDEST POP POP POP DUP2 SHL ADD DUP10 SSTORE PUSH2 0xB73 JUMP JUMPDEST ADD MLOAD PUSH1 0x0 NOT PUSH1 0xF8 DUP5 PUSH1 0x3 SHL AND SHR NOT AND SWAP1 SSTORE CODESIZE DUP1 DUP1 PUSH2 0xBDE JUMP JUMPDEST DUP4 DUP6 ADD MLOAD DUP16 SSTORE SWAP14 DUP8 ADD SWAP14 SWAP4 DUP5 ADD SWAP4 SWAP1 DUP2 ADD SWAP1 PUSH2 0xBBD JUMP JUMPDEST DUP12 DUP4 MSTORE DUP2 DUP4 KECCAK256 SWAP1 PUSH1 0x1F DUP7 ADD PUSH1 0x5 SHR DUP3 ADD SWAP3 DUP7 LT PUSH2 0xC59 JUMPI JUMPDEST PUSH1 0x1F ADD PUSH1 0x5 SHR ADD SWAP1 DUP7 SWAP1 JUMPDEST DUP3 DUP2 LT PUSH2 0xC4E JUMPI POP DUP14 SWAP2 POP PUSH2 0xB3B JUMP JUMPDEST DUP4 DUP2 SSTORE ADD DUP7 SWAP1 PUSH2 0xC3E JUMP JUMPDEST SWAP1 SWAP2 POP DUP2 SWAP1 PUSH2 0xC33 JUMP JUMPDEST PUSH4 0x4E487B71 PUSH1 0xE0 SHL DUP3 MSTORE PUSH1 0x22 PUSH1 0x4 MSTORE PUSH1 0x24 DUP3 REVERT JUMPDEST SWAP1 PUSH1 0x7F AND SWAP1 PUSH2 0xB28 JUMP JUMPDEST PUSH4 0x4E487B71 PUSH1 0xE0 SHL DUP2 MSTORE PUSH1 0x41 PUSH1 0x4 MSTORE PUSH1 0x24 SWAP1 REVERT JUMPDEST PUSH4 0x4E487B71 PUSH1 0xE0 SHL DUP3 MSTORE PUSH1 0x4 DUP3 SWAP1 MSTORE PUSH1 0x24 DUP3 REVERT JUMPDEST PUSH4 0x4E487B71 PUSH1 0xE0 SHL DUP3 MSTORE PUSH1 0x41 PUSH1 0x4 MSTORE PUSH1 0x24 DUP3 REVERT INVALID LOG2 PUSH5 0x6970667358 0x22 SLT KECCAK256 PUSH14 0x7CDFE550CF383B2B592E545C0EC8 0xE0 0xBA 0x24 CALLVALUE 0xFB 0xBF 0xB7 DUP16 0xD0 0x2E 0x26 PUSH11 0x49E924470E64736F6C6343 STOP ADDMOD EQ STOP CALLER "},"methodIdentifiers":{"finalizeRelease(address)":"c8b94eb0","hasVoted(address,address)":"4d4d2b1c","owner()":"8da5cb5b","projects(address)":"840e78fd","registerProject(address,address,uint256)":"d44c075f","renounceOwnership()":"715018a6","requestRelease(address)":"2c97703e","transferOwnership(address)":"f2fde38b","vote(address,bool)":"bd041c4d"}}}}}