{"contracts/Presale.sol":{"Presale":{"abi":[{"inputs":[{"internalType":"address","name":"_token","type":"address"},{"internalType":"address","name":"_router","type":"address"},{"internalType":"uint256","name":"_softCap","type":"uint256"},{"internalType":"uint256","name":"_hardCap","type":"uint256"},{"internalType":"uint256","name":"_presaleRate","type":"uint256"},{"internalType":"uint256","name":"_listingRate","type":"uint256"},{"internalType":"uint256","name":"_liquidityPercent","type":"uint256"},{"internalType":"uint256","name":"_startTime","type":"uint256"},{"internalType":"uint256","name":"_endTime","type":"uint256"},{"internalType":"uint256","name":"_lockPeriod","type":"uint256"},{"internalType":"uint256","name":"_maxSpendPerBuyer","type":"uint256"},{"internalType":"uint256","name":"_amount","type":"uint256"},{"internalType":"address","name":"","type":"address"},{"internalType":"address","name":"_owner","type":"address"}],"stateMutability":"nonpayable","type":"constructor"},{"inputs":[{"internalType":"address","name":"owner","type":"address"}],"name":"OwnableInvalidOwner","type":"error"},{"inputs":[{"internalType":"address","name":"account","type":"address"}],"name":"OwnableUnauthorizedAccount","type":"error"},{"inputs":[],"name":"ReentrancyGuardReentrantCall","type":"error"},{"inputs":[{"internalType":"address","name":"token","type":"address"}],"name":"SafeERC20FailedOperation","type":"error"},{"anonymous":false,"inputs":[{"indexed":true,"internalType":"address","name":"buyer","type":"address"},{"indexed":false,"internalType":"uint256","name":"amount","type":"uint256"}],"name":"Contribution","type":"event"},{"anonymous":false,"inputs":[{"indexed":true,"internalType":"address","name":"owner","type":"address"},{"indexed":false,"internalType":"uint256","name":"amount","type":"uint256"}],"name":"EmergencyWithdraw","type":"event"},{"anonymous":false,"inputs":[{"indexed":true,"internalType":"address","name":"previousOwner","type":"address"},{"indexed":true,"internalType":"address","name":"newOwner","type":"address"}],"name":"OwnershipTransferred","type":"event"},{"anonymous":false,"inputs":[{"indexed":false,"internalType":"uint256","name":"totalRaised","type":"uint256"},{"indexed":false,"internalType":"uint256","name":"liquidityAdded","type":"uint256"},{"indexed":false,"internalType":"uint256","name":"tokensLocked","type":"uint256"}],"name":"PresaleFinalized","type":"event"},{"anonymous":false,"inputs":[{"indexed":true,"internalType":"address","name":"token","type":"address"},{"indexed":true,"internalType":"address","name":"owner","type":"address"},{"indexed":false,"internalType":"uint256","name":"amount","type":"uint256"}],"name":"PresaleInitialized","type":"event"},{"anonymous":false,"inputs":[{"indexed":true,"internalType":"address","name":"buyer","type":"address"},{"indexed":false,"internalType":"uint256","name":"amount","type":"uint256"}],"name":"RefundClaimed","type":"event"},{"anonymous":false,"inputs":[{"indexed":true,"internalType":"address","name":"buyer","type":"address"},{"indexed":false,"internalType":"uint256","name":"amount","type":"uint256"}],"name":"TokensClaimed","type":"event"},{"inputs":[],"name":"ANTI_WHALE_PERIOD","outputs":[{"internalType":"uint256","name":"","type":"uint256"}],"stateMutability":"view","type":"function"},{"inputs":[],"name":"COOLDOWN_PERIOD","outputs":[{"internalType":"uint256","name":"","type":"uint256"}],"stateMutability":"view","type":"function"},{"inputs":[],"name":"MIN_LIQUIDITY_PERCENT","outputs":[{"internalType":"uint256","name":"","type":"uint256"}],"stateMutability":"view","type":"function"},{"inputs":[],"name":"claimRefund","outputs":[],"stateMutability":"nonpayable","type":"function"},{"inputs":[],"name":"claimTokens","outputs":[],"stateMutability":"nonpayable","type":"function"},{"inputs":[],"name":"contribute","outputs":[],"stateMutability":"payable","type":"function"},{"inputs":[{"internalType":"address","name":"","type":"address"}],"name":"contributions","outputs":[{"internalType":"uint256","name":"","type":"uint256"}],"stateMutability":"view","type":"function"},{"inputs":[],"name":"endTime","outputs":[{"internalType":"uint256","name":"","type":"uint256"}],"stateMutability":"view","type":"function"},{"inputs":[],"name":"escrowManager","outputs":[{"internalType":"address","name":"","type":"address"}],"stateMutability":"view","type":"function"},{"inputs":[],"name":"finalize","outputs":[],"stateMutability":"nonpayable","type":"function"},{"inputs":[],"name":"finalized","outputs":[{"internalType":"bool","name":"","type":"bool"}],"stateMutability":"view","type":"function"},{"inputs":[],"name":"getState","outputs":[{"internalType":"enum Presale.State","name":"","type":"uint8"}],"stateMutability":"view","type":"function"},{"inputs":[],"name":"hardCap","outputs":[{"internalType":"uint256","name":"","type":"uint256"}],"stateMutability":"view","type":"function"},{"inputs":[{"internalType":"address","name":"","type":"address"}],"name":"hasClaimed","outputs":[{"internalType":"bool","name":"","type":"bool"}],"stateMutability":"view","type":"function"},{"inputs":[],"name":"insuranceVault","outputs":[{"internalType":"address","name":"","type":"address"}],"stateMutability":"view","type":"function"},{"inputs":[{"internalType":"address","name":"","type":"address"}],"name":"lastContributionTime","outputs":[{"internalType":"uint256","name":"","type":"uint256"}],"stateMutability":"view","type":"function"},{"inputs":[],"name":"liquidityPercent","outputs":[{"internalType":"uint256","name":"","type":"uint256"}],"stateMutability":"view","type":"function"},{"inputs":[],"name":"listingRate","outputs":[{"internalType":"uint256","name":"","type":"uint256"}],"stateMutability":"view","type":"function"},{"inputs":[],"name":"maxSpendPerBuyer","outputs":[{"internalType":"uint256","name":"","type":"uint256"}],"stateMutability":"view","type":"function"},{"inputs":[],"name":"owner","outputs":[{"internalType":"address","name":"","type":"address"}],"stateMutability":"view","type":"function"},{"inputs":[],"name":"presaleRate","outputs":[{"internalType":"uint256","name":"","type":"uint256"}],"stateMutability":"view","type":"function"},{"inputs":[],"name":"renounceOwnership","outputs":[],"stateMutability":"nonpayable","type":"function"},{"inputs":[],"name":"router","outputs":[{"internalType":"contract IUniswapV2Router02","name":"","type":"address"}],"stateMutability":"view","type":"function"},{"inputs":[],"name":"softCap","outputs":[{"internalType":"uint256","name":"","type":"uint256"}],"stateMutability":"view","type":"function"},{"inputs":[],"name":"startTime","outputs":[{"internalType":"uint256","name":"","type":"uint256"}],"stateMutability":"view","type":"function"},{"inputs":[],"name":"token","outputs":[{"internalType":"contract IERC20","name":"","type":"address"}],"stateMutability":"view","type":"function"},{"inputs":[],"name":"totalRaised","outputs":[{"internalType":"uint256","name":"","type":"uint256"}],"stateMutability":"view","type":"function"},{"inputs":[{"internalType":"address","name":"newOwner","type":"address"}],"name":"transferOwnership","outputs":[],"stateMutability":"nonpayable","type":"function"},{"inputs":[],"name":"withdrawUnsoldTokens","outputs":[],"stateMutability":"nonpayable","type":"function"},{"stateMutability":"payable","type":"receive"}],"evm":{"bytecode":{"linkReferences":{},"object":"34620004c65762001dcd388190036101c0601f8201601f19168101906001600160401b03821190821017620004cb576101c09282916040526101c03912620004c6576200004e6101c0620004e1565b6200005b6101e0620004e1565b61020051610220516102405161026051610280516102a0516102c05161030051610320519499969894979694959093919291906200009b610340620004e1565b506001600160a01b03620000b1610360620004e1565b16998a15620004ad57600080546001600160a01b031981168d178255604051918d916001600160a01b0316907f8be0079c531659141344cd1fd0a4f28419497f9722a3daafe3b4186f6b6457e09080a3600180556001600160a01b038816156200047b57506001600160a01b038816156200044557881515806200043a575b15620004065742841115620003cc57838511156200038757603c831015806200037b575b156200034157620001668282620004f6565b620001808d6064620001798786620004f6565b04620004f6565b81018091116200032b578a10620002e6577f99ca98ea2b9c0703b40f7a8692b4c6e79b33cb279174a9046ccf9cf7c4045c129860209860018060a01b03891660805260018060a01b031660a05260c05260e05261010052610120998a526101405261016052610180526101a05260405193845260018060a01b031692a36040516118c291826200050b83396080518281816104bc0152818161094101528181610f96015261142d015260a05182818161053f0152610f58015260c051828181610d4d015261168c015260e0518281816051015281816105070152818161068801526116c60152610100518281816114000152611525015251818181610cd80152610f17015261014051818181610c620152610edd01526101605181818160a4015281816106d901528181610db001526116340152610180518181816109d70152818161159a015261165b01526101a0518181816101db0152818161080f0152610c9d0152f35b60405162461bcd60e51b815260206004820152601e60248201527f496e73756666696369656e7420746f6b656e73207072652d6c6f6164656400006044820152606490fd5b634e487b7160e01b600052601160045260246000fd5b60405162461bcd60e51b8152602060048201526012602482015271496e76616c6964206c69717569646974792560701b6044820152606490fd5b50606483111562000154565b60405162461bcd60e51b815260206004820152601560248201527f456e642074696d65206265666f726520737461727400000000000000000000006044820152606490fd5b60405162461bcd60e51b815260206004820152601260248201527114dd185c9d081d1a5b59481a5b881c185cdd60721b6044820152606490fd5b60405162461bcd60e51b815260206004820152600c60248201526b496e76616c6964206361707360a01b6044820152606490fd5b508089111562000130565b60405162461bcd60e51b815260206004820152600e60248201526d24b73b30b634b2103937baba32b960911b6044820152606490fd5b62461bcd60e51b815260206004820152600d60248201526c24b73b30b634b2103a37b5b2b760991b6044820152606490fd5b604051631e4fbdf760e01b815260006004820152602490fd5b600080fd5b634e487b7160e01b600052604160045260246000fd5b51906001600160a01b0382168203620004c657565b818102929181159184041417156200032b5756fe6080604081815260049182361015610360575b50361561001e57600080fd5b610026611713565b61002e611628565b8281101561034b576001036103155734156102dd5761004f346002546116f0565b7f0000000000000000000000000000000000000000000000000000000000000000106102a25760003381526020926006845282822054601e81018091116101b257421061026d573382526006845242838320557f0000000000000000000000000000000000000000000000000000000000000000610258810180821161025a574210156101c55742034281116101b25761012c111561019b5767ffffffffffffffff6706f05b59d3b200005b3384528286521661010f34858520546116f0565b116101585791809160008051602061186d833981519152935b3382528552206101393482546116f0565b9055610147346002546116f0565b60025551913483523392a260018055005b825162461bcd60e51b8152908101849052601f60248201527f44796e616d696320416e74692d5768616c6520636170206578636565646564006044820152606490fd5b67ffffffffffffffff670de0b6b3a76400006100fb565b634e487b7160e01b835260118252602483fd5b503382528084526101d934848420546116f0565b7f0000000000000000000000000000000000000000000000000000000000000000106102175791809160008051602061186d83398151915293610128565b825162461bcd60e51b8152908101849052601b60248201527f45786365656473206d6178207370656e642070657220627579657200000000006044820152606490fd5b634e487b7160e01b845260118352602484fd5b825162461bcd60e51b8152908101849052600f60248201526e436f6f6c646f776e2061637469766560881b6044820152606490fd5b906020606492519162461bcd60e51b835282015260156024820152740576f756c642065786365656420686172642063617605c1b6044820152fd5b906020606492519162461bcd60e51b835282015260126024820152710416d6f756e74206d757374206265203e20360741b6044820152fd5b906020606492519162461bcd60e51b8352820152601060248201526f50726573616c65206e6f74206c69766560801b6044820152fd5b602183634e487b7160e01b6000525260246000fd5b600090813560e01c9081631865c57d146115bd575080633197cbb61461158257806342e94c901461154857806342f393811461150d57806348c54b9d146113745780634bb278f314610e8b5780636e99d52f14610e6f578063715018a614610e1257806373b2e80e14610dd357806378e9792514610d985780638da5cb5b14610d70578063906a26e014610d35578063a03039c214610cfb578063a20ecbbb14610cc0578063a3d35dad14610c85578063b068375514610c4a578063b3f05b9714610c26578063b5545a3c14610b1c578063c12255c414610af3578063c342381e14610ad7578063c5c4744c14610ab8578063c8bdbfb6146108e3578063d7bb99ba14610647578063e6d4c0ff1461062a578063e6fa0ef714610601578063f2fde38b1461056e578063f887ea401461052a578063fb86a404146104ef5763fc0c546a036100125790346104eb57816003193601126104eb57517f00000000000000000000000000000000000000000000000000000000000000006001600160a01b03168152602090f35b5080fd5b5090346104eb57816003193601126104eb57602090517f00000000000000000000000000000000000000000000000000000000000000008152f35b5090346104eb57816003193601126104eb57517f00000000000000000000000000000000000000000000000000000000000000006001600160a01b03168152602090f35b509190346105fd5760203660031901126105fd576001600160a01b038235818116939192908490036105f9576105a26115fc565b83156105e357505082546001600160a01b0319811683178455167f8be0079c531659141344cd1fd0a4f28419497f9722a3daafe3b4186f6b6457e08380a380f35b51631e4fbdf760e01b8152908101849052602490fd5b8480fd5b8280fd5b5090346104eb57816003193601126104eb5760085490516001600160a01b039091168152602090f35b5090346104eb57816003193601126104eb57602090516102588152f35b509190826003193601126105fd5761065d611713565b610665611628565b828110156108d0576001036103155734156102dd57610686346002546116f0565b7f0000000000000000000000000000000000000000000000000000000000000000106102a2573383526020916006835281842054601e81018091116107e657421061089d573384526006835242828520557f0000000000000000000000000000000000000000000000000000000000000000610258810180821161088a574210156107f95742034281116107e65761012c11156107cf5767ffffffffffffffff6706f05b59d3b200005b3386528285521661074434848720546116f0565b1161078e579060008051602061186d833981519152915b338552835280842061076e3482546116f0565b905561077c346002546116f0565b60025551913483523392a26001805580f35b82606492519162461bcd60e51b8352820152601f60248201527f44796e616d696320416e74692d5768616c6520636170206578636565646564006044820152fd5b67ffffffffffffffff670de0b6b3a7640000610730565b634e487b7160e01b855260118252602485fd5b5033845280835261080d34838620546116f0565b7f000000000000000000000000000000000000000000000000000000000000000010610849579060008051602061186d8339815191529161075b565b82606492519162461bcd60e51b8352820152601b60248201527f45786365656473206d6178207370656e642070657220627579657200000000006044820152fd5b634e487b7160e01b865260118352602486fd5b82606492519162461bcd60e51b8352820152600f60248201526e436f6f6c646f776e2061637469766560881b6044820152fd5b634e487b7160e01b845260218352602484fd5b509190346105fd57826003193601126105fd576108fe6115fc565b610906611628565b8281101580610aa5576002821480928115610a97575b5015610a5d576108d0576109d5575b80516370a0823160e01b815230928101929092527f00000000000000000000000000000000000000000000000000000000000000006001600160a01b036020846024818486165afa9283156109cc57508492610993575b610990935084541690611829565b80f35b91506020833d82116109c4575b816109ad60209383611749565b810103126109c057610990925191610982565b8380fd5b3d91506109a0565b513d86823e3d90fd5b7f000000000000000000000000000000000000000000000000000000000000000062278d00810180911161025a57421161092b57906020608492519162461bcd60e51b8352820152602860248201527f57616974203330206461797320706f73742d656e6420746f20636c656172206c6044820152676566746f7665727360c01b6064820152fd5b825162461bcd60e51b8152602081860152601460248201527350726573616c65207374696c6c2061637469766560601b6044820152606490fd5b91505060038591143861091c565b634e487b7160e01b855260218452602485fd5b5090346104eb57816003193601126104eb576020906002549051908152f35b5090346104eb57816003193601126104eb5760209051603c8152f35b5090346104eb57816003193601126104eb5760075490516001600160a01b039091168152602090f35b509190346105fd57826003193601126105fd57610b37611713565b610b3f611628565b828110156108d057600303610bee573383528160205280832054918215610bb457338452602052828181205582808080853382f115610ba957519081527f358fe4192934d3bf28ae181feda1f4bd08ca67f5e2fad55582cce5eb67304ae960203392a26001805580f35b51913d9150823e3d90fd5b6020606492519162461bcd60e51b83528201526015602482015274139bc818dbdb9d1c9a589d5d1a5bdb88199bdd5b99605a1b6044820152fd5b906020606492519162461bcd60e51b83528201526012602482015271141c995cd85b19481b9bdd0819985a5b195960721b6044820152fd5b5090346104eb57816003193601126104eb5760209060ff6003541690519015158152f35b5090346104eb57816003193601126104eb57602090517f00000000000000000000000000000000000000000000000000000000000000008152f35b5090346104eb57816003193601126104eb57602090517f00000000000000000000000000000000000000000000000000000000000000008152f35b5090346104eb57816003193601126104eb57602090517f00000000000000000000000000000000000000000000000000000000000000008152f35b5091346105fd5760203660031901126105fd57356001600160a01b038116908190036105fd57828291602094526006845220549051908152f35b5090346104eb57816003193601126104eb57602090517f00000000000000000000000000000000000000000000000000000000000000008152f35b5090346104eb57816003193601126104eb57905490516001600160a01b039091168152602090f35b5090346104eb57816003193601126104eb57602090517f00000000000000000000000000000000000000000000000000000000000000008152f35b5091346105fd5760203660031901126105fd57356001600160a01b038116908190036105fd57818360ff92602095526005855220541690519015158152f35b5034610e6c5780600319360112610e6c57610e2b6115fc565b80546001600160a01b03198116825581906001600160a01b03167f8be0079c531659141344cd1fd0a4f28419497f9722a3daafe3b4186f6b6457e08280a380f35b80fd5b5090346104eb57816003193601126104eb5760209051601e8152f35b5091346105fd57826003193601126105fd57610ea5611713565b610ead611628565b81811015611361576002036113155760035460ff81166112de5760ff191660011760035560025491606480610f027f000000000000000000000000000000000000000000000000000000000000000086611736565b0490848004600114851517156112cb57610f3c7f000000000000000000000000000000000000000000000000000000000000000083611736565b835163095ea7b360e01b60208083018281526001600160a01b037f00000000000000000000000000000000000000000000000000000000000000008116602480870182905260448088018990528752939b969a96939591947f0000000000000000000000000000000000000000000000000000000000000000939192918e908e908290610fca606487611749565b85519082895af1903d815191836112ab575b5050501561124e575b505060628a028a81046062148b15171561123c57606289028981046062148a15171561122a57858e541690610258420192834211611217578c5163f305d71960e01b8152958816868b01528589018e90528a90046044860152899004848a0152608484015260a48301528b92919088908290815a9360c492606095f1801561120d576111e2575b508583600854169182611181575b50505090479080600754161515600014611121578280928192600754165af16110a1611781565b50156110e957505050917fd4294f2e03dfa3f368c60ae6950d6e90c37101953b6aa279269459a9517f106e93916060935b600254938251948552840152820152a16001805580f35b845162461bcd60e51b815291820187905260169082015275115cd8dc9bddc81a185b991bdd995c8819985a5b195960521b6044820152fd5b82809650809550809450999897995416828215611178575bf11561116b57907fd4294f2e03dfa3f368c60ae6950d6e90c37101953b6aa279269459a9517f106e93606093926110d2565b50505051903d90823e3d90fd5b506108fc611139565b83928392839204905af1611193611781565b50156111a2578838858161107a565b50845162461bcd60e51b8152918201879052601d908201527f496e737572616e636520746178207472616e73666572206661696c65640000006044820152fd5b606090813d8111611206575b6111f88183611749565b810103126104eb573861106c565b503d6111ee565b89513d85823e3d90fd5b50634e487b7160e01b8f5260118952878ffd5b634e487b7160e01b8e5260118852868efd5b634e487b7160e01b8d5260118752858dfd5b8a51908d82015282878201528d6044820152604481526080810181811067ffffffffffffffff82111761129957611292929161128c918d52856117c1565b836117c1565b3880610fe5565b634e487b7160e01b8f5260418952878ffd5b509091506112c357508584163b15155b388f80610fdc565b6001146112bb565b634e487b7160e01b865260118452602486fd5b506020606492519162461bcd60e51b83528201526011602482015270105b1c9958591e48199a5b985b1a5e9959607a1b6044820152fd5b6020608492519162461bcd60e51b8352820152602160248201527f536f667420636170206e6f742072656163686564206f72206e6f7420656e64656044820152601960fa1b6064820152fd5b634e487b7160e01b845260218252602484fd5b5091346105fd57826003193601126105fd5761138e611713565b60ff60035416156114d3573383526020908082528284205415611492573384526005825260ff838520541661145f57907f896e034966eaaf1adc54acc0f257056febbd300c9e47182cf761982cf1f5e4309133855260058252838520600160ff198254161790558152611425838520547f000000000000000000000000000000000000000000000000000000000000000090611736565b9261145184337f0000000000000000000000000000000000000000000000000000000000000000611829565b519283523392a26001805580f35b915162461bcd60e51b815291820152600f60248201526e105b1c9958591e4818db185a5b5959608a1b6044820152606490fd5b915162461bcd60e51b815291820152601860248201527f4e6f20636f6e747269627574696f6e20746f20636c61696d00000000000000006044820152606490fd5b6020606492519162461bcd60e51b83528201526015602482015274141c995cd85b19481b9bdd08199a5b985b1a5e9959605a1b6044820152fd5b5090346104eb57816003193601126104eb57602090517f00000000000000000000000000000000000000000000000000000000000000008152f35b5091346105fd5760203660031901126105fd5780356001600160a01b038116908190036109c0579282916020948252845220549051908152f35b5090346104eb57816003193601126104eb57602090517f00000000000000000000000000000000000000000000000000000000000000008152f35b92505034610e6c5780600319360112610e6c576115d8611628565b90838210156115e957602083838152f35b634e487b7160e01b815260218452602490fd5b6000546001600160a01b0316330361161057565b60405163118cdaa760e01b8152336004820152602490fd5b60ff600354166116b6577f000000000000000000000000000000000000000000000000000000000000000042106116eb577f0000000000000000000000000000000000000000000000000000000000000000421115806116c0575b6116bb576002547f000000000000000000000000000000000000000000000000000000000000000011156116b657600390565b600290565b600190565b506002547f000000000000000000000000000000000000000000000000000000000000000011611683565b600090565b919082018092116116fd57565b634e487b7160e01b600052601160045260246000fd5b600260015414611724576002600155565b604051633ee5aeb560e01b8152600490fd5b818102929181159184041417156116fd57565b90601f8019910116810190811067ffffffffffffffff82111761176b57604052565b634e487b7160e01b600052604160045260246000fd5b3d156117bc573d9067ffffffffffffffff821161176b57604051916117b0601f8201601f191660200184611749565b82523d6000602084013e565b606090565b906000602091828151910182855af11561181d576000513d61181457506001600160a01b0381163b155b6117f25750565b604051635274afe760e01b81526001600160a01b039091166004820152602490fd5b600114156117eb565b6040513d6000823e3d90fd5b60405163a9059cbb60e01b60208201526001600160a01b0392909216602483015260448083019390935291815261186a91611865606483611749565b6117c1565b56fe4d154d4aae216bed6d0926db77c00df2b57c6b5ba4eee05775de20facede3a7ba2646970667358221220953434d29bb06fe6e8f719fa2491d13d11708a37bd27db45445f0cd62960375664736f6c63430008140033","opcodes":"CALLVALUE PUSH3 0x4C6 JUMPI PUSH3 0x1DCD CODESIZE DUP2 SWAP1 SUB PUSH2 0x1C0 PUSH1 0x1F DUP3 ADD PUSH1 0x1F NOT AND DUP2 ADD SWAP1 PUSH1 0x1 PUSH1 0x1 PUSH1 0x40 SHL SUB DUP3 GT SWAP1 DUP3 LT OR PUSH3 0x4CB JUMPI PUSH2 0x1C0 SWAP3 DUP3 SWAP2 PUSH1 0x40 MSTORE PUSH2 0x1C0 CODECOPY SLT PUSH3 0x4C6 JUMPI PUSH3 0x4E PUSH2 0x1C0 PUSH3 0x4E1 JUMP JUMPDEST PUSH3 0x5B PUSH2 0x1E0 PUSH3 0x4E1 JUMP JUMPDEST PUSH2 0x200 MLOAD PUSH2 0x220 MLOAD PUSH2 0x240 MLOAD PUSH2 0x260 MLOAD PUSH2 0x280 MLOAD PUSH2 0x2A0 MLOAD PUSH2 0x2C0 MLOAD PUSH2 0x300 MLOAD PUSH2 0x320 MLOAD SWAP5 SWAP10 SWAP7 SWAP9 SWAP5 SWAP8 SWAP7 SWAP5 SWAP6 SWAP1 SWAP4 SWAP2 SWAP3 SWAP2 SWAP1 PUSH3 0x9B PUSH2 0x340 PUSH3 0x4E1 JUMP JUMPDEST POP PUSH1 0x1 PUSH1 0x1 PUSH1 0xA0 SHL SUB PUSH3 0xB1 PUSH2 0x360 PUSH3 0x4E1 JUMP JUMPDEST AND SWAP10 DUP11 ISZERO PUSH3 0x4AD JUMPI PUSH1 0x0 DUP1 SLOAD PUSH1 0x1 PUSH1 0x1 PUSH1 0xA0 SHL SUB NOT DUP2 AND DUP14 OR DUP3 SSTORE PUSH1 0x40 MLOAD SWAP2 DUP14 SWAP2 PUSH1 0x1 PUSH1 0x1 PUSH1 0xA0 SHL SUB AND SWAP1 PUSH32 0x8BE0079C531659141344CD1FD0A4F28419497F9722A3DAAFE3B4186F6B6457E0 SWAP1 DUP1 LOG3 PUSH1 0x1 DUP1 SSTORE PUSH1 0x1 PUSH1 0x1 PUSH1 0xA0 SHL SUB DUP9 AND ISZERO PUSH3 0x47B JUMPI POP PUSH1 0x1 PUSH1 0x1 PUSH1 0xA0 SHL SUB DUP9 AND ISZERO PUSH3 0x445 JUMPI DUP9 ISZERO ISZERO DUP1 PUSH3 0x43A JUMPI JUMPDEST ISZERO PUSH3 0x406 JUMPI TIMESTAMP DUP5 GT ISZERO PUSH3 0x3CC JUMPI DUP4 DUP6 GT ISZERO PUSH3 0x387 JUMPI PUSH1 0x3C DUP4 LT ISZERO DUP1 PUSH3 0x37B JUMPI JUMPDEST ISZERO PUSH3 0x341 JUMPI PUSH3 0x166 DUP3 DUP3 PUSH3 0x4F6 JUMP JUMPDEST PUSH3 0x180 DUP14 PUSH1 0x64 PUSH3 0x179 DUP8 DUP7 PUSH3 0x4F6 JUMP JUMPDEST DIV PUSH3 0x4F6 JUMP JUMPDEST DUP2 ADD DUP1 SWAP2 GT PUSH3 0x32B JUMPI DUP11 LT PUSH3 0x2E6 JUMPI PUSH32 0x99CA98EA2B9C0703B40F7A8692B4C6E79B33CB279174A9046CCF9CF7C4045C12 SWAP9 PUSH1 0x20 SWAP9 PUSH1 0x1 DUP1 PUSH1 0xA0 SHL SUB DUP10 AND PUSH1 0x80 MSTORE PUSH1 0x1 DUP1 PUSH1 0xA0 SHL SUB AND PUSH1 0xA0 MSTORE PUSH1 0xC0 MSTORE PUSH1 0xE0 MSTORE PUSH2 0x100 MSTORE PUSH2 0x120 SWAP10 DUP11 MSTORE PUSH2 0x140 MSTORE PUSH2 0x160 MSTORE PUSH2 0x180 MSTORE PUSH2 0x1A0 MSTORE PUSH1 0x40 MLOAD SWAP4 DUP5 MSTORE PUSH1 0x1 DUP1 PUSH1 0xA0 SHL SUB AND SWAP3 LOG3 PUSH1 0x40 MLOAD PUSH2 0x18C2 SWAP2 DUP3 PUSH3 0x50B DUP4 CODECOPY PUSH1 0x80 MLOAD DUP3 DUP2 DUP2 PUSH2 0x4BC ADD MSTORE DUP2 DUP2 PUSH2 0x941 ADD MSTORE DUP2 DUP2 PUSH2 0xF96 ADD MSTORE PUSH2 0x142D ADD MSTORE PUSH1 0xA0 MLOAD DUP3 DUP2 DUP2 PUSH2 0x53F ADD MSTORE PUSH2 0xF58 ADD MSTORE PUSH1 0xC0 MLOAD DUP3 DUP2 DUP2 PUSH2 0xD4D ADD MSTORE PUSH2 0x168C ADD MSTORE PUSH1 0xE0 MLOAD DUP3 DUP2 DUP2 PUSH1 0x51 ADD MSTORE DUP2 DUP2 PUSH2 0x507 ADD MSTORE DUP2 DUP2 PUSH2 0x688 ADD MSTORE PUSH2 0x16C6 ADD MSTORE PUSH2 0x100 MLOAD DUP3 DUP2 DUP2 PUSH2 0x1400 ADD MSTORE PUSH2 0x1525 ADD MSTORE MLOAD DUP2 DUP2 DUP2 PUSH2 0xCD8 ADD MSTORE PUSH2 0xF17 ADD MSTORE PUSH2 0x140 MLOAD DUP2 DUP2 DUP2 PUSH2 0xC62 ADD MSTORE PUSH2 0xEDD ADD MSTORE PUSH2 0x160 MLOAD DUP2 DUP2 DUP2 PUSH1 0xA4 ADD MSTORE DUP2 DUP2 PUSH2 0x6D9 ADD MSTORE DUP2 DUP2 PUSH2 0xDB0 ADD MSTORE PUSH2 0x1634 ADD MSTORE PUSH2 0x180 MLOAD DUP2 DUP2 DUP2 PUSH2 0x9D7 ADD MSTORE DUP2 DUP2 PUSH2 0x159A ADD MSTORE PUSH2 0x165B ADD MSTORE PUSH2 0x1A0 MLOAD DUP2 DUP2 DUP2 PUSH2 0x1DB ADD MSTORE DUP2 DUP2 PUSH2 0x80F ADD MSTORE PUSH2 0xC9D ADD MSTORE RETURN JUMPDEST PUSH1 0x40 MLOAD PUSH3 0x461BCD PUSH1 0xE5 SHL DUP2 MSTORE PUSH1 0x20 PUSH1 0x4 DUP3 ADD MSTORE PUSH1 0x1E PUSH1 0x24 DUP3 ADD MSTORE PUSH32 0x496E73756666696369656E7420746F6B656E73207072652D6C6F616465640000 PUSH1 0x44 DUP3 ADD MSTORE PUSH1 0x64 SWAP1 REVERT JUMPDEST PUSH4 0x4E487B71 PUSH1 0xE0 SHL PUSH1 0x0 MSTORE PUSH1 0x11 PUSH1 0x4 MSTORE PUSH1 0x24 PUSH1 0x0 REVERT JUMPDEST PUSH1 0x40 MLOAD PUSH3 0x461BCD PUSH1 0xE5 SHL DUP2 MSTORE PUSH1 0x20 PUSH1 0x4 DUP3 ADD MSTORE PUSH1 0x12 PUSH1 0x24 DUP3 ADD MSTORE PUSH18 0x496E76616C6964206C697175696469747925 PUSH1 0x70 SHL PUSH1 0x44 DUP3 ADD MSTORE PUSH1 0x64 SWAP1 REVERT JUMPDEST POP PUSH1 0x64 DUP4 GT ISZERO PUSH3 0x154 JUMP JUMPDEST PUSH1 0x40 MLOAD PUSH3 0x461BCD PUSH1 0xE5 SHL DUP2 MSTORE PUSH1 0x20 PUSH1 0x4 DUP3 ADD MSTORE PUSH1 0x15 PUSH1 0x24 DUP3 ADD MSTORE PUSH32 0x456E642074696D65206265666F72652073746172740000000000000000000000 PUSH1 0x44 DUP3 ADD MSTORE PUSH1 0x64 SWAP1 REVERT JUMPDEST PUSH1 0x40 MLOAD PUSH3 0x461BCD PUSH1 0xE5 SHL DUP2 MSTORE PUSH1 0x20 PUSH1 0x4 DUP3 ADD MSTORE PUSH1 0x12 PUSH1 0x24 DUP3 ADD MSTORE PUSH18 0x14DD185C9D081D1A5B59481A5B881C185CDD PUSH1 0x72 SHL PUSH1 0x44 DUP3 ADD MSTORE PUSH1 0x64 SWAP1 REVERT JUMPDEST PUSH1 0x40 MLOAD PUSH3 0x461BCD PUSH1 0xE5 SHL DUP2 MSTORE PUSH1 0x20 PUSH1 0x4 DUP3 ADD MSTORE PUSH1 0xC PUSH1 0x24 DUP3 ADD MSTORE PUSH12 0x496E76616C69642063617073 PUSH1 0xA0 SHL PUSH1 0x44 DUP3 ADD MSTORE PUSH1 0x64 SWAP1 REVERT JUMPDEST POP DUP1 DUP10 GT ISZERO PUSH3 0x130 JUMP JUMPDEST PUSH1 0x40 MLOAD PUSH3 0x461BCD PUSH1 0xE5 SHL DUP2 MSTORE PUSH1 0x20 PUSH1 0x4 DUP3 ADD MSTORE PUSH1 0xE PUSH1 0x24 DUP3 ADD MSTORE PUSH14 0x24B73B30B634B2103937BABA32B9 PUSH1 0x91 SHL PUSH1 0x44 DUP3 ADD MSTORE PUSH1 0x64 SWAP1 REVERT JUMPDEST PUSH3 0x461BCD PUSH1 0xE5 SHL DUP2 MSTORE PUSH1 0x20 PUSH1 0x4 DUP3 ADD MSTORE PUSH1 0xD PUSH1 0x24 DUP3 ADD MSTORE PUSH13 0x24B73B30B634B2103A37B5B2B7 PUSH1 0x99 SHL PUSH1 0x44 DUP3 ADD MSTORE PUSH1 0x64 SWAP1 REVERT JUMPDEST PUSH1 0x40 MLOAD PUSH4 0x1E4FBDF7 PUSH1 0xE0 SHL DUP2 MSTORE PUSH1 0x0 PUSH1 0x4 DUP3 ADD MSTORE PUSH1 0x24 SWAP1 REVERT JUMPDEST PUSH1 0x0 DUP1 REVERT JUMPDEST PUSH4 0x4E487B71 PUSH1 0xE0 SHL PUSH1 0x0 MSTORE PUSH1 0x41 PUSH1 0x4 MSTORE PUSH1 0x24 PUSH1 0x0 REVERT JUMPDEST MLOAD SWAP1 PUSH1 0x1 PUSH1 0x1 PUSH1 0xA0 SHL SUB DUP3 AND DUP3 SUB PUSH3 0x4C6 JUMPI JUMP JUMPDEST DUP2 DUP2 MUL SWAP3 SWAP2 DUP2 ISZERO SWAP2 DUP5 DIV EQ OR ISZERO PUSH3 0x32B JUMPI JUMP INVALID PUSH1 0x80 PUSH1 0x40 DUP2 DUP2 MSTORE PUSH1 0x4 SWAP2 DUP3 CALLDATASIZE LT ISZERO PUSH2 0x360 JUMPI JUMPDEST POP CALLDATASIZE ISZERO PUSH2 0x1E JUMPI PUSH1 0x0 DUP1 REVERT JUMPDEST PUSH2 0x26 PUSH2 0x1713 JUMP JUMPDEST PUSH2 0x2E PUSH2 0x1628 JUMP JUMPDEST DUP3 DUP2 LT ISZERO PUSH2 0x34B JUMPI PUSH1 0x1 SUB PUSH2 0x315 JUMPI CALLVALUE ISZERO PUSH2 0x2DD JUMPI PUSH2 0x4F CALLVALUE PUSH1 0x2 SLOAD PUSH2 0x16F0 JUMP JUMPDEST PUSH32 0x0 LT PUSH2 0x2A2 JUMPI PUSH1 0x0 CALLER DUP2 MSTORE PUSH1 0x20 SWAP3 PUSH1 0x6 DUP5 MSTORE DUP3 DUP3 KECCAK256 SLOAD PUSH1 0x1E DUP2 ADD DUP1 SWAP2 GT PUSH2 0x1B2 JUMPI TIMESTAMP LT PUSH2 0x26D JUMPI CALLER DUP3 MSTORE PUSH1 0x6 DUP5 MSTORE TIMESTAMP DUP4 DUP4 KECCAK256 SSTORE PUSH32 0x0 PUSH2 0x258 DUP2 ADD DUP1 DUP3 GT PUSH2 0x25A JUMPI TIMESTAMP LT ISZERO PUSH2 0x1C5 JUMPI TIMESTAMP SUB TIMESTAMP DUP2 GT PUSH2 0x1B2 JUMPI PUSH2 0x12C GT ISZERO PUSH2 0x19B JUMPI PUSH8 0xFFFFFFFFFFFFFFFF PUSH8 0x6F05B59D3B20000 JUMPDEST CALLER DUP5 MSTORE DUP3 DUP7 MSTORE AND PUSH2 0x10F CALLVALUE DUP6 DUP6 KECCAK256 SLOAD PUSH2 0x16F0 JUMP JUMPDEST GT PUSH2 0x158 JUMPI SWAP2 DUP1 SWAP2 PUSH1 0x0 DUP1 MLOAD PUSH1 0x20 PUSH2 0x186D DUP4 CODECOPY DUP2 MLOAD SWAP2 MSTORE SWAP4 JUMPDEST CALLER DUP3 MSTORE DUP6 MSTORE KECCAK256 PUSH2 0x139 CALLVALUE DUP3 SLOAD PUSH2 0x16F0 JUMP JUMPDEST SWAP1 SSTORE PUSH2 0x147 CALLVALUE PUSH1 0x2 SLOAD PUSH2 0x16F0 JUMP JUMPDEST PUSH1 0x2 SSTORE MLOAD SWAP2 CALLVALUE DUP4 MSTORE CALLER SWAP3 LOG2 PUSH1 0x1 DUP1 SSTORE STOP JUMPDEST DUP3 MLOAD PUSH3 0x461BCD PUSH1 0xE5 SHL DUP2 MSTORE SWAP1 DUP2 ADD DUP5 SWAP1 MSTORE PUSH1 0x1F PUSH1 0x24 DUP3 ADD MSTORE PUSH32 0x44796E616D696320416E74692D5768616C652063617020657863656564656400 PUSH1 0x44 DUP3 ADD MSTORE PUSH1 0x64 SWAP1 REVERT JUMPDEST PUSH8 0xFFFFFFFFFFFFFFFF PUSH8 0xDE0B6B3A7640000 PUSH2 0xFB JUMP JUMPDEST PUSH4 0x4E487B71 PUSH1 0xE0 SHL DUP4 MSTORE PUSH1 0x11 DUP3 MSTORE PUSH1 0x24 DUP4 REVERT JUMPDEST POP CALLER DUP3 MSTORE DUP1 DUP5 MSTORE PUSH2 0x1D9 CALLVALUE DUP5 DUP5 KECCAK256 SLOAD PUSH2 0x16F0 JUMP JUMPDEST PUSH32 0x0 LT PUSH2 0x217 JUMPI SWAP2 DUP1 SWAP2 PUSH1 0x0 DUP1 MLOAD PUSH1 0x20 PUSH2 0x186D DUP4 CODECOPY DUP2 MLOAD SWAP2 MSTORE SWAP4 PUSH2 0x128 JUMP JUMPDEST DUP3 MLOAD PUSH3 0x461BCD PUSH1 0xE5 SHL DUP2 MSTORE SWAP1 DUP2 ADD DUP5 SWAP1 MSTORE PUSH1 0x1B PUSH1 0x24 DUP3 ADD MSTORE PUSH32 0x45786365656473206D6178207370656E64207065722062757965720000000000 PUSH1 0x44 DUP3 ADD MSTORE PUSH1 0x64 SWAP1 REVERT JUMPDEST PUSH4 0x4E487B71 PUSH1 0xE0 SHL DUP5 MSTORE PUSH1 0x11 DUP4 MSTORE PUSH1 0x24 DUP5 REVERT JUMPDEST DUP3 MLOAD PUSH3 0x461BCD PUSH1 0xE5 SHL DUP2 MSTORE SWAP1 DUP2 ADD DUP5 SWAP1 MSTORE PUSH1 0xF PUSH1 0x24 DUP3 ADD MSTORE PUSH15 0x436F6F6C646F776E20616374697665 PUSH1 0x88 SHL PUSH1 0x44 DUP3 ADD MSTORE PUSH1 0x64 SWAP1 REVERT JUMPDEST SWAP1 PUSH1 0x20 PUSH1 0x64 SWAP3 MLOAD SWAP2 PUSH3 0x461BCD PUSH1 0xE5 SHL DUP4 MSTORE DUP3 ADD MSTORE PUSH1 0x15 PUSH1 0x24 DUP3 ADD MSTORE PUSH21 0x576F756C642065786365656420686172642063617 PUSH1 0x5C SHL PUSH1 0x44 DUP3 ADD MSTORE REVERT JUMPDEST SWAP1 PUSH1 0x20 PUSH1 0x64 SWAP3 MLOAD SWAP2 PUSH3 0x461BCD PUSH1 0xE5 SHL DUP4 MSTORE DUP3 ADD MSTORE PUSH1 0x12 PUSH1 0x24 DUP3 ADD MSTORE PUSH18 0x416D6F756E74206D757374206265203E203 PUSH1 0x74 SHL PUSH1 0x44 DUP3 ADD MSTORE REVERT JUMPDEST SWAP1 PUSH1 0x20 PUSH1 0x64 SWAP3 MLOAD SWAP2 PUSH3 0x461BCD PUSH1 0xE5 SHL DUP4 MSTORE DUP3 ADD MSTORE PUSH1 0x10 PUSH1 0x24 DUP3 ADD MSTORE PUSH16 0x50726573616C65206E6F74206C697665 PUSH1 0x80 SHL PUSH1 0x44 DUP3 ADD MSTORE REVERT JUMPDEST PUSH1 0x21 DUP4 PUSH4 0x4E487B71 PUSH1 0xE0 SHL PUSH1 0x0 MSTORE MSTORE PUSH1 0x24 PUSH1 0x0 REVERT JUMPDEST PUSH1 0x0 SWAP1 DUP2 CALLDATALOAD PUSH1 0xE0 SHR SWAP1 DUP2 PUSH4 0x1865C57D EQ PUSH2 0x15BD JUMPI POP DUP1 PUSH4 0x3197CBB6 EQ PUSH2 0x1582 JUMPI DUP1 PUSH4 0x42E94C90 EQ PUSH2 0x1548 JUMPI DUP1 PUSH4 0x42F39381 EQ PUSH2 0x150D JUMPI DUP1 PUSH4 0x48C54B9D EQ PUSH2 0x1374 JUMPI DUP1 PUSH4 0x4BB278F3 EQ PUSH2 0xE8B JUMPI DUP1 PUSH4 0x6E99D52F EQ PUSH2 0xE6F JUMPI DUP1 PUSH4 0x715018A6 EQ PUSH2 0xE12 JUMPI DUP1 PUSH4 0x73B2E80E EQ PUSH2 0xDD3 JUMPI DUP1 PUSH4 0x78E97925 EQ PUSH2 0xD98 JUMPI DUP1 PUSH4 0x8DA5CB5B EQ PUSH2 0xD70 JUMPI DUP1 PUSH4 0x906A26E0 EQ PUSH2 0xD35 JUMPI DUP1 PUSH4 0xA03039C2 EQ PUSH2 0xCFB JUMPI DUP1 PUSH4 0xA20ECBBB EQ PUSH2 0xCC0 JUMPI DUP1 PUSH4 0xA3D35DAD EQ PUSH2 0xC85 JUMPI DUP1 PUSH4 0xB0683755 EQ PUSH2 0xC4A JUMPI DUP1 PUSH4 0xB3F05B97 EQ PUSH2 0xC26 JUMPI DUP1 PUSH4 0xB5545A3C EQ PUSH2 0xB1C JUMPI DUP1 PUSH4 0xC12255C4 EQ PUSH2 0xAF3 JUMPI DUP1 PUSH4 0xC342381E EQ PUSH2 0xAD7 JUMPI DUP1 PUSH4 0xC5C4744C EQ PUSH2 0xAB8 JUMPI DUP1 PUSH4 0xC8BDBFB6 EQ PUSH2 0x8E3 JUMPI DUP1 PUSH4 0xD7BB99BA EQ PUSH2 0x647 JUMPI DUP1 PUSH4 0xE6D4C0FF EQ PUSH2 0x62A JUMPI DUP1 PUSH4 0xE6FA0EF7 EQ PUSH2 0x601 JUMPI DUP1 PUSH4 0xF2FDE38B EQ PUSH2 0x56E JUMPI DUP1 PUSH4 0xF887EA40 EQ PUSH2 0x52A JUMPI DUP1 PUSH4 0xFB86A404 EQ PUSH2 0x4EF JUMPI PUSH4 0xFC0C546A SUB PUSH2 0x12 JUMPI SWAP1 CALLVALUE PUSH2 0x4EB JUMPI DUP2 PUSH1 0x3 NOT CALLDATASIZE ADD SLT PUSH2 0x4EB JUMPI MLOAD PUSH32 0x0 PUSH1 0x1 PUSH1 0x1 PUSH1 0xA0 SHL SUB AND DUP2 MSTORE PUSH1 0x20 SWAP1 RETURN JUMPDEST POP DUP1 REVERT JUMPDEST POP SWAP1 CALLVALUE PUSH2 0x4EB JUMPI DUP2 PUSH1 0x3 NOT CALLDATASIZE ADD SLT PUSH2 0x4EB JUMPI PUSH1 0x20 SWAP1 MLOAD PUSH32 0x0 DUP2 MSTORE RETURN JUMPDEST POP SWAP1 CALLVALUE PUSH2 0x4EB JUMPI DUP2 PUSH1 0x3 NOT CALLDATASIZE ADD SLT PUSH2 0x4EB JUMPI MLOAD PUSH32 0x0 PUSH1 0x1 PUSH1 0x1 PUSH1 0xA0 SHL SUB AND DUP2 MSTORE PUSH1 0x20 SWAP1 RETURN JUMPDEST POP SWAP2 SWAP1 CALLVALUE PUSH2 0x5FD JUMPI PUSH1 0x20 CALLDATASIZE PUSH1 0x3 NOT ADD SLT PUSH2 0x5FD JUMPI PUSH1 0x1 PUSH1 0x1 PUSH1 0xA0 SHL SUB DUP3 CALLDATALOAD DUP2 DUP2 AND SWAP4 SWAP2 SWAP3 SWAP1 DUP5 SWAP1 SUB PUSH2 0x5F9 JUMPI PUSH2 0x5A2 PUSH2 0x15FC JUMP JUMPDEST DUP4 ISZERO PUSH2 0x5E3 JUMPI POP POP DUP3 SLOAD PUSH1 0x1 PUSH1 0x1 PUSH1 0xA0 SHL SUB NOT DUP2 AND DUP4 OR DUP5 SSTORE AND PUSH32 0x8BE0079C531659141344CD1FD0A4F28419497F9722A3DAAFE3B4186F6B6457E0 DUP4 DUP1 LOG3 DUP1 RETURN JUMPDEST MLOAD PUSH4 0x1E4FBDF7 PUSH1 0xE0 SHL DUP2 MSTORE SWAP1 DUP2 ADD DUP5 SWAP1 MSTORE PUSH1 0x24 SWAP1 REVERT JUMPDEST DUP5 DUP1 REVERT JUMPDEST DUP3 DUP1 REVERT JUMPDEST POP SWAP1 CALLVALUE PUSH2 0x4EB JUMPI DUP2 PUSH1 0x3 NOT CALLDATASIZE ADD SLT PUSH2 0x4EB JUMPI PUSH1 0x8 SLOAD SWAP1 MLOAD PUSH1 0x1 PUSH1 0x1 PUSH1 0xA0 SHL SUB SWAP1 SWAP2 AND DUP2 MSTORE PUSH1 0x20 SWAP1 RETURN JUMPDEST POP SWAP1 CALLVALUE PUSH2 0x4EB JUMPI DUP2 PUSH1 0x3 NOT CALLDATASIZE ADD SLT PUSH2 0x4EB JUMPI PUSH1 0x20 SWAP1 MLOAD PUSH2 0x258 DUP2 MSTORE RETURN JUMPDEST POP SWAP2 SWAP1 DUP3 PUSH1 0x3 NOT CALLDATASIZE ADD SLT PUSH2 0x5FD JUMPI PUSH2 0x65D PUSH2 0x1713 JUMP JUMPDEST PUSH2 0x665 PUSH2 0x1628 JUMP JUMPDEST DUP3 DUP2 LT ISZERO PUSH2 0x8D0 JUMPI PUSH1 0x1 SUB PUSH2 0x315 JUMPI CALLVALUE ISZERO PUSH2 0x2DD JUMPI PUSH2 0x686 CALLVALUE PUSH1 0x2 SLOAD PUSH2 0x16F0 JUMP JUMPDEST PUSH32 0x0 LT PUSH2 0x2A2 JUMPI CALLER DUP4 MSTORE PUSH1 0x20 SWAP2 PUSH1 0x6 DUP4 MSTORE DUP2 DUP5 KECCAK256 SLOAD PUSH1 0x1E DUP2 ADD DUP1 SWAP2 GT PUSH2 0x7E6 JUMPI TIMESTAMP LT PUSH2 0x89D JUMPI CALLER DUP5 MSTORE PUSH1 0x6 DUP4 MSTORE TIMESTAMP DUP3 DUP6 KECCAK256 SSTORE PUSH32 0x0 PUSH2 0x258 DUP2 ADD DUP1 DUP3 GT PUSH2 0x88A JUMPI TIMESTAMP LT ISZERO PUSH2 0x7F9 JUMPI TIMESTAMP SUB TIMESTAMP DUP2 GT PUSH2 0x7E6 JUMPI PUSH2 0x12C GT ISZERO PUSH2 0x7CF JUMPI PUSH8 0xFFFFFFFFFFFFFFFF PUSH8 0x6F05B59D3B20000 JUMPDEST CALLER DUP7 MSTORE DUP3 DUP6 MSTORE AND PUSH2 0x744 CALLVALUE DUP5 DUP8 KECCAK256 SLOAD PUSH2 0x16F0 JUMP JUMPDEST GT PUSH2 0x78E JUMPI SWAP1 PUSH1 0x0 DUP1 MLOAD PUSH1 0x20 PUSH2 0x186D DUP4 CODECOPY DUP2 MLOAD SWAP2 MSTORE SWAP2 JUMPDEST CALLER DUP6 MSTORE DUP4 MSTORE DUP1 DUP5 KECCAK256 PUSH2 0x76E CALLVALUE DUP3 SLOAD PUSH2 0x16F0 JUMP JUMPDEST SWAP1 SSTORE PUSH2 0x77C CALLVALUE PUSH1 0x2 SLOAD PUSH2 0x16F0 JUMP JUMPDEST PUSH1 0x2 SSTORE MLOAD SWAP2 CALLVALUE DUP4 MSTORE CALLER SWAP3 LOG2 PUSH1 0x1 DUP1 SSTORE DUP1 RETURN JUMPDEST DUP3 PUSH1 0x64 SWAP3 MLOAD SWAP2 PUSH3 0x461BCD PUSH1 0xE5 SHL DUP4 MSTORE DUP3 ADD MSTORE PUSH1 0x1F PUSH1 0x24 DUP3 ADD MSTORE PUSH32 0x44796E616D696320416E74692D5768616C652063617020657863656564656400 PUSH1 0x44 DUP3 ADD MSTORE REVERT JUMPDEST PUSH8 0xFFFFFFFFFFFFFFFF PUSH8 0xDE0B6B3A7640000 PUSH2 0x730 JUMP JUMPDEST PUSH4 0x4E487B71 PUSH1 0xE0 SHL DUP6 MSTORE PUSH1 0x11 DUP3 MSTORE PUSH1 0x24 DUP6 REVERT JUMPDEST POP CALLER DUP5 MSTORE DUP1 DUP4 MSTORE PUSH2 0x80D CALLVALUE DUP4 DUP7 KECCAK256 SLOAD PUSH2 0x16F0 JUMP JUMPDEST PUSH32 0x0 LT PUSH2 0x849 JUMPI SWAP1 PUSH1 0x0 DUP1 MLOAD PUSH1 0x20 PUSH2 0x186D DUP4 CODECOPY DUP2 MLOAD SWAP2 MSTORE SWAP2 PUSH2 0x75B JUMP JUMPDEST DUP3 PUSH1 0x64 SWAP3 MLOAD SWAP2 PUSH3 0x461BCD PUSH1 0xE5 SHL DUP4 MSTORE DUP3 ADD MSTORE PUSH1 0x1B PUSH1 0x24 DUP3 ADD MSTORE PUSH32 0x45786365656473206D6178207370656E64207065722062757965720000000000 PUSH1 0x44 DUP3 ADD MSTORE REVERT JUMPDEST PUSH4 0x4E487B71 PUSH1 0xE0 SHL DUP7 MSTORE PUSH1 0x11 DUP4 MSTORE PUSH1 0x24 DUP7 REVERT JUMPDEST DUP3 PUSH1 0x64 SWAP3 MLOAD SWAP2 PUSH3 0x461BCD PUSH1 0xE5 SHL DUP4 MSTORE DUP3 ADD MSTORE PUSH1 0xF PUSH1 0x24 DUP3 ADD MSTORE PUSH15 0x436F6F6C646F776E20616374697665 PUSH1 0x88 SHL PUSH1 0x44 DUP3 ADD MSTORE REVERT JUMPDEST PUSH4 0x4E487B71 PUSH1 0xE0 SHL DUP5 MSTORE PUSH1 0x21 DUP4 MSTORE PUSH1 0x24 DUP5 REVERT JUMPDEST POP SWAP2 SWAP1 CALLVALUE PUSH2 0x5FD JUMPI DUP3 PUSH1 0x3 NOT CALLDATASIZE ADD SLT PUSH2 0x5FD JUMPI PUSH2 0x8FE PUSH2 0x15FC JUMP JUMPDEST PUSH2 0x906 PUSH2 0x1628 JUMP JUMPDEST DUP3 DUP2 LT ISZERO DUP1 PUSH2 0xAA5 JUMPI PUSH1 0x2 DUP3 EQ DUP1 SWAP3 DUP2 ISZERO PUSH2 0xA97 JUMPI JUMPDEST POP ISZERO PUSH2 0xA5D JUMPI PUSH2 0x8D0 JUMPI PUSH2 0x9D5 JUMPI JUMPDEST DUP1 MLOAD PUSH4 0x70A08231 PUSH1 0xE0 SHL DUP2 MSTORE ADDRESS SWAP3 DUP2 ADD SWAP3 SWAP1 SWAP3 MSTORE PUSH32 0x0 PUSH1 0x1 PUSH1 0x1 PUSH1 0xA0 SHL SUB PUSH1 0x20 DUP5 PUSH1 0x24 DUP2 DUP5 DUP7 AND GAS STATICCALL SWAP3 DUP4 ISZERO PUSH2 0x9CC JUMPI POP DUP5 SWAP3 PUSH2 0x993 JUMPI JUMPDEST PUSH2 0x990 SWAP4 POP DUP5 SLOAD AND SWAP1 PUSH2 0x1829 JUMP JUMPDEST DUP1 RETURN JUMPDEST SWAP2 POP PUSH1 0x20 DUP4 RETURNDATASIZE DUP3 GT PUSH2 0x9C4 JUMPI JUMPDEST DUP2 PUSH2 0x9AD PUSH1 0x20 SWAP4 DUP4 PUSH2 0x1749 JUMP JUMPDEST DUP2 ADD SUB SLT PUSH2 0x9C0 JUMPI PUSH2 0x990 SWAP3 MLOAD SWAP2 PUSH2 0x982 JUMP JUMPDEST DUP4 DUP1 REVERT JUMPDEST RETURNDATASIZE SWAP2 POP PUSH2 0x9A0 JUMP JUMPDEST MLOAD RETURNDATASIZE DUP7 DUP3 RETURNDATACOPY RETURNDATASIZE SWAP1 REVERT JUMPDEST PUSH32 0x0 PUSH3 0x278D00 DUP2 ADD DUP1 SWAP2 GT PUSH2 0x25A JUMPI TIMESTAMP GT PUSH2 0x92B JUMPI SWAP1 PUSH1 0x20 PUSH1 0x84 SWAP3 MLOAD SWAP2 PUSH3 0x461BCD PUSH1 0xE5 SHL DUP4 MSTORE DUP3 ADD MSTORE PUSH1 0x28 PUSH1 0x24 DUP3 ADD MSTORE PUSH32 0x57616974203330206461797320706F73742D656E6420746F20636C656172206C PUSH1 0x44 DUP3 ADD MSTORE PUSH8 0x6566746F76657273 PUSH1 0xC0 SHL PUSH1 0x64 DUP3 ADD MSTORE REVERT JUMPDEST DUP3 MLOAD PUSH3 0x461BCD PUSH1 0xE5 SHL DUP2 MSTORE PUSH1 0x20 DUP2 DUP7 ADD MSTORE PUSH1 0x14 PUSH1 0x24 DUP3 ADD MSTORE PUSH20 0x50726573616C65207374696C6C20616374697665 PUSH1 0x60 SHL PUSH1 0x44 DUP3 ADD MSTORE PUSH1 0x64 SWAP1 REVERT JUMPDEST SWAP2 POP POP PUSH1 0x3 DUP6 SWAP2 EQ CODESIZE PUSH2 0x91C JUMP JUMPDEST PUSH4 0x4E487B71 PUSH1 0xE0 SHL DUP6 MSTORE PUSH1 0x21 DUP5 MSTORE PUSH1 0x24 DUP6 REVERT JUMPDEST POP SWAP1 CALLVALUE PUSH2 0x4EB JUMPI DUP2 PUSH1 0x3 NOT CALLDATASIZE ADD SLT PUSH2 0x4EB JUMPI PUSH1 0x20 SWAP1 PUSH1 0x2 SLOAD SWAP1 MLOAD SWAP1 DUP2 MSTORE RETURN JUMPDEST POP SWAP1 CALLVALUE PUSH2 0x4EB JUMPI DUP2 PUSH1 0x3 NOT CALLDATASIZE ADD SLT PUSH2 0x4EB JUMPI PUSH1 0x20 SWAP1 MLOAD PUSH1 0x3C DUP2 MSTORE RETURN JUMPDEST POP SWAP1 CALLVALUE PUSH2 0x4EB JUMPI DUP2 PUSH1 0x3 NOT CALLDATASIZE ADD SLT PUSH2 0x4EB JUMPI PUSH1 0x7 SLOAD SWAP1 MLOAD PUSH1 0x1 PUSH1 0x1 PUSH1 0xA0 SHL SUB SWAP1 SWAP2 AND DUP2 MSTORE PUSH1 0x20 SWAP1 RETURN JUMPDEST POP SWAP2 SWAP1 CALLVALUE PUSH2 0x5FD JUMPI DUP3 PUSH1 0x3 NOT CALLDATASIZE ADD SLT PUSH2 0x5FD JUMPI PUSH2 0xB37 PUSH2 0x1713 JUMP JUMPDEST PUSH2 0xB3F PUSH2 0x1628 JUMP JUMPDEST DUP3 DUP2 LT ISZERO PUSH2 0x8D0 JUMPI PUSH1 0x3 SUB PUSH2 0xBEE JUMPI CALLER DUP4 MSTORE DUP2 PUSH1 0x20 MSTORE DUP1 DUP4 KECCAK256 SLOAD SWAP2 DUP3 ISZERO PUSH2 0xBB4 JUMPI CALLER DUP5 MSTORE PUSH1 0x20 MSTORE DUP3 DUP2 DUP2 KECCAK256 SSTORE DUP3 DUP1 DUP1 DUP1 DUP6 CALLER DUP3 CALL ISZERO PUSH2 0xBA9 JUMPI MLOAD SWAP1 DUP2 MSTORE PUSH32 0x358FE4192934D3BF28AE181FEDA1F4BD08CA67F5E2FAD55582CCE5EB67304AE9 PUSH1 0x20 CALLER SWAP3 LOG2 PUSH1 0x1 DUP1 SSTORE DUP1 RETURN JUMPDEST MLOAD SWAP2 RETURNDATASIZE SWAP2 POP DUP3 RETURNDATACOPY RETURNDATASIZE SWAP1 REVERT JUMPDEST PUSH1 0x20 PUSH1 0x64 SWAP3 MLOAD SWAP2 PUSH3 0x461BCD PUSH1 0xE5 SHL DUP4 MSTORE DUP3 ADD MSTORE PUSH1 0x15 PUSH1 0x24 DUP3 ADD MSTORE PUSH21 0x139BC818DBDB9D1C9A589D5D1A5BDB88199BDD5B99 PUSH1 0x5A SHL PUSH1 0x44 DUP3 ADD MSTORE REVERT JUMPDEST SWAP1 PUSH1 0x20 PUSH1 0x64 SWAP3 MLOAD SWAP2 PUSH3 0x461BCD PUSH1 0xE5 SHL DUP4 MSTORE DUP3 ADD MSTORE PUSH1 0x12 PUSH1 0x24 DUP3 ADD MSTORE PUSH18 0x141C995CD85B19481B9BDD0819985A5B1959 PUSH1 0x72 SHL PUSH1 0x44 DUP3 ADD MSTORE REVERT JUMPDEST POP SWAP1 CALLVALUE PUSH2 0x4EB JUMPI DUP2 PUSH1 0x3 NOT CALLDATASIZE ADD SLT PUSH2 0x4EB JUMPI PUSH1 0x20 SWAP1 PUSH1 0xFF PUSH1 0x3 SLOAD AND SWAP1 MLOAD SWAP1 ISZERO ISZERO DUP2 MSTORE RETURN JUMPDEST POP SWAP1 CALLVALUE PUSH2 0x4EB JUMPI DUP2 PUSH1 0x3 NOT CALLDATASIZE ADD SLT PUSH2 0x4EB JUMPI PUSH1 0x20 SWAP1 MLOAD PUSH32 0x0 DUP2 MSTORE RETURN JUMPDEST POP SWAP1 CALLVALUE PUSH2 0x4EB JUMPI DUP2 PUSH1 0x3 NOT CALLDATASIZE ADD SLT PUSH2 0x4EB JUMPI PUSH1 0x20 SWAP1 MLOAD PUSH32 0x0 DUP2 MSTORE RETURN JUMPDEST POP SWAP1 CALLVALUE PUSH2 0x4EB JUMPI DUP2 PUSH1 0x3 NOT CALLDATASIZE ADD SLT PUSH2 0x4EB JUMPI PUSH1 0x20 SWAP1 MLOAD PUSH32 0x0 DUP2 MSTORE RETURN JUMPDEST POP SWAP2 CALLVALUE PUSH2 0x5FD JUMPI PUSH1 0x20 CALLDATASIZE PUSH1 0x3 NOT ADD SLT PUSH2 0x5FD JUMPI CALLDATALOAD PUSH1 0x1 PUSH1 0x1 PUSH1 0xA0 SHL SUB DUP2 AND SWAP1 DUP2 SWAP1 SUB PUSH2 0x5FD JUMPI DUP3 DUP3 SWAP2 PUSH1 0x20 SWAP5 MSTORE PUSH1 0x6 DUP5 MSTORE KECCAK256 SLOAD SWAP1 MLOAD SWAP1 DUP2 MSTORE RETURN JUMPDEST POP SWAP1 CALLVALUE PUSH2 0x4EB JUMPI DUP2 PUSH1 0x3 NOT CALLDATASIZE ADD SLT PUSH2 0x4EB JUMPI PUSH1 0x20 SWAP1 MLOAD PUSH32 0x0 DUP2 MSTORE RETURN JUMPDEST POP SWAP1 CALLVALUE PUSH2 0x4EB JUMPI DUP2 PUSH1 0x3 NOT CALLDATASIZE ADD SLT PUSH2 0x4EB JUMPI SWAP1 SLOAD SWAP1 MLOAD PUSH1 0x1 PUSH1 0x1 PUSH1 0xA0 SHL SUB SWAP1 SWAP2 AND DUP2 MSTORE PUSH1 0x20 SWAP1 RETURN JUMPDEST POP SWAP1 CALLVALUE PUSH2 0x4EB JUMPI DUP2 PUSH1 0x3 NOT CALLDATASIZE ADD SLT PUSH2 0x4EB JUMPI PUSH1 0x20 SWAP1 MLOAD PUSH32 0x0 DUP2 MSTORE RETURN JUMPDEST POP SWAP2 CALLVALUE PUSH2 0x5FD JUMPI PUSH1 0x20 CALLDATASIZE PUSH1 0x3 NOT ADD SLT PUSH2 0x5FD JUMPI CALLDATALOAD PUSH1 0x1 PUSH1 0x1 PUSH1 0xA0 SHL SUB DUP2 AND SWAP1 DUP2 SWAP1 SUB PUSH2 0x5FD JUMPI DUP2 DUP4 PUSH1 0xFF SWAP3 PUSH1 0x20 SWAP6 MSTORE PUSH1 0x5 DUP6 MSTORE KECCAK256 SLOAD AND SWAP1 MLOAD SWAP1 ISZERO ISZERO DUP2 MSTORE RETURN JUMPDEST POP CALLVALUE PUSH2 0xE6C JUMPI DUP1 PUSH1 0x3 NOT CALLDATASIZE ADD SLT PUSH2 0xE6C JUMPI PUSH2 0xE2B PUSH2 0x15FC JUMP JUMPDEST DUP1 SLOAD PUSH1 0x1 PUSH1 0x1 PUSH1 0xA0 SHL SUB NOT DUP2 AND DUP3 SSTORE DUP2 SWAP1 PUSH1 0x1 PUSH1 0x1 PUSH1 0xA0 SHL SUB AND PUSH32 0x8BE0079C531659141344CD1FD0A4F28419497F9722A3DAAFE3B4186F6B6457E0 DUP3 DUP1 LOG3 DUP1 RETURN JUMPDEST DUP1 REVERT JUMPDEST POP SWAP1 CALLVALUE PUSH2 0x4EB JUMPI DUP2 PUSH1 0x3 NOT CALLDATASIZE ADD SLT PUSH2 0x4EB JUMPI PUSH1 0x20 SWAP1 MLOAD PUSH1 0x1E DUP2 MSTORE RETURN JUMPDEST POP SWAP2 CALLVALUE PUSH2 0x5FD JUMPI DUP3 PUSH1 0x3 NOT CALLDATASIZE ADD SLT PUSH2 0x5FD JUMPI PUSH2 0xEA5 PUSH2 0x1713 JUMP JUMPDEST PUSH2 0xEAD PUSH2 0x1628 JUMP JUMPDEST DUP2 DUP2 LT ISZERO PUSH2 0x1361 JUMPI PUSH1 0x2 SUB PUSH2 0x1315 JUMPI PUSH1 0x3 SLOAD PUSH1 0xFF DUP2 AND PUSH2 0x12DE JUMPI PUSH1 0xFF NOT AND PUSH1 0x1 OR PUSH1 0x3 SSTORE PUSH1 0x2 SLOAD SWAP2 PUSH1 0x64 DUP1 PUSH2 0xF02 PUSH32 0x0 DUP7 PUSH2 0x1736 JUMP JUMPDEST DIV SWAP1 DUP5 DUP1 DIV PUSH1 0x1 EQ DUP6 ISZERO OR ISZERO PUSH2 0x12CB JUMPI PUSH2 0xF3C PUSH32 0x0 DUP4 PUSH2 0x1736 JUMP JUMPDEST DUP4 MLOAD PUSH4 0x95EA7B3 PUSH1 0xE0 SHL PUSH1 0x20 DUP1 DUP4 ADD DUP3 DUP2 MSTORE PUSH1 0x1 PUSH1 0x1 PUSH1 0xA0 SHL SUB PUSH32 0x0 DUP2 AND PUSH1 0x24 DUP1 DUP8 ADD DUP3 SWAP1 MSTORE PUSH1 0x44 DUP1 DUP9 ADD DUP10 SWAP1 MSTORE DUP8 MSTORE SWAP4 SWAP12 SWAP7 SWAP11 SWAP7 SWAP4 SWAP6 SWAP2 SWAP5 PUSH32 0x0 SWAP4 SWAP2 SWAP3 SWAP2 DUP15 SWAP1 DUP15 SWAP1 DUP3 SWAP1 PUSH2 0xFCA PUSH1 0x64 DUP8 PUSH2 0x1749 JUMP JUMPDEST DUP6 MLOAD SWAP1 DUP3 DUP10 GAS CALL SWAP1 RETURNDATASIZE DUP2 MLOAD SWAP2 DUP4 PUSH2 0x12AB JUMPI JUMPDEST POP POP POP ISZERO PUSH2 0x124E JUMPI JUMPDEST POP POP PUSH1 0x62 DUP11 MUL DUP11 DUP2 DIV PUSH1 0x62 EQ DUP12 ISZERO OR ISZERO PUSH2 0x123C JUMPI PUSH1 0x62 DUP10 MUL DUP10 DUP2 DIV PUSH1 0x62 EQ DUP11 ISZERO OR ISZERO PUSH2 0x122A JUMPI DUP6 DUP15 SLOAD AND SWAP1 PUSH2 0x258 TIMESTAMP ADD SWAP3 DUP4 TIMESTAMP GT PUSH2 0x1217 JUMPI DUP13 MLOAD PUSH4 0xF305D719 PUSH1 0xE0 SHL DUP2 MSTORE SWAP6 DUP9 AND DUP7 DUP12 ADD MSTORE DUP6 DUP10 ADD DUP15 SWAP1 MSTORE DUP11 SWAP1 DIV PUSH1 0x44 DUP7 ADD MSTORE DUP10 SWAP1 DIV DUP5 DUP11 ADD MSTORE PUSH1 0x84 DUP5 ADD MSTORE PUSH1 0xA4 DUP4 ADD MSTORE DUP12 SWAP3 SWAP2 SWAP1 DUP9 SWAP1 DUP3 SWAP1 DUP2 GAS SWAP4 PUSH1 0xC4 SWAP3 PUSH1 0x60 SWAP6 CALL DUP1 ISZERO PUSH2 0x120D JUMPI PUSH2 0x11E2 JUMPI JUMPDEST POP DUP6 DUP4 PUSH1 0x8 SLOAD AND SWAP2 DUP3 PUSH2 0x1181 JUMPI JUMPDEST POP POP POP SWAP1 SELFBALANCE SWAP1 DUP1 PUSH1 0x7 SLOAD AND ISZERO ISZERO PUSH1 0x0 EQ PUSH2 0x1121 JUMPI DUP3 DUP1 SWAP3 DUP2 SWAP3 PUSH1 0x7 SLOAD AND GAS CALL PUSH2 0x10A1 PUSH2 0x1781 JUMP JUMPDEST POP ISZERO PUSH2 0x10E9 JUMPI POP POP POP SWAP2 PUSH32 0xD4294F2E03DFA3F368C60AE6950D6E90C37101953B6AA279269459A9517F106E SWAP4 SWAP2 PUSH1 0x60 SWAP4 JUMPDEST PUSH1 0x2 SLOAD SWAP4 DUP3 MLOAD SWAP5 DUP6 MSTORE DUP5 ADD MSTORE DUP3 ADD MSTORE LOG1 PUSH1 0x1 DUP1 SSTORE DUP1 RETURN JUMPDEST DUP5 MLOAD PUSH3 0x461BCD PUSH1 0xE5 SHL DUP2 MSTORE SWAP2 DUP3 ADD DUP8 SWAP1 MSTORE PUSH1 0x16 SWAP1 DUP3 ADD MSTORE PUSH22 0x115CD8DC9BDDC81A185B991BDD995C8819985A5B1959 PUSH1 0x52 SHL PUSH1 0x44 DUP3 ADD MSTORE REVERT JUMPDEST DUP3 DUP1 SWAP7 POP DUP1 SWAP6 POP DUP1 SWAP5 POP SWAP10 SWAP9 SWAP8 SWAP10 SLOAD AND DUP3 DUP3 ISZERO PUSH2 0x1178 JUMPI JUMPDEST CALL ISZERO PUSH2 0x116B JUMPI SWAP1 PUSH32 0xD4294F2E03DFA3F368C60AE6950D6E90C37101953B6AA279269459A9517F106E SWAP4 PUSH1 0x60 SWAP4 SWAP3 PUSH2 0x10D2 JUMP JUMPDEST POP POP POP MLOAD SWAP1 RETURNDATASIZE SWAP1 DUP3 RETURNDATACOPY RETURNDATASIZE SWAP1 REVERT JUMPDEST POP PUSH2 0x8FC PUSH2 0x1139 JUMP JUMPDEST DUP4 SWAP3 DUP4 SWAP3 DUP4 SWAP3 DIV SWAP1 GAS CALL PUSH2 0x1193 PUSH2 0x1781 JUMP JUMPDEST POP ISZERO PUSH2 0x11A2 JUMPI DUP9 CODESIZE DUP6 DUP2 PUSH2 0x107A JUMP JUMPDEST POP DUP5 MLOAD PUSH3 0x461BCD PUSH1 0xE5 SHL DUP2 MSTORE SWAP2 DUP3 ADD DUP8 SWAP1 MSTORE PUSH1 0x1D SWAP1 DUP3 ADD MSTORE PUSH32 0x496E737572616E636520746178207472616E73666572206661696C6564000000 PUSH1 0x44 DUP3 ADD MSTORE REVERT JUMPDEST PUSH1 0x60 SWAP1 DUP2 RETURNDATASIZE DUP2 GT PUSH2 0x1206 JUMPI JUMPDEST PUSH2 0x11F8 DUP2 DUP4 PUSH2 0x1749 JUMP JUMPDEST DUP2 ADD SUB SLT PUSH2 0x4EB JUMPI CODESIZE PUSH2 0x106C JUMP JUMPDEST POP RETURNDATASIZE PUSH2 0x11EE JUMP JUMPDEST DUP10 MLOAD RETURNDATASIZE DUP6 DUP3 RETURNDATACOPY RETURNDATASIZE SWAP1 REVERT JUMPDEST POP PUSH4 0x4E487B71 PUSH1 0xE0 SHL DUP16 MSTORE PUSH1 0x11 DUP10 MSTORE DUP8 DUP16 REVERT JUMPDEST PUSH4 0x4E487B71 PUSH1 0xE0 SHL DUP15 MSTORE PUSH1 0x11 DUP9 MSTORE DUP7 DUP15 REVERT JUMPDEST PUSH4 0x4E487B71 PUSH1 0xE0 SHL DUP14 MSTORE PUSH1 0x11 DUP8 MSTORE DUP6 DUP14 REVERT JUMPDEST DUP11 MLOAD SWAP1 DUP14 DUP3 ADD MSTORE DUP3 DUP8 DUP3 ADD MSTORE DUP14 PUSH1 0x44 DUP3 ADD MSTORE PUSH1 0x44 DUP2 MSTORE PUSH1 0x80 DUP2 ADD DUP2 DUP2 LT PUSH8 0xFFFFFFFFFFFFFFFF DUP3 GT OR PUSH2 0x1299 JUMPI PUSH2 0x1292 SWAP3 SWAP2 PUSH2 0x128C SWAP2 DUP14 MSTORE DUP6 PUSH2 0x17C1 JUMP JUMPDEST DUP4 PUSH2 0x17C1 JUMP JUMPDEST CODESIZE DUP1 PUSH2 0xFE5 JUMP JUMPDEST PUSH4 0x4E487B71 PUSH1 0xE0 SHL DUP16 MSTORE PUSH1 0x41 DUP10 MSTORE DUP8 DUP16 REVERT JUMPDEST POP SWAP1 SWAP2 POP PUSH2 0x12C3 JUMPI POP DUP6 DUP5 AND EXTCODESIZE ISZERO ISZERO JUMPDEST CODESIZE DUP16 DUP1 PUSH2 0xFDC JUMP JUMPDEST PUSH1 0x1 EQ PUSH2 0x12BB JUMP JUMPDEST PUSH4 0x4E487B71 PUSH1 0xE0 SHL DUP7 MSTORE PUSH1 0x11 DUP5 MSTORE PUSH1 0x24 DUP7 REVERT JUMPDEST POP PUSH1 0x20 PUSH1 0x64 SWAP3 MLOAD SWAP2 PUSH3 0x461BCD PUSH1 0xE5 SHL DUP4 MSTORE DUP3 ADD MSTORE PUSH1 0x11 PUSH1 0x24 DUP3 ADD MSTORE PUSH17 0x105B1C9958591E48199A5B985B1A5E9959 PUSH1 0x7A SHL PUSH1 0x44 DUP3 ADD MSTORE REVERT JUMPDEST PUSH1 0x20 PUSH1 0x84 SWAP3 MLOAD SWAP2 PUSH3 0x461BCD PUSH1 0xE5 SHL DUP4 MSTORE DUP3 ADD MSTORE PUSH1 0x21 PUSH1 0x24 DUP3 ADD MSTORE PUSH32 0x536F667420636170206E6F742072656163686564206F72206E6F7420656E6465 PUSH1 0x44 DUP3 ADD MSTORE PUSH1 0x19 PUSH1 0xFA SHL PUSH1 0x64 DUP3 ADD MSTORE REVERT JUMPDEST PUSH4 0x4E487B71 PUSH1 0xE0 SHL DUP5 MSTORE PUSH1 0x21 DUP3 MSTORE PUSH1 0x24 DUP5 REVERT JUMPDEST POP SWAP2 CALLVALUE PUSH2 0x5FD JUMPI DUP3 PUSH1 0x3 NOT CALLDATASIZE ADD SLT PUSH2 0x5FD JUMPI PUSH2 0x138E PUSH2 0x1713 JUMP JUMPDEST PUSH1 0xFF PUSH1 0x3 SLOAD AND ISZERO PUSH2 0x14D3 JUMPI CALLER DUP4 MSTORE PUSH1 0x20 SWAP1 DUP1 DUP3 MSTORE DUP3 DUP5 KECCAK256 SLOAD ISZERO PUSH2 0x1492 JUMPI CALLER DUP5 MSTORE PUSH1 0x5 DUP3 MSTORE PUSH1 0xFF DUP4 DUP6 KECCAK256 SLOAD AND PUSH2 0x145F JUMPI SWAP1 PUSH32 0x896E034966EAAF1ADC54ACC0F257056FEBBD300C9E47182CF761982CF1F5E430 SWAP2 CALLER DUP6 MSTORE PUSH1 0x5 DUP3 MSTORE DUP4 DUP6 KECCAK256 PUSH1 0x1 PUSH1 0xFF NOT DUP3 SLOAD AND OR SWAP1 SSTORE DUP2 MSTORE PUSH2 0x1425 DUP4 DUP6 KECCAK256 SLOAD PUSH32 0x0 SWAP1 PUSH2 0x1736 JUMP JUMPDEST SWAP3 PUSH2 0x1451 DUP5 CALLER PUSH32 0x0 PUSH2 0x1829 JUMP JUMPDEST MLOAD SWAP3 DUP4 MSTORE CALLER SWAP3 LOG2 PUSH1 0x1 DUP1 SSTORE DUP1 RETURN JUMPDEST SWAP2 MLOAD PUSH3 0x461BCD PUSH1 0xE5 SHL DUP2 MSTORE SWAP2 DUP3 ADD MSTORE PUSH1 0xF PUSH1 0x24 DUP3 ADD MSTORE PUSH15 0x105B1C9958591E4818DB185A5B5959 PUSH1 0x8A SHL PUSH1 0x44 DUP3 ADD MSTORE PUSH1 0x64 SWAP1 REVERT JUMPDEST SWAP2 MLOAD PUSH3 0x461BCD PUSH1 0xE5 SHL DUP2 MSTORE SWAP2 DUP3 ADD MSTORE PUSH1 0x18 PUSH1 0x24 DUP3 ADD MSTORE PUSH32 0x4E6F20636F6E747269627574696F6E20746F20636C61696D0000000000000000 PUSH1 0x44 DUP3 ADD MSTORE PUSH1 0x64 SWAP1 REVERT JUMPDEST PUSH1 0x20 PUSH1 0x64 SWAP3 MLOAD SWAP2 PUSH3 0x461BCD PUSH1 0xE5 SHL DUP4 MSTORE DUP3 ADD MSTORE PUSH1 0x15 PUSH1 0x24 DUP3 ADD MSTORE PUSH21 0x141C995CD85B19481B9BDD08199A5B985B1A5E9959 PUSH1 0x5A SHL PUSH1 0x44 DUP3 ADD MSTORE REVERT JUMPDEST POP SWAP1 CALLVALUE PUSH2 0x4EB JUMPI DUP2 PUSH1 0x3 NOT CALLDATASIZE ADD SLT PUSH2 0x4EB JUMPI PUSH1 0x20 SWAP1 MLOAD PUSH32 0x0 DUP2 MSTORE RETURN JUMPDEST POP SWAP2 CALLVALUE PUSH2 0x5FD JUMPI PUSH1 0x20 CALLDATASIZE PUSH1 0x3 NOT ADD SLT PUSH2 0x5FD JUMPI DUP1 CALLDATALOAD PUSH1 0x1 PUSH1 0x1 PUSH1 0xA0 SHL SUB DUP2 AND SWAP1 DUP2 SWAP1 SUB PUSH2 0x9C0 JUMPI SWAP3 DUP3 SWAP2 PUSH1 0x20 SWAP5 DUP3 MSTORE DUP5 MSTORE KECCAK256 SLOAD SWAP1 MLOAD SWAP1 DUP2 MSTORE RETURN JUMPDEST POP SWAP1 CALLVALUE PUSH2 0x4EB JUMPI DUP2 PUSH1 0x3 NOT CALLDATASIZE ADD SLT PUSH2 0x4EB JUMPI PUSH1 0x20 SWAP1 MLOAD PUSH32 0x0 DUP2 MSTORE RETURN JUMPDEST SWAP3 POP POP CALLVALUE PUSH2 0xE6C JUMPI DUP1 PUSH1 0x3 NOT CALLDATASIZE ADD SLT PUSH2 0xE6C JUMPI PUSH2 0x15D8 PUSH2 0x1628 JUMP JUMPDEST SWAP1 DUP4 DUP3 LT ISZERO PUSH2 0x15E9 JUMPI PUSH1 0x20 DUP4 DUP4 DUP2 MSTORE RETURN JUMPDEST PUSH4 0x4E487B71 PUSH1 0xE0 SHL DUP2 MSTORE PUSH1 0x21 DUP5 MSTORE PUSH1 0x24 SWAP1 REVERT JUMPDEST PUSH1 0x0 SLOAD PUSH1 0x1 PUSH1 0x1 PUSH1 0xA0 SHL SUB AND CALLER SUB PUSH2 0x1610 JUMPI JUMP JUMPDEST PUSH1 0x40 MLOAD PUSH4 0x118CDAA7 PUSH1 0xE0 SHL DUP2 MSTORE CALLER PUSH1 0x4 DUP3 ADD MSTORE PUSH1 0x24 SWAP1 REVERT JUMPDEST PUSH1 0xFF PUSH1 0x3 SLOAD AND PUSH2 0x16B6 JUMPI PUSH32 0x0 TIMESTAMP LT PUSH2 0x16EB JUMPI PUSH32 0x0 TIMESTAMP GT ISZERO DUP1 PUSH2 0x16C0 JUMPI JUMPDEST PUSH2 0x16BB JUMPI PUSH1 0x2 SLOAD PUSH32 0x0 GT ISZERO PUSH2 0x16B6 JUMPI PUSH1 0x3 SWAP1 JUMP JUMPDEST PUSH1 0x2 SWAP1 JUMP JUMPDEST PUSH1 0x1 SWAP1 JUMP JUMPDEST POP PUSH1 0x2 SLOAD PUSH32 0x0 GT PUSH2 0x1683 JUMP JUMPDEST PUSH1 0x0 SWAP1 JUMP JUMPDEST SWAP2 SWAP1 DUP3 ADD DUP1 SWAP3 GT PUSH2 0x16FD JUMPI JUMP JUMPDEST PUSH4 0x4E487B71 PUSH1 0xE0 SHL PUSH1 0x0 MSTORE PUSH1 0x11 PUSH1 0x4 MSTORE PUSH1 0x24 PUSH1 0x0 REVERT JUMPDEST PUSH1 0x2 PUSH1 0x1 SLOAD EQ PUSH2 0x1724 JUMPI PUSH1 0x2 PUSH1 0x1 SSTORE JUMP JUMPDEST PUSH1 0x40 MLOAD PUSH4 0x3EE5AEB5 PUSH1 0xE0 SHL DUP2 MSTORE PUSH1 0x4 SWAP1 REVERT JUMPDEST DUP2 DUP2 MUL SWAP3 SWAP2 DUP2 ISZERO SWAP2 DUP5 DIV EQ OR ISZERO PUSH2 0x16FD JUMPI JUMP JUMPDEST SWAP1 PUSH1 0x1F DUP1 NOT SWAP2 ADD AND DUP2 ADD SWAP1 DUP2 LT PUSH8 0xFFFFFFFFFFFFFFFF DUP3 GT OR PUSH2 0x176B JUMPI PUSH1 0x40 MSTORE JUMP JUMPDEST PUSH4 0x4E487B71 PUSH1 0xE0 SHL PUSH1 0x0 MSTORE PUSH1 0x41 PUSH1 0x4 MSTORE PUSH1 0x24 PUSH1 0x0 REVERT JUMPDEST RETURNDATASIZE ISZERO PUSH2 0x17BC JUMPI RETURNDATASIZE SWAP1 PUSH8 0xFFFFFFFFFFFFFFFF DUP3 GT PUSH2 0x176B JUMPI PUSH1 0x40 MLOAD SWAP2 PUSH2 0x17B0 PUSH1 0x1F DUP3 ADD PUSH1 0x1F NOT AND PUSH1 0x20 ADD DUP5 PUSH2 0x1749 JUMP JUMPDEST DUP3 MSTORE RETURNDATASIZE PUSH1 0x0 PUSH1 0x20 DUP5 ADD RETURNDATACOPY JUMP JUMPDEST PUSH1 0x60 SWAP1 JUMP JUMPDEST SWAP1 PUSH1 0x0 PUSH1 0x20 SWAP2 DUP3 DUP2 MLOAD SWAP2 ADD DUP3 DUP6 GAS CALL ISZERO PUSH2 0x181D JUMPI PUSH1 0x0 MLOAD RETURNDATASIZE PUSH2 0x1814 JUMPI POP PUSH1 0x1 PUSH1 0x1 PUSH1 0xA0 SHL SUB DUP2 AND EXTCODESIZE ISZERO JUMPDEST PUSH2 0x17F2 JUMPI POP JUMP JUMPDEST PUSH1 0x40 MLOAD PUSH4 0x5274AFE7 PUSH1 0xE0 SHL DUP2 MSTORE PUSH1 0x1 PUSH1 0x1 PUSH1 0xA0 SHL SUB SWAP1 SWAP2 AND PUSH1 0x4 DUP3 ADD MSTORE PUSH1 0x24 SWAP1 REVERT JUMPDEST PUSH1 0x1 EQ ISZERO PUSH2 0x17EB JUMP JUMPDEST PUSH1 0x40 MLOAD RETURNDATASIZE PUSH1 0x0 DUP3 RETURNDATACOPY RETURNDATASIZE SWAP1 REVERT JUMPDEST PUSH1 0x40 MLOAD PUSH4 0xA9059CBB PUSH1 0xE0 SHL PUSH1 0x20 DUP3 ADD MSTORE PUSH1 0x1 PUSH1 0x1 PUSH1 0xA0 SHL SUB SWAP3 SWAP1 SWAP3 AND PUSH1 0x24 DUP4 ADD MSTORE PUSH1 0x44 DUP1 DUP4 ADD SWAP4 SWAP1 SWAP4 MSTORE SWAP2 DUP2 MSTORE PUSH2 0x186A SWAP2 PUSH2 0x1865 PUSH1 0x64 DUP4 PUSH2 0x1749 JUMP JUMPDEST PUSH2 0x17C1 JUMP JUMPDEST JUMP INVALID 0x4D ISZERO 0x4D 0x4A 0xAE 0x21 PUSH12 0xED6D0926DB77C00DF2B57C6B JUMPDEST LOG4 0xEE 0xE0 JUMPI PUSH22 0xDE20FACEDE3A7BA2646970667358221220953434D29B 0xB0 PUSH16 0xE6E8F719FA2491D13D11708A37BD27DB GASLIMIT PREVRANDAO PUSH0 0xC 0xD6 0x29 PUSH1 0x37 JUMP PUSH5 0x736F6C6343 STOP ADDMOD EQ STOP CALLER "},"deployedBytecode":{"immutableReferences":{"9231":[{"length":32,"start":1212},{"length":32,"start":2369},{"length":32,"start":3990},{"length":32,"start":5165}],"9234":[{"length":32,"start":1343},{"length":32,"start":3928}],"9236":[{"length":32,"start":3405},{"length":32,"start":5772}],"9238":[{"length":32,"start":81},{"length":32,"start":1287},{"length":32,"start":1672},{"length":32,"start":5830}],"9240":[{"length":32,"start":5120},{"length":32,"start":5413}],"9242":[{"length":32,"start":3288},{"length":32,"start":3863}],"9244":[{"length":32,"start":3170},{"length":32,"start":3805}],"9246":[{"length":32,"start":164},{"length":32,"start":1753},{"length":32,"start":3504},{"length":32,"start":5684}],"9248":[{"length":32,"start":2519},{"length":32,"start":5530},{"length":32,"start":5723}],"9250":[{"length":32,"start":475},{"length":32,"start":2063},{"length":32,"start":3229}]},"linkReferences":{},"object":"6080604081815260049182361015610360575b50361561001e57600080fd5b610026611713565b61002e611628565b8281101561034b576001036103155734156102dd5761004f346002546116f0565b7f0000000000000000000000000000000000000000000000000000000000000000106102a25760003381526020926006845282822054601e81018091116101b257421061026d573382526006845242838320557f0000000000000000000000000000000000000000000000000000000000000000610258810180821161025a574210156101c55742034281116101b25761012c111561019b5767ffffffffffffffff6706f05b59d3b200005b3384528286521661010f34858520546116f0565b116101585791809160008051602061186d833981519152935b3382528552206101393482546116f0565b9055610147346002546116f0565b60025551913483523392a260018055005b825162461bcd60e51b8152908101849052601f60248201527f44796e616d696320416e74692d5768616c6520636170206578636565646564006044820152606490fd5b67ffffffffffffffff670de0b6b3a76400006100fb565b634e487b7160e01b835260118252602483fd5b503382528084526101d934848420546116f0565b7f0000000000000000000000000000000000000000000000000000000000000000106102175791809160008051602061186d83398151915293610128565b825162461bcd60e51b8152908101849052601b60248201527f45786365656473206d6178207370656e642070657220627579657200000000006044820152606490fd5b634e487b7160e01b845260118352602484fd5b825162461bcd60e51b8152908101849052600f60248201526e436f6f6c646f776e2061637469766560881b6044820152606490fd5b906020606492519162461bcd60e51b835282015260156024820152740576f756c642065786365656420686172642063617605c1b6044820152fd5b906020606492519162461bcd60e51b835282015260126024820152710416d6f756e74206d757374206265203e20360741b6044820152fd5b906020606492519162461bcd60e51b8352820152601060248201526f50726573616c65206e6f74206c69766560801b6044820152fd5b602183634e487b7160e01b6000525260246000fd5b600090813560e01c9081631865c57d146115bd575080633197cbb61461158257806342e94c901461154857806342f393811461150d57806348c54b9d146113745780634bb278f314610e8b5780636e99d52f14610e6f578063715018a614610e1257806373b2e80e14610dd357806378e9792514610d985780638da5cb5b14610d70578063906a26e014610d35578063a03039c214610cfb578063a20ecbbb14610cc0578063a3d35dad14610c85578063b068375514610c4a578063b3f05b9714610c26578063b5545a3c14610b1c578063c12255c414610af3578063c342381e14610ad7578063c5c4744c14610ab8578063c8bdbfb6146108e3578063d7bb99ba14610647578063e6d4c0ff1461062a578063e6fa0ef714610601578063f2fde38b1461056e578063f887ea401461052a578063fb86a404146104ef5763fc0c546a036100125790346104eb57816003193601126104eb57517f00000000000000000000000000000000000000000000000000000000000000006001600160a01b03168152602090f35b5080fd5b5090346104eb57816003193601126104eb57602090517f00000000000000000000000000000000000000000000000000000000000000008152f35b5090346104eb57816003193601126104eb57517f00000000000000000000000000000000000000000000000000000000000000006001600160a01b03168152602090f35b509190346105fd5760203660031901126105fd576001600160a01b038235818116939192908490036105f9576105a26115fc565b83156105e357505082546001600160a01b0319811683178455167f8be0079c531659141344cd1fd0a4f28419497f9722a3daafe3b4186f6b6457e08380a380f35b51631e4fbdf760e01b8152908101849052602490fd5b8480fd5b8280fd5b5090346104eb57816003193601126104eb5760085490516001600160a01b039091168152602090f35b5090346104eb57816003193601126104eb57602090516102588152f35b509190826003193601126105fd5761065d611713565b610665611628565b828110156108d0576001036103155734156102dd57610686346002546116f0565b7f0000000000000000000000000000000000000000000000000000000000000000106102a2573383526020916006835281842054601e81018091116107e657421061089d573384526006835242828520557f0000000000000000000000000000000000000000000000000000000000000000610258810180821161088a574210156107f95742034281116107e65761012c11156107cf5767ffffffffffffffff6706f05b59d3b200005b3386528285521661074434848720546116f0565b1161078e579060008051602061186d833981519152915b338552835280842061076e3482546116f0565b905561077c346002546116f0565b60025551913483523392a26001805580f35b82606492519162461bcd60e51b8352820152601f60248201527f44796e616d696320416e74692d5768616c6520636170206578636565646564006044820152fd5b67ffffffffffffffff670de0b6b3a7640000610730565b634e487b7160e01b855260118252602485fd5b5033845280835261080d34838620546116f0565b7f000000000000000000000000000000000000000000000000000000000000000010610849579060008051602061186d8339815191529161075b565b82606492519162461bcd60e51b8352820152601b60248201527f45786365656473206d6178207370656e642070657220627579657200000000006044820152fd5b634e487b7160e01b865260118352602486fd5b82606492519162461bcd60e51b8352820152600f60248201526e436f6f6c646f776e2061637469766560881b6044820152fd5b634e487b7160e01b845260218352602484fd5b509190346105fd57826003193601126105fd576108fe6115fc565b610906611628565b8281101580610aa5576002821480928115610a97575b5015610a5d576108d0576109d5575b80516370a0823160e01b815230928101929092527f00000000000000000000000000000000000000000000000000000000000000006001600160a01b036020846024818486165afa9283156109cc57508492610993575b610990935084541690611829565b80f35b91506020833d82116109c4575b816109ad60209383611749565b810103126109c057610990925191610982565b8380fd5b3d91506109a0565b513d86823e3d90fd5b7f000000000000000000000000000000000000000000000000000000000000000062278d00810180911161025a57421161092b57906020608492519162461bcd60e51b8352820152602860248201527f57616974203330206461797320706f73742d656e6420746f20636c656172206c6044820152676566746f7665727360c01b6064820152fd5b825162461bcd60e51b8152602081860152601460248201527350726573616c65207374696c6c2061637469766560601b6044820152606490fd5b91505060038591143861091c565b634e487b7160e01b855260218452602485fd5b5090346104eb57816003193601126104eb576020906002549051908152f35b5090346104eb57816003193601126104eb5760209051603c8152f35b5090346104eb57816003193601126104eb5760075490516001600160a01b039091168152602090f35b509190346105fd57826003193601126105fd57610b37611713565b610b3f611628565b828110156108d057600303610bee573383528160205280832054918215610bb457338452602052828181205582808080853382f115610ba957519081527f358fe4192934d3bf28ae181feda1f4bd08ca67f5e2fad55582cce5eb67304ae960203392a26001805580f35b51913d9150823e3d90fd5b6020606492519162461bcd60e51b83528201526015602482015274139bc818dbdb9d1c9a589d5d1a5bdb88199bdd5b99605a1b6044820152fd5b906020606492519162461bcd60e51b83528201526012602482015271141c995cd85b19481b9bdd0819985a5b195960721b6044820152fd5b5090346104eb57816003193601126104eb5760209060ff6003541690519015158152f35b5090346104eb57816003193601126104eb57602090517f00000000000000000000000000000000000000000000000000000000000000008152f35b5090346104eb57816003193601126104eb57602090517f00000000000000000000000000000000000000000000000000000000000000008152f35b5090346104eb57816003193601126104eb57602090517f00000000000000000000000000000000000000000000000000000000000000008152f35b5091346105fd5760203660031901126105fd57356001600160a01b038116908190036105fd57828291602094526006845220549051908152f35b5090346104eb57816003193601126104eb57602090517f00000000000000000000000000000000000000000000000000000000000000008152f35b5090346104eb57816003193601126104eb57905490516001600160a01b039091168152602090f35b5090346104eb57816003193601126104eb57602090517f00000000000000000000000000000000000000000000000000000000000000008152f35b5091346105fd5760203660031901126105fd57356001600160a01b038116908190036105fd57818360ff92602095526005855220541690519015158152f35b5034610e6c5780600319360112610e6c57610e2b6115fc565b80546001600160a01b03198116825581906001600160a01b03167f8be0079c531659141344cd1fd0a4f28419497f9722a3daafe3b4186f6b6457e08280a380f35b80fd5b5090346104eb57816003193601126104eb5760209051601e8152f35b5091346105fd57826003193601126105fd57610ea5611713565b610ead611628565b81811015611361576002036113155760035460ff81166112de5760ff191660011760035560025491606480610f027f000000000000000000000000000000000000000000000000000000000000000086611736565b0490848004600114851517156112cb57610f3c7f000000000000000000000000000000000000000000000000000000000000000083611736565b835163095ea7b360e01b60208083018281526001600160a01b037f00000000000000000000000000000000000000000000000000000000000000008116602480870182905260448088018990528752939b969a96939591947f0000000000000000000000000000000000000000000000000000000000000000939192918e908e908290610fca606487611749565b85519082895af1903d815191836112ab575b5050501561124e575b505060628a028a81046062148b15171561123c57606289028981046062148a15171561122a57858e541690610258420192834211611217578c5163f305d71960e01b8152958816868b01528589018e90528a90046044860152899004848a0152608484015260a48301528b92919088908290815a9360c492606095f1801561120d576111e2575b508583600854169182611181575b50505090479080600754161515600014611121578280928192600754165af16110a1611781565b50156110e957505050917fd4294f2e03dfa3f368c60ae6950d6e90c37101953b6aa279269459a9517f106e93916060935b600254938251948552840152820152a16001805580f35b845162461bcd60e51b815291820187905260169082015275115cd8dc9bddc81a185b991bdd995c8819985a5b195960521b6044820152fd5b82809650809550809450999897995416828215611178575bf11561116b57907fd4294f2e03dfa3f368c60ae6950d6e90c37101953b6aa279269459a9517f106e93606093926110d2565b50505051903d90823e3d90fd5b506108fc611139565b83928392839204905af1611193611781565b50156111a2578838858161107a565b50845162461bcd60e51b8152918201879052601d908201527f496e737572616e636520746178207472616e73666572206661696c65640000006044820152fd5b606090813d8111611206575b6111f88183611749565b810103126104eb573861106c565b503d6111ee565b89513d85823e3d90fd5b50634e487b7160e01b8f5260118952878ffd5b634e487b7160e01b8e5260118852868efd5b634e487b7160e01b8d5260118752858dfd5b8a51908d82015282878201528d6044820152604481526080810181811067ffffffffffffffff82111761129957611292929161128c918d52856117c1565b836117c1565b3880610fe5565b634e487b7160e01b8f5260418952878ffd5b509091506112c357508584163b15155b388f80610fdc565b6001146112bb565b634e487b7160e01b865260118452602486fd5b506020606492519162461bcd60e51b83528201526011602482015270105b1c9958591e48199a5b985b1a5e9959607a1b6044820152fd5b6020608492519162461bcd60e51b8352820152602160248201527f536f667420636170206e6f742072656163686564206f72206e6f7420656e64656044820152601960fa1b6064820152fd5b634e487b7160e01b845260218252602484fd5b5091346105fd57826003193601126105fd5761138e611713565b60ff60035416156114d3573383526020908082528284205415611492573384526005825260ff838520541661145f57907f896e034966eaaf1adc54acc0f257056febbd300c9e47182cf761982cf1f5e4309133855260058252838520600160ff198254161790558152611425838520547f000000000000000000000000000000000000000000000000000000000000000090611736565b9261145184337f0000000000000000000000000000000000000000000000000000000000000000611829565b519283523392a26001805580f35b915162461bcd60e51b815291820152600f60248201526e105b1c9958591e4818db185a5b5959608a1b6044820152606490fd5b915162461bcd60e51b815291820152601860248201527f4e6f20636f6e747269627574696f6e20746f20636c61696d00000000000000006044820152606490fd5b6020606492519162461bcd60e51b83528201526015602482015274141c995cd85b19481b9bdd08199a5b985b1a5e9959605a1b6044820152fd5b5090346104eb57816003193601126104eb57602090517f00000000000000000000000000000000000000000000000000000000000000008152f35b5091346105fd5760203660031901126105fd5780356001600160a01b038116908190036109c0579282916020948252845220549051908152f35b5090346104eb57816003193601126104eb57602090517f00000000000000000000000000000000000000000000000000000000000000008152f35b92505034610e6c5780600319360112610e6c576115d8611628565b90838210156115e957602083838152f35b634e487b7160e01b815260218452602490fd5b6000546001600160a01b0316330361161057565b60405163118cdaa760e01b8152336004820152602490fd5b60ff600354166116b6577f000000000000000000000000000000000000000000000000000000000000000042106116eb577f0000000000000000000000000000000000000000000000000000000000000000421115806116c0575b6116bb576002547f000000000000000000000000000000000000000000000000000000000000000011156116b657600390565b600290565b600190565b506002547f000000000000000000000000000000000000000000000000000000000000000011611683565b600090565b919082018092116116fd57565b634e487b7160e01b600052601160045260246000fd5b600260015414611724576002600155565b604051633ee5aeb560e01b8152600490fd5b818102929181159184041417156116fd57565b90601f8019910116810190811067ffffffffffffffff82111761176b57604052565b634e487b7160e01b600052604160045260246000fd5b3d156117bc573d9067ffffffffffffffff821161176b57604051916117b0601f8201601f191660200184611749565b82523d6000602084013e565b606090565b906000602091828151910182855af11561181d576000513d61181457506001600160a01b0381163b155b6117f25750565b604051635274afe760e01b81526001600160a01b039091166004820152602490fd5b600114156117eb565b6040513d6000823e3d90fd5b60405163a9059cbb60e01b60208201526001600160a01b0392909216602483015260448083019390935291815261186a91611865606483611749565b6117c1565b56fe4d154d4aae216bed6d0926db77c00df2b57c6b5ba4eee05775de20facede3a7ba2646970667358221220953434d29bb06fe6e8f719fa2491d13d11708a37bd27db45445f0cd62960375664736f6c63430008140033","opcodes":"PUSH1 0x80 PUSH1 0x40 DUP2 DUP2 MSTORE PUSH1 0x4 SWAP2 DUP3 CALLDATASIZE LT ISZERO PUSH2 0x360 JUMPI JUMPDEST POP CALLDATASIZE ISZERO PUSH2 0x1E JUMPI PUSH1 0x0 DUP1 REVERT JUMPDEST PUSH2 0x26 PUSH2 0x1713 JUMP JUMPDEST PUSH2 0x2E PUSH2 0x1628 JUMP JUMPDEST DUP3 DUP2 LT ISZERO PUSH2 0x34B JUMPI PUSH1 0x1 SUB PUSH2 0x315 JUMPI CALLVALUE ISZERO PUSH2 0x2DD JUMPI PUSH2 0x4F CALLVALUE PUSH1 0x2 SLOAD PUSH2 0x16F0 JUMP JUMPDEST PUSH32 0x0 LT PUSH2 0x2A2 JUMPI PUSH1 0x0 CALLER DUP2 MSTORE PUSH1 0x20 SWAP3 PUSH1 0x6 DUP5 MSTORE DUP3 DUP3 KECCAK256 SLOAD PUSH1 0x1E DUP2 ADD DUP1 SWAP2 GT PUSH2 0x1B2 JUMPI TIMESTAMP LT PUSH2 0x26D JUMPI CALLER DUP3 MSTORE PUSH1 0x6 DUP5 MSTORE TIMESTAMP DUP4 DUP4 KECCAK256 SSTORE PUSH32 0x0 PUSH2 0x258 DUP2 ADD DUP1 DUP3 GT PUSH2 0x25A JUMPI TIMESTAMP LT ISZERO PUSH2 0x1C5 JUMPI TIMESTAMP SUB TIMESTAMP DUP2 GT PUSH2 0x1B2 JUMPI PUSH2 0x12C GT ISZERO PUSH2 0x19B JUMPI PUSH8 0xFFFFFFFFFFFFFFFF PUSH8 0x6F05B59D3B20000 JUMPDEST CALLER DUP5 MSTORE DUP3 DUP7 MSTORE AND PUSH2 0x10F CALLVALUE DUP6 DUP6 KECCAK256 SLOAD PUSH2 0x16F0 JUMP JUMPDEST GT PUSH2 0x158 JUMPI SWAP2 DUP1 SWAP2 PUSH1 0x0 DUP1 MLOAD PUSH1 0x20 PUSH2 0x186D DUP4 CODECOPY DUP2 MLOAD SWAP2 MSTORE SWAP4 JUMPDEST CALLER DUP3 MSTORE DUP6 MSTORE KECCAK256 PUSH2 0x139 CALLVALUE DUP3 SLOAD PUSH2 0x16F0 JUMP JUMPDEST SWAP1 SSTORE PUSH2 0x147 CALLVALUE PUSH1 0x2 SLOAD PUSH2 0x16F0 JUMP JUMPDEST PUSH1 0x2 SSTORE MLOAD SWAP2 CALLVALUE DUP4 MSTORE CALLER SWAP3 LOG2 PUSH1 0x1 DUP1 SSTORE STOP JUMPDEST DUP3 MLOAD PUSH3 0x461BCD PUSH1 0xE5 SHL DUP2 MSTORE SWAP1 DUP2 ADD DUP5 SWAP1 MSTORE PUSH1 0x1F PUSH1 0x24 DUP3 ADD MSTORE PUSH32 0x44796E616D696320416E74692D5768616C652063617020657863656564656400 PUSH1 0x44 DUP3 ADD MSTORE PUSH1 0x64 SWAP1 REVERT JUMPDEST PUSH8 0xFFFFFFFFFFFFFFFF PUSH8 0xDE0B6B3A7640000 PUSH2 0xFB JUMP JUMPDEST PUSH4 0x4E487B71 PUSH1 0xE0 SHL DUP4 MSTORE PUSH1 0x11 DUP3 MSTORE PUSH1 0x24 DUP4 REVERT JUMPDEST POP CALLER DUP3 MSTORE DUP1 DUP5 MSTORE PUSH2 0x1D9 CALLVALUE DUP5 DUP5 KECCAK256 SLOAD PUSH2 0x16F0 JUMP JUMPDEST PUSH32 0x0 LT PUSH2 0x217 JUMPI SWAP2 DUP1 SWAP2 PUSH1 0x0 DUP1 MLOAD PUSH1 0x20 PUSH2 0x186D DUP4 CODECOPY DUP2 MLOAD SWAP2 MSTORE SWAP4 PUSH2 0x128 JUMP JUMPDEST DUP3 MLOAD PUSH3 0x461BCD PUSH1 0xE5 SHL DUP2 MSTORE SWAP1 DUP2 ADD DUP5 SWAP1 MSTORE PUSH1 0x1B PUSH1 0x24 DUP3 ADD MSTORE PUSH32 0x45786365656473206D6178207370656E64207065722062757965720000000000 PUSH1 0x44 DUP3 ADD MSTORE PUSH1 0x64 SWAP1 REVERT JUMPDEST PUSH4 0x4E487B71 PUSH1 0xE0 SHL DUP5 MSTORE PUSH1 0x11 DUP4 MSTORE PUSH1 0x24 DUP5 REVERT JUMPDEST DUP3 MLOAD PUSH3 0x461BCD PUSH1 0xE5 SHL DUP2 MSTORE SWAP1 DUP2 ADD DUP5 SWAP1 MSTORE PUSH1 0xF PUSH1 0x24 DUP3 ADD MSTORE PUSH15 0x436F6F6C646F776E20616374697665 PUSH1 0x88 SHL PUSH1 0x44 DUP3 ADD MSTORE PUSH1 0x64 SWAP1 REVERT JUMPDEST SWAP1 PUSH1 0x20 PUSH1 0x64 SWAP3 MLOAD SWAP2 PUSH3 0x461BCD PUSH1 0xE5 SHL DUP4 MSTORE DUP3 ADD MSTORE PUSH1 0x15 PUSH1 0x24 DUP3 ADD MSTORE PUSH21 0x576F756C642065786365656420686172642063617 PUSH1 0x5C SHL PUSH1 0x44 DUP3 ADD MSTORE REVERT JUMPDEST SWAP1 PUSH1 0x20 PUSH1 0x64 SWAP3 MLOAD SWAP2 PUSH3 0x461BCD PUSH1 0xE5 SHL DUP4 MSTORE DUP3 ADD MSTORE PUSH1 0x12 PUSH1 0x24 DUP3 ADD MSTORE PUSH18 0x416D6F756E74206D757374206265203E203 PUSH1 0x74 SHL PUSH1 0x44 DUP3 ADD MSTORE REVERT JUMPDEST SWAP1 PUSH1 0x20 PUSH1 0x64 SWAP3 MLOAD SWAP2 PUSH3 0x461BCD PUSH1 0xE5 SHL DUP4 MSTORE DUP3 ADD MSTORE PUSH1 0x10 PUSH1 0x24 DUP3 ADD MSTORE PUSH16 0x50726573616C65206E6F74206C697665 PUSH1 0x80 SHL PUSH1 0x44 DUP3 ADD MSTORE REVERT JUMPDEST PUSH1 0x21 DUP4 PUSH4 0x4E487B71 PUSH1 0xE0 SHL PUSH1 0x0 MSTORE MSTORE PUSH1 0x24 PUSH1 0x0 REVERT JUMPDEST PUSH1 0x0 SWAP1 DUP2 CALLDATALOAD PUSH1 0xE0 SHR SWAP1 DUP2 PUSH4 0x1865C57D EQ PUSH2 0x15BD JUMPI POP DUP1 PUSH4 0x3197CBB6 EQ PUSH2 0x1582 JUMPI DUP1 PUSH4 0x42E94C90 EQ PUSH2 0x1548 JUMPI DUP1 PUSH4 0x42F39381 EQ PUSH2 0x150D JUMPI DUP1 PUSH4 0x48C54B9D EQ PUSH2 0x1374 JUMPI DUP1 PUSH4 0x4BB278F3 EQ PUSH2 0xE8B JUMPI DUP1 PUSH4 0x6E99D52F EQ PUSH2 0xE6F JUMPI DUP1 PUSH4 0x715018A6 EQ PUSH2 0xE12 JUMPI DUP1 PUSH4 0x73B2E80E EQ PUSH2 0xDD3 JUMPI DUP1 PUSH4 0x78E97925 EQ PUSH2 0xD98 JUMPI DUP1 PUSH4 0x8DA5CB5B EQ PUSH2 0xD70 JUMPI DUP1 PUSH4 0x906A26E0 EQ PUSH2 0xD35 JUMPI DUP1 PUSH4 0xA03039C2 EQ PUSH2 0xCFB JUMPI DUP1 PUSH4 0xA20ECBBB EQ PUSH2 0xCC0 JUMPI DUP1 PUSH4 0xA3D35DAD EQ PUSH2 0xC85 JUMPI DUP1 PUSH4 0xB0683755 EQ PUSH2 0xC4A JUMPI DUP1 PUSH4 0xB3F05B97 EQ PUSH2 0xC26 JUMPI DUP1 PUSH4 0xB5545A3C EQ PUSH2 0xB1C JUMPI DUP1 PUSH4 0xC12255C4 EQ PUSH2 0xAF3 JUMPI DUP1 PUSH4 0xC342381E EQ PUSH2 0xAD7 JUMPI DUP1 PUSH4 0xC5C4744C EQ PUSH2 0xAB8 JUMPI DUP1 PUSH4 0xC8BDBFB6 EQ PUSH2 0x8E3 JUMPI DUP1 PUSH4 0xD7BB99BA EQ PUSH2 0x647 JUMPI DUP1 PUSH4 0xE6D4C0FF EQ PUSH2 0x62A JUMPI DUP1 PUSH4 0xE6FA0EF7 EQ PUSH2 0x601 JUMPI DUP1 PUSH4 0xF2FDE38B EQ PUSH2 0x56E JUMPI DUP1 PUSH4 0xF887EA40 EQ PUSH2 0x52A JUMPI DUP1 PUSH4 0xFB86A404 EQ PUSH2 0x4EF JUMPI PUSH4 0xFC0C546A SUB PUSH2 0x12 JUMPI SWAP1 CALLVALUE PUSH2 0x4EB JUMPI DUP2 PUSH1 0x3 NOT CALLDATASIZE ADD SLT PUSH2 0x4EB JUMPI MLOAD PUSH32 0x0 PUSH1 0x1 PUSH1 0x1 PUSH1 0xA0 SHL SUB AND DUP2 MSTORE PUSH1 0x20 SWAP1 RETURN JUMPDEST POP DUP1 REVERT JUMPDEST POP SWAP1 CALLVALUE PUSH2 0x4EB JUMPI DUP2 PUSH1 0x3 NOT CALLDATASIZE ADD SLT PUSH2 0x4EB JUMPI PUSH1 0x20 SWAP1 MLOAD PUSH32 0x0 DUP2 MSTORE RETURN JUMPDEST POP SWAP1 CALLVALUE PUSH2 0x4EB JUMPI DUP2 PUSH1 0x3 NOT CALLDATASIZE ADD SLT PUSH2 0x4EB JUMPI MLOAD PUSH32 0x0 PUSH1 0x1 PUSH1 0x1 PUSH1 0xA0 SHL SUB AND DUP2 MSTORE PUSH1 0x20 SWAP1 RETURN JUMPDEST POP SWAP2 SWAP1 CALLVALUE PUSH2 0x5FD JUMPI PUSH1 0x20 CALLDATASIZE PUSH1 0x3 NOT ADD SLT PUSH2 0x5FD JUMPI PUSH1 0x1 PUSH1 0x1 PUSH1 0xA0 SHL SUB DUP3 CALLDATALOAD DUP2 DUP2 AND SWAP4 SWAP2 SWAP3 SWAP1 DUP5 SWAP1 SUB PUSH2 0x5F9 JUMPI PUSH2 0x5A2 PUSH2 0x15FC JUMP JUMPDEST DUP4 ISZERO PUSH2 0x5E3 JUMPI POP POP DUP3 SLOAD PUSH1 0x1 PUSH1 0x1 PUSH1 0xA0 SHL SUB NOT DUP2 AND DUP4 OR DUP5 SSTORE AND PUSH32 0x8BE0079C531659141344CD1FD0A4F28419497F9722A3DAAFE3B4186F6B6457E0 DUP4 DUP1 LOG3 DUP1 RETURN JUMPDEST MLOAD PUSH4 0x1E4FBDF7 PUSH1 0xE0 SHL DUP2 MSTORE SWAP1 DUP2 ADD DUP5 SWAP1 MSTORE PUSH1 0x24 SWAP1 REVERT JUMPDEST DUP5 DUP1 REVERT JUMPDEST DUP3 DUP1 REVERT JUMPDEST POP SWAP1 CALLVALUE PUSH2 0x4EB JUMPI DUP2 PUSH1 0x3 NOT CALLDATASIZE ADD SLT PUSH2 0x4EB JUMPI PUSH1 0x8 SLOAD SWAP1 MLOAD PUSH1 0x1 PUSH1 0x1 PUSH1 0xA0 SHL SUB SWAP1 SWAP2 AND DUP2 MSTORE PUSH1 0x20 SWAP1 RETURN JUMPDEST POP SWAP1 CALLVALUE PUSH2 0x4EB JUMPI DUP2 PUSH1 0x3 NOT CALLDATASIZE ADD SLT PUSH2 0x4EB JUMPI PUSH1 0x20 SWAP1 MLOAD PUSH2 0x258 DUP2 MSTORE RETURN JUMPDEST POP SWAP2 SWAP1 DUP3 PUSH1 0x3 NOT CALLDATASIZE ADD SLT PUSH2 0x5FD JUMPI PUSH2 0x65D PUSH2 0x1713 JUMP JUMPDEST PUSH2 0x665 PUSH2 0x1628 JUMP JUMPDEST DUP3 DUP2 LT ISZERO PUSH2 0x8D0 JUMPI PUSH1 0x1 SUB PUSH2 0x315 JUMPI CALLVALUE ISZERO PUSH2 0x2DD JUMPI PUSH2 0x686 CALLVALUE PUSH1 0x2 SLOAD PUSH2 0x16F0 JUMP JUMPDEST PUSH32 0x0 LT PUSH2 0x2A2 JUMPI CALLER DUP4 MSTORE PUSH1 0x20 SWAP2 PUSH1 0x6 DUP4 MSTORE DUP2 DUP5 KECCAK256 SLOAD PUSH1 0x1E DUP2 ADD DUP1 SWAP2 GT PUSH2 0x7E6 JUMPI TIMESTAMP LT PUSH2 0x89D JUMPI CALLER DUP5 MSTORE PUSH1 0x6 DUP4 MSTORE TIMESTAMP DUP3 DUP6 KECCAK256 SSTORE PUSH32 0x0 PUSH2 0x258 DUP2 ADD DUP1 DUP3 GT PUSH2 0x88A JUMPI TIMESTAMP LT ISZERO PUSH2 0x7F9 JUMPI TIMESTAMP SUB TIMESTAMP DUP2 GT PUSH2 0x7E6 JUMPI PUSH2 0x12C GT ISZERO PUSH2 0x7CF JUMPI PUSH8 0xFFFFFFFFFFFFFFFF PUSH8 0x6F05B59D3B20000 JUMPDEST CALLER DUP7 MSTORE DUP3 DUP6 MSTORE AND PUSH2 0x744 CALLVALUE DUP5 DUP8 KECCAK256 SLOAD PUSH2 0x16F0 JUMP JUMPDEST GT PUSH2 0x78E JUMPI SWAP1 PUSH1 0x0 DUP1 MLOAD PUSH1 0x20 PUSH2 0x186D DUP4 CODECOPY DUP2 MLOAD SWAP2 MSTORE SWAP2 JUMPDEST CALLER DUP6 MSTORE DUP4 MSTORE DUP1 DUP5 KECCAK256 PUSH2 0x76E CALLVALUE DUP3 SLOAD PUSH2 0x16F0 JUMP JUMPDEST SWAP1 SSTORE PUSH2 0x77C CALLVALUE PUSH1 0x2 SLOAD PUSH2 0x16F0 JUMP JUMPDEST PUSH1 0x2 SSTORE MLOAD SWAP2 CALLVALUE DUP4 MSTORE CALLER SWAP3 LOG2 PUSH1 0x1 DUP1 SSTORE DUP1 RETURN JUMPDEST DUP3 PUSH1 0x64 SWAP3 MLOAD SWAP2 PUSH3 0x461BCD PUSH1 0xE5 SHL DUP4 MSTORE DUP3 ADD MSTORE PUSH1 0x1F PUSH1 0x24 DUP3 ADD MSTORE PUSH32 0x44796E616D696320416E74692D5768616C652063617020657863656564656400 PUSH1 0x44 DUP3 ADD MSTORE REVERT JUMPDEST PUSH8 0xFFFFFFFFFFFFFFFF PUSH8 0xDE0B6B3A7640000 PUSH2 0x730 JUMP JUMPDEST PUSH4 0x4E487B71 PUSH1 0xE0 SHL DUP6 MSTORE PUSH1 0x11 DUP3 MSTORE PUSH1 0x24 DUP6 REVERT JUMPDEST POP CALLER DUP5 MSTORE DUP1 DUP4 MSTORE PUSH2 0x80D CALLVALUE DUP4 DUP7 KECCAK256 SLOAD PUSH2 0x16F0 JUMP JUMPDEST PUSH32 0x0 LT PUSH2 0x849 JUMPI SWAP1 PUSH1 0x0 DUP1 MLOAD PUSH1 0x20 PUSH2 0x186D DUP4 CODECOPY DUP2 MLOAD SWAP2 MSTORE SWAP2 PUSH2 0x75B JUMP JUMPDEST DUP3 PUSH1 0x64 SWAP3 MLOAD SWAP2 PUSH3 0x461BCD PUSH1 0xE5 SHL DUP4 MSTORE DUP3 ADD MSTORE PUSH1 0x1B PUSH1 0x24 DUP3 ADD MSTORE PUSH32 0x45786365656473206D6178207370656E64207065722062757965720000000000 PUSH1 0x44 DUP3 ADD MSTORE REVERT JUMPDEST PUSH4 0x4E487B71 PUSH1 0xE0 SHL DUP7 MSTORE PUSH1 0x11 DUP4 MSTORE PUSH1 0x24 DUP7 REVERT JUMPDEST DUP3 PUSH1 0x64 SWAP3 MLOAD SWAP2 PUSH3 0x461BCD PUSH1 0xE5 SHL DUP4 MSTORE DUP3 ADD MSTORE PUSH1 0xF PUSH1 0x24 DUP3 ADD MSTORE PUSH15 0x436F6F6C646F776E20616374697665 PUSH1 0x88 SHL PUSH1 0x44 DUP3 ADD MSTORE REVERT JUMPDEST PUSH4 0x4E487B71 PUSH1 0xE0 SHL DUP5 MSTORE PUSH1 0x21 DUP4 MSTORE PUSH1 0x24 DUP5 REVERT JUMPDEST POP SWAP2 SWAP1 CALLVALUE PUSH2 0x5FD JUMPI DUP3 PUSH1 0x3 NOT CALLDATASIZE ADD SLT PUSH2 0x5FD JUMPI PUSH2 0x8FE PUSH2 0x15FC JUMP JUMPDEST PUSH2 0x906 PUSH2 0x1628 JUMP JUMPDEST DUP3 DUP2 LT ISZERO DUP1 PUSH2 0xAA5 JUMPI PUSH1 0x2 DUP3 EQ DUP1 SWAP3 DUP2 ISZERO PUSH2 0xA97 JUMPI JUMPDEST POP ISZERO PUSH2 0xA5D JUMPI PUSH2 0x8D0 JUMPI PUSH2 0x9D5 JUMPI JUMPDEST DUP1 MLOAD PUSH4 0x70A08231 PUSH1 0xE0 SHL DUP2 MSTORE ADDRESS SWAP3 DUP2 ADD SWAP3 SWAP1 SWAP3 MSTORE PUSH32 0x0 PUSH1 0x1 PUSH1 0x1 PUSH1 0xA0 SHL SUB PUSH1 0x20 DUP5 PUSH1 0x24 DUP2 DUP5 DUP7 AND GAS STATICCALL SWAP3 DUP4 ISZERO PUSH2 0x9CC JUMPI POP DUP5 SWAP3 PUSH2 0x993 JUMPI JUMPDEST PUSH2 0x990 SWAP4 POP DUP5 SLOAD AND SWAP1 PUSH2 0x1829 JUMP JUMPDEST DUP1 RETURN JUMPDEST SWAP2 POP PUSH1 0x20 DUP4 RETURNDATASIZE DUP3 GT PUSH2 0x9C4 JUMPI JUMPDEST DUP2 PUSH2 0x9AD PUSH1 0x20 SWAP4 DUP4 PUSH2 0x1749 JUMP JUMPDEST DUP2 ADD SUB SLT PUSH2 0x9C0 JUMPI PUSH2 0x990 SWAP3 MLOAD SWAP2 PUSH2 0x982 JUMP JUMPDEST DUP4 DUP1 REVERT JUMPDEST RETURNDATASIZE SWAP2 POP PUSH2 0x9A0 JUMP JUMPDEST MLOAD RETURNDATASIZE DUP7 DUP3 RETURNDATACOPY RETURNDATASIZE SWAP1 REVERT JUMPDEST PUSH32 0x0 PUSH3 0x278D00 DUP2 ADD DUP1 SWAP2 GT PUSH2 0x25A JUMPI TIMESTAMP GT PUSH2 0x92B JUMPI SWAP1 PUSH1 0x20 PUSH1 0x84 SWAP3 MLOAD SWAP2 PUSH3 0x461BCD PUSH1 0xE5 SHL DUP4 MSTORE DUP3 ADD MSTORE PUSH1 0x28 PUSH1 0x24 DUP3 ADD MSTORE PUSH32 0x57616974203330206461797320706F73742D656E6420746F20636C656172206C PUSH1 0x44 DUP3 ADD MSTORE PUSH8 0x6566746F76657273 PUSH1 0xC0 SHL PUSH1 0x64 DUP3 ADD MSTORE REVERT JUMPDEST DUP3 MLOAD PUSH3 0x461BCD PUSH1 0xE5 SHL DUP2 MSTORE PUSH1 0x20 DUP2 DUP7 ADD MSTORE PUSH1 0x14 PUSH1 0x24 DUP3 ADD MSTORE PUSH20 0x50726573616C65207374696C6C20616374697665 PUSH1 0x60 SHL PUSH1 0x44 DUP3 ADD MSTORE PUSH1 0x64 SWAP1 REVERT JUMPDEST SWAP2 POP POP PUSH1 0x3 DUP6 SWAP2 EQ CODESIZE PUSH2 0x91C JUMP JUMPDEST PUSH4 0x4E487B71 PUSH1 0xE0 SHL DUP6 MSTORE PUSH1 0x21 DUP5 MSTORE PUSH1 0x24 DUP6 REVERT JUMPDEST POP SWAP1 CALLVALUE PUSH2 0x4EB JUMPI DUP2 PUSH1 0x3 NOT CALLDATASIZE ADD SLT PUSH2 0x4EB JUMPI PUSH1 0x20 SWAP1 PUSH1 0x2 SLOAD SWAP1 MLOAD SWAP1 DUP2 MSTORE RETURN JUMPDEST POP SWAP1 CALLVALUE PUSH2 0x4EB JUMPI DUP2 PUSH1 0x3 NOT CALLDATASIZE ADD SLT PUSH2 0x4EB JUMPI PUSH1 0x20 SWAP1 MLOAD PUSH1 0x3C DUP2 MSTORE RETURN JUMPDEST POP SWAP1 CALLVALUE PUSH2 0x4EB JUMPI DUP2 PUSH1 0x3 NOT CALLDATASIZE ADD SLT PUSH2 0x4EB JUMPI PUSH1 0x7 SLOAD SWAP1 MLOAD PUSH1 0x1 PUSH1 0x1 PUSH1 0xA0 SHL SUB SWAP1 SWAP2 AND DUP2 MSTORE PUSH1 0x20 SWAP1 RETURN JUMPDEST POP SWAP2 SWAP1 CALLVALUE PUSH2 0x5FD JUMPI DUP3 PUSH1 0x3 NOT CALLDATASIZE ADD SLT PUSH2 0x5FD JUMPI PUSH2 0xB37 PUSH2 0x1713 JUMP JUMPDEST PUSH2 0xB3F PUSH2 0x1628 JUMP JUMPDEST DUP3 DUP2 LT ISZERO PUSH2 0x8D0 JUMPI PUSH1 0x3 SUB PUSH2 0xBEE JUMPI CALLER DUP4 MSTORE DUP2 PUSH1 0x20 MSTORE DUP1 DUP4 KECCAK256 SLOAD SWAP2 DUP3 ISZERO PUSH2 0xBB4 JUMPI CALLER DUP5 MSTORE PUSH1 0x20 MSTORE DUP3 DUP2 DUP2 KECCAK256 SSTORE DUP3 DUP1 DUP1 DUP1 DUP6 CALLER DUP3 CALL ISZERO PUSH2 0xBA9 JUMPI MLOAD SWAP1 DUP2 MSTORE PUSH32 0x358FE4192934D3BF28AE181FEDA1F4BD08CA67F5E2FAD55582CCE5EB67304AE9 PUSH1 0x20 CALLER SWAP3 LOG2 PUSH1 0x1 DUP1 SSTORE DUP1 RETURN JUMPDEST MLOAD SWAP2 RETURNDATASIZE SWAP2 POP DUP3 RETURNDATACOPY RETURNDATASIZE SWAP1 REVERT JUMPDEST PUSH1 0x20 PUSH1 0x64 SWAP3 MLOAD SWAP2 PUSH3 0x461BCD PUSH1 0xE5 SHL DUP4 MSTORE DUP3 ADD MSTORE PUSH1 0x15 PUSH1 0x24 DUP3 ADD MSTORE PUSH21 0x139BC818DBDB9D1C9A589D5D1A5BDB88199BDD5B99 PUSH1 0x5A SHL PUSH1 0x44 DUP3 ADD MSTORE REVERT JUMPDEST SWAP1 PUSH1 0x20 PUSH1 0x64 SWAP3 MLOAD SWAP2 PUSH3 0x461BCD PUSH1 0xE5 SHL DUP4 MSTORE DUP3 ADD MSTORE PUSH1 0x12 PUSH1 0x24 DUP3 ADD MSTORE PUSH18 0x141C995CD85B19481B9BDD0819985A5B1959 PUSH1 0x72 SHL PUSH1 0x44 DUP3 ADD MSTORE REVERT JUMPDEST POP SWAP1 CALLVALUE PUSH2 0x4EB JUMPI DUP2 PUSH1 0x3 NOT CALLDATASIZE ADD SLT PUSH2 0x4EB JUMPI PUSH1 0x20 SWAP1 PUSH1 0xFF PUSH1 0x3 SLOAD AND SWAP1 MLOAD SWAP1 ISZERO ISZERO DUP2 MSTORE RETURN JUMPDEST POP SWAP1 CALLVALUE PUSH2 0x4EB JUMPI DUP2 PUSH1 0x3 NOT CALLDATASIZE ADD SLT PUSH2 0x4EB JUMPI PUSH1 0x20 SWAP1 MLOAD PUSH32 0x0 DUP2 MSTORE RETURN JUMPDEST POP SWAP1 CALLVALUE PUSH2 0x4EB JUMPI DUP2 PUSH1 0x3 NOT CALLDATASIZE ADD SLT PUSH2 0x4EB JUMPI PUSH1 0x20 SWAP1 MLOAD PUSH32 0x0 DUP2 MSTORE RETURN JUMPDEST POP SWAP1 CALLVALUE PUSH2 0x4EB JUMPI DUP2 PUSH1 0x3 NOT CALLDATASIZE ADD SLT PUSH2 0x4EB JUMPI PUSH1 0x20 SWAP1 MLOAD PUSH32 0x0 DUP2 MSTORE RETURN JUMPDEST POP SWAP2 CALLVALUE PUSH2 0x5FD JUMPI PUSH1 0x20 CALLDATASIZE PUSH1 0x3 NOT ADD SLT PUSH2 0x5FD JUMPI CALLDATALOAD PUSH1 0x1 PUSH1 0x1 PUSH1 0xA0 SHL SUB DUP2 AND SWAP1 DUP2 SWAP1 SUB PUSH2 0x5FD JUMPI DUP3 DUP3 SWAP2 PUSH1 0x20 SWAP5 MSTORE PUSH1 0x6 DUP5 MSTORE KECCAK256 SLOAD SWAP1 MLOAD SWAP1 DUP2 MSTORE RETURN JUMPDEST POP SWAP1 CALLVALUE PUSH2 0x4EB JUMPI DUP2 PUSH1 0x3 NOT CALLDATASIZE ADD SLT PUSH2 0x4EB JUMPI PUSH1 0x20 SWAP1 MLOAD PUSH32 0x0 DUP2 MSTORE RETURN JUMPDEST POP SWAP1 CALLVALUE PUSH2 0x4EB JUMPI DUP2 PUSH1 0x3 NOT CALLDATASIZE ADD SLT PUSH2 0x4EB JUMPI SWAP1 SLOAD SWAP1 MLOAD PUSH1 0x1 PUSH1 0x1 PUSH1 0xA0 SHL SUB SWAP1 SWAP2 AND DUP2 MSTORE PUSH1 0x20 SWAP1 RETURN JUMPDEST POP SWAP1 CALLVALUE PUSH2 0x4EB JUMPI DUP2 PUSH1 0x3 NOT CALLDATASIZE ADD SLT PUSH2 0x4EB JUMPI PUSH1 0x20 SWAP1 MLOAD PUSH32 0x0 DUP2 MSTORE RETURN JUMPDEST POP SWAP2 CALLVALUE PUSH2 0x5FD JUMPI PUSH1 0x20 CALLDATASIZE PUSH1 0x3 NOT ADD SLT PUSH2 0x5FD JUMPI CALLDATALOAD PUSH1 0x1 PUSH1 0x1 PUSH1 0xA0 SHL SUB DUP2 AND SWAP1 DUP2 SWAP1 SUB PUSH2 0x5FD JUMPI DUP2 DUP4 PUSH1 0xFF SWAP3 PUSH1 0x20 SWAP6 MSTORE PUSH1 0x5 DUP6 MSTORE KECCAK256 SLOAD AND SWAP1 MLOAD SWAP1 ISZERO ISZERO DUP2 MSTORE RETURN JUMPDEST POP CALLVALUE PUSH2 0xE6C JUMPI DUP1 PUSH1 0x3 NOT CALLDATASIZE ADD SLT PUSH2 0xE6C JUMPI PUSH2 0xE2B PUSH2 0x15FC JUMP JUMPDEST DUP1 SLOAD PUSH1 0x1 PUSH1 0x1 PUSH1 0xA0 SHL SUB NOT DUP2 AND DUP3 SSTORE DUP2 SWAP1 PUSH1 0x1 PUSH1 0x1 PUSH1 0xA0 SHL SUB AND PUSH32 0x8BE0079C531659141344CD1FD0A4F28419497F9722A3DAAFE3B4186F6B6457E0 DUP3 DUP1 LOG3 DUP1 RETURN JUMPDEST DUP1 REVERT JUMPDEST POP SWAP1 CALLVALUE PUSH2 0x4EB JUMPI DUP2 PUSH1 0x3 NOT CALLDATASIZE ADD SLT PUSH2 0x4EB JUMPI PUSH1 0x20 SWAP1 MLOAD PUSH1 0x1E DUP2 MSTORE RETURN JUMPDEST POP SWAP2 CALLVALUE PUSH2 0x5FD JUMPI DUP3 PUSH1 0x3 NOT CALLDATASIZE ADD SLT PUSH2 0x5FD JUMPI PUSH2 0xEA5 PUSH2 0x1713 JUMP JUMPDEST PUSH2 0xEAD PUSH2 0x1628 JUMP JUMPDEST DUP2 DUP2 LT ISZERO PUSH2 0x1361 JUMPI PUSH1 0x2 SUB PUSH2 0x1315 JUMPI PUSH1 0x3 SLOAD PUSH1 0xFF DUP2 AND PUSH2 0x12DE JUMPI PUSH1 0xFF NOT AND PUSH1 0x1 OR PUSH1 0x3 SSTORE PUSH1 0x2 SLOAD SWAP2 PUSH1 0x64 DUP1 PUSH2 0xF02 PUSH32 0x0 DUP7 PUSH2 0x1736 JUMP JUMPDEST DIV SWAP1 DUP5 DUP1 DIV PUSH1 0x1 EQ DUP6 ISZERO OR ISZERO PUSH2 0x12CB JUMPI PUSH2 0xF3C PUSH32 0x0 DUP4 PUSH2 0x1736 JUMP JUMPDEST DUP4 MLOAD PUSH4 0x95EA7B3 PUSH1 0xE0 SHL PUSH1 0x20 DUP1 DUP4 ADD DUP3 DUP2 MSTORE PUSH1 0x1 PUSH1 0x1 PUSH1 0xA0 SHL SUB PUSH32 0x0 DUP2 AND PUSH1 0x24 DUP1 DUP8 ADD DUP3 SWAP1 MSTORE PUSH1 0x44 DUP1 DUP9 ADD DUP10 SWAP1 MSTORE DUP8 MSTORE SWAP4 SWAP12 SWAP7 SWAP11 SWAP7 SWAP4 SWAP6 SWAP2 SWAP5 PUSH32 0x0 SWAP4 SWAP2 SWAP3 SWAP2 DUP15 SWAP1 DUP15 SWAP1 DUP3 SWAP1 PUSH2 0xFCA PUSH1 0x64 DUP8 PUSH2 0x1749 JUMP JUMPDEST DUP6 MLOAD SWAP1 DUP3 DUP10 GAS CALL SWAP1 RETURNDATASIZE DUP2 MLOAD SWAP2 DUP4 PUSH2 0x12AB JUMPI JUMPDEST POP POP POP ISZERO PUSH2 0x124E JUMPI JUMPDEST POP POP PUSH1 0x62 DUP11 MUL DUP11 DUP2 DIV PUSH1 0x62 EQ DUP12 ISZERO OR ISZERO PUSH2 0x123C JUMPI PUSH1 0x62 DUP10 MUL DUP10 DUP2 DIV PUSH1 0x62 EQ DUP11 ISZERO OR ISZERO PUSH2 0x122A JUMPI DUP6 DUP15 SLOAD AND SWAP1 PUSH2 0x258 TIMESTAMP ADD SWAP3 DUP4 TIMESTAMP GT PUSH2 0x1217 JUMPI DUP13 MLOAD PUSH4 0xF305D719 PUSH1 0xE0 SHL DUP2 MSTORE SWAP6 DUP9 AND DUP7 DUP12 ADD MSTORE DUP6 DUP10 ADD DUP15 SWAP1 MSTORE DUP11 SWAP1 DIV PUSH1 0x44 DUP7 ADD MSTORE DUP10 SWAP1 DIV DUP5 DUP11 ADD MSTORE PUSH1 0x84 DUP5 ADD MSTORE PUSH1 0xA4 DUP4 ADD MSTORE DUP12 SWAP3 SWAP2 SWAP1 DUP9 SWAP1 DUP3 SWAP1 DUP2 GAS SWAP4 PUSH1 0xC4 SWAP3 PUSH1 0x60 SWAP6 CALL DUP1 ISZERO PUSH2 0x120D JUMPI PUSH2 0x11E2 JUMPI JUMPDEST POP DUP6 DUP4 PUSH1 0x8 SLOAD AND SWAP2 DUP3 PUSH2 0x1181 JUMPI JUMPDEST POP POP POP SWAP1 SELFBALANCE SWAP1 DUP1 PUSH1 0x7 SLOAD AND ISZERO ISZERO PUSH1 0x0 EQ PUSH2 0x1121 JUMPI DUP3 DUP1 SWAP3 DUP2 SWAP3 PUSH1 0x7 SLOAD AND GAS CALL PUSH2 0x10A1 PUSH2 0x1781 JUMP JUMPDEST POP ISZERO PUSH2 0x10E9 JUMPI POP POP POP SWAP2 PUSH32 0xD4294F2E03DFA3F368C60AE6950D6E90C37101953B6AA279269459A9517F106E SWAP4 SWAP2 PUSH1 0x60 SWAP4 JUMPDEST PUSH1 0x2 SLOAD SWAP4 DUP3 MLOAD SWAP5 DUP6 MSTORE DUP5 ADD MSTORE DUP3 ADD MSTORE LOG1 PUSH1 0x1 DUP1 SSTORE DUP1 RETURN JUMPDEST DUP5 MLOAD PUSH3 0x461BCD PUSH1 0xE5 SHL DUP2 MSTORE SWAP2 DUP3 ADD DUP8 SWAP1 MSTORE PUSH1 0x16 SWAP1 DUP3 ADD MSTORE PUSH22 0x115CD8DC9BDDC81A185B991BDD995C8819985A5B1959 PUSH1 0x52 SHL PUSH1 0x44 DUP3 ADD MSTORE REVERT JUMPDEST DUP3 DUP1 SWAP7 POP DUP1 SWAP6 POP DUP1 SWAP5 POP SWAP10 SWAP9 SWAP8 SWAP10 SLOAD AND DUP3 DUP3 ISZERO PUSH2 0x1178 JUMPI JUMPDEST CALL ISZERO PUSH2 0x116B JUMPI SWAP1 PUSH32 0xD4294F2E03DFA3F368C60AE6950D6E90C37101953B6AA279269459A9517F106E SWAP4 PUSH1 0x60 SWAP4 SWAP3 PUSH2 0x10D2 JUMP JUMPDEST POP POP POP MLOAD SWAP1 RETURNDATASIZE SWAP1 DUP3 RETURNDATACOPY RETURNDATASIZE SWAP1 REVERT JUMPDEST POP PUSH2 0x8FC PUSH2 0x1139 JUMP JUMPDEST DUP4 SWAP3 DUP4 SWAP3 DUP4 SWAP3 DIV SWAP1 GAS CALL PUSH2 0x1193 PUSH2 0x1781 JUMP JUMPDEST POP ISZERO PUSH2 0x11A2 JUMPI DUP9 CODESIZE DUP6 DUP2 PUSH2 0x107A JUMP JUMPDEST POP DUP5 MLOAD PUSH3 0x461BCD PUSH1 0xE5 SHL DUP2 MSTORE SWAP2 DUP3 ADD DUP8 SWAP1 MSTORE PUSH1 0x1D SWAP1 DUP3 ADD MSTORE PUSH32 0x496E737572616E636520746178207472616E73666572206661696C6564000000 PUSH1 0x44 DUP3 ADD MSTORE REVERT JUMPDEST PUSH1 0x60 SWAP1 DUP2 RETURNDATASIZE DUP2 GT PUSH2 0x1206 JUMPI JUMPDEST PUSH2 0x11F8 DUP2 DUP4 PUSH2 0x1749 JUMP JUMPDEST DUP2 ADD SUB SLT PUSH2 0x4EB JUMPI CODESIZE PUSH2 0x106C JUMP JUMPDEST POP RETURNDATASIZE PUSH2 0x11EE JUMP JUMPDEST DUP10 MLOAD RETURNDATASIZE DUP6 DUP3 RETURNDATACOPY RETURNDATASIZE SWAP1 REVERT JUMPDEST POP PUSH4 0x4E487B71 PUSH1 0xE0 SHL DUP16 MSTORE PUSH1 0x11 DUP10 MSTORE DUP8 DUP16 REVERT JUMPDEST PUSH4 0x4E487B71 PUSH1 0xE0 SHL DUP15 MSTORE PUSH1 0x11 DUP9 MSTORE DUP7 DUP15 REVERT JUMPDEST PUSH4 0x4E487B71 PUSH1 0xE0 SHL DUP14 MSTORE PUSH1 0x11 DUP8 MSTORE DUP6 DUP14 REVERT JUMPDEST DUP11 MLOAD SWAP1 DUP14 DUP3 ADD MSTORE DUP3 DUP8 DUP3 ADD MSTORE DUP14 PUSH1 0x44 DUP3 ADD MSTORE PUSH1 0x44 DUP2 MSTORE PUSH1 0x80 DUP2 ADD DUP2 DUP2 LT PUSH8 0xFFFFFFFFFFFFFFFF DUP3 GT OR PUSH2 0x1299 JUMPI PUSH2 0x1292 SWAP3 SWAP2 PUSH2 0x128C SWAP2 DUP14 MSTORE DUP6 PUSH2 0x17C1 JUMP JUMPDEST DUP4 PUSH2 0x17C1 JUMP JUMPDEST CODESIZE DUP1 PUSH2 0xFE5 JUMP JUMPDEST PUSH4 0x4E487B71 PUSH1 0xE0 SHL DUP16 MSTORE PUSH1 0x41 DUP10 MSTORE DUP8 DUP16 REVERT JUMPDEST POP SWAP1 SWAP2 POP PUSH2 0x12C3 JUMPI POP DUP6 DUP5 AND EXTCODESIZE ISZERO ISZERO JUMPDEST CODESIZE DUP16 DUP1 PUSH2 0xFDC JUMP JUMPDEST PUSH1 0x1 EQ PUSH2 0x12BB JUMP JUMPDEST PUSH4 0x4E487B71 PUSH1 0xE0 SHL DUP7 MSTORE PUSH1 0x11 DUP5 MSTORE PUSH1 0x24 DUP7 REVERT JUMPDEST POP PUSH1 0x20 PUSH1 0x64 SWAP3 MLOAD SWAP2 PUSH3 0x461BCD PUSH1 0xE5 SHL DUP4 MSTORE DUP3 ADD MSTORE PUSH1 0x11 PUSH1 0x24 DUP3 ADD MSTORE PUSH17 0x105B1C9958591E48199A5B985B1A5E9959 PUSH1 0x7A SHL PUSH1 0x44 DUP3 ADD MSTORE REVERT JUMPDEST PUSH1 0x20 PUSH1 0x84 SWAP3 MLOAD SWAP2 PUSH3 0x461BCD PUSH1 0xE5 SHL DUP4 MSTORE DUP3 ADD MSTORE PUSH1 0x21 PUSH1 0x24 DUP3 ADD MSTORE PUSH32 0x536F667420636170206E6F742072656163686564206F72206E6F7420656E6465 PUSH1 0x44 DUP3 ADD MSTORE PUSH1 0x19 PUSH1 0xFA SHL PUSH1 0x64 DUP3 ADD MSTORE REVERT JUMPDEST PUSH4 0x4E487B71 PUSH1 0xE0 SHL DUP5 MSTORE PUSH1 0x21 DUP3 MSTORE PUSH1 0x24 DUP5 REVERT JUMPDEST POP SWAP2 CALLVALUE PUSH2 0x5FD JUMPI DUP3 PUSH1 0x3 NOT CALLDATASIZE ADD SLT PUSH2 0x5FD JUMPI PUSH2 0x138E PUSH2 0x1713 JUMP JUMPDEST PUSH1 0xFF PUSH1 0x3 SLOAD AND ISZERO PUSH2 0x14D3 JUMPI CALLER DUP4 MSTORE PUSH1 0x20 SWAP1 DUP1 DUP3 MSTORE DUP3 DUP5 KECCAK256 SLOAD ISZERO PUSH2 0x1492 JUMPI CALLER DUP5 MSTORE PUSH1 0x5 DUP3 MSTORE PUSH1 0xFF DUP4 DUP6 KECCAK256 SLOAD AND PUSH2 0x145F JUMPI SWAP1 PUSH32 0x896E034966EAAF1ADC54ACC0F257056FEBBD300C9E47182CF761982CF1F5E430 SWAP2 CALLER DUP6 MSTORE PUSH1 0x5 DUP3 MSTORE DUP4 DUP6 KECCAK256 PUSH1 0x1 PUSH1 0xFF NOT DUP3 SLOAD AND OR SWAP1 SSTORE DUP2 MSTORE PUSH2 0x1425 DUP4 DUP6 KECCAK256 SLOAD PUSH32 0x0 SWAP1 PUSH2 0x1736 JUMP JUMPDEST SWAP3 PUSH2 0x1451 DUP5 CALLER PUSH32 0x0 PUSH2 0x1829 JUMP JUMPDEST MLOAD SWAP3 DUP4 MSTORE CALLER SWAP3 LOG2 PUSH1 0x1 DUP1 SSTORE DUP1 RETURN JUMPDEST SWAP2 MLOAD PUSH3 0x461BCD PUSH1 0xE5 SHL DUP2 MSTORE SWAP2 DUP3 ADD MSTORE PUSH1 0xF PUSH1 0x24 DUP3 ADD MSTORE PUSH15 0x105B1C9958591E4818DB185A5B5959 PUSH1 0x8A SHL PUSH1 0x44 DUP3 ADD MSTORE PUSH1 0x64 SWAP1 REVERT JUMPDEST SWAP2 MLOAD PUSH3 0x461BCD PUSH1 0xE5 SHL DUP2 MSTORE SWAP2 DUP3 ADD MSTORE PUSH1 0x18 PUSH1 0x24 DUP3 ADD MSTORE PUSH32 0x4E6F20636F6E747269627574696F6E20746F20636C61696D0000000000000000 PUSH1 0x44 DUP3 ADD MSTORE PUSH1 0x64 SWAP1 REVERT JUMPDEST PUSH1 0x20 PUSH1 0x64 SWAP3 MLOAD SWAP2 PUSH3 0x461BCD PUSH1 0xE5 SHL DUP4 MSTORE DUP3 ADD MSTORE PUSH1 0x15 PUSH1 0x24 DUP3 ADD MSTORE PUSH21 0x141C995CD85B19481B9BDD08199A5B985B1A5E9959 PUSH1 0x5A SHL PUSH1 0x44 DUP3 ADD MSTORE REVERT JUMPDEST POP SWAP1 CALLVALUE PUSH2 0x4EB JUMPI DUP2 PUSH1 0x3 NOT CALLDATASIZE ADD SLT PUSH2 0x4EB JUMPI PUSH1 0x20 SWAP1 MLOAD PUSH32 0x0 DUP2 MSTORE RETURN JUMPDEST POP SWAP2 CALLVALUE PUSH2 0x5FD JUMPI PUSH1 0x20 CALLDATASIZE PUSH1 0x3 NOT ADD SLT PUSH2 0x5FD JUMPI DUP1 CALLDATALOAD PUSH1 0x1 PUSH1 0x1 PUSH1 0xA0 SHL SUB DUP2 AND SWAP1 DUP2 SWAP1 SUB PUSH2 0x9C0 JUMPI SWAP3 DUP3 SWAP2 PUSH1 0x20 SWAP5 DUP3 MSTORE DUP5 MSTORE KECCAK256 SLOAD SWAP1 MLOAD SWAP1 DUP2 MSTORE RETURN JUMPDEST POP SWAP1 CALLVALUE PUSH2 0x4EB JUMPI DUP2 PUSH1 0x3 NOT CALLDATASIZE ADD SLT PUSH2 0x4EB JUMPI PUSH1 0x20 SWAP1 MLOAD PUSH32 0x0 DUP2 MSTORE RETURN JUMPDEST SWAP3 POP POP CALLVALUE PUSH2 0xE6C JUMPI DUP1 PUSH1 0x3 NOT CALLDATASIZE ADD SLT PUSH2 0xE6C JUMPI PUSH2 0x15D8 PUSH2 0x1628 JUMP JUMPDEST SWAP1 DUP4 DUP3 LT ISZERO PUSH2 0x15E9 JUMPI PUSH1 0x20 DUP4 DUP4 DUP2 MSTORE RETURN JUMPDEST PUSH4 0x4E487B71 PUSH1 0xE0 SHL DUP2 MSTORE PUSH1 0x21 DUP5 MSTORE PUSH1 0x24 SWAP1 REVERT JUMPDEST PUSH1 0x0 SLOAD PUSH1 0x1 PUSH1 0x1 PUSH1 0xA0 SHL SUB AND CALLER SUB PUSH2 0x1610 JUMPI JUMP JUMPDEST PUSH1 0x40 MLOAD PUSH4 0x118CDAA7 PUSH1 0xE0 SHL DUP2 MSTORE CALLER PUSH1 0x4 DUP3 ADD MSTORE PUSH1 0x24 SWAP1 REVERT JUMPDEST PUSH1 0xFF PUSH1 0x3 SLOAD AND PUSH2 0x16B6 JUMPI PUSH32 0x0 TIMESTAMP LT PUSH2 0x16EB JUMPI PUSH32 0x0 TIMESTAMP GT ISZERO DUP1 PUSH2 0x16C0 JUMPI JUMPDEST PUSH2 0x16BB JUMPI PUSH1 0x2 SLOAD PUSH32 0x0 GT ISZERO PUSH2 0x16B6 JUMPI PUSH1 0x3 SWAP1 JUMP JUMPDEST PUSH1 0x2 SWAP1 JUMP JUMPDEST PUSH1 0x1 SWAP1 JUMP JUMPDEST POP PUSH1 0x2 SLOAD PUSH32 0x0 GT PUSH2 0x1683 JUMP JUMPDEST PUSH1 0x0 SWAP1 JUMP JUMPDEST SWAP2 SWAP1 DUP3 ADD DUP1 SWAP3 GT PUSH2 0x16FD JUMPI JUMP JUMPDEST PUSH4 0x4E487B71 PUSH1 0xE0 SHL PUSH1 0x0 MSTORE PUSH1 0x11 PUSH1 0x4 MSTORE PUSH1 0x24 PUSH1 0x0 REVERT JUMPDEST PUSH1 0x2 PUSH1 0x1 SLOAD EQ PUSH2 0x1724 JUMPI PUSH1 0x2 PUSH1 0x1 SSTORE JUMP JUMPDEST PUSH1 0x40 MLOAD PUSH4 0x3EE5AEB5 PUSH1 0xE0 SHL DUP2 MSTORE PUSH1 0x4 SWAP1 REVERT JUMPDEST DUP2 DUP2 MUL SWAP3 SWAP2 DUP2 ISZERO SWAP2 DUP5 DIV EQ OR ISZERO PUSH2 0x16FD JUMPI JUMP JUMPDEST SWAP1 PUSH1 0x1F DUP1 NOT SWAP2 ADD AND DUP2 ADD SWAP1 DUP2 LT PUSH8 0xFFFFFFFFFFFFFFFF DUP3 GT OR PUSH2 0x176B JUMPI PUSH1 0x40 MSTORE JUMP JUMPDEST PUSH4 0x4E487B71 PUSH1 0xE0 SHL PUSH1 0x0 MSTORE PUSH1 0x41 PUSH1 0x4 MSTORE PUSH1 0x24 PUSH1 0x0 REVERT JUMPDEST RETURNDATASIZE ISZERO PUSH2 0x17BC JUMPI RETURNDATASIZE SWAP1 PUSH8 0xFFFFFFFFFFFFFFFF DUP3 GT PUSH2 0x176B JUMPI PUSH1 0x40 MLOAD SWAP2 PUSH2 0x17B0 PUSH1 0x1F DUP3 ADD PUSH1 0x1F NOT AND PUSH1 0x20 ADD DUP5 PUSH2 0x1749 JUMP JUMPDEST DUP3 MSTORE RETURNDATASIZE PUSH1 0x0 PUSH1 0x20 DUP5 ADD RETURNDATACOPY JUMP JUMPDEST PUSH1 0x60 SWAP1 JUMP JUMPDEST SWAP1 PUSH1 0x0 PUSH1 0x20 SWAP2 DUP3 DUP2 MLOAD SWAP2 ADD DUP3 DUP6 GAS CALL ISZERO PUSH2 0x181D JUMPI PUSH1 0x0 MLOAD RETURNDATASIZE PUSH2 0x1814 JUMPI POP PUSH1 0x1 PUSH1 0x1 PUSH1 0xA0 SHL SUB DUP2 AND EXTCODESIZE ISZERO JUMPDEST PUSH2 0x17F2 JUMPI POP JUMP JUMPDEST PUSH1 0x40 MLOAD PUSH4 0x5274AFE7 PUSH1 0xE0 SHL DUP2 MSTORE PUSH1 0x1 PUSH1 0x1 PUSH1 0xA0 SHL SUB SWAP1 SWAP2 AND PUSH1 0x4 DUP3 ADD MSTORE PUSH1 0x24 SWAP1 REVERT JUMPDEST PUSH1 0x1 EQ ISZERO PUSH2 0x17EB JUMP JUMPDEST PUSH1 0x40 MLOAD RETURNDATASIZE PUSH1 0x0 DUP3 RETURNDATACOPY RETURNDATASIZE SWAP1 REVERT JUMPDEST PUSH1 0x40 MLOAD PUSH4 0xA9059CBB PUSH1 0xE0 SHL PUSH1 0x20 DUP3 ADD MSTORE PUSH1 0x1 PUSH1 0x1 PUSH1 0xA0 SHL SUB SWAP3 SWAP1 SWAP3 AND PUSH1 0x24 DUP4 ADD MSTORE PUSH1 0x44 DUP1 DUP4 ADD SWAP4 SWAP1 SWAP4 MSTORE SWAP2 DUP2 MSTORE PUSH2 0x186A SWAP2 PUSH2 0x1865 PUSH1 0x64 DUP4 PUSH2 0x1749 JUMP JUMPDEST PUSH2 0x17C1 JUMP JUMPDEST JUMP INVALID 0x4D ISZERO 0x4D 0x4A 0xAE 0x21 PUSH12 0xED6D0926DB77C00DF2B57C6B JUMPDEST LOG4 0xEE 0xE0 JUMPI PUSH22 0xDE20FACEDE3A7BA2646970667358221220953434D29B 0xB0 PUSH16 0xE6E8F719FA2491D13D11708A37BD27DB GASLIMIT PREVRANDAO PUSH0 0xC 0xD6 0x29 PUSH1 0x37 JUMP PUSH5 0x736F6C6343 STOP ADDMOD EQ STOP CALLER "},"methodIdentifiers":{"ANTI_WHALE_PERIOD()":"e6d4c0ff","COOLDOWN_PERIOD()":"6e99d52f","MIN_LIQUIDITY_PERCENT()":"c342381e","claimRefund()":"b5545a3c","claimTokens()":"48c54b9d","contribute()":"d7bb99ba","contributions(address)":"42e94c90","endTime()":"3197cbb6","escrowManager()":"c12255c4","finalize()":"4bb278f3","finalized()":"b3f05b97","getState()":"1865c57d","hardCap()":"fb86a404","hasClaimed(address)":"73b2e80e","insuranceVault()":"e6fa0ef7","lastContributionTime(address)":"a03039c2","liquidityPercent()":"b0683755","listingRate()":"a20ecbbb","maxSpendPerBuyer()":"a3d35dad","owner()":"8da5cb5b","presaleRate()":"42f39381","renounceOwnership()":"715018a6","router()":"f887ea40","softCap()":"906a26e0","startTime()":"78e97925","token()":"fc0c546a","totalRaised()":"c5c4744c","transferOwnership(address)":"f2fde38b","withdrawUnsoldTokens()":"c8bdbfb6"}}}}}