{"contracts/NobleMilestoneEscrow.sol":{"NobleMilestoneEscrow":{"abi":[{"inputs":[{"internalType":"address","name":"_projectAddress","type":"address"},{"internalType":"address","name":"_initialOwner","type":"address"}],"stateMutability":"nonpayable","type":"constructor"},{"inputs":[{"internalType":"address","name":"owner","type":"address"}],"name":"OwnableInvalidOwner","type":"error"},{"inputs":[{"internalType":"address","name":"account","type":"address"}],"name":"OwnableUnauthorizedAccount","type":"error"},{"inputs":[],"name":"ReentrancyGuardReentrantCall","type":"error"},{"anonymous":false,"inputs":[],"name":"EmergencyRefundEnabled","type":"event"},{"anonymous":false,"inputs":[{"indexed":false,"internalType":"uint256","name":"milestoneId","type":"uint256"},{"indexed":false,"internalType":"string","name":"description","type":"string"},{"indexed":false,"internalType":"uint256","name":"percentage","type":"uint256"}],"name":"MilestoneAdded","type":"event"},{"anonymous":false,"inputs":[{"indexed":false,"internalType":"uint256","name":"milestoneId","type":"uint256"},{"indexed":false,"internalType":"uint256","name":"amount","type":"uint256"}],"name":"MilestoneReleased","type":"event"},{"anonymous":false,"inputs":[{"indexed":true,"internalType":"address","name":"previousOwner","type":"address"},{"indexed":true,"internalType":"address","name":"newOwner","type":"address"}],"name":"OwnershipTransferred","type":"event"},{"anonymous":false,"inputs":[{"indexed":false,"internalType":"string","name":"reason","type":"string"}],"name":"ProjectKilled","type":"event"},{"anonymous":false,"inputs":[{"indexed":false,"internalType":"address","name":"user","type":"address"},{"indexed":false,"internalType":"uint256","name":"amount","type":"uint256"}],"name":"RefundClaimed","type":"event"},{"anonymous":false,"inputs":[{"indexed":false,"internalType":"address","name":"voter","type":"address"},{"indexed":false,"internalType":"uint256","name":"milestoneId","type":"uint256"},{"indexed":false,"internalType":"bool","name":"approved","type":"bool"},{"indexed":false,"internalType":"uint256","name":"weight","type":"uint256"}],"name":"VoteCast","type":"event"},{"inputs":[],"name":"INACTIVITY_THRESHOLD","outputs":[{"internalType":"uint256","name":"","type":"uint256"}],"stateMutability":"view","type":"function"},{"inputs":[{"internalType":"address","name":"_contributor","type":"address"},{"internalType":"uint256","name":"_amount","type":"uint256"}],"name":"addContribution","outputs":[],"stateMutability":"nonpayable","type":"function"},{"inputs":[{"internalType":"string[]","name":"_descriptions","type":"string[]"},{"internalType":"uint256[]","name":"_percentages","type":"uint256[]"},{"internalType":"uint256[]","name":"_deadlines","type":"uint256[]"}],"name":"addMilestones","outputs":[],"stateMutability":"nonpayable","type":"function"},{"inputs":[],"name":"claimEmergencyRefund","outputs":[],"stateMutability":"nonpayable","type":"function"},{"inputs":[{"internalType":"address","name":"","type":"address"}],"name":"contributions","outputs":[{"internalType":"uint256","name":"","type":"uint256"}],"stateMutability":"view","type":"function"},{"inputs":[],"name":"emergencyRefundEnabled","outputs":[{"internalType":"bool","name":"","type":"bool"}],"stateMutability":"view","type":"function"},{"inputs":[],"name":"enableEmergencyRefund","outputs":[],"stateMutability":"nonpayable","type":"function"},{"inputs":[],"name":"getMilestonesCount","outputs":[{"internalType":"uint256","name":"","type":"uint256"}],"stateMutability":"view","type":"function"},{"inputs":[{"internalType":"uint256","name":"","type":"uint256"},{"internalType":"address","name":"","type":"address"}],"name":"hasVoted","outputs":[{"internalType":"bool","name":"","type":"bool"}],"stateMutability":"view","type":"function"},{"inputs":[],"name":"lastMilestoneClaimTimestamp","outputs":[{"internalType":"uint256","name":"","type":"uint256"}],"stateMutability":"view","type":"function"},{"inputs":[{"internalType":"uint256","name":"","type":"uint256"}],"name":"milestones","outputs":[{"internalType":"string","name":"description","type":"string"},{"internalType":"uint256","name":"percentage","type":"uint256"},{"internalType":"bool","name":"isReleased","type":"bool"},{"internalType":"uint256","name":"approvalVotes","type":"uint256"},{"internalType":"uint256","name":"rejectionVotes","type":"uint256"},{"internalType":"uint256","name":"deadline","type":"uint256"},{"internalType":"string","name":"proofOfWork","type":"string"}],"stateMutability":"view","type":"function"},{"inputs":[],"name":"owner","outputs":[{"internalType":"address","name":"","type":"address"}],"stateMutability":"view","type":"function"},{"inputs":[],"name":"projectAddress","outputs":[{"internalType":"address","name":"","type":"address"}],"stateMutability":"view","type":"function"},{"inputs":[],"name":"projectKilled","outputs":[{"internalType":"bool","name":"","type":"bool"}],"stateMutability":"view","type":"function"},{"inputs":[{"internalType":"uint256","name":"_milestoneId","type":"uint256"}],"name":"releaseMilestone","outputs":[],"stateMutability":"nonpayable","type":"function"},{"inputs":[],"name":"renounceOwnership","outputs":[],"stateMutability":"nonpayable","type":"function"},{"inputs":[{"internalType":"uint256","name":"_milestoneId","type":"uint256"},{"internalType":"string","name":"_proof","type":"string"}],"name":"submitProofOfWork","outputs":[],"stateMutability":"nonpayable","type":"function"},{"inputs":[],"name":"totalFundsRaised","outputs":[{"internalType":"uint256","name":"","type":"uint256"}],"stateMutability":"view","type":"function"},{"inputs":[],"name":"totalReleasedFunds","outputs":[{"internalType":"uint256","name":"","type":"uint256"}],"stateMutability":"view","type":"function"},{"inputs":[],"name":"totalVotingPower","outputs":[{"internalType":"uint256","name":"","type":"uint256"}],"stateMutability":"view","type":"function"},{"inputs":[{"internalType":"address","name":"newOwner","type":"address"}],"name":"transferOwnership","outputs":[],"stateMutability":"nonpayable","type":"function"},{"inputs":[{"internalType":"uint256","name":"_milestoneId","type":"uint256"},{"internalType":"bool","name":"_approve","type":"bool"}],"name":"voteForRelease","outputs":[],"stateMutability":"nonpayable","type":"function"},{"stateMutability":"payable","type":"receive"}],"evm":{"bytecode":{"linkReferences":{},"object":"60a0346100eb57601f61170f38819003918201601f19168301916001600160401b038311848410176100f05780849260409485528339810103126100eb5780610049602092610106565b6001600160a01b0392909183916100609101610106565b1680156100d257600080546001600160a01b03198116831782556040519416907f8be0079c531659141344cd1fd0a4f28419497f9722a3daafe3b4186f6b6457e09080a360018055608052426004556115f4908161011b8239608051818181610b4201528181610d0d01526114580152f35b604051631e4fbdf760e01b815260006004820152602490fd5b600080fd5b634e487b7160e01b600052604160045260246000fd5b51906001600160a01b03821682036100eb5756fe608080604052600436101561001d575b50361561001b57600080fd5b005b60003560e01c9081630b49351c14610fca57508063105fd61f14610e53578063125eec3e14610cc157806315aaec0b14610c2157806328f5678e14610bfb578063317debf514610bd757806339ecacac14610b715780633cf96af114610b2c578063427c0c7f14610b0e57806342e94c9014610ad45780634385963214610a82578063671b379314610a645780636c15576914610a41578063715018a6146109e857806374845ab1146109ca5780638da5cb5b146109a1578063aa4103e214610983578063c819ebd8146104d3578063d92a9a3e146104b5578063e89e4ed614610410578063f2fde38b146103825763f48e81e81461011c573861000f565b3461037d57604036600319011261037d5760043560243580151580820361037d5761014a60065484106112ba565b61016460ff600261015a8661102c565b50015416156112fa565b336000526020916007835260406000205415610346578360005260088352604060002033600052835260ff60406000205416610311577f877856338e13f63d0c36822ff0ef736b80934cd90574a3a5bc9262c39d217c46916080916101d160ff60055460081c1615611339565b3360005260078552604060002054906000146102f25760036101f28761102c565b50016101ff8282546111eb565b90555b856000526008855260406000203360005285526040600020600160ff1982541617905560405191338352868684015260408301526060820152a160046102478361102c565b5001549060095460011c809211610286575b5060036102658361102c565b5001541161026f57005b6102809061027b61159b565b6113bc565b60018055005b60607f34b5206e8c16cea8f036f3109b119ded73ade9f07bdaef7d7f4f81cfcd332ddf9161010161ffff196005541617600555601e604051918083528201527f4d696c6573746f6e652072656a6563746564206279206d616a6f7269747900006040820152a138610259565b60046102fd8761102c565b500161030a8282546111eb565b9055610202565b60405162461bcd60e51b815260048101849052600d60248201526c105b1c9958591e481d9bdd1959609a1b6044820152606490fd5b60405162461bcd60e51b815260048101849052600f60248201526e2737903b37ba34b733903837bbb2b960891b6044820152606490fd5b600080fd5b3461037d57602036600319011261037d5761039b610fe5565b6103a36111bf565b6001600160a01b039081169081156103f757600054826bffffffffffffffffffffffff60a01b821617600055167f8be0079c531659141344cd1fd0a4f28419497f9722a3daafe3b4186f6b6457e0600080a3005b604051631e4fbdf760e01b815260006004820152602490fd5b3461037d57602036600319011261037d5760043560065481101561037d5761043a6104889161102c565b506104b1610447826110d9565b9160018101549060ff6002820154169060038101546004820154906104736006600585015494016110d9565b9360405198899860e08a5260e08a019061117f565b956020890152151560408801526060870152608086015260a085015283820360c085015261117f565b0390f35b3461037d57600036600319011261037d576020600354604051908152f35b3461037d57606036600319011261037d5760043567ffffffffffffffff811161037d57610504903690600401610ffb565b60243567ffffffffffffffff811161037d57610524903690600401610ffb565b919060443567ffffffffffffffff811161037d57848361054986933690600401610ffb565b9490926105546111bf565b6000946000965b8488106105b1576064871161056c57005b60405162461bcd60e51b815260206004820152601c60248201527f546f74616c2070657263656e74616765206578636565647320313030000000006044820152606490fd5b9091929394956105c28887866111f8565b906105ce8a868961123a565b356105da8b868c61123a565b3591604051938460e081011067ffffffffffffffff60e0870111176108df5760e085016040526106098161124a565b9161061760405193846110b7565b818352368282011161037d578160009260209283860137830101528352602083015260006040830152600060608301526000608083015260a082015260405180602081011067ffffffffffffffff6020830111176108df57602081016040526000815260c0820152600654680100000000000000008110156108df578060016106a3920160065561102c565b91909161096d57805180519067ffffffffffffffff82116108df576106d2826106cc865461107d565b86611266565b602090601f83116001146109005760c0939291600091836108f5575b50508160011b916000199060031b1c19161783555b60208101516001840155600283016040820151151560ff80198354169116179055606081015160038401556080810151600484015560a0810151600584015501519081519067ffffffffffffffff82116108df576006019161076f82610769855461107d565b85611266565b602090601f8311600114610872576107b49493929160009183610867575b50508160011b916000199060031b1c19161790555b6107ad89858861123a565b35906111eb565b9660065480600019810111610851577fbf293db00f4de65b181a066ecc2f8bb81fb7174b517fd8085700e259ad00db1b9060806107f2848a896111f8565b61080086898c96949661123a565b3581604051958694600019018552606060208601528160608601528585013760008383018501526040830152601f01601f19168101030190a16000198114610851576001019695949392919061055b565b634e487b7160e01b600052601160045260246000fd5b015190508c8061078d565b90601f198316918460005260206000209260005b8181106108c757509160019391856107b498979694106108ae575b505050811b0190556107a2565b015160001960f88460031b161c191690558c80806108a1565b92936020600181928786015181550195019301610886565b634e487b7160e01b600052604160045260246000fd5b015190508d806106ee565b908460005260206000209160005b601f1985168110610955575091839160019360c09695601f1981161061093c575b505050811b018355610703565b015160001960f88460031b161c191690558d808061092f565b9192602060018192868501518155019401920161090e565b634e487b7160e01b600052600060045260246000fd5b3461037d57600036600319011261037d57602060405162ed4e008152f35b3461037d57600036600319011261037d576000546040516001600160a01b039091168152602090f35b3461037d57600036600319011261037d576020600454604051908152f35b3461037d57600036600319011261037d57610a016111bf565b600080546001600160a01b0319811682556001600160a01b03167f8be0079c531659141344cd1fd0a4f28419497f9722a3daafe3b4186f6b6457e08280a3005b3461037d57600036600319011261037d57602060ff600554166040519015158152f35b3461037d57600036600319011261037d576020600954604051908152f35b3461037d57604036600319011261037d576024356001600160a01b0381169081900361037d576004356000526008602052604060002090600052602052602060ff604060002054166040519015158152f35b3461037d57602036600319011261037d576001600160a01b03610af5610fe5565b1660005260076020526020604060002054604051908152f35b3461037d57600036600319011261037d576020600254604051908152f35b3461037d57600036600319011261037d576040517f00000000000000000000000000000000000000000000000000000000000000006001600160a01b03168152602090f35b3461037d57604036600319011261037d57610bd2610b8d610fe5565b60243590610b996111bf565b60018060a01b031660005260076020526040600020610bb98282546111eb565b9055610bc7816002546111eb565b6002556009546111eb565b600955005b3461037d57602036600319011261037d57610bf061159b565b6102806004356113bc565b3461037d57600036600319011261037d57602060ff60055460081c166040519015158152f35b3461037d57600036600319011261037d5760045462ed4e00810180911161085157421115610c7d57600160ff1960055416176005557f722906c49f03ecfd68886afc5c52f1de3511535a86b31fb160b0379d4f346845600080a1005b606460405162461bcd60e51b815260206004820152602060248201527f496e6163746976697479207468726573686f6c64206e6f7420726561636865646044820152fd5b3461037d57604036600319011261037d576024803567ffffffffffffffff60043581831161037d573660238401121561037d57826004013591821161037d573684838501011161037d577f00000000000000000000000000000000000000000000000000000000000000006001600160a01b03163303610e0f57610d52600691610d4d835482106112ba565b61102c565b500191610d6382610769855461107d565b600090601f8311600114610da4579082939491600093610d97575b505050600019600383901b1c191660019190911b179055005b0101359050838080610d7e565b601f198316948460005260209283600020936000905b888210610df5575050846001969710610dd9575b50505050811b019055005b60001960f88660031b161c199201013516905583808080610dce565b806001849786839596890101358155019601920190610dba565b60405162461bcd60e51b815260206004820152601d818601527f4f6e6c792070726f6a6563742063616e207375626d69742070726f6f660000006044820152606490fd5b3461037d57600036600319011261037d57610e6c61159b565b60ff6005541615610f90573360005260076020526040600020548015610f5857610e968147611379565b600954908115610f42578190049181039081116108515760095533600052600760205260006040812055600080808084335af1610ed161138c565b5015610f0d5760407f358fe4192934d3bf28ae181feda1f4bd08ca67f5e2fad55582cce5eb67304ae9918151903382526020820152a160018055005b60405162461bcd60e51b815260206004820152600d60248201526c1499599d5b990819985a5b1959609a1b6044820152606490fd5b634e487b7160e01b600052601260045260246000fd5b60405162461bcd60e51b815260206004820152601060248201526f4e6f7468696e6720746f20636c61696d60801b6044820152606490fd5b60405162461bcd60e51b81526020600482015260126024820152711499599d5b99081b9bdd08195b98589b195960721b6044820152606490fd5b3461037d57600036600319011261037d576020906006548152f35b600435906001600160a01b038216820361037d57565b9181601f8401121561037d5782359167ffffffffffffffff831161037d576020808501948460051b01011161037d57565b600654811015611067576007906006600052027ff652222313e28459528d920b65115c16c04f3efc82aaedc97be59f3f377c0d3f0190600090565b634e487b7160e01b600052603260045260246000fd5b90600182811c921680156110ad575b602083101461109757565b634e487b7160e01b600052602260045260246000fd5b91607f169161108c565b90601f8019910116810190811067ffffffffffffffff8211176108df57604052565b90604051918260008254926110ed8461107d565b90818452600194858116908160001461115c5750600114611119575b5050611117925003836110b7565b565b9093915060005260209081600020936000915b81831061114457505061111793508201013880611109565b8554888401850152948501948794509183019161112c565b91505061111794506020925060ff191682840152151560051b8201013880611109565b919082519283825260005b8481106111ab575050826000602080949584010152601f8019910116010190565b60208183018101518483018201520161118a565b6000546001600160a01b031633036111d357565b60405163118cdaa760e01b8152336004820152602490fd5b9190820180921161085157565b91908110156110675760051b81013590601e198136030182121561037d57019081359167ffffffffffffffff831161037d57602001823603811361037d579190565b91908110156110675760051b0190565b67ffffffffffffffff81116108df57601f01601f191660200190565b90601f811161127457505050565b600091825260208220906020601f850160051c830194106112b0575b601f0160051c01915b8281106112a557505050565b818155600101611299565b9092508290611290565b156112c157565b60405162461bcd60e51b8152602060048201526011602482015270496e76616c6964206d696c6573746f6e6560781b6044820152606490fd5b1561130157565b60405162461bcd60e51b815260206004820152601060248201526f105b1c9958591e481c995b19585cd95960821b6044820152606490fd5b1561134057565b60405162461bcd60e51b8152602060048201526011602482015270141c9bda9958dd081a5cc81ada5b1b1959607a1b6044820152606490fd5b8181029291811591840414171561085157565b3d156113b7573d9061139d8261124a565b916113ab60405193846110b7565b82523d6000602084013e565b606090565b6113c960065482106112ba565b6113d28161102c565b50600281016113e560ff825416156112fa565b6005546113f860ff8260081c1615611339565b600383015460095460011c10906005840154421180611593575b6115355750156114f05760649161143c91600160ff19825416179055600160025491015490611379565b04611449816003546111eb565b600355426004556000808080847f00000000000000000000000000000000000000000000000000000000000000005af161148161138c565b50156114b9577f9e069181c12760c2cd0078ed4facdbe1f3614543b0fbff5dbcac3cbc61a0b64e9160409182519182526020820152a1565b60405162461bcd60e51b815260206004820152600f60248201526e151c985b9cd9995c8819985a5b1959608a1b6044820152606490fd5b60405162461bcd60e51b815260206004820152601960248201527f4e6f7420656e6f75676820617070726f76616c20766f746573000000000000006044820152606490fd5b92505050610101915061ffff1916176005557f34b5206e8c16cea8f036f3109b119ded73ade9f07bdaef7d7f4f81cfcd332ddf606060405160208152600f60208201526e111958591b1a5b99481b5a5cdcd959608a1b6040820152a1565b508115611412565b6002600154146115ac576002600155565b604051633ee5aeb560e01b8152600490fdfea2646970667358221220eb05126a9d803708f99cddea53df11b2fd4a418888bca911fe59108d9efbbd2e64736f6c63430008140033","opcodes":"PUSH1 0xA0 CALLVALUE PUSH2 0xEB JUMPI PUSH1 0x1F PUSH2 0x170F CODESIZE DUP2 SWAP1 SUB SWAP2 DUP3 ADD PUSH1 0x1F NOT AND DUP4 ADD SWAP2 PUSH1 0x1 PUSH1 0x1 PUSH1 0x40 SHL SUB DUP4 GT DUP5 DUP5 LT OR PUSH2 0xF0 JUMPI DUP1 DUP5 SWAP3 PUSH1 0x40 SWAP5 DUP6 MSTORE DUP4 CODECOPY DUP2 ADD SUB SLT PUSH2 0xEB JUMPI DUP1 PUSH2 0x49 PUSH1 0x20 SWAP3 PUSH2 0x106 JUMP JUMPDEST PUSH1 0x1 PUSH1 0x1 PUSH1 0xA0 SHL SUB SWAP3 SWAP1 SWAP2 DUP4 SWAP2 PUSH2 0x60 SWAP2 ADD PUSH2 0x106 JUMP JUMPDEST AND DUP1 ISZERO PUSH2 0xD2 JUMPI PUSH1 0x0 DUP1 SLOAD PUSH1 0x1 PUSH1 0x1 PUSH1 0xA0 SHL SUB NOT DUP2 AND DUP4 OR DUP3 SSTORE PUSH1 0x40 MLOAD SWAP5 AND SWAP1 PUSH32 0x8BE0079C531659141344CD1FD0A4F28419497F9722A3DAAFE3B4186F6B6457E0 SWAP1 DUP1 LOG3 PUSH1 0x1 DUP1 SSTORE PUSH1 0x80 MSTORE TIMESTAMP PUSH1 0x4 SSTORE PUSH2 0x15F4 SWAP1 DUP2 PUSH2 0x11B DUP3 CODECOPY PUSH1 0x80 MLOAD DUP2 DUP2 DUP2 PUSH2 0xB42 ADD MSTORE DUP2 DUP2 PUSH2 0xD0D ADD MSTORE PUSH2 0x1458 ADD MSTORE RETURN JUMPDEST PUSH1 0x40 MLOAD PUSH4 0x1E4FBDF7 PUSH1 0xE0 SHL DUP2 MSTORE PUSH1 0x0 PUSH1 0x4 DUP3 ADD MSTORE PUSH1 0x24 SWAP1 REVERT JUMPDEST PUSH1 0x0 DUP1 REVERT JUMPDEST PUSH4 0x4E487B71 PUSH1 0xE0 SHL PUSH1 0x0 MSTORE PUSH1 0x41 PUSH1 0x4 MSTORE PUSH1 0x24 PUSH1 0x0 REVERT JUMPDEST MLOAD SWAP1 PUSH1 0x1 PUSH1 0x1 PUSH1 0xA0 SHL SUB DUP3 AND DUP3 SUB PUSH2 0xEB JUMPI JUMP INVALID PUSH1 0x80 DUP1 PUSH1 0x40 MSTORE PUSH1 0x4 CALLDATASIZE LT ISZERO PUSH2 0x1D JUMPI JUMPDEST POP CALLDATASIZE ISZERO PUSH2 0x1B JUMPI PUSH1 0x0 DUP1 REVERT JUMPDEST STOP JUMPDEST PUSH1 0x0 CALLDATALOAD PUSH1 0xE0 SHR SWAP1 DUP2 PUSH4 0xB49351C EQ PUSH2 0xFCA JUMPI POP DUP1 PUSH4 0x105FD61F EQ PUSH2 0xE53 JUMPI DUP1 PUSH4 0x125EEC3E EQ PUSH2 0xCC1 JUMPI DUP1 PUSH4 0x15AAEC0B EQ PUSH2 0xC21 JUMPI DUP1 PUSH4 0x28F5678E EQ PUSH2 0xBFB JUMPI DUP1 PUSH4 0x317DEBF5 EQ PUSH2 0xBD7 JUMPI DUP1 PUSH4 0x39ECACAC EQ PUSH2 0xB71 JUMPI DUP1 PUSH4 0x3CF96AF1 EQ PUSH2 0xB2C JUMPI DUP1 PUSH4 0x427C0C7F EQ PUSH2 0xB0E JUMPI DUP1 PUSH4 0x42E94C90 EQ PUSH2 0xAD4 JUMPI DUP1 PUSH4 0x43859632 EQ PUSH2 0xA82 JUMPI DUP1 PUSH4 0x671B3793 EQ PUSH2 0xA64 JUMPI DUP1 PUSH4 0x6C155769 EQ PUSH2 0xA41 JUMPI DUP1 PUSH4 0x715018A6 EQ PUSH2 0x9E8 JUMPI DUP1 PUSH4 0x74845AB1 EQ PUSH2 0x9CA JUMPI DUP1 PUSH4 0x8DA5CB5B EQ PUSH2 0x9A1 JUMPI DUP1 PUSH4 0xAA4103E2 EQ PUSH2 0x983 JUMPI DUP1 PUSH4 0xC819EBD8 EQ PUSH2 0x4D3 JUMPI DUP1 PUSH4 0xD92A9A3E EQ PUSH2 0x4B5 JUMPI DUP1 PUSH4 0xE89E4ED6 EQ PUSH2 0x410 JUMPI DUP1 PUSH4 0xF2FDE38B EQ PUSH2 0x382 JUMPI PUSH4 0xF48E81E8 EQ PUSH2 0x11C JUMPI CODESIZE PUSH2 0xF JUMP JUMPDEST CALLVALUE PUSH2 0x37D JUMPI PUSH1 0x40 CALLDATASIZE PUSH1 0x3 NOT ADD SLT PUSH2 0x37D JUMPI PUSH1 0x4 CALLDATALOAD PUSH1 0x24 CALLDATALOAD DUP1 ISZERO ISZERO DUP1 DUP3 SUB PUSH2 0x37D JUMPI PUSH2 0x14A PUSH1 0x6 SLOAD DUP5 LT PUSH2 0x12BA JUMP JUMPDEST PUSH2 0x164 PUSH1 0xFF PUSH1 0x2 PUSH2 0x15A DUP7 PUSH2 0x102C JUMP JUMPDEST POP ADD SLOAD AND ISZERO PUSH2 0x12FA JUMP JUMPDEST CALLER PUSH1 0x0 MSTORE PUSH1 0x20 SWAP2 PUSH1 0x7 DUP4 MSTORE PUSH1 0x40 PUSH1 0x0 KECCAK256 SLOAD ISZERO PUSH2 0x346 JUMPI DUP4 PUSH1 0x0 MSTORE PUSH1 0x8 DUP4 MSTORE PUSH1 0x40 PUSH1 0x0 KECCAK256 CALLER PUSH1 0x0 MSTORE DUP4 MSTORE PUSH1 0xFF PUSH1 0x40 PUSH1 0x0 KECCAK256 SLOAD AND PUSH2 0x311 JUMPI PUSH32 0x877856338E13F63D0C36822FF0EF736B80934CD90574A3A5BC9262C39D217C46 SWAP2 PUSH1 0x80 SWAP2 PUSH2 0x1D1 PUSH1 0xFF PUSH1 0x5 SLOAD PUSH1 0x8 SHR AND ISZERO PUSH2 0x1339 JUMP JUMPDEST CALLER PUSH1 0x0 MSTORE PUSH1 0x7 DUP6 MSTORE PUSH1 0x40 PUSH1 0x0 KECCAK256 SLOAD SWAP1 PUSH1 0x0 EQ PUSH2 0x2F2 JUMPI PUSH1 0x3 PUSH2 0x1F2 DUP8 PUSH2 0x102C JUMP JUMPDEST POP ADD PUSH2 0x1FF DUP3 DUP3 SLOAD PUSH2 0x11EB JUMP JUMPDEST SWAP1 SSTORE JUMPDEST DUP6 PUSH1 0x0 MSTORE PUSH1 0x8 DUP6 MSTORE PUSH1 0x40 PUSH1 0x0 KECCAK256 CALLER PUSH1 0x0 MSTORE DUP6 MSTORE PUSH1 0x40 PUSH1 0x0 KECCAK256 PUSH1 0x1 PUSH1 0xFF NOT DUP3 SLOAD AND OR SWAP1 SSTORE PUSH1 0x40 MLOAD SWAP2 CALLER DUP4 MSTORE DUP7 DUP7 DUP5 ADD MSTORE PUSH1 0x40 DUP4 ADD MSTORE PUSH1 0x60 DUP3 ADD MSTORE LOG1 PUSH1 0x4 PUSH2 0x247 DUP4 PUSH2 0x102C JUMP JUMPDEST POP ADD SLOAD SWAP1 PUSH1 0x9 SLOAD PUSH1 0x1 SHR DUP1 SWAP3 GT PUSH2 0x286 JUMPI JUMPDEST POP PUSH1 0x3 PUSH2 0x265 DUP4 PUSH2 0x102C JUMP JUMPDEST POP ADD SLOAD GT PUSH2 0x26F JUMPI STOP JUMPDEST PUSH2 0x280 SWAP1 PUSH2 0x27B PUSH2 0x159B JUMP JUMPDEST PUSH2 0x13BC JUMP JUMPDEST PUSH1 0x1 DUP1 SSTORE STOP JUMPDEST PUSH1 0x60 PUSH32 0x34B5206E8C16CEA8F036F3109B119DED73ADE9F07BDAEF7D7F4F81CFCD332DDF SWAP2 PUSH2 0x101 PUSH2 0xFFFF NOT PUSH1 0x5 SLOAD AND OR PUSH1 0x5 SSTORE PUSH1 0x1E PUSH1 0x40 MLOAD SWAP2 DUP1 DUP4 MSTORE DUP3 ADD MSTORE PUSH32 0x4D696C6573746F6E652072656A6563746564206279206D616A6F726974790000 PUSH1 0x40 DUP3 ADD MSTORE LOG1 CODESIZE PUSH2 0x259 JUMP JUMPDEST PUSH1 0x4 PUSH2 0x2FD DUP8 PUSH2 0x102C JUMP JUMPDEST POP ADD PUSH2 0x30A DUP3 DUP3 SLOAD PUSH2 0x11EB JUMP JUMPDEST SWAP1 SSTORE PUSH2 0x202 JUMP JUMPDEST PUSH1 0x40 MLOAD PUSH3 0x461BCD PUSH1 0xE5 SHL DUP2 MSTORE PUSH1 0x4 DUP2 ADD DUP5 SWAP1 MSTORE PUSH1 0xD PUSH1 0x24 DUP3 ADD MSTORE PUSH13 0x105B1C9958591E481D9BDD1959 PUSH1 0x9A SHL PUSH1 0x44 DUP3 ADD MSTORE PUSH1 0x64 SWAP1 REVERT JUMPDEST PUSH1 0x40 MLOAD PUSH3 0x461BCD PUSH1 0xE5 SHL DUP2 MSTORE PUSH1 0x4 DUP2 ADD DUP5 SWAP1 MSTORE PUSH1 0xF PUSH1 0x24 DUP3 ADD MSTORE PUSH15 0x2737903B37BA34B733903837BBB2B9 PUSH1 0x89 SHL PUSH1 0x44 DUP3 ADD MSTORE PUSH1 0x64 SWAP1 REVERT JUMPDEST PUSH1 0x0 DUP1 REVERT JUMPDEST CALLVALUE PUSH2 0x37D JUMPI PUSH1 0x20 CALLDATASIZE PUSH1 0x3 NOT ADD SLT PUSH2 0x37D JUMPI PUSH2 0x39B PUSH2 0xFE5 JUMP JUMPDEST PUSH2 0x3A3 PUSH2 0x11BF JUMP JUMPDEST PUSH1 0x1 PUSH1 0x1 PUSH1 0xA0 SHL SUB SWAP1 DUP2 AND SWAP1 DUP2 ISZERO PUSH2 0x3F7 JUMPI PUSH1 0x0 SLOAD DUP3 PUSH12 0xFFFFFFFFFFFFFFFFFFFFFFFF PUSH1 0xA0 SHL DUP3 AND OR PUSH1 0x0 SSTORE AND PUSH32 0x8BE0079C531659141344CD1FD0A4F28419497F9722A3DAAFE3B4186F6B6457E0 PUSH1 0x0 DUP1 LOG3 STOP JUMPDEST PUSH1 0x40 MLOAD PUSH4 0x1E4FBDF7 PUSH1 0xE0 SHL DUP2 MSTORE PUSH1 0x0 PUSH1 0x4 DUP3 ADD MSTORE PUSH1 0x24 SWAP1 REVERT JUMPDEST CALLVALUE PUSH2 0x37D JUMPI PUSH1 0x20 CALLDATASIZE PUSH1 0x3 NOT ADD SLT PUSH2 0x37D JUMPI PUSH1 0x4 CALLDATALOAD PUSH1 0x6 SLOAD DUP2 LT ISZERO PUSH2 0x37D JUMPI PUSH2 0x43A PUSH2 0x488 SWAP2 PUSH2 0x102C JUMP JUMPDEST POP PUSH2 0x4B1 PUSH2 0x447 DUP3 PUSH2 0x10D9 JUMP JUMPDEST SWAP2 PUSH1 0x1 DUP2 ADD SLOAD SWAP1 PUSH1 0xFF PUSH1 0x2 DUP3 ADD SLOAD AND SWAP1 PUSH1 0x3 DUP2 ADD SLOAD PUSH1 0x4 DUP3 ADD SLOAD SWAP1 PUSH2 0x473 PUSH1 0x6 PUSH1 0x5 DUP6 ADD SLOAD SWAP5 ADD PUSH2 0x10D9 JUMP JUMPDEST SWAP4 PUSH1 0x40 MLOAD SWAP9 DUP10 SWAP9 PUSH1 0xE0 DUP11 MSTORE PUSH1 0xE0 DUP11 ADD SWAP1 PUSH2 0x117F JUMP JUMPDEST SWAP6 PUSH1 0x20 DUP10 ADD MSTORE ISZERO ISZERO PUSH1 0x40 DUP9 ADD MSTORE PUSH1 0x60 DUP8 ADD MSTORE PUSH1 0x80 DUP7 ADD MSTORE PUSH1 0xA0 DUP6 ADD MSTORE DUP4 DUP3 SUB PUSH1 0xC0 DUP6 ADD MSTORE PUSH2 0x117F JUMP JUMPDEST SUB SWAP1 RETURN JUMPDEST CALLVALUE PUSH2 0x37D JUMPI PUSH1 0x0 CALLDATASIZE PUSH1 0x3 NOT ADD SLT PUSH2 0x37D JUMPI PUSH1 0x20 PUSH1 0x3 SLOAD PUSH1 0x40 MLOAD SWAP1 DUP2 MSTORE RETURN JUMPDEST CALLVALUE PUSH2 0x37D JUMPI PUSH1 0x60 CALLDATASIZE PUSH1 0x3 NOT ADD SLT PUSH2 0x37D JUMPI PUSH1 0x4 CALLDATALOAD PUSH8 0xFFFFFFFFFFFFFFFF DUP2 GT PUSH2 0x37D JUMPI PUSH2 0x504 SWAP1 CALLDATASIZE SWAP1 PUSH1 0x4 ADD PUSH2 0xFFB JUMP JUMPDEST PUSH1 0x24 CALLDATALOAD PUSH8 0xFFFFFFFFFFFFFFFF DUP2 GT PUSH2 0x37D JUMPI PUSH2 0x524 SWAP1 CALLDATASIZE SWAP1 PUSH1 0x4 ADD PUSH2 0xFFB JUMP JUMPDEST SWAP2 SWAP1 PUSH1 0x44 CALLDATALOAD PUSH8 0xFFFFFFFFFFFFFFFF DUP2 GT PUSH2 0x37D JUMPI DUP5 DUP4 PUSH2 0x549 DUP7 SWAP4 CALLDATASIZE SWAP1 PUSH1 0x4 ADD PUSH2 0xFFB JUMP JUMPDEST SWAP5 SWAP1 SWAP3 PUSH2 0x554 PUSH2 0x11BF JUMP JUMPDEST PUSH1 0x0 SWAP5 PUSH1 0x0 SWAP7 JUMPDEST DUP5 DUP9 LT PUSH2 0x5B1 JUMPI PUSH1 0x64 DUP8 GT PUSH2 0x56C JUMPI STOP JUMPDEST PUSH1 0x40 MLOAD PUSH3 0x461BCD PUSH1 0xE5 SHL DUP2 MSTORE PUSH1 0x20 PUSH1 0x4 DUP3 ADD MSTORE PUSH1 0x1C PUSH1 0x24 DUP3 ADD MSTORE PUSH32 0x546F74616C2070657263656E7461676520657863656564732031303000000000 PUSH1 0x44 DUP3 ADD MSTORE PUSH1 0x64 SWAP1 REVERT JUMPDEST SWAP1 SWAP2 SWAP3 SWAP4 SWAP5 SWAP6 PUSH2 0x5C2 DUP9 DUP8 DUP7 PUSH2 0x11F8 JUMP JUMPDEST SWAP1 PUSH2 0x5CE DUP11 DUP7 DUP10 PUSH2 0x123A JUMP JUMPDEST CALLDATALOAD PUSH2 0x5DA DUP12 DUP7 DUP13 PUSH2 0x123A JUMP JUMPDEST CALLDATALOAD SWAP2 PUSH1 0x40 MLOAD SWAP4 DUP5 PUSH1 0xE0 DUP2 ADD LT PUSH8 0xFFFFFFFFFFFFFFFF PUSH1 0xE0 DUP8 ADD GT OR PUSH2 0x8DF JUMPI PUSH1 0xE0 DUP6 ADD PUSH1 0x40 MSTORE PUSH2 0x609 DUP2 PUSH2 0x124A JUMP JUMPDEST SWAP2 PUSH2 0x617 PUSH1 0x40 MLOAD SWAP4 DUP5 PUSH2 0x10B7 JUMP JUMPDEST DUP2 DUP4 MSTORE CALLDATASIZE DUP3 DUP3 ADD GT PUSH2 0x37D JUMPI DUP2 PUSH1 0x0 SWAP3 PUSH1 0x20 SWAP3 DUP4 DUP7 ADD CALLDATACOPY DUP4 ADD ADD MSTORE DUP4 MSTORE PUSH1 0x20 DUP4 ADD MSTORE PUSH1 0x0 PUSH1 0x40 DUP4 ADD MSTORE PUSH1 0x0 PUSH1 0x60 DUP4 ADD MSTORE PUSH1 0x0 PUSH1 0x80 DUP4 ADD MSTORE PUSH1 0xA0 DUP3 ADD MSTORE PUSH1 0x40 MLOAD DUP1 PUSH1 0x20 DUP2 ADD LT PUSH8 0xFFFFFFFFFFFFFFFF PUSH1 0x20 DUP4 ADD GT OR PUSH2 0x8DF JUMPI PUSH1 0x20 DUP2 ADD PUSH1 0x40 MSTORE PUSH1 0x0 DUP2 MSTORE PUSH1 0xC0 DUP3 ADD MSTORE PUSH1 0x6 SLOAD PUSH9 0x10000000000000000 DUP2 LT ISZERO PUSH2 0x8DF JUMPI DUP1 PUSH1 0x1 PUSH2 0x6A3 SWAP3 ADD PUSH1 0x6 SSTORE PUSH2 0x102C JUMP JUMPDEST SWAP2 SWAP1 SWAP2 PUSH2 0x96D JUMPI DUP1 MLOAD DUP1 MLOAD SWAP1 PUSH8 0xFFFFFFFFFFFFFFFF DUP3 GT PUSH2 0x8DF JUMPI PUSH2 0x6D2 DUP3 PUSH2 0x6CC DUP7 SLOAD PUSH2 0x107D JUMP JUMPDEST DUP7 PUSH2 0x1266 JUMP JUMPDEST PUSH1 0x20 SWAP1 PUSH1 0x1F DUP4 GT PUSH1 0x1 EQ PUSH2 0x900 JUMPI PUSH1 0xC0 SWAP4 SWAP3 SWAP2 PUSH1 0x0 SWAP2 DUP4 PUSH2 0x8F5 JUMPI JUMPDEST POP POP DUP2 PUSH1 0x1 SHL SWAP2 PUSH1 0x0 NOT SWAP1 PUSH1 0x3 SHL SHR NOT AND OR DUP4 SSTORE JUMPDEST PUSH1 0x20 DUP2 ADD MLOAD PUSH1 0x1 DUP5 ADD SSTORE PUSH1 0x2 DUP4 ADD PUSH1 0x40 DUP3 ADD MLOAD ISZERO ISZERO PUSH1 0xFF DUP1 NOT DUP4 SLOAD AND SWAP2 AND OR SWAP1 SSTORE PUSH1 0x60 DUP2 ADD MLOAD PUSH1 0x3 DUP5 ADD SSTORE PUSH1 0x80 DUP2 ADD MLOAD PUSH1 0x4 DUP5 ADD SSTORE PUSH1 0xA0 DUP2 ADD MLOAD PUSH1 0x5 DUP5 ADD SSTORE ADD MLOAD SWAP1 DUP2 MLOAD SWAP1 PUSH8 0xFFFFFFFFFFFFFFFF DUP3 GT PUSH2 0x8DF JUMPI PUSH1 0x6 ADD SWAP2 PUSH2 0x76F DUP3 PUSH2 0x769 DUP6 SLOAD PUSH2 0x107D JUMP JUMPDEST DUP6 PUSH2 0x1266 JUMP JUMPDEST PUSH1 0x20 SWAP1 PUSH1 0x1F DUP4 GT PUSH1 0x1 EQ PUSH2 0x872 JUMPI PUSH2 0x7B4 SWAP5 SWAP4 SWAP3 SWAP2 PUSH1 0x0 SWAP2 DUP4 PUSH2 0x867 JUMPI JUMPDEST POP POP DUP2 PUSH1 0x1 SHL SWAP2 PUSH1 0x0 NOT SWAP1 PUSH1 0x3 SHL SHR NOT AND OR SWAP1 SSTORE JUMPDEST PUSH2 0x7AD DUP10 DUP6 DUP9 PUSH2 0x123A JUMP JUMPDEST CALLDATALOAD SWAP1 PUSH2 0x11EB JUMP JUMPDEST SWAP7 PUSH1 0x6 SLOAD DUP1 PUSH1 0x0 NOT DUP2 ADD GT PUSH2 0x851 JUMPI PUSH32 0xBF293DB00F4DE65B181A066ECC2F8BB81FB7174B517FD8085700E259AD00DB1B SWAP1 PUSH1 0x80 PUSH2 0x7F2 DUP5 DUP11 DUP10 PUSH2 0x11F8 JUMP JUMPDEST PUSH2 0x800 DUP7 DUP10 DUP13 SWAP7 SWAP5 SWAP7 PUSH2 0x123A JUMP JUMPDEST CALLDATALOAD DUP2 PUSH1 0x40 MLOAD SWAP6 DUP7 SWAP5 PUSH1 0x0 NOT ADD DUP6 MSTORE PUSH1 0x60 PUSH1 0x20 DUP7 ADD MSTORE DUP2 PUSH1 0x60 DUP7 ADD MSTORE DUP6 DUP6 ADD CALLDATACOPY PUSH1 0x0 DUP4 DUP4 ADD DUP6 ADD MSTORE PUSH1 0x40 DUP4 ADD MSTORE PUSH1 0x1F ADD PUSH1 0x1F NOT AND DUP2 ADD SUB ADD SWAP1 LOG1 PUSH1 0x0 NOT DUP2 EQ PUSH2 0x851 JUMPI PUSH1 0x1 ADD SWAP7 SWAP6 SWAP5 SWAP4 SWAP3 SWAP2 SWAP1 PUSH2 0x55B JUMP JUMPDEST PUSH4 0x4E487B71 PUSH1 0xE0 SHL PUSH1 0x0 MSTORE PUSH1 0x11 PUSH1 0x4 MSTORE PUSH1 0x24 PUSH1 0x0 REVERT JUMPDEST ADD MLOAD SWAP1 POP DUP13 DUP1 PUSH2 0x78D JUMP JUMPDEST SWAP1 PUSH1 0x1F NOT DUP4 AND SWAP2 DUP5 PUSH1 0x0 MSTORE PUSH1 0x20 PUSH1 0x0 KECCAK256 SWAP3 PUSH1 0x0 JUMPDEST DUP2 DUP2 LT PUSH2 0x8C7 JUMPI POP SWAP2 PUSH1 0x1 SWAP4 SWAP2 DUP6 PUSH2 0x7B4 SWAP9 SWAP8 SWAP7 SWAP5 LT PUSH2 0x8AE JUMPI JUMPDEST POP POP POP DUP2 SHL ADD SWAP1 SSTORE PUSH2 0x7A2 JUMP JUMPDEST ADD MLOAD PUSH1 0x0 NOT PUSH1 0xF8 DUP5 PUSH1 0x3 SHL AND SHR NOT AND SWAP1 SSTORE DUP13 DUP1 DUP1 PUSH2 0x8A1 JUMP JUMPDEST SWAP3 SWAP4 PUSH1 0x20 PUSH1 0x1 DUP2 SWAP3 DUP8 DUP7 ADD MLOAD DUP2 SSTORE ADD SWAP6 ADD SWAP4 ADD PUSH2 0x886 JUMP JUMPDEST PUSH4 0x4E487B71 PUSH1 0xE0 SHL PUSH1 0x0 MSTORE PUSH1 0x41 PUSH1 0x4 MSTORE PUSH1 0x24 PUSH1 0x0 REVERT JUMPDEST ADD MLOAD SWAP1 POP DUP14 DUP1 PUSH2 0x6EE JUMP JUMPDEST SWAP1 DUP5 PUSH1 0x0 MSTORE PUSH1 0x20 PUSH1 0x0 KECCAK256 SWAP2 PUSH1 0x0 JUMPDEST PUSH1 0x1F NOT DUP6 AND DUP2 LT PUSH2 0x955 JUMPI POP SWAP2 DUP4 SWAP2 PUSH1 0x1 SWAP4 PUSH1 0xC0 SWAP7 SWAP6 PUSH1 0x1F NOT DUP2 AND LT PUSH2 0x93C JUMPI JUMPDEST POP POP POP DUP2 SHL ADD DUP4 SSTORE PUSH2 0x703 JUMP JUMPDEST ADD MLOAD PUSH1 0x0 NOT PUSH1 0xF8 DUP5 PUSH1 0x3 SHL AND SHR NOT AND SWAP1 SSTORE DUP14 DUP1 DUP1 PUSH2 0x92F JUMP JUMPDEST SWAP2 SWAP3 PUSH1 0x20 PUSH1 0x1 DUP2 SWAP3 DUP7 DUP6 ADD MLOAD DUP2 SSTORE ADD SWAP5 ADD SWAP3 ADD PUSH2 0x90E JUMP JUMPDEST PUSH4 0x4E487B71 PUSH1 0xE0 SHL PUSH1 0x0 MSTORE PUSH1 0x0 PUSH1 0x4 MSTORE PUSH1 0x24 PUSH1 0x0 REVERT JUMPDEST CALLVALUE PUSH2 0x37D JUMPI PUSH1 0x0 CALLDATASIZE PUSH1 0x3 NOT ADD SLT PUSH2 0x37D JUMPI PUSH1 0x20 PUSH1 0x40 MLOAD PUSH3 0xED4E00 DUP2 MSTORE RETURN JUMPDEST CALLVALUE PUSH2 0x37D JUMPI PUSH1 0x0 CALLDATASIZE PUSH1 0x3 NOT ADD SLT PUSH2 0x37D JUMPI PUSH1 0x0 SLOAD PUSH1 0x40 MLOAD PUSH1 0x1 PUSH1 0x1 PUSH1 0xA0 SHL SUB SWAP1 SWAP2 AND DUP2 MSTORE PUSH1 0x20 SWAP1 RETURN JUMPDEST CALLVALUE PUSH2 0x37D JUMPI PUSH1 0x0 CALLDATASIZE PUSH1 0x3 NOT ADD SLT PUSH2 0x37D JUMPI PUSH1 0x20 PUSH1 0x4 SLOAD PUSH1 0x40 MLOAD SWAP1 DUP2 MSTORE RETURN JUMPDEST CALLVALUE PUSH2 0x37D JUMPI PUSH1 0x0 CALLDATASIZE PUSH1 0x3 NOT ADD SLT PUSH2 0x37D JUMPI PUSH2 0xA01 PUSH2 0x11BF JUMP JUMPDEST PUSH1 0x0 DUP1 SLOAD PUSH1 0x1 PUSH1 0x1 PUSH1 0xA0 SHL SUB NOT DUP2 AND DUP3 SSTORE PUSH1 0x1 PUSH1 0x1 PUSH1 0xA0 SHL SUB AND PUSH32 0x8BE0079C531659141344CD1FD0A4F28419497F9722A3DAAFE3B4186F6B6457E0 DUP3 DUP1 LOG3 STOP JUMPDEST CALLVALUE PUSH2 0x37D JUMPI PUSH1 0x0 CALLDATASIZE PUSH1 0x3 NOT ADD SLT PUSH2 0x37D JUMPI PUSH1 0x20 PUSH1 0xFF PUSH1 0x5 SLOAD AND PUSH1 0x40 MLOAD SWAP1 ISZERO ISZERO DUP2 MSTORE RETURN JUMPDEST CALLVALUE PUSH2 0x37D JUMPI PUSH1 0x0 CALLDATASIZE PUSH1 0x3 NOT ADD SLT PUSH2 0x37D JUMPI PUSH1 0x20 PUSH1 0x9 SLOAD PUSH1 0x40 MLOAD SWAP1 DUP2 MSTORE RETURN JUMPDEST CALLVALUE PUSH2 0x37D JUMPI PUSH1 0x40 CALLDATASIZE PUSH1 0x3 NOT ADD SLT PUSH2 0x37D JUMPI PUSH1 0x24 CALLDATALOAD PUSH1 0x1 PUSH1 0x1 PUSH1 0xA0 SHL SUB DUP2 AND SWAP1 DUP2 SWAP1 SUB PUSH2 0x37D JUMPI PUSH1 0x4 CALLDATALOAD PUSH1 0x0 MSTORE PUSH1 0x8 PUSH1 0x20 MSTORE PUSH1 0x40 PUSH1 0x0 KECCAK256 SWAP1 PUSH1 0x0 MSTORE PUSH1 0x20 MSTORE PUSH1 0x20 PUSH1 0xFF PUSH1 0x40 PUSH1 0x0 KECCAK256 SLOAD AND PUSH1 0x40 MLOAD SWAP1 ISZERO ISZERO DUP2 MSTORE RETURN JUMPDEST CALLVALUE PUSH2 0x37D JUMPI PUSH1 0x20 CALLDATASIZE PUSH1 0x3 NOT ADD SLT PUSH2 0x37D JUMPI PUSH1 0x1 PUSH1 0x1 PUSH1 0xA0 SHL SUB PUSH2 0xAF5 PUSH2 0xFE5 JUMP JUMPDEST AND PUSH1 0x0 MSTORE PUSH1 0x7 PUSH1 0x20 MSTORE PUSH1 0x20 PUSH1 0x40 PUSH1 0x0 KECCAK256 SLOAD PUSH1 0x40 MLOAD SWAP1 DUP2 MSTORE RETURN JUMPDEST CALLVALUE PUSH2 0x37D JUMPI PUSH1 0x0 CALLDATASIZE PUSH1 0x3 NOT ADD SLT PUSH2 0x37D JUMPI PUSH1 0x20 PUSH1 0x2 SLOAD PUSH1 0x40 MLOAD SWAP1 DUP2 MSTORE RETURN JUMPDEST CALLVALUE PUSH2 0x37D JUMPI PUSH1 0x0 CALLDATASIZE PUSH1 0x3 NOT ADD SLT PUSH2 0x37D JUMPI PUSH1 0x40 MLOAD PUSH32 0x0 PUSH1 0x1 PUSH1 0x1 PUSH1 0xA0 SHL SUB AND DUP2 MSTORE PUSH1 0x20 SWAP1 RETURN JUMPDEST CALLVALUE PUSH2 0x37D JUMPI PUSH1 0x40 CALLDATASIZE PUSH1 0x3 NOT ADD SLT PUSH2 0x37D JUMPI PUSH2 0xBD2 PUSH2 0xB8D PUSH2 0xFE5 JUMP JUMPDEST PUSH1 0x24 CALLDATALOAD SWAP1 PUSH2 0xB99 PUSH2 0x11BF JUMP JUMPDEST PUSH1 0x1 DUP1 PUSH1 0xA0 SHL SUB AND PUSH1 0x0 MSTORE PUSH1 0x7 PUSH1 0x20 MSTORE PUSH1 0x40 PUSH1 0x0 KECCAK256 PUSH2 0xBB9 DUP3 DUP3 SLOAD PUSH2 0x11EB JUMP JUMPDEST SWAP1 SSTORE PUSH2 0xBC7 DUP2 PUSH1 0x2 SLOAD PUSH2 0x11EB JUMP JUMPDEST PUSH1 0x2 SSTORE PUSH1 0x9 SLOAD PUSH2 0x11EB JUMP JUMPDEST PUSH1 0x9 SSTORE STOP JUMPDEST CALLVALUE PUSH2 0x37D JUMPI PUSH1 0x20 CALLDATASIZE PUSH1 0x3 NOT ADD SLT PUSH2 0x37D JUMPI PUSH2 0xBF0 PUSH2 0x159B JUMP JUMPDEST PUSH2 0x280 PUSH1 0x4 CALLDATALOAD PUSH2 0x13BC JUMP JUMPDEST CALLVALUE PUSH2 0x37D JUMPI PUSH1 0x0 CALLDATASIZE PUSH1 0x3 NOT ADD SLT PUSH2 0x37D JUMPI PUSH1 0x20 PUSH1 0xFF PUSH1 0x5 SLOAD PUSH1 0x8 SHR AND PUSH1 0x40 MLOAD SWAP1 ISZERO ISZERO DUP2 MSTORE RETURN JUMPDEST CALLVALUE PUSH2 0x37D JUMPI PUSH1 0x0 CALLDATASIZE PUSH1 0x3 NOT ADD SLT PUSH2 0x37D JUMPI PUSH1 0x4 SLOAD PUSH3 0xED4E00 DUP2 ADD DUP1 SWAP2 GT PUSH2 0x851 JUMPI TIMESTAMP GT ISZERO PUSH2 0xC7D JUMPI PUSH1 0x1 PUSH1 0xFF NOT PUSH1 0x5 SLOAD AND OR PUSH1 0x5 SSTORE PUSH32 0x722906C49F03ECFD68886AFC5C52F1DE3511535A86B31FB160B0379D4F346845 PUSH1 0x0 DUP1 LOG1 STOP JUMPDEST PUSH1 0x64 PUSH1 0x40 MLOAD PUSH3 0x461BCD PUSH1 0xE5 SHL DUP2 MSTORE PUSH1 0x20 PUSH1 0x4 DUP3 ADD MSTORE PUSH1 0x20 PUSH1 0x24 DUP3 ADD MSTORE PUSH32 0x496E6163746976697479207468726573686F6C64206E6F742072656163686564 PUSH1 0x44 DUP3 ADD MSTORE REVERT JUMPDEST CALLVALUE PUSH2 0x37D JUMPI PUSH1 0x40 CALLDATASIZE PUSH1 0x3 NOT ADD SLT PUSH2 0x37D JUMPI PUSH1 0x24 DUP1 CALLDATALOAD PUSH8 0xFFFFFFFFFFFFFFFF PUSH1 0x4 CALLDATALOAD DUP2 DUP4 GT PUSH2 0x37D JUMPI CALLDATASIZE PUSH1 0x23 DUP5 ADD SLT ISZERO PUSH2 0x37D JUMPI DUP3 PUSH1 0x4 ADD CALLDATALOAD SWAP2 DUP3 GT PUSH2 0x37D JUMPI CALLDATASIZE DUP5 DUP4 DUP6 ADD ADD GT PUSH2 0x37D JUMPI PUSH32 0x0 PUSH1 0x1 PUSH1 0x1 PUSH1 0xA0 SHL SUB AND CALLER SUB PUSH2 0xE0F JUMPI PUSH2 0xD52 PUSH1 0x6 SWAP2 PUSH2 0xD4D DUP4 SLOAD DUP3 LT PUSH2 0x12BA JUMP JUMPDEST PUSH2 0x102C JUMP JUMPDEST POP ADD SWAP2 PUSH2 0xD63 DUP3 PUSH2 0x769 DUP6 SLOAD PUSH2 0x107D JUMP JUMPDEST PUSH1 0x0 SWAP1 PUSH1 0x1F DUP4 GT PUSH1 0x1 EQ PUSH2 0xDA4 JUMPI SWAP1 DUP3 SWAP4 SWAP5 SWAP2 PUSH1 0x0 SWAP4 PUSH2 0xD97 JUMPI JUMPDEST POP POP POP PUSH1 0x0 NOT PUSH1 0x3 DUP4 SWAP1 SHL SHR NOT AND PUSH1 0x1 SWAP2 SWAP1 SWAP2 SHL OR SWAP1 SSTORE STOP JUMPDEST ADD ADD CALLDATALOAD SWAP1 POP DUP4 DUP1 DUP1 PUSH2 0xD7E JUMP JUMPDEST PUSH1 0x1F NOT DUP4 AND SWAP5 DUP5 PUSH1 0x0 MSTORE PUSH1 0x20 SWAP3 DUP4 PUSH1 0x0 KECCAK256 SWAP4 PUSH1 0x0 SWAP1 JUMPDEST DUP9 DUP3 LT PUSH2 0xDF5 JUMPI POP POP DUP5 PUSH1 0x1 SWAP7 SWAP8 LT PUSH2 0xDD9 JUMPI JUMPDEST POP POP POP POP DUP2 SHL ADD SWAP1 SSTORE STOP JUMPDEST PUSH1 0x0 NOT PUSH1 0xF8 DUP7 PUSH1 0x3 SHL AND SHR NOT SWAP3 ADD ADD CALLDATALOAD AND SWAP1 SSTORE DUP4 DUP1 DUP1 DUP1 PUSH2 0xDCE JUMP JUMPDEST DUP1 PUSH1 0x1 DUP5 SWAP8 DUP7 DUP4 SWAP6 SWAP7 DUP10 ADD ADD CALLDATALOAD DUP2 SSTORE ADD SWAP7 ADD SWAP3 ADD SWAP1 PUSH2 0xDBA JUMP JUMPDEST PUSH1 0x40 MLOAD PUSH3 0x461BCD PUSH1 0xE5 SHL DUP2 MSTORE PUSH1 0x20 PUSH1 0x4 DUP3 ADD MSTORE PUSH1 0x1D DUP2 DUP7 ADD MSTORE PUSH32 0x4F6E6C792070726F6A6563742063616E207375626D69742070726F6F66000000 PUSH1 0x44 DUP3 ADD MSTORE PUSH1 0x64 SWAP1 REVERT JUMPDEST CALLVALUE PUSH2 0x37D JUMPI PUSH1 0x0 CALLDATASIZE PUSH1 0x3 NOT ADD SLT PUSH2 0x37D JUMPI PUSH2 0xE6C PUSH2 0x159B JUMP JUMPDEST PUSH1 0xFF PUSH1 0x5 SLOAD AND ISZERO PUSH2 0xF90 JUMPI CALLER PUSH1 0x0 MSTORE PUSH1 0x7 PUSH1 0x20 MSTORE PUSH1 0x40 PUSH1 0x0 KECCAK256 SLOAD DUP1 ISZERO PUSH2 0xF58 JUMPI PUSH2 0xE96 DUP2 SELFBALANCE PUSH2 0x1379 JUMP JUMPDEST PUSH1 0x9 SLOAD SWAP1 DUP2 ISZERO PUSH2 0xF42 JUMPI DUP2 SWAP1 DIV SWAP2 DUP2 SUB SWAP1 DUP2 GT PUSH2 0x851 JUMPI PUSH1 0x9 SSTORE CALLER PUSH1 0x0 MSTORE PUSH1 0x7 PUSH1 0x20 MSTORE PUSH1 0x0 PUSH1 0x40 DUP2 KECCAK256 SSTORE PUSH1 0x0 DUP1 DUP1 DUP1 DUP5 CALLER GAS CALL PUSH2 0xED1 PUSH2 0x138C JUMP JUMPDEST POP ISZERO PUSH2 0xF0D JUMPI PUSH1 0x40 PUSH32 0x358FE4192934D3BF28AE181FEDA1F4BD08CA67F5E2FAD55582CCE5EB67304AE9 SWAP2 DUP2 MLOAD SWAP1 CALLER DUP3 MSTORE PUSH1 0x20 DUP3 ADD MSTORE LOG1 PUSH1 0x1 DUP1 SSTORE STOP JUMPDEST PUSH1 0x40 MLOAD PUSH3 0x461BCD PUSH1 0xE5 SHL DUP2 MSTORE PUSH1 0x20 PUSH1 0x4 DUP3 ADD MSTORE PUSH1 0xD PUSH1 0x24 DUP3 ADD MSTORE PUSH13 0x1499599D5B990819985A5B1959 PUSH1 0x9A SHL PUSH1 0x44 DUP3 ADD MSTORE PUSH1 0x64 SWAP1 REVERT JUMPDEST PUSH4 0x4E487B71 PUSH1 0xE0 SHL PUSH1 0x0 MSTORE PUSH1 0x12 PUSH1 0x4 MSTORE PUSH1 0x24 PUSH1 0x0 REVERT JUMPDEST PUSH1 0x40 MLOAD PUSH3 0x461BCD PUSH1 0xE5 SHL DUP2 MSTORE PUSH1 0x20 PUSH1 0x4 DUP3 ADD MSTORE PUSH1 0x10 PUSH1 0x24 DUP3 ADD MSTORE PUSH16 0x4E6F7468696E6720746F20636C61696D PUSH1 0x80 SHL PUSH1 0x44 DUP3 ADD MSTORE PUSH1 0x64 SWAP1 REVERT JUMPDEST PUSH1 0x40 MLOAD PUSH3 0x461BCD PUSH1 0xE5 SHL DUP2 MSTORE PUSH1 0x20 PUSH1 0x4 DUP3 ADD MSTORE PUSH1 0x12 PUSH1 0x24 DUP3 ADD MSTORE PUSH18 0x1499599D5B99081B9BDD08195B98589B1959 PUSH1 0x72 SHL PUSH1 0x44 DUP3 ADD MSTORE PUSH1 0x64 SWAP1 REVERT JUMPDEST CALLVALUE PUSH2 0x37D JUMPI PUSH1 0x0 CALLDATASIZE PUSH1 0x3 NOT ADD SLT PUSH2 0x37D JUMPI PUSH1 0x20 SWAP1 PUSH1 0x6 SLOAD DUP2 MSTORE RETURN JUMPDEST PUSH1 0x4 CALLDATALOAD SWAP1 PUSH1 0x1 PUSH1 0x1 PUSH1 0xA0 SHL SUB DUP3 AND DUP3 SUB PUSH2 0x37D JUMPI JUMP JUMPDEST SWAP2 DUP2 PUSH1 0x1F DUP5 ADD SLT ISZERO PUSH2 0x37D JUMPI DUP3 CALLDATALOAD SWAP2 PUSH8 0xFFFFFFFFFFFFFFFF DUP4 GT PUSH2 0x37D JUMPI PUSH1 0x20 DUP1 DUP6 ADD SWAP5 DUP5 PUSH1 0x5 SHL ADD ADD GT PUSH2 0x37D JUMPI JUMP JUMPDEST PUSH1 0x6 SLOAD DUP2 LT ISZERO PUSH2 0x1067 JUMPI PUSH1 0x7 SWAP1 PUSH1 0x6 PUSH1 0x0 MSTORE MUL PUSH32 0xF652222313E28459528D920B65115C16C04F3EFC82AAEDC97BE59F3F377C0D3F ADD SWAP1 PUSH1 0x0 SWAP1 JUMP JUMPDEST PUSH4 0x4E487B71 PUSH1 0xE0 SHL PUSH1 0x0 MSTORE PUSH1 0x32 PUSH1 0x4 MSTORE PUSH1 0x24 PUSH1 0x0 REVERT JUMPDEST SWAP1 PUSH1 0x1 DUP3 DUP2 SHR SWAP3 AND DUP1 ISZERO PUSH2 0x10AD JUMPI JUMPDEST PUSH1 0x20 DUP4 LT EQ PUSH2 0x1097 JUMPI JUMP JUMPDEST PUSH4 0x4E487B71 PUSH1 0xE0 SHL PUSH1 0x0 MSTORE PUSH1 0x22 PUSH1 0x4 MSTORE PUSH1 0x24 PUSH1 0x0 REVERT JUMPDEST SWAP2 PUSH1 0x7F AND SWAP2 PUSH2 0x108C JUMP JUMPDEST SWAP1 PUSH1 0x1F DUP1 NOT SWAP2 ADD AND DUP2 ADD SWAP1 DUP2 LT PUSH8 0xFFFFFFFFFFFFFFFF DUP3 GT OR PUSH2 0x8DF JUMPI PUSH1 0x40 MSTORE JUMP JUMPDEST SWAP1 PUSH1 0x40 MLOAD SWAP2 DUP3 PUSH1 0x0 DUP3 SLOAD SWAP3 PUSH2 0x10ED DUP5 PUSH2 0x107D JUMP JUMPDEST SWAP1 DUP2 DUP5 MSTORE PUSH1 0x1 SWAP5 DUP6 DUP2 AND SWAP1 DUP2 PUSH1 0x0 EQ PUSH2 0x115C JUMPI POP PUSH1 0x1 EQ PUSH2 0x1119 JUMPI JUMPDEST POP POP PUSH2 0x1117 SWAP3 POP SUB DUP4 PUSH2 0x10B7 JUMP JUMPDEST JUMP JUMPDEST SWAP1 SWAP4 SWAP2 POP PUSH1 0x0 MSTORE PUSH1 0x20 SWAP1 DUP2 PUSH1 0x0 KECCAK256 SWAP4 PUSH1 0x0 SWAP2 JUMPDEST DUP2 DUP4 LT PUSH2 0x1144 JUMPI POP POP PUSH2 0x1117 SWAP4 POP DUP3 ADD ADD CODESIZE DUP1 PUSH2 0x1109 JUMP JUMPDEST DUP6 SLOAD DUP9 DUP5 ADD DUP6 ADD MSTORE SWAP5 DUP6 ADD SWAP5 DUP8 SWAP5 POP SWAP2 DUP4 ADD SWAP2 PUSH2 0x112C JUMP JUMPDEST SWAP2 POP POP PUSH2 0x1117 SWAP5 POP PUSH1 0x20 SWAP3 POP PUSH1 0xFF NOT AND DUP3 DUP5 ADD MSTORE ISZERO ISZERO PUSH1 0x5 SHL DUP3 ADD ADD CODESIZE DUP1 PUSH2 0x1109 JUMP JUMPDEST SWAP2 SWAP1 DUP3 MLOAD SWAP3 DUP4 DUP3 MSTORE PUSH1 0x0 JUMPDEST DUP5 DUP2 LT PUSH2 0x11AB JUMPI POP POP DUP3 PUSH1 0x0 PUSH1 0x20 DUP1 SWAP5 SWAP6 DUP5 ADD ADD MSTORE PUSH1 0x1F DUP1 NOT SWAP2 ADD AND ADD ADD SWAP1 JUMP JUMPDEST PUSH1 0x20 DUP2 DUP4 ADD DUP2 ADD MLOAD DUP5 DUP4 ADD DUP3 ADD MSTORE ADD PUSH2 0x118A JUMP JUMPDEST PUSH1 0x0 SLOAD PUSH1 0x1 PUSH1 0x1 PUSH1 0xA0 SHL SUB AND CALLER SUB PUSH2 0x11D3 JUMPI JUMP JUMPDEST PUSH1 0x40 MLOAD PUSH4 0x118CDAA7 PUSH1 0xE0 SHL DUP2 MSTORE CALLER PUSH1 0x4 DUP3 ADD MSTORE PUSH1 0x24 SWAP1 REVERT JUMPDEST SWAP2 SWAP1 DUP3 ADD DUP1 SWAP3 GT PUSH2 0x851 JUMPI JUMP JUMPDEST SWAP2 SWAP1 DUP2 LT ISZERO PUSH2 0x1067 JUMPI PUSH1 0x5 SHL DUP2 ADD CALLDATALOAD SWAP1 PUSH1 0x1E NOT DUP2 CALLDATASIZE SUB ADD DUP3 SLT ISZERO PUSH2 0x37D JUMPI ADD SWAP1 DUP2 CALLDATALOAD SWAP2 PUSH8 0xFFFFFFFFFFFFFFFF DUP4 GT PUSH2 0x37D JUMPI PUSH1 0x20 ADD DUP3 CALLDATASIZE SUB DUP2 SGT PUSH2 0x37D JUMPI SWAP2 SWAP1 JUMP JUMPDEST SWAP2 SWAP1 DUP2 LT ISZERO PUSH2 0x1067 JUMPI PUSH1 0x5 SHL ADD SWAP1 JUMP JUMPDEST PUSH8 0xFFFFFFFFFFFFFFFF DUP2 GT PUSH2 0x8DF JUMPI PUSH1 0x1F ADD PUSH1 0x1F NOT AND PUSH1 0x20 ADD SWAP1 JUMP JUMPDEST SWAP1 PUSH1 0x1F DUP2 GT PUSH2 0x1274 JUMPI POP POP POP JUMP JUMPDEST PUSH1 0x0 SWAP2 DUP3 MSTORE PUSH1 0x20 DUP3 KECCAK256 SWAP1 PUSH1 0x20 PUSH1 0x1F DUP6 ADD PUSH1 0x5 SHR DUP4 ADD SWAP5 LT PUSH2 0x12B0 JUMPI JUMPDEST PUSH1 0x1F ADD PUSH1 0x5 SHR ADD SWAP2 JUMPDEST DUP3 DUP2 LT PUSH2 0x12A5 JUMPI POP POP POP JUMP JUMPDEST DUP2 DUP2 SSTORE PUSH1 0x1 ADD PUSH2 0x1299 JUMP JUMPDEST SWAP1 SWAP3 POP DUP3 SWAP1 PUSH2 0x1290 JUMP JUMPDEST ISZERO PUSH2 0x12C1 JUMPI JUMP JUMPDEST PUSH1 0x40 MLOAD PUSH3 0x461BCD PUSH1 0xE5 SHL DUP2 MSTORE PUSH1 0x20 PUSH1 0x4 DUP3 ADD MSTORE PUSH1 0x11 PUSH1 0x24 DUP3 ADD MSTORE PUSH17 0x496E76616C6964206D696C6573746F6E65 PUSH1 0x78 SHL PUSH1 0x44 DUP3 ADD MSTORE PUSH1 0x64 SWAP1 REVERT JUMPDEST ISZERO PUSH2 0x1301 JUMPI JUMP JUMPDEST PUSH1 0x40 MLOAD PUSH3 0x461BCD PUSH1 0xE5 SHL DUP2 MSTORE PUSH1 0x20 PUSH1 0x4 DUP3 ADD MSTORE PUSH1 0x10 PUSH1 0x24 DUP3 ADD MSTORE PUSH16 0x105B1C9958591E481C995B19585CD959 PUSH1 0x82 SHL PUSH1 0x44 DUP3 ADD MSTORE PUSH1 0x64 SWAP1 REVERT JUMPDEST ISZERO PUSH2 0x1340 JUMPI JUMP JUMPDEST PUSH1 0x40 MLOAD PUSH3 0x461BCD PUSH1 0xE5 SHL DUP2 MSTORE PUSH1 0x20 PUSH1 0x4 DUP3 ADD MSTORE PUSH1 0x11 PUSH1 0x24 DUP3 ADD MSTORE PUSH17 0x141C9BDA9958DD081A5CC81ADA5B1B1959 PUSH1 0x7A SHL PUSH1 0x44 DUP3 ADD MSTORE PUSH1 0x64 SWAP1 REVERT JUMPDEST DUP2 DUP2 MUL SWAP3 SWAP2 DUP2 ISZERO SWAP2 DUP5 DIV EQ OR ISZERO PUSH2 0x851 JUMPI JUMP JUMPDEST RETURNDATASIZE ISZERO PUSH2 0x13B7 JUMPI RETURNDATASIZE SWAP1 PUSH2 0x139D DUP3 PUSH2 0x124A JUMP JUMPDEST SWAP2 PUSH2 0x13AB PUSH1 0x40 MLOAD SWAP4 DUP5 PUSH2 0x10B7 JUMP JUMPDEST DUP3 MSTORE RETURNDATASIZE PUSH1 0x0 PUSH1 0x20 DUP5 ADD RETURNDATACOPY JUMP JUMPDEST PUSH1 0x60 SWAP1 JUMP JUMPDEST PUSH2 0x13C9 PUSH1 0x6 SLOAD DUP3 LT PUSH2 0x12BA JUMP JUMPDEST PUSH2 0x13D2 DUP2 PUSH2 0x102C JUMP JUMPDEST POP PUSH1 0x2 DUP2 ADD PUSH2 0x13E5 PUSH1 0xFF DUP3 SLOAD AND ISZERO PUSH2 0x12FA JUMP JUMPDEST PUSH1 0x5 SLOAD PUSH2 0x13F8 PUSH1 0xFF DUP3 PUSH1 0x8 SHR AND ISZERO PUSH2 0x1339 JUMP JUMPDEST PUSH1 0x3 DUP4 ADD SLOAD PUSH1 0x9 SLOAD PUSH1 0x1 SHR LT SWAP1 PUSH1 0x5 DUP5 ADD SLOAD TIMESTAMP GT DUP1 PUSH2 0x1593 JUMPI JUMPDEST PUSH2 0x1535 JUMPI POP ISZERO PUSH2 0x14F0 JUMPI PUSH1 0x64 SWAP2 PUSH2 0x143C SWAP2 PUSH1 0x1 PUSH1 0xFF NOT DUP3 SLOAD AND OR SWAP1 SSTORE PUSH1 0x1 PUSH1 0x2 SLOAD SWAP2 ADD SLOAD SWAP1 PUSH2 0x1379 JUMP JUMPDEST DIV PUSH2 0x1449 DUP2 PUSH1 0x3 SLOAD PUSH2 0x11EB JUMP JUMPDEST PUSH1 0x3 SSTORE TIMESTAMP PUSH1 0x4 SSTORE PUSH1 0x0 DUP1 DUP1 DUP1 DUP5 PUSH32 0x0 GAS CALL PUSH2 0x1481 PUSH2 0x138C JUMP JUMPDEST POP ISZERO PUSH2 0x14B9 JUMPI PUSH32 0x9E069181C12760C2CD0078ED4FACDBE1F3614543B0FBFF5DBCAC3CBC61A0B64E SWAP2 PUSH1 0x40 SWAP2 DUP3 MLOAD SWAP2 DUP3 MSTORE PUSH1 0x20 DUP3 ADD MSTORE LOG1 JUMP JUMPDEST PUSH1 0x40 MLOAD PUSH3 0x461BCD PUSH1 0xE5 SHL DUP2 MSTORE PUSH1 0x20 PUSH1 0x4 DUP3 ADD MSTORE PUSH1 0xF PUSH1 0x24 DUP3 ADD MSTORE PUSH15 0x151C985B9CD9995C8819985A5B1959 PUSH1 0x8A SHL PUSH1 0x44 DUP3 ADD MSTORE PUSH1 0x64 SWAP1 REVERT JUMPDEST PUSH1 0x40 MLOAD PUSH3 0x461BCD PUSH1 0xE5 SHL DUP2 MSTORE PUSH1 0x20 PUSH1 0x4 DUP3 ADD MSTORE PUSH1 0x19 PUSH1 0x24 DUP3 ADD MSTORE PUSH32 0x4E6F7420656E6F75676820617070726F76616C20766F74657300000000000000 PUSH1 0x44 DUP3 ADD MSTORE PUSH1 0x64 SWAP1 REVERT JUMPDEST SWAP3 POP POP POP PUSH2 0x101 SWAP2 POP PUSH2 0xFFFF NOT AND OR PUSH1 0x5 SSTORE PUSH32 0x34B5206E8C16CEA8F036F3109B119DED73ADE9F07BDAEF7D7F4F81CFCD332DDF PUSH1 0x60 PUSH1 0x40 MLOAD PUSH1 0x20 DUP2 MSTORE PUSH1 0xF PUSH1 0x20 DUP3 ADD MSTORE PUSH15 0x111958591B1A5B99481B5A5CDCD959 PUSH1 0x8A SHL PUSH1 0x40 DUP3 ADD MSTORE LOG1 JUMP JUMPDEST POP DUP2 ISZERO PUSH2 0x1412 JUMP JUMPDEST PUSH1 0x2 PUSH1 0x1 SLOAD EQ PUSH2 0x15AC JUMPI PUSH1 0x2 PUSH1 0x1 SSTORE JUMP JUMPDEST PUSH1 0x40 MLOAD PUSH4 0x3EE5AEB5 PUSH1 0xE0 SHL DUP2 MSTORE PUSH1 0x4 SWAP1 REVERT INVALID LOG2 PUSH5 0x6970667358 0x22 SLT KECCAK256 0xEB SDIV SLT PUSH11 0x9D803708F99CDDEA53DF11 0xB2 REVERT 0x4A COINBASE DUP9 DUP9 0xBC 0xA9 GT INVALID MSIZE LT DUP14 SWAP15 0xFB 0xBD 0x2E PUSH5 0x736F6C6343 STOP ADDMOD EQ STOP CALLER "},"methodIdentifiers":{"INACTIVITY_THRESHOLD()":"aa4103e2","addContribution(address,uint256)":"39ecacac","addMilestones(string[],uint256[],uint256[])":"c819ebd8","claimEmergencyRefund()":"105fd61f","contributions(address)":"42e94c90","emergencyRefundEnabled()":"6c155769","enableEmergencyRefund()":"15aaec0b","getMilestonesCount()":"0b49351c","hasVoted(uint256,address)":"43859632","lastMilestoneClaimTimestamp()":"74845ab1","milestones(uint256)":"e89e4ed6","owner()":"8da5cb5b","projectAddress()":"3cf96af1","projectKilled()":"28f5678e","releaseMilestone(uint256)":"317debf5","renounceOwnership()":"715018a6","submitProofOfWork(uint256,string)":"125eec3e","totalFundsRaised()":"427c0c7f","totalReleasedFunds()":"d92a9a3e","totalVotingPower()":"671b3793","transferOwnership(address)":"f2fde38b","voteForRelease(uint256,bool)":"f48e81e8"}}}}}