{"contracts/Vesting.sol":{"Vesting":{"abi":[{"inputs":[{"internalType":"address","name":"initialOwner","type":"address"}],"stateMutability":"nonpayable","type":"constructor"},{"inputs":[{"internalType":"address","name":"owner","type":"address"}],"name":"OwnableInvalidOwner","type":"error"},{"inputs":[{"internalType":"address","name":"account","type":"address"}],"name":"OwnableUnauthorizedAccount","type":"error"},{"inputs":[],"name":"ReentrancyGuardReentrantCall","type":"error"},{"inputs":[{"internalType":"address","name":"token","type":"address"}],"name":"SafeERC20FailedOperation","type":"error"},{"anonymous":false,"inputs":[{"indexed":true,"internalType":"address","name":"previousOwner","type":"address"},{"indexed":true,"internalType":"address","name":"newOwner","type":"address"}],"name":"OwnershipTransferred","type":"event"},{"anonymous":false,"inputs":[{"indexed":true,"internalType":"uint256","name":"vestingId","type":"uint256"},{"indexed":false,"internalType":"uint256","name":"amount","type":"uint256"}],"name":"Released","type":"event"},{"anonymous":false,"inputs":[{"indexed":true,"internalType":"uint256","name":"vestingId","type":"uint256"},{"indexed":true,"internalType":"address","name":"beneficiary","type":"address"},{"indexed":false,"internalType":"uint256","name":"totalAmount","type":"uint256"},{"indexed":false,"internalType":"uint256","name":"start","type":"uint256"},{"indexed":false,"internalType":"uint256","name":"duration","type":"uint256"}],"name":"VestingCreated","type":"event"},{"inputs":[{"internalType":"address","name":"beneficiary","type":"address"},{"internalType":"address","name":"token","type":"address"},{"internalType":"uint256","name":"totalAmount","type":"uint256"},{"internalType":"address","name":"source","type":"address"},{"internalType":"uint256","name":"start","type":"uint256"},{"internalType":"uint256","name":"cliff","type":"uint256"},{"internalType":"uint256","name":"duration","type":"uint256"}],"name":"createVesting","outputs":[{"internalType":"uint256","name":"","type":"uint256"}],"stateMutability":"nonpayable","type":"function"},{"inputs":[],"name":"nextScheduleId","outputs":[{"internalType":"uint256","name":"","type":"uint256"}],"stateMutability":"view","type":"function"},{"inputs":[],"name":"owner","outputs":[{"internalType":"address","name":"","type":"address"}],"stateMutability":"view","type":"function"},{"inputs":[{"internalType":"address","name":"tokenAddress","type":"address"},{"internalType":"uint256","name":"tokenAmount","type":"uint256"}],"name":"recoverERC20","outputs":[],"stateMutability":"nonpayable","type":"function"},{"inputs":[{"internalType":"uint256","name":"vestingId","type":"uint256"}],"name":"releasableAmount","outputs":[{"internalType":"uint256","name":"","type":"uint256"}],"stateMutability":"view","type":"function"},{"inputs":[{"internalType":"uint256","name":"vestingId","type":"uint256"}],"name":"release","outputs":[],"stateMutability":"nonpayable","type":"function"},{"inputs":[],"name":"renounceOwnership","outputs":[],"stateMutability":"nonpayable","type":"function"},{"inputs":[{"internalType":"uint256","name":"","type":"uint256"}],"name":"schedules","outputs":[{"internalType":"address","name":"beneficiary","type":"address"},{"internalType":"address","name":"token","type":"address"},{"internalType":"uint256","name":"totalAmount","type":"uint256"},{"internalType":"uint256","name":"start","type":"uint256"},{"internalType":"uint256","name":"cliff","type":"uint256"},{"internalType":"uint256","name":"duration","type":"uint256"},{"internalType":"uint256","name":"released","type":"uint256"}],"stateMutability":"view","type":"function"},{"inputs":[{"internalType":"address","name":"newOwner","type":"address"}],"name":"transferOwnership","outputs":[],"stateMutability":"nonpayable","type":"function"}],"evm":{"bytecode":{"linkReferences":{},"object":"6080346100bf57601f61097538819003918201601f19168301916001600160401b038311848410176100c4578084926020946040528339810103126100bf57516001600160a01b0390818116908190036100bf5780156100a657600080546001600160a01b03198116831782556040519316907f8be0079c531659141344cd1fd0a4f28419497f9722a3daafe3b4186f6b6457e09080a36001805561089a90816100db8239f35b604051631e4fbdf760e01b815260006004820152602490fd5b600080fd5b634e487b7160e01b600052604160045260246000fdfe6080604081815260048036101561001557600080fd5b600092833560e01c9081630f038d41146106295750806337bdc99b146105065780635927fca2146104df578063715018a6146104855780638980f11f146104435780638da5cb5b1461041b578063bc4e568a14610180578063bdc6d9ab1461010f5763f2fde38b1461008657600080fd5b3461010b57602036600319011261010b5761009f610645565b906100a8610660565b6001600160a01b039182169283156100f557505082546001600160a01b0319811683178455167f8be0079c531659141344cd1fd0a4f28419497f9722a3daafe3b4186f6b6457e08380a380f35b51631e4fbdf760e01b8152908101849052602490fd5b8280fd5b503461010b57602036600319011261010b578160e0938235815260036020522060018060a01b03928382541693600183015416926002830154600384015491840154926006600586015495015495815197885260208801528601526060850152608084015260a083015260c0820152f35b50903461010b5760e036600319011261010b5761019b610645565b6001600160a01b036024803582811696929593929190879003610417576044359660649687359281841680940361041357608435948260c435976101dd610660565b6101e56106f4565b169788156103dc578b156103a657871561036e576002549a6000198c1461035d5760018c016002558a5167ffffffffffffffff9560e082018781118382101761034b578f8f8f8f928f938f9296808f92986006998e9982528b5260208b01938452808b0194855260608b0195865260808b019660a435885260a08c0198895260c08c0199808b525260036020528d20995116906bffffffffffffffffffffffff60a01b91828b5416178a5560018a01925116908254161790555160028701555160038601555186850155516005840155519101558a51966323b872dd60e01b6020890152848801523060448801528c81880152865260a08601938685109085111761033b57505050937ffad9286b8a0c21fb92a92ecbf564a2091a54a2d2f65eb5ba126253eb6bb815949361032360609460209b948b988b5261068c565b87519283528983015286820152a36001805551908152f35b634e487b7160e01b825260419052fd5b634e487b7160e01b8652604185528686fd5b50634e487b7160e01b825260119052fd5b8a9060148460208d519362461bcd60e51b85528401528201527304475726174696f6e206d757374206265203e20360641b6044820152fd5b8a9060128460208d519362461bcd60e51b8552840152820152710416d6f756e74206d757374206265203e20360741b6044820152fd5b8a9060138460208d519362461bcd60e51b855284015282015272496e76616c69642062656e656669636961727960681b6044820152fd5b8480fd5b5080fd5b505034610417578160031936011261041757905490516001600160a01b039091168152602090f35b505034610417573660031901126104825761047f61045f610645565b610467610660565b8254602435916001600160a01b0391821691166107fc565b80f35b80fd5b833461048257806003193601126104825761049e610660565b80546001600160a01b03198116825581906001600160a01b03167f8be0079c531659141344cd1fd0a4f28419497f9722a3daafe3b4186f6b6457e08280a380f35b50913461048257602036600319011261048257506104ff60209235610747565b9051908152f35b503461010b57602036600319011261010b578035916105236106f4565b828452600360205280842080546001600160a01b0390811691338314801561061d575b156105e95761055486610747565b9485156105af5750847fd5840651550c173a8bf246eede440a59253bc61eadb2e8887168faad2fad631d95936020959360018460066105a39601610599868254610717565b90550154166107fc565b51908152a26001805580f35b606490602086519162461bcd60e51b83528201526014602482015273139bc81c995b19585cd8589b1948185b5bdd5b9d60621b6044820152fd5b835162461bcd60e51b8152602081870152600e60248201526d139bdd08185d5d1a1bdc9a5e995960921b6044820152606490fd5b50818754163314610546565b8490346104175781600319360112610417576020906002548152f35b600435906001600160a01b038216820361065b57565b600080fd5b6000546001600160a01b0316330361067457565b60405163118cdaa760e01b8152336004820152602490fd5b906000602091828151910182855af1156106e8576000513d6106df57506001600160a01b0381163b155b6106bd5750565b604051635274afe760e01b81526001600160a01b039091166004820152602490fd5b600114156106b6565b6040513d6000823e3d90fd5b600260015414610705576002600155565b604051633ee5aeb560e01b8152600490fd5b9190820180921161072457565b634e487b7160e01b600052601160045260246000fd5b9190820391821161072457565b90600091825260036020526040822091600383015461076a600485015482610717565b42106107f75761077a904261073a565b600584015490918183106107a3575050509080600660026107a09301549101549061073a565b90565b60028501548381029381850414901517156107e35781156107cf575060066107a093940154910461073a565b634e487b7160e01b81526012600452602490fd5b634e487b7160e01b81526011600452602490fd5b509150565b60405163a9059cbb60e01b60208201526001600160a01b039092166024830152604480830193909352918152608081019167ffffffffffffffff83118284101761084e5761084c9260405261068c565b565b634e487b7160e01b600052604160045260246000fdfea26469706673582212203379ec8332177070ff4df775b20dc34410384a1f63ed9e44ad9750e86880c29664736f6c63430008140033","opcodes":"PUSH1 0x80 CALLVALUE PUSH2 0xBF JUMPI PUSH1 0x1F PUSH2 0x975 CODESIZE DUP2 SWAP1 SUB SWAP2 DUP3 ADD PUSH1 0x1F NOT AND DUP4 ADD SWAP2 PUSH1 0x1 PUSH1 0x1 PUSH1 0x40 SHL SUB DUP4 GT DUP5 DUP5 LT OR PUSH2 0xC4 JUMPI DUP1 DUP5 SWAP3 PUSH1 0x20 SWAP5 PUSH1 0x40 MSTORE DUP4 CODECOPY DUP2 ADD SUB SLT PUSH2 0xBF JUMPI MLOAD PUSH1 0x1 PUSH1 0x1 PUSH1 0xA0 SHL SUB SWAP1 DUP2 DUP2 AND SWAP1 DUP2 SWAP1 SUB PUSH2 0xBF JUMPI DUP1 ISZERO PUSH2 0xA6 JUMPI PUSH1 0x0 DUP1 SLOAD PUSH1 0x1 PUSH1 0x1 PUSH1 0xA0 SHL SUB NOT DUP2 AND DUP4 OR DUP3 SSTORE PUSH1 0x40 MLOAD SWAP4 AND SWAP1 PUSH32 0x8BE0079C531659141344CD1FD0A4F28419497F9722A3DAAFE3B4186F6B6457E0 SWAP1 DUP1 LOG3 PUSH1 0x1 DUP1 SSTORE PUSH2 0x89A SWAP1 DUP2 PUSH2 0xDB DUP3 CODECOPY RETURN JUMPDEST PUSH1 0x40 MLOAD PUSH4 0x1E4FBDF7 PUSH1 0xE0 SHL DUP2 MSTORE PUSH1 0x0 PUSH1 0x4 DUP3 ADD MSTORE PUSH1 0x24 SWAP1 REVERT JUMPDEST PUSH1 0x0 DUP1 REVERT JUMPDEST PUSH4 0x4E487B71 PUSH1 0xE0 SHL PUSH1 0x0 MSTORE PUSH1 0x41 PUSH1 0x4 MSTORE PUSH1 0x24 PUSH1 0x0 REVERT INVALID PUSH1 0x80 PUSH1 0x40 DUP2 DUP2 MSTORE PUSH1 0x4 DUP1 CALLDATASIZE LT ISZERO PUSH2 0x15 JUMPI PUSH1 0x0 DUP1 REVERT JUMPDEST PUSH1 0x0 SWAP3 DUP4 CALLDATALOAD PUSH1 0xE0 SHR SWAP1 DUP2 PUSH4 0xF038D41 EQ PUSH2 0x629 JUMPI POP DUP1 PUSH4 0x37BDC99B EQ PUSH2 0x506 JUMPI DUP1 PUSH4 0x5927FCA2 EQ PUSH2 0x4DF JUMPI DUP1 PUSH4 0x715018A6 EQ PUSH2 0x485 JUMPI DUP1 PUSH4 0x8980F11F EQ PUSH2 0x443 JUMPI DUP1 PUSH4 0x8DA5CB5B EQ PUSH2 0x41B JUMPI DUP1 PUSH4 0xBC4E568A EQ PUSH2 0x180 JUMPI DUP1 PUSH4 0xBDC6D9AB EQ PUSH2 0x10F JUMPI PUSH4 0xF2FDE38B EQ PUSH2 0x86 JUMPI PUSH1 0x0 DUP1 REVERT JUMPDEST CALLVALUE PUSH2 0x10B JUMPI PUSH1 0x20 CALLDATASIZE PUSH1 0x3 NOT ADD SLT PUSH2 0x10B JUMPI PUSH2 0x9F PUSH2 0x645 JUMP JUMPDEST SWAP1 PUSH2 0xA8 PUSH2 0x660 JUMP JUMPDEST PUSH1 0x1 PUSH1 0x1 PUSH1 0xA0 SHL SUB SWAP2 DUP3 AND SWAP3 DUP4 ISZERO PUSH2 0xF5 JUMPI POP POP DUP3 SLOAD PUSH1 0x1 PUSH1 0x1 PUSH1 0xA0 SHL SUB NOT DUP2 AND DUP4 OR DUP5 SSTORE AND PUSH32 0x8BE0079C531659141344CD1FD0A4F28419497F9722A3DAAFE3B4186F6B6457E0 DUP4 DUP1 LOG3 DUP1 RETURN JUMPDEST MLOAD PUSH4 0x1E4FBDF7 PUSH1 0xE0 SHL DUP2 MSTORE SWAP1 DUP2 ADD DUP5 SWAP1 MSTORE PUSH1 0x24 SWAP1 REVERT JUMPDEST DUP3 DUP1 REVERT JUMPDEST POP CALLVALUE PUSH2 0x10B JUMPI PUSH1 0x20 CALLDATASIZE PUSH1 0x3 NOT ADD SLT PUSH2 0x10B JUMPI DUP2 PUSH1 0xE0 SWAP4 DUP3 CALLDATALOAD DUP2 MSTORE PUSH1 0x3 PUSH1 0x20 MSTORE KECCAK256 PUSH1 0x1 DUP1 PUSH1 0xA0 SHL SUB SWAP3 DUP4 DUP3 SLOAD AND SWAP4 PUSH1 0x1 DUP4 ADD SLOAD AND SWAP3 PUSH1 0x2 DUP4 ADD SLOAD PUSH1 0x3 DUP5 ADD SLOAD SWAP2 DUP5 ADD SLOAD SWAP3 PUSH1 0x6 PUSH1 0x5 DUP7 ADD SLOAD SWAP6 ADD SLOAD SWAP6 DUP2 MLOAD SWAP8 DUP9 MSTORE PUSH1 0x20 DUP9 ADD MSTORE DUP7 ADD MSTORE PUSH1 0x60 DUP6 ADD MSTORE PUSH1 0x80 DUP5 ADD MSTORE PUSH1 0xA0 DUP4 ADD MSTORE PUSH1 0xC0 DUP3 ADD MSTORE RETURN JUMPDEST POP SWAP1 CALLVALUE PUSH2 0x10B JUMPI PUSH1 0xE0 CALLDATASIZE PUSH1 0x3 NOT ADD SLT PUSH2 0x10B JUMPI PUSH2 0x19B PUSH2 0x645 JUMP JUMPDEST PUSH1 0x1 PUSH1 0x1 PUSH1 0xA0 SHL SUB PUSH1 0x24 DUP1 CALLDATALOAD DUP3 DUP2 AND SWAP7 SWAP3 SWAP6 SWAP4 SWAP3 SWAP2 SWAP1 DUP8 SWAP1 SUB PUSH2 0x417 JUMPI PUSH1 0x44 CALLDATALOAD SWAP7 PUSH1 0x64 SWAP7 DUP8 CALLDATALOAD SWAP3 DUP2 DUP5 AND DUP1 SWAP5 SUB PUSH2 0x413 JUMPI PUSH1 0x84 CALLDATALOAD SWAP5 DUP3 PUSH1 0xC4 CALLDATALOAD SWAP8 PUSH2 0x1DD PUSH2 0x660 JUMP JUMPDEST PUSH2 0x1E5 PUSH2 0x6F4 JUMP JUMPDEST AND SWAP8 DUP9 ISZERO PUSH2 0x3DC JUMPI DUP12 ISZERO PUSH2 0x3A6 JUMPI DUP8 ISZERO PUSH2 0x36E JUMPI PUSH1 0x2 SLOAD SWAP11 PUSH1 0x0 NOT DUP13 EQ PUSH2 0x35D JUMPI PUSH1 0x1 DUP13 ADD PUSH1 0x2 SSTORE DUP11 MLOAD PUSH8 0xFFFFFFFFFFFFFFFF SWAP6 PUSH1 0xE0 DUP3 ADD DUP8 DUP2 GT DUP4 DUP3 LT OR PUSH2 0x34B JUMPI DUP16 DUP16 DUP16 DUP16 SWAP3 DUP16 SWAP4 DUP16 SWAP3 SWAP7 DUP1 DUP16 SWAP3 SWAP9 PUSH1 0x6 SWAP10 DUP15 SWAP10 DUP3 MSTORE DUP12 MSTORE PUSH1 0x20 DUP12 ADD SWAP4 DUP5 MSTORE DUP1 DUP12 ADD SWAP5 DUP6 MSTORE PUSH1 0x60 DUP12 ADD SWAP6 DUP7 MSTORE PUSH1 0x80 DUP12 ADD SWAP7 PUSH1 0xA4 CALLDATALOAD DUP9 MSTORE PUSH1 0xA0 DUP13 ADD SWAP9 DUP10 MSTORE PUSH1 0xC0 DUP13 ADD SWAP10 DUP1 DUP12 MSTORE MSTORE PUSH1 0x3 PUSH1 0x20 MSTORE DUP14 KECCAK256 SWAP10 MLOAD AND SWAP1 PUSH12 0xFFFFFFFFFFFFFFFFFFFFFFFF PUSH1 0xA0 SHL SWAP2 DUP3 DUP12 SLOAD AND OR DUP11 SSTORE PUSH1 0x1 DUP11 ADD SWAP3 MLOAD AND SWAP1 DUP3 SLOAD AND OR SWAP1 SSTORE MLOAD PUSH1 0x2 DUP8 ADD SSTORE MLOAD PUSH1 0x3 DUP7 ADD SSTORE MLOAD DUP7 DUP6 ADD SSTORE MLOAD PUSH1 0x5 DUP5 ADD SSTORE MLOAD SWAP2 ADD SSTORE DUP11 MLOAD SWAP7 PUSH4 0x23B872DD PUSH1 0xE0 SHL PUSH1 0x20 DUP10 ADD MSTORE DUP5 DUP9 ADD MSTORE ADDRESS PUSH1 0x44 DUP9 ADD MSTORE DUP13 DUP2 DUP9 ADD MSTORE DUP7 MSTORE PUSH1 0xA0 DUP7 ADD SWAP4 DUP7 DUP6 LT SWAP1 DUP6 GT OR PUSH2 0x33B JUMPI POP POP POP SWAP4 PUSH32 0xFAD9286B8A0C21FB92A92ECBF564A2091A54A2D2F65EB5BA126253EB6BB81594 SWAP4 PUSH2 0x323 PUSH1 0x60 SWAP5 PUSH1 0x20 SWAP12 SWAP5 DUP12 SWAP9 DUP12 MSTORE PUSH2 0x68C JUMP JUMPDEST DUP8 MLOAD SWAP3 DUP4 MSTORE DUP10 DUP4 ADD MSTORE DUP7 DUP3 ADD MSTORE LOG3 PUSH1 0x1 DUP1 SSTORE MLOAD SWAP1 DUP2 MSTORE RETURN JUMPDEST PUSH4 0x4E487B71 PUSH1 0xE0 SHL DUP3 MSTORE PUSH1 0x41 SWAP1 MSTORE REVERT JUMPDEST PUSH4 0x4E487B71 PUSH1 0xE0 SHL DUP7 MSTORE PUSH1 0x41 DUP6 MSTORE DUP7 DUP7 REVERT JUMPDEST POP PUSH4 0x4E487B71 PUSH1 0xE0 SHL DUP3 MSTORE PUSH1 0x11 SWAP1 MSTORE REVERT JUMPDEST DUP11 SWAP1 PUSH1 0x14 DUP5 PUSH1 0x20 DUP14 MLOAD SWAP4 PUSH3 0x461BCD PUSH1 0xE5 SHL DUP6 MSTORE DUP5 ADD MSTORE DUP3 ADD MSTORE PUSH20 0x4475726174696F6E206D757374206265203E203 PUSH1 0x64 SHL PUSH1 0x44 DUP3 ADD MSTORE REVERT JUMPDEST DUP11 SWAP1 PUSH1 0x12 DUP5 PUSH1 0x20 DUP14 MLOAD SWAP4 PUSH3 0x461BCD PUSH1 0xE5 SHL DUP6 MSTORE DUP5 ADD MSTORE DUP3 ADD MSTORE PUSH18 0x416D6F756E74206D757374206265203E203 PUSH1 0x74 SHL PUSH1 0x44 DUP3 ADD MSTORE REVERT JUMPDEST DUP11 SWAP1 PUSH1 0x13 DUP5 PUSH1 0x20 DUP14 MLOAD SWAP4 PUSH3 0x461BCD PUSH1 0xE5 SHL DUP6 MSTORE DUP5 ADD MSTORE DUP3 ADD MSTORE PUSH19 0x496E76616C69642062656E6566696369617279 PUSH1 0x68 SHL PUSH1 0x44 DUP3 ADD MSTORE REVERT JUMPDEST DUP5 DUP1 REVERT JUMPDEST POP DUP1 REVERT JUMPDEST POP POP CALLVALUE PUSH2 0x417 JUMPI DUP2 PUSH1 0x3 NOT CALLDATASIZE ADD SLT PUSH2 0x417 JUMPI SWAP1 SLOAD SWAP1 MLOAD PUSH1 0x1 PUSH1 0x1 PUSH1 0xA0 SHL SUB SWAP1 SWAP2 AND DUP2 MSTORE PUSH1 0x20 SWAP1 RETURN JUMPDEST POP POP CALLVALUE PUSH2 0x417 JUMPI CALLDATASIZE PUSH1 0x3 NOT ADD SLT PUSH2 0x482 JUMPI PUSH2 0x47F PUSH2 0x45F PUSH2 0x645 JUMP JUMPDEST PUSH2 0x467 PUSH2 0x660 JUMP JUMPDEST DUP3 SLOAD PUSH1 0x24 CALLDATALOAD SWAP2 PUSH1 0x1 PUSH1 0x1 PUSH1 0xA0 SHL SUB SWAP2 DUP3 AND SWAP2 AND PUSH2 0x7FC JUMP JUMPDEST DUP1 RETURN JUMPDEST DUP1 REVERT JUMPDEST DUP4 CALLVALUE PUSH2 0x482 JUMPI DUP1 PUSH1 0x3 NOT CALLDATASIZE ADD SLT PUSH2 0x482 JUMPI PUSH2 0x49E PUSH2 0x660 JUMP JUMPDEST DUP1 SLOAD PUSH1 0x1 PUSH1 0x1 PUSH1 0xA0 SHL SUB NOT DUP2 AND DUP3 SSTORE DUP2 SWAP1 PUSH1 0x1 PUSH1 0x1 PUSH1 0xA0 SHL SUB AND PUSH32 0x8BE0079C531659141344CD1FD0A4F28419497F9722A3DAAFE3B4186F6B6457E0 DUP3 DUP1 LOG3 DUP1 RETURN JUMPDEST POP SWAP2 CALLVALUE PUSH2 0x482 JUMPI PUSH1 0x20 CALLDATASIZE PUSH1 0x3 NOT ADD SLT PUSH2 0x482 JUMPI POP PUSH2 0x4FF PUSH1 0x20 SWAP3 CALLDATALOAD PUSH2 0x747 JUMP JUMPDEST SWAP1 MLOAD SWAP1 DUP2 MSTORE RETURN JUMPDEST POP CALLVALUE PUSH2 0x10B JUMPI PUSH1 0x20 CALLDATASIZE PUSH1 0x3 NOT ADD SLT PUSH2 0x10B JUMPI DUP1 CALLDATALOAD SWAP2 PUSH2 0x523 PUSH2 0x6F4 JUMP JUMPDEST DUP3 DUP5 MSTORE PUSH1 0x3 PUSH1 0x20 MSTORE DUP1 DUP5 KECCAK256 DUP1 SLOAD PUSH1 0x1 PUSH1 0x1 PUSH1 0xA0 SHL SUB SWAP1 DUP2 AND SWAP2 CALLER DUP4 EQ DUP1 ISZERO PUSH2 0x61D JUMPI JUMPDEST ISZERO PUSH2 0x5E9 JUMPI PUSH2 0x554 DUP7 PUSH2 0x747 JUMP JUMPDEST SWAP5 DUP6 ISZERO PUSH2 0x5AF JUMPI POP DUP5 PUSH32 0xD5840651550C173A8BF246EEDE440A59253BC61EADB2E8887168FAAD2FAD631D SWAP6 SWAP4 PUSH1 0x20 SWAP6 SWAP4 PUSH1 0x1 DUP5 PUSH1 0x6 PUSH2 0x5A3 SWAP7 ADD PUSH2 0x599 DUP7 DUP3 SLOAD PUSH2 0x717 JUMP JUMPDEST SWAP1 SSTORE ADD SLOAD AND PUSH2 0x7FC JUMP JUMPDEST MLOAD SWAP1 DUP2 MSTORE LOG2 PUSH1 0x1 DUP1 SSTORE DUP1 RETURN JUMPDEST PUSH1 0x64 SWAP1 PUSH1 0x20 DUP7 MLOAD SWAP2 PUSH3 0x461BCD PUSH1 0xE5 SHL DUP4 MSTORE DUP3 ADD MSTORE PUSH1 0x14 PUSH1 0x24 DUP3 ADD MSTORE PUSH20 0x139BC81C995B19585CD8589B1948185B5BDD5B9D PUSH1 0x62 SHL PUSH1 0x44 DUP3 ADD MSTORE REVERT JUMPDEST DUP4 MLOAD PUSH3 0x461BCD PUSH1 0xE5 SHL DUP2 MSTORE PUSH1 0x20 DUP2 DUP8 ADD MSTORE PUSH1 0xE PUSH1 0x24 DUP3 ADD MSTORE PUSH14 0x139BDD08185D5D1A1BDC9A5E9959 PUSH1 0x92 SHL PUSH1 0x44 DUP3 ADD MSTORE PUSH1 0x64 SWAP1 REVERT JUMPDEST POP DUP2 DUP8 SLOAD AND CALLER EQ PUSH2 0x546 JUMP JUMPDEST DUP5 SWAP1 CALLVALUE PUSH2 0x417 JUMPI DUP2 PUSH1 0x3 NOT CALLDATASIZE ADD SLT PUSH2 0x417 JUMPI PUSH1 0x20 SWAP1 PUSH1 0x2 SLOAD DUP2 MSTORE RETURN JUMPDEST PUSH1 0x4 CALLDATALOAD SWAP1 PUSH1 0x1 PUSH1 0x1 PUSH1 0xA0 SHL SUB DUP3 AND DUP3 SUB PUSH2 0x65B JUMPI JUMP JUMPDEST PUSH1 0x0 DUP1 REVERT JUMPDEST PUSH1 0x0 SLOAD PUSH1 0x1 PUSH1 0x1 PUSH1 0xA0 SHL SUB AND CALLER SUB PUSH2 0x674 JUMPI JUMP JUMPDEST PUSH1 0x40 MLOAD PUSH4 0x118CDAA7 PUSH1 0xE0 SHL DUP2 MSTORE CALLER PUSH1 0x4 DUP3 ADD MSTORE PUSH1 0x24 SWAP1 REVERT JUMPDEST SWAP1 PUSH1 0x0 PUSH1 0x20 SWAP2 DUP3 DUP2 MLOAD SWAP2 ADD DUP3 DUP6 GAS CALL ISZERO PUSH2 0x6E8 JUMPI PUSH1 0x0 MLOAD RETURNDATASIZE PUSH2 0x6DF JUMPI POP PUSH1 0x1 PUSH1 0x1 PUSH1 0xA0 SHL SUB DUP2 AND EXTCODESIZE ISZERO JUMPDEST PUSH2 0x6BD JUMPI POP JUMP JUMPDEST PUSH1 0x40 MLOAD PUSH4 0x5274AFE7 PUSH1 0xE0 SHL DUP2 MSTORE PUSH1 0x1 PUSH1 0x1 PUSH1 0xA0 SHL SUB SWAP1 SWAP2 AND PUSH1 0x4 DUP3 ADD MSTORE PUSH1 0x24 SWAP1 REVERT JUMPDEST PUSH1 0x1 EQ ISZERO PUSH2 0x6B6 JUMP JUMPDEST PUSH1 0x40 MLOAD RETURNDATASIZE PUSH1 0x0 DUP3 RETURNDATACOPY RETURNDATASIZE SWAP1 REVERT JUMPDEST PUSH1 0x2 PUSH1 0x1 SLOAD EQ PUSH2 0x705 JUMPI PUSH1 0x2 PUSH1 0x1 SSTORE JUMP JUMPDEST PUSH1 0x40 MLOAD PUSH4 0x3EE5AEB5 PUSH1 0xE0 SHL DUP2 MSTORE PUSH1 0x4 SWAP1 REVERT JUMPDEST SWAP2 SWAP1 DUP3 ADD DUP1 SWAP3 GT PUSH2 0x724 JUMPI JUMP JUMPDEST PUSH4 0x4E487B71 PUSH1 0xE0 SHL PUSH1 0x0 MSTORE PUSH1 0x11 PUSH1 0x4 MSTORE PUSH1 0x24 PUSH1 0x0 REVERT JUMPDEST SWAP2 SWAP1 DUP3 SUB SWAP2 DUP3 GT PUSH2 0x724 JUMPI JUMP JUMPDEST SWAP1 PUSH1 0x0 SWAP2 DUP3 MSTORE PUSH1 0x3 PUSH1 0x20 MSTORE PUSH1 0x40 DUP3 KECCAK256 SWAP2 PUSH1 0x3 DUP4 ADD SLOAD PUSH2 0x76A PUSH1 0x4 DUP6 ADD SLOAD DUP3 PUSH2 0x717 JUMP JUMPDEST TIMESTAMP LT PUSH2 0x7F7 JUMPI PUSH2 0x77A SWAP1 TIMESTAMP PUSH2 0x73A JUMP JUMPDEST PUSH1 0x5 DUP5 ADD SLOAD SWAP1 SWAP2 DUP2 DUP4 LT PUSH2 0x7A3 JUMPI POP POP POP SWAP1 DUP1 PUSH1 0x6 PUSH1 0x2 PUSH2 0x7A0 SWAP4 ADD SLOAD SWAP2 ADD SLOAD SWAP1 PUSH2 0x73A JUMP JUMPDEST SWAP1 JUMP JUMPDEST PUSH1 0x2 DUP6 ADD SLOAD DUP4 DUP2 MUL SWAP4 DUP2 DUP6 DIV EQ SWAP1 ISZERO OR ISZERO PUSH2 0x7E3 JUMPI DUP2 ISZERO PUSH2 0x7CF JUMPI POP PUSH1 0x6 PUSH2 0x7A0 SWAP4 SWAP5 ADD SLOAD SWAP2 DIV PUSH2 0x73A JUMP JUMPDEST PUSH4 0x4E487B71 PUSH1 0xE0 SHL DUP2 MSTORE PUSH1 0x12 PUSH1 0x4 MSTORE PUSH1 0x24 SWAP1 REVERT JUMPDEST PUSH4 0x4E487B71 PUSH1 0xE0 SHL DUP2 MSTORE PUSH1 0x11 PUSH1 0x4 MSTORE PUSH1 0x24 SWAP1 REVERT JUMPDEST POP SWAP2 POP JUMP JUMPDEST PUSH1 0x40 MLOAD PUSH4 0xA9059CBB PUSH1 0xE0 SHL PUSH1 0x20 DUP3 ADD MSTORE PUSH1 0x1 PUSH1 0x1 PUSH1 0xA0 SHL SUB SWAP1 SWAP3 AND PUSH1 0x24 DUP4 ADD MSTORE PUSH1 0x44 DUP1 DUP4 ADD SWAP4 SWAP1 SWAP4 MSTORE SWAP2 DUP2 MSTORE PUSH1 0x80 DUP2 ADD SWAP2 PUSH8 0xFFFFFFFFFFFFFFFF DUP4 GT DUP3 DUP5 LT OR PUSH2 0x84E JUMPI PUSH2 0x84C SWAP3 PUSH1 0x40 MSTORE PUSH2 0x68C JUMP JUMPDEST JUMP JUMPDEST PUSH4 0x4E487B71 PUSH1 0xE0 SHL PUSH1 0x0 MSTORE PUSH1 0x41 PUSH1 0x4 MSTORE PUSH1 0x24 PUSH1 0x0 REVERT INVALID LOG2 PUSH5 0x6970667358 0x22 SLT KECCAK256 CALLER PUSH26 0xEC8332177070FF4DF775B20DC34410384A1F63ED9E44AD9750E8 PUSH9 0x80C29664736F6C6343 STOP ADDMOD EQ STOP CALLER "},"methodIdentifiers":{"createVesting(address,address,uint256,address,uint256,uint256,uint256)":"bc4e568a","nextScheduleId()":"0f038d41","owner()":"8da5cb5b","recoverERC20(address,uint256)":"8980f11f","releasableAmount(uint256)":"5927fca2","release(uint256)":"37bdc99b","renounceOwnership()":"715018a6","schedules(uint256)":"bdc6d9ab","transferOwnership(address)":"f2fde38b"}}}}}