{"project/contracts/Presale.sol":{"Presale":{"abi":[{"inputs":[{"internalType":"address","name":"_token","type":"address"},{"internalType":"address","name":"_router","type":"address"},{"internalType":"uint256","name":"_softCap","type":"uint256"},{"internalType":"uint256","name":"_hardCap","type":"uint256"},{"internalType":"uint256","name":"_presaleRate","type":"uint256"},{"internalType":"uint256","name":"_listingRate","type":"uint256"},{"internalType":"uint256","name":"_liquidityPercent","type":"uint256"},{"internalType":"uint256","name":"_startTime","type":"uint256"},{"internalType":"uint256","name":"_endTime","type":"uint256"},{"internalType":"uint256","name":"_lockPeriod","type":"uint256"},{"internalType":"uint256","name":"_maxSpendPerBuyer","type":"uint256"},{"internalType":"uint256","name":"_amount","type":"uint256"},{"internalType":"address","name":"","type":"address"},{"internalType":"address","name":"_owner","type":"address"}],"stateMutability":"nonpayable","type":"constructor"},{"inputs":[{"internalType":"address","name":"owner","type":"address"}],"name":"OwnableInvalidOwner","type":"error"},{"inputs":[{"internalType":"address","name":"account","type":"address"}],"name":"OwnableUnauthorizedAccount","type":"error"},{"anonymous":false,"inputs":[{"indexed":true,"internalType":"address","name":"buyer","type":"address"},{"indexed":false,"internalType":"uint256","name":"amount","type":"uint256"}],"name":"Contribution","type":"event"},{"anonymous":false,"inputs":[{"indexed":false,"internalType":"uint256","name":"tokenAmount","type":"uint256"},{"indexed":false,"internalType":"uint256","name":"nativeAmount","type":"uint256"}],"name":"LiquidityAdded","type":"event"},{"anonymous":false,"inputs":[{"indexed":true,"internalType":"address","name":"previousOwner","type":"address"},{"indexed":true,"internalType":"address","name":"newOwner","type":"address"}],"name":"OwnershipTransferred","type":"event"},{"anonymous":false,"inputs":[{"indexed":true,"internalType":"address","name":"presale","type":"address"},{"indexed":false,"internalType":"uint256","name":"totalRaised","type":"uint256"}],"name":"PresaleFinalized","type":"event"},{"anonymous":false,"inputs":[{"indexed":true,"internalType":"address","name":"token","type":"address"},{"indexed":true,"internalType":"address","name":"owner","type":"address"}],"name":"PresaleInitialized","type":"event"},{"anonymous":false,"inputs":[{"indexed":true,"internalType":"address","name":"buyer","type":"address"},{"indexed":false,"internalType":"uint256","name":"amount","type":"uint256"}],"name":"RefundClaimed","type":"event"},{"inputs":[],"name":"MIN_LIQUIDITY_PERCENT","outputs":[{"internalType":"uint256","name":"","type":"uint256"}],"stateMutability":"view","type":"function"},{"inputs":[],"name":"amount","outputs":[{"internalType":"uint256","name":"","type":"uint256"}],"stateMutability":"view","type":"function"},{"inputs":[],"name":"claimRefund","outputs":[],"stateMutability":"nonpayable","type":"function"},{"inputs":[],"name":"contribute","outputs":[],"stateMutability":"payable","type":"function"},{"inputs":[{"internalType":"address","name":"","type":"address"}],"name":"contributions","outputs":[{"internalType":"uint256","name":"","type":"uint256"}],"stateMutability":"view","type":"function"},{"inputs":[],"name":"endTime","outputs":[{"internalType":"uint256","name":"","type":"uint256"}],"stateMutability":"view","type":"function"},{"inputs":[{"internalType":"address","name":"tokenLockAddress","type":"address"}],"name":"finalize","outputs":[],"stateMutability":"nonpayable","type":"function"},{"inputs":[],"name":"finalized","outputs":[{"internalType":"bool","name":"","type":"bool"}],"stateMutability":"view","type":"function"},{"inputs":[],"name":"hardCap","outputs":[{"internalType":"uint256","name":"","type":"uint256"}],"stateMutability":"view","type":"function"},{"inputs":[],"name":"liquidityPercent","outputs":[{"internalType":"uint256","name":"","type":"uint256"}],"stateMutability":"view","type":"function"},{"inputs":[],"name":"listingRate","outputs":[{"internalType":"uint256","name":"","type":"uint256"}],"stateMutability":"view","type":"function"},{"inputs":[],"name":"lockPeriod","outputs":[{"internalType":"uint256","name":"","type":"uint256"}],"stateMutability":"view","type":"function"},{"inputs":[],"name":"maxSpendPerBuyer","outputs":[{"internalType":"uint256","name":"","type":"uint256"}],"stateMutability":"view","type":"function"},{"inputs":[],"name":"owner","outputs":[{"internalType":"address","name":"","type":"address"}],"stateMutability":"view","type":"function"},{"inputs":[],"name":"presaleRate","outputs":[{"internalType":"uint256","name":"","type":"uint256"}],"stateMutability":"view","type":"function"},{"inputs":[],"name":"renounceOwnership","outputs":[],"stateMutability":"nonpayable","type":"function"},{"inputs":[],"name":"router","outputs":[{"internalType":"address","name":"","type":"address"}],"stateMutability":"view","type":"function"},{"inputs":[],"name":"softCap","outputs":[{"internalType":"uint256","name":"","type":"uint256"}],"stateMutability":"view","type":"function"},{"inputs":[],"name":"startTime","outputs":[{"internalType":"uint256","name":"","type":"uint256"}],"stateMutability":"view","type":"function"},{"inputs":[],"name":"token","outputs":[{"internalType":"address","name":"","type":"address"}],"stateMutability":"view","type":"function"},{"inputs":[],"name":"totalRaised","outputs":[{"internalType":"uint256","name":"","type":"uint256"}],"stateMutability":"view","type":"function"},{"inputs":[{"internalType":"address","name":"newOwner","type":"address"}],"name":"transferOwnership","outputs":[],"stateMutability":"nonpayable","type":"function"},{"stateMutability":"payable","type":"receive"}],"evm":{"bytecode":{"linkReferences":{},"object":"60803461019a57601f610b1438819003918201601f19168301916001600160401b0383118484101761019e578084926101c09460405283398101031261019a57610048816101b2565b610054602083016101b2565b6040830151926060810151608082015160a083015160c084015160e0850151906101008601519261012087015194610140880151966101608901519861009d61018082016101b2565b506001600160a01b03906100b4906101a0016101b2565b169b8c15610182575f80546001600160a01b031981168f1782556040519e9d918e916001600160a01b0316907f8be0079c531659141344cd1fd0a4f28419497f9722a3daafe3b4186f6b6457e09080a3600180546001600160a01b039283166001600160a01b03199182168117909255600280549e9093169d169c909c179055600355600455600555600655600755600855600955600a55600b55600c557f25ceeb9cdcab53f5238862d30b361ed636103c3f9c2f8b36cd1ee60608073c2a5f80a361094d90816101c78239f35b604051631e4fbdf760e01b81525f6004820152602490fd5b5f80fd5b634e487b7160e01b5f52604160045260245ffd5b51906001600160a01b038216820361019a5756fe6080604081815260049182361015610029575b505050361561001f575f80fd5b61002761076f565b005b5f92833560e01c9182633197cbb614610707575081633fd8b02f146106e857816342e94c90146106ae57816342f393811461068f5781634ef39b75146104e4578163715018a61461048a57816378e979251461046b5781638da5cb5b14610443578163906a26e014610424578163a20ecbbb14610405578163a3d35dad146103e6578163aa8c217c146103c7578163b0683755146103a8578163b3f05b9714610384578163b5545a3c14610284578163c342381e14610268578163c5c4744c14610249578163d7bb99ba1461022f578163f2fde38b146101a0578163f887ea4014610177578163fb86a40414610155575063fc0c546a1461012a5780610012565b3461015157816003193601126101515760015490516001600160a01b039091168152602090f35b5080fd5b90503461017357826003193601126101735760209250549051908152f35b8280fd5b50503461015157816003193601126101515760025490516001600160a01b039091168152602090f35b91905034610173576020366003190112610173576001600160a01b0382358181169391929084900361022b576101d4610723565b831561021557505082546001600160a01b0319811683178455167f8be0079c531659141344cd1fd0a4f28419497f9722a3daafe3b4186f6b6457e08380a380f35b51631e4fbdf760e01b8152908101849052602490fd5b8480fd5b83806003193601126102465761024361076f565b80f35b80fd5b505034610151578160031936011261015157602090600d549051908152f35b50503461015157816003193601126101515760209051603c8152f35b919050346101735782600319360112610173576102a460095442116108c4565b600d54600354111561034a57338352600f602052808320549182156103165750338352600f602052828181205582808080853382f11561030b57519081527f358fe4192934d3bf28ae181feda1f4bd08ca67f5e2fad55582cce5eb67304ae960203392a280f35b51913d9150823e3d90fd5b6020606492519162461bcd60e51b8352820152600f60248201526e27379031b7b73a3934b13aba34b7b760891b6044820152fd5b906020606492519162461bcd60e51b8352820152601460248201527314dbd99d0818d85c081dd85cc81c995858da195960621b6044820152fd5b50503461015157816003193601126101515760209060ff600e541690519015158152f35b5050346101515781600319360112610151576020906007549051908152f35b505034610151578160031936011261015157602090600c549051908152f35b505034610151578160031936011261015157602090600b549051908152f35b5050346101515781600319360112610151576020906006549051908152f35b5050346101515781600319360112610151576020906003549051908152f35b505034610151578160031936011261015157905490516001600160a01b039091168152602090f35b5050346101515781600319360112610151576020906008549051908152f35b83346102465780600319360112610246576104a3610723565b80546001600160a01b03198116825581906001600160a01b03167f8be0079c531659141344cd1fd0a4f28419497f9722a3daafe3b4186f6b6457e08280a380f35b91905034610173576020908160031936011261068b5782356001600160a01b0381160361068b57610513610723565b600e5460ff81166106555760095442118015610648575b610533906108c4565b600d5493600354851061060e5760075490603c82106105cb575082917f38f8a0c92f4c5b0b6877f878cb4c0c8d348a47b76d716c8e78f425043df9515b7f3a5a8e947c93d92889f994770b68c33efb9f6108d3606bc9c119515ce7b506c8959460646105a16001958a610904565b046105ae60065482610904565b90825191825287820152a160ff191617600e55519283523092a280f35b835162461bcd60e51b8152908101859052601f60248201527f4c69717569646974792070657263656e742062656c6f77206d696e696d756d006044820152606490fd5b825162461bcd60e51b8152908101849052601460248201527314dbd99d0818d85c081b9bdd081c995858da195960621b6044820152606490fd5b50600d548454111561052a565b505162461bcd60e51b8152918201526011602482015270185b1c9958591e48199a5b985b1a5e9959607a1b604482015260649150fd5b8380fd5b5050346101515781600319360112610151576020906005549051908152f35b90503461017357602036600319011261017357356001600160a01b038116908190036101735782829160209452600f845220549051908152f35b505034610151578160031936011261015157602090600a549051908152f35b8490346101515781600319360112610151576020906009548152f35b5f546001600160a01b0316330361073657565b60405163118cdaa760e01b8152336004820152602490fd5b9190820180921161075b57565b634e487b7160e01b5f52601160045260245ffd5b600854421015806108b8575b1561087e5761078d600d54349061074e565b6004541061084657335f52600f6020526107ab3460405f205461074e565b600b541061080957335f52600f60205260405f206107ca34825461074e565b90556107d834600d5461074e565b600d556040513481527f4d154d4aae216bed6d0926db77c00df2b57c6b5ba4eee05775de20facede3a7b60203392a2565b60405162461bcd60e51b8152602060048201526015602482015274045786365656473207065722d62757965722063617605c1b6044820152606490fd5b60405162461bcd60e51b815260206004820152601060248201526f12185c990818d85c081c995858da195960821b6044820152606490fd5b60405162461bcd60e51b815260206004820152601260248201527150726573616c65206e6f742061637469766560701b6044820152606490fd5b5060095442111561077b565b156108cb57565b60405162461bcd60e51b8152602060048201526011602482015270141c995cd85b19481b9bdd08195b991959607a1b6044820152606490fd5b8181029291811591840414171561075b5756fea26469706673582212200b4be30c8f642d9f69bef9b32ca093650447681bd847d5b5a08b447d69c739e664736f6c63430008140033","opcodes":"PUSH1 0x80 CALLVALUE PUSH2 0x19A JUMPI PUSH1 0x1F PUSH2 0xB14 CODESIZE DUP2 SWAP1 SUB SWAP2 DUP3 ADD PUSH1 0x1F NOT AND DUP4 ADD SWAP2 PUSH1 0x1 PUSH1 0x1 PUSH1 0x40 SHL SUB DUP4 GT DUP5 DUP5 LT OR PUSH2 0x19E JUMPI DUP1 DUP5 SWAP3 PUSH2 0x1C0 SWAP5 PUSH1 0x40 MSTORE DUP4 CODECOPY DUP2 ADD SUB SLT PUSH2 0x19A JUMPI PUSH2 0x48 DUP2 PUSH2 0x1B2 JUMP JUMPDEST PUSH2 0x54 PUSH1 0x20 DUP4 ADD PUSH2 0x1B2 JUMP JUMPDEST PUSH1 0x40 DUP4 ADD MLOAD SWAP3 PUSH1 0x60 DUP2 ADD MLOAD PUSH1 0x80 DUP3 ADD MLOAD PUSH1 0xA0 DUP4 ADD MLOAD PUSH1 0xC0 DUP5 ADD MLOAD PUSH1 0xE0 DUP6 ADD MLOAD SWAP1 PUSH2 0x100 DUP7 ADD MLOAD SWAP3 PUSH2 0x120 DUP8 ADD MLOAD SWAP5 PUSH2 0x140 DUP9 ADD MLOAD SWAP7 PUSH2 0x160 DUP10 ADD MLOAD SWAP9 PUSH2 0x9D PUSH2 0x180 DUP3 ADD PUSH2 0x1B2 JUMP JUMPDEST POP PUSH1 0x1 PUSH1 0x1 PUSH1 0xA0 SHL SUB SWAP1 PUSH2 0xB4 SWAP1 PUSH2 0x1A0 ADD PUSH2 0x1B2 JUMP JUMPDEST AND SWAP12 DUP13 ISZERO PUSH2 0x182 JUMPI PUSH0 DUP1 SLOAD PUSH1 0x1 PUSH1 0x1 PUSH1 0xA0 SHL SUB NOT DUP2 AND DUP16 OR DUP3 SSTORE PUSH1 0x40 MLOAD SWAP15 SWAP14 SWAP2 DUP15 SWAP2 PUSH1 0x1 PUSH1 0x1 PUSH1 0xA0 SHL SUB AND SWAP1 PUSH32 0x8BE0079C531659141344CD1FD0A4F28419497F9722A3DAAFE3B4186F6B6457E0 SWAP1 DUP1 LOG3 PUSH1 0x1 DUP1 SLOAD PUSH1 0x1 PUSH1 0x1 PUSH1 0xA0 SHL SUB SWAP3 DUP4 AND PUSH1 0x1 PUSH1 0x1 PUSH1 0xA0 SHL SUB NOT SWAP2 DUP3 AND DUP2 OR SWAP1 SWAP3 SSTORE PUSH1 0x2 DUP1 SLOAD SWAP15 SWAP1 SWAP4 AND SWAP14 AND SWAP13 SWAP1 SWAP13 OR SWAP1 SSTORE PUSH1 0x3 SSTORE PUSH1 0x4 SSTORE PUSH1 0x5 SSTORE PUSH1 0x6 SSTORE PUSH1 0x7 SSTORE PUSH1 0x8 SSTORE PUSH1 0x9 SSTORE PUSH1 0xA SSTORE PUSH1 0xB SSTORE PUSH1 0xC SSTORE PUSH32 0x25CEEB9CDCAB53F5238862D30B361ED636103C3F9C2F8B36CD1EE60608073C2A PUSH0 DUP1 LOG3 PUSH2 0x94D SWAP1 DUP2 PUSH2 0x1C7 DUP3 CODECOPY RETURN JUMPDEST PUSH1 0x40 MLOAD PUSH4 0x1E4FBDF7 PUSH1 0xE0 SHL DUP2 MSTORE PUSH0 PUSH1 0x4 DUP3 ADD MSTORE PUSH1 0x24 SWAP1 REVERT JUMPDEST PUSH0 DUP1 REVERT JUMPDEST PUSH4 0x4E487B71 PUSH1 0xE0 SHL PUSH0 MSTORE PUSH1 0x41 PUSH1 0x4 MSTORE PUSH1 0x24 PUSH0 REVERT JUMPDEST MLOAD SWAP1 PUSH1 0x1 PUSH1 0x1 PUSH1 0xA0 SHL SUB DUP3 AND DUP3 SUB PUSH2 0x19A JUMPI JUMP INVALID PUSH1 0x80 PUSH1 0x40 DUP2 DUP2 MSTORE PUSH1 0x4 SWAP2 DUP3 CALLDATASIZE LT ISZERO PUSH2 0x29 JUMPI JUMPDEST POP POP POP CALLDATASIZE ISZERO PUSH2 0x1F JUMPI PUSH0 DUP1 REVERT JUMPDEST PUSH2 0x27 PUSH2 0x76F JUMP JUMPDEST STOP JUMPDEST PUSH0 SWAP3 DUP4 CALLDATALOAD PUSH1 0xE0 SHR SWAP2 DUP3 PUSH4 0x3197CBB6 EQ PUSH2 0x707 JUMPI POP DUP2 PUSH4 0x3FD8B02F EQ PUSH2 0x6E8 JUMPI DUP2 PUSH4 0x42E94C90 EQ PUSH2 0x6AE JUMPI DUP2 PUSH4 0x42F39381 EQ PUSH2 0x68F JUMPI DUP2 PUSH4 0x4EF39B75 EQ PUSH2 0x4E4 JUMPI DUP2 PUSH4 0x715018A6 EQ PUSH2 0x48A JUMPI DUP2 PUSH4 0x78E97925 EQ PUSH2 0x46B JUMPI DUP2 PUSH4 0x8DA5CB5B EQ PUSH2 0x443 JUMPI DUP2 PUSH4 0x906A26E0 EQ PUSH2 0x424 JUMPI DUP2 PUSH4 0xA20ECBBB EQ PUSH2 0x405 JUMPI DUP2 PUSH4 0xA3D35DAD EQ PUSH2 0x3E6 JUMPI DUP2 PUSH4 0xAA8C217C EQ PUSH2 0x3C7 JUMPI DUP2 PUSH4 0xB0683755 EQ PUSH2 0x3A8 JUMPI DUP2 PUSH4 0xB3F05B97 EQ PUSH2 0x384 JUMPI DUP2 PUSH4 0xB5545A3C EQ PUSH2 0x284 JUMPI DUP2 PUSH4 0xC342381E EQ PUSH2 0x268 JUMPI DUP2 PUSH4 0xC5C4744C EQ PUSH2 0x249 JUMPI DUP2 PUSH4 0xD7BB99BA EQ PUSH2 0x22F JUMPI DUP2 PUSH4 0xF2FDE38B EQ PUSH2 0x1A0 JUMPI DUP2 PUSH4 0xF887EA40 EQ PUSH2 0x177 JUMPI DUP2 PUSH4 0xFB86A404 EQ PUSH2 0x155 JUMPI POP PUSH4 0xFC0C546A EQ PUSH2 0x12A JUMPI DUP1 PUSH2 0x12 JUMP JUMPDEST CALLVALUE PUSH2 0x151 JUMPI DUP2 PUSH1 0x3 NOT CALLDATASIZE ADD SLT PUSH2 0x151 JUMPI PUSH1 0x1 SLOAD SWAP1 MLOAD PUSH1 0x1 PUSH1 0x1 PUSH1 0xA0 SHL SUB SWAP1 SWAP2 AND DUP2 MSTORE PUSH1 0x20 SWAP1 RETURN JUMPDEST POP DUP1 REVERT JUMPDEST SWAP1 POP CALLVALUE PUSH2 0x173 JUMPI DUP3 PUSH1 0x3 NOT CALLDATASIZE ADD SLT PUSH2 0x173 JUMPI PUSH1 0x20 SWAP3 POP SLOAD SWAP1 MLOAD SWAP1 DUP2 MSTORE RETURN JUMPDEST DUP3 DUP1 REVERT JUMPDEST POP POP CALLVALUE PUSH2 0x151 JUMPI DUP2 PUSH1 0x3 NOT CALLDATASIZE ADD SLT PUSH2 0x151 JUMPI PUSH1 0x2 SLOAD SWAP1 MLOAD PUSH1 0x1 PUSH1 0x1 PUSH1 0xA0 SHL SUB SWAP1 SWAP2 AND DUP2 MSTORE PUSH1 0x20 SWAP1 RETURN JUMPDEST SWAP2 SWAP1 POP CALLVALUE PUSH2 0x173 JUMPI PUSH1 0x20 CALLDATASIZE PUSH1 0x3 NOT ADD SLT PUSH2 0x173 JUMPI PUSH1 0x1 PUSH1 0x1 PUSH1 0xA0 SHL SUB DUP3 CALLDATALOAD DUP2 DUP2 AND SWAP4 SWAP2 SWAP3 SWAP1 DUP5 SWAP1 SUB PUSH2 0x22B JUMPI PUSH2 0x1D4 PUSH2 0x723 JUMP JUMPDEST DUP4 ISZERO PUSH2 0x215 JUMPI POP POP DUP3 SLOAD PUSH1 0x1 PUSH1 0x1 PUSH1 0xA0 SHL SUB NOT DUP2 AND DUP4 OR DUP5 SSTORE AND PUSH32 0x8BE0079C531659141344CD1FD0A4F28419497F9722A3DAAFE3B4186F6B6457E0 DUP4 DUP1 LOG3 DUP1 RETURN JUMPDEST MLOAD PUSH4 0x1E4FBDF7 PUSH1 0xE0 SHL DUP2 MSTORE SWAP1 DUP2 ADD DUP5 SWAP1 MSTORE PUSH1 0x24 SWAP1 REVERT JUMPDEST DUP5 DUP1 REVERT JUMPDEST DUP4 DUP1 PUSH1 0x3 NOT CALLDATASIZE ADD SLT PUSH2 0x246 JUMPI PUSH2 0x243 PUSH2 0x76F JUMP JUMPDEST DUP1 RETURN JUMPDEST DUP1 REVERT JUMPDEST POP POP CALLVALUE PUSH2 0x151 JUMPI DUP2 PUSH1 0x3 NOT CALLDATASIZE ADD SLT PUSH2 0x151 JUMPI PUSH1 0x20 SWAP1 PUSH1 0xD SLOAD SWAP1 MLOAD SWAP1 DUP2 MSTORE RETURN JUMPDEST POP POP CALLVALUE PUSH2 0x151 JUMPI DUP2 PUSH1 0x3 NOT CALLDATASIZE ADD SLT PUSH2 0x151 JUMPI PUSH1 0x20 SWAP1 MLOAD PUSH1 0x3C DUP2 MSTORE RETURN JUMPDEST SWAP2 SWAP1 POP CALLVALUE PUSH2 0x173 JUMPI DUP3 PUSH1 0x3 NOT CALLDATASIZE ADD SLT PUSH2 0x173 JUMPI PUSH2 0x2A4 PUSH1 0x9 SLOAD TIMESTAMP GT PUSH2 0x8C4 JUMP JUMPDEST PUSH1 0xD SLOAD PUSH1 0x3 SLOAD GT ISZERO PUSH2 0x34A JUMPI CALLER DUP4 MSTORE PUSH1 0xF PUSH1 0x20 MSTORE DUP1 DUP4 KECCAK256 SLOAD SWAP2 DUP3 ISZERO PUSH2 0x316 JUMPI POP CALLER DUP4 MSTORE PUSH1 0xF PUSH1 0x20 MSTORE DUP3 DUP2 DUP2 KECCAK256 SSTORE DUP3 DUP1 DUP1 DUP1 DUP6 CALLER DUP3 CALL ISZERO PUSH2 0x30B JUMPI MLOAD SWAP1 DUP2 MSTORE PUSH32 0x358FE4192934D3BF28AE181FEDA1F4BD08CA67F5E2FAD55582CCE5EB67304AE9 PUSH1 0x20 CALLER SWAP3 LOG2 DUP1 RETURN JUMPDEST MLOAD SWAP2 RETURNDATASIZE SWAP2 POP DUP3 RETURNDATACOPY RETURNDATASIZE SWAP1 REVERT JUMPDEST PUSH1 0x20 PUSH1 0x64 SWAP3 MLOAD SWAP2 PUSH3 0x461BCD PUSH1 0xE5 SHL DUP4 MSTORE DUP3 ADD MSTORE PUSH1 0xF PUSH1 0x24 DUP3 ADD MSTORE PUSH15 0x27379031B7B73A3934B13ABA34B7B7 PUSH1 0x89 SHL PUSH1 0x44 DUP3 ADD MSTORE REVERT JUMPDEST SWAP1 PUSH1 0x20 PUSH1 0x64 SWAP3 MLOAD SWAP2 PUSH3 0x461BCD PUSH1 0xE5 SHL DUP4 MSTORE DUP3 ADD MSTORE PUSH1 0x14 PUSH1 0x24 DUP3 ADD MSTORE PUSH20 0x14DBD99D0818D85C081DD85CC81C995858DA1959 PUSH1 0x62 SHL PUSH1 0x44 DUP3 ADD MSTORE REVERT JUMPDEST POP POP CALLVALUE PUSH2 0x151 JUMPI DUP2 PUSH1 0x3 NOT CALLDATASIZE ADD SLT PUSH2 0x151 JUMPI PUSH1 0x20 SWAP1 PUSH1 0xFF PUSH1 0xE SLOAD AND SWAP1 MLOAD SWAP1 ISZERO ISZERO DUP2 MSTORE RETURN JUMPDEST POP POP CALLVALUE PUSH2 0x151 JUMPI DUP2 PUSH1 0x3 NOT CALLDATASIZE ADD SLT PUSH2 0x151 JUMPI PUSH1 0x20 SWAP1 PUSH1 0x7 SLOAD SWAP1 MLOAD SWAP1 DUP2 MSTORE RETURN JUMPDEST POP POP CALLVALUE PUSH2 0x151 JUMPI DUP2 PUSH1 0x3 NOT CALLDATASIZE ADD SLT PUSH2 0x151 JUMPI PUSH1 0x20 SWAP1 PUSH1 0xC SLOAD SWAP1 MLOAD SWAP1 DUP2 MSTORE RETURN JUMPDEST POP POP CALLVALUE PUSH2 0x151 JUMPI DUP2 PUSH1 0x3 NOT CALLDATASIZE ADD SLT PUSH2 0x151 JUMPI PUSH1 0x20 SWAP1 PUSH1 0xB SLOAD SWAP1 MLOAD SWAP1 DUP2 MSTORE RETURN JUMPDEST POP POP CALLVALUE PUSH2 0x151 JUMPI DUP2 PUSH1 0x3 NOT CALLDATASIZE ADD SLT PUSH2 0x151 JUMPI PUSH1 0x20 SWAP1 PUSH1 0x6 SLOAD SWAP1 MLOAD SWAP1 DUP2 MSTORE RETURN JUMPDEST POP POP CALLVALUE PUSH2 0x151 JUMPI DUP2 PUSH1 0x3 NOT CALLDATASIZE ADD SLT PUSH2 0x151 JUMPI PUSH1 0x20 SWAP1 PUSH1 0x3 SLOAD SWAP1 MLOAD SWAP1 DUP2 MSTORE RETURN JUMPDEST POP POP CALLVALUE PUSH2 0x151 JUMPI DUP2 PUSH1 0x3 NOT CALLDATASIZE ADD SLT PUSH2 0x151 JUMPI SWAP1 SLOAD SWAP1 MLOAD PUSH1 0x1 PUSH1 0x1 PUSH1 0xA0 SHL SUB SWAP1 SWAP2 AND DUP2 MSTORE PUSH1 0x20 SWAP1 RETURN JUMPDEST POP POP CALLVALUE PUSH2 0x151 JUMPI DUP2 PUSH1 0x3 NOT CALLDATASIZE ADD SLT PUSH2 0x151 JUMPI PUSH1 0x20 SWAP1 PUSH1 0x8 SLOAD SWAP1 MLOAD SWAP1 DUP2 MSTORE RETURN JUMPDEST DUP4 CALLVALUE PUSH2 0x246 JUMPI DUP1 PUSH1 0x3 NOT CALLDATASIZE ADD SLT PUSH2 0x246 JUMPI PUSH2 0x4A3 PUSH2 0x723 JUMP JUMPDEST DUP1 SLOAD PUSH1 0x1 PUSH1 0x1 PUSH1 0xA0 SHL SUB NOT DUP2 AND DUP3 SSTORE DUP2 SWAP1 PUSH1 0x1 PUSH1 0x1 PUSH1 0xA0 SHL SUB AND PUSH32 0x8BE0079C531659141344CD1FD0A4F28419497F9722A3DAAFE3B4186F6B6457E0 DUP3 DUP1 LOG3 DUP1 RETURN JUMPDEST SWAP2 SWAP1 POP CALLVALUE PUSH2 0x173 JUMPI PUSH1 0x20 SWAP1 DUP2 PUSH1 0x3 NOT CALLDATASIZE ADD SLT PUSH2 0x68B JUMPI DUP3 CALLDATALOAD PUSH1 0x1 PUSH1 0x1 PUSH1 0xA0 SHL SUB DUP2 AND SUB PUSH2 0x68B JUMPI PUSH2 0x513 PUSH2 0x723 JUMP JUMPDEST PUSH1 0xE SLOAD PUSH1 0xFF DUP2 AND PUSH2 0x655 JUMPI PUSH1 0x9 SLOAD TIMESTAMP GT DUP1 ISZERO PUSH2 0x648 JUMPI JUMPDEST PUSH2 0x533 SWAP1 PUSH2 0x8C4 JUMP JUMPDEST PUSH1 0xD SLOAD SWAP4 PUSH1 0x3 SLOAD DUP6 LT PUSH2 0x60E JUMPI PUSH1 0x7 SLOAD SWAP1 PUSH1 0x3C DUP3 LT PUSH2 0x5CB JUMPI POP DUP3 SWAP2 PUSH32 0x38F8A0C92F4C5B0B6877F878CB4C0C8D348A47B76D716C8E78F425043DF9515B PUSH32 0x3A5A8E947C93D92889F994770B68C33EFB9F6108D3606BC9C119515CE7B506C8 SWAP6 SWAP5 PUSH1 0x64 PUSH2 0x5A1 PUSH1 0x1 SWAP6 DUP11 PUSH2 0x904 JUMP JUMPDEST DIV PUSH2 0x5AE PUSH1 0x6 SLOAD DUP3 PUSH2 0x904 JUMP JUMPDEST SWAP1 DUP3 MLOAD SWAP2 DUP3 MSTORE DUP8 DUP3 ADD MSTORE LOG1 PUSH1 0xFF NOT AND OR PUSH1 0xE SSTORE MLOAD SWAP3 DUP4 MSTORE ADDRESS SWAP3 LOG2 DUP1 RETURN JUMPDEST DUP4 MLOAD PUSH3 0x461BCD PUSH1 0xE5 SHL DUP2 MSTORE SWAP1 DUP2 ADD DUP6 SWAP1 MSTORE PUSH1 0x1F PUSH1 0x24 DUP3 ADD MSTORE PUSH32 0x4C69717569646974792070657263656E742062656C6F77206D696E696D756D00 PUSH1 0x44 DUP3 ADD MSTORE PUSH1 0x64 SWAP1 REVERT JUMPDEST DUP3 MLOAD PUSH3 0x461BCD PUSH1 0xE5 SHL DUP2 MSTORE SWAP1 DUP2 ADD DUP5 SWAP1 MSTORE PUSH1 0x14 PUSH1 0x24 DUP3 ADD MSTORE PUSH20 0x14DBD99D0818D85C081B9BDD081C995858DA1959 PUSH1 0x62 SHL PUSH1 0x44 DUP3 ADD MSTORE PUSH1 0x64 SWAP1 REVERT JUMPDEST POP PUSH1 0xD SLOAD DUP5 SLOAD GT ISZERO PUSH2 0x52A JUMP JUMPDEST POP MLOAD PUSH3 0x461BCD PUSH1 0xE5 SHL DUP2 MSTORE SWAP2 DUP3 ADD MSTORE PUSH1 0x11 PUSH1 0x24 DUP3 ADD MSTORE PUSH17 0x185B1C9958591E48199A5B985B1A5E9959 PUSH1 0x7A SHL PUSH1 0x44 DUP3 ADD MSTORE PUSH1 0x64 SWAP2 POP REVERT JUMPDEST DUP4 DUP1 REVERT JUMPDEST POP POP CALLVALUE PUSH2 0x151 JUMPI DUP2 PUSH1 0x3 NOT CALLDATASIZE ADD SLT PUSH2 0x151 JUMPI PUSH1 0x20 SWAP1 PUSH1 0x5 SLOAD SWAP1 MLOAD SWAP1 DUP2 MSTORE RETURN JUMPDEST SWAP1 POP CALLVALUE PUSH2 0x173 JUMPI PUSH1 0x20 CALLDATASIZE PUSH1 0x3 NOT ADD SLT PUSH2 0x173 JUMPI CALLDATALOAD PUSH1 0x1 PUSH1 0x1 PUSH1 0xA0 SHL SUB DUP2 AND SWAP1 DUP2 SWAP1 SUB PUSH2 0x173 JUMPI DUP3 DUP3 SWAP2 PUSH1 0x20 SWAP5 MSTORE PUSH1 0xF DUP5 MSTORE KECCAK256 SLOAD SWAP1 MLOAD SWAP1 DUP2 MSTORE RETURN JUMPDEST POP POP CALLVALUE PUSH2 0x151 JUMPI DUP2 PUSH1 0x3 NOT CALLDATASIZE ADD SLT PUSH2 0x151 JUMPI PUSH1 0x20 SWAP1 PUSH1 0xA SLOAD SWAP1 MLOAD SWAP1 DUP2 MSTORE RETURN JUMPDEST DUP5 SWAP1 CALLVALUE PUSH2 0x151 JUMPI DUP2 PUSH1 0x3 NOT CALLDATASIZE ADD SLT PUSH2 0x151 JUMPI PUSH1 0x20 SWAP1 PUSH1 0x9 SLOAD DUP2 MSTORE RETURN JUMPDEST PUSH0 SLOAD PUSH1 0x1 PUSH1 0x1 PUSH1 0xA0 SHL SUB AND CALLER SUB PUSH2 0x736 JUMPI JUMP JUMPDEST PUSH1 0x40 MLOAD PUSH4 0x118CDAA7 PUSH1 0xE0 SHL DUP2 MSTORE CALLER PUSH1 0x4 DUP3 ADD MSTORE PUSH1 0x24 SWAP1 REVERT JUMPDEST SWAP2 SWAP1 DUP3 ADD DUP1 SWAP3 GT PUSH2 0x75B JUMPI JUMP JUMPDEST PUSH4 0x4E487B71 PUSH1 0xE0 SHL PUSH0 MSTORE PUSH1 0x11 PUSH1 0x4 MSTORE PUSH1 0x24 PUSH0 REVERT JUMPDEST PUSH1 0x8 SLOAD TIMESTAMP LT ISZERO DUP1 PUSH2 0x8B8 JUMPI JUMPDEST ISZERO PUSH2 0x87E JUMPI PUSH2 0x78D PUSH1 0xD SLOAD CALLVALUE SWAP1 PUSH2 0x74E JUMP JUMPDEST PUSH1 0x4 SLOAD LT PUSH2 0x846 JUMPI CALLER PUSH0 MSTORE PUSH1 0xF PUSH1 0x20 MSTORE PUSH2 0x7AB CALLVALUE PUSH1 0x40 PUSH0 KECCAK256 SLOAD PUSH2 0x74E JUMP JUMPDEST PUSH1 0xB SLOAD LT PUSH2 0x809 JUMPI CALLER PUSH0 MSTORE PUSH1 0xF PUSH1 0x20 MSTORE PUSH1 0x40 PUSH0 KECCAK256 PUSH2 0x7CA CALLVALUE DUP3 SLOAD PUSH2 0x74E JUMP JUMPDEST SWAP1 SSTORE PUSH2 0x7D8 CALLVALUE PUSH1 0xD SLOAD PUSH2 0x74E JUMP JUMPDEST PUSH1 0xD SSTORE PUSH1 0x40 MLOAD CALLVALUE DUP2 MSTORE PUSH32 0x4D154D4AAE216BED6D0926DB77C00DF2B57C6B5BA4EEE05775DE20FACEDE3A7B PUSH1 0x20 CALLER SWAP3 LOG2 JUMP JUMPDEST PUSH1 0x40 MLOAD PUSH3 0x461BCD PUSH1 0xE5 SHL DUP2 MSTORE PUSH1 0x20 PUSH1 0x4 DUP3 ADD MSTORE PUSH1 0x15 PUSH1 0x24 DUP3 ADD MSTORE PUSH21 0x45786365656473207065722D62757965722063617 PUSH1 0x5C SHL PUSH1 0x44 DUP3 ADD MSTORE PUSH1 0x64 SWAP1 REVERT JUMPDEST PUSH1 0x40 MLOAD PUSH3 0x461BCD PUSH1 0xE5 SHL DUP2 MSTORE PUSH1 0x20 PUSH1 0x4 DUP3 ADD MSTORE PUSH1 0x10 PUSH1 0x24 DUP3 ADD MSTORE PUSH16 0x12185C990818D85C081C995858DA1959 PUSH1 0x82 SHL PUSH1 0x44 DUP3 ADD MSTORE PUSH1 0x64 SWAP1 REVERT JUMPDEST PUSH1 0x40 MLOAD PUSH3 0x461BCD PUSH1 0xE5 SHL DUP2 MSTORE PUSH1 0x20 PUSH1 0x4 DUP3 ADD MSTORE PUSH1 0x12 PUSH1 0x24 DUP3 ADD MSTORE PUSH18 0x50726573616C65206E6F7420616374697665 PUSH1 0x70 SHL PUSH1 0x44 DUP3 ADD MSTORE PUSH1 0x64 SWAP1 REVERT JUMPDEST POP PUSH1 0x9 SLOAD TIMESTAMP GT ISZERO PUSH2 0x77B JUMP JUMPDEST ISZERO PUSH2 0x8CB JUMPI JUMP JUMPDEST PUSH1 0x40 MLOAD PUSH3 0x461BCD PUSH1 0xE5 SHL DUP2 MSTORE PUSH1 0x20 PUSH1 0x4 DUP3 ADD MSTORE PUSH1 0x11 PUSH1 0x24 DUP3 ADD MSTORE PUSH17 0x141C995CD85B19481B9BDD08195B991959 PUSH1 0x7A SHL PUSH1 0x44 DUP3 ADD MSTORE PUSH1 0x64 SWAP1 REVERT JUMPDEST DUP2 DUP2 MUL SWAP3 SWAP2 DUP2 ISZERO SWAP2 DUP5 DIV EQ OR ISZERO PUSH2 0x75B JUMPI JUMP INVALID LOG2 PUSH5 0x6970667358 0x22 SLT KECCAK256 SIGNEXTEND 0x4B 0xE3 0xC DUP16 PUSH5 0x2D9F69BEF9 0xB3 0x2C LOG0 SWAP4 PUSH6 0x447681BD847 0xD5 0xB5 LOG0 DUP12 PREVRANDAO PUSH30 0x69C739E664736F6C63430008140033000000000000000000000000000000 "},"methodIdentifiers":{"MIN_LIQUIDITY_PERCENT()":"c342381e","amount()":"aa8c217c","claimRefund()":"b5545a3c","contribute()":"d7bb99ba","contributions(address)":"42e94c90","endTime()":"3197cbb6","finalize(address)":"4ef39b75","finalized()":"b3f05b97","hardCap()":"fb86a404","liquidityPercent()":"b0683755","listingRate()":"a20ecbbb","lockPeriod()":"3fd8b02f","maxSpendPerBuyer()":"a3d35dad","owner()":"8da5cb5b","presaleRate()":"42f39381","renounceOwnership()":"715018a6","router()":"f887ea40","softCap()":"906a26e0","startTime()":"78e97925","token()":"fc0c546a","totalRaised()":"c5c4744c","transferOwnership(address)":"f2fde38b"}}}}}