{"project/contracts/TokenLock.sol":{"TokenLock":{"abi":[{"anonymous":false,"inputs":[{"indexed":true,"internalType":"uint256","name":"lockId","type":"uint256"},{"indexed":true,"internalType":"address","name":"owner","type":"address"}],"name":"TokensClaimed","type":"event"},{"anonymous":false,"inputs":[{"indexed":true,"internalType":"uint256","name":"lockId","type":"uint256"},{"indexed":true,"internalType":"address","name":"owner","type":"address"},{"indexed":true,"internalType":"address","name":"token","type":"address"},{"indexed":false,"internalType":"uint256","name":"amount","type":"uint256"},{"indexed":false,"internalType":"uint256","name":"unlockTime","type":"uint256"}],"name":"TokensLocked","type":"event"},{"inputs":[{"internalType":"uint256","name":"lockId","type":"uint256"}],"name":"claimTokens","outputs":[],"stateMutability":"nonpayable","type":"function"},{"inputs":[{"internalType":"address","name":"token","type":"address"},{"internalType":"uint256","name":"amount","type":"uint256"},{"internalType":"uint256","name":"unlockTime","type":"uint256"},{"internalType":"string","name":"description","type":"string"}],"name":"lockTokens","outputs":[{"internalType":"uint256","name":"","type":"uint256"}],"stateMutability":"nonpayable","type":"function"},{"inputs":[{"internalType":"uint256","name":"","type":"uint256"}],"name":"locks","outputs":[{"internalType":"address","name":"token","type":"address"},{"internalType":"address","name":"owner","type":"address"},{"internalType":"uint256","name":"amount","type":"uint256"},{"internalType":"uint256","name":"unlockTime","type":"uint256"},{"internalType":"bool","name":"claimed","type":"bool"},{"internalType":"string","name":"description","type":"string"}],"stateMutability":"view","type":"function"},{"inputs":[],"name":"nextLockId","outputs":[{"internalType":"uint256","name":"","type":"uint256"}],"stateMutability":"view","type":"function"}],"evm":{"bytecode":{"linkReferences":{},"object":"60808060405234610016576106d7908161001b8239f35b5f80fdfe60808060405260049081361015610014575f80fd5b60e0905f35821c90816346e04a2f14610519575080636518a0b3146104fc578063c6ee4f591461019f5763f4dadc611461004c575f80fd5b3461019b5760208060031936011261019b5782355f525f815260405f209060018060a01b039182815416946001938483015416600283015490600560ff60038601549486015416940160405180975f908354936100a885610633565b948585528a83821691825f1461017957505060011461013c575b50506100d892509997969594939299038661066b565b604051978896875284870152604086015260608501521515608084015260c060a08401528151918260c08501525f5b8381106101265750505f83830185015250601f01601f19168101030190f35b8181018301518782018701528694508201610107565b8992505f52815f20905f915b8583106101605750506100d893508201015f806100c2565b8194848483969596549201015201910189928992610148565b92509350506100d894915060ff191682840152151560051b8201015f806100c2565b5f80fd5b823461019b57608036600319011261019b578035906001600160a01b038216820361019b5767ffffffffffffffff6064351161019b5736602360643501121561019b5767ffffffffffffffff6064358201351161019b573660643582810135016024011161019b57604435428111156104b85760405160c0810181811067ffffffffffffffff8211176104a55760405260018060a01b038416815233602082015260243560408201528160608201525f60808201526040516102706020601f19601f6064358801350116018261066b565b606435848101358083529060240160208301375f60206064358601358301015260a08201526001545f525f60205260a0600560405f20600180841b038451166bffffffffffffffffffffffff841b90818354161782556001820190600180861b036020870151169082541617905560408401516002820155606084015160038201558581016080850151151560ff801983541691161790550191015180519067ffffffffffffffff821161049257819061032a8454610633565b601f8111610442575b50602090601f83116001146103de575f926103d3575b50508160011b915f199060031b1c19161790555b60015492604051916024358352602083015260018060a01b031690837fdd17148ffeb69e95dbd8fee5b9a79df1fad7408e496cd1cdec4adf522527e90d60403393a45f1982146103c057600182018060015582116103c057602082604051908152f35b601190634e487b7160e01b5f525260245ffd5b015190508680610349565b5f858152602081209350601f198516905b81811061042a5750908460019594939210610412575b505050811b01905561035d565b01515f1960f88460031b161c19169055868080610405565b929360206001819287860151815501950193016103ef565b909150835f5260205f20601f840160051c81019160208510610488575b90601f859493920160051c01905b81811061047a5750610333565b5f815584935060010161046d565b909150819061045f565b604185634e487b7160e01b5f525260245ffd5b604184634e487b7160e01b5f525260245ffd5b60405162461bcd60e51b8152602081840152601d60248201527f556e6c6f636b2074696d65206d75737420626520696e206675747572650000006044820152606490fd5b3461019b575f36600319011261019b576020600154604051908152f35b833461019b57602036600319011261019b57803591825f525f60205260405f209060018060a01b03600183015416330361060657508181019182549160ff83166105d057600301544210610599575060ff1916600117905533907f83017964d41e2eb3369a74f93ce7024dc09d85d2bfa35ca86268234733b965905f80a3005b60649060206040519162461bcd60e51b8352820152601060248201526f139bdd081d5b9b1bd8dad959081e595d60821b6044820152fd5b60405162461bcd60e51b8152602081840152600f60248201526e105b1c9958591e4818db185a5b5959608a1b6044820152606490fd5b62461bcd60e51b815260208382015260096024820152682737ba1037bbb732b960b91b6044820152606490fd5b90600182811c92168015610661575b602083101461064d57565b634e487b7160e01b5f52602260045260245ffd5b91607f1691610642565b90601f8019910116810190811067ffffffffffffffff82111761068d57604052565b634e487b7160e01b5f52604160045260245ffdfea2646970667358221220789e7f94c62e96d90b10d65db5d3da4737365e20e9292c7087464621ee16183c64736f6c63430008140033","opcodes":"PUSH1 0x80 DUP1 PUSH1 0x40 MSTORE CALLVALUE PUSH2 0x16 JUMPI PUSH2 0x6D7 SWAP1 DUP2 PUSH2 0x1B DUP3 CODECOPY RETURN JUMPDEST PUSH0 DUP1 REVERT INVALID PUSH1 0x80 DUP1 PUSH1 0x40 MSTORE PUSH1 0x4 SWAP1 DUP2 CALLDATASIZE LT ISZERO PUSH2 0x14 JUMPI PUSH0 DUP1 REVERT JUMPDEST PUSH1 0xE0 SWAP1 PUSH0 CALLDATALOAD DUP3 SHR SWAP1 DUP2 PUSH4 0x46E04A2F EQ PUSH2 0x519 JUMPI POP DUP1 PUSH4 0x6518A0B3 EQ PUSH2 0x4FC JUMPI DUP1 PUSH4 0xC6EE4F59 EQ PUSH2 0x19F JUMPI PUSH4 0xF4DADC61 EQ PUSH2 0x4C JUMPI PUSH0 DUP1 REVERT JUMPDEST CALLVALUE PUSH2 0x19B JUMPI PUSH1 0x20 DUP1 PUSH1 0x3 NOT CALLDATASIZE ADD SLT PUSH2 0x19B JUMPI DUP3 CALLDATALOAD PUSH0 MSTORE PUSH0 DUP2 MSTORE PUSH1 0x40 PUSH0 KECCAK256 SWAP1 PUSH1 0x1 DUP1 PUSH1 0xA0 SHL SUB SWAP2 DUP3 DUP2 SLOAD AND SWAP5 PUSH1 0x1 SWAP4 DUP5 DUP4 ADD SLOAD AND PUSH1 0x2 DUP4 ADD SLOAD SWAP1 PUSH1 0x5 PUSH1 0xFF PUSH1 0x3 DUP7 ADD SLOAD SWAP5 DUP7 ADD SLOAD AND SWAP5 ADD PUSH1 0x40 MLOAD DUP1 SWAP8 PUSH0 SWAP1 DUP4 SLOAD SWAP4 PUSH2 0xA8 DUP6 PUSH2 0x633 JUMP JUMPDEST SWAP5 DUP6 DUP6 MSTORE DUP11 DUP4 DUP3 AND SWAP2 DUP3 PUSH0 EQ PUSH2 0x179 JUMPI POP POP PUSH1 0x1 EQ PUSH2 0x13C JUMPI JUMPDEST POP POP PUSH2 0xD8 SWAP3 POP SWAP10 SWAP8 SWAP7 SWAP6 SWAP5 SWAP4 SWAP3 SWAP10 SUB DUP7 PUSH2 0x66B JUMP JUMPDEST PUSH1 0x40 MLOAD SWAP8 DUP9 SWAP7 DUP8 MSTORE DUP5 DUP8 ADD MSTORE PUSH1 0x40 DUP7 ADD MSTORE PUSH1 0x60 DUP6 ADD MSTORE ISZERO ISZERO PUSH1 0x80 DUP5 ADD MSTORE PUSH1 0xC0 PUSH1 0xA0 DUP5 ADD MSTORE DUP2 MLOAD SWAP2 DUP3 PUSH1 0xC0 DUP6 ADD MSTORE PUSH0 JUMPDEST DUP4 DUP2 LT PUSH2 0x126 JUMPI POP POP PUSH0 DUP4 DUP4 ADD DUP6 ADD MSTORE POP PUSH1 0x1F ADD PUSH1 0x1F NOT AND DUP2 ADD SUB ADD SWAP1 RETURN JUMPDEST DUP2 DUP2 ADD DUP4 ADD MLOAD DUP8 DUP3 ADD DUP8 ADD MSTORE DUP7 SWAP5 POP DUP3 ADD PUSH2 0x107 JUMP JUMPDEST DUP10 SWAP3 POP PUSH0 MSTORE DUP2 PUSH0 KECCAK256 SWAP1 PUSH0 SWAP2 JUMPDEST DUP6 DUP4 LT PUSH2 0x160 JUMPI POP POP PUSH2 0xD8 SWAP4 POP DUP3 ADD ADD PUSH0 DUP1 PUSH2 0xC2 JUMP JUMPDEST DUP2 SWAP5 DUP5 DUP5 DUP4 SWAP7 SWAP6 SWAP7 SLOAD SWAP3 ADD ADD MSTORE ADD SWAP2 ADD DUP10 SWAP3 DUP10 SWAP3 PUSH2 0x148 JUMP JUMPDEST SWAP3 POP SWAP4 POP POP PUSH2 0xD8 SWAP5 SWAP2 POP PUSH1 0xFF NOT AND DUP3 DUP5 ADD MSTORE ISZERO ISZERO PUSH1 0x5 SHL DUP3 ADD ADD PUSH0 DUP1 PUSH2 0xC2 JUMP JUMPDEST PUSH0 DUP1 REVERT JUMPDEST DUP3 CALLVALUE PUSH2 0x19B JUMPI PUSH1 0x80 CALLDATASIZE PUSH1 0x3 NOT ADD SLT PUSH2 0x19B JUMPI DUP1 CALLDATALOAD SWAP1 PUSH1 0x1 PUSH1 0x1 PUSH1 0xA0 SHL SUB DUP3 AND DUP3 SUB PUSH2 0x19B JUMPI PUSH8 0xFFFFFFFFFFFFFFFF PUSH1 0x64 CALLDATALOAD GT PUSH2 0x19B JUMPI CALLDATASIZE PUSH1 0x23 PUSH1 0x64 CALLDATALOAD ADD SLT ISZERO PUSH2 0x19B JUMPI PUSH8 0xFFFFFFFFFFFFFFFF PUSH1 0x64 CALLDATALOAD DUP3 ADD CALLDATALOAD GT PUSH2 0x19B JUMPI CALLDATASIZE PUSH1 0x64 CALLDATALOAD DUP3 DUP2 ADD CALLDATALOAD ADD PUSH1 0x24 ADD GT PUSH2 0x19B JUMPI PUSH1 0x44 CALLDATALOAD TIMESTAMP DUP2 GT ISZERO PUSH2 0x4B8 JUMPI PUSH1 0x40 MLOAD PUSH1 0xC0 DUP2 ADD DUP2 DUP2 LT PUSH8 0xFFFFFFFFFFFFFFFF DUP3 GT OR PUSH2 0x4A5 JUMPI PUSH1 0x40 MSTORE PUSH1 0x1 DUP1 PUSH1 0xA0 SHL SUB DUP5 AND DUP2 MSTORE CALLER PUSH1 0x20 DUP3 ADD MSTORE PUSH1 0x24 CALLDATALOAD PUSH1 0x40 DUP3 ADD MSTORE DUP2 PUSH1 0x60 DUP3 ADD MSTORE PUSH0 PUSH1 0x80 DUP3 ADD MSTORE PUSH1 0x40 MLOAD PUSH2 0x270 PUSH1 0x20 PUSH1 0x1F NOT PUSH1 0x1F PUSH1 0x64 CALLDATALOAD DUP9 ADD CALLDATALOAD ADD AND ADD DUP3 PUSH2 0x66B JUMP JUMPDEST PUSH1 0x64 CALLDATALOAD DUP5 DUP2 ADD CALLDATALOAD DUP1 DUP4 MSTORE SWAP1 PUSH1 0x24 ADD PUSH1 0x20 DUP4 ADD CALLDATACOPY PUSH0 PUSH1 0x20 PUSH1 0x64 CALLDATALOAD DUP7 ADD CALLDATALOAD DUP4 ADD ADD MSTORE PUSH1 0xA0 DUP3 ADD MSTORE PUSH1 0x1 SLOAD PUSH0 MSTORE PUSH0 PUSH1 0x20 MSTORE PUSH1 0xA0 PUSH1 0x5 PUSH1 0x40 PUSH0 KECCAK256 PUSH1 0x1 DUP1 DUP5 SHL SUB DUP5 MLOAD AND PUSH12 0xFFFFFFFFFFFFFFFFFFFFFFFF DUP5 SHL SWAP1 DUP2 DUP4 SLOAD AND OR DUP3 SSTORE PUSH1 0x1 DUP3 ADD SWAP1 PUSH1 0x1 DUP1 DUP7 SHL SUB PUSH1 0x20 DUP8 ADD MLOAD AND SWAP1 DUP3 SLOAD AND OR SWAP1 SSTORE PUSH1 0x40 DUP5 ADD MLOAD PUSH1 0x2 DUP3 ADD SSTORE PUSH1 0x60 DUP5 ADD MLOAD PUSH1 0x3 DUP3 ADD SSTORE DUP6 DUP2 ADD PUSH1 0x80 DUP6 ADD MLOAD ISZERO ISZERO PUSH1 0xFF DUP1 NOT DUP4 SLOAD AND SWAP2 AND OR SWAP1 SSTORE ADD SWAP2 ADD MLOAD DUP1 MLOAD SWAP1 PUSH8 0xFFFFFFFFFFFFFFFF DUP3 GT PUSH2 0x492 JUMPI DUP2 SWAP1 PUSH2 0x32A DUP5 SLOAD PUSH2 0x633 JUMP JUMPDEST PUSH1 0x1F DUP2 GT PUSH2 0x442 JUMPI JUMPDEST POP PUSH1 0x20 SWAP1 PUSH1 0x1F DUP4 GT PUSH1 0x1 EQ PUSH2 0x3DE JUMPI PUSH0 SWAP3 PUSH2 0x3D3 JUMPI JUMPDEST POP POP DUP2 PUSH1 0x1 SHL SWAP2 PUSH0 NOT SWAP1 PUSH1 0x3 SHL SHR NOT AND OR SWAP1 SSTORE JUMPDEST PUSH1 0x1 SLOAD SWAP3 PUSH1 0x40 MLOAD SWAP2 PUSH1 0x24 CALLDATALOAD DUP4 MSTORE PUSH1 0x20 DUP4 ADD MSTORE PUSH1 0x1 DUP1 PUSH1 0xA0 SHL SUB AND SWAP1 DUP4 PUSH32 0xDD17148FFEB69E95DBD8FEE5B9A79DF1FAD7408E496CD1CDEC4ADF522527E90D PUSH1 0x40 CALLER SWAP4 LOG4 PUSH0 NOT DUP3 EQ PUSH2 0x3C0 JUMPI PUSH1 0x1 DUP3 ADD DUP1 PUSH1 0x1 SSTORE DUP3 GT PUSH2 0x3C0 JUMPI PUSH1 0x20 DUP3 PUSH1 0x40 MLOAD SWAP1 DUP2 MSTORE RETURN JUMPDEST PUSH1 0x11 SWAP1 PUSH4 0x4E487B71 PUSH1 0xE0 SHL PUSH0 MSTORE MSTORE PUSH1 0x24 PUSH0 REVERT JUMPDEST ADD MLOAD SWAP1 POP DUP7 DUP1 PUSH2 0x349 JUMP JUMPDEST PUSH0 DUP6 DUP2 MSTORE PUSH1 0x20 DUP2 KECCAK256 SWAP4 POP PUSH1 0x1F NOT DUP6 AND SWAP1 JUMPDEST DUP2 DUP2 LT PUSH2 0x42A JUMPI POP SWAP1 DUP5 PUSH1 0x1 SWAP6 SWAP5 SWAP4 SWAP3 LT PUSH2 0x412 JUMPI JUMPDEST POP POP POP DUP2 SHL ADD SWAP1 SSTORE PUSH2 0x35D JUMP JUMPDEST ADD MLOAD PUSH0 NOT PUSH1 0xF8 DUP5 PUSH1 0x3 SHL AND SHR NOT AND SWAP1 SSTORE DUP7 DUP1 DUP1 PUSH2 0x405 JUMP JUMPDEST SWAP3 SWAP4 PUSH1 0x20 PUSH1 0x1 DUP2 SWAP3 DUP8 DUP7 ADD MLOAD DUP2 SSTORE ADD SWAP6 ADD SWAP4 ADD PUSH2 0x3EF JUMP JUMPDEST SWAP1 SWAP2 POP DUP4 PUSH0 MSTORE PUSH1 0x20 PUSH0 KECCAK256 PUSH1 0x1F DUP5 ADD PUSH1 0x5 SHR DUP2 ADD SWAP2 PUSH1 0x20 DUP6 LT PUSH2 0x488 JUMPI JUMPDEST SWAP1 PUSH1 0x1F DUP6 SWAP5 SWAP4 SWAP3 ADD PUSH1 0x5 SHR ADD SWAP1 JUMPDEST DUP2 DUP2 LT PUSH2 0x47A JUMPI POP PUSH2 0x333 JUMP JUMPDEST PUSH0 DUP2 SSTORE DUP5 SWAP4 POP PUSH1 0x1 ADD PUSH2 0x46D JUMP JUMPDEST SWAP1 SWAP2 POP DUP2 SWAP1 PUSH2 0x45F JUMP JUMPDEST PUSH1 0x41 DUP6 PUSH4 0x4E487B71 PUSH1 0xE0 SHL PUSH0 MSTORE MSTORE PUSH1 0x24 PUSH0 REVERT JUMPDEST PUSH1 0x41 DUP5 PUSH4 0x4E487B71 PUSH1 0xE0 SHL PUSH0 MSTORE MSTORE PUSH1 0x24 PUSH0 REVERT JUMPDEST PUSH1 0x40 MLOAD PUSH3 0x461BCD PUSH1 0xE5 SHL DUP2 MSTORE PUSH1 0x20 DUP2 DUP5 ADD MSTORE PUSH1 0x1D PUSH1 0x24 DUP3 ADD MSTORE PUSH32 0x556E6C6F636B2074696D65206D75737420626520696E20667574757265000000 PUSH1 0x44 DUP3 ADD MSTORE PUSH1 0x64 SWAP1 REVERT JUMPDEST CALLVALUE PUSH2 0x19B JUMPI PUSH0 CALLDATASIZE PUSH1 0x3 NOT ADD SLT PUSH2 0x19B JUMPI PUSH1 0x20 PUSH1 0x1 SLOAD PUSH1 0x40 MLOAD SWAP1 DUP2 MSTORE RETURN JUMPDEST DUP4 CALLVALUE PUSH2 0x19B JUMPI PUSH1 0x20 CALLDATASIZE PUSH1 0x3 NOT ADD SLT PUSH2 0x19B JUMPI DUP1 CALLDATALOAD SWAP2 DUP3 PUSH0 MSTORE PUSH0 PUSH1 0x20 MSTORE PUSH1 0x40 PUSH0 KECCAK256 SWAP1 PUSH1 0x1 DUP1 PUSH1 0xA0 SHL SUB PUSH1 0x1 DUP4 ADD SLOAD AND CALLER SUB PUSH2 0x606 JUMPI POP DUP2 DUP2 ADD SWAP2 DUP3 SLOAD SWAP2 PUSH1 0xFF DUP4 AND PUSH2 0x5D0 JUMPI PUSH1 0x3 ADD SLOAD TIMESTAMP LT PUSH2 0x599 JUMPI POP PUSH1 0xFF NOT AND PUSH1 0x1 OR SWAP1 SSTORE CALLER SWAP1 PUSH32 0x83017964D41E2EB3369A74F93CE7024DC09D85D2BFA35CA86268234733B96590 PUSH0 DUP1 LOG3 STOP JUMPDEST PUSH1 0x64 SWAP1 PUSH1 0x20 PUSH1 0x40 MLOAD SWAP2 PUSH3 0x461BCD PUSH1 0xE5 SHL DUP4 MSTORE DUP3 ADD MSTORE PUSH1 0x10 PUSH1 0x24 DUP3 ADD MSTORE PUSH16 0x139BDD081D5B9B1BD8DAD959081E595D PUSH1 0x82 SHL PUSH1 0x44 DUP3 ADD MSTORE REVERT JUMPDEST PUSH1 0x40 MLOAD PUSH3 0x461BCD PUSH1 0xE5 SHL DUP2 MSTORE PUSH1 0x20 DUP2 DUP5 ADD MSTORE PUSH1 0xF PUSH1 0x24 DUP3 ADD MSTORE PUSH15 0x105B1C9958591E4818DB185A5B5959 PUSH1 0x8A SHL PUSH1 0x44 DUP3 ADD MSTORE PUSH1 0x64 SWAP1 REVERT JUMPDEST PUSH3 0x461BCD PUSH1 0xE5 SHL DUP2 MSTORE PUSH1 0x20 DUP4 DUP3 ADD MSTORE PUSH1 0x9 PUSH1 0x24 DUP3 ADD MSTORE PUSH9 0x2737BA1037BBB732B9 PUSH1 0xB9 SHL PUSH1 0x44 DUP3 ADD MSTORE PUSH1 0x64 SWAP1 REVERT JUMPDEST SWAP1 PUSH1 0x1 DUP3 DUP2 SHR SWAP3 AND DUP1 ISZERO PUSH2 0x661 JUMPI JUMPDEST PUSH1 0x20 DUP4 LT EQ PUSH2 0x64D JUMPI JUMP JUMPDEST PUSH4 0x4E487B71 PUSH1 0xE0 SHL PUSH0 MSTORE PUSH1 0x22 PUSH1 0x4 MSTORE PUSH1 0x24 PUSH0 REVERT JUMPDEST SWAP2 PUSH1 0x7F AND SWAP2 PUSH2 0x642 JUMP JUMPDEST SWAP1 PUSH1 0x1F DUP1 NOT SWAP2 ADD AND DUP2 ADD SWAP1 DUP2 LT PUSH8 0xFFFFFFFFFFFFFFFF DUP3 GT OR PUSH2 0x68D JUMPI PUSH1 0x40 MSTORE JUMP JUMPDEST PUSH4 0x4E487B71 PUSH1 0xE0 SHL PUSH0 MSTORE PUSH1 0x41 PUSH1 0x4 MSTORE PUSH1 0x24 PUSH0 REVERT INVALID LOG2 PUSH5 0x6970667358 0x22 SLT KECCAK256 PUSH25 0x9E7F94C62E96D90B10D65DB5D3DA4737365E20E9292C708746 CHAINID 0x21 0xEE AND XOR EXTCODECOPY PUSH5 0x736F6C6343 STOP ADDMOD EQ STOP CALLER "},"methodIdentifiers":{"claimTokens(uint256)":"46e04a2f","lockTokens(address,uint256,uint256,string)":"c6ee4f59","locks(uint256)":"f4dadc61","nextLockId()":"6518a0b3"}}}}}