{"project/contracts/Vesting.sol":{"Vesting":{"abi":[{"inputs":[{"internalType":"address","name":"initialOwner","type":"address"}],"stateMutability":"nonpayable","type":"constructor"},{"inputs":[{"internalType":"address","name":"owner","type":"address"}],"name":"OwnableInvalidOwner","type":"error"},{"inputs":[{"internalType":"address","name":"account","type":"address"}],"name":"OwnableUnauthorizedAccount","type":"error"},{"anonymous":false,"inputs":[{"indexed":true,"internalType":"address","name":"previousOwner","type":"address"},{"indexed":true,"internalType":"address","name":"newOwner","type":"address"}],"name":"OwnershipTransferred","type":"event"},{"anonymous":false,"inputs":[{"indexed":true,"internalType":"uint256","name":"vestingId","type":"uint256"},{"indexed":false,"internalType":"uint256","name":"amount","type":"uint256"}],"name":"Released","type":"event"},{"anonymous":false,"inputs":[{"indexed":true,"internalType":"uint256","name":"vestingId","type":"uint256"},{"indexed":true,"internalType":"address","name":"beneficiary","type":"address"},{"indexed":false,"internalType":"uint256","name":"totalAmount","type":"uint256"},{"indexed":false,"internalType":"uint256","name":"start","type":"uint256"},{"indexed":false,"internalType":"uint256","name":"duration","type":"uint256"}],"name":"VestingCreated","type":"event"},{"inputs":[{"internalType":"address","name":"beneficiary","type":"address"},{"internalType":"address","name":"token","type":"address"},{"internalType":"uint256","name":"totalAmount","type":"uint256"},{"internalType":"uint256","name":"start","type":"uint256"},{"internalType":"uint256","name":"cliff","type":"uint256"},{"internalType":"uint256","name":"duration","type":"uint256"}],"name":"createVesting","outputs":[{"internalType":"uint256","name":"","type":"uint256"}],"stateMutability":"nonpayable","type":"function"},{"inputs":[],"name":"nextScheduleId","outputs":[{"internalType":"uint256","name":"","type":"uint256"}],"stateMutability":"view","type":"function"},{"inputs":[],"name":"owner","outputs":[{"internalType":"address","name":"","type":"address"}],"stateMutability":"view","type":"function"},{"inputs":[{"internalType":"uint256","name":"vestingId","type":"uint256"}],"name":"releasableAmount","outputs":[{"internalType":"uint256","name":"","type":"uint256"}],"stateMutability":"view","type":"function"},{"inputs":[{"internalType":"uint256","name":"vestingId","type":"uint256"}],"name":"release","outputs":[],"stateMutability":"nonpayable","type":"function"},{"inputs":[],"name":"renounceOwnership","outputs":[],"stateMutability":"nonpayable","type":"function"},{"inputs":[{"internalType":"uint256","name":"","type":"uint256"}],"name":"schedules","outputs":[{"internalType":"address","name":"beneficiary","type":"address"},{"internalType":"address","name":"token","type":"address"},{"internalType":"uint256","name":"totalAmount","type":"uint256"},{"internalType":"uint256","name":"start","type":"uint256"},{"internalType":"uint256","name":"cliff","type":"uint256"},{"internalType":"uint256","name":"duration","type":"uint256"},{"internalType":"uint256","name":"released","type":"uint256"}],"stateMutability":"view","type":"function"},{"inputs":[{"internalType":"address","name":"newOwner","type":"address"}],"name":"transferOwnership","outputs":[],"stateMutability":"nonpayable","type":"function"}],"evm":{"bytecode":{"linkReferences":{},"object":"6080346100b957601f61079538819003918201601f19168301916001600160401b038311848410176100bd578084926020946040528339810103126100b957516001600160a01b0390818116908190036100b95780156100a1575f80546001600160a01b03198116831782556040519316907f8be0079c531659141344cd1fd0a4f28419497f9722a3daafe3b4186f6b6457e09080a36106c390816100d28239f35b604051631e4fbdf760e01b81525f6004820152602490fd5b5f80fd5b634e487b7160e01b5f52604160045260245ffdfe60806040818152600480361015610014575f80fd5b5f92833560e01c9081630f038d41146105495750806332f637db146103d857806337bdc99b146102225780635927fca2146101fb578063715018a61461019e5780638da5cb5b14610172578063bdc6d9ab146101015763f2fde38b14610078575f80fd5b346100fd5760203660031901126100fd57610091610565565b9061009a61057f565b6001600160a01b039182169283156100e757505082546001600160a01b0319811683178455167f8be0079c531659141344cd1fd0a4f28419497f9722a3daafe3b4186f6b6457e08380a380f35b51631e4fbdf760e01b8152908101849052602490fd5b8280fd5b50346100fd5760203660031901126100fd578160e0938235815260026020522060018060a01b03928382541693600183015416926002830154600384015491840154926006600586015495015495815197885260208801528601526060850152608084015260a083015260c0820152f35b50503461019a578160031936011261019a57905490516001600160a01b039091168152602090f35b5080fd5b83346101f857806003193601126101f8576101b761057f565b80546001600160a01b03198116825581906001600160a01b03167f8be0079c531659141344cd1fd0a4f28419497f9722a3daafe3b4186f6b6457e08280a380f35b80fd5b5091346101f85760203660031901126101f8575061021b602092356105d8565b9051908152f35b5090346100fd576020806003193601126103d4578235808552600282528285208054919490916001600160a01b039081169033821480156103c8575b156103945761026c876105d8565b93841561035a57916044869260018560068d98970161028c8a82546105cb565b9055015416918851958693849263a9059cbb60e01b8452878401528860248401525af18015610350576102e6575b50507fd5840651550c173a8bf246eede440a59253bc61eadb2e8887168faad2fad631d9251908152a280f35b83903d8511610348575b601f8201601f191683019067ffffffffffffffff82118483101761033557508491839187528101031261033157518015150361032d575f806102ba565b8480fd5b8580fd5b634e487b7160e01b895260419052602488fd5b3d91506102f0565b85513d89823e3d90fd5b865162461bcd60e51b81528085018790526014602482015273139bc81c995b19585cd8589b1948185b5bdd5b9d60621b6044820152606490fd5b855162461bcd60e51b8152808401869052600e60248201526d139bdd08185d5d1a1bdc9a5e995960921b6044820152606490fd5b5080885416331461025e565b8380fd5b5091903461019a5760c036600319011261019a576103f4610565565b6001600160a01b03929060243584811691908290036100fd576044356064359160a4359661042061057f565b86519160e0830183811067ffffffffffffffff82111761053657878a8a857ffad9286b8a0c21fb92a92ecbf564a2091a54a2d2f65eb5ba126253eb6bb815949896606098966006968452169a8b87526020870190815282870190888252898801928c84528060808a0195608435875260a08b0197885260c08b0198808a526001548152600260205220995116906bffffffffffffffffffffffff60a01b91828b5416178a5560018a0192511690825416179055516002870155516003860155518d850155516005840155519101556001549788948851928352602083015287820152a35f1983146105235760018301806001558311610523576020838351908152f35b634e487b7160e01b815260118452602490fd5b634e487b7160e01b885260418b52602488fd5b84903461019a578160031936011261019a576020906001548152f35b600435906001600160a01b038216820361057b57565b5f80fd5b5f546001600160a01b0316330361059257565b60405163118cdaa760e01b8152336004820152602490fd5b919082039182116105b757565b634e487b7160e01b5f52601160045260245ffd5b919082018092116105b757565b905f9182526002602052604082209160038301546105fa6004850154826105cb565b42106106885761060a90426105aa565b906005840154908183101561067057600285015483810293818504149015171561065c578115610648575060066106459394015491046105aa565b90565b634e487b7160e01b81526012600452602490fd5b634e487b7160e01b81526011600452602490fd5b505050908060066002610645930154910154906105aa565b50915056fea2646970667358221220d9dd8f80e2a73cb7555957424ba496e1635a5f1f8477aa079fc4e429ba2b8efc64736f6c63430008140033","opcodes":"PUSH1 0x80 CALLVALUE PUSH2 0xB9 JUMPI PUSH1 0x1F PUSH2 0x795 CODESIZE DUP2 SWAP1 SUB SWAP2 DUP3 ADD PUSH1 0x1F NOT AND DUP4 ADD SWAP2 PUSH1 0x1 PUSH1 0x1 PUSH1 0x40 SHL SUB DUP4 GT DUP5 DUP5 LT OR PUSH2 0xBD JUMPI DUP1 DUP5 SWAP3 PUSH1 0x20 SWAP5 PUSH1 0x40 MSTORE DUP4 CODECOPY DUP2 ADD SUB SLT PUSH2 0xB9 JUMPI MLOAD PUSH1 0x1 PUSH1 0x1 PUSH1 0xA0 SHL SUB SWAP1 DUP2 DUP2 AND SWAP1 DUP2 SWAP1 SUB PUSH2 0xB9 JUMPI DUP1 ISZERO PUSH2 0xA1 JUMPI PUSH0 DUP1 SLOAD PUSH1 0x1 PUSH1 0x1 PUSH1 0xA0 SHL SUB NOT DUP2 AND DUP4 OR DUP3 SSTORE PUSH1 0x40 MLOAD SWAP4 AND SWAP1 PUSH32 0x8BE0079C531659141344CD1FD0A4F28419497F9722A3DAAFE3B4186F6B6457E0 SWAP1 DUP1 LOG3 PUSH2 0x6C3 SWAP1 DUP2 PUSH2 0xD2 DUP3 CODECOPY RETURN JUMPDEST PUSH1 0x40 MLOAD PUSH4 0x1E4FBDF7 PUSH1 0xE0 SHL DUP2 MSTORE PUSH0 PUSH1 0x4 DUP3 ADD MSTORE PUSH1 0x24 SWAP1 REVERT JUMPDEST PUSH0 DUP1 REVERT JUMPDEST PUSH4 0x4E487B71 PUSH1 0xE0 SHL PUSH0 MSTORE PUSH1 0x41 PUSH1 0x4 MSTORE PUSH1 0x24 PUSH0 REVERT INVALID PUSH1 0x80 PUSH1 0x40 DUP2 DUP2 MSTORE PUSH1 0x4 DUP1 CALLDATASIZE LT ISZERO PUSH2 0x14 JUMPI PUSH0 DUP1 REVERT JUMPDEST PUSH0 SWAP3 DUP4 CALLDATALOAD PUSH1 0xE0 SHR SWAP1 DUP2 PUSH4 0xF038D41 EQ PUSH2 0x549 JUMPI POP DUP1 PUSH4 0x32F637DB EQ PUSH2 0x3D8 JUMPI DUP1 PUSH4 0x37BDC99B EQ PUSH2 0x222 JUMPI DUP1 PUSH4 0x5927FCA2 EQ PUSH2 0x1FB JUMPI DUP1 PUSH4 0x715018A6 EQ PUSH2 0x19E JUMPI DUP1 PUSH4 0x8DA5CB5B EQ PUSH2 0x172 JUMPI DUP1 PUSH4 0xBDC6D9AB EQ PUSH2 0x101 JUMPI PUSH4 0xF2FDE38B EQ PUSH2 0x78 JUMPI PUSH0 DUP1 REVERT JUMPDEST CALLVALUE PUSH2 0xFD JUMPI PUSH1 0x20 CALLDATASIZE PUSH1 0x3 NOT ADD SLT PUSH2 0xFD JUMPI PUSH2 0x91 PUSH2 0x565 JUMP JUMPDEST SWAP1 PUSH2 0x9A PUSH2 0x57F JUMP JUMPDEST PUSH1 0x1 PUSH1 0x1 PUSH1 0xA0 SHL SUB SWAP2 DUP3 AND SWAP3 DUP4 ISZERO PUSH2 0xE7 JUMPI POP POP DUP3 SLOAD PUSH1 0x1 PUSH1 0x1 PUSH1 0xA0 SHL SUB NOT DUP2 AND DUP4 OR DUP5 SSTORE AND PUSH32 0x8BE0079C531659141344CD1FD0A4F28419497F9722A3DAAFE3B4186F6B6457E0 DUP4 DUP1 LOG3 DUP1 RETURN JUMPDEST MLOAD PUSH4 0x1E4FBDF7 PUSH1 0xE0 SHL DUP2 MSTORE SWAP1 DUP2 ADD DUP5 SWAP1 MSTORE PUSH1 0x24 SWAP1 REVERT JUMPDEST DUP3 DUP1 REVERT JUMPDEST POP CALLVALUE PUSH2 0xFD JUMPI PUSH1 0x20 CALLDATASIZE PUSH1 0x3 NOT ADD SLT PUSH2 0xFD JUMPI DUP2 PUSH1 0xE0 SWAP4 DUP3 CALLDATALOAD DUP2 MSTORE PUSH1 0x2 PUSH1 0x20 MSTORE KECCAK256 PUSH1 0x1 DUP1 PUSH1 0xA0 SHL SUB SWAP3 DUP4 DUP3 SLOAD AND SWAP4 PUSH1 0x1 DUP4 ADD SLOAD AND SWAP3 PUSH1 0x2 DUP4 ADD SLOAD PUSH1 0x3 DUP5 ADD SLOAD SWAP2 DUP5 ADD SLOAD SWAP3 PUSH1 0x6 PUSH1 0x5 DUP7 ADD SLOAD SWAP6 ADD SLOAD SWAP6 DUP2 MLOAD SWAP8 DUP9 MSTORE PUSH1 0x20 DUP9 ADD MSTORE DUP7 ADD MSTORE PUSH1 0x60 DUP6 ADD MSTORE PUSH1 0x80 DUP5 ADD MSTORE PUSH1 0xA0 DUP4 ADD MSTORE PUSH1 0xC0 DUP3 ADD MSTORE RETURN JUMPDEST POP POP CALLVALUE PUSH2 0x19A JUMPI DUP2 PUSH1 0x3 NOT CALLDATASIZE ADD SLT PUSH2 0x19A JUMPI SWAP1 SLOAD SWAP1 MLOAD PUSH1 0x1 PUSH1 0x1 PUSH1 0xA0 SHL SUB SWAP1 SWAP2 AND DUP2 MSTORE PUSH1 0x20 SWAP1 RETURN JUMPDEST POP DUP1 REVERT JUMPDEST DUP4 CALLVALUE PUSH2 0x1F8 JUMPI DUP1 PUSH1 0x3 NOT CALLDATASIZE ADD SLT PUSH2 0x1F8 JUMPI PUSH2 0x1B7 PUSH2 0x57F JUMP JUMPDEST DUP1 SLOAD PUSH1 0x1 PUSH1 0x1 PUSH1 0xA0 SHL SUB NOT DUP2 AND DUP3 SSTORE DUP2 SWAP1 PUSH1 0x1 PUSH1 0x1 PUSH1 0xA0 SHL SUB AND PUSH32 0x8BE0079C531659141344CD1FD0A4F28419497F9722A3DAAFE3B4186F6B6457E0 DUP3 DUP1 LOG3 DUP1 RETURN JUMPDEST DUP1 REVERT JUMPDEST POP SWAP2 CALLVALUE PUSH2 0x1F8 JUMPI PUSH1 0x20 CALLDATASIZE PUSH1 0x3 NOT ADD SLT PUSH2 0x1F8 JUMPI POP PUSH2 0x21B PUSH1 0x20 SWAP3 CALLDATALOAD PUSH2 0x5D8 JUMP JUMPDEST SWAP1 MLOAD SWAP1 DUP2 MSTORE RETURN JUMPDEST POP SWAP1 CALLVALUE PUSH2 0xFD JUMPI PUSH1 0x20 DUP1 PUSH1 0x3 NOT CALLDATASIZE ADD SLT PUSH2 0x3D4 JUMPI DUP3 CALLDATALOAD DUP1 DUP6 MSTORE PUSH1 0x2 DUP3 MSTORE DUP3 DUP6 KECCAK256 DUP1 SLOAD SWAP2 SWAP5 SWAP1 SWAP2 PUSH1 0x1 PUSH1 0x1 PUSH1 0xA0 SHL SUB SWAP1 DUP2 AND SWAP1 CALLER DUP3 EQ DUP1 ISZERO PUSH2 0x3C8 JUMPI JUMPDEST ISZERO PUSH2 0x394 JUMPI PUSH2 0x26C DUP8 PUSH2 0x5D8 JUMP JUMPDEST SWAP4 DUP5 ISZERO PUSH2 0x35A JUMPI SWAP2 PUSH1 0x44 DUP7 SWAP3 PUSH1 0x1 DUP6 PUSH1 0x6 DUP14 SWAP9 SWAP8 ADD PUSH2 0x28C DUP11 DUP3 SLOAD PUSH2 0x5CB JUMP JUMPDEST SWAP1 SSTORE ADD SLOAD AND SWAP2 DUP9 MLOAD SWAP6 DUP7 SWAP4 DUP5 SWAP3 PUSH4 0xA9059CBB PUSH1 0xE0 SHL DUP5 MSTORE DUP8 DUP5 ADD MSTORE DUP9 PUSH1 0x24 DUP5 ADD MSTORE GAS CALL DUP1 ISZERO PUSH2 0x350 JUMPI PUSH2 0x2E6 JUMPI JUMPDEST POP POP PUSH32 0xD5840651550C173A8BF246EEDE440A59253BC61EADB2E8887168FAAD2FAD631D SWAP3 MLOAD SWAP1 DUP2 MSTORE LOG2 DUP1 RETURN JUMPDEST DUP4 SWAP1 RETURNDATASIZE DUP6 GT PUSH2 0x348 JUMPI JUMPDEST PUSH1 0x1F DUP3 ADD PUSH1 0x1F NOT AND DUP4 ADD SWAP1 PUSH8 0xFFFFFFFFFFFFFFFF DUP3 GT DUP5 DUP4 LT OR PUSH2 0x335 JUMPI POP DUP5 SWAP2 DUP4 SWAP2 DUP8 MSTORE DUP2 ADD SUB SLT PUSH2 0x331 JUMPI MLOAD DUP1 ISZERO ISZERO SUB PUSH2 0x32D JUMPI PUSH0 DUP1 PUSH2 0x2BA JUMP JUMPDEST DUP5 DUP1 REVERT JUMPDEST DUP6 DUP1 REVERT JUMPDEST PUSH4 0x4E487B71 PUSH1 0xE0 SHL DUP10 MSTORE PUSH1 0x41 SWAP1 MSTORE PUSH1 0x24 DUP9 REVERT JUMPDEST RETURNDATASIZE SWAP2 POP PUSH2 0x2F0 JUMP JUMPDEST DUP6 MLOAD RETURNDATASIZE DUP10 DUP3 RETURNDATACOPY RETURNDATASIZE SWAP1 REVERT JUMPDEST DUP7 MLOAD PUSH3 0x461BCD PUSH1 0xE5 SHL DUP2 MSTORE DUP1 DUP6 ADD DUP8 SWAP1 MSTORE PUSH1 0x14 PUSH1 0x24 DUP3 ADD MSTORE PUSH20 0x139BC81C995B19585CD8589B1948185B5BDD5B9D PUSH1 0x62 SHL PUSH1 0x44 DUP3 ADD MSTORE PUSH1 0x64 SWAP1 REVERT JUMPDEST DUP6 MLOAD PUSH3 0x461BCD PUSH1 0xE5 SHL DUP2 MSTORE DUP1 DUP5 ADD DUP7 SWAP1 MSTORE PUSH1 0xE PUSH1 0x24 DUP3 ADD MSTORE PUSH14 0x139BDD08185D5D1A1BDC9A5E9959 PUSH1 0x92 SHL PUSH1 0x44 DUP3 ADD MSTORE PUSH1 0x64 SWAP1 REVERT JUMPDEST POP DUP1 DUP9 SLOAD AND CALLER EQ PUSH2 0x25E JUMP JUMPDEST DUP4 DUP1 REVERT JUMPDEST POP SWAP2 SWAP1 CALLVALUE PUSH2 0x19A JUMPI PUSH1 0xC0 CALLDATASIZE PUSH1 0x3 NOT ADD SLT PUSH2 0x19A JUMPI PUSH2 0x3F4 PUSH2 0x565 JUMP JUMPDEST PUSH1 0x1 PUSH1 0x1 PUSH1 0xA0 SHL SUB SWAP3 SWAP1 PUSH1 0x24 CALLDATALOAD DUP5 DUP2 AND SWAP2 SWAP1 DUP3 SWAP1 SUB PUSH2 0xFD JUMPI PUSH1 0x44 CALLDATALOAD PUSH1 0x64 CALLDATALOAD SWAP2 PUSH1 0xA4 CALLDATALOAD SWAP7 PUSH2 0x420 PUSH2 0x57F JUMP JUMPDEST DUP7 MLOAD SWAP2 PUSH1 0xE0 DUP4 ADD DUP4 DUP2 LT PUSH8 0xFFFFFFFFFFFFFFFF DUP3 GT OR PUSH2 0x536 JUMPI DUP8 DUP11 DUP11 DUP6 PUSH32 0xFAD9286B8A0C21FB92A92ECBF564A2091A54A2D2F65EB5BA126253EB6BB81594 SWAP9 SWAP7 PUSH1 0x60 SWAP9 SWAP7 PUSH1 0x6 SWAP7 DUP5 MSTORE AND SWAP11 DUP12 DUP8 MSTORE PUSH1 0x20 DUP8 ADD SWAP1 DUP2 MSTORE DUP3 DUP8 ADD SWAP1 DUP9 DUP3 MSTORE DUP10 DUP9 ADD SWAP3 DUP13 DUP5 MSTORE DUP1 PUSH1 0x80 DUP11 ADD SWAP6 PUSH1 0x84 CALLDATALOAD DUP8 MSTORE PUSH1 0xA0 DUP12 ADD SWAP8 DUP9 MSTORE PUSH1 0xC0 DUP12 ADD SWAP9 DUP1 DUP11 MSTORE PUSH1 0x1 SLOAD DUP2 MSTORE PUSH1 0x2 PUSH1 0x20 MSTORE KECCAK256 SWAP10 MLOAD AND SWAP1 PUSH12 0xFFFFFFFFFFFFFFFFFFFFFFFF PUSH1 0xA0 SHL SWAP2 DUP3 DUP12 SLOAD AND OR DUP11 SSTORE PUSH1 0x1 DUP11 ADD SWAP3 MLOAD AND SWAP1 DUP3 SLOAD AND OR SWAP1 SSTORE MLOAD PUSH1 0x2 DUP8 ADD SSTORE MLOAD PUSH1 0x3 DUP7 ADD SSTORE MLOAD DUP14 DUP6 ADD SSTORE MLOAD PUSH1 0x5 DUP5 ADD SSTORE MLOAD SWAP2 ADD SSTORE PUSH1 0x1 SLOAD SWAP8 DUP9 SWAP5 DUP9 MLOAD SWAP3 DUP4 MSTORE PUSH1 0x20 DUP4 ADD MSTORE DUP8 DUP3 ADD MSTORE LOG3 PUSH0 NOT DUP4 EQ PUSH2 0x523 JUMPI PUSH1 0x1 DUP4 ADD DUP1 PUSH1 0x1 SSTORE DUP4 GT PUSH2 0x523 JUMPI PUSH1 0x20 DUP4 DUP4 MLOAD SWAP1 DUP2 MSTORE RETURN JUMPDEST PUSH4 0x4E487B71 PUSH1 0xE0 SHL DUP2 MSTORE PUSH1 0x11 DUP5 MSTORE PUSH1 0x24 SWAP1 REVERT JUMPDEST PUSH4 0x4E487B71 PUSH1 0xE0 SHL DUP9 MSTORE PUSH1 0x41 DUP12 MSTORE PUSH1 0x24 DUP9 REVERT JUMPDEST DUP5 SWAP1 CALLVALUE PUSH2 0x19A JUMPI DUP2 PUSH1 0x3 NOT CALLDATASIZE ADD SLT PUSH2 0x19A JUMPI PUSH1 0x20 SWAP1 PUSH1 0x1 SLOAD DUP2 MSTORE RETURN JUMPDEST PUSH1 0x4 CALLDATALOAD SWAP1 PUSH1 0x1 PUSH1 0x1 PUSH1 0xA0 SHL SUB DUP3 AND DUP3 SUB PUSH2 0x57B JUMPI JUMP JUMPDEST PUSH0 DUP1 REVERT JUMPDEST PUSH0 SLOAD PUSH1 0x1 PUSH1 0x1 PUSH1 0xA0 SHL SUB AND CALLER SUB PUSH2 0x592 JUMPI JUMP JUMPDEST PUSH1 0x40 MLOAD PUSH4 0x118CDAA7 PUSH1 0xE0 SHL DUP2 MSTORE CALLER PUSH1 0x4 DUP3 ADD MSTORE PUSH1 0x24 SWAP1 REVERT JUMPDEST SWAP2 SWAP1 DUP3 SUB SWAP2 DUP3 GT PUSH2 0x5B7 JUMPI JUMP JUMPDEST PUSH4 0x4E487B71 PUSH1 0xE0 SHL PUSH0 MSTORE PUSH1 0x11 PUSH1 0x4 MSTORE PUSH1 0x24 PUSH0 REVERT JUMPDEST SWAP2 SWAP1 DUP3 ADD DUP1 SWAP3 GT PUSH2 0x5B7 JUMPI JUMP JUMPDEST SWAP1 PUSH0 SWAP2 DUP3 MSTORE PUSH1 0x2 PUSH1 0x20 MSTORE PUSH1 0x40 DUP3 KECCAK256 SWAP2 PUSH1 0x3 DUP4 ADD SLOAD PUSH2 0x5FA PUSH1 0x4 DUP6 ADD SLOAD DUP3 PUSH2 0x5CB JUMP JUMPDEST TIMESTAMP LT PUSH2 0x688 JUMPI PUSH2 0x60A SWAP1 TIMESTAMP PUSH2 0x5AA JUMP JUMPDEST SWAP1 PUSH1 0x5 DUP5 ADD SLOAD SWAP1 DUP2 DUP4 LT ISZERO PUSH2 0x670 JUMPI PUSH1 0x2 DUP6 ADD SLOAD DUP4 DUP2 MUL SWAP4 DUP2 DUP6 DIV EQ SWAP1 ISZERO OR ISZERO PUSH2 0x65C JUMPI DUP2 ISZERO PUSH2 0x648 JUMPI POP PUSH1 0x6 PUSH2 0x645 SWAP4 SWAP5 ADD SLOAD SWAP2 DIV PUSH2 0x5AA JUMP JUMPDEST SWAP1 JUMP JUMPDEST PUSH4 0x4E487B71 PUSH1 0xE0 SHL DUP2 MSTORE PUSH1 0x12 PUSH1 0x4 MSTORE PUSH1 0x24 SWAP1 REVERT JUMPDEST PUSH4 0x4E487B71 PUSH1 0xE0 SHL DUP2 MSTORE PUSH1 0x11 PUSH1 0x4 MSTORE PUSH1 0x24 SWAP1 REVERT JUMPDEST POP POP POP SWAP1 DUP1 PUSH1 0x6 PUSH1 0x2 PUSH2 0x645 SWAP4 ADD SLOAD SWAP2 ADD SLOAD SWAP1 PUSH2 0x5AA JUMP JUMPDEST POP SWAP2 POP JUMP INVALID LOG2 PUSH5 0x6970667358 0x22 SLT KECCAK256 0xD9 0xDD DUP16 DUP1 0xE2 0xA7 EXTCODECOPY 0xB7 SSTORE MSIZE JUMPI TIMESTAMP 0x4B LOG4 SWAP7 0xE1 PUSH4 0x5A5F1F84 PUSH24 0xAA079FC4E429BA2B8EFC64736F6C63430008140033000000 "},"methodIdentifiers":{"createVesting(address,address,uint256,uint256,uint256,uint256)":"32f637db","nextScheduleId()":"0f038d41","owner()":"8da5cb5b","releasableAmount(uint256)":"5927fca2","release(uint256)":"37bdc99b","renounceOwnership()":"715018a6","schedules(uint256)":"bdc6d9ab","transferOwnership(address)":"f2fde38b"}}}}}