{"project/contracts/TreasuryTimelock.sol":{"TreasuryTimelock":{"abi":[{"inputs":[{"internalType":"uint256","name":"_delay","type":"uint256"},{"internalType":"address","name":"initialOwner","type":"address"}],"stateMutability":"nonpayable","type":"constructor"},{"inputs":[{"internalType":"address","name":"owner","type":"address"}],"name":"OwnableInvalidOwner","type":"error"},{"inputs":[{"internalType":"address","name":"account","type":"address"}],"name":"OwnableUnauthorizedAccount","type":"error"},{"anonymous":false,"inputs":[{"indexed":true,"internalType":"bytes32","name":"txHash","type":"bytes32"},{"indexed":true,"internalType":"address","name":"target","type":"address"},{"indexed":false,"internalType":"uint256","name":"value","type":"uint256"},{"indexed":false,"internalType":"bytes","name":"data","type":"bytes"}],"name":"Executed","type":"event"},{"anonymous":false,"inputs":[{"indexed":true,"internalType":"address","name":"previousOwner","type":"address"},{"indexed":true,"internalType":"address","name":"newOwner","type":"address"}],"name":"OwnershipTransferred","type":"event"},{"anonymous":false,"inputs":[{"indexed":true,"internalType":"bytes32","name":"txHash","type":"bytes32"},{"indexed":true,"internalType":"address","name":"target","type":"address"},{"indexed":false,"internalType":"uint256","name":"value","type":"uint256"},{"indexed":false,"internalType":"bytes","name":"data","type":"bytes"},{"indexed":false,"internalType":"uint256","name":"when","type":"uint256"}],"name":"Scheduled","type":"event"},{"inputs":[],"name":"delay","outputs":[{"internalType":"uint256","name":"","type":"uint256"}],"stateMutability":"view","type":"function"},{"inputs":[{"internalType":"address","name":"target","type":"address"},{"internalType":"uint256","name":"value","type":"uint256"},{"internalType":"bytes","name":"data","type":"bytes"},{"internalType":"uint256","name":"when","type":"uint256"}],"name":"execute","outputs":[{"internalType":"bytes","name":"","type":"bytes"}],"stateMutability":"payable","type":"function"},{"inputs":[],"name":"owner","outputs":[{"internalType":"address","name":"","type":"address"}],"stateMutability":"view","type":"function"},{"inputs":[],"name":"renounceOwnership","outputs":[],"stateMutability":"nonpayable","type":"function"},{"inputs":[{"internalType":"address","name":"target","type":"address"},{"internalType":"uint256","name":"value","type":"uint256"},{"internalType":"bytes","name":"data","type":"bytes"},{"internalType":"uint256","name":"when","type":"uint256"}],"name":"schedule","outputs":[{"internalType":"bytes32","name":"","type":"bytes32"}],"stateMutability":"nonpayable","type":"function"},{"inputs":[{"internalType":"address","name":"newOwner","type":"address"}],"name":"transferOwnership","outputs":[],"stateMutability":"nonpayable","type":"function"}],"evm":{"bytecode":{"linkReferences":{},"object":"6080346100c357601f61068538819003918201601f19168301916001600160401b038311848410176100c75780849260409485528339810103126100c35780516020909101516001600160a01b039190828116908190036100c35780156100ab575f80546001600160a01b03198116831782556040519416907f8be0079c531659141344cd1fd0a4f28419497f9722a3daafe3b4186f6b6457e09080a36001556105a990816100dc8239f35b604051631e4fbdf760e01b81525f6004820152602490fd5b5f80fd5b634e487b7160e01b5f52604160045260245ffdfe6080604081815260049081361015610015575f80fd5b5f92833560e01c9081636a42b8f81461043c57508063715018a6146103e257806371fe05bf146102da57806374420f4c1461011f5780638da5cb5b146100f35763f2fde38b14610063575f80fd5b346100ef5760203660031901126100ef576001600160a01b038235818116939192908490036100eb576100946104c2565b83156100d557505082546001600160a01b0319811683178455167f8be0079c531659141344cd1fd0a4f28419497f9722a3daafe3b4186f6b6457e08380a380f35b51631e4fbdf760e01b8152908101849052602490fd5b8480fd5b8280fd5b83823461011b578160031936011261011b57905490516001600160a01b039091168152602090f35b5080fd5b508261012a36610458565b969361013a9593959291926104c2565b8742106102ab57865195602098876101598b820192878786888761050d565b039761016d601f19998a810183528261053d565b5190209285808a518784823780888101838152039085875af1963d156102a3573d9767ffffffffffffffff8911610290578a51986101b28d8c601f840116018b61053d565b89523d888d8b013e5b1561025a57508851918252898201899052959694956001600160a01b03909216937f891620feea776cf69790ff4762cadfde7978845aa23ca09793211aab2a850c3f92829161020e91838c0191906104ed565b0390a38351948592818452845191828186015281955b8387106102425750508394508582601f949501015201168101030190f35b86810182015189880189015295810195889550610224565b895162461bcd60e51b81529081018b9052601060248201526f115e1958dd5d1a5bdb8819985a5b195960821b6044820152606490fd5b634e487b7160e01b885260418252602488fd5b6060976101bb565b865162461bcd60e51b815260208187015260096024820152684e6f7420726561647960b81b6044820152606490fd5b5091346103df576102ea36610458565b95909391946102f76104c2565b6001544201908142116103cc5750861061039457602061037a8888887f77cdaaa1b9627880449a18e9010a378f087d537945d155feff4f6c96896cb7f589898986518981019061035d8161034f8a888b89898961050d565b03601f19810183528261053d565b5190209788958851948594855260608c86015260608501916104ed565b828801969096526001600160a01b0316940390a351908152f35b606490602088519162461bcd60e51b835282015260126024820152714d75737420736174697366792064656c617960701b6044820152fd5b634e487b7160e01b815260118352602490fd5b80fd5b83346103df57806003193601126103df576103fb6104c2565b80546001600160a01b03198116825581906001600160a01b03167f8be0079c531659141344cd1fd0a4f28419497f9722a3daafe3b4186f6b6457e08280a380f35b84903461011b578160031936011261011b576020906001548152f35b9060806003198301126104be576004356001600160a01b03811681036104be57916024359160443567ffffffffffffffff928382116104be57806023830112156104be5781600401359384116104be57602484830101116104be57602401919060643590565b5f80fd5b5f546001600160a01b031633036104d557565b60405163118cdaa760e01b8152336004820152602490fd5b908060209392818452848401375f828201840152601f01601f1916010190565b959493610538926060949260018060a01b0316885260208801526080604088015260808701916104ed565b930152565b90601f8019910116810190811067ffffffffffffffff82111761055f57604052565b634e487b7160e01b5f52604160045260245ffdfea2646970667358221220839c5fcdfc785dc66e65bd831c58ad63c8e1a752943704e1bc3f29a14a676eca64736f6c63430008140033","opcodes":"PUSH1 0x80 CALLVALUE PUSH2 0xC3 JUMPI PUSH1 0x1F PUSH2 0x685 CODESIZE DUP2 SWAP1 SUB SWAP2 DUP3 ADD PUSH1 0x1F NOT AND DUP4 ADD SWAP2 PUSH1 0x1 PUSH1 0x1 PUSH1 0x40 SHL SUB DUP4 GT DUP5 DUP5 LT OR PUSH2 0xC7 JUMPI DUP1 DUP5 SWAP3 PUSH1 0x40 SWAP5 DUP6 MSTORE DUP4 CODECOPY DUP2 ADD SUB SLT PUSH2 0xC3 JUMPI DUP1 MLOAD PUSH1 0x20 SWAP1 SWAP2 ADD MLOAD PUSH1 0x1 PUSH1 0x1 PUSH1 0xA0 SHL SUB SWAP2 SWAP1 DUP3 DUP2 AND SWAP1 DUP2 SWAP1 SUB PUSH2 0xC3 JUMPI DUP1 ISZERO PUSH2 0xAB JUMPI PUSH0 DUP1 SLOAD PUSH1 0x1 PUSH1 0x1 PUSH1 0xA0 SHL SUB NOT DUP2 AND DUP4 OR DUP3 SSTORE PUSH1 0x40 MLOAD SWAP5 AND SWAP1 PUSH32 0x8BE0079C531659141344CD1FD0A4F28419497F9722A3DAAFE3B4186F6B6457E0 SWAP1 DUP1 LOG3 PUSH1 0x1 SSTORE PUSH2 0x5A9 SWAP1 DUP2 PUSH2 0xDC DUP3 CODECOPY RETURN JUMPDEST PUSH1 0x40 MLOAD PUSH4 0x1E4FBDF7 PUSH1 0xE0 SHL DUP2 MSTORE PUSH0 PUSH1 0x4 DUP3 ADD MSTORE PUSH1 0x24 SWAP1 REVERT JUMPDEST PUSH0 DUP1 REVERT JUMPDEST PUSH4 0x4E487B71 PUSH1 0xE0 SHL PUSH0 MSTORE PUSH1 0x41 PUSH1 0x4 MSTORE PUSH1 0x24 PUSH0 REVERT INVALID PUSH1 0x80 PUSH1 0x40 DUP2 DUP2 MSTORE PUSH1 0x4 SWAP1 DUP2 CALLDATASIZE LT ISZERO PUSH2 0x15 JUMPI PUSH0 DUP1 REVERT JUMPDEST PUSH0 SWAP3 DUP4 CALLDATALOAD PUSH1 0xE0 SHR SWAP1 DUP2 PUSH4 0x6A42B8F8 EQ PUSH2 0x43C JUMPI POP DUP1 PUSH4 0x715018A6 EQ PUSH2 0x3E2 JUMPI DUP1 PUSH4 0x71FE05BF EQ PUSH2 0x2DA JUMPI DUP1 PUSH4 0x74420F4C EQ PUSH2 0x11F JUMPI DUP1 PUSH4 0x8DA5CB5B EQ PUSH2 0xF3 JUMPI PUSH4 0xF2FDE38B EQ PUSH2 0x63 JUMPI PUSH0 DUP1 REVERT JUMPDEST CALLVALUE PUSH2 0xEF JUMPI PUSH1 0x20 CALLDATASIZE PUSH1 0x3 NOT ADD SLT PUSH2 0xEF JUMPI PUSH1 0x1 PUSH1 0x1 PUSH1 0xA0 SHL SUB DUP3 CALLDATALOAD DUP2 DUP2 AND SWAP4 SWAP2 SWAP3 SWAP1 DUP5 SWAP1 SUB PUSH2 0xEB JUMPI PUSH2 0x94 PUSH2 0x4C2 JUMP JUMPDEST DUP4 ISZERO PUSH2 0xD5 JUMPI POP POP DUP3 SLOAD PUSH1 0x1 PUSH1 0x1 PUSH1 0xA0 SHL SUB NOT DUP2 AND DUP4 OR DUP5 SSTORE AND PUSH32 0x8BE0079C531659141344CD1FD0A4F28419497F9722A3DAAFE3B4186F6B6457E0 DUP4 DUP1 LOG3 DUP1 RETURN JUMPDEST MLOAD PUSH4 0x1E4FBDF7 PUSH1 0xE0 SHL DUP2 MSTORE SWAP1 DUP2 ADD DUP5 SWAP1 MSTORE PUSH1 0x24 SWAP1 REVERT JUMPDEST DUP5 DUP1 REVERT JUMPDEST DUP3 DUP1 REVERT JUMPDEST DUP4 DUP3 CALLVALUE PUSH2 0x11B JUMPI DUP2 PUSH1 0x3 NOT CALLDATASIZE ADD SLT PUSH2 0x11B JUMPI SWAP1 SLOAD SWAP1 MLOAD PUSH1 0x1 PUSH1 0x1 PUSH1 0xA0 SHL SUB SWAP1 SWAP2 AND DUP2 MSTORE PUSH1 0x20 SWAP1 RETURN JUMPDEST POP DUP1 REVERT JUMPDEST POP DUP3 PUSH2 0x12A CALLDATASIZE PUSH2 0x458 JUMP JUMPDEST SWAP7 SWAP4 PUSH2 0x13A SWAP6 SWAP4 SWAP6 SWAP3 SWAP2 SWAP3 PUSH2 0x4C2 JUMP JUMPDEST DUP8 TIMESTAMP LT PUSH2 0x2AB JUMPI DUP7 MLOAD SWAP6 PUSH1 0x20 SWAP9 DUP8 PUSH2 0x159 DUP12 DUP3 ADD SWAP3 DUP8 DUP8 DUP7 DUP9 DUP8 PUSH2 0x50D JUMP JUMPDEST SUB SWAP8 PUSH2 0x16D PUSH1 0x1F NOT SWAP10 DUP11 DUP2 ADD DUP4 MSTORE DUP3 PUSH2 0x53D JUMP JUMPDEST MLOAD SWAP1 KECCAK256 SWAP3 DUP6 DUP1 DUP11 MLOAD DUP8 DUP5 DUP3 CALLDATACOPY DUP1 DUP9 DUP2 ADD DUP4 DUP2 MSTORE SUB SWAP1 DUP6 DUP8 GAS CALL SWAP7 RETURNDATASIZE ISZERO PUSH2 0x2A3 JUMPI RETURNDATASIZE SWAP8 PUSH8 0xFFFFFFFFFFFFFFFF DUP10 GT PUSH2 0x290 JUMPI DUP11 MLOAD SWAP9 PUSH2 0x1B2 DUP14 DUP13 PUSH1 0x1F DUP5 ADD AND ADD DUP12 PUSH2 0x53D JUMP JUMPDEST DUP10 MSTORE RETURNDATASIZE DUP9 DUP14 DUP12 ADD RETURNDATACOPY JUMPDEST ISZERO PUSH2 0x25A JUMPI POP DUP9 MLOAD SWAP2 DUP3 MSTORE DUP10 DUP3 ADD DUP10 SWAP1 MSTORE SWAP6 SWAP7 SWAP5 SWAP6 PUSH1 0x1 PUSH1 0x1 PUSH1 0xA0 SHL SUB SWAP1 SWAP3 AND SWAP4 PUSH32 0x891620FEEA776CF69790FF4762CADFDE7978845AA23CA09793211AAB2A850C3F SWAP3 DUP3 SWAP2 PUSH2 0x20E SWAP2 DUP4 DUP13 ADD SWAP2 SWAP1 PUSH2 0x4ED JUMP JUMPDEST SUB SWAP1 LOG3 DUP4 MLOAD SWAP5 DUP6 SWAP3 DUP2 DUP5 MSTORE DUP5 MLOAD SWAP2 DUP3 DUP2 DUP7 ADD MSTORE DUP2 SWAP6 JUMPDEST DUP4 DUP8 LT PUSH2 0x242 JUMPI POP POP DUP4 SWAP5 POP DUP6 DUP3 PUSH1 0x1F SWAP5 SWAP6 ADD ADD MSTORE ADD AND DUP2 ADD SUB ADD SWAP1 RETURN JUMPDEST DUP7 DUP2 ADD DUP3 ADD MLOAD DUP10 DUP9 ADD DUP10 ADD MSTORE SWAP6 DUP2 ADD SWAP6 DUP9 SWAP6 POP PUSH2 0x224 JUMP JUMPDEST DUP10 MLOAD PUSH3 0x461BCD PUSH1 0xE5 SHL DUP2 MSTORE SWAP1 DUP2 ADD DUP12 SWAP1 MSTORE PUSH1 0x10 PUSH1 0x24 DUP3 ADD MSTORE PUSH16 0x115E1958DD5D1A5BDB8819985A5B1959 PUSH1 0x82 SHL PUSH1 0x44 DUP3 ADD MSTORE PUSH1 0x64 SWAP1 REVERT JUMPDEST PUSH4 0x4E487B71 PUSH1 0xE0 SHL DUP9 MSTORE PUSH1 0x41 DUP3 MSTORE PUSH1 0x24 DUP9 REVERT JUMPDEST PUSH1 0x60 SWAP8 PUSH2 0x1BB JUMP JUMPDEST DUP7 MLOAD PUSH3 0x461BCD PUSH1 0xE5 SHL DUP2 MSTORE PUSH1 0x20 DUP2 DUP8 ADD MSTORE PUSH1 0x9 PUSH1 0x24 DUP3 ADD MSTORE PUSH9 0x4E6F74207265616479 PUSH1 0xB8 SHL PUSH1 0x44 DUP3 ADD MSTORE PUSH1 0x64 SWAP1 REVERT JUMPDEST POP SWAP2 CALLVALUE PUSH2 0x3DF JUMPI PUSH2 0x2EA CALLDATASIZE PUSH2 0x458 JUMP JUMPDEST SWAP6 SWAP1 SWAP4 SWAP2 SWAP5 PUSH2 0x2F7 PUSH2 0x4C2 JUMP JUMPDEST PUSH1 0x1 SLOAD TIMESTAMP ADD SWAP1 DUP2 TIMESTAMP GT PUSH2 0x3CC JUMPI POP DUP7 LT PUSH2 0x394 JUMPI PUSH1 0x20 PUSH2 0x37A DUP9 DUP9 DUP9 PUSH32 0x77CDAAA1B9627880449A18E9010A378F087D537945D155FEFF4F6C96896CB7F5 DUP10 DUP10 DUP10 DUP7 MLOAD DUP10 DUP2 ADD SWAP1 PUSH2 0x35D DUP2 PUSH2 0x34F DUP11 DUP9 DUP12 DUP10 DUP10 DUP10 PUSH2 0x50D JUMP JUMPDEST SUB PUSH1 0x1F NOT DUP2 ADD DUP4 MSTORE DUP3 PUSH2 0x53D JUMP JUMPDEST MLOAD SWAP1 KECCAK256 SWAP8 DUP9 SWAP6 DUP9 MLOAD SWAP5 DUP6 SWAP5 DUP6 MSTORE PUSH1 0x60 DUP13 DUP7 ADD MSTORE PUSH1 0x60 DUP6 ADD SWAP2 PUSH2 0x4ED JUMP JUMPDEST DUP3 DUP9 ADD SWAP7 SWAP1 SWAP7 MSTORE PUSH1 0x1 PUSH1 0x1 PUSH1 0xA0 SHL SUB AND SWAP5 SUB SWAP1 LOG3 MLOAD SWAP1 DUP2 MSTORE RETURN JUMPDEST PUSH1 0x64 SWAP1 PUSH1 0x20 DUP9 MLOAD SWAP2 PUSH3 0x461BCD PUSH1 0xE5 SHL DUP4 MSTORE DUP3 ADD MSTORE PUSH1 0x12 PUSH1 0x24 DUP3 ADD MSTORE PUSH18 0x4D75737420736174697366792064656C6179 PUSH1 0x70 SHL PUSH1 0x44 DUP3 ADD MSTORE REVERT JUMPDEST PUSH4 0x4E487B71 PUSH1 0xE0 SHL DUP2 MSTORE PUSH1 0x11 DUP4 MSTORE PUSH1 0x24 SWAP1 REVERT JUMPDEST DUP1 REVERT JUMPDEST DUP4 CALLVALUE PUSH2 0x3DF JUMPI DUP1 PUSH1 0x3 NOT CALLDATASIZE ADD SLT PUSH2 0x3DF JUMPI PUSH2 0x3FB PUSH2 0x4C2 JUMP JUMPDEST DUP1 SLOAD PUSH1 0x1 PUSH1 0x1 PUSH1 0xA0 SHL SUB NOT DUP2 AND DUP3 SSTORE DUP2 SWAP1 PUSH1 0x1 PUSH1 0x1 PUSH1 0xA0 SHL SUB AND PUSH32 0x8BE0079C531659141344CD1FD0A4F28419497F9722A3DAAFE3B4186F6B6457E0 DUP3 DUP1 LOG3 DUP1 RETURN JUMPDEST DUP5 SWAP1 CALLVALUE PUSH2 0x11B JUMPI DUP2 PUSH1 0x3 NOT CALLDATASIZE ADD SLT PUSH2 0x11B JUMPI PUSH1 0x20 SWAP1 PUSH1 0x1 SLOAD DUP2 MSTORE RETURN JUMPDEST SWAP1 PUSH1 0x80 PUSH1 0x3 NOT DUP4 ADD SLT PUSH2 0x4BE JUMPI PUSH1 0x4 CALLDATALOAD PUSH1 0x1 PUSH1 0x1 PUSH1 0xA0 SHL SUB DUP2 AND DUP2 SUB PUSH2 0x4BE JUMPI SWAP2 PUSH1 0x24 CALLDATALOAD SWAP2 PUSH1 0x44 CALLDATALOAD PUSH8 0xFFFFFFFFFFFFFFFF SWAP3 DUP4 DUP3 GT PUSH2 0x4BE JUMPI DUP1 PUSH1 0x23 DUP4 ADD SLT ISZERO PUSH2 0x4BE JUMPI DUP2 PUSH1 0x4 ADD CALLDATALOAD SWAP4 DUP5 GT PUSH2 0x4BE JUMPI PUSH1 0x24 DUP5 DUP4 ADD ADD GT PUSH2 0x4BE JUMPI PUSH1 0x24 ADD SWAP2 SWAP1 PUSH1 0x64 CALLDATALOAD SWAP1 JUMP JUMPDEST PUSH0 DUP1 REVERT JUMPDEST PUSH0 SLOAD PUSH1 0x1 PUSH1 0x1 PUSH1 0xA0 SHL SUB AND CALLER SUB PUSH2 0x4D5 JUMPI JUMP JUMPDEST PUSH1 0x40 MLOAD PUSH4 0x118CDAA7 PUSH1 0xE0 SHL DUP2 MSTORE CALLER PUSH1 0x4 DUP3 ADD MSTORE PUSH1 0x24 SWAP1 REVERT JUMPDEST SWAP1 DUP1 PUSH1 0x20 SWAP4 SWAP3 DUP2 DUP5 MSTORE DUP5 DUP5 ADD CALLDATACOPY PUSH0 DUP3 DUP3 ADD DUP5 ADD MSTORE PUSH1 0x1F ADD PUSH1 0x1F NOT AND ADD ADD SWAP1 JUMP JUMPDEST SWAP6 SWAP5 SWAP4 PUSH2 0x538 SWAP3 PUSH1 0x60 SWAP5 SWAP3 PUSH1 0x1 DUP1 PUSH1 0xA0 SHL SUB AND DUP9 MSTORE PUSH1 0x20 DUP9 ADD MSTORE PUSH1 0x80 PUSH1 0x40 DUP9 ADD MSTORE PUSH1 0x80 DUP8 ADD SWAP2 PUSH2 0x4ED JUMP JUMPDEST SWAP4 ADD MSTORE JUMP JUMPDEST SWAP1 PUSH1 0x1F DUP1 NOT SWAP2 ADD AND DUP2 ADD SWAP1 DUP2 LT PUSH8 0xFFFFFFFFFFFFFFFF DUP3 GT OR PUSH2 0x55F JUMPI PUSH1 0x40 MSTORE JUMP JUMPDEST PUSH4 0x4E487B71 PUSH1 0xE0 SHL PUSH0 MSTORE PUSH1 0x41 PUSH1 0x4 MSTORE PUSH1 0x24 PUSH0 REVERT INVALID LOG2 PUSH5 0x6970667358 0x22 SLT KECCAK256 DUP4 SWAP13 PUSH0 0xCD 0xFC PUSH25 0x5DC66E65BD831C58AD63C8E1A752943704E1BC3F29A14A676E 0xCA PUSH5 0x736F6C6343 STOP ADDMOD EQ STOP CALLER "},"methodIdentifiers":{"delay()":"6a42b8f8","execute(address,uint256,bytes,uint256)":"74420f4c","owner()":"8da5cb5b","renounceOwnership()":"715018a6","schedule(address,uint256,bytes,uint256)":"71fe05bf","transferOwnership(address)":"f2fde38b"}}}}}