{
  "_format": "hh-sol-artifact-1",
  "contractName": "TreasuryTimelock",
  "sourceName": "contracts/TreasuryTimelock.sol",
  "abi": [
    {
      "inputs": [
        {
          "internalType": "uint256",
          "name": "_delay",
          "type": "uint256"
        },
        {
          "internalType": "address",
          "name": "initialOwner",
          "type": "address"
        }
      ],
      "stateMutability": "nonpayable",
      "type": "constructor"
    },
    {
      "inputs": [
        {
          "internalType": "address",
          "name": "owner",
          "type": "address"
        }
      ],
      "name": "OwnableInvalidOwner",
      "type": "error"
    },
    {
      "inputs": [
        {
          "internalType": "address",
          "name": "account",
          "type": "address"
        }
      ],
      "name": "OwnableUnauthorizedAccount",
      "type": "error"
    },
    {
      "anonymous": false,
      "inputs": [
        {
          "indexed": true,
          "internalType": "bytes32",
          "name": "txHash",
          "type": "bytes32"
        },
        {
          "indexed": true,
          "internalType": "address",
          "name": "target",
          "type": "address"
        },
        {
          "indexed": false,
          "internalType": "uint256",
          "name": "value",
          "type": "uint256"
        },
        {
          "indexed": false,
          "internalType": "bytes",
          "name": "data",
          "type": "bytes"
        }
      ],
      "name": "Executed",
      "type": "event"
    },
    {
      "anonymous": false,
      "inputs": [
        {
          "indexed": true,
          "internalType": "address",
          "name": "previousOwner",
          "type": "address"
        },
        {
          "indexed": true,
          "internalType": "address",
          "name": "newOwner",
          "type": "address"
        }
      ],
      "name": "OwnershipTransferred",
      "type": "event"
    },
    {
      "anonymous": false,
      "inputs": [
        {
          "indexed": true,
          "internalType": "bytes32",
          "name": "txHash",
          "type": "bytes32"
        },
        {
          "indexed": true,
          "internalType": "address",
          "name": "target",
          "type": "address"
        },
        {
          "indexed": false,
          "internalType": "uint256",
          "name": "value",
          "type": "uint256"
        },
        {
          "indexed": false,
          "internalType": "bytes",
          "name": "data",
          "type": "bytes"
        },
        {
          "indexed": false,
          "internalType": "uint256",
          "name": "when",
          "type": "uint256"
        }
      ],
      "name": "Scheduled",
      "type": "event"
    },
    {
      "inputs": [],
      "name": "delay",
      "outputs": [
        {
          "internalType": "uint256",
          "name": "",
          "type": "uint256"
        }
      ],
      "stateMutability": "view",
      "type": "function"
    },
    {
      "inputs": [
        {
          "internalType": "address",
          "name": "target",
          "type": "address"
        },
        {
          "internalType": "uint256",
          "name": "value",
          "type": "uint256"
        },
        {
          "internalType": "bytes",
          "name": "data",
          "type": "bytes"
        },
        {
          "internalType": "uint256",
          "name": "when",
          "type": "uint256"
        }
      ],
      "name": "execute",
      "outputs": [
        {
          "internalType": "bytes",
          "name": "",
          "type": "bytes"
        }
      ],
      "stateMutability": "payable",
      "type": "function"
    },
    {
      "inputs": [],
      "name": "owner",
      "outputs": [
        {
          "internalType": "address",
          "name": "",
          "type": "address"
        }
      ],
      "stateMutability": "view",
      "type": "function"
    },
    {
      "inputs": [],
      "name": "renounceOwnership",
      "outputs": [],
      "stateMutability": "nonpayable",
      "type": "function"
    },
    {
      "inputs": [
        {
          "internalType": "address",
          "name": "target",
          "type": "address"
        },
        {
          "internalType": "uint256",
          "name": "value",
          "type": "uint256"
        },
        {
          "internalType": "bytes",
          "name": "data",
          "type": "bytes"
        },
        {
          "internalType": "uint256",
          "name": "when",
          "type": "uint256"
        }
      ],
      "name": "schedule",
      "outputs": [
        {
          "internalType": "bytes32",
          "name": "",
          "type": "bytes32"
        }
      ],
      "stateMutability": "nonpayable",
      "type": "function"
    },
    {
      "inputs": [
        {
          "internalType": "address",
          "name": "newOwner",
          "type": "address"
        }
      ],
      "name": "transferOwnership",
      "outputs": [],
      "stateMutability": "nonpayable",
      "type": "function"
    }
  ],
  "bytecode": "0x6080346100c557601f61069238819003918201601f19168301916001600160401b038311848410176100ca5780849260409485528339810103126100c55780516020909101516001600160a01b039190828116908190036100c55780156100ac57600080546001600160a01b03198116831782556040519416907f8be0079c531659141344cd1fd0a4f28419497f9722a3daafe3b4186f6b6457e09080a36001556105b190816100e18239f35b604051631e4fbdf760e01b815260006004820152602490fd5b600080fd5b634e487b7160e01b600052604160045260246000fdfe608060408181526004908136101561001657600080fd5b600092833560e01c9081636a42b8f81461043f57508063715018a6146103e557806371fe05bf146102dd57806374420f4c146101225780638da5cb5b146100f65763f2fde38b1461006657600080fd5b346100f25760203660031901126100f2576001600160a01b038235818116939192908490036100ee576100976104c6565b83156100d857505082546001600160a01b0319811683178455167f8be0079c531659141344cd1fd0a4f28419497f9722a3daafe3b4186f6b6457e08380a380f35b51631e4fbdf760e01b8152908101849052602490fd5b8480fd5b8280fd5b83823461011e578160031936011261011e57905490516001600160a01b039091168152602090f35b5080fd5b508261012d3661045b565b969361013d9593959291926104c6565b8742106102ae578651956020988761015c8b8201928787868887610513565b0397610170601f19998a8101835282610543565b5190209285808a518784823780888101838152039085875af1963d156102a6573d9767ffffffffffffffff8911610293578a51986101b58d8c601f840116018b610543565b89523d888d8b013e5b1561025d57508851918252898201899052959694956001600160a01b03909216937f891620feea776cf69790ff4762cadfde7978845aa23ca09793211aab2a850c3f92829161021191838c0191906104f2565b0390a38351948592818452845191828186015281955b8387106102455750508394508582601f949501015201168101030190f35b86810182015189880189015295810195889550610227565b895162461bcd60e51b81529081018b9052601060248201526f115e1958dd5d1a5bdb8819985a5b195960821b6044820152606490fd5b634e487b7160e01b885260418252602488fd5b6060976101be565b865162461bcd60e51b815260208187015260096024820152684e6f7420726561647960b81b6044820152606490fd5b5091346103e2576102ed3661045b565b95909391946102fa6104c6565b6001544201908142116103cf5750861061039757602061037d8888887f77cdaaa1b9627880449a18e9010a378f087d537945d155feff4f6c96896cb7f5898989865189810190610360816103528a888b898989610513565b03601f198101835282610543565b5190209788958851948594855260608c86015260608501916104f2565b828801969096526001600160a01b0316940390a351908152f35b606490602088519162461bcd60e51b835282015260126024820152714d75737420736174697366792064656c617960701b6044820152fd5b634e487b7160e01b815260118352602490fd5b80fd5b83346103e257806003193601126103e2576103fe6104c6565b80546001600160a01b03198116825581906001600160a01b03167f8be0079c531659141344cd1fd0a4f28419497f9722a3daafe3b4186f6b6457e08280a380f35b84903461011e578160031936011261011e576020906001548152f35b9060806003198301126104c1576004356001600160a01b03811681036104c157916024359160443567ffffffffffffffff928382116104c157806023830112156104c15781600401359384116104c157602484830101116104c157602401919060643590565b600080fd5b6000546001600160a01b031633036104da57565b60405163118cdaa760e01b8152336004820152602490fd5b908060209392818452848401376000828201840152601f01601f1916010190565b95949361053e926060949260018060a01b0316885260208801526080604088015260808701916104f2565b930152565b90601f8019910116810190811067ffffffffffffffff82111761056557604052565b634e487b7160e01b600052604160045260246000fdfea2646970667358221220da0a1b27220fb195081b7ceab241cbf1baa37c1dbd307dd2651f5a1caad0ee5764736f6c63430008140033",
  "linkReferences": {},
  "deployedLinkReferences": {}
}