{
  "_format": "hh-sol-artifact-1",
  "contractName": "NoblePadToken",
  "sourceName": "contracts/NoblePadToken.sol",
  "abi": [
    {
      "inputs": [
        {
          "internalType": "address",
          "name": "initialOwner",
          "type": "address"
        }
      ],
      "stateMutability": "nonpayable",
      "type": "constructor"
    },
    {
      "inputs": [],
      "name": "ECDSAInvalidSignature",
      "type": "error"
    },
    {
      "inputs": [
        {
          "internalType": "uint256",
          "name": "length",
          "type": "uint256"
        }
      ],
      "name": "ECDSAInvalidSignatureLength",
      "type": "error"
    },
    {
      "inputs": [
        {
          "internalType": "bytes32",
          "name": "s",
          "type": "bytes32"
        }
      ],
      "name": "ECDSAInvalidSignatureS",
      "type": "error"
    },
    {
      "inputs": [
        {
          "internalType": "address",
          "name": "spender",
          "type": "address"
        },
        {
          "internalType": "uint256",
          "name": "allowance",
          "type": "uint256"
        },
        {
          "internalType": "uint256",
          "name": "needed",
          "type": "uint256"
        }
      ],
      "name": "ERC20InsufficientAllowance",
      "type": "error"
    },
    {
      "inputs": [
        {
          "internalType": "address",
          "name": "sender",
          "type": "address"
        },
        {
          "internalType": "uint256",
          "name": "balance",
          "type": "uint256"
        },
        {
          "internalType": "uint256",
          "name": "needed",
          "type": "uint256"
        }
      ],
      "name": "ERC20InsufficientBalance",
      "type": "error"
    },
    {
      "inputs": [
        {
          "internalType": "address",
          "name": "approver",
          "type": "address"
        }
      ],
      "name": "ERC20InvalidApprover",
      "type": "error"
    },
    {
      "inputs": [
        {
          "internalType": "address",
          "name": "receiver",
          "type": "address"
        }
      ],
      "name": "ERC20InvalidReceiver",
      "type": "error"
    },
    {
      "inputs": [
        {
          "internalType": "address",
          "name": "sender",
          "type": "address"
        }
      ],
      "name": "ERC20InvalidSender",
      "type": "error"
    },
    {
      "inputs": [
        {
          "internalType": "address",
          "name": "spender",
          "type": "address"
        }
      ],
      "name": "ERC20InvalidSpender",
      "type": "error"
    },
    {
      "inputs": [
        {
          "internalType": "uint256",
          "name": "deadline",
          "type": "uint256"
        }
      ],
      "name": "ERC2612ExpiredSignature",
      "type": "error"
    },
    {
      "inputs": [
        {
          "internalType": "address",
          "name": "signer",
          "type": "address"
        },
        {
          "internalType": "address",
          "name": "owner",
          "type": "address"
        }
      ],
      "name": "ERC2612InvalidSigner",
      "type": "error"
    },
    {
      "inputs": [
        {
          "internalType": "address",
          "name": "account",
          "type": "address"
        },
        {
          "internalType": "uint256",
          "name": "currentNonce",
          "type": "uint256"
        }
      ],
      "name": "InvalidAccountNonce",
      "type": "error"
    },
    {
      "inputs": [],
      "name": "InvalidShortString",
      "type": "error"
    },
    {
      "inputs": [
        {
          "internalType": "address",
          "name": "owner",
          "type": "address"
        }
      ],
      "name": "OwnableInvalidOwner",
      "type": "error"
    },
    {
      "inputs": [
        {
          "internalType": "address",
          "name": "account",
          "type": "address"
        }
      ],
      "name": "OwnableUnauthorizedAccount",
      "type": "error"
    },
    {
      "inputs": [
        {
          "internalType": "string",
          "name": "str",
          "type": "string"
        }
      ],
      "name": "StringTooLong",
      "type": "error"
    },
    {
      "anonymous": false,
      "inputs": [
        {
          "indexed": true,
          "internalType": "address",
          "name": "owner",
          "type": "address"
        },
        {
          "indexed": true,
          "internalType": "address",
          "name": "spender",
          "type": "address"
        },
        {
          "indexed": false,
          "internalType": "uint256",
          "name": "value",
          "type": "uint256"
        }
      ],
      "name": "Approval",
      "type": "event"
    },
    {
      "anonymous": false,
      "inputs": [],
      "name": "EIP712DomainChanged",
      "type": "event"
    },
    {
      "anonymous": false,
      "inputs": [
        {
          "indexed": true,
          "internalType": "address",
          "name": "previousOwner",
          "type": "address"
        },
        {
          "indexed": true,
          "internalType": "address",
          "name": "newOwner",
          "type": "address"
        }
      ],
      "name": "OwnershipTransferred",
      "type": "event"
    },
    {
      "anonymous": false,
      "inputs": [
        {
          "indexed": true,
          "internalType": "address",
          "name": "from",
          "type": "address"
        },
        {
          "indexed": true,
          "internalType": "address",
          "name": "to",
          "type": "address"
        },
        {
          "indexed": false,
          "internalType": "uint256",
          "name": "value",
          "type": "uint256"
        }
      ],
      "name": "Transfer",
      "type": "event"
    },
    {
      "inputs": [],
      "name": "DOMAIN_SEPARATOR",
      "outputs": [
        {
          "internalType": "bytes32",
          "name": "",
          "type": "bytes32"
        }
      ],
      "stateMutability": "view",
      "type": "function"
    },
    {
      "inputs": [
        {
          "internalType": "address",
          "name": "owner",
          "type": "address"
        },
        {
          "internalType": "address",
          "name": "spender",
          "type": "address"
        }
      ],
      "name": "allowance",
      "outputs": [
        {
          "internalType": "uint256",
          "name": "",
          "type": "uint256"
        }
      ],
      "stateMutability": "view",
      "type": "function"
    },
    {
      "inputs": [
        {
          "internalType": "address",
          "name": "spender",
          "type": "address"
        },
        {
          "internalType": "uint256",
          "name": "value",
          "type": "uint256"
        }
      ],
      "name": "approve",
      "outputs": [
        {
          "internalType": "bool",
          "name": "",
          "type": "bool"
        }
      ],
      "stateMutability": "nonpayable",
      "type": "function"
    },
    {
      "inputs": [
        {
          "internalType": "address",
          "name": "account",
          "type": "address"
        }
      ],
      "name": "balanceOf",
      "outputs": [
        {
          "internalType": "uint256",
          "name": "",
          "type": "uint256"
        }
      ],
      "stateMutability": "view",
      "type": "function"
    },
    {
      "inputs": [],
      "name": "decimals",
      "outputs": [
        {
          "internalType": "uint8",
          "name": "",
          "type": "uint8"
        }
      ],
      "stateMutability": "view",
      "type": "function"
    },
    {
      "inputs": [],
      "name": "eip712Domain",
      "outputs": [
        {
          "internalType": "bytes1",
          "name": "fields",
          "type": "bytes1"
        },
        {
          "internalType": "string",
          "name": "name",
          "type": "string"
        },
        {
          "internalType": "string",
          "name": "version",
          "type": "string"
        },
        {
          "internalType": "uint256",
          "name": "chainId",
          "type": "uint256"
        },
        {
          "internalType": "address",
          "name": "verifyingContract",
          "type": "address"
        },
        {
          "internalType": "bytes32",
          "name": "salt",
          "type": "bytes32"
        },
        {
          "internalType": "uint256[]",
          "name": "extensions",
          "type": "uint256[]"
        }
      ],
      "stateMutability": "view",
      "type": "function"
    },
    {
      "inputs": [],
      "name": "name",
      "outputs": [
        {
          "internalType": "string",
          "name": "",
          "type": "string"
        }
      ],
      "stateMutability": "view",
      "type": "function"
    },
    {
      "inputs": [
        {
          "internalType": "address",
          "name": "owner",
          "type": "address"
        }
      ],
      "name": "nonces",
      "outputs": [
        {
          "internalType": "uint256",
          "name": "",
          "type": "uint256"
        }
      ],
      "stateMutability": "view",
      "type": "function"
    },
    {
      "inputs": [],
      "name": "owner",
      "outputs": [
        {
          "internalType": "address",
          "name": "",
          "type": "address"
        }
      ],
      "stateMutability": "view",
      "type": "function"
    },
    {
      "inputs": [
        {
          "internalType": "address",
          "name": "owner",
          "type": "address"
        },
        {
          "internalType": "address",
          "name": "spender",
          "type": "address"
        },
        {
          "internalType": "uint256",
          "name": "value",
          "type": "uint256"
        },
        {
          "internalType": "uint256",
          "name": "deadline",
          "type": "uint256"
        },
        {
          "internalType": "uint8",
          "name": "v",
          "type": "uint8"
        },
        {
          "internalType": "bytes32",
          "name": "r",
          "type": "bytes32"
        },
        {
          "internalType": "bytes32",
          "name": "s",
          "type": "bytes32"
        }
      ],
      "name": "permit",
      "outputs": [],
      "stateMutability": "nonpayable",
      "type": "function"
    },
    {
      "inputs": [],
      "name": "renounceOwnership",
      "outputs": [],
      "stateMutability": "nonpayable",
      "type": "function"
    },
    {
      "inputs": [],
      "name": "symbol",
      "outputs": [
        {
          "internalType": "string",
          "name": "",
          "type": "string"
        }
      ],
      "stateMutability": "view",
      "type": "function"
    },
    {
      "inputs": [],
      "name": "totalSupply",
      "outputs": [
        {
          "internalType": "uint256",
          "name": "",
          "type": "uint256"
        }
      ],
      "stateMutability": "view",
      "type": "function"
    },
    {
      "inputs": [
        {
          "internalType": "address",
          "name": "to",
          "type": "address"
        },
        {
          "internalType": "uint256",
          "name": "value",
          "type": "uint256"
        }
      ],
      "name": "transfer",
      "outputs": [
        {
          "internalType": "bool",
          "name": "",
          "type": "bool"
        }
      ],
      "stateMutability": "nonpayable",
      "type": "function"
    },
    {
      "inputs": [
        {
          "internalType": "address",
          "name": "from",
          "type": "address"
        },
        {
          "internalType": "address",
          "name": "to",
          "type": "address"
        },
        {
          "internalType": "uint256",
          "name": "value",
          "type": "uint256"
        }
      ],
      "name": "transferFrom",
      "outputs": [
        {
          "internalType": "bool",
          "name": "",
          "type": "bool"
        }
      ],
      "stateMutability": "nonpayable",
      "type": "function"
    },
    {
      "inputs": [
        {
          "internalType": "address",
          "name": "newOwner",
          "type": "address"
        }
      ],
      "name": "transferOwnership",
      "outputs": [],
      "stateMutability": "nonpayable",
      "type": "function"
    }
  ],
  "bytecode": "0x6101603462000545576001600160401b0390601f90601f1990620018713881900384810184168301929190868411838510176200054a57808392604095865283396020928391810103126200054557516001600160a01b039586821692918390036200054557835194620000738662000560565b600886528286019667139bd89b1954185960c21b98898952865199620000998b62000560565b60088b52858b0152865192620000af8462000560565b600493848152631394105160e21b8782015288519b620000cf8d62000560565b8c886001918281520195603160f81b875282518981116200043c5760039384548481811c911680156200053a575b8d8210146200052557908c8285859411620004cc575b50508c908483116001146200045d5760009262000451575b505060001982861b1c191690831b1783555b8351938985116200043c5788548381811c9116801562000431575b8c8210146200041c5780838d9211620003cf575b50508a9185116001146200036657849550908492916000956200035a575b50501b92600019911b1c19161783555b85156200034357600580546001600160a01b0319811688179091558691167f8be0079c531659141344cd1fd0a4f28419497f9722a3daafe3b4186f6b6457e0600080a3620001e8876200057c565b97610120988952620001fa8a62000759565b97610140988952519020988960e0525190209761010098808a524660a052865190858201927f8b73c3c69bb8fe3d512ecc4cf759cc79239f7b179b0ffacaa9a75d522b39400f84528883015260608201524660808201523060a082015260a0815260c0810193818510908511176200032e578387525190206080523060c0526002546b033b2e3c9fd0803ce8000000918282018092116200031957506002556000848152808452858120805483019055908252917fddf252ad1be2c89b69c2b068fc378daa952ba7f163c4a11628f55a4df523b3ef91a35191610f5f938462000912853960805184610c81015260a05184610d4d015260c05184610c4b015260e05184610cd001525183610cf6015251826104750152518161049f0152f35b601190634e487b7160e01b6000525260246000fd5b604183634e487b7160e01b6000525260246000fd5b8651631e4fbdf760e01b8152600081850152602490fd5b0151935038806200018a565b92919484169288600052848b6000209460005b8d89838310620003b757505050106200039c575b50505050811b0183556200019a565b01519060f884600019921b161c19169055388080806200038d565b86860151895590970196948501948893500162000379565b8a60005283826000209181890160051c830193891062000412575b0160051c019084905b8281106200040557508c91506200016c565b60008155018490620003f3565b92508192620003ea565b60228a634e487b7160e01b6000525260246000fd5b90607f169062000158565b604189634e487b7160e01b6000525260246000fd5b0151905038806200012b565b908d91898795168860005283600020936000905b828210620004aa575050841162000491575b505050811b0183556200013d565b015160001983881b60f8161c1916905538808062000483565b91929395968291958786015181550195019301908f9188969594939262000471565b909192508660005284826000209181860160051c83019386106200051b575b918791869594930160051c01915b8281106200050b57508e915062000113565b60008155859450879101620004f9565b92508192620004eb565b60228b634e487b7160e01b6000525260246000fd5b90607f1690620000fd565b600080fd5b634e487b7160e01b600052604160045260246000fd5b604081019081106001600160401b038211176200054a57604052565b805160209081811015620006195750601f825111620005b85780825192015190808310620005a957501790565b82600019910360031b1b161790565b90604051809263305a27a960e01b82528060048301528251908160248401526000935b828510620005ff575050604492506000838284010152601f80199101168101030190fd5b8481018201518686016044015293810193859350620005db565b906001600160401b0382116200054a57600654926001938481811c911680156200074e575b838210146200073857601f8111620006fe575b5081601f841160011462000692575092829391839260009462000686575b50501b916000199060031b1c19161760065560ff90565b0151925038806200066f565b919083601f198116600660005284600020946000905b88838310620006e35750505010620006c9575b505050811b0160065560ff90565b015160001960f88460031b161c19169055388080620006bb565b858701518855909601959485019487935090810190620006a8565b600660005284601f84600020920160051c820191601f860160051c015b8281106200072b57505062000651565b600081550185906200071b565b634e487b7160e01b600052602260045260246000fd5b90607f16906200063e565b805160209081811015620007e75750601f825111620007865780825192015190808310620005a957501790565b90604051809263305a27a960e01b82528060048301528251908160248401526000935b828510620007cd575050604492506000838284010152601f80199101168101030190fd5b8481018201518686016044015293810193859350620007a9565b906001600160401b0382116200054a57600754926001938481811c9116801562000906575b838210146200073857601f8111620008cc575b5081601f841160011462000860575092829391839260009462000854575b50501b916000199060031b1c19161760075560ff90565b0151925038806200083d565b919083601f198116600760005284600020946000905b88838310620008b1575050501062000897575b505050811b0160075560ff90565b015160001960f88460031b161c1916905538808062000889565b85870151885590960195948501948793509081019062000876565b600760005284601f84600020920160051c820191601f860160051c015b828110620008f95750506200081f565b60008155018590620008e9565b90607f16906200080c56fe6080604081815260048036101561001557600080fd5b600092833560e01c90816306fdde03146107c657508063095ea7b31461079c57806318160ddd1461077d57806323b872dd1461068a578063313ce5671461066e5780633644e5151461064a57806370a0823114610613578063715018a6146105b35780637ecebe001461057b57806384b0196e1461045e5780638da5cb5b1461043557806395d89b411461034b578063a9059cbb1461031a578063d505accf146101b2578063dd62ed3e146101655763f2fde38b146100d357600080fd5b34610161576020366003190112610161576100ec6108d7565b906100f5610908565b6001600160a01b0391821692831561014b575050600554826bffffffffffffffffffffffff60a01b821617600555167f8be0079c531659141344cd1fd0a4f28419497f9722a3daafe3b4186f6b6457e08380a380f35b51631e4fbdf760e01b8152908101849052602490fd5b8280fd5b5050346101ae57806003193601126101ae57806020926101836108d7565b61018b6108f2565b6001600160a01b0391821683526001865283832091168252845220549051908152f35b5080fd5b508290346101ae5760e03660031901126101ae576101ce6108d7565b6101d66108f2565b906044359260643560843560ff81168103610316578142116102ff5760018060a01b0390818516928389526008602052898920908154916001830190558a519060208201927f6e71edae12b1b97f4d1f60370fef10105fa2faae0126114a169c64845d6126c98452868d840152858a1660608401528a608084015260a083015260c082015260c0815260e0810181811067ffffffffffffffff8211176102ec578b525190206102ba916102b19161028b610c48565b908c519161190160f01b83526002830152602282015260c43591604260a4359220610b33565b90929192610bc3565b168181036102d157866102ce878787610aa0565b80f35b87516325c0072360e11b815292830152602482015260449150fd5b634e487b7160e01b8b526041875260248bfd5b875163313c898160e11b8152808401839052602490fd5b8680fd5b5050346101ae57806003193601126101ae5760209061034461033a6108d7565b60243590336109c2565b5160018152f35b5090346101615782600319360112610161578051918381549061036d82610934565b8086529260019280841690811561040a57506001146103ae575b6103aa8686610398828b03836109a0565b51918291602083526020830190610897565b0390f35b815294507f8a35acfbc15ff81a39ae7d344fd709f28e8600b4aa8c65c6b64bfe7fe36bd19b5b8286106103f2575050506103988260206103aa958201019438610387565b805460208787018101919091529095019481016103d4565b90506103aa97508693506020925061039894915060ff191682840152151560051b8201019438610387565b5050346101ae57816003193601126101ae5760055490516001600160a01b039091168152602090f35b5090346101615782600319360112610161576104997f0000000000000000000000000000000000000000000000000000000000000000610d73565b926104c37f0000000000000000000000000000000000000000000000000000000000000000610e6f565b908251926020928385019585871067ffffffffffffffff8811176105685750928061051e838896610511998b9996528686528151998a99600f60f81b8b5260e0868c015260e08b0190610897565b91898303908a0152610897565b924660608801523060808801528460a088015286840360c088015251928381520193925b82811061055157505050500390f35b835185528695509381019392810192600101610542565b634e487b7160e01b845260419052602483fd5b5050346101ae5760203660031901126101ae5760209181906001600160a01b036105a36108d7565b1681526008845220549051908152f35b83346106105780600319360112610610576105cc610908565b600580546001600160a01b0319811690915581906001600160a01b03167f8be0079c531659141344cd1fd0a4f28419497f9722a3daafe3b4186f6b6457e08280a380f35b80fd5b5050346101ae5760203660031901126101ae5760209181906001600160a01b0361063b6108d7565b16815280845220549051908152f35b5050346101ae57816003193601126101ae57602090610667610c48565b9051908152f35b5050346101ae57816003193601126101ae576020905160128152f35b508234610610576060366003190112610610576106a56108d7565b6106ad6108f2565b916044359360018060a01b0383168083526001602052868320338452602052868320549160001983106106e9575b6020886103448989896109c2565b86831061075157811561073a57331561072357508252600160209081528683203384528152918690209085900390558290610344876106db565b8751634a1406b160e11b8152908101849052602490fd5b875163e602df0560e01b8152908101849052602490fd5b8751637dc7a0d960e11b8152339181019182526020820193909352604081018790528291506060010390fd5b5050346101ae57816003193601126101ae576020906002549051908152f35b5050346101ae57806003193601126101ae576020906103446107bc6108d7565b6024359033610aa0565b84908434610161578260031936011261016157826003546107e681610934565b8085529160019180831690811561086f5750600114610812575b505050610398826103aa9403836109a0565b9450600385527fc2575a0e9e593c00f959f8c92f12db2869c3395a3b0502d05e2516446f71f85b5b828610610857575050506103988260206103aa9582010194610800565b8054602087870181019190915290950194810161083a565b6103aa97508693506020925061039894915060ff191682840152151560051b82010194610800565b919082519283825260005b8481106108c3575050826000602080949584010152601f8019910116010190565b6020818301810151848301820152016108a2565b600435906001600160a01b03821682036108ed57565b600080fd5b602435906001600160a01b03821682036108ed57565b6005546001600160a01b0316330361091c57565b60405163118cdaa760e01b8152336004820152602490fd5b90600182811c92168015610964575b602083101461094e57565b634e487b7160e01b600052602260045260246000fd5b91607f1691610943565b6040810190811067ffffffffffffffff82111761098a57604052565b634e487b7160e01b600052604160045260246000fd5b90601f8019910116810190811067ffffffffffffffff82111761098a57604052565b916001600160a01b03808416928315610a875716928315610a6e5760009083825281602052604082205490838210610a3c575091604082827fddf252ad1be2c89b69c2b068fc378daa952ba7f163c4a11628f55a4df523b3ef958760209652828652038282205586815220818154019055604051908152a3565b60405163391434e360e21b81526001600160a01b03919091166004820152602481019190915260448101839052606490fd5b60405163ec442f0560e01b815260006004820152602490fd5b604051634b637e8f60e11b815260006004820152602490fd5b6001600160a01b03908116918215610b1a5716918215610b015760207f8c5be1e5ebec7d5bd14f71427d1e84f3dd0314c0f7b2291e5b200ac8c7c3b925918360005260018252604060002085600052825280604060002055604051908152a3565b604051634a1406b160e11b815260006004820152602490fd5b60405163e602df0560e01b815260006004820152602490fd5b91907f7fffffffffffffffffffffffffffffff5d576e7357a4501ddfe92f46681b20a08411610bb757926020929160ff608095604051948552168484015260408301526060820152600092839182805260015afa15610bab5780516001600160a01b03811615610ba257918190565b50809160019190565b604051903d90823e3d90fd5b50505060009160039190565b6004811015610c325780610bd5575050565b60018103610bef5760405163f645eedf60e01b8152600490fd5b60028103610c105760405163fce698f760e01b815260048101839052602490fd5b600314610c1a5750565b602490604051906335e2f38360e21b82526004820152fd5b634e487b7160e01b600052602160045260246000fd5b307f00000000000000000000000000000000000000000000000000000000000000006001600160a01b03161480610d4a575b15610ca3577f000000000000000000000000000000000000000000000000000000000000000090565b60405160208101907f8b73c3c69bb8fe3d512ecc4cf759cc79239f7b179b0ffacaa9a75d522b39400f82527f000000000000000000000000000000000000000000000000000000000000000060408201527f000000000000000000000000000000000000000000000000000000000000000060608201524660808201523060a082015260a0815260c0810181811067ffffffffffffffff82111761098a5760405251902090565b507f00000000000000000000000000000000000000000000000000000000000000004614610c7a565b60ff8114610db15760ff811690601f8211610d9f5760405191610d958361096e565b8252602082015290565b604051632cd44ac360e21b8152600490fd5b50604051600654816000610dc483610934565b80835292600190818116908115610e4d5750600114610dee575b50610deb925003826109a0565b90565b6006600090815291507ff652222313e28459528d920b65115c16c04f3efc82aaedc97be59f3f377c0d3f5b848310610e325750610deb935050810160200138610dde565b81935090816020925483858901015201910190918492610e19565b905060209250610deb94915060ff191682840152151560051b82010138610dde565b60ff8114610e915760ff811690601f8211610d9f5760405191610d958361096e565b50604051600754816000610ea483610934565b80835292600190818116908115610e4d5750600114610eca5750610deb925003826109a0565b6007600090815291507fa66cc928b5edb82af9bd49922954155ab7b0942694bea4ce44661d9a8736c6885b848310610f0e5750610deb935050810160200138610dde565b81935090816020925483858901015201910190918492610ef556fea2646970667358221220a1f54e681ac464a680c2cc671b2d084aa9236d50c959973a64c63f2dfac5f30764736f6c63430008140033",
  "linkReferences": {},
  "deployedLinkReferences": {}
}