{
  "_format": "hh3-artifact-1",
  "contractName": "Vesting",
  "sourceName": "contracts/Vesting.sol",
  "abi": [
    {
      "inputs": [
        {
          "internalType": "address",
          "name": "initialOwner",
          "type": "address"
        }
      ],
      "stateMutability": "nonpayable",
      "type": "constructor"
    },
    {
      "inputs": [
        {
          "internalType": "address",
          "name": "owner",
          "type": "address"
        }
      ],
      "name": "OwnableInvalidOwner",
      "type": "error"
    },
    {
      "inputs": [
        {
          "internalType": "address",
          "name": "account",
          "type": "address"
        }
      ],
      "name": "OwnableUnauthorizedAccount",
      "type": "error"
    },
    {
      "anonymous": false,
      "inputs": [
        {
          "indexed": true,
          "internalType": "address",
          "name": "previousOwner",
          "type": "address"
        },
        {
          "indexed": true,
          "internalType": "address",
          "name": "newOwner",
          "type": "address"
        }
      ],
      "name": "OwnershipTransferred",
      "type": "event"
    },
    {
      "anonymous": false,
      "inputs": [
        {
          "indexed": true,
          "internalType": "uint256",
          "name": "vestingId",
          "type": "uint256"
        },
        {
          "indexed": false,
          "internalType": "uint256",
          "name": "amount",
          "type": "uint256"
        }
      ],
      "name": "Released",
      "type": "event"
    },
    {
      "anonymous": false,
      "inputs": [
        {
          "indexed": true,
          "internalType": "uint256",
          "name": "vestingId",
          "type": "uint256"
        },
        {
          "indexed": true,
          "internalType": "address",
          "name": "beneficiary",
          "type": "address"
        },
        {
          "indexed": false,
          "internalType": "uint256",
          "name": "totalAmount",
          "type": "uint256"
        },
        {
          "indexed": false,
          "internalType": "uint256",
          "name": "start",
          "type": "uint256"
        },
        {
          "indexed": false,
          "internalType": "uint256",
          "name": "duration",
          "type": "uint256"
        }
      ],
      "name": "VestingCreated",
      "type": "event"
    },
    {
      "inputs": [
        {
          "internalType": "address",
          "name": "beneficiary",
          "type": "address"
        },
        {
          "internalType": "address",
          "name": "token",
          "type": "address"
        },
        {
          "internalType": "uint256",
          "name": "totalAmount",
          "type": "uint256"
        },
        {
          "internalType": "uint256",
          "name": "start",
          "type": "uint256"
        },
        {
          "internalType": "uint256",
          "name": "cliff",
          "type": "uint256"
        },
        {
          "internalType": "uint256",
          "name": "duration",
          "type": "uint256"
        }
      ],
      "name": "createVesting",
      "outputs": [
        {
          "internalType": "uint256",
          "name": "",
          "type": "uint256"
        }
      ],
      "stateMutability": "nonpayable",
      "type": "function"
    },
    {
      "inputs": [],
      "name": "nextScheduleId",
      "outputs": [
        {
          "internalType": "uint256",
          "name": "",
          "type": "uint256"
        }
      ],
      "stateMutability": "view",
      "type": "function"
    },
    {
      "inputs": [],
      "name": "owner",
      "outputs": [
        {
          "internalType": "address",
          "name": "",
          "type": "address"
        }
      ],
      "stateMutability": "view",
      "type": "function"
    },
    {
      "inputs": [
        {
          "internalType": "uint256",
          "name": "vestingId",
          "type": "uint256"
        }
      ],
      "name": "releasableAmount",
      "outputs": [
        {
          "internalType": "uint256",
          "name": "",
          "type": "uint256"
        }
      ],
      "stateMutability": "view",
      "type": "function"
    },
    {
      "inputs": [
        {
          "internalType": "uint256",
          "name": "vestingId",
          "type": "uint256"
        }
      ],
      "name": "release",
      "outputs": [],
      "stateMutability": "nonpayable",
      "type": "function"
    },
    {
      "inputs": [],
      "name": "renounceOwnership",
      "outputs": [],
      "stateMutability": "nonpayable",
      "type": "function"
    },
    {
      "inputs": [
        {
          "internalType": "uint256",
          "name": "",
          "type": "uint256"
        }
      ],
      "name": "schedules",
      "outputs": [
        {
          "internalType": "address",
          "name": "beneficiary",
          "type": "address"
        },
        {
          "internalType": "address",
          "name": "token",
          "type": "address"
        },
        {
          "internalType": "uint256",
          "name": "totalAmount",
          "type": "uint256"
        },
        {
          "internalType": "uint256",
          "name": "start",
          "type": "uint256"
        },
        {
          "internalType": "uint256",
          "name": "cliff",
          "type": "uint256"
        },
        {
          "internalType": "uint256",
          "name": "duration",
          "type": "uint256"
        },
        {
          "internalType": "uint256",
          "name": "released",
          "type": "uint256"
        }
      ],
      "stateMutability": "view",
      "type": "function"
    },
    {
      "inputs": [
        {
          "internalType": "address",
          "name": "newOwner",
          "type": "address"
        }
      ],
      "name": "transferOwnership",
      "outputs": [],
      "stateMutability": "nonpayable",
      "type": "function"
    }
  ],
  "bytecode": "0x6080346100b957601f61079538819003918201601f19168301916001600160401b038311848410176100bd578084926020946040528339810103126100b957516001600160a01b0390818116908190036100b95780156100a1575f80546001600160a01b03198116831782556040519316907f8be0079c531659141344cd1fd0a4f28419497f9722a3daafe3b4186f6b6457e09080a36106c390816100d28239f35b604051631e4fbdf760e01b81525f6004820152602490fd5b5f80fd5b634e487b7160e01b5f52604160045260245ffdfe60806040818152600480361015610014575f80fd5b5f92833560e01c9081630f038d41146105495750806332f637db146103d857806337bdc99b146102225780635927fca2146101fb578063715018a61461019e5780638da5cb5b14610172578063bdc6d9ab146101015763f2fde38b14610078575f80fd5b346100fd5760203660031901126100fd57610091610565565b9061009a61057f565b6001600160a01b039182169283156100e757505082546001600160a01b0319811683178455167f8be0079c531659141344cd1fd0a4f28419497f9722a3daafe3b4186f6b6457e08380a380f35b51631e4fbdf760e01b8152908101849052602490fd5b8280fd5b50346100fd5760203660031901126100fd578160e0938235815260026020522060018060a01b03928382541693600183015416926002830154600384015491840154926006600586015495015495815197885260208801528601526060850152608084015260a083015260c0820152f35b50503461019a578160031936011261019a57905490516001600160a01b039091168152602090f35b5080fd5b83346101f857806003193601126101f8576101b761057f565b80546001600160a01b03198116825581906001600160a01b03167f8be0079c531659141344cd1fd0a4f28419497f9722a3daafe3b4186f6b6457e08280a380f35b80fd5b5091346101f85760203660031901126101f8575061021b602092356105d8565b9051908152f35b5090346100fd576020806003193601126103d4578235808552600282528285208054919490916001600160a01b039081169033821480156103c8575b156103945761026c876105d8565b93841561035a57916044869260018560068d98970161028c8a82546105cb565b9055015416918851958693849263a9059cbb60e01b8452878401528860248401525af18015610350576102e6575b50507fd5840651550c173a8bf246eede440a59253bc61eadb2e8887168faad2fad631d9251908152a280f35b83903d8511610348575b601f8201601f191683019067ffffffffffffffff82118483101761033557508491839187528101031261033157518015150361032d575f806102ba565b8480fd5b8580fd5b634e487b7160e01b895260419052602488fd5b3d91506102f0565b85513d89823e3d90fd5b865162461bcd60e51b81528085018790526014602482015273139bc81c995b19585cd8589b1948185b5bdd5b9d60621b6044820152606490fd5b855162461bcd60e51b8152808401869052600e60248201526d139bdd08185d5d1a1bdc9a5e995960921b6044820152606490fd5b5080885416331461025e565b8380fd5b5091903461019a5760c036600319011261019a576103f4610565565b6001600160a01b03929060243584811691908290036100fd576044356064359160a4359661042061057f565b86519160e0830183811067ffffffffffffffff82111761053657878a8a857ffad9286b8a0c21fb92a92ecbf564a2091a54a2d2f65eb5ba126253eb6bb815949896606098966006968452169a8b87526020870190815282870190888252898801928c84528060808a0195608435875260a08b0197885260c08b0198808a526001548152600260205220995116906bffffffffffffffffffffffff60a01b91828b5416178a5560018a0192511690825416179055516002870155516003860155518d850155516005840155519101556001549788948851928352602083015287820152a35f1983146105235760018301806001558311610523576020838351908152f35b634e487b7160e01b815260118452602490fd5b634e487b7160e01b885260418b52602488fd5b84903461019a578160031936011261019a576020906001548152f35b600435906001600160a01b038216820361057b57565b5f80fd5b5f546001600160a01b0316330361059257565b60405163118cdaa760e01b8152336004820152602490fd5b919082039182116105b757565b634e487b7160e01b5f52601160045260245ffd5b919082018092116105b757565b905f9182526002602052604082209160038301546105fa6004850154826105cb565b42106106885761060a90426105aa565b906005840154908183101561067057600285015483810293818504149015171561065c578115610648575060066106459394015491046105aa565b90565b634e487b7160e01b81526012600452602490fd5b634e487b7160e01b81526011600452602490fd5b505050908060066002610645930154910154906105aa565b50915056fea2646970667358221220e323603206f41d9e879a7e55f21cc40645c8b379dc50060594b820f3f154fe1264736f6c63430008140033",
  "linkReferences": {},
  "deployedLinkReferences": {},
  "immutableReferences": {},
  "inputSourceName": "project/contracts/Vesting.sol",
  "buildInfoId": "solc-0_8_20-d6a917d52d9c138b45722d4307b66fb998b1618e"
}