{
  "_format": "hh-sol-artifact-1",
  "contractName": "Vesting",
  "sourceName": "contracts/Vesting.sol",
  "abi": [
    {
      "inputs": [
        {
          "internalType": "address",
          "name": "initialOwner",
          "type": "address"
        }
      ],
      "stateMutability": "nonpayable",
      "type": "constructor"
    },
    {
      "inputs": [
        {
          "internalType": "address",
          "name": "owner",
          "type": "address"
        }
      ],
      "name": "OwnableInvalidOwner",
      "type": "error"
    },
    {
      "inputs": [
        {
          "internalType": "address",
          "name": "account",
          "type": "address"
        }
      ],
      "name": "OwnableUnauthorizedAccount",
      "type": "error"
    },
    {
      "inputs": [],
      "name": "ReentrancyGuardReentrantCall",
      "type": "error"
    },
    {
      "inputs": [
        {
          "internalType": "address",
          "name": "token",
          "type": "address"
        }
      ],
      "name": "SafeERC20FailedOperation",
      "type": "error"
    },
    {
      "anonymous": false,
      "inputs": [
        {
          "indexed": true,
          "internalType": "address",
          "name": "previousOwner",
          "type": "address"
        },
        {
          "indexed": true,
          "internalType": "address",
          "name": "newOwner",
          "type": "address"
        }
      ],
      "name": "OwnershipTransferred",
      "type": "event"
    },
    {
      "anonymous": false,
      "inputs": [
        {
          "indexed": true,
          "internalType": "uint256",
          "name": "vestingId",
          "type": "uint256"
        },
        {
          "indexed": false,
          "internalType": "uint256",
          "name": "amount",
          "type": "uint256"
        }
      ],
      "name": "Released",
      "type": "event"
    },
    {
      "anonymous": false,
      "inputs": [
        {
          "indexed": true,
          "internalType": "uint256",
          "name": "vestingId",
          "type": "uint256"
        },
        {
          "indexed": true,
          "internalType": "address",
          "name": "beneficiary",
          "type": "address"
        },
        {
          "indexed": false,
          "internalType": "uint256",
          "name": "totalAmount",
          "type": "uint256"
        },
        {
          "indexed": false,
          "internalType": "uint256",
          "name": "start",
          "type": "uint256"
        },
        {
          "indexed": false,
          "internalType": "uint256",
          "name": "duration",
          "type": "uint256"
        }
      ],
      "name": "VestingCreated",
      "type": "event"
    },
    {
      "inputs": [
        {
          "internalType": "address",
          "name": "beneficiary",
          "type": "address"
        },
        {
          "internalType": "address",
          "name": "token",
          "type": "address"
        },
        {
          "internalType": "uint256",
          "name": "totalAmount",
          "type": "uint256"
        },
        {
          "internalType": "address",
          "name": "source",
          "type": "address"
        },
        {
          "internalType": "uint256",
          "name": "start",
          "type": "uint256"
        },
        {
          "internalType": "uint256",
          "name": "cliff",
          "type": "uint256"
        },
        {
          "internalType": "uint256",
          "name": "duration",
          "type": "uint256"
        }
      ],
      "name": "createVesting",
      "outputs": [
        {
          "internalType": "uint256",
          "name": "",
          "type": "uint256"
        }
      ],
      "stateMutability": "nonpayable",
      "type": "function"
    },
    {
      "inputs": [],
      "name": "nextScheduleId",
      "outputs": [
        {
          "internalType": "uint256",
          "name": "",
          "type": "uint256"
        }
      ],
      "stateMutability": "view",
      "type": "function"
    },
    {
      "inputs": [],
      "name": "owner",
      "outputs": [
        {
          "internalType": "address",
          "name": "",
          "type": "address"
        }
      ],
      "stateMutability": "view",
      "type": "function"
    },
    {
      "inputs": [
        {
          "internalType": "address",
          "name": "tokenAddress",
          "type": "address"
        },
        {
          "internalType": "uint256",
          "name": "tokenAmount",
          "type": "uint256"
        }
      ],
      "name": "recoverERC20",
      "outputs": [],
      "stateMutability": "nonpayable",
      "type": "function"
    },
    {
      "inputs": [
        {
          "internalType": "uint256",
          "name": "vestingId",
          "type": "uint256"
        }
      ],
      "name": "releasableAmount",
      "outputs": [
        {
          "internalType": "uint256",
          "name": "",
          "type": "uint256"
        }
      ],
      "stateMutability": "view",
      "type": "function"
    },
    {
      "inputs": [
        {
          "internalType": "uint256",
          "name": "vestingId",
          "type": "uint256"
        }
      ],
      "name": "release",
      "outputs": [],
      "stateMutability": "nonpayable",
      "type": "function"
    },
    {
      "inputs": [],
      "name": "renounceOwnership",
      "outputs": [],
      "stateMutability": "nonpayable",
      "type": "function"
    },
    {
      "inputs": [
        {
          "internalType": "uint256",
          "name": "",
          "type": "uint256"
        }
      ],
      "name": "schedules",
      "outputs": [
        {
          "internalType": "address",
          "name": "beneficiary",
          "type": "address"
        },
        {
          "internalType": "address",
          "name": "token",
          "type": "address"
        },
        {
          "internalType": "uint256",
          "name": "totalAmount",
          "type": "uint256"
        },
        {
          "internalType": "uint256",
          "name": "start",
          "type": "uint256"
        },
        {
          "internalType": "uint256",
          "name": "cliff",
          "type": "uint256"
        },
        {
          "internalType": "uint256",
          "name": "duration",
          "type": "uint256"
        },
        {
          "internalType": "uint256",
          "name": "released",
          "type": "uint256"
        }
      ],
      "stateMutability": "view",
      "type": "function"
    },
    {
      "inputs": [
        {
          "internalType": "address",
          "name": "newOwner",
          "type": "address"
        }
      ],
      "name": "transferOwnership",
      "outputs": [],
      "stateMutability": "nonpayable",
      "type": "function"
    }
  ],
  "bytecode": "0x6080346100bf57601f61097538819003918201601f19168301916001600160401b038311848410176100c4578084926020946040528339810103126100bf57516001600160a01b0390818116908190036100bf5780156100a657600080546001600160a01b03198116831782556040519316907f8be0079c531659141344cd1fd0a4f28419497f9722a3daafe3b4186f6b6457e09080a36001805561089a90816100db8239f35b604051631e4fbdf760e01b815260006004820152602490fd5b600080fd5b634e487b7160e01b600052604160045260246000fdfe6080604081815260048036101561001557600080fd5b600092833560e01c9081630f038d41146106295750806337bdc99b146105065780635927fca2146104df578063715018a6146104855780638980f11f146104435780638da5cb5b1461041b578063bc4e568a14610180578063bdc6d9ab1461010f5763f2fde38b1461008657600080fd5b3461010b57602036600319011261010b5761009f610645565b906100a8610660565b6001600160a01b039182169283156100f557505082546001600160a01b0319811683178455167f8be0079c531659141344cd1fd0a4f28419497f9722a3daafe3b4186f6b6457e08380a380f35b51631e4fbdf760e01b8152908101849052602490fd5b8280fd5b503461010b57602036600319011261010b578160e0938235815260036020522060018060a01b03928382541693600183015416926002830154600384015491840154926006600586015495015495815197885260208801528601526060850152608084015260a083015260c0820152f35b50903461010b5760e036600319011261010b5761019b610645565b6001600160a01b036024803582811696929593929190879003610417576044359660649687359281841680940361041357608435948260c435976101dd610660565b6101e56106f4565b169788156103dc578b156103a657871561036e576002549a6000198c1461035d5760018c016002558a5167ffffffffffffffff9560e082018781118382101761034b578f8f8f8f928f938f9296808f92986006998e9982528b5260208b01938452808b0194855260608b0195865260808b019660a435885260a08c0198895260c08c0199808b525260036020528d20995116906bffffffffffffffffffffffff60a01b91828b5416178a5560018a01925116908254161790555160028701555160038601555186850155516005840155519101558a51966323b872dd60e01b6020890152848801523060448801528c81880152865260a08601938685109085111761033b57505050937ffad9286b8a0c21fb92a92ecbf564a2091a54a2d2f65eb5ba126253eb6bb815949361032360609460209b948b988b5261068c565b87519283528983015286820152a36001805551908152f35b634e487b7160e01b825260419052fd5b634e487b7160e01b8652604185528686fd5b50634e487b7160e01b825260119052fd5b8a9060148460208d519362461bcd60e51b85528401528201527304475726174696f6e206d757374206265203e20360641b6044820152fd5b8a9060128460208d519362461bcd60e51b8552840152820152710416d6f756e74206d757374206265203e20360741b6044820152fd5b8a9060138460208d519362461bcd60e51b855284015282015272496e76616c69642062656e656669636961727960681b6044820152fd5b8480fd5b5080fd5b505034610417578160031936011261041757905490516001600160a01b039091168152602090f35b505034610417573660031901126104825761047f61045f610645565b610467610660565b8254602435916001600160a01b0391821691166107fc565b80f35b80fd5b833461048257806003193601126104825761049e610660565b80546001600160a01b03198116825581906001600160a01b03167f8be0079c531659141344cd1fd0a4f28419497f9722a3daafe3b4186f6b6457e08280a380f35b50913461048257602036600319011261048257506104ff60209235610747565b9051908152f35b503461010b57602036600319011261010b578035916105236106f4565b828452600360205280842080546001600160a01b0390811691338314801561061d575b156105e95761055486610747565b9485156105af5750847fd5840651550c173a8bf246eede440a59253bc61eadb2e8887168faad2fad631d95936020959360018460066105a39601610599868254610717565b90550154166107fc565b51908152a26001805580f35b606490602086519162461bcd60e51b83528201526014602482015273139bc81c995b19585cd8589b1948185b5bdd5b9d60621b6044820152fd5b835162461bcd60e51b8152602081870152600e60248201526d139bdd08185d5d1a1bdc9a5e995960921b6044820152606490fd5b50818754163314610546565b8490346104175781600319360112610417576020906002548152f35b600435906001600160a01b038216820361065b57565b600080fd5b6000546001600160a01b0316330361067457565b60405163118cdaa760e01b8152336004820152602490fd5b906000602091828151910182855af1156106e8576000513d6106df57506001600160a01b0381163b155b6106bd5750565b604051635274afe760e01b81526001600160a01b039091166004820152602490fd5b600114156106b6565b6040513d6000823e3d90fd5b600260015414610705576002600155565b604051633ee5aeb560e01b8152600490fd5b9190820180921161072457565b634e487b7160e01b600052601160045260246000fd5b9190820391821161072457565b90600091825260036020526040822091600383015461076a600485015482610717565b42106107f75761077a904261073a565b600584015490918183106107a3575050509080600660026107a09301549101549061073a565b90565b60028501548381029381850414901517156107e35781156107cf575060066107a093940154910461073a565b634e487b7160e01b81526012600452602490fd5b634e487b7160e01b81526011600452602490fd5b509150565b60405163a9059cbb60e01b60208201526001600160a01b039092166024830152604480830193909352918152608081019167ffffffffffffffff83118284101761084e5761084c9260405261068c565b565b634e487b7160e01b600052604160045260246000fdfea264697066735822122048f1ec6c4520ca95d25a985502ef7730981784182786ca955b6bf527ac9f6f4d64736f6c63430008140033",
  "linkReferences": {},
  "deployedLinkReferences": {}
}