{
  "_format": "hh-sol-artifact-1",
  "contractName": "NobleMilestoneEscrow",
  "sourceName": "contracts/NobleMilestoneEscrow.sol",
  "abi": [
    {
      "inputs": [
        {
          "internalType": "address",
          "name": "_projectAddress",
          "type": "address"
        },
        {
          "internalType": "address",
          "name": "_initialOwner",
          "type": "address"
        }
      ],
      "stateMutability": "nonpayable",
      "type": "constructor"
    },
    {
      "inputs": [
        {
          "internalType": "address",
          "name": "owner",
          "type": "address"
        }
      ],
      "name": "OwnableInvalidOwner",
      "type": "error"
    },
    {
      "inputs": [
        {
          "internalType": "address",
          "name": "account",
          "type": "address"
        }
      ],
      "name": "OwnableUnauthorizedAccount",
      "type": "error"
    },
    {
      "inputs": [],
      "name": "ReentrancyGuardReentrantCall",
      "type": "error"
    },
    {
      "anonymous": false,
      "inputs": [],
      "name": "EmergencyRefundEnabled",
      "type": "event"
    },
    {
      "anonymous": false,
      "inputs": [
        {
          "indexed": false,
          "internalType": "uint256",
          "name": "milestoneId",
          "type": "uint256"
        },
        {
          "indexed": false,
          "internalType": "string",
          "name": "description",
          "type": "string"
        },
        {
          "indexed": false,
          "internalType": "uint256",
          "name": "percentage",
          "type": "uint256"
        }
      ],
      "name": "MilestoneAdded",
      "type": "event"
    },
    {
      "anonymous": false,
      "inputs": [
        {
          "indexed": false,
          "internalType": "uint256",
          "name": "milestoneId",
          "type": "uint256"
        },
        {
          "indexed": false,
          "internalType": "uint256",
          "name": "amount",
          "type": "uint256"
        }
      ],
      "name": "MilestoneReleased",
      "type": "event"
    },
    {
      "anonymous": false,
      "inputs": [
        {
          "indexed": true,
          "internalType": "address",
          "name": "previousOwner",
          "type": "address"
        },
        {
          "indexed": true,
          "internalType": "address",
          "name": "newOwner",
          "type": "address"
        }
      ],
      "name": "OwnershipTransferred",
      "type": "event"
    },
    {
      "anonymous": false,
      "inputs": [
        {
          "indexed": false,
          "internalType": "string",
          "name": "reason",
          "type": "string"
        }
      ],
      "name": "ProjectKilled",
      "type": "event"
    },
    {
      "anonymous": false,
      "inputs": [
        {
          "indexed": false,
          "internalType": "address",
          "name": "user",
          "type": "address"
        },
        {
          "indexed": false,
          "internalType": "uint256",
          "name": "amount",
          "type": "uint256"
        }
      ],
      "name": "RefundClaimed",
      "type": "event"
    },
    {
      "anonymous": false,
      "inputs": [
        {
          "indexed": false,
          "internalType": "address",
          "name": "voter",
          "type": "address"
        },
        {
          "indexed": false,
          "internalType": "uint256",
          "name": "milestoneId",
          "type": "uint256"
        },
        {
          "indexed": false,
          "internalType": "bool",
          "name": "approved",
          "type": "bool"
        },
        {
          "indexed": false,
          "internalType": "uint256",
          "name": "weight",
          "type": "uint256"
        }
      ],
      "name": "VoteCast",
      "type": "event"
    },
    {
      "inputs": [],
      "name": "INACTIVITY_THRESHOLD",
      "outputs": [
        {
          "internalType": "uint256",
          "name": "",
          "type": "uint256"
        }
      ],
      "stateMutability": "view",
      "type": "function"
    },
    {
      "inputs": [
        {
          "internalType": "address",
          "name": "_contributor",
          "type": "address"
        },
        {
          "internalType": "uint256",
          "name": "_amount",
          "type": "uint256"
        }
      ],
      "name": "addContribution",
      "outputs": [],
      "stateMutability": "nonpayable",
      "type": "function"
    },
    {
      "inputs": [
        {
          "internalType": "string[]",
          "name": "_descriptions",
          "type": "string[]"
        },
        {
          "internalType": "uint256[]",
          "name": "_percentages",
          "type": "uint256[]"
        },
        {
          "internalType": "uint256[]",
          "name": "_deadlines",
          "type": "uint256[]"
        }
      ],
      "name": "addMilestones",
      "outputs": [],
      "stateMutability": "nonpayable",
      "type": "function"
    },
    {
      "inputs": [],
      "name": "claimEmergencyRefund",
      "outputs": [],
      "stateMutability": "nonpayable",
      "type": "function"
    },
    {
      "inputs": [
        {
          "internalType": "address",
          "name": "",
          "type": "address"
        }
      ],
      "name": "contributions",
      "outputs": [
        {
          "internalType": "uint256",
          "name": "",
          "type": "uint256"
        }
      ],
      "stateMutability": "view",
      "type": "function"
    },
    {
      "inputs": [],
      "name": "emergencyRefundEnabled",
      "outputs": [
        {
          "internalType": "bool",
          "name": "",
          "type": "bool"
        }
      ],
      "stateMutability": "view",
      "type": "function"
    },
    {
      "inputs": [],
      "name": "enableEmergencyRefund",
      "outputs": [],
      "stateMutability": "nonpayable",
      "type": "function"
    },
    {
      "inputs": [],
      "name": "getMilestonesCount",
      "outputs": [
        {
          "internalType": "uint256",
          "name": "",
          "type": "uint256"
        }
      ],
      "stateMutability": "view",
      "type": "function"
    },
    {
      "inputs": [
        {
          "internalType": "uint256",
          "name": "",
          "type": "uint256"
        },
        {
          "internalType": "address",
          "name": "",
          "type": "address"
        }
      ],
      "name": "hasVoted",
      "outputs": [
        {
          "internalType": "bool",
          "name": "",
          "type": "bool"
        }
      ],
      "stateMutability": "view",
      "type": "function"
    },
    {
      "inputs": [],
      "name": "lastMilestoneClaimTimestamp",
      "outputs": [
        {
          "internalType": "uint256",
          "name": "",
          "type": "uint256"
        }
      ],
      "stateMutability": "view",
      "type": "function"
    },
    {
      "inputs": [
        {
          "internalType": "uint256",
          "name": "",
          "type": "uint256"
        }
      ],
      "name": "milestones",
      "outputs": [
        {
          "internalType": "string",
          "name": "description",
          "type": "string"
        },
        {
          "internalType": "uint256",
          "name": "percentage",
          "type": "uint256"
        },
        {
          "internalType": "bool",
          "name": "isReleased",
          "type": "bool"
        },
        {
          "internalType": "uint256",
          "name": "approvalVotes",
          "type": "uint256"
        },
        {
          "internalType": "uint256",
          "name": "rejectionVotes",
          "type": "uint256"
        },
        {
          "internalType": "uint256",
          "name": "deadline",
          "type": "uint256"
        },
        {
          "internalType": "string",
          "name": "proofOfWork",
          "type": "string"
        }
      ],
      "stateMutability": "view",
      "type": "function"
    },
    {
      "inputs": [],
      "name": "owner",
      "outputs": [
        {
          "internalType": "address",
          "name": "",
          "type": "address"
        }
      ],
      "stateMutability": "view",
      "type": "function"
    },
    {
      "inputs": [],
      "name": "projectAddress",
      "outputs": [
        {
          "internalType": "address",
          "name": "",
          "type": "address"
        }
      ],
      "stateMutability": "view",
      "type": "function"
    },
    {
      "inputs": [],
      "name": "projectKilled",
      "outputs": [
        {
          "internalType": "bool",
          "name": "",
          "type": "bool"
        }
      ],
      "stateMutability": "view",
      "type": "function"
    },
    {
      "inputs": [
        {
          "internalType": "uint256",
          "name": "_milestoneId",
          "type": "uint256"
        }
      ],
      "name": "releaseMilestone",
      "outputs": [],
      "stateMutability": "nonpayable",
      "type": "function"
    },
    {
      "inputs": [],
      "name": "renounceOwnership",
      "outputs": [],
      "stateMutability": "nonpayable",
      "type": "function"
    },
    {
      "inputs": [
        {
          "internalType": "uint256",
          "name": "_milestoneId",
          "type": "uint256"
        },
        {
          "internalType": "string",
          "name": "_proof",
          "type": "string"
        }
      ],
      "name": "submitProofOfWork",
      "outputs": [],
      "stateMutability": "nonpayable",
      "type": "function"
    },
    {
      "inputs": [],
      "name": "totalFundsRaised",
      "outputs": [
        {
          "internalType": "uint256",
          "name": "",
          "type": "uint256"
        }
      ],
      "stateMutability": "view",
      "type": "function"
    },
    {
      "inputs": [],
      "name": "totalReleasedFunds",
      "outputs": [
        {
          "internalType": "uint256",
          "name": "",
          "type": "uint256"
        }
      ],
      "stateMutability": "view",
      "type": "function"
    },
    {
      "inputs": [],
      "name": "totalVotingPower",
      "outputs": [
        {
          "internalType": "uint256",
          "name": "",
          "type": "uint256"
        }
      ],
      "stateMutability": "view",
      "type": "function"
    },
    {
      "inputs": [
        {
          "internalType": "address",
          "name": "newOwner",
          "type": "address"
        }
      ],
      "name": "transferOwnership",
      "outputs": [],
      "stateMutability": "nonpayable",
      "type": "function"
    },
    {
      "inputs": [
        {
          "internalType": "uint256",
          "name": "_milestoneId",
          "type": "uint256"
        },
        {
          "internalType": "bool",
          "name": "_approve",
          "type": "bool"
        }
      ],
      "name": "voteForRelease",
      "outputs": [],
      "stateMutability": "nonpayable",
      "type": "function"
    },
    {
      "stateMutability": "payable",
      "type": "receive"
    }
  ],
  "bytecode": "0x60a0346100eb57601f61170f38819003918201601f19168301916001600160401b038311848410176100f05780849260409485528339810103126100eb5780610049602092610106565b6001600160a01b0392909183916100609101610106565b1680156100d257600080546001600160a01b03198116831782556040519416907f8be0079c531659141344cd1fd0a4f28419497f9722a3daafe3b4186f6b6457e09080a360018055608052426004556115f4908161011b8239608051818181610b4201528181610d0d01526114580152f35b604051631e4fbdf760e01b815260006004820152602490fd5b600080fd5b634e487b7160e01b600052604160045260246000fd5b51906001600160a01b03821682036100eb5756fe608080604052600436101561001d575b50361561001b57600080fd5b005b60003560e01c9081630b49351c14610fca57508063105fd61f14610e53578063125eec3e14610cc157806315aaec0b14610c2157806328f5678e14610bfb578063317debf514610bd757806339ecacac14610b715780633cf96af114610b2c578063427c0c7f14610b0e57806342e94c9014610ad45780634385963214610a82578063671b379314610a645780636c15576914610a41578063715018a6146109e857806374845ab1146109ca5780638da5cb5b146109a1578063aa4103e214610983578063c819ebd8146104d3578063d92a9a3e146104b5578063e89e4ed614610410578063f2fde38b146103825763f48e81e81461011c573861000f565b3461037d57604036600319011261037d5760043560243580151580820361037d5761014a60065484106112ba565b61016460ff600261015a8661102c565b50015416156112fa565b336000526020916007835260406000205415610346578360005260088352604060002033600052835260ff60406000205416610311577f877856338e13f63d0c36822ff0ef736b80934cd90574a3a5bc9262c39d217c46916080916101d160ff60055460081c1615611339565b3360005260078552604060002054906000146102f25760036101f28761102c565b50016101ff8282546111eb565b90555b856000526008855260406000203360005285526040600020600160ff1982541617905560405191338352868684015260408301526060820152a160046102478361102c565b5001549060095460011c809211610286575b5060036102658361102c565b5001541161026f57005b6102809061027b61159b565b6113bc565b60018055005b60607f34b5206e8c16cea8f036f3109b119ded73ade9f07bdaef7d7f4f81cfcd332ddf9161010161ffff196005541617600555601e604051918083528201527f4d696c6573746f6e652072656a6563746564206279206d616a6f7269747900006040820152a138610259565b60046102fd8761102c565b500161030a8282546111eb565b9055610202565b60405162461bcd60e51b815260048101849052600d60248201526c105b1c9958591e481d9bdd1959609a1b6044820152606490fd5b60405162461bcd60e51b815260048101849052600f60248201526e2737903b37ba34b733903837bbb2b960891b6044820152606490fd5b600080fd5b3461037d57602036600319011261037d5761039b610fe5565b6103a36111bf565b6001600160a01b039081169081156103f757600054826bffffffffffffffffffffffff60a01b821617600055167f8be0079c531659141344cd1fd0a4f28419497f9722a3daafe3b4186f6b6457e0600080a3005b604051631e4fbdf760e01b815260006004820152602490fd5b3461037d57602036600319011261037d5760043560065481101561037d5761043a6104889161102c565b506104b1610447826110d9565b9160018101549060ff6002820154169060038101546004820154906104736006600585015494016110d9565b9360405198899860e08a5260e08a019061117f565b956020890152151560408801526060870152608086015260a085015283820360c085015261117f565b0390f35b3461037d57600036600319011261037d576020600354604051908152f35b3461037d57606036600319011261037d5760043567ffffffffffffffff811161037d57610504903690600401610ffb565b60243567ffffffffffffffff811161037d57610524903690600401610ffb565b919060443567ffffffffffffffff811161037d57848361054986933690600401610ffb565b9490926105546111bf565b6000946000965b8488106105b1576064871161056c57005b60405162461bcd60e51b815260206004820152601c60248201527f546f74616c2070657263656e74616765206578636565647320313030000000006044820152606490fd5b9091929394956105c28887866111f8565b906105ce8a868961123a565b356105da8b868c61123a565b3591604051938460e081011067ffffffffffffffff60e0870111176108df5760e085016040526106098161124a565b9161061760405193846110b7565b818352368282011161037d578160009260209283860137830101528352602083015260006040830152600060608301526000608083015260a082015260405180602081011067ffffffffffffffff6020830111176108df57602081016040526000815260c0820152600654680100000000000000008110156108df578060016106a3920160065561102c565b91909161096d57805180519067ffffffffffffffff82116108df576106d2826106cc865461107d565b86611266565b602090601f83116001146109005760c0939291600091836108f5575b50508160011b916000199060031b1c19161783555b60208101516001840155600283016040820151151560ff80198354169116179055606081015160038401556080810151600484015560a0810151600584015501519081519067ffffffffffffffff82116108df576006019161076f82610769855461107d565b85611266565b602090601f8311600114610872576107b49493929160009183610867575b50508160011b916000199060031b1c19161790555b6107ad89858861123a565b35906111eb565b9660065480600019810111610851577fbf293db00f4de65b181a066ecc2f8bb81fb7174b517fd8085700e259ad00db1b9060806107f2848a896111f8565b61080086898c96949661123a565b3581604051958694600019018552606060208601528160608601528585013760008383018501526040830152601f01601f19168101030190a16000198114610851576001019695949392919061055b565b634e487b7160e01b600052601160045260246000fd5b015190508c8061078d565b90601f198316918460005260206000209260005b8181106108c757509160019391856107b498979694106108ae575b505050811b0190556107a2565b015160001960f88460031b161c191690558c80806108a1565b92936020600181928786015181550195019301610886565b634e487b7160e01b600052604160045260246000fd5b015190508d806106ee565b908460005260206000209160005b601f1985168110610955575091839160019360c09695601f1981161061093c575b505050811b018355610703565b015160001960f88460031b161c191690558d808061092f565b9192602060018192868501518155019401920161090e565b634e487b7160e01b600052600060045260246000fd5b3461037d57600036600319011261037d57602060405162ed4e008152f35b3461037d57600036600319011261037d576000546040516001600160a01b039091168152602090f35b3461037d57600036600319011261037d576020600454604051908152f35b3461037d57600036600319011261037d57610a016111bf565b600080546001600160a01b0319811682556001600160a01b03167f8be0079c531659141344cd1fd0a4f28419497f9722a3daafe3b4186f6b6457e08280a3005b3461037d57600036600319011261037d57602060ff600554166040519015158152f35b3461037d57600036600319011261037d576020600954604051908152f35b3461037d57604036600319011261037d576024356001600160a01b0381169081900361037d576004356000526008602052604060002090600052602052602060ff604060002054166040519015158152f35b3461037d57602036600319011261037d576001600160a01b03610af5610fe5565b1660005260076020526020604060002054604051908152f35b3461037d57600036600319011261037d576020600254604051908152f35b3461037d57600036600319011261037d576040517f00000000000000000000000000000000000000000000000000000000000000006001600160a01b03168152602090f35b3461037d57604036600319011261037d57610bd2610b8d610fe5565b60243590610b996111bf565b60018060a01b031660005260076020526040600020610bb98282546111eb565b9055610bc7816002546111eb565b6002556009546111eb565b600955005b3461037d57602036600319011261037d57610bf061159b565b6102806004356113bc565b3461037d57600036600319011261037d57602060ff60055460081c166040519015158152f35b3461037d57600036600319011261037d5760045462ed4e00810180911161085157421115610c7d57600160ff1960055416176005557f722906c49f03ecfd68886afc5c52f1de3511535a86b31fb160b0379d4f346845600080a1005b606460405162461bcd60e51b815260206004820152602060248201527f496e6163746976697479207468726573686f6c64206e6f7420726561636865646044820152fd5b3461037d57604036600319011261037d576024803567ffffffffffffffff60043581831161037d573660238401121561037d57826004013591821161037d573684838501011161037d577f00000000000000000000000000000000000000000000000000000000000000006001600160a01b03163303610e0f57610d52600691610d4d835482106112ba565b61102c565b500191610d6382610769855461107d565b600090601f8311600114610da4579082939491600093610d97575b505050600019600383901b1c191660019190911b179055005b0101359050838080610d7e565b601f198316948460005260209283600020936000905b888210610df5575050846001969710610dd9575b50505050811b019055005b60001960f88660031b161c199201013516905583808080610dce565b806001849786839596890101358155019601920190610dba565b60405162461bcd60e51b815260206004820152601d818601527f4f6e6c792070726f6a6563742063616e207375626d69742070726f6f660000006044820152606490fd5b3461037d57600036600319011261037d57610e6c61159b565b60ff6005541615610f90573360005260076020526040600020548015610f5857610e968147611379565b600954908115610f42578190049181039081116108515760095533600052600760205260006040812055600080808084335af1610ed161138c565b5015610f0d5760407f358fe4192934d3bf28ae181feda1f4bd08ca67f5e2fad55582cce5eb67304ae9918151903382526020820152a160018055005b60405162461bcd60e51b815260206004820152600d60248201526c1499599d5b990819985a5b1959609a1b6044820152606490fd5b634e487b7160e01b600052601260045260246000fd5b60405162461bcd60e51b815260206004820152601060248201526f4e6f7468696e6720746f20636c61696d60801b6044820152606490fd5b60405162461bcd60e51b81526020600482015260126024820152711499599d5b99081b9bdd08195b98589b195960721b6044820152606490fd5b3461037d57600036600319011261037d576020906006548152f35b600435906001600160a01b038216820361037d57565b9181601f8401121561037d5782359167ffffffffffffffff831161037d576020808501948460051b01011161037d57565b600654811015611067576007906006600052027ff652222313e28459528d920b65115c16c04f3efc82aaedc97be59f3f377c0d3f0190600090565b634e487b7160e01b600052603260045260246000fd5b90600182811c921680156110ad575b602083101461109757565b634e487b7160e01b600052602260045260246000fd5b91607f169161108c565b90601f8019910116810190811067ffffffffffffffff8211176108df57604052565b90604051918260008254926110ed8461107d565b90818452600194858116908160001461115c5750600114611119575b5050611117925003836110b7565b565b9093915060005260209081600020936000915b81831061114457505061111793508201013880611109565b8554888401850152948501948794509183019161112c565b91505061111794506020925060ff191682840152151560051b8201013880611109565b919082519283825260005b8481106111ab575050826000602080949584010152601f8019910116010190565b60208183018101518483018201520161118a565b6000546001600160a01b031633036111d357565b60405163118cdaa760e01b8152336004820152602490fd5b9190820180921161085157565b91908110156110675760051b81013590601e198136030182121561037d57019081359167ffffffffffffffff831161037d57602001823603811361037d579190565b91908110156110675760051b0190565b67ffffffffffffffff81116108df57601f01601f191660200190565b90601f811161127457505050565b600091825260208220906020601f850160051c830194106112b0575b601f0160051c01915b8281106112a557505050565b818155600101611299565b9092508290611290565b156112c157565b60405162461bcd60e51b8152602060048201526011602482015270496e76616c6964206d696c6573746f6e6560781b6044820152606490fd5b1561130157565b60405162461bcd60e51b815260206004820152601060248201526f105b1c9958591e481c995b19585cd95960821b6044820152606490fd5b1561134057565b60405162461bcd60e51b8152602060048201526011602482015270141c9bda9958dd081a5cc81ada5b1b1959607a1b6044820152606490fd5b8181029291811591840414171561085157565b3d156113b7573d9061139d8261124a565b916113ab60405193846110b7565b82523d6000602084013e565b606090565b6113c960065482106112ba565b6113d28161102c565b50600281016113e560ff825416156112fa565b6005546113f860ff8260081c1615611339565b600383015460095460011c10906005840154421180611593575b6115355750156114f05760649161143c91600160ff19825416179055600160025491015490611379565b04611449816003546111eb565b600355426004556000808080847f00000000000000000000000000000000000000000000000000000000000000005af161148161138c565b50156114b9577f9e069181c12760c2cd0078ed4facdbe1f3614543b0fbff5dbcac3cbc61a0b64e9160409182519182526020820152a1565b60405162461bcd60e51b815260206004820152600f60248201526e151c985b9cd9995c8819985a5b1959608a1b6044820152606490fd5b60405162461bcd60e51b815260206004820152601960248201527f4e6f7420656e6f75676820617070726f76616c20766f746573000000000000006044820152606490fd5b92505050610101915061ffff1916176005557f34b5206e8c16cea8f036f3109b119ded73ade9f07bdaef7d7f4f81cfcd332ddf606060405160208152600f60208201526e111958591b1a5b99481b5a5cdcd959608a1b6040820152a1565b508115611412565b6002600154146115ac576002600155565b604051633ee5aeb560e01b8152600490fdfea2646970667358221220e4d36a57a0aeb13ab1230ddd8daf4478acb044fcde8967456c5e4d2776ce4a1b64736f6c63430008140033",
  "linkReferences": {},
  "deployedLinkReferences": {}
}